:020000040800F2
:10000000180D002091010008411E0008391E00084B
:100010003D1E0008D9050008192300080000000053
:10002000000000000000000000000000491E000861
:10003000F505000800000000451E00084D1E0008E0
:10004000AB010008AB010008AB010008AB010008E0
:10005000AB010008AB010008F90500080106000823
:10006000AB010008AB01000809060008AB0100085D
:10007000AB010008AB010008AB010008AB010008B0
:10008000DD050008E9050008AB010008AB01000828
:10009000AB010008AB010008AB010008AB01000890
:1000A000AB010008AB010008AB010008AB01000880
:1000B000AB010008AB010008AB010008AB01000870
:1000C000AB010008AB010008AB010008AB01000860
:1000D000AB010008AB0100080D230008AB010008CC
:1000E000AB010008AB010008AB01000800F002F80A
:1000F00000F03FF80AA090E8000C82448344AAF183
:100100000107DA4501D100F034F8AFF2090EBAE880
:100110000F0013F0010F18BFFB1A43F0010318473B
:10012000DC620000FC620000103A24BF78C878C18D
:10013000FAD8520724BF30C830C144BF04680C60ED
:10014000704700000023002400250026103A28BF35
:1001500078C1FBD8520728BF30C148BF0B60704739
:10016000642900F08980002070471FB51FBD10B5BD
:1001700010BD00F0F7F91146FFF7F7FF02F0F4F9B0
:1001800000F015FA03B4FFF7F2FF03BC00F01CFA0D
:100190000948804709480047FEE7FEE7FEE7FEE71B
:1001A000FEE7FEE7FEE7FEE7FEE7FEE70448054957
:1001B000054A064B70470000511E0008ED0000087C
:1001C00018070020180D0020180900201809002029
:1001D0000FB41CB50C0007AA009007D04142A14201
:1001E00002D32044401E01E04FF0FF30074B7B4418
:1001F00069460190069800F068F90020002C01D0B3
:10020000009908701CBC5DF814FB0000FF020000A0
:100210002DE9F0410E460446002020622046E168A8
:10022000884730B3252805D0D4E901219047206ABA
:10023000401CF2E7E168204600278847050018D0F7
:10024000A5F14100192802D820354FF40067324645
:10025000294620462760FFF783FF40B1012804D0DC
:10026000F61D26F007060836D8E7361DD6E72846DD
:10027000DAE7206ABDE8F0812DE9F0410646002466
:1002800010687529314616A510D0AFF300800028FC
:1002900002DA404213A507E031688A0701D512A5AA
:1002A00002E0490704D511A5012401E0AFF3008065
:1002B00000210A2206F1240709E0B0FBF2FCB0FBA2
:1002C000F2F302FB1C00303078541846491C002819
:1002D000F3D123462A463046BDE8F04100F096B8F7
:1002E000000000002D0000002B0000002000000096
:1002F00010B5431C02E010F8011B71B18107FAD15F
:100300004FF0013202C88C1A8C4314EAC211F9D0A2
:10031000C01A0A0603D0C01E10BDC01A10BD0A04C0
:1003200001D0801E10BD0902FCD0401E10BD032A62
:1003300040F2308010F0030C00F0158011F8013B02
:10034000BCF1020F624498BF11F801CB00F8013BE9
:1003500038BF11F8013BA2F1040298BF00F801CBAD
:1003600038BF00F8013B11F0030300F0C980083AE0
:10037000C0F0088051F8043B083A51F804CBA0E8DB
:100380000810F5E7121D5CBF51F8043B40F8043B30
:10039000AFF30080D20724BF11F8013B11F801CB65
:1003A00048BF11F8012B24BF00F8013B00F801CB36
:1003B00048BF00F8012B70474FF0000200B513460C
:1003C00094469646203922BFA0E80C50A0E80C5075
:1003D000B1F12001BFF4F7AF090728BFA0E80C5026
:1003E00048BF0CC05DF804EB890028BF40F8042B1F
:1003F00008BF704748BF20F8022B11F0804F18BF8C
:1004000000F8012B70477047704770472DE9F0479F
:100410000D4699469246044600F124080168880674
:1004200004D5E06921F01001216000E00120A8421C
:1004300001DD471B00E00027A1697A1902EB0900E2
:10044000081AA0612078C00602D42046AFF30080CD
:10045000002608E0D4E901211AF806009047206A36
:10046000401C761C20624E45F4DB2078C0060AD57D
:100470002046AFF3008006E0D4E901213020904708
:10048000206A401C2062381EA7F10107F4DC07E057
:10049000D4E9012118F805009047206A401C206229
:1004A000281EA5F10105F3DC2046AFF3008020787B
:1004B000000602D50220BDE8F0870120FBE700001E
:1004C00001694A1C02610878704700B58FB0CDE918
:1004D00001310021059105497944CDE90310114608
:1004E0006846FFF795FE0FB000BD0000E5FFFFFF77
:1004F000D1E900239A4202D2531C0B60107070475E
:1005000010B5203AC0F00B80B1E81850A0E81850A0
:10051000B1E81850A0E81850203ABFF4F5AF5FEAF0
:10052000027C24BFB1E81850A0E8185044BF18C995
:1005300018C0BDE810405FEA827C24BF51F8043B3C
:1005400040F8043B08BF7047D20728BF31F8023B90
:1005500048BF11F8012B28BF20F8023B48BF00F824
:10056000012B7047754600F02BF8AE460500694632
:10057000534620F00700854618B020B5FFF716FE59
:10058000BDE820404FF000064FF000074FF0000894
:100590004FF0000BAC46ACE8C009ACE8C009ACE8D1
:1005A000C009ACE8C00921F007018D46704710B5BD
:1005B0000446AFF300802046BDE81040FFF7E2BDDF
:1005C000004870471000002001491820ABBEFEE72C
:1005D0002600020070470000FEE7000040F208100D
:1005E000C2F2000000F098B840F20C30C2F20000F5
:1005F00000F092B870470000012000F069BA0000D6
:10060000022000F065BA0000102000F061BA00007E
:10061000EFF3108072B600BFFEE70000014690F8CD
:100620002100022816D10868D1E90FC3026822F020
:100630000E020260026822F001020260012000FA4C
:1006400003F2CCF8042081F821000020002281F878
:1006500020207047042088630120002281F8202098
:100660007047000080B590F82110022924D102685B
:10067000116821F00E0111602F211368C4F20201EC
:100680008A4240F20401C4F2020123F00103136024
:1006900016DD3023C4F202039A421DD04423C4F273
:1006A00002039A421CD05823C4F202039A421DD17D
:1006B0004FF4803322E000BF04218163012080BD1C
:1006C0000823C4F202039A420ED01C23C4F2020390
:1006D0009A420BD1102311E04FF480730EE000BF5B
:1006E0004FF480530AE000BF012307E001F1680CDA
:1006F0004FF08073624508BF4FF480130B600121F7
:1007000080F82110426B002180F820100AB1904738
:100710000021084680BD000010B5D0E90FCE016869
:10072000DCF800300A6823FA0EF35C072AD512F0D1
:10073000040427D00A68920603D40A6822F004024F
:100740000A602F22C4F20202914240F20402C4F273
:1007500002025BDD3023C4F20203994272D04423CB
:10076000C4F20203994273D05823C4F2020399429F
:1007700040F07A804FF480231360C16A002940F072
:1007800098806FE09C0727D512F0020424D00A68F5
:10079000920606D40A6822F00A020A60012280F852
:1007A00021202F22C4F20202914240F20402C4F23C
:1007B00002023BDD3023C4F20203994260D044239D
:1007C000C4F2020399425FD05823C4F20203994253
:1007D00060D14FF4003365E01B0743D512F00802E7
:1007E00008BF10BD0A6822F00E020A60012101FA5A
:1007F0000EF2CCF80420816380F82110016B0022F6
:10080000002980F8202054D12CE000BF0823C4F236
:100810000203994222D01C23C4F20203994223D13D
:1008200040231360C16A002943D11BE00823C4F2AE
:10083000020399422CD01C23C4F20203994229D10D
:1008400020232FE04FF480631360C16A89BB09E065
:100850004FF480431360C16A59BB03E00423136063
:10086000C16A31BB10BD00BF02F168044FF0806364
:10087000A14208BF4FF480031360C16AC9B9F1E710
:100880004FF400730EE000BF4FF400530AE000BFC6
:10089000022307E002F168044FF00073A14208BF91
:1008A0004FF400131360816A0022002980F8202091
:1008B000D8D0BDE810400847014600284FF001009D
:1008C00008BF70472DE9F043D1F800C04FF6F87328
:1008D000CBF6FD734CF6CD426344CCF6CC42A3FB81
:1008E00002236FF0030707EA93030027C4F202070D
:1008F00001F10C09C1E90F730223D1E9012E99E836
:100900007002D1F81C8081F82130DCF8003043F609
:10091000F077BB431A4342EA0E0222432A43324392
:1009200042EA090242EA0802CCF8002000228A6367
:1009300081F8210081F820200020BDE8F0437047B5
:10094000F0B590F820C0BCF1010F32D04FF0010E8D
:1009500080F820E090F821C0BCF1010F26D14FF0C3
:10096000020C80F821C04FF0000CC0F838C0D0E96C
:1009700000C4C56AC66BDCF80070102C27F00107B4
:10098000CCF80070006C0EFA00F070600846CCF8ED
:10099000043004BF10460A46CCF80800CCF80C20FE
:1009A000DCF8000045B140F00E000DE0002180F8B9
:1009B00020100220F0BD00BF20F00400CCF80000A1
:1009C000DCF8000040F00A00CCF80000DCF8000081
:1009D00040F00100CCF800000020F0BDB0B50446A6
:1009E00000F0A4F9054640F20400C2F200000078CD
:1009F000611C18BF044400BF00F098F9401BA042DE
:100A0000FAD3B0BDB0B5054600F090F9012D04460B
:100A10002CD0102D16D0022D18BFB0BD40F600000E
:100A2000C4F20100022100F06DF9012832D140F238
:100A30007000C2F200000121C1730171A4F11E0116
:100A40004162B0BD40F60000C4F20100102100F088
:100A500059F9012826D140F27000C2F200000121AC
:100A600001744171A4F11E014162B0BD40F6000065
:100A7000C4F2010000F580600121012500F042F977
:100A8000012817D140F27000C2F20000457444639F
:100A9000B0BD00BF40F27000C2F200000021C1737F
:100AA000B0BD00BF40F27000C2F20000002101742E
:100AB000B0BD00BF40F27000C2F20000426B0021E6
:100AC000002A41741EBFA21A82714163B0BD0000AA
:100AD00040F21441C4F201010A68024214BF0860E6
:100AE0007047FFF78FBF00002DE9F04F82B00E680E
:100AF000002E00F0038141F20042C4F201020423FF
:100B000040F2004E904208BF03234FF6FF7CC4F230
:100B1000010E009300240123C1F2100C4FF0000AD3
:100B20004FF0000949E000BF012704F00C030F2239
:100B30009A402BEA020207FA03F34FEA9A051A4396
:100B400046F82520D1F804B040F20C455FEACB22EC
:100B5000DEF8082054BF22EA080242EA0802C4F282
:100B60000105CEF808202A685FEA8B2354BF22EAE9
:100B7000080242EA08022A605FEA8B33DEF80420AA
:100B800054BF22EA080242EA08025FEACB33CEF8F9
:100B90000420DEF800204FF0010354BF22EA0802CF
:100BA00042EA0802CEF800200E680AF1010A36FA7D
:100BB0000AF204F1040400F0A18003FA0AF816EA2C
:100BC000080FF1D04E68664512DC122E56D8DFE8C9
:100BD00006F0350B454955555555555555555555FF
:100BE0005555554D510000BFD1F80C9046E000BF5F
:100BF0004FF6FF72C1F2210296420FDC0022C1F2D1
:100C0000110296421AD00022C1F21202964215D069
:100C10000022C1F22102964210D02FE00022C1F240
:100C2000220296420AD00022C1F23102964205D039
:100C30000022C1F23202964220D100BF8A684AB136
:100C4000012A14BFC0F81480C0F810804FF00809C2
:100C500014E000BF4FF0040910E000BFCA6802F1C1
:100C600008090BE04FF0000908E000BFCA6802F174
:100C7000040903E0CA6802F10C0900BF22460646D7
:100C8000BAF1080F24BF203A043637680F25954083
:100C900027EA050509FA02F22A433260CA79D20628
:100CA0007FF582AF41F21803C4F202031A68AEF571
:100CB0007E7642F001021A601A6802F00102019287
:100CC000019A2AF0030256F802B040F60002C4F27C
:100CD0000102904210D040F60042C4F2010290425C
:100CE0003FF422AF41F20002C4F20102009F9042A1
:100CF00008BF022719E700BF002716E702B0BDE8CA
:100D0000F08F00008068084018BF01207047000085
:100D1000C26802EA0103914341EA0341016170475D
:100D2000002A08BF090401617047000040F21070FA
:100D3000C2F200000068704740F2040040F21071F7
:100D4000C2F20000C2F2000100780A681044086094
:100D50007047000080B542F20000C4F20200016852
:100D600041F010010160032000F08EF8002000F037
:100D700005F800F027F8002080BD000070B540F2B3
:100D80000406C2F2000640F20C013278C2F2000101
:100D90004FF47A730968B3FBF2F20446B1FBF2F147
:100DA000084600F063FB0F2C4FF0010508D838B956
:100DB0004FF0FF3021460022002500F039F8746022
:100DC000284670BD82B041F21800C4F202000168EA
:100DD000042241F001010160016801F0010101916B
:100DE0000199416841F080514160406800F08050B5
:100DF000009000980420C4F20100016862F31A61B7
:100E0000016002B070470000002848BF7047C1B2BF
:100E100000F01F00012202FA00F04EF20012CEF2A2
:100E2000000242EAD10121F003010860704700008E
:100E300010B54EF60C5CCEF2000CDCF80030C3F3BB
:100E4000022E8EF00704042C28BF0424BEF10303F5
:100E50004FF0FF3E0EFA04F438BF0023A14399403F
:100E60000EFA03F39A43114300F00F0200F16043BE
:100E70000901043A03F564436244002848BF02F1C3
:100E80000C03197010BD00004EF60C51CEF200019B
:100E90000A684FF6FF031A4060F30A2242F08060AE
:100EA00040F0FD70086070472DE9F04381B00028E4
:100EB00000F0858042F20008C4F202080446D8F827
:100EC00000000D4600F0070088420CD2D8F8000060
:100ED00020F007002843C8F80000D8F8000000F010
:100EE0000700A8426BD1206841F204098107C4F2CF
:100EF000020917D5410705D5D9F8001041F4E06182
:100F0000C9F80010010705D5D9F8001041F4605167
:100F1000C9F80010D9F80010A26821F0F0011143BF
:100F2000C9F80010C00741D1D8F8000000F0070050
:100F3000A8420CD9D8F8000020F007002843C8F8D0
:100F40000000D8F8000000F00700A84237D1206860
:100F5000410707D5D9F80010E26821F4E061114398
:100F6000C9F80010000708D5D9F80000216920F45D
:100F7000605040EAC100C9F80000D9F8002002F032
:100F80000C00082841F20020C0F27A0050D146F24D
:100F9000E033C2F38341C0F60003595CD2033BD473
:100FA00040F60010C0F23D00484341E0606802286E
:100FB0000AD001282AD159F8041C890308D4012039
:100FC00001B0BDE8F08300BF59F8041C8901F6D5D3
:100FD000D9F8001021F003010843C9F80000FFF719
:100FE000A5FE064641F28837D9F80000616800F096
:100FF0000C00B0EB810F97D0FFF798FE801BB84232
:10100000F2D9032001B0BDE8F08300BF59F8041CF9
:101010008907D4D5DCE700BFD9F8002046F2DE33DB
:10102000C2F34042C0F600039A5C4843B0FBF2F0C2
:10103000D9F8001046F2C632C1F30311C0F600021F
:10104000515C40F20C0220FA01F140F20800C2F2B9
:1010500000000068C2F200021160FFF78FFE00205E
:1010600001B0BDE8F083000040F20C0041F2040141
:10107000C2F20000C4F202010068096846F2D632EA
:10108000C1F30221C0F60002515CC8407047000065
:1010900040F20C0041F20401C2F20000C4F202016D
:1010A0000068096846F2D632C1F3C221C0F60002D8
:1010B000515CC840704700002DE9F04182B0002823
:1010C00068D00446007841F20006C007C4F2020668
:1010D00025D0706800F00C0004281BD0706800F068
:1010E0000C00082802D17068C00313D4606800287F
:1010F00000F06881B0F5A02F00F07C81B0F5803F52
:1011000000F07C81306820F480303060306820F45A
:10111000802076E13068800301D56068D0B3207804
:10112000800718D5706810F00C0F07D0706800F0B9
:101130000C0008286ED17068C0036BD4306880073B
:1011400002D52069012825D13068616920F0F800B6
:1011500040EAC1003060207800071FD420784007A3
:1011600032D4E56995B1706800F00C00082840F0B1
:101170008F80012D0ED07068216A00F480328A427F
:1011800008D1616A00F47010884203D1002002B0D7
:10119000BDE8F081012002B0BDE8F081A06900281F
:1011A00062D00020C4F242200121C0F88014FFF771
:1011B000BDFD0546706A800700F18C80FFF7B6FD23
:1011C000401B0228F6D92AE1F06910F0805808D1B6
:1011D000F06940F08050F061F06900F080500090BC
:1011E000009847F20007C4F200073868C00529D408
:1011F000386840F480703860FFF798FD054600BFFE
:101200003868C0051ED4FFF791FD401B6428F7D94C
:1012100005E100BF2069002840F20000C4F242202E
:1012200000F0828001210160FFF780FD054600BFCC
:10123000306880073FF588AFFFF778FD401B022834
:10124000F6D9ECE0E068002800F08080052800F086
:101250009780012800F09880306A20F00100306209
:10126000306A20F0040092E00020C4F24220002105
:10127000C0F88014FFF75AFD054600BF706A80076A
:101280007FF56CAFFFF752FD401B0228F6D9C6E090
:101290000027C4F2422700203866FFF747FD022DE1
:1012A00005460BD13068800140F1BE80FFF73EFD5E
:1012B000401B02284FF00300F4D968E73068800132
:1012C0007FF564AFFFF732FD401B02284FF00300AB
:1012D000F4D95CE740F20C00C2F20000006844F66A
:1012E000D351C1F26201A0FB0101480A019000BF85
:1012F00000BF0198411E002801913FF42FAF00BFAD
:101300000198411E002801913FF428AF00BF0198C9
:10131000411E002801913FF421AF00BF0198411EFA
:1013200000280191E4D119E700210160FFF7FEFCDC
:10133000054600BF306880077FF50DAFFFF7F6FC6C
:10134000401B02284FF00300F4D920E7306A20F058
:1013500001003062306A20F004003062FFF7E6FCE2
:10136000054641F2883700BF306A800720D5FFF775
:10137000DDFC401BB8424FF00300F5D907E700BF82
:10138000306A40F004003062306A40F001003062A0
:10139000FFF7CCFC054641F2883700BF306A800772
:1013A00006D4FFF7C3FC401BB842F7D937E000BFB3
:1013B000B8F1000F7FF4D5AEF06920F08050F061F5
:1013C000CFE600BF306820F480303060306820F411
:1013D00080203060FFF7AAFC054600BF306880031C
:1013E0007FF59DAEFFF7A2FC401B64284FF0030081
:1013F000F4D9CCE6306840F480203060306840F4A6
:1014000080303060FFF792FC054600BF30688003F3
:101410003FF585AEFFF78AFC401B6428F6D9032010
:1014200002B0BDE8F08100BF206AB0F5803F05D171
:101430007168A26821F40031114371607168626AB9
:1014400021F4741111430843706001203866FFF7DE
:101450006DFC0446306880013FF598AEFFF766FCEE
:10146000001B02284FF00300F4D990E6411E002033
:10147000B0EB116F1CBF012070474EF21002CEF28C
:10148000000251604EF62351CEF20001F0230B70A2
:10149000072190601160704770470000006844F2B7
:1014A0000041C4F20001884218BF704740F2700C3E
:1014B00040F2503040F21041C2F2000C0023C2F260
:1014C0000000C2F200014FF400728CF8003000F00E
:1014D0008FBB0000B0B582B0044600680168C368E5
:1014E000426901F02F05202D03F0200506D12DB112
:1014F000204602B0BDE8B04000F088BE5FEA017C43
:101500001EBF02F0010E03F4907212EB0E0253D1D3
:10151000226B012A05D111F0100218BF13F010023E
:1015200036D10A0622D513F080021FD094F841105C
:1015300021293FD1A168B1F5805F03D1216900293C
:1015400000F07082216A4A1C226209784160E18CB5
:1015500001390A04E1842DD1C16821F08001C16004
:10156000C16841F04001C16002B0B0BD490621D55B
:1015700013F040011ED0C16821F04001C16020215C
:10158000204684F8411002B0BDE8B04000F042BCF3
:10159000002101910168019141680191019940691F
:1015A000400613D4A08DE18DE28D002A18BF884239
:1015B00040F0BA8102B0B0BDCA0718BF13F4807200
:1015C00040F0B6804A0700F1B980BEE0E06B0168E8
:1015D00049688AB2002AEDD0A38D9A42EAD2E18509
:1015E0008069202800F09C80206850E8030F216863
:1015F00020F4807041E80302DAB1206850E8030F5C
:10160000216820F4807041E8030292B1206850E81C
:10161000030F216820F4807041E803024AB120687A
:1016200050E8030F216820F4807041E80302002A8B
:10163000DAD1206850E8050F216820F0010041E868
:101640000502DAB1206850E8050F216820F001009A
:1016500041E8050292B1206850E8050F216820F0AA
:10166000010041E805024AB1206850E8050F2168F1
:1016700020F0010041E80502002ADAD1206850E894
:10168000050F216820F0400041E80502DAB120682A
:1016900050E8050F216820F0400041E8050292B1B2
:1016A000206850E8050F216820F0400041E805025D
:1016B0004AB1206850E8050F216820F0400041E859
:1016C0000502002ADAD1202084F84200002020639D
:1016D000206850E8030F216820F0100041E8030261
:1016E000DAB1206850E8030F216820F0100041E8CB
:1016F000030292B1206850E8030F216820F0100027
:1017000041E803024AB1206850E8030F216820F045
:10171000100041E80302002ADAD1E06BFEF77EFFF9
:1017200002206063A08DE18D401A81B2204674E1F1
:10173000626C42F0010262644A0706D5BEF1000FF6
:1017400003D0626C42F0020262648A0706D5BEF1E1
:10175000000F03D0626C42F004026264BCF1000F1F
:1017600009D545EA0E02B2FA82F2520903D1626C3F
:1017700042F008026264626C002A3FF41BAF11F071
:10178000200118BF002D03D0204600F03FFD206847
:101790004069616C00F0400001F00801401800F061
:1017A000B58000BF206850E8030F216820F49070D6
:1017B00041E80302BAB3206850E8030F216820F41F
:1017C000907041E8030272B3206850E8030F21686B
:1017D00020F4907041E803022AB3206850E8030F18
:1017E000216820F4907041E80302002ADAD11AE05F
:1017F000206850E8050F216820F0010041E805024B
:10180000DAB1206850E8050F216820F0010041E8B6
:10181000050292B1206850E8050F216820F0010010
:1018200041E805024AB1206850E8050F216820F020
:10183000010041E80502002ADAD1206B012824D1F9
:10184000206850E8030F216820F0100041E80302EF
:10185000DAB1206850E8030F216820F0100041E859
:10186000030292B1206850E8030F216820F01000B5
:1018700041E803024AB1206850E8030F216820F0D4
:10188000100041E80302002ADAD1202084F8420047
:10189000002020632068406940063FD5206850E85A
:1018A000050F216820F0400041E80502DAB1206808
:1018B00050E8050F216820F0400041E8050292B190
:1018C000206850E8050F216820F0400041E805023B
:1018D0004AB1206850E8050F216820F0400041E837
:1018E0000502002ADAD1E06BC0B141F65561C0F6BD
:1018F00000014163FEF7B6FE00283FF45BAEE06BEB
:10190000416B02B0BDE8B040084700BF2046FFF77A
:10191000C5FD0020606402B0B0BD00BF204602B02B
:10192000BDE8B040FFF7BABD401A216851E8031F77
:10193000226821F4907142E80313DBB1216851E879
:10194000031F226821F4907142E8031393B12168C8
:1019500051E8031F226821F4907142E803134BB150
:10196000216851E8031F226821F4907142E80313B3
:10197000002BDAD1216851E8051F226821F001010E
:1019800042E80513DBB1216851E8051F226821F008
:10199000010142E8051393B1216851E8051F22684F
:1019A00021F0010142E805134BB1216851E8051F00
:1019B000226821F0010142E80513002BDAD1202131
:1019C00084F8421000212163216851E8031F226836
:1019D00021F0100142E80313DBB1216851E8031F35
:1019E000226821F0100142E8031393B1216851E805
:1019F000031F226821F0100142E803134BB1216854
:101A000051E8031F226821F0100142E80313002B64
:101A1000DAD1022281B22046626302B0BDE8B04052
:101A2000FFF73ABD216A31F8022B6FF35F22426063
:101A300021628CE5002804BF0120704710B50446E0
:101A400090F8410028B9002084F84000204600F0BA
:101A500063F8242084F841002068D4E90212C368A6
:101A600023F40053C360036923F440531A43026113
:101A7000D4E904231143C268194341F20C639A4329
:101A80001143C1604169A26921F44071114343F6D9
:101A90000002C4F201029042416103D0FFF7E4FA70
:101AA00002E000BFFFF7F4FA626819214843910091
:101AB000B0FBF1F048F21F51C5F2EB11A0FB01237E
:101AC0005A094FF69C73C0F6FF7302FB03003223E2
:101AD00003EB0010A0FB0101F02303EA511320687F
:101AE00003EB0212C1F3431111448160016921F437
:101AF00090410161416921F02A014161C16841F4CD
:101B00000051C16000202021606484F8411084F8F5
:101B10004210606310BD00002DE9F04186B004461C
:101B200044F200402168C4F200000026814204967D
:101B300002D006B0BDE8F08141F21801C4F2020102
:101B40004A6840F26C0842F400324A604A6800F584
:101B5000444002F400320192019A0A68C4F2020879
:101B600042F004020A60096801F004010191019940
:101B70000C21029102210391059102A9FEF7B4FF05
:101B800040F20815C2F2000580272846C5E9008604
:101B9000C5E90267C5E90466C5E90666FEF78CFE7D
:101BA000002818BFFEF734FDE5636C6240F20C3587
:101BB00008F11400C2F200051021002285E8870018
:101BC0002846C5E90422C5E90622FEF775FE00286D
:101BD00018BFFEF71DFD262000210022A5636C62C0
:101BE000FFF726F92620FFF70FF906B0BDE8F081D0
:101BF00070B582B0044690F8420020280AD11346FE
:101C00000A4600294FF0010018BF002B06D102B090
:101C100070BD00BF022002B070BD00BF00252220B1
:101C20002563A262A385656484F842002168E06BA5
:101C300041F6DD7C42F23D1E41F66166C0F6000CC5
:101C4000C0F6000EC0F600060431C0E90ACEC0E9B5
:101C50000C65FEF775FE01952068016801914068EA
:101C600001900198206928B3206850E8030F21688B
:101C700040F4807041E80302E2B1206850E8030FAD
:101C8000216840F4807041E803029AB1206850E86E
:101C9000030F216840F4807041E8030252B12068CC
:101CA00050E8030F216840F4807041E80302002AE5
:101CB000DAD100BF206850E8050F216840F001002C
:101CC00041E80502E2B1206850E8050F216840F0C4
:101CD000010041E805029AB1206850E8050F21682B
:101CE00040F0010041E8050252B1206850E8050FBC
:101CF000216840F0010041E80502002ADAD100BF66
:101D0000206850E8050F216840F0400041E80502D6
:101D1000DAB1206850E8050F216840F0400041E842
:101D2000050292B1206850E8050F216840F040009C
:101D300041E805024AB1206850E8050F216840F0EB
:101D4000400041E80502002ADAD1002002B070BD4F
:101D5000704700007047000070B5044690F84100DD
:101D600020281CBF022070BD00294FF001004DD07B
:101D7000002A134608BF70BD4FF0000C21202162DD
:101D8000A384E384C4F844C084F841002268A06BB3
:101D900042F2551E42F2052541F66166C0F6000E7C
:101DA000C0F60005C0F600060432C0E90AE5C0E945
:101DB0000C6CFEF7C5FD20686FF04001016000BFAC
:101DC000206850E8050F216840F0800041E80502D6
:101DD000F2B1206850E8050F216840F0800041E82A
:101DE0000502AAB1206850E8050F216840F0800084
:101DF00041E8050262B1206850E8050F216840F013
:101E0000800041E80502002ADAD1002070BD00BF41
:101E1000002070BD006844F20041C4F20001884215
:101E200018BF704740F27000C2F20000002101703C
:101E30007047000070470000FEE70000FEE700006A
:101E4000FEE700007047000070470000FEF774BF17
:101E500070470000406A0021C185C184FFF71EBBA6
:101E6000406A01684A6990F84130212B2DD112F067
:101E700080022AD00021C184016851E8031F026852
:101E800021F0C00142E80313DBB1016851E8031FF0
:101E9000026821F0C00142E8031393B1016851E8E0
:101EA000031F026821F0C00142E803134BB101682F
:101EB00051E8031F026821F0C00142E80313002B20
:101EC000DAD1202180F841100168496990F8422058
:101ED000222A40F07D8011F0400179D00021C18597
:101EE000016851E8031F026821F4907142E803136E
:101EF000BBB3016851E8031F026821F4907142E806
:101F0000031373B3016851E8031F026821F4907151
:101F100042E803132BB3016851E8031F026821F460
:101F2000907142E80313002BDAD11AE0016851E8FE
:101F3000051F026821F0010142E80513DBB10168C9
:101F400051E8051F026821F0010142E8051393B131
:101F5000016851E8051F026821F0010142E80513FC
:101F60004BB1016851E8051F026821F0010142E808
:101F70000513002BDAD1016B012924D1016851E846
:101F8000031F026821F0100142E80313DBB101686E
:101F900051E8031F026821F0100142E8031393B1D6
:101FA000016851E8031F026821F0100142E80313A1
:101FB0004BB1016851E8031F026821F0100142E8AB
:101FC0000313002BDAD1202180F842100021016395
:101FD000416C41F010014164FFF760BA0168406A4A
:101FE0000968890600F19F800021C185016851E8D8
:101FF000031F026821F4807142E80313E3B1016812
:1020000051E8031F026821F4807142E803139BB179
:10201000016851E8031F026821F4807142E803134C
:1020200053B1016851E8031F026821F4807142E84E
:102030000313002BDAD100BF016851E8051F0268C5
:1020400021F0010142E80513BBB3016851E8051F07
:10205000026821F0010142E8051373B3016851E8F9
:10206000051F026821F0010142E805132BB3016846
:1020700051E8051F026821F0010142E80513002B19
:10208000DAD11AE0016851E8051F026821F0400129
:1020900042E80513DBB1016851E8051F026821F031
:1020A000400142E8051393B1016851E8051F026839
:1020B00021F0400142E805134BB1016851E8051FCA
:1020C000026821F0400142E80513002BDAD12021FB
:1020D00080F84210016B012925D100BF016851E849
:1020E000031F026821F0100142E80313DBB101680D
:1020F00051E8031F026821F0100142E8031393B175
:10210000016851E8031F026821F0100142E803133F
:102110004BB1016851E8031F026821F0100142E849
:102120000313002BDAD100214163016B012918BF91
:10213000FFF70EBE818DFFF7AFB90000406A0121A5
:102140004163016B012918BFFFF704BE818D490867
:10215000FFF7A2B90168406A0968890648BFFFF71E
:1021600059BE0021C18400BF016851E8051F026803
:1021700021F0800142E8051383B3016851E8051F8F
:10218000026821F0800142E805133BB3016851E881
:10219000051F026821F0800142E80513F3B10168D0
:1021A00051E8051F026821F0800142E80513002B69
:1021B000DAD113E0016851E8031F026841F04001E1
:1021C00042E80313002B08BF7047016851E8031F62
:1021D000026841F0400142E8031393B1016851E8FD
:1021E000031F026841F0400142E803134BB101684C
:1021F00051E8031F026841F0400142E80313002B3D
:10220000D8D17047406AFFF715BE000081B090F842
:102210004210222921D183680246B3F5805F09D19B
:1022200052F8281F52F8183C002B63D003685B68F3
:102230000AE000BF52F8281F13B90369002BF5D03C
:1022400003685B6803F07F030B7011680131116054
:10225000C18D01390A04C18502D001B0704700BFA9
:102260000168CA6822F02002CA60CA6822F480723B
:10227000CA604A6922F001024A61202180F84210B6
:1022800000214163026B012A3CD10163016851E8DE
:10229000031F026821F0100142E80313DBB101685B
:1022A00051E8031F026821F0100142E8031393B1C3
:1022B000016851E8031F026821F0100142E803138E
:1022C0004BB1016851E8031F026821F0100142E898
:1022D0000313002BDAD101680A68D20606D5002262
:1022E00000920A680092496800910099818D01B0BE
:1022F000FFF7D2B8026852686FF35F2221F8022B11
:102300008162A5E701B0FFF723BD000040F2503025
:10231000C2F20000FFF7DEB8FEE7000070B540F241
:102320007006C2F20006334613F84B2F002A4FF016
:10233000000213D0334613F8514F8CB1334613F8D3
:10234000574F7CB1334613F85D4F6CB1334613F8E9
:10235000634F002C18BF70BD042406E0002404E085
:10236000012402E0022400E0032404EB440406EB11
:10237000440401251D70A4F84600A4F8481084F810
:102380004A20327802B170BD40F2106CC2F2000CEB
:1023900040F2AA421FFA81FEACF8002082B24FEA56
:1023A0001E25130A8CF8045038258CF802308CF85E
:1023B00003008CF80510002848BF3F2585EA430537
:1023C0006CB26A000723002C48BF83EA450254B26E
:1023D0005500002C48BF83EA42056AB26C00002A0F
:1023E00048BF83EA450462B26500002A48BF83EA19
:1023F00044056AB26C00002A48BF83EA450462B211
:102400006500002A48BF83EA44056AB26C00002ACE
:1024100048BF83EA4504604042B24400002A48BFF6
:1024200083EA400460B26200002848BF83EA4402A5
:1024300050B25400002848BF83EA420460B26200F0
:10244000002848BF83EA440250B25400002848BF25
:1024500083EA420460B26200002848BF83EA440273
:1024600050B25400002848BF83EA420460B26200C0
:10247000002848BF83EA440282EA1E2042B2450097
:10248000002A48BF83EA400568B26A00002848BFB6
:1024900083EA450250B25500002848BF83EA42054E
:1024A00068B26A00002848BF83EA450250B255006E
:1024B000002848BF83EA420568B26A00002848BF86
:1024C00083EA450250B25500002848BF83EA42051E
:1024D00068B26A00002848BF83EA450282EA010028
:1024E00041B24200002948BF83EA400250B2510085
:1024F000002848BF83EA420148B24A00002848BF8A
:1025000083EA410250B25100002848BF83EA4201E9
:1025100048B24A00002848BF83EA410250B2510045
:10252000002848BF83EA420148B24A00002848BF59
:1025300083EA410250B2510000284FF0550048BFD5
:1025400083EA42018CF8070040F250308CF8061004
:10255000C2F2000061460822FFF7FEFB002804BF1C
:102560000120307070BD000094B0FEF7F3FB002432
:102570000120CDE90F44CDE90D440E9010200F90BD
:102580004FF46010022513900AA8CDE90B440A9578
:10259000CDE91154FEF790FD20B1EFF3108072B633
:1025A000FEE700BF0F20CDE905054FF48060CDE9BF
:1025B000080405A802210794FEF776FC20B1EFF38A
:1025C000108072B6FEE700BF4FF0000B41F2180A10
:1025D000CDF834B0C4F2020ADAF8000040F600097F
:1025E00040F00400CAF80000DAF80000C4F2010963
:1025F00000F0040005900598DAF800004FF47071BF
:1026000040F00800CAF80000DAF80000002200F0EC
:102610000800059005984846FEF782FB09F580669C
:102620003046082101220125FEF77AFB3046602161
:102630000022FEF775FB122000270AAC0A90C1F2B7
:1026400031074FF00208484621460B97CDF83080FD
:10265000FEF74AFAC0200AA981E821084846214627
:10266000CDF83480FEF740FA0AA880E8A001304691
:102670002146FEF739FA4FF440700AA981E821019A
:1026800048462146CDF83480FEF72EFA08200A90FD
:102690001120CDE90B0B30462146CDF83480FEF7F2
:1026A00023FA20200AA981E8210130462146CDF8ED
:1026B0003480FEF719FA4020CDE90A05022530469C
:1026C0002146CDE90CB5FEF70FFA062000210022C5
:1026D000FEF7AEFB0620FEF797FB07200021002245
:1026E0004FF00708FEF7A4FB0720FEF78DFB0A203A
:1026F00000210022FEF79CFB0A20FEF785FB5AF81A
:10270000040C002140F001004AF8040C5AF8040CB3
:10271000002200F001000A900A981020FEF788FBC2
:102720001020FEF771FB112000210022FEF780FB34
:102730001120FEF769FB40F25030A9F54441C2F286
:1027400000000C234FF4E13280E80608C0E903BB27
:10275000C0E9053BC0F81CB0FFF76CF920B1EFF3FE
:10276000108072B6FEE700BF64206424FEF736F9DD
:1027700040F2503040F21041C2F20000C2F20001BB
:102780004FF40072FFF734FA40F2700A40F29010F2
:10279000C2F2000AC0F20820CAF8180040F2302045
:1027A000C2F2000078218AF808408AF80AB08AF854
:1027B0000CB08AF80E50FDF7FFFD40F24C10C2F24B
:1027C00000006421FDF7F8FD40F2A820C2F20000ED
:1027D0006421FDF7F1FD40F29830C2F2000078214B
:1027E000AAF862B0CAF85EB0CAF85AB0CAF856B0D1
:1027F000CAF852B0CAF84EB0CAF84AB0CAF846B0E1
:10280000FDF7DAFD40F2D405C2F200052846322178
:10281000FDF7D2FDBAF8010040F20001C2F200015A
:102820000880304640210122AAF816B0CAF803B049
:102830004FF00009CAF824B00396FEF771FA0FF6BC
:10284000D00003F0DFFBFEF771FACAF82800FEF7AC
:102850006DFACAF82C00FEF769FA0146CAF8301082
:1028600017E000BF9AF80000002801F0F180BAF8E4
:10287000010040F20001C2F2000108800499CAF888
:102880002C1000BFDAF83000081AB0F5FA6F83F0A8
:102890009F82FEF74BFA696B4A68BAF81C30C2F5A2
:1028A00000721FFA82FB5B45049000F00C829AF8DC
:1028B000120040F21045C2F2000515E001208AF82E
:1028C00012008AF81490BAF81C100131AAF81C10F2
:1028D000BAF81C10B1F5007F28BFAAF81C90BAF80E
:1028E0001C10594500F0EA81BAF81C100028695CF8
:1028F00008BFAA29E2D0022808D00128E3D102208B
:102900008AF813108AF81200DDE700BF9AF8142045
:102910009AF81330501C0AEB0207A3F11002042AA4
:102920008AF8140087F83C1000F2C481DFE812F046
:1029300006005A00C2016600F40000BFC0B20728BA
:10294000C0F016819AF84210552940F0118140F2EA
:102950003021C2F200010C4614F8097FBAF83C306D
:102960009AF83E009AF83FC09AF84020002F00F0F5
:102970000D810C4614F8157F002F00F00D810C46D8
:1029800014F8217F002F00F00D810C4614F82D7FE4
:10299000002F00F00D810C4614F8397F002F00F055
:1029A00025810C4614F8457F002F00F023810C464A
:1029B00014F8517F002F00F021810C4614F85D7F40
:1029C000002F00F01F810C4614F8697F002F00F0E3
:1029D0001D810C4614F8757F002F40F06B8109278C
:1029E00015E100BFC0B2022804D39AF83D10552962
:1029F00000F060810328C0F0C6805BE1C0B2062809
:102A0000C0F0BA809AF84110552940F0B58040F2E4
:102A10009836C2F20006334613F8057FBAF83C2018
:102A2000BAF83E109AF840C0002F00F0B18033464B
:102A300013F80B7F002F00F0B180334613F8117F9D
:102A4000002F00F0B180334613F8177F002F00F0FD
:102A5000B180334613F81D7F002F00F0C980334644
:102A600013F8237F002F00F0C780334613F8297F27
:102A7000002F00F0C580334613F82F7F002F00F0A1
:102A8000C380334613F8357F002F00F0EB803346C8
:102A900013F83B7F002F00F0E780334613F8417FA7
:102AA000002F00F0E380334613F8477F002F00F03B
:102AB000DF80334613F84D7F002F00F0DB80334674
:102AC00013F8537F002F00F0D780334613F8597F57
:102AD000002F00F0D380334613F85F7F002F00F003
:102AE000CF80334613F8657F002F00F0CB8033464C
:102AF00013F86B7F002F00F0C780334613F8717F07
:102B0000002F00F0C380334613F8777F002F40F08A
:102B1000D1801327BBE000BFC0B2092830D39AF898
:102B2000441055292CD140F2D404C2F200042146AD
:102B300011F8086FBAF83C70BAF83E20BAF84000B5
:102B4000BAF8423036B3214611F8126F46B3214627
:102B500011F81C6F56B3214611F8266F66B3214653
:102B600011F8306F002E40F0A580042425E000BF4E
:102B7000082808D39EE000BF072804D39AE000BFCE
:102B80000A2880F0978002209DE600BF00273EE0E3
:102B900000277CE0002410E0012738E0012776E0E0
:102BA00001240AE0022732E0022770E0022404E058
:102BB00003272CE003276AE0032440F2D40E3FBA37
:102BC00012BA00BA1BBA04EB8406C2F2000E4FEA36
:102BD000174C120C000C1B0C0EEB460401270F7057
:102BE0002EF816C06280A080E38063E004270EE028
:102BF00004274CE005270AE0052748E0062706E001
:102C0000062744E0072702E0072740E008271BBA11
:102C100040F2302501211B0C07EB4707C2F20005EB
:102C200021706FF0130105EB870625F82730A1F11D
:102C30001E032821738086F804C072713072002848
:102C40000CBF14213C20B0720398B171F171402186
:102C500086F80B90FEF75CF840F21045C2F20005D2
:102C600028E000BF082712E0092710E00A270EE03D
:102C70000B270CE00C270AE00D2708E00E2706E0E2
:102C80000F2704E0102702E0112700E0122740F28E
:102C9000983012BA09BA07EB4707C2F20000120CCB
:102CA000090C00EB470601241C7020F817207180E6
:102CB00086F804C000208AF8120004E640F2D4002E
:102CC000C2F20000416B4968BAF81C20BAF81C3007
:102CD000C1F5007087B2C61A1944974238BFC1F5D2
:102CE0008066B1B240F2302640F2983BB1F5E67F03
:102CF000C2F20006C2F2000B40F2D280AAF81C0019
:102D00009AF80000002840F0CB8040F21065C2F233
:102D1000000540F2AA30288045F65200C6F6207021
:102D2000C5F8020046F27650C6F27260C5F8060099
:102D300046F66640C7F26F70C5F809000020002310
:102D400029184F788A787B405FB25E00C978002FDF
:102D500048BF88EA430673B27700002B48BF88EA71
:102D600046077BB27E00002B48BF88EA470673B255
:102D70007700002B48BF88EA46077BB27E00002B15
:102D800048BF88EA470673B27700002B48BF88EA3D
:102D900046077BB27E00002B48BF88EA470673B225
:102DA0007700002B48BF88EA46077A4053B25700A5
:102DB000002B48BF88EA42077AB27B00002A48BF4E
:102DC00088EA47035AB25F00002A48BF88EA4307EF
:102DD0007AB27B00002A48BF88EA47035AB25F00F4
:102DE000002A48BF88EA43077AB27B00002A48BF1E
:102DF00088EA47035AB25F00002A48BF88EA4307BF
:102E00007AB27B00002A48BF88EA470359404AB299
:102E10004B00002A48BF88EA410359B25A000029F2
:102E200048BF88EA430251B25300002948BF88EAEC
:102E3000420359B25A00002948BF88EA430251B2FE
:102E40005300002948BF88EA420359B25A000029BA
:102E500048BF88EA430251B25700002948BF88EAB8
:102E6000420779B27B00002900F1030048BF88EADD
:102E700047030C287FF464AF5520A87340F250300C
:102E8000C2F2000029460F226B73FEF765FF40F285
:102E90003026C2F20006002804BF01208AF8000094
:102EA000BAF8160042F2C502C1085143090DCD22FD
:102EB0004A43D20A02EB8202A1EB4201820841F2AC
:102EC0007B435A43520C4CF6CD4702FB07F3DB0C15
:102ED00003EB8303A2EB430283B27B43DB0C5F4330
:102EE000FF0C07EB8707A3EB470703EB8303A0EB7C
:102EF000430046F2F033C9B2C0F60003595C92B207
:102F0000BFB280B29A5C8AF81E10D95D185C8AF84C
:102F10001F208AF820108AF82100FDF707FFDAF851
:102F200038100546401A022824D39AF815000122C9
:102F30000AEB0001897F02FA00F481F0FF0003F040
:102F4000A3F9E0B203F0A0F9039C2021204601225E
:102F5000FDF7E6FE204620210022FDF7E1FE9AF86B
:102F600015000130C1B2032988BF00208AF815007E
:102F7000CAF83850FDF7DAFE9AF8011081464FF092
:102F8000020599B140F24C1E03296FF0130CC2F2F6
:102F9000000E05D002294FF0020540F0618603259E
:102FA0009AF8040001280BD01AE000BF40F24C1E32
:102FB0006FF0130CC2F2000E9AF8040001280FD132
:102FC00000208AF804009AF800009AF802100029FC
:102FD00008BF2946013900288AF8021000F0A080B5
:102FE0009AF80500012840F03B8100238AF805305B
:102FF0009AF800009AF802100131CAB2954298BFBF
:10300000194600288AF8021040F02A8140F2106622
:10301000C2F2000640F2AA30308046F24D50C7F2AC
:103020006E50C6F8020045F22020C6F26970C6F85C
:10303000060047F2684070810020002231184B786A
:103040005A4053B25700002B48BF88EA42077AB271
:103050007B00002A48BF88EA47035AB25F00002A73
:1030600048BF88EA43077AB27B00002A48BF88EA53
:1030700047035AB25F00002A48BF88EA43077AB282
:103080007B00002A48BF88EA47035AB25F00002A43
:1030900048BF88EA43077BB27A00002B48BF88EA22
:1030A00047020A2800F072838978023051404AB200
:1030B0004B00002A48BF88EA410359B25A00002950
:1030C00048BF88EA430251B25300002948BF88EA4A
:1030D000420359B25A00002948BF88EA430251B25C
:1030E0005300002948BF88EA420359B25A00002918
:1030F00048BF88EA430251B25300002948BF88EA1A
:10310000420359B25A00002948BF88EA430295E7B2
:1031100053797374656D2052656164790000000015
:1031200040F21066C2F2000640F2AA30308046F249
:103130004D50C7F26E50C6F8020044F62040C6F269
:103140006560C6F806007420B07200226FF00100BE
:103150003118CB7809795A4053B25700002B48BF39
:1031600088EA42077AB27B00002A48BF88EA470310
:103170005AB25F00002A48BF88EA43077AB27B0050
:10318000002A48BF88EA47035AB25F00002A48BFB6
:1031900088EA43077AB27B00002A48BF88EA4703DF
:1031A0005AB25F00002A48BF88EA43077AB27B0020
:1031B000002A48BF88EA470359404AB24B00002A18
:1031C00048BF88EA410359B25A00002948BF88EA3B
:1031D000430251B25300002948BF88EA420359B262
:1031E0005A00002948BF88EA430251B2530000291F
:1031F00048BF88EA420359B25A00002948BF88EA0A
:10320000430251B25300002948BF88EA420359B231
:103210005A00002900F1020048BF88EA430208284A
:1032200096D15520307340F25030F272C2F2000055
:1032300031460D22FEF790FD40F24C1E40F2302642
:103240006FF0130CC2F2000EC2F20006002804BF99
:1032500001208AF800009AF8050001283FF4C5AE65
:103260009AF806000225002800F0F88400208AF869
:1032700006009AF80000002800F0F8809AF8011083
:10328000032900F09381022900F0A282002940F076
:10329000E7849AF802000499002840F0E18540F2A2
:1032A0009010C0F20820CAF8180064208AF80800BC
:1032B0000024304678218AF80A408AF80C408AF8BF
:1032C0000E50FDF779F840F24C10C2F20000642174
:1032D000FDF772F840F2A820C2F200006421FDF769
:1032E0006BF858467821AAF86240CAF85E40CAF8DE
:1032F0005A40CAF85640CAF85240CAF84E40CAF876
:103300004A40CAF84640FDF757F840F2D400C2F2EE
:1033100000003221FDF750F8AAF816408AF8034061
:10332000CAF834408AF811408AF80640CAF82440A6
:1033300040F600040120C4F201048AF8010020468E
:1033400040210122FDF7ECFC204680210022FDF700
:10335000E7FC9AF8000040F24C1EC2F2000E6FF03B
:10336000130C002840F07A8440F21066C2F2000686
:1033700040F2AA30308046F24710C6F26D50C6F8CF
:10338000020045F22030C6F27410C6F8060047F27B
:10339000724070810020002231184B785A4053B29D
:1033A0005700002B48BF88EA42077AB27B00002A08
:1033B00048BF88EA47035AB25F00002A48BF88EA3C
:1033C00043077AB27B00002A48BF88EA47035AB213
:1033D0005F00002A48BF88EA43077AB27B00002AD0
:1033E00048BF88EA47035AB25F00002A48BF88EA0C
:1033F00043077BB27A00002B48BF88EA47020A28BD
:1034000000F024828978023051404AB24B00002AF1
:1034100048BF88EA410359B25A00002948BF88EAE8
:10342000430251B25300002948BF88EA420359B20F
:103430005A00002948BF88EA430251B253000029CC
:1034400048BF88EA420359B25A00002948BF88EAB7
:10345000430251B25300002948BF88EA420359B2DF
:103460005A00002948BF88EA430295E740F21066F7
:10347000C2F2000640F2AA30308046F24D50C7F248
:103480006E50C6F8020044F22060C7F26920C6F808
:1034900006006520B07200226FF001003118CB7871
:1034A00009795A4053B25700002B48BF88EA4207B7
:1034B0007AB27B00002A48BF88EA47035AB25F000D
:1034C000002A48BF88EA43077AB27B00002A48BF37
:1034D00088EA47035AB25F00002A48BF88EA4307D8
:1034E0007AB27B00002A48BF88EA47035AB25F00DD
:1034F000002A48BF88EA43077AB27B00002A48BF07
:1035000088EA470359404AB24B00002A48BF88EA7C
:10351000410359B25A00002948BF88EA430251B218
:103520005300002948BF88EA420359B25A000029D3
:1035300048BF88EA430251B25300002948BF88EAD5
:10354000420359B25A00002948BF88EA430251B2E7
:103550005300002948BF88EA420359B25A000029A3
:1035600000F1020048BF88EA4302082896D155209E
:10357000307340F25030F272C2F2000031460D2238
:10358000FEF7EAFB40F24C1E40F230266FF0130CBF
:10359000C2F2000EC2F20006002804BF01208AF821
:1035A00000009AF8011003297FF46DAE9AF802002A
:1035B000012800F047810499002840F0518440F22E
:1035C0009010C0F20820CAF8180064208AF8080099
:1035D0000024304678218AF80A408AF80C408AF89C
:1035E0000E50FCF7E9FE40F24C10C2F200006421DC
:1035F000FCF7E2FE40F2A820C2F200006421FCF7D2
:10360000DBFE58467821AAF86240CAF85E40CAF844
:103610005A40CAF85640CAF85240CAF84E40CAF852
:103620004A40CAF84640FCF7C7FE40F2D400C2F256
:1036300000003221FCF7C0FEAAF816408AF80340C9
:10364000CAF834408AF811408AF80640CAF8244083
:1036500040F600040120C4F201048AF8010020466B
:1036600040210122FDF75CFB204680210022FDF76E
:1036700057FB9AF8000040F24C1EC2F2000E6FF0A9
:10368000130C002840F0EA8240F21066C2F20006F5
:1036900040F2AA30308046F24710C6F26D50C6F8AC
:1036A000020045F22030C6F27410C6F8060047F258
:1036B000724070810020002231184B785A4053B27A
:1036C0005700002B48BF88EA42077AB27B00002AE5
:1036D00048BF88EA47035AB25F00002A48BF88EA19
:1036E00043077AB27B00002A48BF88EA47035AB2F0
:1036F0005F00002A48BF88EA43077AB27B00002AAD
:1037000048BF88EA47035AB25F00002A48BF88EAE8
:1037100043077BB27A00002B48BF88EA47020A2899
:1037200000F094808978023051404AB24B00002A60
:1037300048BF88EA410359B25A00002948BF88EAC5
:10374000430251B25300002948BF88EA420359B2EC
:103750005A00002948BF88EA430251B253000029A9
:1037600048BF88EA420359B25A00002948BF88EA94
:10377000430251B25300002948BF88EA420359B2BC
:103780005A00002948BF88EA430295E75520707324
:1037900040F250303273C2F2000031460E22FEF782
:1037A000DBFA40F24C1E40F23026C2F2000E6FF0FF
:1037B000130CC2F20006002804BF01208AF80000A2
:1037C0009AF80600022500287FF450AD46E200BFBB
:1037D0009AF80200022855D00499012858D00028F0
:1037E00040F03E8301208AF8010000208AF803009F
:1037F0009AF80000002840F0318240F21061C2F2D5
:10380000000140F2AA30088046F25250C7F27350CD
:10381000C1F8020046F26D50C5F21250C1F8060020
:1038200040F25030C2F200000A22FEF795FA40F250
:103830004C1EC2F2000E6FF0130C002840F00E82F6
:103840001CE000BF0020AAF8010007E355207073B8
:1038500040F250303273C2F2000031460E22FEF7C1
:103860007BFA40F24C1E40F23026C2F2000E6FF09E
:10387000130C0028C2F2000640F0F08101208AF803
:103880000000EBE10020AAF801008AF80300E5E25D
:1038900040F29010C0F20820CAF8180064208AF89C
:1038A00008003046002678218AF80A608AF80C6001
:1038B0008AF80E507446FCF77FFD20466421FCF721
:1038C0007BFD40F2A820C2F200006421FCF774FDE9
:1038D00058467821AAF86260CAF85E60CAF85A6051
:1038E000CAF85660CAF85260CAF84E60CAF84A6010
:1038F000CAF84660FCF760FD40F2D400C2F2000056
:103900003221FCF759FD40F600040120C4F2010405
:103910008AF80100204640210122AAF816608AF8A0
:103920000360CAF834608AF811608AF80660CAF841
:103930002460FDF7F5F9204680210022FDF7F0F91B
:103940009AF80000002840F07B8140F21066C2F235
:10395000000640F2AA30308046F24710C6F26D50A1
:10396000C6F8020045F22030C6F27410C6F8060010
:1039700047F2724070810020002200BF31184B785E
:103980005A4053B25700002B48BF88EA42077AB228
:103990007B00002A48BF88EA47035AB25F00002A2A
:1039A00048BF88EA43077AB27B00002A48BF88EA0A
:1039B00047035AB25F00002A48BF88EA43077AB239
:1039C0007B00002A48BF88EA47035AB25F00002AFA
:1039D00048BF88EA43077BB27A00002B48BF88EAD9
:1039E00047020A2800F01C818978023051404AB20F
:1039F0004B00002A48BF88EA410359B25A00002907
:103A000048BF88EA430251B25300002948BF88EA00
:103A1000420359B25A00002948BF88EA430251B212
:103A20005300002948BF88EA420359B25A000029CE
:103A300048BF88EA430251B25300002948BF88EAD0
:103A4000420359B25A00002948BF88EA430295E769
:103A500040F21066C2F2000640F2AA203080BAF8A6
:103A600016009AF80210030A33711C23B270F17029
:103A70007071002A48BF1B2383EA420253B25700E9
:103A8000002B48BF88EA42077AB27B00002A48BF71
:103A900088EA47035AB25F00002A48BF88EA430712
:103AA0007AB27B00002A48BF88EA47035AB25F0017
:103AB000002A48BF88EA43077AB27B00002A48BF41
:103AC00088EA47035AB25F00002A48BF88EA4307E2
:103AD00079404AB24B00002A48BF88EA410359B2F4
:103AE0005A00002948BF88EA430251B25300002916
:103AF00048BF88EA420359B25A00002948BF88EA01
:103B0000430251B25300002948BF88EA420359B228
:103B10005A00002948BF88EA430251B253000029E5
:103B200048BF88EA420359B25A00002948BF88EAD0
:103B3000430282EA10214AB24B00002A48BF88EAB9
:103B4000410359B25A00002948BF88EA430251B2E2
:103B50005300002948BF88EA420359B25A0000299D
:103B600048BF88EA430251B25300002948BF88EA9F
:103B7000420359B25A00002948BF88EA430251B2B1
:103B80005300002948BF88EA420359B25A0000296D
:103B900048BF88EA4302504041B24200002948BF72
:103BA00088EA400250B25100002848BF88EA42012A
:103BB00048B24A00002848BF88EA410250B251008A
:103BC000002848BF88EA420148B24A00002848BF9E
:103BD00088EA410250B25100002848BF88EA4201F9
:103BE00048B24A00002848BF88EA410250B251005A
:103BF00000284FF0550048BF88EA4201F07140F2BA
:103C00005030B171C2F2000031460822FEF7A4F82C
:103C1000002804BF01208AF80000FEF728BE00BF7C
:103C20005520707340F250303273C2F200003146BA
:103C30000E22FEF791F8002804BF01208AF8000048
:103C400040F24C1E40F2302600206FF0130CC2F2FE
:103C5000000EC2F200068AF8030000BF9AF80110B5
:103C60000129049940F0FC809AF8060000281CBF46
:103C700000208AF806009AF80F00012817D1DAF818
:103C80002400A9EB00001F2811D39AF90C0010F1B1
:103C90002C0F07DB10F11E0FD8BF6FF01D000F387F
:103CA0008AF80C0000208AF80E00CAF824909AF8CE
:103CB0001000012814D1DAF82400A9EB00001F2815
:103CC0000ED39AF90C002C2805DC1E28A8BF1E2054
:103CD0000F308AF80C0001208AF80E00CAF82490F0
:103CE0009AF81100012841D19AF80300002849D11F
:103CF000DAF83410002945D0A9EB0101B1F5FA7FBB
:103D000040D90120AAF801508AF803009AF800006F
:103D100020BB40F21061C2F2000140F2AA300880DC
:103D200046F25010C7F27530C1F8020046F2654005
:103D3000C5F26950C1F8060040F25030C2F20000EE
:103D40000A22FEF709F840F24C1EC2F2000E6FF094
:103D5000130C002804BF01208AF800009AF8110013
:103D6000049980F00100C00703D179E00120C00769
:103D700076D09AF8030000281CBF00208AF80300C0
:103D80006EE000BF9AF80A1080F00100B1FA81F1EC
:103D9000490908400499012862D1704610F8081FAB
:103DA00041B3704610F8121F31B3704610F81C1F53
:103DB00021B3704610F8261F11B3704610F8301F5B
:103DC00001B3704610F83A1FF1B1704610F8441F65
:103DD000E1B1704610F84E1FD1B1704610F8581F6F
:103DE000C1B1704610F8621F0029049938D1092129
:103DF00011E000BF00210EE001210CE002210AE0E9
:103E0000032108E0042106E0052104E0062102E088
:103E1000072100E00821BAF8182001EB81012EF8F3
:103E20001120BAF81A2001230370A2F114009AF8A5
:103E30000E200EEB410148800CF10E0042B1012A28
:103E40001ABF0CF10C0000220CF1100201E000BFBF
:103E50000422C88012208A808AF80A00049900BFD0
:103E6000DAF82800081A1028C1F0E6839AF8010051
:103E7000012841F0DF839AF80A0000281CBF0138AE
:103E80008AF80A00BAF81A009AF90C1003380129C6
:103E9000AAF81A0010DB0229D8BF294640F2A8244C
:103EA00040F2D40902394FF6B743C2F20004C2F21D
:103EB00000098AF80C100DE040F2A82440F2D40961
:103EC000B1F1FF3F4FF6B743C2F20004C2F200095E
:103ED00041F3308000B2ACF11E018842BCBF40F219
:103EE0008A20AAF81A009EF80800C0B1BEF80400A3
:103EF000BEF80010BEF802200844BEF80610AEF866
:103F0000000011440AB26245AEF8021004DBA0F2D0
:103F1000353080B2984202D200208EF808009EF818
:103F20001200C0B1BEF80E00BEF80A10BEF80C2098
:103F30000844BEF81010AEF80A0011440AB26245F7
:103F4000AEF80C1004DBA0F2353080B2984202D2F9
:103F500000208EF812009EF81C00C0B1BEF81800B8
:103F6000BEF81410BEF816200844BEF81A10AEF8B9
:103F7000140011440AB26245AEF8161004DBA0F238
:103F8000353080B2984202D200208EF81C009EF894
:103F90002600C0B1BEF82200BEF81E10BEF82020D8
:103FA0000844BEF82410AEF81E0011440AB262455F
:103FB000AEF8201004DBA0F2353080B2984202D275
:103FC00000208EF826009EF83000C0B1BEF82C000C
:103FD000BEF82810BEF82A200844BEF82E10AEF80D
:103FE000280011440AB26245AEF82A1004DBA0F2A0
:103FF000353080B2984202D200208EF830009EF810
:104000003A00C0B1BEF83600BEF83210BEF8342017
:104010000844BEF83810AEF8320011440AB26245C6
:10402000AEF8341004DBA0F2353080B2984202D2F0
:1040300000208EF83A009EF84400C0B1BEF840005F
:10404000BEF83C10BEF83E200844BEF84210AEF860
:104050003C0011440AB26245AEF83E1004DBA0F207
:10406000353080B2984202D200208EF844009EF88B
:104070004E00C0B1BEF84A00BEF84610BEF8482057
:104080000844BEF84C10AEF8460011440AB262452E
:10409000AEF8481004DBA0F2353080B2984202D26C
:1040A00000208EF84E009EF85800C0B1BEF85400B3
:1040B000BEF85010BEF852200844BEF85610AEF8B4
:1040C000500011440AB26245AEF8521004DBA0F26F
:1040D000353080B2984202D200208EF858009EF807
:1040E0006200C0B1BEF85E00BEF85A10BEF85C2097
:1040F0000844BEF86010AEF85A0011440AB2624596
:10410000AEF85C1004DBA0F2353080B2984202D2E7
:1041100000208EF86200207A90B1A0882188628801
:104120000844E188208011440AB2B2F51B7F618007
:1041300004DCA0F2353080B2984201D20020207217
:10414000A07C90B1E0896189A2890844218A6081BC
:1041500011440AB2B2F51B7FA18104DCA0F2353014
:1041600080B2984201D20020A074207F90B1208BB1
:10417000A18AE28A0844618BA08211440AB2B2F596
:104180001B7FE18204DCA0F2353080B2984201D27C
:104190000020207794F8260098B1608CE18B228C67
:1041A0000844A18CE08311440AB2B2F51B7F21843C
:1041B00004DCA0F2353080B2984202D2002084F8AC
:1041C000260094F8300098B1A08D218D628D0844AE
:1041D000E18D208511440AB2B2F51B7F618504DCB4
:1041E000A0F2353080B2984202D2002084F830002C
:1041F00094F83A0098B1E08E618EA28E0844218F27
:10420000608611440AB2B2F51B7FA18604DCA0F2DD
:10421000353080B2984202D2002084F83A0094F8F7
:104220004400A8B1B4F84000A18FE28F0844B4F86C
:104230004210A08711440AB2B2F51B7FE18704DC6B
:10424000A0F2353080B2984202D2002084F84400B7
:1042500094F84E00C8B1B4F84A00B4F84610B4F867
:1042600048200844B4F84C10A4F8460011440AB29F
:10427000B2F51B7FA4F8481004DCA0F2353080B200
:10428000984202D2002084F84E0094F85800C8B139
:10429000B4F85400B4F85010B4F852200844B4F8FC
:1042A0005610A4F8500011440AB2B2F51B7FA4F8CE
:1042B000521004DCA0F2353080B2984202D20020C5
:1042C00084F8580094F86200C8B1B4F85E00B4F8FD
:1042D0005A10B4F85C200844B4F86010A4F85A00EE
:1042E00011440AB2B2F51B7FA4F85C1004DCA0F202
:1042F000353080B2984202D2002084F8620000205B
:1043000013E000BFF9B249B256235943C1F3C03399
:1043100003EB112149B240F230261144C2F20006EB
:1043200031520C30782800F08D8031184A7A002AFA
:10433000F7D091F9047067227A43C2F3C03303EBDC
:104340005222335A52B21A4491F905303252C3F311
:10435000023633444E885BB206EBE30633B240F2DA
:104360008B25AB424E80A4BF00254D720E7A002EE5
:10437000C8D0012E40F23026C2F20006D1D18F7A89
:1043800017B17A1E8A72CCE7274617F8086F2EB34A
:10439000274617F8126F1EB3274617F81C6F0EB387
:1043A000274617F8266FFEB1274617F8306FEEB193
:1043B000274617F83A6FDEB1274617F8446FCEB19B
:1043C000274617F84E6FBEB1274617F8586FAEB1A3
:1043D000274617F8626F6EBB092510E000250EE036
:1043E00001250CE002250AE0032508E0042506E08B
:1043F000052504E0062502E0072500E0082540F237
:10440000A82B05EB8506C2F2000B01240BEB460539
:104410003C702BF8162003F114025C4640F2983BE6
:1044200040F2D4096A804FF48022C2F2000BC2F23B
:1044300000096A60782240F230268A72C2F20006D1
:104440006FE700BF9AF84B0050B19AF84A0001306C
:10445000C1B20A298AF84A0024BF00208AF84B001A
:104460009AF8510050B19AF850000130C1B20A29AF
:104470008AF8500024BF00208AF851009AF85700AB
:1044800050B19AF856000130C1B20A298AF8560094
:1044900024BF00208AF857009AF85D0050B19AF8BE
:1044A0005C000130C1B20A298AF85C0024BF0020F8
:1044B0008AF85D009AF8630050B19AF86200013002
:1044C000C1B20A298AF8620024BF00208AF863007A
:1044D0009BF8050058B1BBF80200013001B2B1F5FC
:1044E0002F7FABF80200C4BF00208BF805009BF8BB
:1044F0000B0058B1BBF80800013001B2B1F52F7FB5
:10450000ABF80800C4BF00208BF80B009BF811002B
:1045100058B1BBF80E00013001B2B1F52F7FABF8F6
:104520000E00C4BF00208BF811009BF8170058B193
:10453000BBF81400013001B2B1F52F7FABF81400C5
:10454000C4BF00208BF817009BF81D0058B1BBF8C2
:104550001A00013001B2B1F52F7FABF81A00C4BFC9
:1045600000208BF81D009BF8230058B1BBF82000F9
:10457000013001B2B1F52F7FABF82000C4BF00209D
:104580008BF823009BF8290058B1BBF826000130B6
:1045900001B2B1F52F7FABF82600C4BF00208BF825
:1045A00029009BF82F0058B1BBF82C00013001B254
:1045B000B1F52F7FABF82C00C4BF00208BF82F0083
:1045C0009BF8350058B1BBF83200013001B2B1F5AB
:1045D0002F7FABF83200C4BF00208BF835009BF86A
:1045E0003B0058B1BBF83800013001B2B1F52F7F64
:1045F000ABF83800C4BF00208BF83B009BF84100AB
:1046000058B1BBF83E00013001B2B1F52F7FABF8D5
:104610003E00C4BF00208BF841009BF8470058B112
:10462000BBF84400013001B2B1F52F7FABF8440074
:10463000C4BF00208BF847009BF84D0058B1BBF871
:104640004A00013001B2B1F52F7FABF84A00C4BF78
:1046500000208BF84D009BF8530058B1BBF8500078
:10466000013001B2B1F52F7FABF85000C4BF00207C
:104670008BF853009BF8590058B1BBF85600013035
:1046800001B2B1F52F7FABF85600C4BF00208BF804
:1046900059009BF85F0058B1BBF85C00013001B2D3
:1046A000B1F52F7FABF85C00C4BF00208BF85F0032
:1046B0009BF8650058B1BBF86200013001B2B1F55A
:1046C0002F7FABF86200C4BF00208BF865009BF819
:1046D0006B0058B1BBF86800013001B2B1F52F7F13
:1046E000ABF86800C4BF00208BF86B009BF871002A
:1046F00058B1BBF86E00013001B2B1F52F7FABF8B5
:104700006E00C4BF00208BF871009BF8770058B191
:10471000BBF87400013001B2B1F52F7FABF8740023
:10472000C4BF00208BF8770099F8080058B1B9F899
:104730000200013001B2B1F52F7FA9F80200C4BF19
:10474000002089F8080099F8120058B1B9F80C0057
:10475000013001B2B1F52F7FA9F80C00C4BF0020D1
:1047600089F8120099F81C0058B1B9F81600013008
:1047700001B2B1F52F7FA9F81600C4BF002089F857
:104780001C0099F8260058B1B9F82000013001B298
:10479000B1F52F7FA9F82000C4BF002089F82600BA
:1047A00099F8300058B1B9F82A00013001B2B1F5DA
:1047B0002F7FA9F82A00C4BF002089F83000002507
:1047C000D9460BE0A6F10A00187040F23026CB461D
:1047D000C2F200060A35642D00F024810EEB0500BC
:1047E000017A0029F6D0717AA1B13EF8052031880E
:1047F000521A133292B2262A0CD8438872889B1A16
:104800001BB2634506DD132B04DC06F10907002308
:10481000E2E000BF717D99B13EF80520B189521ADE
:10482000133292B2262A0BD84388F2899B1A1BB204
:10483000634505DD142B03DA06F115070123CBE0F0
:1048400096F82110A1B13EF80520318B521A13328F
:1048500092B2262A0CD84388728B9B1A1BB26345EE
:1048600006DD142B04DA06F121070223B4E000BFB1
:1048700096F82D10A1B13EF80520B18C521A1332D2
:1048800092B2262A0CD84388F28C9B1A1BB263453D
:1048900006DD142B04DA06F12D0703239CE000BF8C
:1048A00096F83910A1B13EF80520318E521A133214
:1048B00092B2262A0CD84388728E9B1A1BB263458B
:1048C00006DD142B04DA06F13907042384E000BF67
:1048D00096F84510A1B13EF80520B18F521A133257
:1048E00092B2262A0CD84388F28F9B1A1BB26345DA
:1048F00006DD142B04DA06F1450705236CE000BF42
:1049000096F85110B1B13EF80520B6F84810521A89
:10491000133292B2262A0DD84388B6F84A209B1A41
:104920001BB2634506DD142B04DA06F1510706239A
:1049300052E000BF96F85D10B1B13EF80520B6F820
:104940005410521A133292B2262A0DD84388B6F860
:1049500056209B1A1BB2634506DD142B04DA06F1C0
:104960005D07072338E000BF96F86910B1B13EF843
:104970000520B6F86010521A133292B2262A0DD8CA
:104980004388B6F862209B1A1BB2634506DD142BE0
:1049900004DA06F1690708231EE000BF96F87510D7
:1049A000CB4600293FF416AF3EF80520B6F86C1050
:1049B000521A133292B2262A3FF60CAF4388B6F849
:1049C0006E209B1A1BB263457FF704AF142BBFF612
:1049D00001AF06F17507092303EB430306EB8304DC
:1049E000234613F8066F4FF0000B0B2E80F808B02B
:1049F000BFF4E8AE08B211B2FDF790FC207ABAF825
:104A0000161000284FF0190087F800B008BF0A20E0
:104A100040F24C1E0844C2F2000E6FF0130CAAF8CC
:104A20001600D2E640F2A827C2F200073B7A9AF8B5
:104A30000800BAF81820BAF81A109BB13B889B1AE4
:104A40001D339BB23A2B0DD87B885B1A1BB2634592
:104A500008DD132B06DC00230A383B7238BF1846EA
:104A60008AF80800BB7CA3B17B899B1A1D339BB2DB
:104A70003A2B0ED8BB895B1A1BB2634509DD132B99
:104A800007DCC0B200230A38BB7438BF18468AF866
:104A900008003B7FA3B1BB8A9B1A1D339BB23A2B04
:104AA0000ED8FB8A5B1A1BB2634509DD132B07DCAA
:104AB000C0B200230A383B7738BF18468AF808008E
:104AC00097F82630ABB1FB8B9B1A1D339BB23A2B68
:104AD0000FD83B8C5B1A1BB263450ADD132B08DC35
:104AE000C0B200230A3887F8263038BF18468AF843
:104AF000080097F83030ABB13B8D9B1A1D339BB249
:104B00003A2B0FD87B8D5B1A1BB263450ADD132B42
:104B100008DCC0B200230A3887F8303038BF1846A6
:104B20008AF8080097F83A30ABB17B8E9B1A1D3398
:104B30009BB23A2B0FD8BB8E5B1A1BB263450ADDC2
:104B4000132B08DCC0B200230A3887F83A3038BF8C
:104B500018468AF8080097F84430ABB1BB8F9B1A0F
:104B60001D339BB23A2B0FD8FB8F5B1A1BB26345E8
:104B70000ADD132B08DCC0B200230A3887F8443062
:104B800038BF18468AF8080097F84E30BBB1B7F81E
:104B900046309B1A1D339BB23A2B10D8B7F84830D9
:104BA0005B1A1BB263450ADD132B08DCC0B200237D
:104BB0000A3887F84E3038BF18468AF8080097F848
:104BC0005830BBB1B7F850309B1A1D339BB23A2B0B
:104BD00010D8B7F852305B1A1BB263450ADD132BAD
:104BE00008DCC0B200230A3887F8583038BF1846AE
:104BF0008AF8080097F86230BBB1B7F85A309A1AB1
:104C00001D3292B23A2A10D8B7F85C20511A09B274
:104C100061450ADD132908DCC0B200210A3887F893
:104C2000621038BF08468AF80800002403E000BF7D
:104C30000C34782C26D03519697A0029F8D0315BEC
:104C4000BAF818208A1A273292B24E2AF0D86A8807
:104C5000BAF81A30ACF10A07D31A1BB2BB42E7DD2F
:104C60001D2BE5DC08B211B2FDF758FB9AF80800DD
:104C70006FF0130C00211438697238BF08468AF8A7
:104C80000800D5E7BAF81820BAF81AC06FF0130E6A
:104C900000234FF0000902E01833782B76D00BEB9D
:104CA00003056979D1B13BF803102C79891A0EB24A
:104CB000A9EB5407BE4211DD6408A6420EDA6988EA
:104CC000A1EB0C0109B2B94208DDA14206DAC0B27B
:104CD0000A3838BF48468AF8080000BFE97AC9B1E7
:104CE000E988AE7A891A09B2A9EB5607B94211DDF3
:104CF0007408A1420EDA2989A1EB0C0109B2B9426C
:104D000008DDA14206DAC0B20A3838BF48468AF840
:104D1000080000BF697CC9B1A9898F1A297C3EB2FD
:104D2000A9EB5107BE4211DD4C08A6420EDAE98913
:104D3000A1EB0C0109B2B94208DDA14206DAC0B20A
:104D40000A3838BF48468AF8080000BFE97D0029C4
:104D5000A2D0698A8F1AA97D3EB2A9EB5107BE4243
:104D60009ADD4C08A64297DAA98AA1EB0C0109B298
:104D7000B9427FF791AFA142BFF68EAFC0B20A38F9
:104D800038BF48468AF8080086E700BF40F2D404DE
:104D9000C2F20004207AA8B12088801A133080B2B1
:104DA00026280FD86088A0EB0C0000B2704509DD02
:104DB000132807DC6068CAF818009AF80000002879
:104DC00000F0C080A07C6FF01302002800F0528138
:104DD0006089BAF81810401A133080B2262800F201
:104DE0004981A089BAF81A10401A00B2904240F3E3
:104DF0004181132800F33E81D4F80E00CAF8180050
:104E00009AF80000002840F0358140F21066C2F2A6
:104E1000000640F2AA30308046F25450C6F26C5080
:104E2000C6F8020046F67070C7F27240C6F8060077
:104E30002120B07200226FF0010000BF3118CB7842
:104E400009795A4053B25700002B48BF88EA4207FD
:104E50007AB27B00002A48BF88EA47035AB25F0053
:104E6000002A48BF88EA43077AB27B00002A48BF7D
:104E700088EA47035AB25F00002A48BF88EA43071E
:104E80007AB27B00002A48BF88EA47035AB25F0023
:104E9000002A48BF88EA43077AB27B00002A48BF4D
:104EA00088EA470359404AB24B00002A48BF88EAC3
:104EB000410359B25A00002948BF88EA430251B25F
:104EC0005300002948BF88EA420359B25A0000291A
:104ED00048BF88EA430251B25300002948BF88EA1C
:104EE000420359B25A00002948BF88EA430251B22E
:104EF0005300002948BF88EA420359B25A000029EA
:104F000000F1020048BF88EA4302082896D15520E4
:104F1000307340F25030F272C2F2000031460D227E
:104F2000FCF71AFF6FF01302002804BF01208AF873
:104F300000009FE011F1020FA8BF6FF001010231E4
:104F4000FEF7B7BF40F21066C2F2000640F2AA3088
:104F5000308046F25450C6F26C50C6F8020046F655
:104F60007070C7F27240C6F806002120B0720022AD
:104F70006FF001003118CB7809795A4053B25700CD
:104F8000002B48BF88EA42077AB27B00002A48BF5C
:104F900088EA47035AB25F00002A48BF88EA4307FD
:104FA0007AB27B00002A48BF88EA47035AB25F0002
:104FB000002A48BF88EA43077AB27B00002A48BF2C
:104FC00088EA47035AB25F00002A48BF88EA4307CD
:104FD0007AB27B00002A48BF88EA470359404AB2A8
:104FE0004B00002A48BF88EA410359B25A00002901
:104FF00048BF88EA430251B25300002948BF88EAFB
:10500000420359B25A00002948BF88EA430251B20C
:105010005300002948BF88EA420359B25A000029C8
:1050200048BF88EA430251B25300002948BF88EACA
:10503000420359B25A00002900F1020048BF88EA31
:105040004302082896D15520307340F25030F27256
:10505000C2F2000031460D22FCF77EFE002804BF9C
:1050600001208AF80000A07C6FF0130200287FF472
:10507000AFAE00BF207FC8B1A08ABAF81810401A9E
:10508000133080B2262811D8E08ABAF81A10401AD4
:1050900000B290420ADD132808DCA069CAF81800A3
:1050A0009AF80000002800F0B78000BF94F82600AE
:1050B000002800F04981E08BBAF81810401A13302C
:1050C00080B2262800F24081208CBAF81A10401ACB
:1050D00000B2904240F33881132800F33581D4F8B0
:1050E0002200CAF818009AF80000002840F02C812D
:1050F00040F21066C2F2000640F2AA30308046F25A
:105100005450C6F26C50C6F8020046F67070C7F2F2
:105110007240C6F806002120B07200226FF0010034
:105120003118CB7809795A4053B25700002B48BF49
:1051300088EA42077AB27B00002A48BF88EA470320
:105140005AB25F00002A48BF88EA43077AB27B0060
:10515000002A48BF88EA47035AB25F00002A48BFC6
:1051600088EA43077AB27B00002A48BF88EA4703EF
:105170005AB25F00002A48BF88EA43077AB27B0030
:10518000002A48BF88EA470359404AB24B00002A28
:1051900048BF88EA410359B25A00002948BF88EA4B
:1051A000430251B25300002948BF88EA420359B272
:1051B0005A00002948BF88EA430251B2530000292F
:1051C00048BF88EA420359B25A00002948BF88EA1A
:1051D000430251B25300002948BF88EA420359B242
:1051E0005A00002900F1020048BF88EA430208285B
:1051F00096D15520307340F25030F272C2F2000066
:1052000031460D22FCF7A8FD6FF01302002804BF01
:1052100001208AF8000097E040F21066C2F2000612
:1052200040F2AA30308046F25450C6F26C50C6F8B4
:10523000020046F67070C7F27240C6F806002120E0
:10524000B07200226FF001003118CB7809795A4012
:1052500053B25700002B48BF88EA42077AB27B005E
:10526000002A48BF88EA47035AB25F00002A48BFB5
:1052700088EA43077AB27B00002A48BF88EA4703DE
:105280005AB25F00002A48BF88EA43077AB27B001F
:10529000002A48BF88EA47035AB25F00002A48BF85
:1052A00088EA43077AB27B00002A48BF88EA4703AE
:1052B00059404AB24B00002A48BF88EA410359B21C
:1052C0005A00002948BF88EA430251B2530000291E
:1052D00048BF88EA420359B25A00002948BF88EA09
:1052E000430251B25300002948BF88EA420359B231
:1052F0005A00002948BF88EA430251B253000029EE
:1053000048BF88EA420359B25A00002900F102005E
:1053100048BF88EA4302082896D15520307340F2EE
:105320005030F272C2F2000031460D22FCF714FD3B
:105330006FF01302002804BF01208AF8000094F8DF
:10534000260000287FF4B7AE94F83000002800F063
:10535000AF80208DBAF81810401A133080B226287A
:1053600000F2A680608DBAF81A10401A00B290427E
:1053700040F39E80132800F39B80E06ACAF818006F
:105380009AF80000002840F0938040F21066C2F2C4
:10539000000640F2AA30308046F25450C6F26C50FB
:1053A000C6F8020046F67070C7F27240C6F80600F2
:1053B0002120B07200226FF0010000BF3118CB78BD
:1053C00009795A4053B25700002B48BF88EA420778
:1053D0007AB27B00002A48BF88EA47035AB25F00CE
:1053E000002A48BF88EA43077AB27B00002A48BFF8
:1053F00088EA47035AB25F00002A48BF88EA430799
:105400007AB27B00002A48BF88EA47035AB25F009D
:10541000002A48BF88EA43077AB27B00002A48BFC7
:1054200088EA470359404AB24B00002A48BF88EA3D
:10543000410359B25A00002948BF88EA430251B2D9
:105440005300002948BF88EA420359B25A00002994
:1054500048BF88EA430251B25300002948BF88EA96
:10546000420359B25A00002948BF88EA430251B2A8
:105470005300002948BF88EA420359B25A00002964
:1054800000F1020048BF88EA4302082896D155205F
:10549000307340F25030F272C2F2000031460D22F9
:1054A000FCF75AFC002804BF01208AF8000000BF66
:1054B0009AF8080040F24C1E04990028C2F2000E2F
:1054C00040F0B880032040F60004AAF80100002054
:1054D000C4F201048AF80300CAF834008AF8110003
:1054E000204640210022FBF71BFC204680210122A0
:1054F000FBF716FC04999AF8000040F24C1EC2F229
:10550000000E002840F0968040F21066C2F20006BD
:1055100040F2AA30308044F24710C4F24D50C6F831
:10552000020044F62070C4F25650C6F8060052201D
:10553000B07200226FF001003118CB7809795A401F
:1055400053B25700002B48BF88EA42077AB27B006B
:10555000002A48BF88EA47035AB25F00002A48BFC2
:1055600088EA43077AB27B00002A48BF88EA4703EB
:105570005AB25F00002A48BF88EA43077AB27B002C
:10558000002A48BF88EA47035AB25F00002A48BF92
:1055900088EA43077AB27B00002A48BF88EA4703BB
:1055A00059404AB24B00002A48BF88EA410359B229
:1055B0005A00002948BF88EA430251B2530000292B
:1055C00048BF88EA420359B25A00002948BF88EA16
:1055D000430251B25300002948BF88EA420359B23E
:1055E0005A00002948BF88EA430251B253000029FB
:1055F00048BF88EA420359B25A00002900F102006C
:1056000048BF88EA4302082896D15520307340F2FB
:105610005030F272C2F2000031460D22FCF79CFBC2
:1056200040F24C1E0499C2F2000E002804BF012073
:105630008AF80000CAF82810DAF82C0040F2A824F2
:10564000081A40F2D40540F2B01B4FF0000921289F
:10565000C2F20004C2F20005C2F2000BFDF412A96E
:105660009AF8000000287DF40DA99AF90120012A7A
:1056700040F0CA829AF8000000287DF4FFA8BAF82A
:10568000180040F2106CC2F2000C4FF4D571ACF867
:10569000001000BABAF81A10000CACF8020008BAF0
:1056A000000CACF804009AF808009AF80C108CF87A
:1056B0000600BAF8160040F230278CF80710010AED
:1056C0008CF809000120C2F200078CF80A00787AF1
:1056D0008CF80810797D97F8212097F82D30002854
:1056E00018BF0120002918BF0130002A18BF01305F
:1056F00097F83910002B18BF0130002997F8451092
:1057000018BF0130002997F8511018BF0130002947
:1057100097F85D1018BF0130002997F8691018BF7D
:105720000130002997F8751018BF0130002918BF03
:1057300001308CF80B00B91D0C2300220C2000BF97
:10574000CF78B7B131F8067C85B23E0A0CF8036019
:1057500031F8046C05EB0C035F7037BA3F0C40F274
:10576000A8245F808F780E78C2F2000406301F7183
:105770005E71082A83B204D80132F02B01F10C01CA
:10578000DED39EF808209EF812109EF81C709EF83A
:105790002660002A18BF0122002918BF0132002FFD
:1057A00018BF01329EF83010002E18BF01320029B8
:1057B0009EF83A1018BF013200299EF8441018BF15
:1057C000013200299EF84E1018BF013200299EF8C0
:1057D000581018BF013200299EF8621018BF01321C
:1057E000002918BF0132411C0CF80320F12B8AB2AA
:1057F00080F0C1809EF8087077B1BEF800100F0AE3
:105800000CF8027003EB0C02BEF802309170411DDF
:1058100018BA000CA2F803008AB2F12A00F2AB8099
:105820009EF8120060B1BEF80A000431030A0CF8B9
:10583000023062445070BEF80C0000BA000C508078
:105840008AB2F12A00F297809EF81C0060B1BEF87F
:1058500014000431030A0CF8023062445070BEF8A0
:10586000160000BA000C50808AB2F12A00F2838040
:105870009EF8260060B1BEF81E000431030A0CF841
:10588000023062445070BEF8200000BA000C508014
:105890008AB2F12A6FD89EF8300060B1BEF82800B5
:1058A0000431030A0CF8023062445070BEF82A003A
:1058B00000BA000C50808AB2F12A5CD89EF83A00F7
:1058C00060B1BEF832000431030A0CF802306244C1
:1058D0005070BEF8340000BA000C50808AB2F12A31
:1058E00049D89EF8440060B1BEF83C000431030A78
:1058F0000CF8023062445070BEF83E0000BA000C52
:1059000050808AB2F12A36D89EF84E0060B1BEF8B7
:1059100046000431030A0CF8023062445070BEF8AD
:10592000480000BA000C50808AB2F12A23D89EF8B1
:10593000580060B1BEF850000431030A0CF8023080
:1059400062445070BEF8520000BA000C50808AB217
:10595000F12A10D89EF8620060B1BEF85A000431F6
:10596000030A0CF8023062445070BEF85C0000BAC2
:10597000000C50808AB2237AA07C277F94F826609E
:10598000002B18BF0123002818BF0133002F18BFB8
:10599000013394F83000002E18BF0133002894F82A
:1059A0003A0018BF0133002894F8440018BF0133AF
:1059B000002894F84E0018BF0133002894F85800CE
:1059C00018BF0133002894F8620018BF0133002883
:1059D0008FB201F1010E18BF01330CF80230F12F24
:1059E0001FFA8EFC80F0FF80227A82B1208840F27C
:1059F0001063020AC2F2000303F80C20FA1863884D
:105A000001F1050E19BA090C9070A2F803101FFAE3
:105A10008EFCBCF1F10F00F2E680A17C81B16189BE
:105A200040F210600A0AC2F2000000F80C200CEBF1
:105A300000025170A1890EF1040E09BA090C5180BF
:105A40001FFA8EFCBCF1F10F00F2CD80217F81B1F5
:105A5000A18A40F210600A0AC2F2000000F80C208D
:105A60000CEB00025170E18A0EF1040E09BA090C28
:105A700051801FFA8EFCBCF1F10F00F2B48094F853
:105A8000261081B1E18B40F210600A0AC2F20000D8
:105A900000F80C200CEB00025170218C0EF1040E6A
:105AA00009BA090C51801FFA8EFCBCF1F10F00F20B
:105AB0009A8094F8301081B1218D40F210600A0A6A
:105AC000C2F2000000F80C200CEB00025170618D56
:105AD0000EF1040E09BA090C51801FFA8EFCBCF1BC
