:020000040800F2
:10000000D807002089010008F9190008F119000833
:10001000F5190008450200085922000800000000F8
:10002000000000000000000000000000891D000822
:100030006102000800000000FD1900088D1D000885
:10004000A3010008A3010008A3010008A301000800
:10005000A3010008A3010008650200086D02000862
:10006000A3010008A301000875020008A30100080D
:10007000A3010008A3010008A3010008A3010008D0
:100080004902000855020008A3010008A301000866
:10009000A3010008A3010008A3010008A3010008B0
:1000A000A3010008A3010008A3010008A3010008A0
:1000B000A3010008A3010008A3010008A301000890
:1000C000A3010008A3010008A3010008A301000880
:1000D000A3010008A30100084D220008A3010008A5
:1000E000A3010008A3010008A301000800F002F822
:1000F00000F03AF80AA090E8000C82448344AAF188
:100100000107DA4501D100F02FF8AFF2090EBAE885
:100110000F0013F0010F18BFFB1A43F0010318473B
:100120007025000090250000103A24BF78C878C1DF
:10013000FAD8520724BF30C830C144BF04680C60ED
:10014000704700000023002400250026103A28BF35
:1001500078C1FBD8520728BF30C148BF0B60704739
:100160001FB51FBD10B510BD00F031F81146FFF7E7
:10017000F7FF02F073F800F04FF803B4FFF7F2FF57
:1001800003BC00F057F800000948804709480047C1
:10019000FEE7FEE7FEE7FEE7FEE7FEE7FEE7FEE737
:1001A000FEE7FEE704480549054A064B7047000094
:1001B000911D0008ED000008D8010020D80700209C
:1001C000D8030020D8030020704770477047754659
:1001D00000F02CF8AE4605006946534620F00700B3
:1001E000854618B020B5FFF7DDFFBDE820404FF091
:1001F00000064FF000074FF000084FF0000BAC4630
:10020000ACE8C009ACE8C009ACE8C009ACE8C0097A
:1002100021F007018D46704710B50446AFF300800A
:100220002046BDE81040FFF7A8BF00000048704717
:100230001000002001491820ABBEFEE72600020096
:1002400070470000FEE7000040F20C10C2F2000010
:1002500000F098B840F25010C2F2000000F092B8DE
:1002600070470000012000F005BA0000022000F0F5
:1002700001BA0000102000F0FDB90000EFF310807B
:1002800072B600BFFEE70000014690F82100022888
:1002900016D10868D1E90FC3026822F00E0202608D
:1002A000026822F001020260012000FA03F2CCF899
:1002B000042081F821000020002281F820207047CE
:1002C000042088630120002281F82020704700006C
:1002D00080B590F82110022924D10268116821F01C
:1002E0000E0111602F211368C4F202018A4240F20C
:1002F0000401C4F2020123F00103136016DD302370
:10030000C4F202039A421DD04423C4F202039A426B
:100310001CD05823C4F202039A421DD14FF48033FB
:1003200022E000BF04218163012080BD0823C4F2C4
:1003300002039A420ED01C23C4F202039A420BD14C
:10034000102311E04FF480730EE000BF4FF4805390
:100350000AE000BF012307E001F1680C4FF0807351
:10036000624508BF4FF480130B60012180F8211013
:10037000426B002180F820100AB190470021084606
:1003800080BD000010B5D0E90FCE0168DCF8003068
:100390000A6823FA0EF35C072AD512F0040427D06A
:1003A0000A68920603D40A6822F004020A602F2227
:1003B000C4F20202914240F20402C4F202025BDD86
:1003C0003023C4F20203994272D04423C4F20203E0
:1003D000994273D05823C4F20203994240F07A80C4
:1003E0004FF480231360C16A002940F098806FE0C9
:1003F0009C0727D512F0020424D00A68920606D47E
:100400000A6822F00A020A60012280F821202F22C5
:10041000C4F20202914240F20402C4F202023BDD45
:100420003023C4F20203994260D04423C4F2020391
:1004300099425FD05823C4F20203994260D14FF42D
:10044000003365E01B0743D512F0080208BF10BD5A
:100450000A6822F00E020A60012101FA0EF2CCF8BD
:100460000420816380F82110016B0022002980F8AC
:10047000202054D12CE000BF0823C4F2020399428B
:1004800022D01C23C4F20203994223D140231360DB
:10049000C16A002943D11BE00823C4F20203994238
:1004A0002CD01C23C4F20203994229D120232FE02F
:1004B0004FF480631360C16A89BB09E04FF4804345
:1004C0001360C16A59BB03E004231360C16A31BBE6
:1004D00010BD00BF02F168044FF08063A14208BF65
:1004E0004FF480031360C16AC9B9F1E74FF4007398
:1004F0000EE000BF4FF400530AE000BF022307E004
:1005000002F168044FF00073A14208BF4FF40013DA
:100510001360816A0022002980F82020D8D0BDE82D
:1005200010400847014600284FF0010008BF7047FF
:100530002DE9F043D1F800C04FF6F873CBF6FD7308
:100540004CF6CD426344CCF6CC42A3FB02236FF0C1
:10055000030707EA93030027C4F2020701F10C091D
:10056000C1E90F730223D1E9012E99E87002D1F895
:100570001C8081F82130DCF8003043F6F077BB4373
:100580001A4342EA0E0222432A43324342EA090254
:1005900042EA0802CCF8002000228A6381F8210098
:1005A00081F820200020BDE8F0437047F0B590F8B6
:1005B00020C0BCF1010F32D04FF0010E80F820E0D6
:1005C00090F821C0BCF1010F26D14FF0020C80F849
:1005D00021C04FF0000CC0F838C0D0E900C4C56A93
:1005E000C66BDCF80070102C27F00107CCF8007007
:1005F000006C0EFA00F070600846CCF8043004BFBE
:1006000010460A46CCF80800CCF80C20DCF80000B4
:1006100045B140F00E000DE0002180F820100220CE
:10062000F0BD00BF20F00400CCF80000DCF80000B2
:1006300040F00A00CCF80000DCF8000040F00100B7
:10064000CCF800000020F0BDB0B5044600F038F949
:10065000054640F20000C2F200000078611C18BF9D
:10066000044400BF00F02CF9401BA042FAD3B0BDF7
:100670007047000040F21441C4F201010A680242CE
:1006800014BF08607047FFF7F3BF00002DE9F04F7B
:1006900082B00E68002E00F0038141F20042C4F2E5
:1006A0000102042340F2004E904208BF03234FF69C
:1006B000FF7CC4F2010E009300240123C1F2100C50
:1006C0004FF0000A4FF0000949E000BF012704F095
:1006D0000C030F229A402BEA020207FA03F34FEAB7
:1006E0009A051A4346F82520D1F804B040F20C458B
:1006F0005FEACB22DEF8082054BF22EA080242EA71
:100700000802C4F20105CEF808202A685FEA8B23AC
:1007100054BF22EA080242EA08022A605FEA8B33E9
:10072000DEF8042054BF22EA080242EA08025FEA27
:10073000CB33CEF80420DEF800204FF0010354BF85
:1007400022EA080242EA0802CEF800200E680AF106
:10075000010A36FA0AF204F1040400F0A18003FA57
:100760000AF816EA080FF1D04E68664512DC122E20
:1007700056D8DFE806F0350B4549555555555555C2
:10078000555555555555554D510000BFD1F80C9054
:1007900046E000BF4FF6FF72C1F2210296420FDC25
:1007A0000022C1F2110296421AD00022C1F21202B6
:1007B000964215D00022C1F22102964210D02FE0BD
:1007C0000022C1F2220296420AD00022C1F2310276
:1007D000964205D00022C1F23202964220D100BFDB
:1007E0008A684AB1012A14BFC0F81480C0F810808A
:1007F0004FF0080914E000BF4FF0040910E000BFFB
:10080000CA6802F108090BE04FF0000908E000BFD8
:10081000CA6802F1040903E0CA6802F10C0900BFCA
:1008200022460646BAF1080F24BF203A043637683C
:100830000F25954027EA050509FA02F22A4332609E
:10084000CA79D2067FF582AF41F21803C4F20203DF
:100850001A68AEF57E7642F001021A601A6802F05C
:1008600001020192019A2AF0030256F802B040F602
:100870000002C4F20102904210D040F60042C4F2DD
:10088000010290423FF422AF41F20002C4F20102A1
:10089000009F904208BF022719E700BF002716E714
:1008A00002B0BDE8F08F00008068084018BF01204A
:1008B00070470000002A08BF09040161704700006A
:1008C00040F2D410C2F200000068704740F200000D
:1008D00040F2D411C2F20000C2F2000100780A68AE
:1008E000104408607047000080B542F20000C4F276
:1008F0000200016841F010010160032000F08EF851
:10090000002000F005F800F027F8002080BD00006E
:1009100070B540F20006C2F2000640F208013278DB
:10092000C2F200014FF47A730968B3FBF2F2044695
:10093000B1FBF2F1084600F063FB0F2C4FF001050C
:1009400008D838B94FF0FF3021460022002500F0CA
:1009500039F87460284670BD82B041F21800C4F2C4
:1009600002000168042241F001010160016801F008
:10097000010101910199416841F080514160406855
:1009800000F08050009000980420C4F2010001683B
:1009900062F31A61016002B070470000002848BF8E
:1009A0007047C1B200F01F00012202FA00F04EF2BF
:1009B0000012CEF2000242EAD10121F003010860E8
:1009C0007047000010B54EF60C5CCEF2000CDCF85F
:1009D0000030C3F3022E8EF00704042C28BF042439
:1009E000BEF103034FF0FF3E0EFA04F438BF0023BC
:1009F000A14399400EFA03F39A43114300F00F020A
:100A000000F160430901043A03F56443624400289D
:100A100048BF02F10C03197010BD00004EF60C51D6
:100A2000CEF200010A684FF6FF031A4060F30A2273
:100A300042F0806040F0FD70086070472DE9F0439F
:100A400081B0002800F0858042F20008C4F202085C
:100A50000446D8F800000D4600F0070088420CD28A
:100A6000D8F8000020F007002843C8F80000D8F8A4
:100A7000000000F00700A8426BD1206841F2040991
:100A80008107C4F2020917D5410705D5D9F800102E
:100A900041F4E061C9F80010010705D5D9F800104C
:100AA00041F46051C9F80010D9F80010A26821F093
:100AB000F0011143C9F80010C00741D1D8F8000077
:100AC00000F00700A8420CD9D8F8000020F0070079
:100AD0002843C8F80000D8F8000000F00700A8423A
:100AE00037D12068410707D5D9F80010E26821F412
:100AF000E0611143C9F80010000708D5D9F80000DB
:100B0000216920F4605040EAC100C9F80000D9F81A
:100B1000002002F00C00082841F20020C0F27A0008
:100B200050D142F27463C2F38341C0F60003595CB2
:100B3000D2033BD440F60010C0F23D00484341E0F0
:100B4000606802280AD001282AD159F8041C8903B8
:100B500008D4012001B0BDE8F08300BF59F8041C9F
:100B60008901F6D5D9F8001021F003010843C9F82E
:100B70000000FFF7A5FE064641F28837D9F80000CD
:100B8000616800F00C00B0EB810F97D0FFF798FE82
:100B9000801BB842F2D9032001B0BDE8F08300BF4A
:100BA00059F8041C8907D4D5DCE700BFD9F8002028
:100BB00042F27263C2F34042C0F600039A5C4843BB
:100BC000B0FBF2F0D9F8001042F25A62C1F30311FF
:100BD000C0F60002515C40F2080220FA01F140F236
:100BE0000400C2F200000068C2F200021160FFF7C8
:100BF0008FFE002001B0BDE8F083000040F2080045
:100C000041F20401C2F20000C4F202010068096866
:100C100042F26A62C1F30221C0F60002515CC84090
:100C20007047000040F2080041F20401C2F20000E7
:100C3000C4F202010068096842F26A62C1F3C2218B
:100C4000C0F60002515CC840704700002DE9F04139
:100C500082B0002868D00446007841F20006C00740
:100C6000C4F2020625D0706800F00C0004281BD0E6
:100C7000706800F00C00082802D17068C00313D41B
:100C80006068002800F06881B0F5A02F00F07C813A
:100C9000B0F5803F00F07C81306820F48030306017
:100CA000306820F4802076E13068800301D56068E8
:100CB000D0B32078800718D5706810F00C0F07D0DB
:100CC000706800F00C0008286ED17068C0036BD407
:100CD0003068800702D52069012825D13068616914
:100CE00020F0F80040EAC1003060207800071FD4EF
:100CF0002078400732D4E56995B1706800F00C00A7
:100D0000082840F08F80012D0ED07068216A00F411
:100D100080328A4208D1616A00F47010884203D19F
:100D2000002002B0BDE8F081012002B0BDE8F081F2
:100D3000A069002862D00020C4F242200121C0F83E
:100D40008014FFF7BDFD0546706A800700F18C80B6
:100D5000FFF7B6FD401B0228F6D92AE1F06910F032
:100D6000805808D1F06940F08050F061F06900F0DF
:100D700080500090009847F20007C4F200073868DE
:100D8000C00529D4386840F480703860FFF798FDBA
:100D9000054600BF3868C0051ED4FFF791FD401B13
:100DA0006428F7D905E100BF2069002840F200005F
:100DB000C4F2422000F0828001210160FFF780FD33
:100DC000054600BF306880073FF588AFFFF778FD24
:100DD000401B0228F6D9ECE0E068002800F0808093
:100DE000052800F09780012800F09880306A20F0F4
:100DF00001003062306A20F0040092E00020C4F26A
:100E000042200021C0F88014FFF75AFD054600BFBC
:100E1000706A80077FF56CAFFFF752FD401B022818
:100E2000F6D9C6E00027C4F2422700203866FFF753
:100E300047FD022D05460BD13068800140F1BE8090
:100E4000FFF73EFD401B02284FF00300F4D968E78E
:100E5000306880017FF564AFFFF732FD401B022848
:100E60004FF00300F4D95CE740F20800C2F2000042
:100E7000006844F6D351C1F26201A0FB0101480AA7
:100E8000019000BF00BF0198411E002801913FF46E
:100E90002FAF00BF0198411E002801913FF428AFF9
:100EA00000BF0198411E002801913FF421AF00BF0F
:100EB0000198411E00280191E4D119E70021016049
:100EC000FFF7FEFC054600BF306880077FF50DAFD9
:100ED000FFF7F6FC401B02284FF00300F4D920E78F
:100EE000306A20F001003062306A20F00400306285
:100EF000FFF7E6FC054641F2883700BF306A8007FD
:100F000020D5FFF7DDFC401BB8424FF00300F5D9B8
:100F100007E700BF306A40F004003062306A40F0FA
:100F200001003062FFF7CCFC054641F2883700BF74
:100F3000306A800706D4FFF7C3FC401BB842F7D9DC
:100F400037E000BFB8F1000F7FF4D5AEF06920F0B4
:100F50008050F061CFE600BF306820F48030306010
:100F6000306820F480203060FFF7AAFC054600BFFF
:100F7000306880037FF59DAEFFF7A2FC401B64281C
:100F80004FF00300F4D9CCE6306840F480203060A4
:100F9000306840F480303060FFF792FC054600BFB7
:100FA000306880033FF585AEFFF78AFC401B64285C
:100FB000F6D9032002B0BDE8F08100BF206AB0F589
:100FC000803F05D17168A26821F40031114371603E
:100FD0007168626A21F47411114308437060012042
:100FE0003866FFF76DFC0446306880013FF598AE27
:100FF000FFF766FC001B02284FF00300F4D990E6CF
:10100000411E0020B0EB116F1CBF012070474EF253
:101010001002CEF2000251604EF62351CEF20001D2
:10102000F0230B700721906011607047704700003B
:10103000006844F20041C4F20001884218BF7047C2
:1010400040F2700040F2C00CC2F2000040F2CC014D
:10105000C2F2000C00230830C2F2000140228CF8DA
:10106000003000F08FBB0000B0B582B004460068CD
:101070000168C368426901F02F05202D03F02005A7
:1010800006D12DB1204602B0BDE8B04001F05EB8F7
:101090005FEA017C1EBF02F0010E03F4907212EBB6
:1010A0000E0253D1226B012A05D111F0100218BF94
:1010B00013F0100236D10A0622D513F080021FD099
:1010C00094F8411021293FD1A168B1F5805F03D187
:1010D0002169002900F07082216A4A1C2262097885
:1010E0004160E18C01390A04E1842DD1C16821F00D
:1010F0008001C160C16841F04001C16002B0B0BD73
:10110000490621D513F040011ED0C16821F04001ED
:10111000C1602021204684F8411002B0BDE8B040F3
:1011200000F054BC002101910168019141680191D6
:1011300001994069400613D4A08DE18DE28D002A0B
:1011400018BF884240F0BA8102B0B0BDCA0718BFCC
:1011500013F4807240F0B6804A0700F1B980BEE017
:10116000E06B016849688AB2002AEDD0A38D9A42EB
:10117000EAD2E1858069202800F09C80206850E850
:10118000030F216820F4807041E80302DAB120687F
:1011900050E8030F216820F4807041E8030292B107
:1011A000206850E8030F216820F4807041E80302B2
:1011B0004AB1206850E8030F216820F4807041E8AC
:1011C0000302002ADAD1206850E8050F216820F0D8
:1011D000010041E80502DAB1206850E8050F2168F6
:1011E00020F0010041E8050292B1206850E8050FA7
:1011F000216820F0010041E805024AB1206850E86A
:10120000050F216820F0010041E80502002ADAD12B
:10121000206850E8050F216820F0400041E80502F1
:10122000DAB1206850E8050F216820F0400041E85D
:10123000050292B1206850E8050F216820F04000B7
:1012400041E805024AB1206850E8050F216820F006
:10125000400041E80502002ADAD1202084F842004B
:1012600000202063206850E8030F216820F0100060
:1012700041E80302DAB1206850E8030F216820F04A
:10128000100041E8030292B1206850E8030F216882
:1012900020F0100041E803024AB1206850E8030F33
:1012A000216820F0100041E80302002ADAD1E06B47
:1012B000FEF7EAFF02206063A08DE18D401A81B243
:1012C000204674E1626C42F0010262644A0706D56E
:1012D000BEF1000F03D0626C42F0020262648A0722
:1012E00006D5BEF1000F03D0626C42F004026264C6
:1012F000BCF1000F09D545EA0E02B2FA82F252099A
:1013000003D1626C42F008026264626C002A3FF40E
:101310001BAF11F0200118BF002D03D0204600F0B4
:1013200015FF20684069616C00F0400001F0080181
:10133000401800F0B58000BF206850E8030F216816
:1013400020F4907041E80302BAB3206850E8030F1C
:10135000216820F4907041E8030272B3206850E8DD
:10136000030F216820F4907041E803022AB320683B
:1013700050E8030F216820F4907041E80302002A2E
:10138000DAD11AE0206850E8050F216820F001004A
:1013900041E80502DAB1206850E8050F216820F025
:1013A000010041E8050292B1206850E8050F21686C
:1013B00020F0010041E805024AB1206850E8050F1D
:1013C000216820F0010041E80502002ADAD1206BF3
:1013D000012824D1206850E8030F216820F0100074
:1013E00041E80302DAB1206850E8030F216820F0D9
:1013F000100041E8030292B1206850E8030F216811
:1014000020F0100041E803024AB1206850E8030FC1
:10141000216820F0100041E80302002ADAD12020E0
:1014200084F84200002020632068406940063FD5D0
:10143000206850E8050F216820F0400041E80502CF
:10144000DAB1206850E8050F216820F0400041E83B
:10145000050292B1206850E8050F216820F0400095
:1014600041E805024AB1206850E8050F216820F0E4
:10147000400041E80502002ADAD1E06BC0B141F634
:101480009551C0F600014163FEF722FF00283FF4AA
:101490005BAEE06B416B02B0BDE8B040084700BFF7
:1014A0002046FFF7C5FD0020606402B0B0BD00BF5C
:1014B000204602B0BDE8B040FFF7BABD401A21682F
:1014C00051E8031F226821F4907142E80313DBB155
:1014D000216851E8031F226821F4907142E8031348
:1014E00093B1216851E8031F226821F4907142E80A
:1014F00003134BB1216851E8031F226821F4907156
:1015000042E80313002BDAD1216851E8051F226855
:1015100021F0010142E80513DBB1216851E8051F04
:10152000226821F0010142E8051393B1216851E8D6
:10153000051F226821F0010142E805134BB1216823
:1015400051E8051F226821F0010142E80513002B34
:10155000DAD1202184F8421000212163216851E86A
:10156000031F226821F0100142E80313DBB1216858
:1015700051E8031F226821F0100142E8031393B1E0
:10158000216851E8031F226821F0100142E803138B
:101590004BB1216851E8031F226821F0100142E895
:1015A0000313002BDAD1022281B22046626302B01B
:1015B000BDE8B040FFF73ABD216A31F8022B6FF366
:1015C0005F22426021628CE5002804BF0120704741
:1015D00010B5044690F8410028B9002084F8400076
:1015E000204600F063F8242084F841002068D4E904
:1015F0000212C36823F40053C360036923F4405309
:101600001A430261D4E904231143C268194341F229
:101610000C639A431143C1604169A26921F440718E
:10162000114343F60002C4F201029042416103D02B
:10163000FFF7E4FA02E000BFFFF7F4FA626819214D
:1016400048439100B0FBF1F048F21F51C5F2EB1195
:10165000A0FB01235A094FF69C73C0F6FF7302FBEF
:101660000300322303EB0010A0FB0101F02303EA87
:101670005113206803EB0212C1F34311114481603E
:10168000016921F490410161416921F02A01416120
:10169000C16841F40051C16000202021606484F8D9
:1016A000411084F84210606310BD00002DE9F04144
:1016B00086B0044644F200402168C4F200000026CF
:1016C0008142049602D006B0BDE8F08141F21801D3
:1016D000C4F202014A6840F26C0842F400324A60E7
:1016E0004A6800F5444002F400320192019A0A6807
:1016F000C4F2020842F004020A60096801F0040121
:10170000019101990C21029102210391059102A9F5
:10171000FEF7BCFF40F20C15C2F2000580272846F8
:10172000C5E90086C5E90267C5E90466C5E906663C
:10173000FEF7F8FE002818BFFEF7A0FDE5636C6217
:1017400040F2501508F11400C2F2000510210022E9
:1017500085E887002846C5E90422C5E90622FEF788
:10176000E1FE002818BFFEF789FD26200021002297
:10177000A5636C62FFF726F92620FFF70FF906B084
:10178000BDE8F08170B582B0044690F84200202890
:101790000AD113460A4600294FF0010018BF002B5A
:1017A00006D102B070BD00BF022002B070BD00BF04
:1017B000002522202563A262A385656484F8420087
:1017C0002168E06B41F61D7C42F27D0E41F6A15688
:1017D000C0F6000CC0F6000EC0F600060431C0E9E9
:1017E0000ACEC0E90C65FEF7E1FE019520680168AC
:1017F0000191406801900198206928B3206850E861
:10180000030F216840F4807041E80302E2B12068D0
:1018100050E8030F216840F4807041E803029AB158
:10182000206850E8030F216840F4807041E803020B
:1018300052B1206850E8030F216840F4807041E8FD
:101840000302002ADAD100BF206850E8050F2168A2
:1018500040F0010041E80502E2B1206850E8050FC0
:10186000216840F0010041E805029AB1206850E883
:10187000050F216840F0010041E8050252B12068DF
:1018800050E8050F216840F0010041E80502002AF8
:10189000DAD100BF206850E8050F216840F0400011
:1018A00041E80502DAB1206850E8050F216840F0F0
:1018B000400041E8050292B1206850E8050F216818
:1018C00040F0400041E805024AB1206850E8050FA9
:1018D000216840F0400041E80502002ADAD10020EA
:1018E00002B070BD006844F20041C4F200018842B9
:1018F00018BF704740F27000C2F2000040F2CC0105
:101900000830C2F200014022FFF73CBF70470000E0
:1019100070B5044690F8410020281CBF022070BD1D
:1019200000294FF001004DD0002A134608BF70BDBA
:101930004FF0000C21202162A384E384C4F844C04A
:1019400084F841002268A06B42F2950E42F24515E0
:1019500041F6A156C0F6000EC0F60005C0F600061E
:101960000432C0E90AE5C0E90C6CFEF71FFE2068EE
:101970006FF04001016000BF206850E8050F21684A
:1019800040F0800041E80502F2B1206850E8050F00
:10199000216840F0800041E80502AAB1206850E8C3
:1019A000050F216840F0800041E8050262B120681F
:1019B00050E8050F216840F0800041E80502002A48
:1019C000DAD1002070BD00BF002070BD006844F275
:1019D0000041C4F20001884218BF704740F2C000C5
:1019E000C2F2000000210170704700007047000043
:1019F000FEE70000FEE70000FEE700007047000081
:101A000040F2C003C2F2000303F10C0140229860CF
:101A1000FFF7B8BE2DE9F043002800F0F48040F253
:101A2000C001C2F200018A68002A00F0EC80D26B8B
:101A300012685268CB88C2F1400292B29A4208BF43
:101A4000BDE8F08391F805C04F788E7891F8038057
:101A500091F804904FF0070E1C4606E0002700BFE7
:101A60004F70A3B29A4200F0CD800134A5B23F2D51
:101A7000FDB288BF0024052DF3D80B441B7BDFE8A3
:101A800005F003091115191DAA2B40F0B980012793
:101A9000E6E700BF9D1EB5FA85F56D098B706F00F6
:101AA0001E46DDE7CB7003279846D9E70B71042764
:101AB0009946D5E74B7105279C46D1E7552BCDD1EB
:101AC00073B27500002B48BF8EEA46056BB26F00FB
:101AD000002B48BF8EEA45077BB27D00002B48BF34
:101AE0008EEA47056BB26F00002B48BF8EEA4507B0
:101AF0007BB27D00002B48BF8EEA47056BB26F00BA
:101B0000002B48BF8EEA45077BB27D00002B48BF03
:101B10008EEA47056BB26F00002B48BF8EEA45077F
:101B200088EA07035DB25F00002D48BF8EEA4307D5
:101B30007BB27D00002B48BF8EEA47056BB26F0079
:101B4000002B48BF8EEA45077BB27D00002B48BFC3
:101B50008EEA47056BB26F00002B48BF8EEA45073F
:101B60007BB27D00002B48BF8EEA47056BB26F0049
:101B7000002B48BF8EEA45077BB27D00002B48BF93
:101B80008EEA470589EA05035DB25F00002D48BF74
:101B90008EEA43077BB27D00002B48BF8EEA4705E3
:101BA0006BB26F00002B48BF8EEA45077BB27D0009
:101BB000002B48BF8EEA47056BB26F00002B48BF71
:101BC0008EEA45077BB27D00002B48BF8EEA4705B1
:101BD0006BB26F00002B48BF8EEA45077BB27D00D9
:101BE000002B48BF8EEA4705EBB25FFA8CF5AB429B
:101BF00002BF5FFA88F343EA092303802EE700BFA0
:101C000000272EE7CC80BDE8F0830000F0B581B05E
:101C100040F2C007C2F200073B78002B40F0B280D0
:101C20008446B868002800F0AD804FFA8CF30E248B
:101C3000002B48BF092484EA4C0465B266000723E0
:101C4000002D48BF83EA440675B27400002D48BFDA
:101C500083EA460466B26500002E48BF83EA440565
:101C60006EB26C00002E48BF83EA450466B2650080
:101C7000002E48BF83EA44056EB26C00002E48BFB8
:101C800083EA450466B26500002E48BF83EA440536
:101C900085EA010675B27400002D48BF83EA460448
:101CA00066B26500002E48BF83EA44056EB26C0040
:101CB000002E48BF83EA450466B26500002E48BF87
:101CC00083EA44056EB26C00002E48BF83EA4504E7
:101CD00066B26500002E48BF83EA44056EB26C0010
:101CE000002E48BF83EA450466B26500002E48BF57
:101CF00083EA440585EA020675B27400002D48BFE8
:101D000083EA460466B26500002E48BF83EA4405B4
:101D10006EB26C00002E48BF83EA450466B26500CF
:101D2000002E48BF83EA44056EB26C00002E48BF07
:101D300083EA450466B26500002E48BF83EA440585
:101D40006EB26C00002E48BF83EA450466B265009F
:101D5000002E48BF83EA440540F29413C2F2000308
:101D6000D97055214FF4D5761A7199711946072209
:101D70001E8083F802C05D71FFF7CAFD002804BF12
:101D80000120387001B0F0BD70470000FEF79EBD25
:101D900070470000406A0021C185C184FFF748B93F
:101DA000406A01684A6990F84130212B2DD112F028
:101DB00080022AD00021C184016851E8031F026813
:101DC00021F0C00142E80313DBB1016851E8031FB1
:101DD000026821F0C00142E8031393B1016851E8A1
:101DE000031F026821F0C00142E803134BB10168F0
:101DF00051E8031F026821F0C00142E80313002BE1
:101E0000DAD1202180F841100168496990F8422018
:101E1000222A40F07D8011F0400179D00021C18557
:101E2000016851E8031F026821F4907142E803132E
:101E3000BBB3016851E8031F026821F4907142E8C6
:101E4000031373B3016851E8031F026821F4907112
:101E500042E803132BB3016851E8031F026821F421
:101E6000907142E80313002BDAD11AE0016851E8BF
:101E7000051F026821F0010142E80513DBB101688A
:101E800051E8051F026821F0010142E8051393B1F2
:101E9000016851E8051F026821F0010142E80513BD
:101EA0004BB1016851E8051F026821F0010142E8C9
:101EB0000513002BDAD1016B012924D1016851E807
:101EC000031F026821F0100142E80313DBB101682F
:101ED00051E8031F026821F0100142E8031393B197
:101EE000016851E8031F026821F0100142E8031362
:101EF0004BB1016851E8031F026821F0100142E86C
:101F00000313002BDAD1202180F842100021016355
:101F1000416C41F010014164FFF78AB80168406AE2
:101F20000968890600F19F800021C185016851E898
:101F3000031F026821F4807142E80313E3B10168D2
:101F400051E8031F026821F4807142E803139BB13A
:101F5000016851E8031F026821F4807142E803130D
:101F600053B1016851E8031F026821F4807142E80F
:101F70000313002BDAD100BF016851E8051F026886
:101F800021F0010142E80513BBB3016851E8051FC8
:101F9000026821F0010142E8051373B3016851E8BA
:101FA000051F026821F0010142E805132BB3016807
:101FB00051E8051F026821F0010142E80513002BDA
:101FC000DAD11AE0016851E8051F026821F04001EA
:101FD00042E80513DBB1016851E8051F026821F0F2
:101FE000400142E8051393B1016851E8051F0268FA
:101FF00021F0400142E805134BB1016851E8051F8B
:10200000026821F0400142E80513002BDAD12021BB
:1020100080F84210016B012925D100BF016851E809
:10202000031F026821F0100142E80313DBB10168CD
:1020300051E8031F026821F0100142E8031393B135
:10204000016851E8031F026821F0100142E8031300
:102050004BB1016851E8031F026821F0100142E80A
:102060000313002BDAD100214163016B012918BF52
:10207000FFF738BC818DFEF7D9BF0000406A01210F
:102080004163016B012918BFFFF740BC818D4908EE
:10209000FEF7CCBF0168406A0968890648BFFFF7B0
:1020A00095BC0021C18400BF016851E8051F02688A
:1020B00021F0800142E8051383B3016851E8051F50
:1020C000026821F0800142E805133BB3016851E842
:1020D000051F026821F0800142E80513F3B1016891
:1020E00051E8051F026821F0800142E80513002B2A
:1020F000DAD113E0016851E8031F026841F04001A2
:1021000042E80313002B08BF7047016851E8031F22
:10211000026841F0400142E8031393B1016851E8BD
:10212000031F026841F0400142E803134BB101680C
:1021300051E8031F026841F0400142E80313002BFD
:10214000D8D17047406AFFF751BC000081B090F8C9
:102150004210222921D183680246B3F5805F09D15C
:1021600052F8281F52F8183C002B63D003685B68B4
:102170000AE000BF52F8281F13B90369002BF5D0FD
:1021800003685B6803F07F030B7011680131116015
:10219000C18D01390A04C18502D001B0704700BF6A
:1021A0000168CA6822F02002CA60CA6822F48072FC
:1021B000CA604A6922F001024A61202180F8421077
:1021C00000214163026B012A3CD10163016851E89F
:1021D000031F026821F0100142E80313DBB101681C
:1021E00051E8031F026821F0100142E8031393B184
:1021F000016851E8031F026821F0100142E803134F
:102200004BB1016851E8031F026821F0100142E858
:102210000313002BDAD101680A68D20606D5002222
:1022200000920A680092496800910099818D01B07E
:10223000FEF7FCBE026852686FF35F2221F8022BA2
:102240008162A5E701B0FFF74DBB000040F27800C6
:10225000C2F20000FEF708BFFEE7000090B040F6B3
:102260000044C4F20104FEF73FFB00261020CDE934
:102270000B660B904FF460104FF002094FF0010B0A
:102280000F9006A8CDE90966CDE90766CDF818904C
:10229000CDF828B0CDE90D96FEF7D8FC0F20CDE99A
:1022A00001094FF48060CDE9040601A802210396DC
:1022B000FEF7C4FB41F218070996C4F2020738681A
:1022C00006A940F0040038603868A4F5806A00F080
:1022D000040001900198386806AD40F008003860AD
:1022E000386800F0080001900198122081E8410848
:1022F00050462946FEF7CAF920462946CDE906B6DA
:10230000CDF820B0FEF7C2F950464FF440710022DC
:102310004FF44078FEF7CEFA204620210022FEF747
:10232000C9FA50462946CDE9068BCDE90899FEF752
:10233000ADF92020CDE9060B20462946CDE90899C4
:10234000FEF7A4F957F8040C002140F0010047F80B
:10235000040C57F8040C002200F0010006900698C7
:102360001020FEF72FFB1020FEF718FB1120002194
:102370000022FEF727FB1120FEF710FB40F2700948
:10238000C2F20009A4F548404C4644F8080F4FF447
:10239000E1300C21C4E901062046C4E90366C4E922
:1023A0000516E661FFF710F92046FFF729FBFEF757
:1023B00087FA8346FEF784FA0746FEF781FA99F812
:1023C0000100012209EB0001097902FA00F481F011
:1023D000FF0000F0A3F8E0B200F0A0F840F60044DF
:1023E000C4F20104204620210122FEF763FA2046B0
:1023F00020210022FEF75EFA99F801000130C1B2F7
:10240000032988BF002089F8010050460221FEF709
:102410004BFA064650461021FEF746FA8046204603
:102420000121FEF741FA0546B0FA80F0A7EB0B0157
:1024300032294FEA501409D3B8FA88F04109B6FAA4
:1024400086F040092246FFF7E1FBBB4699F8000001
:10245000284310D140F60045C4F201052846082162
:102460000122FEF727FA3220FEF7EEF8284608216F
:102470000022FEF71FFAB9F8020089F80040ADF813
:10248000180006A8FFF7C6FABDF81800B9F8021040
:1024900088428FD042F20F71A9F80200884228BF0B
:1024A0000846C10842F2C5025143090DCD2301FB84
:1024B00003F2D20A02EB8202A1EB4201820841F24E
:1024C0007B477A43520C5343DB0A03EB8303A2EBB3
:1024D000430283B24CF6CD477B43DB0C5F43FF0CDA
:1024E00007EB8707A3EB470703EB8303A0EB43004E
:1024F00042F28463C9B2C0F60003595CD2B2BFB2E3
:1025000080B29A5C89F80410D95D185C89F80520BE
:1025100089F8061089F807004CE70000B0B540F6CE
:102520000004C4F201040546C20920464FF40071BC
:10253000FEF7C0F920464FF480710122FEF7BAF988
:1025400020464FF480710022FEF7B4F9C5F38012E3
:1025500020464FF40071FEF7ADF920464FF480712C
:102560000122FEF7A7F920464FF480710022FEF702
:10257000A1F9C5F3401220464FF40071FEF79AF915
:1025800020464FF480710122FEF794F920464FF463
:1025900080710022FEF78EF9C5F3001220464FF439
:1025A0000071FEF787F920464FF480710122FEF793
:1025B00081F920464FF480710022FEF77BF9C5F3C4
:1025C000C00220464FF40071FEF774F920464FF424
:1025D00080710122FEF76EF920464FF480710022CF
:1025E000FEF768F9C5F3800220464FF40071FEF74C
:1025F00061F920464FF480710122FEF75BF9204615
:102600004FF480710022FEF755F9C5F340022046D1
:102610004FF40071FEF74EF920464FF4807101220D
:10262000FEF748F920464FF480710022FEF742F988
:1026300005F0010220464FF40071FEF73BF92046F9
:102640004FF480710122FEF735F920464FF4807176
:102650000022BDE8B040FEF72DB9000000000000E8
:10266000000001020304060708090000000001023F
:102670000304010202030405060708090A0B0C0DF6
:102680000E0F10103F065B4F666D7D077F6F0000D9
:10269000B0260008000000201000000028010008FB
:1026A000C026000810000020C807000044010008F0
:1026B000010000001000000000127A00000000007D
:04000005080000ED02
:00000001FF
