:020000040800F2
:10000000680C002091010008411E0008391E0008FC
:100010003D1E0008D9050008192300080000000053
:10002000000000000000000000000000491E000861
:10003000F505000800000000451E00084D1E0008E0
:10004000AB010008AB010008AB010008AB010008E0
:10005000AB010008AB010008F90500080106000823
:10006000AB010008AB01000809060008AB0100085D
:10007000AB010008AB010008AB010008AB010008B0
:10008000DD050008E9050008AB010008AB01000828
:10009000AB010008AB010008AB010008AB01000890
:1000A000AB010008AB010008AB010008AB01000880
:1000B000AB010008AB010008AB010008AB01000870
:1000C000AB010008AB010008AB010008AB01000860
:1000D000AB010008AB0100080D230008AB010008CC
:1000E000AB010008AB010008AB01000800F002F80A
:1000F00000F03FF80AA090E8000C82448344AAF183
:100100000107DA4501D100F034F8AFF2090EBAE880
:100110000F0013F0010F18BFFB1A43F0010318473B
:10012000304D0000504D0000103A24BF78C878C10F
:10013000FAD8520724BF30C830C144BF04680C60ED
:10014000704700000023002400250026103A28BF35
:1001500078C1FBD8520728BF30C148BF0B60704739
:10016000642900F08980002070471FB51FBD10B5BD
:1001700010BD00F0F7F91146FFF7F7FF02F0F4F9B0
:1001800000F015FA03B4FFF7F2FF03BC00F01CFA0D
:100190000948804709480047FEE7FEE7FEE7FEE71B
:1001A000FEE7FEE7FEE7FEE7FEE7FEE70448054957
:1001B000054A064B70470000511E0008ED0000087C
:1001C00068060020680C00206808002068080020ED
:1001D0000FB41CB50C0007AA009007D04142A14201
:1001E00002D32044401E01E04FF0FF30074B7B4418
:1001F00069460190069800F068F90020002C01D0B3
:10020000009908701CBC5DF814FB0000FF020000A0
:100210002DE9F0410E460446002020622046E168A8
:10022000884730B3252805D0D4E901219047206ABA
:10023000401CF2E7E168204600278847050018D0F7
:10024000A5F14100192802D820354FF40067324645
:10025000294620462760FFF783FF40B1012804D0DC
:10026000F61D26F007060836D8E7361DD6E72846DD
:10027000DAE7206ABDE8F0812DE9F0410646002466
:1002800010687529314616A510D0AFF300800028FC
:1002900002DA404213A507E031688A0701D512A5AA
:1002A00002E0490704D511A5012401E0AFF3008065
:1002B00000210A2206F1240709E0B0FBF2FCB0FBA2
:1002C000F2F302FB1C00303078541846491C002819
:1002D000F3D123462A463046BDE8F04100F096B8F7
:1002E000000000002D0000002B0000002000000096
:1002F00010B5431C02E010F8011B71B18107FAD15F
:100300004FF0013202C88C1A8C4314EAC211F9D0A2
:10031000C01A0A0603D0C01E10BDC01A10BD0A04C0
:1003200001D0801E10BD0902FCD0401E10BD032A62
:1003300040F2308010F0030C00F0158011F8013B02
:10034000BCF1020F624498BF11F801CB00F8013BE9
:1003500038BF11F8013BA2F1040298BF00F801CBAD
:1003600038BF00F8013B11F0030300F0C980083AE0
:10037000C0F0088051F8043B083A51F804CBA0E8DB
:100380000810F5E7121D5CBF51F8043B40F8043B30
:10039000AFF30080D20724BF11F8013B11F801CB65
:1003A00048BF11F8012B24BF00F8013B00F801CB36
:1003B00048BF00F8012B70474FF0000200B513460C
:1003C00094469646203922BFA0E80C50A0E80C5075
:1003D000B1F12001BFF4F7AF090728BFA0E80C5026
:1003E00048BF0CC05DF804EB890028BF40F8042B1F
:1003F00008BF704748BF20F8022B11F0804F18BF8C
:1004000000F8012B70477047704770472DE9F0479F
:100410000D4699469246044600F124080168880674
:1004200004D5E06921F01001216000E00120A8421C
:1004300001DD471B00E00027A1697A1902EB0900E2
:10044000081AA0612078C00602D42046AFF30080CD
:10045000002608E0D4E901211AF806009047206A36
:10046000401C761C20624E45F4DB2078C0060AD57D
:100470002046AFF3008006E0D4E901213020904708
:10048000206A401C2062381EA7F10107F4DC07E057
:10049000D4E9012118F805009047206A401C206229
:1004A000281EA5F10105F3DC2046AFF3008020787B
:1004B000000602D50220BDE8F0870120FBE700001E
:1004C00001694A1C02610878704700B58FB0CDE918
:1004D00001310021059105497944CDE90310114608
:1004E0006846FFF795FE0FB000BD0000E5FFFFFF77
:1004F000D1E900239A4202D2531C0B60107070475E
:1005000010B5203AC0F00B80B1E81850A0E81850A0
:10051000B1E81850A0E81850203ABFF4F5AF5FEAF0
:10052000027C24BFB1E81850A0E8185044BF18C995
:1005300018C0BDE810405FEA827C24BF51F8043B3C
:1005400040F8043B08BF7047D20728BF31F8023B90
:1005500048BF11F8012B28BF20F8023B48BF00F824
:10056000012B7047754600F02BF8AE460500694632
:10057000534620F00700854618B020B5FFF716FE59
:10058000BDE820404FF000064FF000074FF0000894
:100590004FF0000BAC46ACE8C009ACE8C009ACE8D1
:1005A000C009ACE8C00921F007018D46704710B5BD
:1005B0000446AFF300802046BDE81040FFF7E2BDDF
:1005C000004870471000002001491820ABBEFEE72C
:1005D0002600020070470000FEE7000040F2902075
:1005E000C2F2000000F098B840F2D420C2F200003D
:1005F00000F092B870470000012000F069BA0000D6
:10060000022000F065BA0000102000F061BA00007E
:10061000EFF3108072B600BFFEE70000014690F8CD
:100620002100022816D10868D1E90FC3026822F020
:100630000E020260026822F001020260012000FA4C
:1006400003F2CCF8042081F821000020002281F878
:1006500020207047042088630120002281F8202098
:100660007047000080B590F82110022924D102685B
:10067000116821F00E0111602F211368C4F20201EC
:100680008A4240F20401C4F2020123F00103136024
:1006900016DD3023C4F202039A421DD04423C4F273
:1006A00002039A421CD05823C4F202039A421DD17D
:1006B0004FF4803322E000BF04218163012080BD1C
:1006C0000823C4F202039A420ED01C23C4F2020390
:1006D0009A420BD1102311E04FF480730EE000BF5B
:1006E0004FF480530AE000BF012307E001F1680CDA
:1006F0004FF08073624508BF4FF480130B600121F7
:1007000080F82110426B002180F820100AB1904738
:100710000021084680BD000010B5D0E90FCE016869
:10072000DCF800300A6823FA0EF35C072AD512F0D1
:10073000040427D00A68920603D40A6822F004024F
:100740000A602F22C4F20202914240F20402C4F273
:1007500002025BDD3023C4F20203994272D04423CB
:10076000C4F20203994273D05823C4F2020399429F
:1007700040F07A804FF480231360C16A002940F072
:1007800098806FE09C0727D512F0020424D00A68F5
:10079000920606D40A6822F00A020A60012280F852
:1007A00021202F22C4F20202914240F20402C4F23C
:1007B00002023BDD3023C4F20203994260D044239D
:1007C000C4F2020399425FD05823C4F20203994253
:1007D00060D14FF4003365E01B0743D512F00802E7
:1007E00008BF10BD0A6822F00E020A60012101FA5A
:1007F0000EF2CCF80420816380F82110016B0022F6
:10080000002980F8202054D12CE000BF0823C4F236
:100810000203994222D01C23C4F20203994223D13D
:1008200040231360C16A002943D11BE00823C4F2AE
:10083000020399422CD01C23C4F20203994229D10D
:1008400020232FE04FF480631360C16A89BB09E065
:100850004FF480431360C16A59BB03E00423136063
:10086000C16A31BB10BD00BF02F168044FF0806364
:10087000A14208BF4FF480031360C16AC9B9F1E710
:100880004FF400730EE000BF4FF400530AE000BFC6
:10089000022307E002F168044FF00073A14208BF91
:1008A0004FF400131360816A0022002980F8202091
:1008B000D8D0BDE810400847014600284FF001009D
:1008C00008BF70472DE9F043D1F800C04FF6F87328
:1008D000CBF6FD734CF6CD426344CCF6CC42A3FB81
:1008E00002236FF0030707EA93030027C4F202070D
:1008F00001F10C09C1E90F730223D1E9012E99E836
:100900007002D1F81C8081F82130DCF8003043F609
:10091000F077BB431A4342EA0E0222432A43324392
:1009200042EA090242EA0802CCF8002000228A6367
:1009300081F8210081F820200020BDE8F0437047B5
:10094000F0B590F820C0BCF1010F32D04FF0010E8D
:1009500080F820E090F821C0BCF1010F26D14FF0C3
:10096000020C80F821C04FF0000CC0F838C0D0E96C
:1009700000C4C56AC66BDCF80070102C27F00107B4
:10098000CCF80070006C0EFA00F070600846CCF8ED
:10099000043004BF10460A46CCF80800CCF80C20FE
:1009A000DCF8000045B140F00E000DE0002180F8B9
:1009B00020100220F0BD00BF20F00400CCF80000A1
:1009C000DCF8000040F00A00CCF80000DCF8000081
:1009D00040F00100CCF800000020F0BDB0B50446A6
:1009E00000F0A4F9054640F20400C2F200000078CD
:1009F000611C18BF044400BF00F098F9401BA042DE
:100A0000FAD3B0BDB0B5054600F090F9012D04460B
:100A10002CD0102D16D0022D18BFB0BD40F600000E
:100A2000C4F20100022100F06DF9012832D140F238
:100A30007000C2F20000012141730171A4F11E0196
:100A40000162B0BD40F60000C4F20100102100F0C8
:100A500059F9012826D140F27000C2F200000121AC
:100A600081734171A4F11E010162B0BD40F6000026
:100A7000C4F2010000F580600121012500F042F977
:100A8000012817D140F27000C2F20000C573046360
:100A9000B0BD00BF40F27000C2F2000000214173FF
:100AA000B0BD00BF40F27000C2F2000000218173AF
:100AB000B0BD00BF40F27000C2F20000026B002126
:100AC000002AC1731EBFA21A82710163B0BD00006B
:100AD00040F21441C4F201010A68024214BF0860E6
:100AE0007047FFF78FBF00002DE9F04F82B00E680E
:100AF000002E00F0038141F20042C4F201020423FF
:100B000040F2004E904208BF03234FF6FF7CC4F230
:100B1000010E009300240123C1F2100C4FF0000AD3
:100B20004FF0000949E000BF012704F00C030F2239
:100B30009A402BEA020207FA03F34FEA9A051A4396
:100B400046F82520D1F804B040F20C455FEACB22EC
:100B5000DEF8082054BF22EA080242EA0802C4F282
:100B60000105CEF808202A685FEA8B2354BF22EAE9
:100B7000080242EA08022A605FEA8B33DEF80420AA
:100B800054BF22EA080242EA08025FEACB33CEF8F9
:100B90000420DEF800204FF0010354BF22EA0802CF
:100BA00042EA0802CEF800200E680AF1010A36FA7D
:100BB0000AF204F1040400F0A18003FA0AF816EA2C
:100BC000080FF1D04E68664512DC122E56D8DFE8C9
:100BD00006F0350B454955555555555555555555FF
:100BE0005555554D510000BFD1F80C9046E000BF5F
:100BF0004FF6FF72C1F2210296420FDC0022C1F2D1
:100C0000110296421AD00022C1F21202964215D069
:100C10000022C1F22102964210D02FE00022C1F240
:100C2000220296420AD00022C1F23102964205D039
:100C30000022C1F23202964220D100BF8A684AB136
:100C4000012A14BFC0F81480C0F810804FF00809C2
:100C500014E000BF4FF0040910E000BFCA6802F1C1
:100C600008090BE04FF0000908E000BFCA6802F174
:100C7000040903E0CA6802F10C0900BF22460646D7
:100C8000BAF1080F24BF203A043637680F25954083
:100C900027EA050509FA02F22A433260CA79D20628
:100CA0007FF582AF41F21803C4F202031A68AEF571
:100CB0007E7642F001021A601A6802F00102019287
:100CC000019A2AF0030256F802B040F60002C4F27C
:100CD0000102904210D040F60042C4F2010290425C
:100CE0003FF422AF41F20002C4F20102009F9042A1
:100CF00008BF022719E700BF002716E702B0BDE8CA
:100D0000F08F00008068084018BF01207047000085
:100D1000C26802EA0103914341EA0341016170475D
:100D2000002A08BF090401617047000040F26060BA
:100D3000C2F200000068704740F2040040F26061B7
:100D4000C2F20000C2F2000100780A681044086094
:100D50007047000080B542F20000C4F20200016852
:100D600041F010010160032000F08EF8002000F037
:100D700005F800F027F8002080BD000070B540F2B3
:100D80000406C2F2000640F20C013278C2F2000101
:100D90004FF47A730968B3FBF2F20446B1FBF2F147
:100DA000084600F063FB0F2C4FF0010508D838B956
:100DB0004FF0FF3021460022002500F039F8746022
:100DC000284670BD82B041F21800C4F202000168EA
:100DD000042241F001010160016801F0010101916B
:100DE0000199416841F080514160406800F08050B5
:100DF000009000980420C4F20100016862F31A61B7
:100E0000016002B070470000002848BF7047C1B2BF
:100E100000F01F00012202FA00F04EF20012CEF2A2
:100E2000000242EAD10121F003010860704700008E
:100E300010B54EF60C5CCEF2000CDCF80030C3F3BB
:100E4000022E8EF00704042C28BF0424BEF10303F5
:100E50004FF0FF3E0EFA04F438BF0023A14399403F
:100E60000EFA03F39A43114300F00F0200F16043BE
:100E70000901043A03F564436244002848BF02F1C3
:100E80000C03197010BD00004EF60C51CEF200019B
:100E90000A684FF6FF031A4060F30A2242F08060AE
:100EA00040F0FD70086070472DE9F04381B00028E4
:100EB00000F0858042F20008C4F202080446D8F827
:100EC00000000D4600F0070088420CD2D8F8000060
:100ED00020F007002843C8F80000D8F8000000F010
:100EE0000700A8426BD1206841F204098107C4F2CF
:100EF000020917D5410705D5D9F8001041F4E06182
:100F0000C9F80010010705D5D9F8001041F4605167
:100F1000C9F80010D9F80010A26821F0F0011143BF
:100F2000C9F80010C00741D1D8F8000000F0070050
:100F3000A8420CD9D8F8000020F007002843C8F8D0
:100F40000000D8F8000000F00700A84237D1206860
:100F5000410707D5D9F80010E26821F4E061114398
:100F6000C9F80010000708D5D9F80000216920F45D
:100F7000605040EAC100C9F80000D9F8002002F032
:100F80000C00082841F20020C0F27A0050D144F64B
:100F90003463C2F38341C0F60003595CD2033BD4EF
:100FA00040F60010C0F23D00484341E0606802286E
:100FB0000AD001282AD159F8041C890308D4012039
:100FC00001B0BDE8F08300BF59F8041C8901F6D5D3
:100FD000D9F8001021F003010843C9F80000FFF719
:100FE000A5FE064641F28837D9F80000616800F096
:100FF0000C00B0EB810F97D0FFF798FE801BB84232
:10100000F2D9032001B0BDE8F08300BF59F8041CF9
:101010008907D4D5DCE700BFD9F8002044F6326355
:10102000C2F34042C0F600039A5C4843B0FBF2F0C2
:10103000D9F8001044F61A62C1F30311C0F6000299
:10104000515C40F20C0220FA01F140F20800C2F2B9
:1010500000000068C2F200021160FFF78FFE00205E
:1010600001B0BDE8F083000040F20C0041F2040141
:10107000C2F20000C4F202010068096844F62A6264
:10108000C1F30221C0F60002515CC8407047000065
:1010900040F20C0041F20401C2F20000C4F202016D
:1010A0000068096844F62A62C1F3C221C0F6000252
:1010B000515CC840704700002DE9F04182B0002823
:1010C00068D00446007841F20006C007C4F2020668
:1010D00025D0706800F00C0004281BD0706800F068
:1010E0000C00082802D17068C00313D4606800287F
:1010F00000F06881B0F5A02F00F07C81B0F5803F52
:1011000000F07C81306820F480303060306820F45A
:10111000802076E13068800301D56068D0B3207804
:10112000800718D5706810F00C0F07D0706800F0B9
:101130000C0008286ED17068C0036BD4306880073B
:1011400002D52069012825D13068616920F0F800B6
:1011500040EAC1003060207800071FD420784007A3
:1011600032D4E56995B1706800F00C00082840F0B1
:101170008F80012D0ED07068216A00F480328A427F
:1011800008D1616A00F47010884203D1002002B0D7
:10119000BDE8F081012002B0BDE8F081A06900281F
:1011A00062D00020C4F242200121C0F88014FFF771
:1011B000BDFD0546706A800700F18C80FFF7B6FD23
:1011C000401B0228F6D92AE1F06910F0805808D1B6
:1011D000F06940F08050F061F06900F080500090BC
:1011E000009847F20007C4F200073868C00529D408
:1011F000386840F480703860FFF798FD054600BFFE
:101200003868C0051ED4FFF791FD401B6428F7D94C
:1012100005E100BF2069002840F20000C4F242202E
:1012200000F0828001210160FFF780FD054600BFCC
:10123000306880073FF588AFFFF778FD401B022834
:10124000F6D9ECE0E068002800F08080052800F086
:101250009780012800F09880306A20F00100306209
:10126000306A20F0040092E00020C4F24220002105
:10127000C0F88014FFF75AFD054600BF706A80076A
:101280007FF56CAFFFF752FD401B0228F6D9C6E090
:101290000027C4F2422700203866FFF747FD022DE1
:1012A00005460BD13068800140F1BE80FFF73EFD5E
:1012B000401B02284FF00300F4D968E73068800132
:1012C0007FF564AFFFF732FD401B02284FF00300AB
:1012D000F4D95CE740F20C00C2F20000006844F66A
:1012E000D351C1F26201A0FB0101480A019000BF85
:1012F00000BF0198411E002801913FF42FAF00BFAD
:101300000198411E002801913FF428AF00BF0198C9
:10131000411E002801913FF421AF00BF0198411EFA
:1013200000280191E4D119E700210160FFF7FEFCDC
:10133000054600BF306880077FF50DAFFFF7F6FC6C
:10134000401B02284FF00300F4D920E7306A20F058
:1013500001003062306A20F004003062FFF7E6FCE2
:10136000054641F2883700BF306A800720D5FFF775
:10137000DDFC401BB8424FF00300F5D907E700BF82
:10138000306A40F004003062306A40F001003062A0
:10139000FFF7CCFC054641F2883700BF306A800772
:1013A00006D4FFF7C3FC401BB842F7D937E000BFB3
:1013B000B8F1000F7FF4D5AEF06920F08050F061F5
:1013C000CFE600BF306820F480303060306820F411
:1013D00080203060FFF7AAFC054600BF306880031C
:1013E0007FF59DAEFFF7A2FC401B64284FF0030081
:1013F000F4D9CCE6306840F480203060306840F4A6
:1014000080303060FFF792FC054600BF30688003F3
:101410003FF585AEFFF78AFC401B6428F6D9032010
:1014200002B0BDE8F08100BF206AB0F5803F05D171
:101430007168A26821F40031114371607168626AB9
:1014400021F4741111430843706001203866FFF7DE
:101450006DFC0446306880013FF598AEFFF766FCEE
:10146000001B02284FF00300F4D990E6411E002033
:10147000B0EB116F1CBF012070474EF21002CEF28C
:10148000000251604EF62351CEF20001F0230B70A2
:10149000072190601160704770470000006844F2B7
:1014A0000041C4F20001884218BF704740F2700C3E
:1014B00040F2183040F26031C2F2000C0023C2F258
:1014C0000000C2F200014FF400728CF8003000F00E
:1014D0008FBB0000B0B582B0044600680168C368E5
:1014E000426901F02F05202D03F0200506D12DB112
:1014F000204602B0BDE8B04000F088BE5FEA017C43
:101500001EBF02F0010E03F4907212EB0E0253D1D3
:10151000226B012A05D111F0100218BF13F010023E
:1015200036D10A0622D513F080021FD094F841105C
:1015300021293FD1A168B1F5805F03D1216900293C
:1015400000F07082216A4A1C226209784160E18CB5
:1015500001390A04E1842DD1C16821F08001C16004
:10156000C16841F04001C16002B0B0BD490621D55B
:1015700013F040011ED0C16821F04001C16020215C
:10158000204684F8411002B0BDE8B04000F042BCF3
:10159000002101910168019141680191019940691F
:1015A000400613D4A08DE18DE28D002A18BF884239
:1015B00040F0BA8102B0B0BDCA0718BF13F4807200
:1015C00040F0B6804A0700F1B980BEE0E06B0168E8
:1015D00049688AB2002AEDD0A38D9A42EAD2E18509
:1015E0008069202800F09C80206850E8030F216863
:1015F00020F4807041E80302DAB1206850E8030F5C
:10160000216820F4807041E8030292B1206850E81C
:10161000030F216820F4807041E803024AB120687A
:1016200050E8030F216820F4807041E80302002A8B
:10163000DAD1206850E8050F216820F0010041E868
:101640000502DAB1206850E8050F216820F001009A
:1016500041E8050292B1206850E8050F216820F0AA
:10166000010041E805024AB1206850E8050F2168F1
:1016700020F0010041E80502002ADAD1206850E894
:10168000050F216820F0400041E80502DAB120682A
:1016900050E8050F216820F0400041E8050292B1B2
:1016A000206850E8050F216820F0400041E805025D
:1016B0004AB1206850E8050F216820F0400041E859
:1016C0000502002ADAD1202084F84200002020639D
:1016D000206850E8030F216820F0100041E8030261
:1016E000DAB1206850E8030F216820F0100041E8CB
:1016F000030292B1206850E8030F216820F0100027
:1017000041E803024AB1206850E8030F216820F045
:10171000100041E80302002ADAD1E06BFEF77EFFF9
:1017200002206063A08DE18D401A81B2204674E1F1
:10173000626C42F0010262644A0706D5BEF1000FF6
:1017400003D0626C42F0020262648A0706D5BEF1E1
:10175000000F03D0626C42F004026264BCF1000F1F
:1017600009D545EA0E02B2FA82F2520903D1626C3F
:1017700042F008026264626C002A3FF41BAF11F071
:10178000200118BF002D03D0204600F03FFD206847
:101790004069616C00F0400001F00801401800F061
:1017A000B58000BF206850E8030F216820F49070D6
:1017B00041E80302BAB3206850E8030F216820F41F
:1017C000907041E8030272B3206850E8030F21686B
:1017D00020F4907041E803022AB3206850E8030F18
:1017E000216820F4907041E80302002ADAD11AE05F
:1017F000206850E8050F216820F0010041E805024B
:10180000DAB1206850E8050F216820F0010041E8B6
:10181000050292B1206850E8050F216820F0010010
:1018200041E805024AB1206850E8050F216820F020
:10183000010041E80502002ADAD1206B012824D1F9
:10184000206850E8030F216820F0100041E80302EF
:10185000DAB1206850E8030F216820F0100041E859
:10186000030292B1206850E8030F216820F01000B5
:1018700041E803024AB1206850E8030F216820F0D4
:10188000100041E80302002ADAD1202084F8420047
:10189000002020632068406940063FD5206850E85A
:1018A000050F216820F0400041E80502DAB1206808
:1018B00050E8050F216820F0400041E8050292B190
:1018C000206850E8050F216820F0400041E805023B
:1018D0004AB1206850E8050F216820F0400041E837
:1018E0000502002ADAD1E06BC0B141F65561C0F6BD
:1018F00000014163FEF7B6FE00283FF45BAEE06BEB
:10190000416B02B0BDE8B040084700BF2046FFF77A
:10191000C5FD0020606402B0B0BD00BF204602B02B
:10192000BDE8B040FFF7BABD401A216851E8031F77
:10193000226821F4907142E80313DBB1216851E879
:10194000031F226821F4907142E8031393B12168C8
:1019500051E8031F226821F4907142E803134BB150
:10196000216851E8031F226821F4907142E80313B3
:10197000002BDAD1216851E8051F226821F001010E
:1019800042E80513DBB1216851E8051F226821F008
:10199000010142E8051393B1216851E8051F22684F
:1019A00021F0010142E805134BB1216851E8051F00
:1019B000226821F0010142E80513002BDAD1202131
:1019C00084F8421000212163216851E8031F226836
:1019D00021F0100142E80313DBB1216851E8031F35
:1019E000226821F0100142E8031393B1216851E805
:1019F000031F226821F0100142E803134BB1216854
:101A000051E8031F226821F0100142E80313002B64
:101A1000DAD1022281B22046626302B0BDE8B04052
:101A2000FFF73ABD216A31F8022B6FF35F22426063
:101A300021628CE5002804BF0120704710B50446E0
:101A400090F8410028B9002084F84000204600F0BA
:101A500063F8242084F841002068D4E90212C368A6
:101A600023F40053C360036923F440531A43026113
:101A7000D4E904231143C268194341F20C639A4329
:101A80001143C1604169A26921F44071114343F6D9
:101A90000002C4F201029042416103D0FFF7E4FA70
:101AA00002E000BFFFF7F4FA626819214843910091
:101AB000B0FBF1F048F21F51C5F2EB11A0FB01237E
:101AC0005A094FF69C73C0F6FF7302FB03003223E2
:101AD00003EB0010A0FB0101F02303EA511320687F
:101AE00003EB0212C1F3431111448160016921F437
:101AF00090410161416921F02A014161C16841F4CD
:101B00000051C16000202021606484F8411084F8F5
:101B10004210606310BD00002DE9F04186B004461C
:101B200044F200402168C4F200000026814204967D
:101B300002D006B0BDE8F08141F21801C4F2020102
:101B40004A6840F26C0842F400324A604A6800F584
:101B5000444002F400320192019A0A68C4F2020879
:101B600042F004020A60096801F004010191019940
:101B70000C21029102210391059102A9FEF7B4FF05
:101B800040F29025C2F2000580272846C5E900866C
:101B9000C5E90267C5E90466C5E90666FEF78CFE7D
:101BA000002818BFFEF734FDE5636C6240F2D425CF
:101BB00008F11400C2F200051021002285E8870018
:101BC0002846C5E90422C5E90622FEF775FE00286D
:101BD00018BFFEF71DFD262000210022A5636C62C0
:101BE000FFF726F92620FFF70FF906B0BDE8F081D0
:101BF00070B582B0044690F8420020280AD11346FE
:101C00000A4600294FF0010018BF002B06D102B090
:101C100070BD00BF022002B070BD00BF00252220B1
:101C20002563A262A385656484F842002168E06BA5
:101C300041F6DD7C42F23D1E41F66166C0F6000CC5
:101C4000C0F6000EC0F600060431C0E90ACEC0E9B5
:101C50000C65FEF775FE01952068016801914068EA
:101C600001900198206928B3206850E8030F21688B
:101C700040F4807041E80302E2B1206850E8030FAD
:101C8000216840F4807041E803029AB1206850E86E
:101C9000030F216840F4807041E8030252B12068CC
:101CA00050E8030F216840F4807041E80302002AE5
:101CB000DAD100BF206850E8050F216840F001002C
:101CC00041E80502E2B1206850E8050F216840F0C4
:101CD000010041E805029AB1206850E8050F21682B
:101CE00040F0010041E8050252B1206850E8050FBC
:101CF000216840F0010041E80502002ADAD100BF66
:101D0000206850E8050F216840F0400041E80502D6
:101D1000DAB1206850E8050F216840F0400041E842
:101D2000050292B1206850E8050F216840F040009C
:101D300041E805024AB1206850E8050F216840F0EB
:101D4000400041E80502002ADAD1002002B070BD4F
:101D5000704700007047000070B5044690F84100DD
:101D600020281CBF022070BD00294FF001004DD07B
:101D7000002A134608BF70BD4FF0000C21202162DD
:101D8000A384E384C4F844C084F841002268A06BB3
:101D900042F2551E42F2052541F66166C0F6000E7C
:101DA000C0F60005C0F600060432C0E90AE5C0E945
:101DB0000C6CFEF7C5FD20686FF04001016000BFAC
:101DC000206850E8050F216840F0800041E80502D6
:101DD000F2B1206850E8050F216840F0800041E82A
:101DE0000502AAB1206850E8050F216840F0800084
:101DF00041E8050262B1206850E8050F216840F013
:101E0000800041E80502002ADAD1002070BD00BF41
:101E1000002070BD006844F20041C4F20001884215
:101E200018BF704740F27000C2F20000002101703C
:101E30007047000070470000FEE70000FEE700006A
:101E4000FEE700007047000070470000FEF774BF17
:101E500070470000406A0021C185C184FFF71EBBA6
:101E6000406A01684A6990F84130212B2DD112F067
:101E700080022AD00021C184016851E8031F026852
:101E800021F0C00142E80313DBB1016851E8031FF0
:101E9000026821F0C00142E8031393B1016851E8E0
:101EA000031F026821F0C00142E803134BB101682F
:101EB00051E8031F026821F0C00142E80313002B20
:101EC000DAD1202180F841100168496990F8422058
:101ED000222A40F07D8011F0400179D00021C18597
:101EE000016851E8031F026821F4907142E803136E
:101EF000BBB3016851E8031F026821F4907142E806
:101F0000031373B3016851E8031F026821F4907151
:101F100042E803132BB3016851E8031F026821F460
:101F2000907142E80313002BDAD11AE0016851E8FE
:101F3000051F026821F0010142E80513DBB10168C9
:101F400051E8051F026821F0010142E8051393B131
:101F5000016851E8051F026821F0010142E80513FC
:101F60004BB1016851E8051F026821F0010142E808
:101F70000513002BDAD1016B012924D1016851E846
:101F8000031F026821F0100142E80313DBB101686E
:101F900051E8031F026821F0100142E8031393B1D6
:101FA000016851E8031F026821F0100142E80313A1
:101FB0004BB1016851E8031F026821F0100142E8AB
:101FC0000313002BDAD1202180F842100021016395
:101FD000416C41F010014164FFF760BA0168406A4A
:101FE0000968890600F19F800021C185016851E8D8
:101FF000031F026821F4807142E80313E3B1016812
:1020000051E8031F026821F4807142E803139BB179
:10201000016851E8031F026821F4807142E803134C
:1020200053B1016851E8031F026821F4807142E84E
:102030000313002BDAD100BF016851E8051F0268C5
:1020400021F0010142E80513BBB3016851E8051F07
:10205000026821F0010142E8051373B3016851E8F9
:10206000051F026821F0010142E805132BB3016846
:1020700051E8051F026821F0010142E80513002B19
:10208000DAD11AE0016851E8051F026821F0400129
:1020900042E80513DBB1016851E8051F026821F031
:1020A000400142E8051393B1016851E8051F026839
:1020B00021F0400142E805134BB1016851E8051FCA
:1020C000026821F0400142E80513002BDAD12021FB
:1020D00080F84210016B012925D100BF016851E849
:1020E000031F026821F0100142E80313DBB101680D
:1020F00051E8031F026821F0100142E8031393B175
:10210000016851E8031F026821F0100142E803133F
:102110004BB1016851E8031F026821F0100142E849
:102120000313002BDAD100214163016B012918BF91
:10213000FFF70EBE818DFFF7AFB90000406A0121A5
:102140004163016B012918BFFFF704BE818D490867
:10215000FFF7A2B90168406A0968890648BFFFF71E
:1021600059BE0021C18400BF016851E8051F026803
:1021700021F0800142E8051383B3016851E8051F8F
:10218000026821F0800142E805133BB3016851E881
:10219000051F026821F0800142E80513F3B10168D0
:1021A00051E8051F026821F0800142E80513002B69
:1021B000DAD113E0016851E8031F026841F04001E1
:1021C00042E80313002B08BF7047016851E8031F62
:1021D000026841F0400142E8031393B1016851E8FD
:1021E000031F026841F0400142E803134BB101684C
:1021F00051E8031F026841F0400142E80313002B3D
:10220000D8D17047406AFFF715BE000081B090F842
:102210004210222921D183680246B3F5805F09D19B
:1022200052F8281F52F8183C002B63D003685B68F3
:102230000AE000BF52F8281F13B90369002BF5D03C
:1022400003685B6803F07F030B7011680131116054
:10225000C18D01390A04C18502D001B0704700BFA9
:102260000168CA6822F02002CA60CA6822F480723B
:10227000CA604A6922F001024A61202180F84210B6
:1022800000214163026B012A3CD10163016851E8DE
:10229000031F026821F0100142E80313DBB101685B
:1022A00051E8031F026821F0100142E8031393B1C3
:1022B000016851E8031F026821F0100142E803138E
:1022C0004BB1016851E8031F026821F0100142E898
:1022D0000313002BDAD101680A68D20606D5002262
:1022E00000920A680092496800910099818D01B0BE
:1022F000FFF7D2B8026852686FF35F2221F8022B11
:102300008162A5E701B0FFF723BD000040F218305D
:10231000C2F20000FFF7DEB8FEE7000070B540F241
:102320007006C2F20006334613F8472F002A4FF01A
:10233000000213D0334613F84D4F8CB1334613F8D7
:10234000534F7CB1334613F8594F6CB1334613F8F1
:102350005F4F002C18BF70BD042406E0002404E089
:10236000012402E0022400E0032404EB440406EB11
:10237000440401251D70A4F84200A4F8441084F818
:102380004620327802B170BD40F2605CC2F2000CAF
:1023900040F2AA421FFA81FEACF8002082B24FEA56
:1023A0001E25130A8CF8045038258CF802308CF85E
:1023B00003008CF80510002848BF3F2585EA430537
:1023C0006CB26A000723002C48BF83EA450254B26E
:1023D0005500002C48BF83EA42056AB26C00002A0F
:1023E00048BF83EA450462B26500002A48BF83EA19
:1023F00044056AB26C00002A48BF83EA450462B211
:102400006500002A48BF83EA44056AB26C00002ACE
:1024100048BF83EA4504604042B24400002A48BFF6
:1024200083EA400460B26200002848BF83EA4402A5
:1024300050B25400002848BF83EA420460B26200F0
:10244000002848BF83EA440250B25400002848BF25
:1024500083EA420460B26200002848BF83EA440273
:1024600050B25400002848BF83EA420460B26200C0
:10247000002848BF83EA440282EA1E2042B2450097
:10248000002A48BF83EA400568B26A00002848BFB6
:1024900083EA450250B25500002848BF83EA42054E
:1024A00068B26A00002848BF83EA450250B255006E
:1024B000002848BF83EA420568B26A00002848BF86
:1024C00083EA450250B25500002848BF83EA42051E
:1024D00068B26A00002848BF83EA450282EA010028
:1024E00041B24200002948BF83EA400250B2510085
:1024F000002848BF83EA420148B24A00002848BF8A
:1025000083EA410250B25100002848BF83EA4201E9
:1025100048B24A00002848BF83EA410250B2510045
:10252000002848BF83EA420148B24A00002848BF59
:1025300083EA410250B2510000284FF0550048BFD5
:1025400083EA42018CF8070040F218308CF806103C
:10255000C2F2000061460822FFF7FEFB002804BF1C
:102560000120307070BD000094B0FEF7F3FB002432
:102570000120CDE90F44CDE90D440E9010200F90BD
:102580004FF46010022513900AA8CDE90B440A9578
:10259000CDE91154FEF790FD20B1EFF3108072B633
:1025A000FEE700BF0F20CDE905054FF48060CDE9BF
:1025B000080405A802210794FEF776FC20B1EFF38A
:1025C000108072B6FEE700BF4FF0000841F2180914
:1025D000CDF83480C4F20209D9F8000040F6000AB0
:1025E00040F00400C9F80000D9F80000C4F2010A64
:1025F00000F0040005900598D9F800004FF47071C0
:1026000040F00800C9F80000D9F80000002200F0EE
:102610000800059005985046FEF782FB0AF5806693
:102620003046082101220125FEF77AFB3046602161
:102630000022FEF775FB122000270AAC0A90C1F2B7
:1026400031074FF0020B504621460B97CDF830B0C2
:10265000FEF74AFAC0200AA981E82109504621461E
:10266000FEF742FA0AA880E8A00830462146FEF7A5
:102670003BFA4FF440700AA981E8210850462146F0
:10268000CDF834B0FEF730FA08200A9011200BA9DB
:1026900081E80109304621460127FEF725FA20206E
:1026A0000AA981E8810830462146CDF834B0FEF70A
:1026B0001BFA40200AA981E8810930462146FEF72D
:1026C00013FA062000210022FEF7B2FB0620FEF7D7
:1026D0009BFB0720002100224FF0070BFEF7A8FB11
:1026E0000720FEF791FB0A2000210022FEF7A0FB45
:1026F0000A20FEF789FB59F8040C002140F0010084
:1027000049F8040C59F8040C002200F001000A906A
:102710000A981020FEF78CFB1020FEF775FB1120A5
:1027200000210022FEF784FB1120FEF76DFB40F232
:102730001830AAF54441C2F200000C234FF4E132F4
:1027400080E80601C0E90388C0E90538C0F81C80AC
:10275000FFF770F920B1EFF3108072B6FEE700BF0B
:10276000642000256FF013086424FEF737F940F267
:10277000183040F26031C2F20000C2F200014FF4A2
:102780000072FFF735FA40F2700A40F2B419C2F253
:10279000000A4FF4C870C2F20009AAF816004846B1
:1027A00078218AF808708AF80A408AF80C50FDF7F8
:1027B00003FE40F2D000C2F200006421FDF7FCFDF0
:1027C00040F22C20C2F200006421FDF7F5FDBAF8BA
:1027D000010040F20001C2F20001088030464021B1
:1027E0000122AAF85E50CAF85A50CAF85650CAF8E0
:1027F0005250CAF84E50CAF84A50CAF84650CAF861
:102800004250AAF81450CAF80350CAF82050039650
:10281000FEF786FA0FF6A46002F01EF9FEF786FABC
:10282000CAF82400FEF782FACAF82800FEF77EFAFA
:10283000014613E0411C0CF80070023089B25522A9
:102840000CF8012082B240F21830C2F2000061465A
:10285000FFF782FA0499002802F03E80CAF82C1093
:1028600019E000BF9AF80000002800F05785BAF878
:10287000010040F20001C2F2000108800499CAF888
:10288000281000BFDAF82C006FF01308081AB0F512
:10289000FA6F81F0DB87FEF749FA40F29021C2F22D
:1028A000000109684A68BAF81830C2F5007297B298
:1028B000BB42049000F0C7809AF8100040F26036E6
:1028C0000024C2F2000615E001208AF810008AF800
:1028D0001240BAF818100131AAF81810BAF81810F6
:1028E000B1F5007F28BFAAF81840BAF81810B9420D
:1028F00000F0A480BAF818100028715C08BFAA295B
:10290000E2D0022808D00128E3D102208AF8111071
:102910008AF81000DDE700BF9AF812309AF811200B
:10292000581C5344102A8AF8120083F838100DD02E
:10293000112A40F07E80C0B2022804D39AF83910E0
:10294000552900F0768003283CD372E0C0B20728F6
:1029500036D39AF83E10552932D14A4612F8095F0B
:10296000BAF838309AF83A009AF83BC09AF83CE046
:1029700055B34A4612F8155F45B34A4612F8215F2F
:1029800035B34A4612F82D5F25B34A4612F8395F2F
:1029900015B34A4612F8455F05B34A4612F8515F2F
:1029A000F5B14A4612F85D5FE5B14A4612F8695F33
:1029B000D5B14A4612F8755F002D3AD1092414E0CA
:1029C000082836D2022084E700240EE001240CE01F
:1029D00002240AE0032408E0042406E0052404E0BD
:1029E000062402E0072400E008241BBA04EB440597
:1029F0001B0C09EB8504012129F82530A8F11E03E1
:102A0000207200284FF028001170638084F804C001
:102A100084F805E008BF1420A071E0713C20A0728A
:102A200003984021FEF774F940F260360024C2F2A8
:102A3000000600208AF810004BE700BF40F290200B
:102A4000C2F2000001684968BAF81820BAF81830D4
:102A5000C1F5007087B2C61A1944974238BFC1F554
:102A60008066B1B240F2D008B1F5E67FC2F200084C
:102A700040F2CE80AAF818009AF80000002840F032
:102A8000C78040F26055C2F2000540F2AA302880AB
:102A900045F65200C6F62070C5F8020046F27650A0
:102AA000C6F27260C5F8060046F66640C7F26F705F
:102AB000C5F809000020002329184F788A787B4048
:102AC0005FB25E00C978002F48BF8BEA430673B23D
:102AD0007700002B48BF8BEA46077BB27E00002BB5
:102AE00048BF8BEA470673B27700002B48BF8BEADA
:102AF00046077BB27E00002B48BF8BEA470673B2C5
:102B00007700002B48BF8BEA46077BB27E00002B84
:102B100048BF8BEA470673B27700002B48BF8BEAA9
:102B200046077A4053B25700002B48BF8BEA420752
:102B30007AB27B00002A48BF8BEA47035AB25F0093
:102B4000002A48BF8BEA43077AB27B00002A48BFBD
:102B50008BEA47035AB25F00002A48BF8BEA43075B
:102B60007AB27B00002A48BF8BEA47035AB25F0063
:102B7000002A48BF8BEA43077AB27B00002A48BF8D
:102B80008BEA470359404AB24B00002A48BF8BEA00
:102B9000410359B25A00002948BF8BEA430251B29F
:102BA0005300002948BF8BEA420359B25A0000295A
:102BB00048BF8BEA430251B25300002948BF8BEA59
:102BC000420359B25A00002948BF8BEA430251B26E
:102BD0005700002948BF8BEA420779B27B000029E1
:102BE00000F1030048BF8BEA47030C287FF464AF71
:102BF0005520A87340F21830C2F2000029460F2277
:102C00006B73FFF7A9F8002804BF01208AF80000C1
:102C1000BAF8140042F2C502C1085143090DCD2291
:102C20004A43D20A02EB8202A1EB4201820841F23E
:102C30007B435A43520C4CF6CD4702FB07F3DB0CA7
:102C400003EB8303A2EB430283B27B43DB0C5F43C2
:102C5000FF0C07EB8707A3EB470703EB8303A0EB0E
:102C6000430044F64463C9B2C0F60003595C92B213
:102C7000BFB280B29A5C8AF81A10D95D185C8AF8E3
:102C80001B208AF81C108AF81D00FEF74FF8DAF8AE
:102C900034100746401A022824D39AF81300012260
:102CA0000AEB0001897E02FA00F481F0FF0002F0D5
:102CB00015F8E0B202F012F8039C20212046012210
:102CC000FEF72EF8204620210022FEF729F89AF878
:102CD00013000130C1B2032988BF00208AF8130015
:102CE000CAF83470FEF722F89AF8011004464FF043
:102CF0000200B9B103296FF0130C4FF0000E03D09E
:102D0000022940F00F8403209AF80420012A11D0F0
:102D10009AF80520012A1BD09AF8060040BB00F063
:102D2000FFBB00BF6FF0130C4FF0000E9AF80420A9
:102D3000012AEDD19AF802208AF804E0002A08BF9F
:102D40000246013A8AF802209AF80520012AE3D1C6
:102D50009AF802208AF805E00132D3B2984298BF6F
:102D600072468AF802209AF80600002800F0D883FC
:102D700003298AF806E000F0DD80022900F0B48122
:102D8000002940F0CD839AF80200002840F0C88363
:102D90004FF4C870AAF81600642001258AF80A00CA
:102DA000484678218AF808508AF80CE00026FDF79A
:102DB00003FB40466421FDF7FFFA40F22C20C2F2EB
:102DC00000006421FDF7F8FA8AF8015040F600058A
:102DD000C4F20105284640210122AAF85E60CAF823
:102DE0005A60CAF85660CAF85260CAF84E60CAF80B
:102DF0004A60CAF84660CAF84260AAF814608AF8C5
:102E00000360CAF830608AF80F60CAF82060FDF7E6
:102E100087FF284680210022FDF782FF9AF80000F4
:102E20004FF0000E6FF0130C002840F0798340F251
:102E30006056C2F2000640F2AA30308046F24710D7
:102E4000C6F26D50C6F8020045F22030C6F274108A
:102E5000C6F8060047F2724070810020002200BFD1
:102E600031184B785A4053B25700002B48BF8BEAB9
:102E700042077AB27B00002A48BF8BEA47035AB266
:102E80005F00002A48BF8BEA43077AB27B00002A22
:102E900048BF8BEA47035AB25F00002A48BF8BEA5B
:102EA00043077AB27B00002A48BF8BEA47035AB235
:102EB0005F00002A48BF8BEA43077BB27A00002BF1
:102EC00048BF8BEA47020A2800F03E818978023029
:102ED00051404AB24B00002A48BF8BEA410359B225
:102EE0005A00002948BF8BEA430251B2530000291F
:102EF00048BF8BEA420359B25A00002948BF8BEA07
:102F0000430251B25300002948BF8BEA420359B231
:102F10005A00002948BF8BEA430251B253000029EE
:102F200048BF8BEA420359B25A00002948BF8BEAD6
:102F3000430295E79AF80200012800F00181002879
:102F400040F0EE824FF4C870AAF816006420012504
:102F50008AF80A00484678218AF808508AF80CE076
:102F60000026FDF729FA40466421FDF725FA40F2D4
:102F70002C20C2F200006421FDF71EFA8AF80150ED
:102F800040F60005C4F20105284640210122AAF8B6
:102F90005E60CAF85A60CAF85660CAF85260CAF849
:102FA0004E60CAF84A60CAF84660CAF84260AAF899
:102FB00014608AF80360CAF830608AF80F60CAF8B3
:102FC0002060FDF7ADFE284680210022FDF7A8FE17
:102FD0009AF800004FF0000E6FF0130C002840F03C
:102FE0009F8240F26056C2F2000640F2AA30308062
:102FF00046F24710C6F26D50C6F8020045F2203086
:10300000C6F27410C6F8060047F2724070810020C4
:10301000002200BF31184B785A4053B25700002BA2
:1030200048BF8BEA42077AB27B00002A48BF8BEA8E
:1030300047035AB25F00002A48BF8BEA43077AB2BF
:103040007B00002A48BF8BEA47035AB25F00002A80
:1030500048BF8BEA43077AB27B00002A48BF8BEA5D
:1030600047035AB25F00002A48BF8BEA43077BB28E
:103070007A00002B48BF8BEA47020A2864D089787F
:10308000023051404AB24B00002A48BF8BEA41034C
:1030900059B25A00002948BF8BEA430251B253008B
:1030A000002948BF8BEA420359B25A00002948BFA1
:1030B0008BEA430251B25300002948BF8BEA420316
:1030C00059B25A00002948BF8BEA430251B253005B
:1030D000002948BF8BEA420359B25A00002948BF71
:1030E0008BEA430296E700BF9AF80200022841D01B
:1030F000012845D0002840F0138201208AF8010001
:103100008AF803E09AF80000002840F0098240F2B3
:103110006051C2F2000140F2AA30088046F25250DB
:10312000C7F27350C1F8020046F26D50C5F212505A
:10313000C1F8060040F21830C2F200000A220CE08A
:10314000AAF801E0DDE200BF5520707340F21830AC
:103150003273C2F2000031460E22FEF7FDFD4FF041
:10316000000E6FF0130C002840F0DA8101208AF87D
:103170000000D5E1AAF801E08AF803E0C1E200BF4F
:103180004FF4C870AAF81600642001258AF80A00D6
:10319000484678218AF808508AF80CE00026FDF7A6
:1031A0000BF940466421FDF707F940F22C20C2F2EA
:1031B00000006421FDF700F98AF8015040F600058F
:1031C000C4F20105284640210122AAF85E60CAF82F
:1031D0005A60CAF85660CAF85260CAF84E60CAF817
:1031E0004A60CAF84660CAF84260AAF814608AF8D1
:1031F0000360CAF830608AF80F60CAF82060FDF7F3
:103200008FFD284680210022FDF78AFD9AF80000F4
:10321000002840F07F8140F26056C2F2000640F282
:10322000AA30308046F24710C6F26D50C6F8020050
:1032300045F22030C6F27410C6F8060047F272401C
:1032400070810020002200BF31184B785A4053B2E1
:103250005700002B48BF8BEA42077AB27B00002A56
:1032600048BF8BEA47035AB25F00002A48BF8BEA87
:1032700043077AB27B00002A48BF8BEA47035AB261
:103280005F00002A48BF8BEA43077AB27B00002A1E
:1032900048BF8BEA47035AB25F00002A48BF8BEA57
:1032A00043077BB27A00002B48BF8BEA47020A280B
:1032B00000F020818978023051404AB24B00002A48
:1032C00048BF8BEA410359B25A00002948BF8BEA34
:1032D000430251B25300002948BF8BEA420359B25E
:1032E0005A00002948BF8BEA430251B2530000291B
:1032F00048BF8BEA420359B25A00002948BF8BEA03
:10330000430251B25300002948BF8BEA420359B22D
:103310005A00002948BF8BEA430295E740F2605605
:10332000C2F2000640F2AA203080BAF814009AF8DF
:103330000210030A33711C23B270F1707071002AFD
:1033400048BF1B2383EA420253B25700002B48BFF9
:103350008BEA42077AB27B00002A48BF8BEA470318
:103360005AB25F00002A48BF8BEA43077AB27B005B
:10337000002A48BF8BEA47035AB25F00002A48BFC1
:103380008BEA43077AB27B00002A48BF8BEA4703E7
:103390005AB25F00002A48BF8BEA430779404AB21D
:1033A0004B00002A48BF8BEA410359B25A0000295A
:1033B00048BF8BEA430251B25300002948BF8BEA51
:1033C000420359B25A00002948BF8BEA430251B266
:1033D0005300002948BF8BEA420359B25A00002922
:1033E00048BF8BEA430251B25300002948BF8BEA21
:1033F000420359B25A00002948BF8BEA430282EACD
:1034000010214AB24B00002A48BF8BEA410359B24F
:103410005A00002948BF8BEA430251B253000029E9
:1034200048BF8BEA420359B25A00002948BF8BEAD1
:10343000430251B25300002948BF8BEA420359B2FC
:103440005A00002948BF8BEA430251B253000029B9
:1034500048BF8BEA420359B25A00002948BF8BEAA1
:103460004302504041B24200002948BF8BEA40026B
:1034700050B25100002848BF8BEA420148B24A00CE
:10348000002848BF8BEA410250B25100002848BFD3
:103490008BEA420148B24A00002848BF8BEA410249
:1034A00050B25100002848BF8BEA420148B24A009E
:1034B000002848BF8BEA410250B2510000284FF06B
:1034C000550048BF8BEA4201F07140F21830B171EB
:1034D000C2F2000031460822FEF73EFC40F23417EB
:1034E000C2F20007002804BF01208AF80000FFF79D
:1034F000BEB900BF5520707340F218303273C2F26B
:10350000000031460E22FEF727FC002804BF0120F0
:103510008AF800004FF0000E6FF0130C8AF803E0F9
:103520009AF801100129049940F0EC809AF80600FD
:10353000002818BF8AF806E09AF80D0001280FD17C
:10354000DAF82000201A1F280AD3BAF81600053826
:1035500000B21E28D8BF1E20AAF81600CAF82040C4
:103560009AF80E00012811D1DAF82000201A1F283D
:103570000CD3BAF8160040F20232053000B2904285
:10358000A8BF1046AAF81600CAF820409AF80F0003
:1035900001283FD19AF80300002845D1DAF830100D
:1035A000002941D0611AB1F5FA7F3DD90220AAF86D
:1035B000010001208AF803009AF8000010BB40F2D5
:1035C0006051C2F2000140F2AA30088046F2501069
:1035D000C7F27530C1F8020046F26540C5F2695085
:1035E000C1F8060040F21830C2F200000A22FEF7CD
:1035F000B3FB4FF0000E6FF0130C002804BF012046
:103600008AF800009AF80F00049980F00100C007C2
:1036100003D177E00120C00774D09AF80300002896
:1036200018BF8AF803E06DE09AF80C1080F00100F2
:10363000B1FA81F1490908400499012862D1404654
:1036400010F8081F41B3404610F8121F122739B373
:10365000404610F81C1F29B3404610F8261F19B326
:10366000404610F8301F09B3404610F83A1FF9B130
:10367000404610F8441FE9B1404610F84E1FD9B13A
:10368000404610F8581F09B3404610F8621F002941
:10369000049937D1092100E00021122717E000BF6B
:1036A000012114E0022112E0032110E004210EE0C8
:1036B00005210CE006210AE0072108E05379737424
:1036C000656D205265616479000000000821BAF838
:1036D000162001EB810128F811209AF80820012317
:1036E00003706FF0130008EB4101002A18BF4FF47C
:1036F000FA7048800CF10C00A1F804E0C8808AF848
:103700000C700499DAF8240040F22C24081A1028CE
:10371000C2F20004C0F01C859AF80100012840F0B4
:1037200015859AF80C0000281CBF01388AF80C0097
:1037300098F8080058B1B8F80600B8F80210084424
:1037400001B26145A8F80200B8BF88F808E098F80F
:10375000120058B1B8F81000B8F80C10084401B2C3
:103760006145A8F80C00B8BF88F812E098F81C0072
:1037700058B1B8F81A00B8F81610084401B26145FB
:10378000A8F81600B8BF88F81CE098F8260058B1D1
:10379000B8F82400B8F82010084401B26145A8F830
:1037A0002000B8BF88F826E098F8300058B1B8F883
:1037B0002E00B8F82A10084401B26145A8F82A0082
:1037C000B8BF88F830E098F83A0058B1B8F8380037
:1037D000B8F83410084401B26145A8F83400B8BF05
:1037E00088F83AE098F8440058B1B8F84200B8F8C0
:1037F0003E10084401B26145A8F83E00B8BF88F801
:1038000044E098F84E0058B1B8F84C00B8F84810A9
:10381000084401B26145A8F84800B8BF88F84EE0F6
:1038200098F8580058B1B8F85600B8F85210084443
:1038300001B26145A8F85200B8BF88F858E098F87E
:10384000620058B1B8F86000B8F85C10084401B2E2
:103850006145A8F85C00B8BF88F862E0207A48B1FA
:10386000E0886188084401B2B1F51B7F6080C8BF61
:1038700084F808E0A07C48B1208AA189084401B2FC
:10388000B1F51B7FA081C8BF84F812E0207F48B14A
:10389000608BE18A084401B2B1F51B7FE082C8BFAA
:1038A00084F81CE094F8260048B1A08C218C0844D0
:1038B00001B2B1F51B7F2084C8BF84F826E094F8DC
:1038C000300048B1E08D618D084401B2B1F51B7F35
:1038D0006085C8BF84F830E094F83A0048B1208F82
:1038E000A18E084401B2B1F51B7FA086C8BF84F841
:1038F0003AE094F8440050B1B4F84200E18F084433
:1039000001B2B1F51B7FE087C8BF84F844E094F8AA
:103910004E0060B1B4F84C00B4F84810084401B24D
:10392000B1F51B7FA4F84800C8BF84F84EE094F8B6
:10393000580060B1B4F85600B4F85210084401B20F
:10394000B1F51B7FA4F85200C8BF84F858E094F882
:10395000620060B1B4F86000B4F85C10084401B2D1
:10396000B1F51B7FA4F85C00C8BF84F862E00020BA
:1039700006E000BF7A1E8A720C30782800F07A8048
:1039800009EB00014A7A002AF6D091F90420672356
:103990005A43C2F3C03303EB522239F8003052B21B
:1039A0001A4491F9053040F28B25C3F302373B44AA
:1039B0004F885BB207EBE3073BB229F80020AB422C
:1039C0004F80A8BF81F809E00F7A012FD4D18F7AF8
:1039D000002FCFD1274617F8086F2EB3274617F8C8
:1039E000126F1EB3274617F81C6F0EB3274617F841
:1039F000266FFEB1274617F8306FEEB1274617F84D
:103A00003A6FDEB1274617F8446FCEB1274617F854
:103A10004E6FBEB1274617F8586FAEB1274617F85C
:103A2000626F26BB092610E000260EE001260CE09E
:103A300002260AE0032608E0042606E0052604E044
:103A4000062602E0072600E0082606EB860604EBC1
:103A5000460501243C7040F22C24C2F2000424F8F4
:103A6000162003F114026A804FF480226A607822E3
:103A700081E700BF9AF8470048B19AF84600013044
:103A8000C1B20A298AF8460028BF8AF847E09AF8A6
:103A90004D0048B19AF84C000130C1B20A298AF8A9
:103AA0004C0028BF8AF84DE09AF8530048B19AF8C4
:103AB00052000130C1B20A298AF8520028BF8AF8A0
:103AC00053E09AF8590048B19AF858000130C1B251
:103AD0000A298AF8580028BF8AF859E09AF85F0046
:103AE00048B19AF85E000130C1B20A298AF85E0036
:103AF00028BF8AF85FE000271DE000BF08B211B2BE
:103B0000FEF70CFC307A4FF0000E00284FF0190041
:103B1000BAF8141084F800E008BF0A206FF0130C04
:103B20000844AAF8140040F22C24C2F200040A3718
:103B3000642F00F01D8108EB0700017A0029F6D000
:103B400099F80910B1B138F80720B9F80010521AE5
:103B5000133292B2262A0DD84388B9F802209B1A54
:103B60001BB2634506DD132B04DC09F109040023B5
:103B7000EEE000BF99F81510B1B138F80720B9F898
:103B80000C10521A133292B2262A0DD84388B9F873
:103B90000E209B1A1BB2634506DD142B04DA09F1D3
:103BA00015040123D4E000BF99F82110B1B138F811
:103BB0000720B9F81810521A133292B2262A0DD8DB
:103BC0004388B9F81A209B1A1BB2634506DD142BF3
:103BD00004DA09F121040223BAE000BF99F82D109C
:103BE000B1B138F80720B9F82410521A133292B242
:103BF000262A0DD84388B9F826209B1A1BB26345A4
:103C000006DD142B04DA09F12D040323A0E000BF24
:103C100099F83910B1B138F80720B9F83010521AB4
:103C2000133292B2262A0DD84388B9F832209B1A53
:103C30001BB2634506DD142B04DA09F139040423B1
:103C400086E000BF99F84510B1B138F80720B9F8FF
:103C50003C10521A133292B2262A0DD84388B9F872
:103C60003E209B1A1BB2634506DD142B04DA09F1D2
:103C7000450405236CE000BF99F85110B1B138F844
:103C80000720B9F84810521A133292B2262A0DD8DA
:103C90004388B9F84A209B1A1BB2634506DD142BF2
:103CA00004DA09F15104062352E000BF99F85D10CF
:103CB000B1B138F80720B9F85410521A133292B241
:103CC000262A0DD84388B9F856209B1A1BB26345A3
:103CD00006DD142B04DA09F15D04072338E000BF88
:103CE00099F86910B1B138F80720B9F86010521A84
:103CF000133292B2262A0DD84388B9F862209B1A53
:103D00001BB2634506DD142B04DA09F169040823AC
:103D10001EE000BF99F8751000293FF408AF38F88D
:103D20000720B9F86C10521A133292B2262A3FF6C5
:103D3000FEAE4388B9F86E209B1A1BB263457FF72D
:103D4000F6AE142BBFF6F3AE09F17504092300BFDC
:103D500003EB430309EB8306334613F8065F80F851
:103D600008E00B2DFFF4CAAEA5F10A001870DAE6E0
:103D70009AF80810237A9AF80A00BAF8162000294F
:103D800018BFACF5FA719BB123889B1A1D339BB207
:103D90003A2B0DD863880B441BB2634508DD132B07
:103DA00006DC0A3884F808E038BF70468AF80A0052
:103DB000A37CA3B163899B1A1D339BB23A2B0ED807
:103DC000A3890B441BB2634509DD132B07DCC0B28A
:103DD0000A3884F812E038BF70468AF80A00237F58
:103DE000A3B1A38A9B1A1D339BB23A2B0ED8E38A48
:103DF0000B441BB2634509DD132B07DCC0B20A3844
:103E000084F81CE038BF70468AF80A0094F826301F
:103E1000A3B1E38B9B1A1D339BB23A2B0ED8238C94
:103E20000B441BB2634509DD132B07DCC0B20A3813
:103E300084F826E038BF70468AF80A0094F83030DB
:103E4000A3B1238D9B1A1D339BB23A2B0ED8638DE1
:103E50000B441BB2634509DD132B07DCC0B20A38E3
:103E600084F830E038BF70468AF80A0094F83A3097
:103E7000A3B1638E9B1A1D339BB23A2B0ED8A38E2F
:103E80000B441BB2634509DD132B07DCC0B20A38B3
:103E900084F83AE038BF70468AF80A0094F8443053
:103EA000A3B1A38F9B1A1D339BB23A2B0ED8E38F7D
:103EB0000B441BB2634509DD132B07DCC0B20A3883
:103EC00084F844E038BF70468AF80A0094F84E300F
:103ED000B3B1B4F846309B1A1D339BB23A2B0FD8BE
:103EE000B4F848300B441BB2634509DD132B07DCE3
:103EF000C0B20A3884F84EE038BF70468AF80A002B
:103F000094F85830B3B1B4F850309B1A1D339BB2BB
:103F10003A2B0FD8B4F852300B441BB2634509DD7D
:103F2000132B07DCC0B20A3884F858E038BF70465B
:103F30008AF80A0094F86230B3B1B4F85A309A1A89
:103F40001D3292B23A2A0FD8B4F85C20114409B25B
:103F5000614509DD132907DCC0B20A3884F862E044
:103F600038BF70468AF80A00002402E00C34782C2E
:103F700030D009EB0406717A0029F7D039F8041023
:103F8000BAF8167072889AF80830CF1B2737002BC2
:103F90001346BFB20CEB020518BFA5F5FA734E2FFE
:103FA000E4D8ACF10A071BB2BB42DFDD1D2BDDDC20
:103FB00008B211B2FEF7B2F99AF80A004FF0000EFB
:103FC0006FF0130C143886F809E038BF70468AF891
:103FD0000A00CBE740F22C2404990006C2F2000448
:103FE00040F0B48040F600040320C4F20104AAF8B3
:103FF00001002046402100228AF803E0CAF830E0A0
:104000008AF80FE0FCF78CFE204640F22C24802139
:104010000122C2F20004FCF783FE04999AF8000022
:10402000002840F0938040F26056C2F2000640F251
:10403000AA30308044F24710C4F24D50C6F8020056
:1040400044F62070C4F25650C6F806005220B072F2
:1040500000226FF0010000BF3118CB7809795A4077
:1040600053B25700002B48BF8BEA42077AB27B005D
:10407000002A48BF8BEA47035AB25F00002A48BFB4
:104080008BEA43077AB27B00002A48BF8BEA4703DA
:104090005AB25F00002A48BF8BEA43077AB27B001E
:1040A000002A48BF8BEA47035AB25F00002A48BF84
:1040B0008BEA43077AB27B00002A48BF8BEA4703AA
:1040C00059404AB24B00002A48BF8BEA410359B21B
:1040D0005A00002948BF8BEA430251B2530000291D
:1040E00048BF8BEA420359B25A00002948BF8BEA05
:1040F000430251B25300002948BF8BEA420359B230
:104100005A00002948BF8BEA430251B253000029EC
:1041100048BF8BEA420359B25A00002900F102005D
:1041200048BF8BEA4302082896D15520307340F2ED
:104130001830F272C2F2000031460D22FDF70CFE7B
:104140000499002804BF01208AF80000CAF824104E
:10415000DAF8280040F23417081A2128C2F20007C2
:10416000FEF490AB9AF8000000287EF48BAB9AF92D
:104170000120012A40F08E829AF8000000287EF487
:104180007DABBAF8160040F2605E00BAC2F2000ED3
:10419000000CAEF802009AF808004FF4D571024600
:1041A000AEF800109AF80A10002818BF02228EF804
:1041B000042018BF08208EF80500BAF814008EF805
:1041C0000610010A8EF8080001208EF8090099F8FF
:1041D00009008EF8071099F8151099F8212099F820
:1041E0002D30002818BF0120002918BF0130002AF7
:1041F00018BF013099F83910002B18BF0130002981
:1042000099F8451018BF0130002999F8511018BFCE
:104210000130002999F85D1018BF0130002999F884
:10422000691018BF0130002999F8751018BF0130C6
:10423000002918BF01308EF80A0009F106010B238E
:1042400000220B20CF7897B131F8067C85B23E0A68
:104250000EF8036031F8046C05EB0E035F7037BA9B
:104260003F0C5F808F780E7806301F715E71082AD0
:1042700083B204D80132F02B01F10C01E2D398F89B
:10428000082098F8121098F81C7098F82660002AF8
:1042900018BF0122002918BF0132002F18BF0132B8
:1042A00098F83010002E18BF0132002998F83A1003
:1042B00018BF0132002998F8441018BF01320029B4
:1042C00098F84E1018BF0132002998F8581018BFFE
:1042D0000132002998F8621018BF0132002918BF76
:1042E0000132411C0EF80320F12B8AB280F0C1800C
:1042F00098F8087077B1B8F800100F0A0EF802703D
:1043000003EB0E02B8F802309170411D18BA000C90
:10431000A2F803008AB2F12A00F2AB8098F81200EA
:1043200060B1B8F80A000431030A0EF80230724492
:104330005070B8F80C0000BA000C50808AB2F12A14
:1043400000F2978098F81C0060B1B8F814000431AE
:10435000030A0EF8023072445070B8F8160000BA22
:10436000000C50808AB2F12A00F2838098F826006F
:1043700060B1B8F81E000431030A0EF8023072442E
:104380005070B8F8200000BA000C50808AB2F12AB0
:104390006FD898F8300060B1B8F828000431030AEB
:1043A0000EF8023072445070B8F82A0000BA000CBF
:1043B00050808AB2F12A5CD898F83A0060B1B8F817
:1043C00032000431030A0EF8023072445070B8F81B
:1043D000340000BA000C50808AB2F12A49D898F80B
:1043E000440060B1B8F83C000431030A0EF8023012
:1043F00072445070B8F83E0000BA000C50808AB287
:10440000F12A36D898F84E0060B1B8F84600043169
:10441000030A0EF8023072445070B8F8480000BA2F
:10442000000C50808AB2F12A23D898F8580060B165
:10443000B8F850000431030A0EF80230724450708C
:10444000B8F8520000BA000C50808AB2F12A10D895
:1044500098F8620060B1B8F85A000431030A0EF807
:10446000023072445070B8F85C0000BA000C508002
:104470008AB2237AA07C277F94F82660002B18BF8D
:104480000123002818BF0133002F18BF013394F80F
:104490003000002E18BF0133002894F83A0018BFEE
:1044A0000133002894F8440018BF0133002894F821
:1044B0004E0018BF0133002894F8580018BF01338C
:1044C000002894F8620018BF013300288FB201F170
:1044D000010018BF0133F12F1FFA80FC0EF80230E3
:1044E00080F0CC80227A62B120886388020A0EF8BC
:1044F0000C2007EB0E029070481D19BA090CA2F8A7
:1045000003101FFA80FCBCF1F10F00F2B780A17C10
:1045100059B1618904300A0A0EF80C200CEB0E0226
:104520005170A18909BA090C51801FFA80FCBCF1B5
:10453000F10F00F2A380217F59B1A18A04300A0A49
:104540000EF80C200CEB0E025170E18A09BA090C2E
:1045500051801FFA80FCBCF1F10F00F28F8094F8BB
:10456000261059B1E18B04300A0A0EF80C200CEB2E
:104570000E025170218C09BA090C51801FFA80FC7F
:10458000BCF1F10F7AD894F8301059B1218D043074
:104590000A0A0EF80C200CEB0E025170618D09BA5C
:1045A000090C51801FFA80FCBCF1F10F66D894F819
:1045B0003A1059B1618E04300A0A0EF80C200CEB47
:1045C0000E025170A18E09BA090C51801FFA80FCAD
:1045D000BCF1F10F52D894F8441059B1A18F0430B6
:1045E0000A0A0EF80C200CEB0E025170E18F09BA8A
:1045F000090C51801FFA80FCBCF1F10F3ED894F8F1
:104600004E1069B1B4F8461004300A0A0EF80C20B6
:104610000CEB0E025170B4F8481009BA090C518025
:104620001FFA80FCBCF1F10F28D894F8581069B13A
:10463000B4F8501004300A0A0EF80C200CEB0E02ED
:104640005170B4F8521009BA090C51801FFA80FC5D
:10465000BCF1F10F12D894F8621069B1B4F85A1095
:1046600004300A0A0EF80C200CEB0E025170B4F85C
:104670005C1009BA090C51801FFA80FC411E8BB2F4
:10468000012B1DD10023002611F0010140F08E8086
:10469000C0E000BF40F20000C2F200000078D1B2DA
:1046A00088427EF4DFA840F20000C2F200004078A9
:1046B0009AF8021088427EF4D5A8FEF7DFB800BF52
:1046C00023F001035B4200266FF001070EEB0705A4
:1046D000EA782C79724056B25500002E48BF8BEA1A
:1046E00042056AB26E00002A48BF8BEA450672B2E4
:1046F0007500002A48BF8BEA46056AB26E00002AA0
:1047000048BF8BEA450672B27500002A48BF8BEAA3
:1047100046056AB26E00002A48BF8BEA450672B2AF
:104720007500002A48BF8BEA46056AB26E00002A6F
:1047300048BF8BEA450684EA060256B25500002EB1
:1047400048BF8BEA42056AB26E00002A48BF8BEA76
:10475000450672B27500002A48BF8BEA46056AB268
:104760006E00002A48BF8BEA450672B27500002A27
:1047700048BF8BEA46056AB26E00002A48BF8BEA42
:10478000450672B27500002A48BF8BEA46056AB238
:1047900002376E00002A03EB070248BF8BEA45068A
:1047A000023293D1BB1C11F0010133D00EEB030197
:1047B000497871404AB24B00002A48BF8BEA410356
:1047C00059B25A00002948BF8BEA430251B2530044
:1047D000002948BF8BEA420359B25A00002948BF5A
:1047E0008BEA430251B25300002948BF8BEA4203CF
:1047F00059B25A00002948BF8BEA430251B2530014
:10480000002948BF8BEA420359B25E00002948BF25
:104810008BEA4306411C023089B255220EF80C6027
:104820000EF8012082B240F21830C2F20000714648
:10483000FDF792FA40F234170028C2F200077EF426
:104840001DA801208AF80000FEF718B89AF80100A8
:1048500001287EF403A8BAF814009AF80A300090F0
:104860003846802178A201270197FBF7B1FC049913
:104870009AF8000040F23414C2F2000400287DF4DB
:10488000EDAF2046FBF734FD87B2642F4FF0640094
:1048900040F2605C28BF0746C2F2000C40F2AA302A
:1048A000ACF80000F7B10CF1020021463A46FBF7E4
:1048B0003EFD40F2605CC2F2000CB81C07F1011131
:1048C0008AB2012A01F0010113D100220027002938
:1048D0003DF4B0AF82E000BF01208AF80000FDF790
:1048E000BDBF00BF022001218AB2012A01F00101EF
:1048F000EBD08A1A00276FF0010300BF0CEB030610
:10490000F57836796F407DB27C00002D48BF8BEA88
:10491000470467B26500002F48BF8BEA44056FB2B9
:104920006C00002F48BF8BEA450467B26500002F7A
:1049300048BF8BEA44056FB26C00002F48BF8BEA7A
:10494000450467B26500002F48BF8BEA44056FB28B
:104950006C00002F48BF8BEA450467B26500002F4A
:1049600048BF8BEA440586EA05077EB27D00002E2B
:1049700048BF8BEA47056FB26E00002F48BF8BEA35
:10498000450677B27500002F48BF8BEA46056FB227
:104990006E00002F48BF8BEA450677B27500002FE6
:1049A00048BF8BEA46056FB26E00002F48BF8BEA06
:1049B000450677B27500002F48BF8BEA46056EB2F8
:1049C00002336F00002E02EB030648BF8BEA450757
:1049D000023693D19A1C00293DF42CAF0CEB020156
:1049E000497879404AB24B00002A48BF8BEA41031C
:1049F00059B25A00002948BF8BEA430251B2530012
:104A0000002948BF8BEA420359B25A00002948BF27
:104A10008BEA430251B25300002948BF8BEA42039C
:104A200059B25A00002948BF8BEA430251B25300E1
:104A3000002948BF8BEA420359B25F00002948BFF2
:104A40008BEA4307FDF7F6BE48503A256420533AF7
:104A50002564204C3A2564002DE9F04381B040F2F2
:104A60007008C2F2000898F8001019B101B0BDE852
:104A7000F08300BF0446FBF73BFC80B240F260517C
:104A80006428C2F2000140F2AA3228BF64200A80E2
:104A900060B1421E032A00F0030C80F08B800220DC
:104AA0000023BCF1000F40F09D80ABE04FF0020C02
:104AB00001204FF0020E82B2012A00F0010900F03D
:104AC000AD8022F00100444200276FF00105072667
:104AD0004819C378027983EA070043B24700002BE4
:104AE00048BF86EA400778B27B00002848BF86EAC4
:104AF000470358B25F00002848BF86EA430778B2F0
:104B00007B00002848BF86EA470358B25F000028B0
:104B100048BF86EA430778B27B00002848BF86EA90
:104B2000470358B25F00002848BF86EA430778B2BF
:104B30007B00002848BF86EA470382EA030042B2AE
:104B40004300002A48BF86EA400358B25A000028B2
:104B500048BF86EA430250B25300002848BF86EAA5
:104B6000420358B25A00002848BF86EA430250B2B6
:104B70005300002848BF86EA420358B25A00002872
:104B800048BF86EA430250B25300002848BF86EA75
:104B9000420358B202355F00002804EB050048BF0D
:104BA00086EA4307023093D1A81CB9F1000F7CD0EC
:104BB00039E000BF00F07C00671C0023FE1816F8E7
:104BC000015CCA189570FD5C0433D5707578984205
:104BD0001571B6785671F1D103F1020E7046BCF131
:104BE000000F0FD0E75C00F1010EBCF1010F0F5474
:104BF00008D01F197E78831CBCF1020F01F80E60EB
:104C000046D19E46AEF10100020449D01FFA8EFC47
:104C100082B2012A00F001097FF453AF002000277F
:104C2000B9F1000F41D0084440780722784043B2E0
:104C30004400002B48BF82EA400460B263000028B1
:104C400048BF82EA440358B25C00002848BF82EAA9
:104C5000430460B26300002848BF82EA440358B2AC
:104C60005C00002848BF82EA430460B26300002869
:104C700048BF82EA440358B25C00002848BF82EA79
:104C8000430460B26700002848BF82EA44070CE092
:104C9000BA7800F1030ECA54AEF101000204B5D196
:104CA00000274FF0010C4FF0010E0EF1010080B211
:104CB000552301F80C700EF102020B5440F218302B
:104CC00092B2C2F20000FDF747F8002804BF0120AD
:104CD00088F8000001B0BDE8F0830000B0B540F6F0
:104CE0000004C4F201040546C20920464FF40071D5
:104CF000FCF716F820464FF480710122FCF710F8FB
:104D000020464FF480710022FCF70AF8C5F38012A8
:104D100020464FF40071FCF703F820464FF48071F1
:104D20000122FBF7FDFF20464FF480710022FBF7C4
:104D3000F7FFC5F3401220464FF40071FBF7F0FF78
:104D400020464FF480710122FBF7EAFF20464FF422
:104D500080710022FBF7E4FFC5F3001220464FF4F8
:104D60000071FBF7DDFF20464FF480710122FBF755
:104D7000D7FF20464FF480710022FBF7D1FFC5F327
:104D8000C00220464FF40071FBF7CAFF20464FF4E3
:104D900080710122FBF7C4FF20464FF4807100228E
:104DA000FBF7BEFFC5F3800220464FF40071FBF70E
:104DB000B7FF20464FF480710122FBF7B1FF204678
:104DC0004FF480710022FBF7ABFFC5F34002204691
:104DD0004FF40071FBF7A4FF20464FF480710122CD
:104DE000FBF79EFF20464FF480710022FBF798FFEF
:104DF00005F0010220464FF40071FBF791FF2046B9
:104E00004FF480710122FBF78BFF20464FF4807135
:104E10000022BDE8B040FBF783BF000000000000A7
:104E20000000010203040607080900000000010257
:104E30000304010202030405060708090A0B0C0D0E
:104E40000E0F10103F065B4F666D7D077F6F0000F1
:104E5000704E00080000002010000000280100082B
:104E6000804E000810000020580C0000440100088B
:104E7000FFFF0000010000001000000000127A0097
:04000005080000ED02
:00000001FF
