:020000040800F2
:1000000050080020990100086929000861290008AA
:100010006529000881060008852E00080000000000
:10002000000000000000000000000000712900082E
:100030009D060008000000006D290008F52B00084F
:10004000B3010008B3010008B3010008B3010008C0
:10005000B3010008B3010008B3010008B3010008B0
:10006000B3010008B3010008B301000885060008C9
:10007000B3010008B3010008B3010008B301000890
:10008000B301000891060008F5040008B301000858
:10009000B3010008B3010008B3010008B301000870
:1000A000B3010008B3010008B3010008B301000860
:1000B000B3010008B3010008B3010008B301000850
:1000C000B3010008B3010008B3010008B301000840
:1000D000B3010008B3010008792E0008B30100083D
:1000E000A1060008B3010008B301000800F002F8FF
:1000F00000F042F80AA090E8000C82448344AAF180
:100100000107DA4501D100F037F8AFF2090EBAE87D
:100110000F0013F0010F18BFFB1A43F0010318473B
:10012000603B0000803B0000103A24BF78C878C1D3
:10013000FAD8520724BF30C830C144BF04680C60ED
:10014000704700000023002400250026103A28BF35
:1001500078C1FBD8520728BF30C148BF0B60704739
:10016000642900F05980752900F0568000207047FE
:100170001FB51FBD10B510BD00F082F91146FFF785
:10018000F7FF02F081FE00F0A0F903B4FFF7F2FFE1
:1001900003BC00F0A7F90000094880470948004760
:1001A000FEE7FEE7FEE7FEE7FEE7FEE7FEE7FEE727
:1001B000FEE7FEE704480549054A064B7047000084
:1001C000692D0008ED0000085002002050080020B2
:1001D00050040020500400200FB41CB50C0007AAE6
:1001E000009007D04142A14202D32044401E01E0CA
:1001F0004FF0FF30074B7B4469460190069800F0B2
:1002000024F90021002C01D0009A11701CBC5DF86B
:1002100014FB0000770200002DE9F041064600249F
:1002200010687529314616A510D0AFF3008000285C
:1002300002DA404213A507E031688A0701D512A50A
:1002400002E0490704D511A5012401E0AFF30080C5
:1002500000210A2206F1240709E0B0FBF2FCB0FB02
:10026000F2F302FB1C00303078541846491C002879
:10027000F3D123462A463046BDE8F04100F086B867
:10028000000000002D0000002B00000020000000F6
:100290002DE9F0410F460546002028622846E9680E
:1002A000884770B3252805D0D5E901219047286AF1
:1002B000401CF2E7E9682846002688476C28044677
:1002C0000AD0682C08D04C2C35D06A2C31D0742C34
:1002D00031D07A2C2FD016E0E968064628468847A8
:1002E000B042044608D16C2E23D04FF480662846D5
:1002F000E9688847044606E06C2E03D04FF4807608
:1003000001E01EE04026E4B1A4F14100192802D822
:10031000203446F400663A46214628462E60FFF710
:100320001FFF60B1012808D0FF1D27F0070708371D
:10033000B4E78026DBE70026D9E73F1DAEE720467D
:10034000B2E7286ABDE8F08110B5431C02E010F85E
:10035000011B71B18107FAD14FF0013202C88C1A2A
:100360008C4314EAC211F9D0C01A0A0603D0C01E89
:1003700010BDC01A10BD0A0401D0801E10BD0902B4
:10038000FCD0401E10BD7047704770472DE9F04704
:100390000D4699469246044600F1240801688806F5
:1003A00004D5E06921F01001216000E00120A8429D
:1003B00001DD471B00E00027A1697A1902EB090063
:1003C000081AA0612078C00602D42046AFF300804E
:1003D000002608E0D4E901211AF806009047206AB7
:1003E000401C761C20624E45F4DB2078C0060AD5FE
:1003F0002046AFF3008006E0D4E901213020904789
:10040000206A401C2062381EA7F10107F4DC07E0D7
:10041000D4E9012118F805009047206A401C2062A9
:10042000281EA5F10105F3DC2046AFF300802078FB
:10043000000602D50220BDE8F0870120FBE700009E
:1004400001694A1C02610878704700B58FB0CDE998
:1004500001310021059105497944CDE90310114688
:100460006846FFF715FF0FB000BD0000E5FFFFFF76
:10047000D1E900239A4202D2531C0B6010707047DE
:10048000754600F02BF8AE4605006946534620F04D
:100490000700854618B020B5FFF78CFEBDE8204068
:1004A0004FF000064FF000074FF000084FF0000B30
:1004B000AC46ACE8C009ACE8C009ACE8C009ACE89F
:1004C000C00921F007018D46704710B50446AFF30F
:1004D00000802046BDE81040FFF757BE0048704737
:1004E0001000002001491820ABBEFEE726000200E4
:1004F0007047000040F28000C2F2000000F070BAC5
:10050000B0B5044600688168C90709D0816821F048
:100510000101816000F096FF21688968C90701D157
:100520000020B0BD054602E08068C007F8D000F0AA
:1005300089FF411B20680329F6D38168C907F3D0DE
:10054000A06A40F01000A062E06A40F00100E062A2
:100550000120B0BD0146406A826A12F0500F03D0FC
:10056000006A026B084610470168826A42F4007212
:100570008262896801F46021B1F5602F01D1017BAD
:1005800011B100F011BA00BF816A21F4807181625B
:10059000816AC90448BF00F007BA816A41F00101CD
:1005A000816200F001BA0000406A816A41F04001B6
:1005B0008162C16A41F00401C16200F007BA000023
:1005C000406A00F001BA0000B0B582B004460020D5
:1005D000019021688A68D2074FD1886840F00100F5
:1005E000886040F20800C2F2000000684DF68361A6
:1005F000C4F21B31A0FB0101880C01900198A0B14D
:10060000019801380190019878B101980138019062
:10061000019850B1019801380190019828B10198D2
:100620000138019001980028EAD100F00BFF216801
:100630008968C9071CD1054603E000BF8068C00770
:100640001AD100F0FFFE411B20680329F6D3816810
:10065000C907F3D1A06A40F01000A062E06A40F040
:100660000100E062002084F82400012002B0B0BD47
:10067000002002B0B0BD00BF002002B0B0BD00003D
:10068000FEE7000040F2B000C2F2000000F034BC0F
:1006900040F2F400C2F2000000F02EBC70470000EF
:1006A0004FF4005000F0A0BD82B048F2A06540F6C3
:1006B0000004C0F20105C4F201040026EFF310802B
:1006C00072B600BF2046202100F0AEFE01960198D0
:1006D000A842F7D20198013001900198A842F1D2C6
:1006E0000198013001900198A842EBD201980130A5
:1006F00001900198A842E5D201980130019001983B
:10070000A842E7D3DEE7000070B582B004460020BF
:10071000019094F82400012804D10225284602B053
:1007200070BD00BF012084F824002046FFF7E8FEDA
:100730002046FFF749FF0546002867D1A06A41F22D
:10074000021188430230A06240F20800C2F20000A9
:100750000668022000F034FFB6FBF0F04000019084
:100760000198A0B1019801380190019878B10198E1
:1007700001380190019850B1019801380190019819
:1007800028B101980138019001980028EAD1206829
:10079000816841F00801816000F054FE21688A6898
:1007A00012070DD4886840F00400886000F04AFE0B
:1007B00021688968490713D401206FF0030121E003
:1007C000064602E088680007ECD500F03BFE801B7F
:1007D00021680B28F6D388680007F3D50EE000BF28
:1007E000064602E080684007E6D500F02BFE811B3C
:1007F00020680B29F6D381684907F3D5012510201D
:100800006FF01201A26A11400843A062002084F830
:100810002400284602B070BD7047000010B581B0BA
:100820000022009290F82420012A03D102210846D8
:1008300001B010BD4B680122062B80F8242017D888
:10084000D0F800C003EB83035A1F1F23DCF834E009
:1008500003FA02F40B682EEA040403FA02F22243BC
:10086000CCF83420092B03EB430219D936E000BF42
:10087000D0F800C00C2B03EB83021DD8233A1F23B2
:10088000DCF830E003FA02F40B682EEA040403FA01
:1008900002F22243CCF83020092B03EB43021DD88F
:1008A000DCF81030072489689440A3439140194331
:1008B000CCF81010002130E0413A1F23DCF82CE086
:1008C00003FA02F40B682EEA040403FA02F222434C
:1008D000CCF82C20092B03EB4302E1D9DCF80CE027
:1008E0001E3A0724896894402EEA0404914023F0BC
:1008F00001022143102ACCF80C100DD142F208411C
:10090000C4F20101A1F1080294450DD0816A41F0C1
:1009100020018162012100E00021002280F82420D2
:10092000084601B010BD00BF0A68120230D40A6840
:10093000102B42F400020A602CD140F20801C2F2EE
:10094000000109684DF68362C4F21B32A1FB02125A
:10095000910C01EB8101490000910099E1B10099EE
:10096000013900910099C9B10099013900910099AC
:10097000B1B1009901390091009999B100990139FB
:100980000091009900294FF00001E8D1C5E700BFB0
:100990000021C2E70021C0E70021BEE70021BCE73B
:1009A0000021BAE70021B8E7006842F20041C4F232
:1009B0000101884218BF704740F27000C2F2000087
:1009C00081680131816070477047000040F270001B
:1009D000C2F200000121017070470000806A704778
:1009E00070B50446006805684668B10627D515F05D
:1009F000020124D0A16AC90603D4A16A41F400719E
:100A0000A162816801F46021B1F5602F10D1217BD2
:100A100071B9416821F020014160A06A20F4807022
:100A2000A062A06AC00403D4A06A40F00100A062E2
:100A30002046FFF7B9FF20686FF012010160310610
:100A400033D515F0040130D0A16AC90603D4A16AD8
:100A500041F40051A162816801F4E041B1F5E04F39
:100A600010D1416821F080014160A06A20F48050DB
:100A7000A062A06AC00511D4A06A40F00100A06283
:100A80000CE000BF4168490508D4816801F4602189
:100A9000B1F5602F02D1217B0029E2D02046FFF77B
:100AA000BBFE20686FF00C01016070060ED515F0DA
:100AB000010008BF70BDA06A40F48030A0622046EB
:100AC00000F0B4F820686FF00101016070BD000013
:100AD000B0B5002800F0A8800446806A20B12168E3
:100AE0008868C0070BD114E00020E06284F824007D
:100AF000204600F09DF821688868C00709D0886802
:100B000020F00100886000F09DFC21688A68D2070F
:100B100026D1A06AC0063AD4A06A41F202129043DC
:100B20000230A062E069D4E9013240EA030C531EAE
:100B3000B3FA83F35D091346B2F5807F18BF2B0229
:100B4000207D257B01284CEA450030D135B3A56ACC
:100B500045F02005A562E56A45F00105E56226E05D
:100B6000054602E08868C007D3D000F06BFC401B4C
:100B700021680328F6D38868C007F3D0A06A40F044
:100B80001000A062E06A40F00100E062A06AA06A82
:100B900040F01000A0620120B0BD00BFD4F818C022
:100BA0004EF60005CFF6FF7505EB4C352B434D682F
:100BB000B2F5807F25F4694543EA05034B608B68F5
:100BC0004FF2FD75CFF6E17503EA050343EA000332
:100BD0008B6001D0012A07D122690023CFF6F07380
:100BE00003EB025201E000BF0022CB6A23F4700342
:100BF0001A43CA62896840F6FE62CFF61F7211403E
:100C0000814207D10020E062A16A012262F3010162
:100C1000A162B0BDA06A40F0100020F00200A06206
:100C2000E06A40F00100E0620120B0BD70470000C2
:100C300070B586B0044640F60000C4F20100216899
:100C400000F5E052002691420596049602D006B0C7
:100C500070BD00BF41F21801C4F202010A6842F4FB
:100C600000720A600A6802F400720192019A0A682E
:100C700042F004020A60096801F00401019101993F
:100C80000321CDE9021102A900F0BAFA40F2B00541
:100C90000820C2F20005C4F202004FF48072C5E9D8
:100CA000000605F1100080214FF480634CC02846F7
:100CB000C5E90261EE6100F0EFF9002818BFFFF707
:100CC000F3FC12200021002225626C6200F03CFC43
:100CD000122000F025FC06B070BD000070B515466E
:100CE0000446006842F60002C4F2010290420E4639
:100CF00005D042F20041C4F20101884209D142F21A
:100D00000440C4F20100006810F4702F1CBF0120E1
:100D100070BD94F82400012804BF022070BD01209A
:100D200084F824002046FFF74FFC18B1002184F816
:100D3000241070BD42F204402168A26AC4F201008E
:100D400040F601739A4300F57F7302F58072994271
:100D5000A26243D0A06A20F48010A06248684005D7
:100D600004D5A06A012262F30D30A062A26A0020BD
:100D7000D2044FF0000244BFE26A22F00602E262AF
:100D800084F82400206A40F25552C0F6000240F276
:100D9000C15340F2A95C00F1280EC0F60003C0F672
:100DA000000C8EE80C106FF002020A608A682B4675
:100DB00042F480728A604C31324600F0B1F920680A
:100DC000816801F460228168B2F5602F0CBF41F4A4
:100DD000A00141F480118160002070BD026812F40E
:100DE000702FB7D0A26A42F48012A2620068400558
:100DF000BCD5B6E7014690F82100022816D1086854
:100E0000D1E90FC3026822F00E020260026822F0EC
:100E100001020260012000FA03F2CCF8042081F8FC
:100E200021000020002281F82020704704208863E0
:100E30000120002281F820207047000080B590F842
:100E40002110022924D10268116821F00E011160DD
:100E50002F211368C4F202018A4240F20401C4F255
:100E6000020123F00103136016DD3023C4F20203F4
:100E70009A421DD04423C4F202039A421CD0582344
:100E8000C4F202039A421DD14FF4803322E000BF26
:100E900004218163012080BD0823C4F202039A4229
:100EA0000ED01C23C4F202039A420BD1102311E08E
:100EB0004FF480730EE000BF4FF480530AE000BF90
:100EC000012307E001F1680C4FF08073624508BF11
:100ED0004FF480130B60012180F82110426B002138
:100EE00080F820100AB190470021084680BD00001C
:100EF00090F821007047000010B5D0E90FCE0168CE
:100F0000DCF800300A6823FA0EF35C072AD512F0E9
:100F1000040427D00A68920603D40A6822F0040267
:100F20000A602F22C4F20202914240F20402C4F28B
:100F300002025BDD3023C4F20203994272D04423E3
:100F4000C4F20203994273D05823C4F202039942B7
:100F500040F07A804FF480231360C16A002940F08A
:100F600098806FE09C0727D512F0020424D00A680D
:100F7000920606D40A6822F00A020A60012280F86A
:100F800021202F22C4F20202914240F20402C4F254
:100F900002023BDD3023C4F20203994260D04423B5
:100FA000C4F2020399425FD05823C4F2020399426B
:100FB00060D14FF4003365E01B0743D512F00802FF
:100FC00008BF10BD0A6822F00E020A60012101FA72
:100FD0000EF2CCF80420816380F82110016B00220E
:100FE000002980F8202054D12CE000BF0823C4F24F
:100FF0000203994222D01C23C4F20203994223D156
:1010000040231360C16A002943D11BE00823C4F2C6
:10101000020399422CD01C23C4F20203994229D125
:1010200020232FE04FF480631360C16A89BB09E07D
:101030004FF480431360C16A59BB03E0042313607B
:10104000C16A31BB10BD00BF02F168044FF080637C
:10105000A14208BF4FF480031360C16AC9B9F1E728
:101060004FF400730EE000BF4FF400530AE000BFDE
:10107000022307E002F168044FF00073A14208BFA9
:101080004FF400131360816A0022002980F82020A9
:10109000D8D0BDE810400847014600284FF00100B5
:1010A00008BF70472DE9F043D1F800C04FF6F87340
:1010B000CBF6FD734CF6CD426344CCF6CC42A3FB99
:1010C00002236FF0030707EA93030027C4F2020725
:1010D00001F10C09C1E90F730223D1E9012E99E84E
:1010E0007002D1F81C8081F82130DCF8003043F622
:1010F000F077BB431A4342EA0E0222432A433243AB
:1011000042EA090242EA0802CCF8002000228A637F
:1011100081F8210081F820200020BDE8F0437047CD
:10112000F0B590F820C0BCF1010F32D04FF0010EA5
:1011300080F820E090F821C0BCF1010F26D14FF0DB
:10114000020C80F821C04FF0000CC0F838C0D0E984
:1011500000C4C56AC66BDCF80070102C27F00107CC
:10116000CCF80070006C0EFA00F070600846CCF805
:10117000043004BF10460A46CCF80800CCF80C2016
:10118000DCF8000045B140F00E000DE0002180F8D1
:1011900020100220F0BD00BF20F00400CCF80000B9
:1011A000DCF8000040F00A00CCF80000DCF8000099
:1011B00040F00100CCF800000020F0BDB0B50446BE
:1011C00000F040F9054640F20000C2F2000000784D
:1011D000611C18BF044400BF00F034F9401BA0425A
:1011E000FAD3B0BD7047000040F21441C4F20101CF
:1011F0000A68024214BF08607047FFF7F3BF00009F
:101200002DE9F04F82B00E68002E00F0038141F20C
:101210000042C4F20102042340F2004E904208BF93
:1012200003234FF6FF7CC4F2010E00930024012338
:10123000C1F2100C4FF0000A4FF0000949E000BF66
:10124000012704F00C030F229A402BEA020207FA4E
:1012500003F34FEA9A051A4346F82520D1F804B063
:1012600040F20C455FEACB22DEF8082054BF22EAA8
:10127000080242EA0802C4F20105CEF808202A68F2
:101280005FEA8B2354BF22EA080242EA08022A607E
:101290005FEA8B33DEF8042054BF22EA080242EAF8
:1012A00008025FEACB33CEF80420DEF800204FF0CE
:1012B000010354BF22EA080242EA0802CEF80020E5
:1012C0000E680AF1010A36FA0AF204F1040400F089
:1012D000A18003FA0AF816EA080FF1D04E686645B5
:1012E00012DC122E56D8DFE806F0350B454955556D
:1012F00055555555555555555555554D510000BFEA
:10130000D1F80C9046E000BF4FF6FF72C1F2210207
:1013100096420FDC0022C1F2110296421AD000223E
:10132000C1F21202964215D00022C1F22102964269
:1013300010D02FE00022C1F2220296420AD00022F1
:10134000C1F23102964205D00022C1F23202964229
:1013500020D100BF8A684AB1012A14BFC0F81480A6
:10136000C0F810804FF0080914E000BF4FF00409E6
:1013700010E000BFCA6802F108090BE04FF0000955
:1013800008E000BFCA6802F1040903E0CA6802F17C
:101390000C0900BF22460646BAF1080F24BF203AC6
:1013A000043637680F25954027EA050509FA02F249
:1013B0002A433260CA79D2067FF582AF41F2180320
:1013C000C4F202031A68AEF57E7642F001021A609A
:1013D0001A6802F001020192019A2AF0030256F8FB
:1013E00002B040F60002C4F20102904210D040F672
:1013F0000042C4F2010290423FF422AF41F20002E7
:10140000C4F20102009F904208BF022719E700BF03
:10141000002716E702B0BDE8F08F000080680840A2
:1014200018BF012070470000C26802EA010391431F
:1014300041EA034101617047002A08BF09040161C4
:101440007047000040F24820C2F200000068704778
:1014500040F2000040F24821C2F20000C2F2000156
:1014600000780A68104408607047000080B542F2B6
:101470000000C4F20200016841F010010160032085
:1014800000F08EF8002000F005F800F027F80020AA
:1014900080BD000070B540F20006C2F2000640F2C6
:1014A00008013278C2F200014FF47A730968B3FB85
:1014B000F2F20446B1FBF2F1084600F061FC0F2C99
:1014C0004FF0010508D838B94FF0FF30214600220F
:1014D000002500F039F87460284670BD82B041F2F2
:1014E0001800C4F202000168042241F00101016009
:1014F000016801F0010101910199416841F08051B9
:101500004160406800F08050009000980420C4F2D0
:101510000100016862F31A61016002B070470000C7
:10152000002848BF7047C1B200F01F00012202FA34
:1015300000F04EF20012CEF2000242EAD10121F098
:10154000030108607047000010B54EF60C5CCEF247
:10155000000CDCF80030C3F3022E8EF00704042CDC
:1015600028BF0424BEF103034FF0FF3E0EFA04F43B
:1015700038BF0023A14399400EFA03F39A43114365
:1015800000F00F0200F160430901043A03F56443DF
:101590006244002848BF02F10C03197010BD00001E
:1015A0004EF60C51CEF200010A684FF6FF031A40C6
:1015B00060F30A2242F0806040F0FD7008607047DE
:1015C00080B5012818D0022836D0102832D141F237
:1015D0000401C4F202010A6851F8040CC00129D5C3
:1015E000C2F383402DA3185CD2033DD440F6001211
:1015F000C0F23D02504343E041F20400C4F2020055
:10160000C16940F202320A40B2F5817F04BF4FF453
:10161000004080BD01F44071B1F5407F1CD0B1F5B0
:10162000007F07D1006A49F64041800701EAE07077
:1016300080BD00BF002080BD00F0B4F941F204017C
:10164000C4F2020109680222C1F3813102EB4101B7
:10165000B0FBF1F080BD00BF50F8040C4FF2244104
:10166000800301EAE07080BD0A6810A3C2F3404223
:101670009A5C41F20023C0F27A03B3FBF2F25043CA
:101680000968490248BF80BD4AF6AB214000CAF64E
:10169000AA21A0FB0101480880BD00BF0203040588
:1016A000060708090A0B0C0D0E0F101001020000AE
:1016B0002DE9F04182B00446007841F21C06C007D3
:1016C000C4F202064AD0306810F0805808D1306861
:1016D00040F080503060306800F0805001900198F8
:1016E00047F20007C4F200073868C00512D4386812
:1016F00040F480703860FFF7A5FE05463868C005E5
:1017000008D4FFF79FFE401B6428F7D9032002B0DE
:10171000BDE8F081706810F4407012D0616801F487
:10172000407188420DD0706840F24042C4F24222BB
:10173000012320F4407113600023C007136071601F
:101740002AD17068616820F440700843B8F1000F36
:10175000706003D1306820F08050306020688107CD
:1017600007D556F8181CA26821F44041114346F8E9
:10177000181CC00604D4002002B0BDE8F08100BFF0
:1017800056F8180CE16820F48000084346F8180C5D
:10179000002002B0BDE8F081FFF754FE054641F29B
:1017A000883700BF70688007CBD4FFF74BFE401B23
:1017B000B8424FF00300F5D9EBE700002DE9F04304
:1017C00081B0002800F0858042F20008C4F20208CF
:1017D0000446D8F800000D4600F0070088420CD2FD
:1017E000D8F8000020F007002843C8F80000D8F817
:1017F000000000F00700A8426BD1206841F2040904
:101800008107C4F2020917D5410705D5D9F80010A0
:1018100041F4E061C9F80010010705D5D9F80010BE
:1018200041F46051C9F80010D9F80010A26821F005
:10183000F0011143C9F80010C00741D1D8F80000E9
:1018400000F00700A8420CD9D8F8000020F00700EB
:101850002843C8F80000D8F8000000F00700A842AC
:1018600037D12068410707D5D9F80010E26821F484
:10187000E0611143C9F80010000708D5D9F800004D
:10188000216920F4605040EAC100C9F80000D9F88D
:10189000002002F00C00082841F20020C0F27A007B
:1018A00050D143F63223C2F38341C0F60003595CA2
:1018B000D2033BD440F60010C0F23D00484341E063
:1018C000606802280AD001282AD159F8041C89032B
:1018D00008D4012001B0BDE8F08300BF59F8041C12
:1018E0008901F6D5D9F8001021F003010843C9F8A1
:1018F0000000FFF7A7FD064641F28837D9F800003F
:10190000616800F00C00B0EB810F97D0FFF79AFDF3
:10191000801BB842F2D9032001B0BDE8F08300BFBC
:1019200059F8041C8907D4D5DCE700BFD9F800209A
:1019300043F63023C2F34042C0F600039A5C4843AA
:10194000B0FBF2F0D9F8001043F61822C1F30311EE
:10195000C0F60002515C40F2080220FA01F140F2A8
:101960000400C2F200000068C2F200021160FFF73A
:1019700091FD002001B0BDE8F083000040F20800B6
:1019800041F20401C2F20000C4F2020100680968D9
:1019900043F62822C1F30221C0F60002515CC84080
:1019A0007047000040F2080041F20401C2F200005A
:1019B000C4F202010068096843F62822C1F3C2217B
:1019C000C0F60002515CC840704700002DE9F041AC
:1019D00082B0002868D00446007841F20006C007B3
:1019E000C4F2020625D0706800F00C0004281BD059
:1019F000706800F00C00082802D17068C00313D48E
:101A00006068002800F06881B0F5A02F00F07C81AC
:101A1000B0F5803F00F07C81306820F48030306089
:101A2000306820F4802076E13068800301D560685A
:101A3000D0B32078800718D5706810F00C0F07D04D
:101A4000706800F00C0008286ED17068C0036BD479
:101A50003068800702D52069012825D13068616986
:101A600020F0F80040EAC1003060207800071FD461
:101A70002078400732D4E56995B1706800F00C0019
:101A8000082840F08F80012D0ED07068216A00F484
:101A900080328A4208D1616A00F47010884203D112
:101AA000002002B0BDE8F081012002B0BDE8F08165
:101AB000A069002862D00020C4F242200121C0F8B1
:101AC0008014FFF7BFFC0546706A800700F18C8028
:101AD000FFF7B8FC401B0228F6D92AE1F06910F0A4
:101AE000805808D1F06940F08050F061F06900F052
:101AF00080500090009847F20007C4F20007386851
:101B0000C00529D4386840F480703860FFF79AFC2B
:101B1000054600BF3868C0051ED4FFF793FC401B84
:101B20006428F7D905E100BF2069002840F20000D1
:101B3000C4F2422000F0828001210160FFF782FCA4
:101B4000054600BF306880073FF588AFFFF77AFC95
:101B5000401B0228F6D9ECE0E068002800F0808005
:101B6000052800F09780012800F09880306A20F066
:101B700001003062306A20F0040092E00020C4F2DC
:101B800042200021C0F88014FFF75CFC054600BF2E
:101B9000706A80077FF56CAFFFF754FC401B02288A
:101BA000F6D9C6E00027C4F2422700203866FFF7C6
:101BB00049FC022D05460BD13068800140F1BE8002
:101BC000FFF740FC401B02284FF00300F4D968E700
:101BD000306880017FF564AFFFF734FC401B0228BA
:101BE0004FF00300F4D95CE740F20800C2F20000B5
:101BF000006844F6D351C1F26201A0FB0101480A1A
:101C0000019000BF00BF0198411E002801913FF4E0
:101C10002FAF00BF0198411E002801913FF428AF6B
:101C200000BF0198411E002801913FF421AF00BF81
:101C30000198411E00280191E4D119E700210160BB
:101C4000FFF700FC054600BF306880077FF50DAF49
:101C5000FFF7F8FB401B02284FF00300F4D920E700
:101C6000306A20F001003062306A20F004003062F7
:101C7000FFF7E8FB054641F2883700BF306A80076E
:101C800020D5FFF7DFFB401BB8424FF00300F5D92A
:101C900007E700BF306A40F004003062306A40F06D
:101CA00001003062FFF7CEFB054641F2883700BFE6
:101CB000306A800706D4FFF7C5FB401BB842F7D94E
:101CC00037E000BFB8F1000F7FF4D5AEF06920F027
:101CD0008050F061CFE600BF306820F48030306083
:101CE000306820F480203060FFF7ACFB054600BF71
:101CF000306880037FF59DAEFFF7A4FB401B64288E
:101D00004FF00300F4D9CCE6306840F48020306016
:101D1000306840F480303060FFF794FB054600BF28
:101D2000306880033FF585AEFFF78CFB401B6428CD
:101D3000F6D9032002B0BDE8F08100BF206AB0F5FB
:101D4000803F05D17168A26821F4003111437160B0
:101D50007168626A21F474111143084370600120B4
:101D60003866FFF76FFB0446306880013FF598AE98
:101D7000FFF768FB001B02284FF00300F4D990E640
:101D8000411E0020B0EB116F1CBF012070474EF2C6
:101D90001002CEF2000251604EF62351CEF2000145
:101DA000F0230B70072190601160704710B590F818
:101DB0003C20012A4FF0020233D080F83D20026817
:101DC000D2F804E0D2F808C00C682EF07003234368
:101DD00040F2FF74C4F20004A24253600ADCB2F184
:101DE000804F13D040F20043C4F200039A420DD05A
:101DF00011E000BF42F60043C4F201039A4205D04D
:101E000040F60003C4F200039A4204D149682CF062
:101E10008003194391600121002280F83D1080F871
:101E20003C20104610BD0000002804BF0120704770
:101E300010B5044690F83D0028B9002084F83C0015
:101E4000204600F06FF8022084F83D00206840F240
:101E5000FF730268C4F2000342F6004C9842C4F2D9
:101E6000010C15DCB0F1804F1AD040F20041C4F2F1
:101E70000001884214D0984218DCB0F1804F1DD088
:101E800040F20041C4F20001884217D01AE000BFBE
:101E9000604505D040F60001C4F200018842EAD155
:101EA000A16822F070020A439842E6DD604505D041
:101EB00040F60001C4F20001884203D1216922F4F6
:101EC00040720A43A36922F08001D4F804E0E2687A
:101ED000194360450160C262C0F828E002D161691F
:101EE000CCF83010012141610269D20703D00269A8
:101EF00022F001020261002084F8461084F83E10AE
:101F000084F83F1084F8401084F8411084F842109F
:101F100084F8431084F8441084F8451084F83D1088
:101F200010BD000081B00068B0F1804F02D001B058
:101F3000704700BF41F21C00C4F20200016841F08A
:101F400001010160006800F001000090009801B0FC
:101F50007047000080B590F83C20012A4FF0020243
:101F600000F0C28080F83D20D0F800C04FF67772B4
:101F7000DCF8083023EA0202CCF808200B684F2B6B
:101F800028DC1F2B44DD202B45D0302B43D0402BA9
:101F900040F0AC80D1F804E0C968DCF82030DCF80F
:101FA000202022F00102CCF82020DCF8182022F0BA
:101FB000F00242EA011123F00A0242EA0E02CCF8D2
:101FC0001810CCF82020DCF8081041F0470121F06F
:101FD000300180E06F2B27DDB3F5005F48D0B3F50B
:101FE000805F7AD0702B40F08180D1E901E3C9682D
:101FF000DCF8082043EA0E0322F47F4243EA012181
:102000001143CCF80810DCF8081041F0770162E0C9
:102010000BB1102B6AD1DCF8081021F070011943C4
:1020200041F0070157E000BF502B35D0602B5DD148
:10203000D1F804E0C968DCF82030DCF8202022F078
:102040001002CCF82020DCF8182022F4704242EA7A
:10205000013123F0A00242EA0E12CCF81810CCF89D
:102060002020DCF8081041F0670121F0100132E077
:10207000D1E901E3C968DCF8082043EA0E0322F441
:102080007F4243EA01211143CCF80810DCF8081024
:1020900041F480411FE000BFD1F804E0C968DCF8DA
:1020A0002030DCF8202022F00102CCF82020DCF8DF
:1020B000182022F0F00242EA011123F00A0242EA5B
:1020C0000E02CCF81810CCF82020DCF8081041F0F3
:1020D000570121F02001CCF808100022012180F8DE
:1020E0003D10002180F83C10104680BD0122F5E72C
:1020F0007047000070470000B0B582B00446006829
:102100000168C368426901F02F05202D03F0200506
:1021100006D12DB1204602B0BDE8B04000F02CBE83
:102120005FEA017C1EBF02F0010E03F4907212EB15
:102130000E0253D1226B012A05D111F0100218BFF3
:1021400013F0100236D10A0622D513F080021FD0F8
:1021500094F8411021293FD1A168B1F5805F03D1E6
:102160002169002900F07082216A4A1C22620978E4
:102170004160E18C01390A04E1842DD1C16821F06C
:102180008001C160C16841F04001C16002B0B0BDD2
:10219000490621D513F040011ED0C16821F040014D
:1021A000C1602021204684F8411002B0BDE8B04053
:1021B00000F0D4BB002101910168019141680191B7
:1021C00001994069400613D4A08DE18DE28D002A6B
:1021D00018BF884240F0BA8102B0B0BDCA0718BF2C
:1021E00013F4807240F0B6804A0700F1B980BEE077
:1021F000E06B016849688AB2002AEDD0A38D9A424B
:10220000EAD2E1858069202800F09C80206850E8AF
:10221000030F216820F4807041E80302DAB12068DE
:1022200050E8030F216820F4807041E8030292B166
:10223000206850E8030F216820F4807041E8030211
:102240004AB1206850E8030F216820F4807041E80B
:102250000302002ADAD1206850E8050F216820F037
:10226000010041E80502DAB1206850E8050F216855
:1022700020F0010041E8050292B1206850E8050F06
:10228000216820F0010041E805024AB1206850E8C9
:10229000050F216820F0010041E80502002ADAD18B
:1022A000206850E8050F216820F0400041E8050251
:1022B000DAB1206850E8050F216820F0400041E8BD
:1022C000050292B1206850E8050F216820F0400017
:1022D00041E805024AB1206850E8050F216820F066
:1022E000400041E80502002ADAD1202084F84200AB
:1022F00000202063206850E8030F216820F01000C0
:1023000041E80302DAB1206850E8030F216820F0A9
:10231000100041E8030292B1206850E8030F2168E1
:1023200020F0100041E803024AB1206850E8030F92
:10233000216820F0100041E80302002ADAD1E06BA6
:10234000FEF758FD02206063A08DE18D401A81B236
:10235000204674E1626C42F0010262644A0706D5CD
:10236000BEF1000F03D0626C42F0020262648A0781
:1023700006D5BEF1000F03D0626C42F00402626425
:10238000BCF1000F09D545EA0E02B2FA82F25209F9
:1023900003D1626C42F008026264626C002A3FF46E
:1023A0001BAF11F0200118BF002D03D0204600F014
:1023B000E3FC20684069616C00F0400001F0080116
:1023C000401800F0B58000BF206850E8030F216876
:1023D00020F4907041E80302BAB3206850E8030F7C
:1023E000216820F4907041E8030272B3206850E83D
:1023F000030F216820F4907041E803022AB320689B
:1024000050E8030F216820F4907041E80302002A8D
:10241000DAD11AE0206850E8050F216820F00100A9
:1024200041E80502DAB1206850E8050F216820F084
:10243000010041E8050292B1206850E8050F2168CB
:1024400020F0010041E805024AB1206850E8050F7C
:10245000216820F0010041E80502002ADAD1206B52
:10246000012824D1206850E8030F216820F01000D3
:1024700041E80302DAB1206850E8030F216820F038
:10248000100041E8030292B1206850E8030F216870
:1024900020F0100041E803024AB1206850E8030F21
:1024A000216820F0100041E80302002ADAD1202040
:1024B00084F84200002020632068406940063FD530
:1024C000206850E8050F216820F0400041E805022F
:1024D000DAB1206850E8050F216820F0400041E89B
:1024E000050292B1206850E8050F216820F04000F5
:1024F00041E805024AB1206850E8050F216820F044
:10250000400041E80502002ADAD1E06BC0B142F692
:102510006D51C0F600014163FEF790FC00283FF4C6
:102520005BAEE06B416B02B0BDE8B040084700BF56
:102530002046FFF7DFFD0020606402B0B0BD00BFA1
:10254000204602B0BDE8B040FFF7D4BD401A216874
:1025500051E8031F226821F4907142E80313DBB1B4
:10256000216851E8031F226821F4907142E80313A7
:1025700093B1216851E8031F226821F4907142E869
:1025800003134BB1216851E8031F226821F49071B5
:1025900042E80313002BDAD1216851E8051F2268B5
:1025A00021F0010142E80513DBB1216851E8051F64
:1025B000226821F0010142E8051393B1216851E836
:1025C000051F226821F0010142E805134BB1216883
:1025D00051E8051F226821F0010142E80513002B94
:1025E000DAD1202184F8421000212163216851E8CA
:1025F000031F226821F0100142E80313DBB12168B8
:1026000051E8031F226821F0100142E8031393B13F
:10261000216851E8031F226821F0100142E80313EA
:102620004BB1216851E8031F226821F0100142E8F4
:102630000313002BDAD1022281B22046626302B07A
:10264000BDE8B040FFF754BD216A31F8022B6FF3AB
:102650005F22426021628CE5002804BF01207047A0
:1026600010B5044690F8410028B9002084F84000D5
:10267000204600F063F8242084F841002068D4E963
:102680000212C36823F40053C360036923F4405368
:102690001A430261D4E904231143C268194341F289
:1026A0000C639A431143C1604169A26921F44071EE
:1026B000114343F60002C4F201029042416103D08B
:1026C000FFF75CF902E000BFFFF76CF962681921BF
:1026D00048439100B0FBF1F048F21F51C5F2EB11F5
:1026E000A0FB01235A094FF69C73C0F6FF7302FB4F
:1026F0000300322303EB0010A0FB0101F02303EAE7
:102700005113206803EB0212C1F34311114481609D
:10271000016921F490410161416921F02A0141617F
:10272000C16841F40051C16000202021606484F838
:10273000411084F84210606310BD000070B586B08F
:10274000044644F200402168C4F2000000268142A1
:10275000049601D006B070BD41F21801C4F2020126
:102760004A6800F5444042F400324A604A6802F484
:1027700000320192019A0A6842F004020A60096874
:1027800001F00401019101990C21029102210391B0
:10279000059102A9FEF734FD40F2F4058020C2F253
:1027A0000005C4F202001021802285E8430028467B
:1027B000C5E90326C5E90566EE61FEF76DFC002854
:1027C00018BFFDF771FF262000210022A5636C626F
:1027D000FEF7BAFE2620FEF7A3FE06B070BD00008D
:1027E000704700002DE9F041044690F84100202890
:1027F0001CBF0220BDE8F0810D4600294FF001000A
:1028000000F0AA801646002A08BFBDE8F08100202B
:1028100060642120984684F84100FEF713FEA684E8
:10282000E684A1680646B1F5805F02D120690028E0
:1028300062D02F460025E08C002861D018F10100FD
:1028400018D0B8F1000F37D1216808E017F8010B54
:102850004860E08C0138E084E08C002851D00868A2
:10286000000673D5002FF1D135F8020B00276FF366
:102870005F20EDE7216802E00868000609D40868D7
:10288000000606D4086800065CBF08685FEA0060BE
:10289000F2D51FB117F8010B05E000BF35F8020BA8
:1028A00000276FF35F204860E08C0138E084E08C03
:1028B0000028E4D125E000BF216800BF08680006B9
:1028C00008D4FEF7BFFD801B404541D82168C86889
:1028D000F4E700BF17B117F8010B04E035F8020B5D
:1028E00000276FF35F204860E08C0138E084E08CC3
:1028F0000028E3D105E000BF0027E08C00289DD12F
:102900002168086840061FD4B8F1000F1ED018F1E6
:1029100001000FD10868400616D40868400613D499
:102920000868400610D4086840064FF00000F1D552
:102930000FE000BFFEF786FD801B404508D82068E9
:10294000C16800684006F5D5002002E0FEF77AFD78
:102950000320202184F84110BDE8F0817047000079
:10296000FEE70000FEE70000FEE700007047000001
:10297000704700002DE9F04F8BB040F27000C2F2BA
:102980000000418864225143A1F548318088CB176B
:1029900001EB53515043C912A0F5483040F60005F1
:1029A0000A91C117C4F2010500EB5150C01205F5A0
:1029B0008066099030460121FEF730FDB0FA80F0C4
:1029C0004FEA501B30460221FEF728FDB0FA80F096
:1029D0004FEA501A30464FF48061FEF71FFDB0FAFF
:1029E00080F0440928464FF48061FEF717FDB0FAE5
:1029F00080F0450930460821FEF710FDB0FA80F05E
:102A00004FEA501830461021FEF708FDB0FA80F06A
:102A10004FEA501930462021FEF700FDB0FA80F051
:102A200047090998CDE902A4CDE9000B04A880E884
:102A3000200340F2C816C2F200060A9B5EA230468E
:102A400080210797FDF7C8FB82B240F28010C2F2E6
:102A5000000031466423FFF7C5FE002800F0A8807F
:102A600040F60004C4F20104204620210122FEF7B2
:102A7000E3FC3220FEF7A2FB204620210022FEF7D5
:102A8000DBFC3220FEF79AFB204620210122FEF7D4
:102A9000D3FC3220FEF792FB204620210022FEF7D5
:102AA000CBFC3220FEF78AFB204620210122FEF7D4
:102AB000C3FC3220FEF782FB204620210022FEF7D5
:102AC000BBFC3220FEF77AFB204620210122FEF7D4
:102AD000B3FC3220FEF772FB204620210022FEF7D5
:102AE000ABFC3220FEF76AFB204620210122FEF7D4
:102AF000A3FC3220FEF762FB204620210022FEF7D5
:102B00009BFC3220FEF75AFB204620210122FEF7D3
:102B100093FC3220FEF752FB204620210022FEF7D4
:102B20008BFC3220FEF74AFB204620210122FEF7D3
:102B300083FC3220FEF742FB204620210022FEF7D4
:102B40007BFC3220FEF73AFB204620210122FEF7D3
:102B500073FC3220FEF732FB204620210022FEF7D4
:102B60006BFC3220FEF72AFB204620210122FEF7D3
:102B700063FC3220FEF722FB204620210022FEF7D4
:102B80005BFC3220FEF71AFB204620210122FEF7D3
:102B900053FC3220FEF712FB204620210022FEF7D4
:102BA0004BFC32200BB0BDE8F04FFEF707BB00BF77
:102BB0000BB0BDE8F08F00BF583D25643B593D2563
:102BC000643B453D25643B463D25643B4A533D25DA
:102BD000643B55503D25643B52494748543D25646C
:102BE0003B4C4546543D25643B444F574E3D256480
:102BF0000D0A0000FEF72CBC70B594B00025012032
:102C0000CDE90E55CDE90C550D90102002240E9003
:102C100009A8CDE90A550395CDE901550994CDE9F7
:102C200010451295FEF7D2FE60B340F6000448F25C
:102C3000A066C4F20104C0F20106EFF3108072B680
:102C400020462021FEF7F0FB04950498B042F7D20D
:102C50000498013004900498B042F1D204980130F5
:102C600004900498B042EBD2049801300490049888
:102C7000B042E5D20498013004900498B042E7D302
:102C8000DEE700BF0F2004A931C14FF48060CDE919
:102C9000070504A80021FEF791FD68B340F6000483
:102CA00048F2A065C4F20104C0F201050026EFF36A
:102CB000108072B620462021FEF7B6FB13961398BB
:102CC000A842F7D21398013013901398A842F1D27A
:102CD0001398013013901398A842EBD21398013047
:102CE00013901398A842E5D21398013013901398CB
:102CF000A842E7D3DEE700BF022000900025684627
:102D00000295FEF7D5FC68B340F6000448F2A066D1
:102D1000C4F20104C0F20106EFF3108072B600BFE6
:102D200020462021FEF780FB13951398B042F7D27E
:102D30001398013013901398B042F1D213980130D8
:102D400013901398B042EBD213980130139013985C
:102D5000B042E5D21398013013901398B042E7D3F4
:102D6000DEE700BF14B070BD70470000406A00216C
:102D7000C185C184FFF7BEB981B090F84210222905
:102D800021D183680246B3F5805F09D152F8281F2C
:102D900052F8183C002B63D003685B680AE000BF60
:102DA00052F8281F13B90369002BF5D003685B683C
:102DB00003F07F030B70116801311160C18D01397F
:102DC0000A04C18502D001B0704700BF0168CA681B
:102DD00022F02002CA60CA6822F48072CA604A697E
:102DE00022F001024A61202180F842100021416353
:102DF000026B012A3CD10163016851E8031F02689C
:102E000021F0100142E80313DBB1016851E8031F10
:102E1000026821F0100142E8031393B1016851E800
:102E2000031F026821F0100142E803134BB101684F
:102E300051E8031F026821F0100142E80313002B40
:102E4000DAD101680A68D20606D5002200920A6823
:102E50000092496800910099818D01B0FFF748B94F
:102E6000026852686FF35F2221F8022B8162A5E7A6
:102E700001B0FFF7B5BC000040F28010C2F20000C4
:102E8000FFF73AB9FEE70000D4B040F60004C4F200
:102E90000104FEF7EBFAFFF7AFFE002741F2180638
:102EA0002597C4F202063068202140F010003060FF
:102EB0003068002200F010000890089830684FF049
:102EC000200840F004003060306800F004000890F2
:102ED0000898306840F008003060306800F0080062
:102EE000089008982046FEF7A7FA0020C1F21100CA
:102EF00022AD4FF40059CDE9230704F500602946BF
:102F0000CDF88890FEF77CF902204FF0010B259058
:102F100020462946CDF88880CDE923B7FEF770F921
:102F200040F23B4022A981E8810804F580602946EF
:102F3000FEF766F94FF4806A20462946CDE922A7BC
:102F4000CDF890B0FEF75CF9282000210022FEF7B2
:102F5000FBFA2820FEF7E4FA56F8040C002140F0B2
:102F6000010046F8040C56F8040C002200F00100A1
:102F7000229022980B20FEF7E7FA0B20FEF7D0FAFA
:102F8000112000210022FEF7DFFA1120FEF7C8FA17
:102F900040F28010A4F54441C2F200000C234FF42B
:102FA000E13280E88600C0E90377C0E90537C761F0
:102FB000FFF752FB40B348F2A065C0F20105EFF302
:102FC000108072B620462021FEF72EFA2297229812
:102FD000A842F7D22298013022902298A842F1D23A
:102FE0002298013022902298A842EBD222980130F8
:102FF00022902298A842E5D222980130229022986D
:10300000A842E7D3DEE700BF204620210122FEF7D9
:1030100013FAC820FEF7D2F8204620210022FEF73E
:103020000BFAC820FEF7CAF8204620210122FEF73D
:1030300003FAC820FEF7C2F8204620210022FEF73E
:10304000FBF9C820FEF7BAF840F28015C2F200057D
:103050000FF63811284604224FF4FA73FFF7C2FB2B
:1030600043F61C36C0F600062846314622224FF4AD
:10307000FA73FFF7B7FB0FF61C11284622224FF414
:10308000FA73FFF7AFFB2846314622224FF4FA735A
:10309000FFF7A8FB0FF62011284616224FF4FA730B
:1030A000FFF7A0FB0FF62811284615224FF4FA73FC
:1030B000FFF798FB0FF63011284616224FF4FA73EB
:1030C000FFF790FB40F2B0050820C2F20005C4F201
:1030D000020080214FF4807BC5E900072846C5E93E
:1030E0000271C5E904BAC5E90689FDF7D5FF48B301
:1030F00048F2A065C0F201050026EFF3108072B619
:1031000020462021FEF790F922962298A842F7D275
:103110002298013022902298A842F1D222980130C0
:1031200022902298A842EBD2229801302290229835
:10313000A842E5D22298013022902298A842E7D3F3
:10314000DEE700BF40F27007C2F2000704F5E0516D
:10315000384640F8101F012101734FF4602100260A
:10316000C16102210675C0E9016B0161FDF7B0FC88
:1031700040B348F2A065C0F20105EFF3108072B6CB
:1031800020462021FEF750F922962298A842F7D235
:103190002298013022902298A842F1D22298013040
:1031A00022902298A842EBD22298013022902298B5
:1031B000A842E5D22298013022902298A842E7D373
:1031C000DEE700BF3D6310376F62229601260725B8
:1031D00022A9384623962495FDF720FB50B348F2E8
:1031E000A065C0F201050026EFF3108072B600BFA3
:1031F00020462021FEF718F908960898A842F7D231
:103200000898013008900898A842F1D20898013037
:1032100008900898A842EBD20898013008900898C6
:10322000A842E5D20898013008900898A842E7D350
:10323000DEE700BF0220CDE9230522A93846229609
:10324000FDF7ECFA50B348F2A065C0F20105002684
:10325000EFF3108072B600BF20462021FEF7E4F89D
:1032600008960898A842F7D2089801300890089864
:10327000A842F1D20898013008900898A842EBD2F1
:103280000898013008900898A842E5D208980130C3
:1032900008900898A842E7D3DEE700BF40F280100C
:1032A000C2F200000FF2587116224FF4FA73FFF7C2
:1032B00099FA2020089040F238100025C2F2000050
:1032C0004FF080414FF4CC622595CDE92355099507
:1032D000C0E90015C0E9025205618561FEF7A4FD51
:1032E00040B348F2A066C0F20106EFF3108072B658
:1032F00020462021FEF798F821952198B042F7D278
:103300002198013021902198B042F1D221980130CA
:1033100021902198B042EBD2219801302190219840
:10332000B042E5D22198013021902198B042E7D3F4
:10333000DEE700BF4FF48050229040F23810C2F216
:10334000000022A9FEF706FE50B348F2A065C0F2C5
:1033500001050026EFF3108072B600BF2046202141
:10336000FEF762F821962198A842F7D22198013001
:1033700021902198A842F1D22198013021902198E2
:10338000A842EBD22198013021902198A842E5D2A1
:103390002198013021902198A842E7D3DEE700BFB1
:1033A00040F23810C2F2000008A9FEF7FFFC48B353
:1033B00048F2A065C0F201050026EFF3108072B656
:1033C00020462021FEF730F821962198A842F7D216
:1033D0002198013021902198A842F1D22198013002
:1033E00021902198A842EBD2219801302190219878
:1033F000A842E5D22198013021902198A842E7D334
:10340000DEE700BF40F28015C2F2000543F65C31F2
:10341000C0F60001284616224FF4FA73FFF7E2F9CE
:1034200043F6D821C0F60001284624224FF4FA734F
:10343000FFF7D8F93846FDF767F9002800F04E810C
:1034400040F2801043F66721C2F20000C0F600018E
:1034500021224FF4FA73FFF7C5F9204620210122FB
:10346000FDF7EAFF6420FDF7A9FE20462021002297
:10347000FDF7E2FF6420FDF7A1FE20462021012296
:10348000FDF7DAFF6420FDF799FE20462021002297
:10349000FDF7D2FF6420FDF791FE20462021012296
:1034A000FDF7CAFF6420FDF789FE20462021002297
:1034B000FDF7C2FF6420FDF781FE20462021012296
:1034C000FDF7BAFF6420FDF779FE20462021002297
:1034D000FDF7B2FF6420FDF771FE20462021012296
:1034E000FDF7AAFF6420FDF769FE20462021002297
:1034F000FDF7A2FF6420FDF761FE20462021012296
:10350000FDF79AFF6420FDF759FE20462021002296
:10351000FDF792FF6420FDF751FE20462021012295
:10352000FDF78AFF6420FDF749FE20462021002296
:10353000FDF782FF6420FDF741FE20462021012295
:10354000FDF77AFF6420FDF739FE20462021002296
:10355000FDF772FF6420FDF731FE20462021012295
:10356000FDF76AFF6420FDF729FE20462021002296
:10357000FDF762FF6420FDF721FE20462021012295
:10358000FDF75AFF6420FDF719FE20462021002296
:10359000FDF752FF6420FDF711FE20462021012295
:1035A000FDF74AFF6420FDF709FE20462021002296
:1035B000FDF742FF6420FDF701FE20462021012295
:1035C000FDF73AFF6420FDF7F9FD20462021002297
:1035D000FDF732FF6420FDF7F1FD20462021012296
:1035E000FDF72AFF6420FDF7E9FD20462021002297
:1035F000FDF722FF6420FDF7E1FD20462021012296
:10360000FDF71AFF6420FDF7D9FD20462021002296
:10361000FDF712FF6420FDF7D1FD20462021012295
:10362000FDF70AFF6420FDF7C9FD20462021002296
:10363000FDF702FF6420FDF7C1FD20462021012295
:10364000FDF7FAFE6420FDF7B9FD20462021002297
:10365000FDF7F2FE6420FDF7B1FD20462021012296
:10366000FDF7EAFE6420FDF7A9FD20462021002297
:10367000FDF7E2FE6420FDF7A1FD20462021012296
:10368000FDF7DAFE6420FDF799FD20462021002297
:10369000FDF7D2FE6420FDF791FD20462021012296
:1036A000FDF7CAFE6420FDF789FD20462021002297
:1036B000FDF7C2FE6420FDF781FD20462021012296
:1036C000FDF7BAFE6420FDF779FD20462021002297
:1036D000FDF7B2FE6420FDF771FD0CE040F28010B2
:1036E00043F63F31C2F20000C0F600011C224FF445
:1036F000FA73FFF777F840F28015C2F2000543F63F
:103700008921C0F6000128461C224FF4FA73FFF706
:1037100069F840F2B000C2F20000FDF7E9FB43F6A1
:10372000903208AE0346C0F6000230466421FCF732
:1037300053FD3046FCF708FE82B2284631464FF46E
:10374000FA73FFF74FF840F27006C2F20006B11CA0
:1037500038460222FDF7C2FA079768B343F6B5323E
:1037600008AD0346C0F6000228466421FCF734FD8C
:103770002846FCF7E9FD82B240F28010C2F2000058
:1037800029464FF4FA73FFF72DF800252046202133
:103790000122FDF751FE3220FDF710FD20462021C9
:1037A0000022FDF749FE3220FDF708FD1D2D05F131
:1037B0000105EBD30DE000BF40F2801043F67331FA
:1037C000C2F20000C0F600011C224FF4FA73FFF7AA
:1037D00009F8204620210122FDF72EFE6420FDF786
:1037E000EDFC204620210022FDF726FE6420FDF797
:1037F000E5FC204620210122FDF71EFE6420FDF796
:10380000DDFC204620210022FDF716FE6420FDF796
:10381000D5FC204620210122FDF70EFE6420FDF795
:10382000CDFC204620210022FDF706FE6420FDF796
:10383000C5FC40F28018C2F2000843F6A621C0F68B
:103840000001404631224FF4FA73FEF7CBFF4FF4EC
:10385000FA70FDF7B3FC7388B78843F63C4208ADB5
:10386000C0F60002284664210097FCF7B5FC284604
:10387000FCF76AFD82B2404629464FF4FA73FEF720
:10388000B1FFB36843F65F42C0F6000228466421E8
:10389000FCF7A2FC2846FCF757FD82B240462946B9
:1038A0004FF4FA73FEF79EFF43F6FD21C0F60001C8
:1038B00040461E224FF4FA73FEF794FF43F642216E
:1038C000C0F60001404624224FF4FA73FEF78AFF47
:1038D00045F629454BF6510945F62847CCF28F2588
:1038E000C0F21E59C0F28F2705E000BFFFF742F873
:1038F0001420FDF763FCF0680130F060F068684365
:103900004FEA7000484503D820462021FDF78CFD82
:10391000F06868434FEAB000B842E7D8F768D6F8D5
:10392000088096F800B00798FDF758F8824640F2F4
:10393000B000C2F20000FDF7DBFA7188B2880646DB
:10394000CDE9008BCDE904120DF1880843F6DF3292
:103950004046C821C0F600023B4645F6284703967C
:1039600040F27006CDF808A0C0F28F27C2F2000620
:10397000FCF732FC82B240F28010C2F200004146F5
:103980004FF4FA73FEF72EFFB0E700BF0D0A0D0AE1
:10399000000000003D3D3D2053544D33322047414F
:1039A0004D4550414420434F4E54524F4C4C45528C
:1039B000203D3D3D0D0A00005B424F4F545D2047C6
:1039C00050494F20496E69743A204F4B0D0A000050
:1039D0005B424F4F545D20444D4120496E69743A1B
:1039E000204F4B0D0A0000005B424F4F545D2055A5
:1039F00041525420496E69743A204F4B0D0A000021
:103A00005B424F4F545D204144433120496E6974FD
:103A10003A204F4B0D0A000000000000000000009B
:103A20000102030406070809000000000102030464
:103A3000010202030405060708090A0B0C0D0E0F0C
:103A400010103D3D3D3D3D3D3D3D3D3D3D3D3D3D00
:103A50003D3D3D3D3D3D3D3D3D3D3D3D3D3D3D3D96
:103A60003D3D0D0A0D0A005B4552524F525D20410B
:103A700044432043616C6962726174696F6E2046D1
:103A800041494C4544210D0A005B424F4F545D2093
:103A90005374617274696E672041444320444D4100
:103AA0002E2E2E0D0A005B424F4F545D2057616948
:103AB00074696E67203530306D7320666F722041F7
:103AC000444320746F20636F6C6C65637420646181
:103AD00074612E2E2E0D0A005B424F4F545D205311
:103AE00074617274696E67204144432063616C693C
:103AF00062726174696F6E2E2E2E0D0A005B424F4A
:103B00004F545D20456E746572696E67206D616902
:103B10006E206C6F6F702E2E2E0D0A003D3D3D3DC8
:103B20003D3D3D3D3D3D3D3D3D3D3D3D3D3D3D3DC5
:103B30003D3D3D3D3D3D3D3D3D3D3D3D0D0A005B37
:103B4000424F4F545D204144432043616C6962728F
:103B50006174696F6E3A204F4B0D0A005B424F4F04
:103B6000545D2054494D3220496E69743A204F4BC0
:103B70000D0A005B424F4F545D2041444320444DA9
:103B8000413A2053544152544544204F4B0D0A00B2
:103B90005B44454255475D20444D41205374617458
:103BA00065206265666F72652073746172743A2075
:103BB00025640D0A005B4552524F525D204144433B
:103BC00020444D41205374617274204641494C4554
:103BD0004421205374617475733D25640D0A005BA4
:103BE00044454255475D204C6F6F703A256C7520F7
:103BF000444D415F446F6E653A256C7520414443E6
:103C00005F4572723A2564204144435F5374617486
:103C1000653A256420444D415F53746174653A25CB
:103C200064205241575F414443303A257520524148
:103C3000575F414443313A25750D0A005B544553A3
:103C4000545D20414443204275666665723A205BAC
:103C5000305D3D2575205B315D3D25750D0A005BAE
:103C6000544553545D20444D4120436F6D706C6545
:103C7000746520636F756E743A20256C750D0A00AB
:103C8000A03C0008000000201000000028010008EF
:103C9000B03C00081000002040080000440100086B
:103CA000010000001000000000127A000000000077
:04000005080000ED02
:00000001FF
