:020000040800F2
:100000002009002099010008612A00085D280008E5
:100010005D2A000881060008092D00080000000084
:10002000000000000000000000000000692A000835
:100030002108000800000000652A0008DD2B0008E8
:10004000B3010008B3010008B3010008B3010008C0
:10005000B3010008B3010008B3010008B3010008B0
:10006000B3010008B3010008B3010008E507000868
:10007000F1070008FD070008B3010008B3010008FC
:100080000908000815080008F5040008B301000875
:10009000B3010008B3010008B3010008B301000870
:1000A000B3010008B3010008B3010008B301000860
:1000B000B3010008B3010008B3010008B301000850
:1000C000B3010008B3010008B3010008B301000840
:1000D000B3010008B3010008F12C0008FD2C000852
:1000E000B3010008B3010008B301000800F002F8F2
:1000F00000F042F80AA090E8000C82448344AAF180
:100100000107DA4501D100F037F8AFF2090EBAE87D
:100110000F0013F0010F18BFFB1A43F0010318473B
:10012000C82E0000E82E0000103A24BF78C878C11D
:10013000FAD8520724BF30C830C144BF04680C60ED
:10014000704700000023002400250026103A28BF35
:1001500078C1FBD8520728BF30C148BF0B60704739
:10016000642900F05980752900F0568000207047FE
:100170001FB51FBD10B510BD00F082F91146FFF785
:10018000F7FF02F0C3FD00F0A0F903B4FFF7F2FFA0
:1001900003BC00F0A7F90000094880470948004760
:1001A000FEE7FEE7FEE7FEE7FEE7FEE7FEE7FEE727
:1001B000FEE7FEE704480549054A064B7047000084
:1001C000E12B0008ED00000820030020200900209A
:1001D00020050020200500200FB41CB50C0007AA44
:1001E000009007D04142A14202D32044401E01E0CA
:1001F0004FF0FF30074B7B4469460190069800F0B2
:1002000024F90021002C01D0009A11701CBC5DF86B
:1002100014FB0000770200002DE9F041064600249F
:1002200010687529314616A510D0AFF3008000285C
:1002300002DA404213A507E031688A0701D512A50A
:1002400002E0490704D511A5012401E0AFF30080C5
:1002500000210A2206F1240709E0B0FBF2FCB0FB02
:10026000F2F302FB1C00303078541846491C002879
:10027000F3D123462A463046BDE8F04100F086B867
:10028000000000002D0000002B00000020000000F6
:100290002DE9F0410F460546002028622846E9680E
:1002A000884770B3252805D0D5E901219047286AF1
:1002B000401CF2E7E9682846002688476C28044677
:1002C0000AD0682C08D04C2C35D06A2C31D0742C34
:1002D00031D07A2C2FD016E0E968064628468847A8
:1002E000B042044608D16C2E23D04FF480662846D5
:1002F000E9688847044606E06C2E03D04FF4807608
:1003000001E01EE04026E4B1A4F14100192802D822
:10031000203446F400663A46214628462E60FFF710
:100320001FFF60B1012808D0FF1D27F0070708371D
:10033000B4E78026DBE70026D9E73F1DAEE720467D
:10034000B2E7286ABDE8F08110B5431C02E010F85E
:10035000011B71B18107FAD14FF0013202C88C1A2A
:100360008C4314EAC211F9D0C01A0A0603D0C01E89
:1003700010BDC01A10BD0A0401D0801E10BD0902B4
:10038000FCD0401E10BD7047704770472DE9F04704
:100390000D4699469246044600F1240801688806F5
:1003A00004D5E06921F01001216000E00120A8429D
:1003B00001DD471B00E00027A1697A1902EB090063
:1003C000081AA0612078C00602D42046AFF300804E
:1003D000002608E0D4E901211AF806009047206AB7
:1003E000401C761C20624E45F4DB2078C0060AD5FE
:1003F0002046AFF3008006E0D4E901213020904789
:10040000206A401C2062381EA7F10107F4DC07E0D7
:10041000D4E9012118F805009047206A401C2062A9
:10042000281EA5F10105F3DC2046AFF300802078FB
:10043000000602D50220BDE8F0870120FBE700009E
:1004400001694A1C02610878704700B58FB0CDE998
:1004500001310021059105497944CDE90310114688
:100460006846FFF715FF0FB000BD0000E5FFFFFF76
:10047000D1E900239A4202D2531C0B6010707047DE
:10048000754600F02BF8AE4605006946534620F04D
:100490000700854618B020B5FFF78CFEBDE8204068
:1004A0004FF000064FF000074FF000084FF0000B30
:1004B000AC46ACE8C009ACE8C009ACE8C009ACE89F
:1004C000C00921F007018D46704710B50446AFF30F
:1004D00000802046BDE81040FFF757BE0048704737
:1004E0001800002001491820ABBEFEE726000200DC
:1004F0007047000040F28800C2F2000000F0FCBA31
:10050000B0B5044600688168C90709D0816821F048
:100510000101816001F012F821688968C90701D1E1
:100520000020B0BD054602E08068C007F8D001F0A9
:1005300005F8411B20680329F6D38168C907F3D069
:10054000A06A40F01000A062E06A40F00100E062A2
:100550000120B0BD0146406A826A12F0500F03D0FC
:10056000006A026B084610470168826A42F4007212
:100570008262896801F46021B1F5602F01D1017BAD
:1005800011B100F0A5BA00BF816A21F480718162C7
:10059000816AC90448BF00F09BBA816A41F0010139
:1005A000816200F095BA0000406A816A41F0400122
:1005B0008162C16A41F00401C16200F09BBA00008F
:1005C000406A00F095BA0000B0B582B00446002041
:1005D000019021688A68D2074FD1886840F00100F5
:1005E000886040F21000C2F2000000684DF683619E
:1005F000C4F21B31A0FB0101880C01900198A0B14D
:10060000019801380190019878B101980138019062
:10061000019850B1019801380190019828B10198D2
:100620000138019001980028EAD100F087FF216885
:100630008968C9071CD1054603E000BF8068C00770
:100640001AD100F07BFF411B20680329F6D3816893
:10065000C907F3D1A06A40F01000A062E06A40F040
:100660000100E062002084F82400012002B0B0BD47
:10067000002002B0B0BD00BF002002B0B0BD00003D
:10068000FEE70000F0B593B040F25420C2F2000043
:1006900037A11922642302F023F840F278060024DF
:1006A0003227C2F2000600250A2000F011FE308930
:1006B000013F044470890544F6D148F21F50C5F249
:1006C000EB10A4FB0012A5FB000140F2000710098B
:1006D000C2F2000778800809F88040F6FF704FF4F6
:1006E0007845A0EB121315EA121FA0EB111008BFFA
:1006F000130915EA111F08BF0809C3EB121503EB14
:100700001214C0EB111300EB111035803C80B8803F
:10071000A8B2A5B203AC7380C2F30F1300901BA262
:10072000204640210195FFF757FD40F25425C2F2C3
:10073000000582B228462146642301F0D1FF70886B
:10074000FB88BF8800901AA2204640210197FFF73E
:1007500043FD82B228462146642301F0C1FF1DA15A
:1007600028460D22642301F0BBFF13B0F0BD00BF8B
:100770005B43414C5D2052656164696E672063652F
:100780006E7465722E2E2E0D0A0000005B43414CE4
:100790005D20583A2063656E7465723D25642C2097
:1007A00072616E67653D25642D25640D0A000000A9
:1007B0005B43414C5D20593A2063656E7465723D20
:1007C00025642C2072616E67653D25642D25640DBE
:1007D0000A0000005B43414C5D20446F6E65210DB3
:1007E0000A00000040F2B800C2F2000000F00EBCA7
:1007F00040F2C810C2F2000000F008BC40F28410C1
:10080000C2F2000000F002BC40F2FC00C2F20000A4
:1008100000F0FCBB40F24010C2F2000000F0F6BB5A
:1008200070470000EFF3108072B600BFFEE70000D3
:1008300070B582B004460020019094F8240001288D
:1008400004D10225284602B070BD00BF012084F803
:1008500024002046FFF754FE2046FFF7B5FE05466C
:10086000002867D1A06A41F2021188430230A062D9
:1008700040F21000C2F200000668022000F01CFFE7
:10088000B6FBF0F0400001900198A0B1019801384A
:100890000190019878B1019801380190019850B108
:1008A000019801380190019828B101980138019010
:1008B00001980028EAD12068816841F00801816030
:1008C00000F03CFE21688A6812070DD4886840F069
:1008D0000400886000F032FE21688968490713D45B
:1008E00001206FF0030121E0064602E0886800075E
:1008F000ECD500F023FE801B21680B28F6D3886816
:100900000007F3D50EE000BF064602E0806840070E
:10091000E6D500F013FE811B20680B29F6D3816811
:100920004907F3D5012510206FF01201A26A11408A
:100930000843A062002084F82400284602B070BD5D
:100940007047000010B581B00022009290F824207A
:10095000012A03D10221084601B010BD4B680122D3
:10096000062B80F8242017D8D0F800C003EB8303AF
:100970005A1F1F23DCF834E003FA02F40B682EEA56
:10098000040403FA02F22243CCF83420092B03EBCF
:10099000430219D936E000BFD0F800C00C2B03EB9E
:1009A00083021DD8233A1F23DCF830E003FA02F457
:1009B0000B682EEA040403FA02F22243CCF830203A
:1009C000092B03EB43021DD8DCF81030072489689B
:1009D0009440A34391401943CCF81010002130E01B
:1009E000413A1F23DCF82CE003FA02F40B682EEAEC
:1009F000040403FA02F22243CCF82C20092B03EB67
:100A00004302E1D9DCF80CE01E3A072489689440DF
:100A10002EEA0404914023F001022143102ACCF86D
:100A20000C100DD142F20841C4F20101A1F10802FB
:100A300094450DD0816A41F020018162012100E0DE
:100A40000021002280F82420084601B010BD00BF1C
:100A50000A68120230D40A68102B42F400020A60BD
:100A60002CD140F21001C2F2000109684DF68362F8
:100A7000C4F21B32A1FB0212910C01EB810149006F
:100A800000910099E1B10099013900910099C9B133
:100A90000099013900910099B1B100990139009193
:100AA000009999B1009901390091009900294FF0FE
:100AB0000001E8D1C5E700BF0021C2E70021C0E77F
:100AC0000021BEE70021BCE70021BAE70021B8E71A
:100AD000006842F20041C4F20101884218BF704729
:100AE00040F28400C2F20000012101707047000052
:100AF000704700007047000070B504460068056844
:100B00004668B10627D515F0020124D0A16AC906AE
:100B100003D4A16A41F40071A162816801F46021EB
:100B2000B1F5602F10D1217B71B9416821F020010E
:100B30004160A06A20F48070A062A06AC00403D45F
:100B4000A06A40F00100A0622046FFF7C1FF2068C4
:100B50006FF012010160310633D515F0040130D079
:100B6000A16AC90603D4A16A41F40051A162816857
:100B700001F4E041B1F5E04F10D1416821F080016E
:100B80004160A06A20F48050A062A06AC00511D420
:100B9000A06A40F00100A0620CE000BF4168490576
:100BA00008D4816801F46021B1F5602F02D1217B66
:100BB0000029E2D02046FFF7C3FE20686FF00C0149
:100BC000016070060ED515F0010008BF70BDA06A67
:100BD00040F48030A062204600F0B4F820686FF046
:100BE0000101016070BD0000B0B5002800F0A880D0
:100BF0000446806A20B121688868C0070BD114E0E0
:100C00000020E06284F82400204600F09DF821686E
:100C10008868C00709D0886820F00100886000F06B
:100C20008DFC21688A68D20726D1A06AC0063AD412
:100C3000A06A41F2021290430230A062E069D4E956
:100C4000013240EA030C531EB3FA83F35D091346E5
:100C5000B2F5807F18BF2B02207D257B01284CEA4E
:100C6000450030D135B3A56A45F02005A562E56A97
:100C700045F00105E56226E0054602E08868C00708
:100C8000D3D000F05BFC401B21680328F6D38868B2
:100C9000C007F3D0A06A40F01000A062E06A40F004
:100CA0000100E062A06AA06A40F01000A06201208A
:100CB000B0BD00BFD4F818C04EF60005CFF6FF75E2
:100CC00005EB4C352B434D68B2F5807F25F4694523
:100CD00043EA05034B608B684FF2FD75CFF6E17573
:100CE00003EA050343EA00038B6001D0012A07D120
:100CF00022690023CFF6F07303EB025201E000BF3C
:100D00000022CB6A23F470031A43CA62896840F652
:100D1000FE62CFF61F721140814207D10020E062CF
:100D2000A16A012262F30101A162B0BDA06A40F094
:100D3000100020F00200A062E06A40F00100E062D2
:100D40000120B0BD7047000070B586B0044640F683
:100D50000000C4F20100216800F5E0520026914233
:100D60000596049602D006B070BD00BF41F218018E
:100D7000C4F202010A6842F400720A600A6802F4CE
:100D800000720192019A0A6842F004020A6009683E
:100D900001F00401019101990321CDE9021102A999
:100DA00000F0AAFA40F2B8050820C2F20005C4F229
:100DB00002004FF48072C5E9000605F110008021A1
:100DC0004FF480634FF0200C80E80C102846C5E9F2
:100DD0000261EE6100F0EAF9002818BFFFF722FD7A
:100DE00012200021002225626C6200F029FC1220F2
:100DF00000F012FC06B070BD70B5154604460068E0
:100E000042F60002C4F2010290420E4605D042F2C0
:100E10000041C4F20101884209D142F20440C4F207
:100E20000100006810F4702F1CBF012070BD94F801
:100E30002400012804BF022070BD012084F8240092
:100E40002046FFF7C1FB18B1002184F8241070BDC3
:100E500042F204402168A26AC4F2010040F6017324
:100E60009A4300F57F7302F580729942A26243D0E3
:100E7000A06A20F48010A0624868400504D5A06AEA
:100E8000012262F30D30A062A26A0020D2044FF06A
:100E9000000244BFE26A22F00602E26284F8240003
:100EA000206A40F25552C0F6000240F2C15340F2AF
:100EB000A95C00F1280EC0F60003C0F6000C8EE815
:100EC0000C106FF002020A608A682B4642F48072AE
:100ED0008A604C31324600F0ADF92068816801F437
:100EE00060228168B2F5602F0CBF41F4A00141F48B
:100EF00080118160002070BD026812F4702FB7D09D
:100F0000A26A42F48012A26200684005BCD5B6E72E
:100F1000014690F82100022816D10868D1E90FC3D4
:100F2000026822F00E020260026822F001020260F2
:100F3000012000FA03F2CCF8042081F821000020FF
:100F4000002281F8202070470420886301200022BD
:100F500081F820207047000080B590F82110022908
:100F600024D10268116821F00E0111602F2113684D
:100F7000C4F202018A4240F20401C4F2020123F0E9
:100F80000103136016DD3023C4F202039A421DD020
:100F90004423C4F202039A421CD05823C4F2020331
:100FA0009A421DD14FF4803322E000BF04218163B7
:100FB000012080BD0823C4F202039A420ED01C23F4
:100FC000C4F202039A420BD1102311E04FF4807354
:100FD0000EE000BF4FF480530AE000BF012307E09A
:100FE00001F1680C4FF08073624508BF4FF4801325
:100FF0000B60012180F82110426B002180F8201045
:101000000AB190470021084680BD000010B5D0E924
:101010000FCE0168DCF800300A6823FA0EF35C0793
:101020002AD512F0040427D00A68920603D40A686D
:1010300022F004020A602F22C4F20202914240F21E
:101040000402C4F202025BDD3023C4F202039942BF
:1010500072D04423C4F20203994273D05823C4F2DD
:101060000203994240F07A804FF480231360C16AF2
:10107000002940F098806FE09C0727D512F0020409
:1010800024D00A68920606D40A6822F00A020A608E
:10109000012280F821202F22C4F20202914240F264
:1010A0000402C4F202023BDD3023C4F2020399427F
:1010B00060D04423C4F2020399425FD05823C4F2A3
:1010C0000203994260D14FF4003365E01B0743D51A
:1010D00012F0080208BF10BD0A6822F00E020A6072
:1010E000012101FA0EF2CCF80420816380F821106E
:1010F000016B0022002980F8202054D12CE000BF91
:101100000823C4F20203994222D01C23C4F2020332
:10111000994223D140231360C16A002943D11BE0C7
:101120000823C4F2020399422CD01C23C4F2020308
:10113000994229D120232FE04FF480631360C16AC4
:1011400089BB09E04FF480431360C16A59BB03E0D7
:1011500004231360C16A31BB10BD00BF02F16804F3
:101160004FF08063A14208BF4FF480031360C16A4F
:10117000C9B9F1E74FF400730EE000BF4FF400531C
:101180000AE000BF022307E002F168044FF0007399
:10119000A14208BF4FF400131360816A00220029A6
:1011A00080F82020D8D0BDE810400847014600282C
:1011B0004FF0010008BF70472DE9F043D1F800C09F
:1011C0004FF6F873CBF6FD734CF6CD426344CCF684
:1011D000CC42A3FB02236FF0030707EA9303002727
:1011E000C4F2020701F10C09C1E90F730223D1E92E
:1011F000012E99E87002D1F81C8081F82130DCF8CA
:10120000003043F6F077BB431A4342EA0E02224312
:101210002A43324342EA090242EA0802CCF800209B
:1012200000228A6381F8210081F820200020BDE897
:10123000F0437047F0B590F820C0BCF1010F32D0F8
:101240004FF0010E80F820E090F821C0BCF1010FB2
:1012500026D14FF0020C80F821C04FF0000CC0F8EE
:1012600038C0D0E900C4C56AC66BDCF80070102C29
:1012700027F00107CCF80070006C0EFA00F07060E7
:101280000846CCF8043004BF10460A46CCF80800E3
:10129000CCF80C20DCF8000045B140F00E000DE069
:1012A000002180F820100220F0BD00BF20F00400D3
:1012B000CCF80000DCF8000040F00A00CCF8000098
:1012C000DCF8000040F00100CCF800000020F0BD88
:1012D000B0B5044600F032F9054640F20800C2F20B
:1012E00000000078611C18BF044400BF00F026F91C
:1012F000401BA042FAD3B0BD2DE9F04F82B00E687A
:10130000002E00F0038141F20042C4F201020423E6
:1013100040F2004E904208BF03234FF6FF7CC4F218
:10132000010E009300240123C1F2100C4FF0000ABB
:101330004FF0000949E000BF012704F00C030F2221
:101340009A402BEA020207FA03F34FEA9A051A437E
:1013500046F82520D1F804B040F20C455FEACB22D4
:10136000DEF8082054BF22EA080242EA0802C4F26A
:101370000105CEF808202A685FEA8B2354BF22EAD1
:10138000080242EA08022A605FEA8B33DEF8042092
:1013900054BF22EA080242EA08025FEACB33CEF8E1
:1013A0000420DEF800204FF0010354BF22EA0802B7
:1013B00042EA0802CEF800200E680AF1010A36FA65
:1013C0000AF204F1040400F0A18003FA0AF816EA14
:1013D000080FF1D04E68664512DC122E56D8DFE8B1
:1013E00006F0350B454955555555555555555555E7
:1013F0005555554D510000BFD1F80C9046E000BF47
:101400004FF6FF72C1F2210296420FDC0022C1F2B8
:10141000110296421AD00022C1F21202964215D051
:101420000022C1F22102964210D02FE00022C1F228
:10143000220296420AD00022C1F23102964205D021
:101440000022C1F23202964220D100BF8A684AB11E
:10145000012A14BFC0F81480C0F810804FF00809AA
:1014600014E000BF4FF0040910E000BFCA6802F1A9
:1014700008090BE04FF0000908E000BFCA6802F15C
:10148000040903E0CA6802F10C0900BF22460646BF
:10149000BAF1080F24BF203A043637680F2595406B
:1014A00027EA050509FA02F22A433260CA79D20610
:1014B0007FF582AF41F21803C4F202031A68AEF559
:1014C0007E7642F001021A601A6802F0010201926F
:1014D000019A2AF0030256F802B040F60002C4F264
:1014E0000102904210D040F60042C4F20102904244
:1014F0003FF422AF41F20002C4F20102009F904289
:1015000008BF022719E700BF002716E702B0BDE8B1
:10151000F08F00008068084018BF0120704700006D
:10152000C26802EA0103914341EA03410161704745
:10153000002A08BF090401617047000040F21C3016
:10154000C2F200000068704740F2080040F21C310F
:10155000C2F20000C2F2000100780A68104408607C
:101560007047000080B542F20000C4F2020001683A
:1015700041F010010160032000F08EF8002000F01F
:1015800005F800F027F8002080BD000070B540F29B
:101590000806C2F2000640F210013278C2F20001E1
:1015A0004FF47A730968B3FBF2F20446B1FBF2F12F
:1015B000084600F061FC0F2C4FF0010508D838B93F
:1015C0004FF0FF3021460022002500F039F874600A
:1015D000284670BD82B041F21800C4F202000168D2
:1015E000042241F001010160016801F00101019153
:1015F0000199416841F080514160406800F080509D
:10160000009000980420C4F20100016862F31A619E
:10161000016002B070470000002848BF7047C1B2A7
:1016200000F01F00012202FA00F04EF20012CEF28A
:10163000000242EAD10121F0030108607047000076
:1016400010B54EF60C5CCEF2000CDCF80030C3F3A3
:10165000022E8EF00704042C28BF0424BEF10303DD
:101660004FF0FF3E0EFA04F438BF0023A143994027
:101670000EFA03F39A43114300F00F0200F16043A6
:101680000901043A03F564436244002848BF02F1AB
:101690000C03197010BD00004EF60C51CEF2000183
:1016A0000A684FF6FF031A4060F30A2242F0806096
:1016B00040F0FD700860704780B5012818D00228FE
:1016C00036D0102832D141F20401C4F202010A6876
:1016D00051F8040CC00129D5C2F383402DA3185C36
:1016E000D2033DD440F60012C0F23D02504343E025
:1016F00041F20400C4F20200C16940F202320A4021
:10170000B2F5817F04BF4FF4004080BD01F4407109
:10171000B1F5407F1CD0B1F5007F07D1006A49F6D2
:101720004041800701EAE07080BD00BF002080BD1D
:1017300000F0B4F941F20401C4F202010968022286
:10174000C1F3813102EB4101B0FBF1F080BD00BF7C
:1017500050F8040C4FF22441800301EAE07080BD90
:101760000A6810A3C2F340429A5C41F20023C0F21F
:101770007A03B3FBF2F250430968490248BF80BDC7
:101780004AF6AB214000CAF6AA21A0FB0101480895
:1017900080BD00BF02030405060708090A0B0C0DF3
:1017A0000E0F1010010200002DE9F04182B0044636
:1017B000007841F21C06C007C4F202064AD0306825
:1017C00010F0805808D1306840F0805030603068A8
:1017D00000F080500190019847F20007C4F2000722
:1017E0003868C00512D4386840F480703860FFF75C
:1017F000A5FE05463868C00508D4FFF79FFE401BCC
:101800006428F7D9032002B0BDE8F081706810F4B5
:10181000407012D0616801F4407188420DD0706848
:1018200040F24042C4F24222012320F4407113608E
:101830000023C007136071602AD17068616820F4CA
:1018400040700843B8F1000F706003D1306820F099
:10185000805030602068810707D556F8181CA268B0
:1018600021F44041114346F8181CC00604D400205E
:1018700002B0BDE8F08100BF56F8180CE16820F412
:101880008000084346F8180C002002B0BDE8F08143
:10189000FFF754FE054641F2883700BF70688007A5
:1018A000CBD4FFF74BFE401BB8424FF00300F5D9F5
:1018B000EBE700002DE9F04381B0002800F08580BF
:1018C00042F20008C4F202080446D8F800000D46AF
:1018D00000F0070088420CD2D8F8000020F0070082
:1018E0002843C8F80000D8F8000000F00700A8421C
:1018F0006BD1206841F204098107C4F2020917D5AF
:10190000410705D5D9F8001041F4E061C9F800108D
:10191000010705D5D9F8001041F46051C9F800104D
:10192000D9F80010A26821F0F0011143C9F80010A5
:10193000C00741D1D8F8000000F00700A8420CD938
:10194000D8F8000020F007002843C8F80000D8F8B5
:10195000000000F00700A84237D12068410707D5F2
:10196000D9F80010E26821F4E0611143C9F80010D1
:10197000000708D5D9F80000216920F4605040EA3A
:10198000C100C9F80000D9F8002002F00C000828B6
:1019900041F20020C0F27A0050D142F68E73C2F3B9
:1019A0008341C0F60003595CD2033BD440F60010DB
:1019B000C0F23D00484341E0606802280AD0012897
:1019C0002AD159F8041C890308D4012001B0BDE8CC
:1019D000F08300BF59F8041C8901F6D5D9F800102E
:1019E00021F003010843C9F80000FFF7A7FD0646F0
:1019F00041F28837D9F80000616800F00C00B0EBC4
:101A0000810F97D0FFF79AFD801BB842F2D90320CF
:101A100001B0BDE8F08300BF59F8041C8907D4D594
:101A2000DCE700BFD9F8002042F68C73C2F34042D5
:101A3000C0F600039A5C4843B0FBF2F0D9F80010FE
:101A400042F67472C1F30311C0F60002515C40F219
:101A5000100220FA01F140F20C00C2F2000000680E
:101A6000C2F200021160FFF791FD002001B0BDE855
:101A7000F083000040F2100041F20401C2F20000C5
:101A8000C4F202010068096842F68472C1F30221BF
:101A9000C0F60002515CC8407047000040F21000E0
:101AA00041F20401C2F20000C4F2020100680968B8
:101AB00042F68472C1F3C221C0F60002515CC840F4
:101AC000704700002DE9F04182B0002868D004463C
:101AD000007841F20006C007C4F2020625D0706803
:101AE00000F00C0004281BD0706800F00C000828DF
:101AF00002D17068C00313D46068002800F06881C8
:101B0000B0F5A02F00F07C81B0F5803F00F07C8123
:101B1000306820F480303060306820F4802076E136
:101B20003068800301D56068D0B32078800718D56D
:101B3000706810F00C0F07D0706800F00C000828D7
:101B40006ED17068C0036BD43068800702D52069FD
:101B5000012825D13068616920F0F80040EAC10011
:101B60003060207800071FD42078400732D4E56920
:101B700095B1706800F00C00082840F08F80012DAE
:101B80000ED07068216A00F480328A4208D1616AFE
:101B900000F47010884203D1002002B0BDE8F0814B
:101BA000012002B0BDE8F081A069002862D00020C9
:101BB000C4F242200121C0F88014FFF7BFFC0546A3
:101BC000706A800700F18C80FFF7B8FC401B022888
:101BD000F6D92AE1F06910F0805808D1F06940F098
:101BE0008050F061F06900F080500090009847F25A
:101BF0000007C4F200073868C00529D4386840F4EB
:101C000080703860FFF79AFC054600BF3868C00551
:101C10001ED4FFF793FC401B6428F7D905E100BFF1
:101C20002069002840F20000C4F2422000F08280C7
:101C300001210160FFF782FC054600BF3068800784
:101C40003FF588AFFFF77AFC401B0228F6D9ECE09D
:101C5000E068002800F08080052800F097800128C7
:101C600000F09880306A20F001003062306A20F085
:101C7000040092E00020C4F242200021C0F8801449
:101C8000FFF75CFC054600BF706A80077FF56CAF0C
:101C9000FFF754FC401B0228F6D9C6E00027C4F227
:101CA000422700203866FFF749FC022D05460BD17C
:101CB0003068800140F1BE80FFF740FC401B0228E5
:101CC0004FF00300F4D968E7306880017FF564AF16
:101CD000FFF734FC401B02284FF00300F4D95CE707
:101CE00040F21000C2F20000006844F6D351C1F285
:101CF0006201A0FB0101480A019000BF00BF0198EA
:101D0000411E002801913FF42FAF00BF0198411EF2
:101D1000002801913FF428AF00BF0198411E002820
:101D200001913FF421AF00BF0198411E00280191AD
:101D3000E4D119E700210160FFF700FC054600BF70
:101D4000306880077FF50DAFFFF7F8FB401B0228D6
:101D50004FF00300F4D920E7306A20F00100306230
:101D6000306A20F004003062FFF7E8FB054641F2DC
:101D7000883700BF306A800720D5FFF7DFFB401BA4
:101D8000B8424FF00300F5D907E700BF306A40F0D2
:101D900004003062306A40F001003062FFF7CEFB91
:101DA000054641F2883700BF306A800706D4FFF746
:101DB000C5FB401BB842F7D937E000BFB8F1000FB0
:101DC0007FF4D5AEF06920F08050F061CFE600BF1F
:101DD000306820F480303060306820F4802030603B
:101DE000FFF7ACFB054600BF306880037FF59DAE72
:101DF000FFF7A4FB401B64284FF00300F4D9CCE6A6
:101E0000306840F480203060306840F480303060CA
:101E1000FFF794FB054600BF306880033FF585AEB1
:101E2000FFF78CFB401B6428F6D9032002B0BDE805
:101E3000F08100BF206AB0F5803F05D17168A268CB
:101E400021F40031114371607168626A21F47411E8
:101E500011430843706001203866FFF76FFB0446AA
:101E6000306880013FF598AEFFF768FB001B022841
:101E70004FF00300F4D990E6411E0020B0EB116F43
:101E80001CBF012070474EF21002CEF200025160DA
:101E90004EF62351CEF20001F0230B700721906023
:101EA000116070477047000070470000B0B582B005
:101EB000044600680168C368426901F02F05202DBF
:101EC00003F0200506D12DB1204602B0BDE8B04098
:101ED00000F08EBE5FEA017C1EBF02F0010E03F42B
:101EE000907212EB0E0253D1226B012A05D111F030
:101EF000100218BF13F0100236D10A0622D513F0D3
:101F000080021FD094F8411021293FD1A168B1F57A
:101F1000805F03D12169002900F07082216A4A1C88
:101F2000226209784160E18C01390A04E1842DD1F3
:101F3000C16821F08001C160C16841F04001C16009
:101F400002B0B0BD490621D513F040011ED0C168D2
:101F500021F04001C1602021204684F8411002B0E8
:101F6000BDE8B04000F078BC00210191016801910A
:101F70004168019101994069400613D4A08DE18D1B
:101F8000E28D002A18BF884240F0BA8102B0B0BD8D
:101F9000CA0718BF13F4807240F0B6804A0700F1F8
:101FA000B980BEE0E06B016849688AB2002AEDD0D2
:101FB000A38D9A42EAD2E1858069202800F09C80B6
:101FC000206850E8030F216820F4807041E8030284
:101FD000DAB1206850E8030F216820F4807041E8EE
:101FE000030292B1206850E8030F216820F480704A
:101FF00041E803024AB1206850E8030F216820F449
:10200000807041E80302002ADAD1206850E8050F09
:10201000216820F0010041E80502DAB1206850E8AB
:10202000050F216820F0010041E8050292B1206807
:1020300050E8050F216820F0010041E805024AB18F
:10204000206850E8050F216820F0010041E80502F2
:10205000002ADAD1206850E8050F216820F04000FE
:1020600041E80502DAB1206850E8050F216820F048
:10207000400041E8050292B1206850E8050F216850
:1020800020F0400041E805024AB1206850E8050F01
:10209000216820F0400041E80502002ADAD1202022
:1020A00084F8420000202063206850E8030F216874
:1020B00020F0100041E80302DAB1206850E8030F75
:1020C000216820F0100041E8030292B1206850E836
:1020D000030F216820F0100041E803024AB1206894
:1020E00050E8030F216820F0100041E80302002AA5
:1020F000DAD1E06BFEF70CFF02206063A08DE18D6A
:10210000401A81B2204674E1626C42F001026264BE
:102110004A0706D5BEF1000F03D0626C42F00202FE
:1021200062648A0706D5BEF1000F03D0626C42F0EC
:1021300004026264BCF1000F09D545EA0E02B2FA4E
:1021400082F2520903D1626C42F008026264626C4E
:10215000002A3FF41BAF11F0200118BF002D03D05F
:10216000204600F045FD20684069616C00F04000A9
:1021700001F00801401800F0B58000BF206850E869
:10218000030F216820F4907041E80302BAB320687D
:1021900050E8030F216820F4907041E8030272B305
:1021A000206850E8030F216820F4907041E8030292
:1021B0002AB3206850E8030F216820F4907041E8AA
:1021C0000302002ADAD11AE0206850E8050F2168DE
:1021D00020F0010041E80502DAB1206850E8050F5F
:1021E000216820F0010041E8050292B1206850E822
:1021F000050F216820F0010041E805024AB120687E
:1022000050E8050F216820F0010041E80502002A8E
:10221000DAD1206B012824D1206850E8030F21680F
:1022200020F0100041E80302DAB1206850E8030F03
:10223000216820F0100041E8030292B1206850E8C4
:10224000030F216820F0100041E803024AB1206822
:1022500050E8030F216820F0100041E80302002A33
:10226000DAD1202084F842000020206320684069F1
:1022700040063FD5206850E8050F216820F0400057
:1022800041E80502DAB1206850E8050F216820F026
:10229000400041E8050292B1206850E8050F21682E
:1022A00020F0400041E805024AB1206850E8050FDF
:1022B000216820F0400041E80502002ADAD1E06BF5
:1022C000C0B142F6E531C0F600014163FEF744FEBD
:1022D00000283FF45BAEE06B416B02B0BDE8B0405C
:1022E000084700BF2046FFF7DFFD0020606402B012
:1022F000B0BD00BF204602B0BDE8B040FFF7D4BD7E
:10230000401A216851E8031F226821F4907142E8C5
:102310000313DBB1216851E8031F226821F4907197
:1023200042E8031393B1216851E8031F226821F4A6
:10233000907142E803134BB1216851E8031F2268F2
:1023400021F4907142E80313002BDAD1216851E89F
:10235000051F226821F0010142E80513DBB1216865
:1023600051E8051F226821F0010142E8051393B1ED
:10237000216851E8051F226821F0010142E8051398
:102380004BB1216851E8051F226821F0010142E8A4
:102390000513002BDAD1202184F84210002121639B
:1023A000216851E8031F226821F0100142E803135D
:1023B000DBB1216851E8031F226821F0100142E8D7
:1023C000031393B1216851E8031F226821F0100123
:1023D00042E803134BB1216851E8031F226821F042
:1023E000100142E80313002BDAD1022281B2204609
:1023F000626302B0BDE8B040FFF754BD216A31F816
:10240000022B6FF35F22426021628CE5002804BF3B
:102410000120704710B5044690F8410028B900200B
:1024200084F84000204600F063F8242084F841003E
:102430002068D4E90212C36823F40053C36003691F
:1024400023F440531A430261D4E904231143C268C0
:10245000194341F20C639A431143C1604169A26977
:1024600021F44071114343F60002C4F2010290428C
:10247000416103D0FFF7FEFA02E000BFFFF70EFB59
:102480006268192148439100B0FBF1F048F21F51F6
:10249000C5F2EB11A0FB01235A094FF69C73C0F65D
:1024A000FF7302FB0300322303EB0010A0FB0101CA
:1024B000F02303EA5113206803EB0212C1F3431126
:1024C00011448160016921F490410161416921F069
:1024D0002A014161C16841F40051C16000202021FE
:1024E000606484F8411084F84210606310BD0000FD
:1024F0002DE9F04186B00446006844F60001C4F2BC
:102500000001002788420597CDE90377029769D03B
:1025100044F20041C4F20001884240F0DB8041F205
:102520001800C4F20200416840F6000541F4003191
:1025300041604168C4F2010501F400310191019943
:10254000016802AE41F004010160006840F21C081D
:1025500000F00400019001980420029002200390F2
:102560000320059028463146C4F20208FEF7C4FE57
:1025700008200290002728463146CDE90377FEF770
:10258000BBFE40F2FC0508F15000C2F200058026B7
:10259000C5E900072846C5E90276C5E90477C5E91B
:1025A0000677FEF703FE002818BFFEF73BF9E56348
:1025B0006C6240F2401508F16400C2F2000510217F
:1025C00085E883002846C5E90367C5E90577EF611B
:1025D000FEF7ECFD00284FF0260618BFFEF722F9A3
:1025E0006EE000BF41F21800C4F20200416802AE82
:1025F00041F480214160416840F21C0801F48021CF
:10260000019101990168C4F2020841F010010160D2
:102610000068314600F01000019001984FF480608E
:102620000290022003900320059040F60000C4F2BF
:10263000010000F500652846FEF75EFE4FF40060DD
:10264000CDE90207284631460497FEF755FE0420DF
:10265000C4F20100016840F2841541F0E06141F0EC
:10266000100121F02001016008F11400C2F2000500
:102670008026C5E900072846C5E90276C5E9047742
:10268000C5E90677FEF792FD002818BFFEF7CAF8E5
:10269000E5636C6240F2C815C2F20005102000210B
:1026A000C5E900802846C5E90216C5E90411C5E957
:1026B0000611FEF77BFD4FF0270608B1FEF7B2F8D2
:1026C000304600210022A5636C62FEF7B9FF304658
:1026D000FEF7A2FF06B0BDE8F081000070470000E1
:1026E0002DE9F041044690F8410020281CBF02204B
:1026F000BDE8F0810D4600294FF0010000F0AA80EE
:102700001646002A08BFBDE8F08100206064212041
:10271000984684F84100FEF711FFA684E684A1687C
:102720000646B1F5805F02D12069002862D02F46AD
:102730000025E08C002861D018F1010018D0B8F114
:10274000000F37D1216808E017F8010B4860E08CD2
:102750000138E084E08C002851D00868000673D569
:10276000002FF1D135F8020B00276FF35F20EDE762
:10277000216802E00868000609D40868000606D44B
:10278000086800065CBF08685FEA0060F2D51FB108
:1027900017F8010B05E000BF35F8020B00276FF3B7
:1027A0005F204860E08C0138E084E08C0028E4D1B0
:1027B00025E000BF216800BF0868000608D4FEF7C6
:1027C000BDFE801B404541D82168C868F4E700BFC2
:1027D00017B117F8010B04E035F8020B00276FF36F
:1027E0005F204860E08C0138E084E08C0028E3D171
:1027F00005E000BF0027E08C00289DD12168086813
:1028000040061FD4B8F1000F1ED018F101000FD1FF
:102810000868400616D40868400613D408684006C5
:1028200010D4086840064FF00000F1D50FE000BF5B
:10283000FEF784FE801B404508D82068C168006808
:102840004006F5D5002002E0FEF778FE03202021A7
:1028500084F84110BDE8F08170470000FEE70000F9
:10286000B0B584B040F2880042F20041C2F20000EC
:10287000C4F2010100254FF4807201244FF460235B
:10288000C0E90015022104730575C361826001610E
:10289000FEF7AAF9002818BFFDF7C4FF0720039030
:1028A00040F28800C2F2000001A9CDE90154FEF710
:1028B00049F8002818BFFDF7B5FF0120019002205C
:1028C000029040F28800C2F2000001A9FEF73AF837
:1028D000002818BFFDF7A6FF04B0B0BD80B582B0D8
:1028E00041F21400C4F202000168002241F001012B
:1028F00001600068012100F00100019001980B20A7
:10290000FEF79EFE0B20FEF787FE0C200021002222
:10291000FEF796FE0C20FEF77FFE0D200021002220
:10292000FEF78EFE0D20FEF777FE1020002100221C
:10293000FEF786FE1020FEF76FFE11200021002218
:10294000FEF77EFE112002B0BDE88040FEF764BEB7
:10295000F0B585B041F21800C4F20200016840F6FB
:10296000000441F0040101600168C4F2010401F0B7
:102970000401019101990168002241F00801016000
:102980000168202501F008010191019901680026E4
:1029900041F0100101600068202100F0100001905A
:1029A00001982046FEF7C4FD0195022001AD0127E4
:1029B000049020462946CDE90276FEF79DFC4FF4AF
:1029C000876001A9C1C104F580602946FEF794FC27
:1029D0004FF4E06001A9C1C120462946FEF78CFCF6
:1029E00005B0F0BD80B540F20C2044F20041C2F2C7
:1029F0000000C4F2000100234FF00C0C48F2F0720A
:102A000080E80E00C0E90333C0E905C3C361FFF7E6
:102A1000FDFC002808BF80BDBDE88040FDF702BF77
:102A200080B540F2542044F60001C2F20000C4F226
:102A3000000100234FF00C0C4FF4E13280E80E004F
:102A4000C0E90333C0E905C3C361FFF7DFFC002819
:102A500008BF80BDBDE88040FDF7E4BEFEE7000092
:102A6000FEE7000070470000704700002DE9F04FBE
:102A70008BB040F27804C2F2000460682189431CE4
:102A800040F20000C2F200004288636091421746A3
:102A900004D223889A4204D010E000BF06889642F0
:102AA0000AD14FF0000B6189C288914219D3808806
:102AB00090421DD100272AE03B463746891A6422FE
:102AC0005143FB1A91FBF3FB1BF1640FD8BF6FF06E
:102AD000630BBBF1640FA8BF93466189C288914222
:102AE000E5D2638810469A4203D100270FE000BF69
:102AF0001346891A64225143C01A91FBF0F717F16B
:102B0000640FD8BF6FF06307642FA8BF174640F665
:102B10000046C4F20106A6F5806528464FF48061A0
:102B2000FEF7F8FCB0FA80F040090A903046082120
:102B3000FEF7F0FCB0FA80F0400909903046102111
:102B4000FEF7E8FCB0FA80F04FEA501A3046202138
:102B5000FEF7E0FCB0FA80F04FEA501830464FF430
:102B60008061FEF7D7FCB0FA80F0460928464FF4A2
:102B70008071FEF7CFFCB0FA80F04FEA501928467A
:102B80004FF40071FEF7C6FC6168B0FA80F008915E
:102B9000009744090A9840F29C2501900998C2F2D6
:102BA000000542F69E72CDE9020AC0F600022846F0
:102BB00080215B46CDE90486CDF818900794FDF797
:102BC0000BFB82B240F25420C2F20000294664237B
:102BD0000BB0BDE8F04FFFF783BD0000FEF7B4BCBB
:102BE00070470000406A0021C185C184FFF75CB9CD
:102BF00081B090F84210222921D183680246B3F5B2
:102C0000805F09D152F8281F52F8183C002B63D07E
:102C100003685B680AE000BF52F8281F13B9036914
:102C2000002BF5D003685B6803F07F030B7011681D
:102C300001311160C18D01390A04C18502D001B092
:102C4000704700BF0168CA6822F02002CA60CA68E3
:102C500022F48072CA604A6922F001024A6120218E
:102C600080F8421000214163026B012A3CD10163CC
:102C7000016851E8031F026821F0100142E80313C4
:102C8000DBB1016851E8031F026821F0100142E83E
:102C9000031393B1016851E8031F026821F010018A
:102CA00042E803134BB1016851E8031F026821F0A9
:102CB000100142E80313002BDAD101680A68D2063A
:102CC00006D5002200920A68009249680091009996
:102CD000818D01B0FFF7E6B8026852686FF35F229A
:102CE00021F8022B8162A5E701B0FFF7F7BC0000D5
:102CF00040F20C20C2F20000FFF7D8B840F2542096
:102D0000C2F20000FFF7D2B8FEE7000094B0FEF771
:102D100029FC00240120CDE90F44CDE90D440E909B
:102D200010200F904FF46010022513900AA8CDE9EF
:102D30000B440494CDE902440A95CDE91154FEF701
:102D4000C1FE28B1EFF3108072B600BFFEE700BFEE
:102D50000F20CDE905054FF4806008904FF4C06066
:102D6000099005A802210794FEF7A4FD20B1EFF316
:102D7000108072B6FEE700BF022001900020039091
:102D800001A8FEF711FD28B1EFF3108072B600BF65
:102D9000FEE700BF40F60008C4F20108FFF7D8FDC7
:102DA000FFF79CFDFFF71EFEFFF75AFDFFF738FE09
:102DB00040F28805C2F200052846FDF739FD40F2D1
:102DC0007806C2F2000606F1080128460222FEF744
:102DD00013F860480DF12C0C0A905EA0D0E9055460
:102DE000071DC0698ECFCDE90F540AAD119028465A
:102DF0008CE88E00FDF7A8FA82B240F25420C2F2AD
:102E0000000029466423FFF76BFC40462021012285
:102E1000FEF78EFB6420FEF75BFA4046202100227D
:102E20000025FEF785FB6420FEF752FA404620217C
:102E30000122FEF77DFB6420FEF74AFA404620217E
:102E40000022FEF775FB6420FEF742FA404620217F
:102E50000122FEF76DFB6420FEF73AFA404620217E
:102E60000022FEF765FB6420FEF732FAC820FEF769
:102E70002FFAFDF707FC404620210122FEF758FB00
:102E80003220FEF725FA404620210022FEF750FBB3
:102E90003220FEF71DFA404620210122FEF748FBB2
:102EA0003220FEF715FA404620210022FEF740FBB3
:102EB0003220FEF70DFA404620210122FEF738FBB2
:102EC0003220FEF705FA404620210022FEF730FBB3
:102ED0003220FEF7FDF9404620210122FEF728FBB3
:102EE0003220FEF7F5F9404620210022FEF720FBB4
:102EF0003220FEF7EDF9404620210122FEF718FBB3
:102F00003220FEF7E5F9404620210022FEF710FBB3
:102F10003220FEF7DDF945F629474BF65104CCF295
:102F20008F27C0F21E5400BFFEF708FB401B142879
:102F3000FAD3FEF703FB0546FFF798FD7068784368
:102F40004FEA7000A042EFD840462021FEF7E8FA91
:102F5000EAE700BF3D3D3D2053544D3332204761E9
:102F60006D657061642053746172746564203D3DC9
:102F70003D0D0A00000000000000000001020304F3
:102F80000607080900000000010203040102020311
:102F90000405060708090A0B0C0D0E0F1010583D0A
:102FA00025643B593D25643B55503D25643B5249C2
:102FB0004748543D25643B4C4546543D25643B44BD
:102FC0004F574E3D25643B453D25643B463D2564BA
:102FD0003B4A4F59535449434B3D25643B434E5460
:102FE0003D256C750D0A0000083000080000002027
:102FF00018000000280100082030000818000020F8
:103000000809000044010008FF0F0008FF0F000836
:10301000010000001000000000127A000000000013
:04000005080000ED02
:00000001FF
