:020000040800F2
:10000000E00B002089010008191B0008111B0008E3
:10001000151B0008D1020008F11F000800000000B5
:10002000000000000000000000000000211B00088C
:10003000ED020008000000001D1B0008251B000841
:10004000A3010008A3010008A3010008A301000800
:10005000A3010008A3010008F1020008F90200084A
:10006000A3010008A301000801030008A301000880
:10007000A3010008A3010008A3010008A3010008D0
:10008000D5020008E1020008A3010008A30100084E
:10009000A3010008A3010008A3010008A3010008B0
:1000A000A3010008A3010008A3010008A3010008A0
:1000B000A3010008A3010008A3010008A301000890
:1000C000A3010008A3010008A3010008A301000880
:1000D000A3010008A3010008E51F0008A301000810
:1000E000A3010008A3010008A301000800F002F822
:1000F00000F03AF80AA090E8000C82448344AAF188
:100100000107DA4501D100F02FF8AFF2090EBAE885
:100110000F0013F0010F18BFFB1A43F0010318473B
:10012000A0440000C0440000103A24BF78C878C141
:10013000FAD8520724BF30C830C144BF04680C60ED
:10014000704700000023002400250026103A28BF35
:1001500078C1FBD8520728BF30C148BF0B60704739
:100160001FB51FBD10B510BD00F077F81146FFF7A1
:10017000F7FF02F065F800F095F803B4FFF7F2FF1F
:1001800003BC00F09DF8000009488047094800477B
:10019000FEE7FEE7FEE7FEE7FEE7FEE7FEE7FEE737
:1001A000FEE7FEE704480549054A064B7047000094
:1001B000291B0008ED000008E0050020E00B0020EE
:1001C000E0070020E007002010B5431C02E010F813
:1001D000011B71B18107FAD14FF0013202C88C1AAC
:1001E0008C4314EAC211F9D0C01A0A0603D0C01E0B
:1001F00010BDC01A10BD0A0401D0801E10BD090236
:10020000FCD0401E10BD4FF0000200B513469446CE
:100210009646203922BFA0E80C50A0E80C50B1F15E
:100220002001BFF4F7AF090728BFA0E80C5048BF72
:100230000CC05DF804EB890028BF40F8042B08BF10
:10024000704748BF20F8022B11F0804F18BF00F80C
:10025000012B7047704770477047754600F02CF8C7
:10026000AE4605006946534620F00700854618B0A3
:1002700020B5FFF797FFBDE820404FF000064FF094
:1002800000074FF000084FF0000BAC46ACE8C00987
:10029000ACE8C009ACE8C009ACE8C00921F007012E
:1002A0008D46704710B50446AFF300802046BDE888
:1002B0001040FFF762BF00000048704710000020A8
:1002C00001491820ABBEFEE726000200704700007F
:1002D000FEE7000040F20C20C2F2000000F098B8E7
:1002E00040F25020C2F2000000F092B870470000C7
:1002F000012000F059BA0000022000F055BA0000B9
:10030000102000F051BA0000EFF3108072B600BF69
:10031000FEE70000014690F82100022816D1086887
:10032000D1E90FC3026822F00E020260026822F0D7
:1003300001020260012000FA03F2CCF8042081F8E7
:1003400021000020002281F82020704704208863CB
:100350000120002281F820207047000080B590F82D
:100360002110022924D10268116821F00E011160C8
:100370002F211368C4F202018A4240F20401C4F240
:10038000020123F00103136016DD3023C4F20203DF
:100390009A421DD04423C4F202039A421CD058232F
:1003A000C4F202039A421DD14FF4803322E000BF11
:1003B00004218163012080BD0823C4F202039A4214
:1003C0000ED01C23C4F202039A420BD1102311E079
:1003D0004FF480730EE000BF4FF480530AE000BF7B
:1003E000012307E001F1680C4FF08073624508BFFC
:1003F0004FF480130B60012180F82110426B002123
:1004000080F820100AB190470021084680BD000006
:1004100010B5D0E90FCE0168DCF800300A6823FA85
:100420000EF35C072AD512F0040427D00A6892065E
:1004300003D40A6822F004020A602F22C4F20202E6
:10044000914240F20402C4F202025BDD3023C4F2A6
:100450000203994272D04423C4F20203994273D03A
:100460005823C4F20203994240F07A804FF480236B
:100470001360C16A002940F098806FE09C0727D57F
:1004800012F0020424D00A68920606D40A6822F008
:100490000A020A60012280F821202F22C4F20202FF
:1004A000914240F20402C4F202023BDD3023C4F266
:1004B0000203994260D04423C4F2020399425FD000
:1004C0005823C4F20203994260D14FF4003365E02F
:1004D0001B0743D512F0080208BF10BD0A6822F0BE
:1004E0000E020A60012101FA0EF2CCF804208163A9
:1004F00080F82110016B0022002980F8202054D1BF
:100500002CE000BF0823C4F20203994222D01C232E
:10051000C4F20203994223D140231360C16A002927
:1005200043D11BE00823C4F2020399422CD01C23C0
:10053000C4F20203994229D120232FE04FF48063B3
:100540001360C16A89BB09E04FF480431360C16A3C
:1005500059BB03E004231360C16A31BB10BD00BF67
:1005600002F168044FF08063A14208BF4FF480039A
:100570001360C16AC9B9F1E74FF400730EE000BF20
:100580004FF400530AE000BF022307E002F16804C1
:100590004FF00073A14208BF4FF400131360816A4B
:1005A0000022002980F82020D8D0BDE8104008475C
:1005B000014600284FF0010008BF70472DE9F043C5
:1005C000D1F800C04FF6F873CBF6FD734CF6CD4270
:1005D0006344CCF6CC42A3FB02236FF0030707EA87
:1005E00093030027C4F2020701F10C09C1E90F735C
:1005F0000223D1E9012E99E87002D1F81C8081F81C
:100600002130DCF8003043F6F077BB431A4342EA6E
:100610000E0222432A43324342EA090242EA080216
:10062000CCF8002000228A6381F8210081F8202084
:100630000020BDE8F0437047F0B590F820C0BCF151
:10064000010F32D04FF0010E80F820E090F821C069
:10065000BCF1010F26D14FF0020C80F821C04FF001
:10066000000CC0F838C0D0E900C4C56AC66BDCF81D
:100670000070102C27F00107CCF80070006C0EFA07
:1006800000F070600846CCF8043004BF10460A46FB
:10069000CCF80800CCF80C20DCF8000045B140F0A4
:1006A0000E000DE0002180F820100220F0BD00BFF8
:1006B00020F00400CCF80000DCF8000040F00A0054
:1006C000CCF80000DCF8000040F00100CCF800009D
:1006D0000020F0BDB0B5044600F094F9054640F2A4
:1006E0000000C2F200000078611C18BF044400BF83
:1006F00000F088F9401BA042FAD3B0BDB0B5054662
:1007000000F080F9012D044614D0102D24D0022DC4
:1007100018BFB0BD40F60000C4F20100022100F095
:100720005DF948B340F27000C2F200000021817010
:10073000B0BD00BF40F60000C4F2010000F58060CB
:100740000121012500F04AF9F0B140F27000C2F237
:10075000000000210171B0BD40F60000C4F20100AC
:10076000102100F03BF9B8B140F27000C2F2000075
:100770000021C170B0BD00BF40F27000C2F20000A5
:10078000012181708462B0BD40F27000C2F20000AD
:100790000571C462B0BD00BF40F27000C2F200003B
:1007A0000121C1708462B0BD40F21441C4F2010164
:1007B0000A68024214BF08607047FFF79FBF00003D
:1007C0002DE9F04F82B00E68002E00F0038141F257
:1007D0000042C4F20102042340F2004E904208BFDE
:1007E00003234FF6FF7CC4F2010E00930024012383
:1007F000C1F2100C4FF0000A4FF0000949E000BFB1
:10080000012704F00C030F229A402BEA020207FA98
:1008100003F34FEA9A051A4346F82520D1F804B0AD
:1008200040F20C455FEACB22DEF8082054BF22EAF2
:10083000080242EA0802C4F20105CEF808202A683C
:100840005FEA8B2354BF22EA080242EA08022A60C8
:100850005FEA8B33DEF8042054BF22EA080242EA42
:1008600008025FEACB33CEF80420DEF800204FF018
:10087000010354BF22EA080242EA0802CEF800202F
:100880000E680AF1010A36FA0AF204F1040400F0D3
:10089000A18003FA0AF816EA080FF1D04E686645FF
:1008A00012DC122E56D8DFE806F0350B45495555B7
:1008B00055555555555555555555554D510000BF34
:1008C000D1F80C9046E000BF4FF6FF72C1F2210252
:1008D00096420FDC0022C1F2110296421AD0002289
:1008E000C1F21202964215D00022C1F221029642B4
:1008F00010D02FE00022C1F2220296420AD000223C
:10090000C1F23102964205D00022C1F23202964273
:1009100020D100BF8A684AB1012A14BFC0F81480F0
:10092000C0F810804FF0080914E000BF4FF0040930
:1009300010E000BFCA6802F108090BE04FF000099F
:1009400008E000BFCA6802F1040903E0CA6802F1C6
:100950000C0900BF22460646BAF1080F24BF203A10
:10096000043637680F25954027EA050509FA02F293
:100970002A433260CA79D2067FF582AF41F218036A
:10098000C4F202031A68AEF57E7642F001021A60E4
:100990001A6802F001020192019A2AF0030256F845
:1009A00002B040F60002C4F20102904210D040F6BC
:1009B0000042C4F2010290423FF422AF41F2000231
:1009C000C4F20102009F904208BF022719E700BF4E
:1009D000002716E702B0BDE8F08F000080680840ED
:1009E00018BF012070470000C26802EA010391436A
:1009F00041EA034101617047002A08BF090401610F
:100A00007047000040F2DC50C2F2000000687047FE
:100A100040F2000040F2DC51C2F20000C2F20001DC
:100A200000780A68104408607047000080B542F200
:100A30000000C4F20200016841F0100101600320CF
:100A400000F08EF8002000F005F800F027F80020F4
:100A500080BD000070B540F20006C2F2000640F210
:100A600008013278C2F200014FF47A730968B3FBCF
:100A7000F2F20446B1FBF2F1084600F063FB0F2CE2
:100A80004FF0010508D838B94FF0FF302146002259
:100A9000002500F039F87460284670BD82B041F23C
:100AA0001800C4F202000168042241F00101016053
:100AB000016801F0010101910199416841F0805103
:100AC0004160406800F08050009000980420C4F21B
:100AD0000100016862F31A61016002B07047000012
:100AE000002848BF7047C1B200F01F00012202FA7F
:100AF00000F04EF20012CEF2000242EAD10121F0E3
:100B0000030108607047000010B54EF60C5CCEF291
:100B1000000CDCF80030C3F3022E8EF00704042C26
:100B200028BF0424BEF103034FF0FF3E0EFA04F485
:100B300038BF0023A14399400EFA03F39A431143AF
:100B400000F00F0200F160430901043A03F5644329
:100B50006244002848BF02F10C03197010BD000068
:100B60004EF60C51CEF200010A684FF6FF031A4010
:100B700060F30A2242F0806040F0FD700860704728
:100B80002DE9F04381B0002800F0858042F2000892
:100B9000C4F202080446D8F800000D4600F0070031
:100BA00088420CD2D8F8000020F007002843C8F88B
:100BB0000000D8F8000000F00700A8426BD12068C0
:100BC00041F204098107C4F2020917D5410705D58E
:100BD000D9F8001041F4E061C9F80010010705D50B
:100BE000D9F8001041F46051C9F80010D9F800108C
:100BF000A26821F0F0011143C9F80010C00741D1EB
:100C0000D8F8000000F00700A8420CD9D8F800007E
:100C100020F007002843C8F80000D8F8000000F0D2
:100C20000700A84237D12068410707D5D9F800103E
:100C3000E26821F4E0611143C9F80010000708D50B
:100C4000D9F80000216920F4605040EAC100C9F8D9
:100C50000000D9F8002002F00C00082841F2002022
:100C6000C0F27A0050D144F29853C2F38341C0F6E7
:100C70000003595CD2033BD440F60010C0F23D00A3
:100C8000484341E0606802280AD001282AD159F877
:100C9000041C890308D4012001B0BDE8F08300BF23
:100CA00059F8041C8901F6D5D9F8001021F0030188
:100CB0000843C9F80000FFF7A5FE064641F2883751
:100CC000D9F80000616800F00C00B0EB810F97D0FC
:100CD000FFF798FE801BB842F2D9032001B0BDE8AF
:100CE000F08300BF59F8041C8907D4D5DCE700BFA6
:100CF000D9F8002044F29653C2F34042C0F60003F4
:100D00009A5C4843B0FBF2F0D9F8001044F27E52EE
:100D1000C1F30311C0F60002515C40F2080220FA50
:100D200001F140F20400C2F200000068C2F20002C9
:100D30001160FFF78FFE002001B0BDE8F0830000D6
:100D400040F2080041F20401C2F20000C4F20201C4
:100D50000068096844F28E52C1F30221C0F6000215
:100D6000515CC8407047000040F2080041F20401A5
:100D7000C2F20000C4F202010068096844F28E5217
:100D8000C1F3C221C0F60002515CC84070470000A8
:100D90002DE9F04182B0002868D00446007841F285
:100DA0000006C007C4F2020625D0706800F00C00EF
:100DB00004281BD0706800F00C00082802D170686D
:100DC000C00313D46068002800F06881B0F5A02F3C
:100DD00000F07C81B0F5803F00F07C81306820F429
:100DE00080303060306820F4802076E13068800305
:100DF00001D56068D0B32078800718D5706810F0EE
:100E00000C0F07D0706800F00C0008286ED17068D5
:100E1000C0036BD43068800702D52069012825D132
:100E20003068616920F0F80040EAC1003060207845
:100E300000071FD42078400732D4E56995B1706867
:100E400000F00C00082840F08F80012D0ED0706853
:100E5000216A00F480328A4208D1616A00F470107D
:100E6000884203D1002002B0BDE8F081012002B029
:100E7000BDE8F081A069002862D00020C4F24220C1
:100E80000121C0F88014FFF7BDFD0546706A800798
:100E900000F18C80FFF7B6FD401B0228F6D92AE14D
:100EA000F06910F0805808D1F06940F08050F0618E
:100EB000F06900F080500090009847F20007C4F2FB
:100EC00000073868C00529D4386840F4807038605D
:100ED000FFF798FD054600BF3868C0051ED4FFF730
:100EE00091FD401B6428F7D905E100BF2069002867
:100EF00040F20000C4F2422000F082800121016033
:100F0000FFF780FD054600BF306880073FF588AFDA
:100F1000FFF778FD401B0228F6D9ECE0E0680028D6
:100F200000F08080052800F09780012800F098806C
:100F3000306A20F001003062306A20F0040092E054
:100F40000020C4F242200021C0F88014FFF75AFDAF
:100F5000054600BF706A80077FF56CAFFFF752FD52
:100F6000401B0228F6D9C6E00027C4F24227002021
:100F70003866FFF747FD022D05460BD1306880012A
:100F800040F1BE80FFF73EFD401B02284FF00300FA
:100F9000F4D968E7306880017FF564AFFFF732FD70
:100FA000401B02284FF00300F4D95CE740F2080030
:100FB000C2F20000006844F6D351C1F26201A0FB06
:100FC0000101480A019000BF00BF0198411E00289E
:100FD00001913FF42FAF00BF0198411E00280191FD
:100FE0003FF428AF00BF0198411E002801913FF453
:100FF00021AF00BF0198411E00280191E4D119E7FB
:1010000000210160FFF7FEFC054600BF3068800745
:101010007FF50DAFFFF7F6FC401B02284FF00300F1
:10102000F4D920E7306A20F001003062306A20F005
:1010300004003062FFF7E6FC054641F2883700BF46
:10104000306A800720D5FFF7DDFC401BB8424FF027
:101050000300F5D907E700BF306A40F004003062B2
:10106000306A40F001003062FFF7CCFC054641F2E7
:10107000883700BF306A800706D4FFF7C3FC401BE7
:10108000B842F7D937E000BFB8F1000F7FF4D5AE12
:10109000F06920F08050F061CFE600BF306820F4A6
:1010A00080303060306820F480203060FFF7AAFC88
:1010B000054600BF306880037FF59DAEFFF7A2FCB8
:1010C000401B64284FF00300F4D9CCE6306840F4AC
:1010D00080203060306840F480303060FFF792FC50
:1010E000054600BF306880033FF585AEFFF78AFCF8
:1010F000401B6428F6D9032002B0BDE8F08100BF90
:10110000206AB0F5803F05D17168A26821F40031F2
:10111000114371607168626A21F4741111430843CC
:10112000706001203866FFF76DFC0446306880016E
:101130003FF598AEFFF766FC001B02284FF0030056
:10114000F4D990E6411E0020B0EB116F1CBF0120C6
:1011500070474EF21002CEF2000251604EF623515B
:10116000CEF20001F0230B700721906011607047F0
:1011700070470000006844F20041C4F20001884258
:1011800018BF704740F2700C40F2942040F2DC210E
:10119000C2F2000C0023C2F20000C2F200014FF4C0
:1011A00000728CF8003000F08FBB0000B0B582B048
:1011B000044600680168C368426901F02F05202DCC
:1011C00003F0200506D12DB1204602B0BDE8B040A5
:1011D00000F088BE5FEA017C1EBF02F0010E03F43E
:1011E000907212EB0E0253D1226B012A05D111F03D
:1011F000100218BF13F0100236D10A0622D513F0E0
:1012000080021FD094F8411021293FD1A168B1F587
:10121000805F03D12169002900F07082216A4A1C95
:10122000226209784160E18C01390A04E1842DD100
:10123000C16821F08001C160C16841F04001C16016
:1012400002B0B0BD490621D513F040011ED0C168DF
:1012500021F04001C1602021204684F8411002B0F5
:10126000BDE8B04000F042BC00210191016801914D
:101270004168019101994069400613D4A08DE18D28
:10128000E28D002A18BF884240F0BA8102B0B0BD9A
:10129000CA0718BF13F4807240F0B6804A0700F105
:1012A000B980BEE0E06B016849688AB2002AEDD0DF
:1012B000A38D9A42EAD2E1858069202800F09C80C3
:1012C000206850E8030F216820F4807041E8030291
:1012D000DAB1206850E8030F216820F4807041E8FB
:1012E000030292B1206850E8030F216820F4807057
:1012F00041E803024AB1206850E8030F216820F456
:10130000807041E80302002ADAD1206850E8050F16
:10131000216820F0010041E80502DAB1206850E8B8
:10132000050F216820F0010041E8050292B1206814
:1013300050E8050F216820F0010041E805024AB19C
:10134000206850E8050F216820F0010041E80502FF
:10135000002ADAD1206850E8050F216820F040000B
:1013600041E80502DAB1206850E8050F216820F055
:10137000400041E8050292B1206850E8050F21685D
:1013800020F0400041E805024AB1206850E8050F0E
:10139000216820F0400041E80502002ADAD120202F
:1013A00084F8420000202063206850E8030F216881
:1013B00020F0100041E80302DAB1206850E8030F82
:1013C000216820F0100041E8030292B1206850E843
:1013D000030F216820F0100041E803024AB12068A1
:1013E00050E8030F216820F0100041E80302002AB2
:1013F000DAD1E06BFEF78EFF02206063A08DE18DF5
:10140000401A81B2204674E1626C42F001026264CB
:101410004A0706D5BEF1000F03D0626C42F002020B
:1014200062648A0706D5BEF1000F03D0626C42F0F9
:1014300004026264BCF1000F09D545EA0E02B2FA5B
:1014400082F2520903D1626C42F008026264626C5B
:10145000002A3FF41BAF11F0200118BF002D03D06C
:10146000204600F03FFD20684069616C00F04000BC
:1014700001F00801401800F0B58000BF206850E876
:10148000030F216820F4907041E80302BAB320688A
:1014900050E8030F216820F4907041E8030272B312
:1014A000206850E8030F216820F4907041E803029F
:1014B0002AB3206850E8030F216820F4907041E8B7
:1014C0000302002ADAD11AE0206850E8050F2168EB
:1014D00020F0010041E80502DAB1206850E8050F6C
:1014E000216820F0010041E8050292B1206850E82F
:1014F000050F216820F0010041E805024AB120688B
:1015000050E8050F216820F0010041E80502002A9B
:10151000DAD1206B012824D1206850E8030F21681C
:1015200020F0100041E80302DAB1206850E8030F10
:10153000216820F0100041E8030292B1206850E8D1
:10154000030F216820F0100041E803024AB120682F
:1015500050E8030F216820F0100041E80302002A40
:10156000DAD1202084F842000020206320684069FE
:1015700040063FD5206850E8050F216820F0400064
:1015800041E80502DAB1206850E8050F216820F033
:10159000400041E8050292B1206850E8050F21683B
:1015A00020F0400041E805024AB1206850E8050FEC
:1015B000216820F0400041E80502002ADAD1E06B02
:1015C000C0B141F62D31C0F600014163FEF7C6FE01
:1015D00000283FF45BAEE06B416B02B0BDE8B04069
:1015E000084700BF2046FFF7C5FD0020606402B039
:1015F000B0BD00BF204602B0BDE8B040FFF7BABDA5
:10160000401A216851E8031F226821F4907142E8D2
:101610000313DBB1216851E8031F226821F49071A4
:1016200042E8031393B1216851E8031F226821F4B3
:10163000907142E803134BB1216851E8031F2268FF
:1016400021F4907142E80313002BDAD1216851E8AC
:10165000051F226821F0010142E80513DBB1216872
:1016600051E8051F226821F0010142E8051393B1FA
:10167000216851E8051F226821F0010142E80513A5
:101680004BB1216851E8051F226821F0010142E8B1
:101690000513002BDAD1202184F8421000212163A8
:1016A000216851E8031F226821F0100142E803136A
:1016B000DBB1216851E8031F226821F0100142E8E4
:1016C000031393B1216851E8031F226821F0100130
:1016D00042E803134BB1216851E8031F226821F04F
:1016E000100142E80313002BDAD1022281B2204616
:1016F000626302B0BDE8B040FFF73ABD216A31F83D
:10170000022B6FF35F22426021628CE5002804BF48
:101710000120704710B5044690F8410028B9002018
:1017200084F84000204600F063F8242084F841004B
:101730002068D4E90212C36823F40053C36003692C
:1017400023F440531A430261D4E904231143C268CD
:10175000194341F20C639A431143C1604169A26984
:1017600021F44071114343F60002C4F20102904299
:10177000416103D0FFF7E4FA02E000BFFFF7F4FA9B
:101780006268192148439100B0FBF1F048F21F5103
:10179000C5F2EB11A0FB01235A094FF69C73C0F66A
:1017A000FF7302FB0300322303EB0010A0FB0101D7
:1017B000F02303EA5113206803EB0212C1F3431133
:1017C00011448160016921F490410161416921F076
:1017D0002A014161C16841F40051C160002020210B
:1017E000606484F8411084F84210606310BD00000A
:1017F0002DE9F04186B0044644F200402168C4F26D
:10180000000000268142049602D006B0BDE8F081B7
:1018100041F21801C4F202014A6840F26C0842F435
:1018200000324A604A6800F5444002F400320192F6
:10183000019A0A68C4F2020842F004020A600968C8
:1018400001F00401019101990C21029102210391FF
:10185000059102A9FEF7B4FF40F20C25C2F2000583
:1018600080272846C5E90086C5E90267C5E9046600
:10187000C5E90666FEF79CFE002818BFFEF744FD8A
:10188000E5636C6240F2502508F11400C2F20005D5
:101890001021002285E887002846C5E90422C5E911
:1018A0000622FEF785FE002818BFFEF72DFD262034
:1018B00000210022A5636C62FFF726F92620FFF7BE
:1018C0000FF906B0BDE8F08170B582B0044690F81B
:1018D000420020280AD113460A4600294FF0010091
:1018E00018BF002B06D102B070BD00BF022002B0AD
:1018F00070BD00BF002522202563A262A385656418
:1019000084F842002168E06B41F6B54C41F6156E53
:1019100041F63936C0F6000CC0F6000EC0F60006DF
:101920000431C0E90ACEC0E90C65FEF785FE0195D9
:10193000206801680191406801900198206928B3EE
:10194000206850E8030F216840F4807041E80302EA
:10195000E2B1206850E8030F216840F4807041E84C
:1019600003029AB1206850E8030F216840F48070A8
:1019700041E8030252B1206850E8030F216840F4A7
:10198000807041E80302002ADAD100BF206850E8E5
:10199000050F216840F0010041E80502E2B120682E
:1019A00050E8050F216840F0010041E805029AB1B6
:1019B000206850E8050F216840F0010041E8050269
:1019C00052B1206850E8050F216840F0010041E85D
:1019D0000502002ADAD100BF206850E8050F21680F
:1019E00040F0400041E80502DAB1206850E8050FF8
:1019F000216840F0400041E8050292B1206850E8BB
:101A0000050F216840F0400041E805024AB1206816
:101A100050E8050F216840F0400041E80502002A27
:101A2000DAD1002002B070BD70470000704700009E
:101A300070B5044690F8410020281CBF022070BDFC
:101A400000294FF001004DD0002A134608BF70BD99
:101A50004FF0000C21202162A384E384C4F844C029
:101A600084F841002268A06B41F62D6E41F6DD65D9
:101A700041F63936C0F6000EC0F60005C0F6000685
:101A80000432C0E90AE5C0E90C6CFEF7D5FD206818
:101A90006FF04001016000BF206850E8050F216829
:101AA00040F0800041E80502F2B1206850E8050FDF
:101AB000216840F0800041E80502AAB1206850E8A2
:101AC000050F216840F0800041E8050262B12068FE
:101AD00050E8050F216840F0800041E80502002A27
:101AE000DAD1002070BD00BF002070BD006844F254
:101AF0000041C4F20001884218BF704740F27000F4
:101B0000C2F2000000210170704700007047000021
:101B1000FEE70000FEE70000FEE70000704700005F
:101B200070470000FEF774BF70470000406A002154
:101B3000C185C184FFF71EBB406A01684A6990F8FD
:101B40004130212B2DD112F080022AD00021C184F6
:101B5000016851E8031F026821F0C00142E8031345
:101B6000DBB1016851E8031F026821F0C00142E8BF
:101B7000031393B1016851E8031F026821F0C0010B
:101B800042E803134BB1016851E8031F026821F0DA
:101B9000C00142E80313002BDAD1202180F8411064
:101BA0000168496990F84220222A40F07D8011F0B6
:101BB000400179D00021C185016851E8031F026806
:101BC00021F4907142E80313BBB3016851E8031F8D
:101BD000026821F4907142E8031373B3016851E87D
:101BE000031F026821F4907142E803132BB30168CC
:101BF00051E8031F026821F4907142E80313002B9F
:101C0000DAD11AE0016851E8051F026821F00101EC
:101C100042E80513DBB1016851E8051F026821F0B5
:101C2000010142E8051393B1016851E8051F0268FC
:101C300021F0010142E805134BB1016851E8051F8D
:101C4000026821F0010142E80513002BDAD1016B93
:101C5000012924D1016851E8031F026821F0100115
:101C600042E80313DBB1016851E8031F026821F069
:101C7000100142E8031393B1016851E8031F0268A1
:101C800021F0100142E803134BB1016851E8031F32
:101C9000026821F0100142E80313002BDAD1202161
:101CA00080F8421000210163416C41F01001416451
:101CB000FFF760BA0168406A0968890600F19F80F1
:101CC0000021C185016851E8031F026821F4807179
:101CD00042E80313E3B1016851E8031F026821F4ED
:101CE000807142E803139BB1016851E8031F026849
:101CF00021F4807142E8031353B1016851E8031FD6
:101D0000026821F4807142E80313002BDAD100BF8E
:101D1000016851E8051F026821F0010142E805133E
:101D2000BBB3016851E8051F026821F0010142E8D8
:101D3000051373B3016851E8051F026821F0010122
:101D400042E805132BB3016851E8051F026821F032
:101D5000010142E80513002BDAD11AE0016851E8CD
:101D6000051F026821F0400142E80513DBB101685C
:101D700051E8051F026821F0400142E8051393B1C4
:101D8000016851E8051F026821F0400142E805138F
:101D90004BB1016851E8051F026821F0400142E89B
:101DA0000513002BDAD1202180F84210016B0129A4
:101DB00025D100BF016851E8031F026821F010011E
:101DC00042E80313DBB1016851E8031F026821F008
:101DD000100142E8031393B1016851E8031F026840
:101DE00021F0100142E803134BB1016851E8031FD1
:101DF000026821F0100142E80313002BDAD1002120
:101E00004163016B012918BFFFF70EBE818DFFF7FB
:101E1000AFB90000406A01214163016B012918BF7D
:101E2000FFF704BE818D4908FFF7A2B90168406A37
:101E30000968890648BFFFF759BE0021C18400BF69
:101E4000016851E8051F026821F0800142E805138E
:101E500083B3016851E8051F026821F0800142E860
:101E600005133BB3016851E8051F026821F08001AA
:101E700042E80513F3B1016851E8051F026821F03B
:101E8000800142E80513002BDAD113E0016851E824
:101E9000031F026841F0400142E80313002B08BF12
:101EA0007047016851E8031F026841F0400142E8B1
:101EB000031393B1016851E8031F026841F0400128
:101EC00042E803134BB1016851E8031F026841F077
:101ED000400142E80313002BD8D17047406AFFF756
:101EE00015BE000081B090F84210222921D18368EC
:101EF0000246B3F5805F09D152F8281F52F8183C0A
:101F0000002B63D003685B680AE000BF52F8281F0B
:101F100013B90369002BF5D003685B6803F07F03F6
:101F20000B70116801311160C18D01390A04C1853E
:101F300002D001B0704700BF0168CA6822F02002D9
:101F4000CA60CA6822F48072CA604A6922F001023B
:101F50004A61202180F8421000214163026B012A6E
:101F60003CD10163016851E8031F026821F01001B0
:101F700042E80313DBB1016851E8031F026821F056
:101F8000100142E8031393B1016851E8031F02688E
:101F900021F0100142E803134BB1016851E8031F1F
:101FA000026821F0100142E80313002BDAD1016826
:101FB0000A68D20606D5002200920A680092496893
:101FC00000910099818D01B0FFF7D2B80268526884
:101FD0006FF35F2221F8022B8162A5E701B0FFF7C2
:101FE00023BD000040F29420C2F20000FFF7DEB8EB
:101FF000FEE7000070B540F27006C2F200063346FC
:1020000013F8432F002A4FF0000213D0334613F881
:10201000494F8CB1334613F84F4F7CB1334613F818
:10202000554F6CB1334613F85B4F002C18BF70BD91
:10203000042406E0002404E0012402E0022400E07D
:10204000032404EB440406EB440401251D70E087DF
:10205000A4F8401084F8422032780AB170BD00BF65
:1020600040F2DC4CC2F2000C40F2AA421FFA81FEA0
:10207000ACF8002082B24FEA1E25130A8CF80450F7
:1020800038258CF802308CF803008CF805100028F5
:1020900048BF3F2585EA43056CB26A000723002C40
:1020A00048BF83EA450254B25500002C48BF83EA7A
:1020B00042056AB26C00002A48BF83EA450462B256
:1020C0006500002A48BF83EA44056AB26C00002A12
:1020D00048BF83EA450462B26500002A48BF83EA2C
:1020E00044056AB26C00002A48BF83EA4504604098
:1020F00042B24400002A48BF83EA400460B2620052
:10210000002848BF83EA440250B25400002848BF68
:1021100083EA420460B26200002848BF83EA4402B6
:1021200050B25400002848BF83EA420460B2620003
:10213000002848BF83EA440250B25400002848BF38
:1021400083EA420460B26200002848BF83EA440286
:1021500082EA1E2042B24500002A48BF83EA4005B9
:1021600068B26A00002848BF83EA450250B25500B1
:10217000002848BF83EA420568B26A00002848BFC9
:1021800083EA450250B25500002848BF83EA420561
:1021900068B26A00002848BF83EA450250B2550081
:1021A000002848BF83EA420568B26A00002848BF99
:1021B00083EA450282EA010041B24200002948BF99
:1021C00083EA400250B25100002848BF83EA42012E
:1021D00048B24A00002848BF83EA410250B2510089
:1021E000002848BF83EA420148B24A00002848BF9D
:1021F00083EA410250B25100002848BF83EA4201FD
:1022000048B24A00002848BF83EA410250B2510058
:1022100000284FF0550048BF83EA42018CF80700C0
:1022200040F294208CF80610C2F2000061460822A9
:10223000FFF7FEFB002804BF0120307070BD0000D6
:1022400092B0FEF7F3FB00240120CDE90D44CDE967
:102250000B440C9010200D904FF46010022511904B
:1022600008A8CDE909440895CDE90F54FEF790FD83
:1022700020B1EFF3108072B6FEE700BF0F20CDE96A
:1022800003054FF48060CDE9060403A802210594FC
:10229000FEF776FC20B1EFF3108072B6FEE700BFC8
:1022A0004FF0000941F21805CDF82C90C4F2020558
:1022B000286840F6004A40F0040028602868C4F20C
:1022C000010A00F00400039003982868AAF58068CA
:1022D00040F00800286028684FF4707100F0080092
:1022E0000390039840460022FEF786FB50460821E3
:1022F00001220126FEF780FB504660210022FEF7F6
:102300007BFB1220002708AC0890C1F231074FF088
:10231000020B404621460997CDF828B0FEF750FA47
:10232000C02008A981E8410A40462146FEF748FA44
:1023300008A880E8C00850462146FEF741FA4FF44D
:10234000407008A981E8410840462146CDF82CB0EC
:10235000FEF736FA08200890112009A981E8010A41
:10236000504621460126FEF72BFA202008A981E8D5
:10237000410850462146CDF82CB0FEF721FA402006
:1023800008A981E8410A50462146FEF719FA0620BD
:1023900000210022FEF7B8FB0620FEF7A1FB072074
:1023A000002100224FF0070BFEF7AEFB0720FEF7DF
:1023B00097FB0A2000210022FEF7A6FB0A20FEF769
:1023C0008FFB55F8040C002140F0010045F8040C87
:1023D00055F8040C002200F0010008900898102025
:1023E000FEF792FB1020FEF77BFB1120002100225C
:1023F000FEF78AFB1120FEF773FB40F29420AAF54A
:102400004841C2F200000C234FF4E13280E806029A
:10241000C0E90399C0E90539C0F81C90FFF776F9C7
:1024200020B1EFF3108072B6FEE700BF6420CDF854
:1024300004806424FEF74EF940F2942040F2DC213F
:10244000C2F20000C2F200014FF40072FFF73CFA42
:10245000564640F2700840F2301A0120C2F20008DD
:102460004FF4C871C2F2000AA8F8121088F80600EA
:102470005046782188F8084088F80A90FDF7C3FE96
:1024800040F2CC00C2F200006421FDF7BCFE40F235
:10249000A810C2F200006421FDF7B5FE30464021CD
:1024A0000122A8F85A90C8F85690C8F85290C8F877
:1024B0004E90C8F84A90C8F84690C8F84290C8F8BC
:1024C0003E90A8F81090FEF797FA0FF6E41001F08E
:1024D00075FEFEF797FAC8F81C00FEF793FAC8F8E5
:1024E0002000FEF78FFA0146C8F824100EE000BF66
:1024F000002800F0CD83C8F8201000BFD8F82400D1
:10250000081A00097C2888BFC8F82410FEF77AFA58
:1025100040F20C21C2F2000109684A68B8F8143090
:10252000C2F5007297B2BB42029000F0C88098F8E2
:102530000B0040F2DC24C2F2000415E0012088F810
:102540000B0088F80D90B8F814100131A8F8141099
:10255000B8F81410B1F5007F28BFA8F81490B8F8A7
:102560001410B94200F0A680B8F814100028615C7D
:1025700008BFAA29E2D0022808D00128E3D102200E
:1025800088F80C1088F80B00DDE700BF98F80D30D4
:1025900098F80C20581C4344102A88F80D0083F842
:1025A00034100DD0112A40F08180C0B2022804D32B
:1025B00098F83510552900F0798003283CD375E050
:1025C000C0B2072836D398F83A10552932D156466A
:1025D00016F8095FB8F8343098F8360098F837C024
:1025E00098F8382055B3564616F8155F45B3564649
:1025F00016F8215F35B3564616F82D5F25B35646BB
:1026000016F8395F15B3564616F8455F05B35646BA
:1026100016F8515FF5B1564616F85D5FE5B15646BE
:1026200016F8695FD5B1564616F8755F002D3DD195
:10263000092514E0082839D2022084E700250EE09D
:1026400001250CE002250AE0032508E0042506E048
:10265000052504E0062502E0072500E008251BBA51
:1026600005EB450501211B0C0AEB850431706FF069
:1026700013012AF82530A1F11E03207200284FF023
:102680002800638084F804C0627108BF1420A07120
:10269000E0713C20A07240F60040C4F201004021ED
:1026A000FEF7A2F940F2DC24C2F20004002088F810
:1026B0000B0048E740F20C20C2F2000001684968B4
:1026C000B8F81420B8F81430C1F5007087B2C61AF3
:1026D0001944974238BFC1F58066B1B2B1F5E67FC3
:1026E00040F2CE80A8F8140098F80000002840F0CE
:1026F000C78040F2DC45C2F2000540F2AA302880D3
:1027000045F65200C6F62070C5F8020046F2765033
:10271000C6F27260C5F8060046F66640C7F26F70F2
:10272000C5F809000020002329184F788A787B40DB
:102730005FB25E00C978002F48BF8BEA430673B2D0
:102740007700002B48BF8BEA46077BB27E00002B48
:1027500048BF8BEA470673B27700002B48BF8BEA6D
:1027600046077BB27E00002B48BF8BEA470673B258
:102770007700002B48BF8BEA46077BB27E00002B18
:1027800048BF8BEA470673B27700002B48BF8BEA3D
:1027900046077A4053B25700002B48BF8BEA4207E6
:1027A0007AB27B00002A48BF8BEA47035AB25F0027
:1027B000002A48BF8BEA43077AB27B00002A48BF51
:1027C0008BEA47035AB25F00002A48BF8BEA4307EF
:1027D0007AB27B00002A48BF8BEA47035AB25F00F7
:1027E000002A48BF8BEA43077AB27B00002A48BF21
:1027F0008BEA470359404AB24B00002A48BF8BEA94
:10280000410359B25A00002948BF8BEA430251B232
:102810005300002948BF8BEA420359B25A000029ED
:1028200048BF8BEA430251B25300002948BF8BEAEC
:10283000420359B25A00002948BF8BEA430251B201
:102840005700002948BF8BEA420779B27B00002974
:1028500000F1030048BF8BEA47030C287FF464AF04
:102860005520A87340F29420C2F2000029460F229E
:102870006B73FFF7DDF8002804BF012088F8000023
:10288000B8F8100042F2C502C1085143090DCD222B
:102890004A43D20A02EB8202A1EB4201820841F2D2
:1028A0007B435A43520C4CF6CD4702FB07F3DB0C3B
:1028B00003EB8303A2EB430283B27B43DB0C5F4356
:1028C000FF0C07EB8707A3EB470703EB8303A0EBA2
:1028D000430044F2A853C9B2C0F60003595C92B257
:1028E000BFB280B29A5C88F81610D95D185C0025DA
:1028F00088F8172088F8181088F81900FEF782F871
:10290000D8F830100746401A022827D398F80E004E
:10291000012208EB0001897D02FA00F481F0FF003A
:1029200001F08EFDE0B201F08BFD40F60044C4F2F0
:102930000104204620210122FEF75EF820462021D6
:102940000022FEF759F898F80E000130C1B20329B1
:1029500088BF002088F80E00C8F83070FEF752F8E3
:1029600098F801108146032900F29A8040F2CC0EBB
:1029700001296FF0130CC2F2000E00F0878298F864
:10298000020001280FD1D8F82800A9EB00009728F1
:1029900009D398F80F00421E002808BF032288F8C8
:1029A0000F20C8F8289098F80300012810D1D8F813
:1029B0002800A9EB000097280AD398F80F000130EF
:1029C000C2B2032A88BF002088F80F00C8F82890F8
:1029D00098F80400012800F05782D8F82C0000284D
:1029E00000F05282A9EB000080087C28C8F82C5027
:1029F00000F24A8298F80F00032800F24582DFE8CF
:102A000010F0050057007B00410100BF002940F095
:102A10003B824FF4C870A8F812006420012688F8A1
:102A2000080000245046782188F8066088F80A409B
:102A3000FDF7E9FB40F2CC00C2F200006421FDF793
:102A4000E2FB40F2A810C2F200006421FDF7DBFBBC
:102A5000019840210122A8F85A40C8F85640C8F809
:102A60005240C8F84E40C8F84A40C8F84640C8F836
:102A70004240C8F83E400025A8F8104088F80160A0
:102A8000FDF7BAFF44F2B450C0F6000001F096FB27
:102A900040F2CC0EC2F2000E6FF0130CF4E100BF56
:102AA00040F2CC0E6FF0130CC2F2000EEEE100BF4C
:102AB000022940F0E981012088F8010098F800001F
:102AC000002840F0E18140F2DC41C2F2000140F216
:102AD000AA30088046F25250C7F27350C1F8020083
:102AE00046F26D50C5F21250C1F8060040F2942033
:102AF000C2F200000A22BAE14FF4C870A8F812002E
:102B00006420012688F8080000245046782188F8BF
:102B1000066088F80A40FDF776FB40F2CC00C2F26E
:102B200000006421FDF76FFB40F2A810C2F2000024
:102B30006421FDF768FB019840210122A8F85A4062
:102B4000C8F85640C8F85240C8F84E40C8F84A4045
:102B5000C8F84640C8F84240C8F83E400025A8F8EA
:102B6000104088F80160FDF747FF98F8000040F238
:102B7000CC0EC2F2000E6FF0130C002840F08481DE
:102B800040F2DC46C2F2000640F2AA30308046F243
:102B90004710C6F26D50C6F8020045F22030C6F26A
:102BA0007410C6F8060047F27240708100200022BF
:102BB00031184B785A4053B25700002B48BF8BEA6C
:102BC00042077AB27B00002A48BF8BEA47035AB219
:102BD0005F00002A48BF8BEA43077AB27B00002AD5
:102BE00048BF8BEA47035AB25F00002A48BF8BEA0E
:102BF00043077AB27B00002A48BF8BEA47035AB2E8
:102C00005F00002A48BF8BEA43077BB27A00002BA3
:102C100048BF8BEA47020A2800F0208189780230F9
:102C200051404AB24B00002A48BF8BEA410359B2D7
:102C30005A00002948BF8BEA430251B253000029D1
:102C400048BF8BEA420359B25A00002948BF8BEAB9
:102C5000430251B25300002948BF8BEA420359B2E4
:102C60005A00002948BF8BEA430251B253000029A1
:102C700048BF8BEA420359B25A00002948BF8BEA89
:102C8000430295E7002088F8010088F80F00C7E1AB
:102C900040F2DC46C2F2000640F2AA203080B8F8CA
:102CA000100098F80F10030A33711C23B270F170F2
:102CB0007071002A48BF1B2383EA420253B25700B7
:102CC000002B48BF8BEA42077AB27B00002A48BF3C
:102CD0008BEA47035AB25F00002A48BF8BEA4307DA
:102CE0007AB27B00002A48BF8BEA47035AB25F00E2
:102CF000002A48BF8BEA43077AB27B00002A48BF0C
:102D00008BEA47035AB25F00002A48BF8BEA4307A9
:102D100079404AB24B00002A48BF8BEA410359B2BE
:102D20005A00002948BF8BEA430251B253000029E0
:102D300048BF8BEA420359B25A00002948BF8BEAC8
:102D4000430251B25300002948BF8BEA420359B2F3
:102D50005A00002948BF8BEA430251B253000029B0
:102D600048BF8BEA420359B25A00002948BF8BEA98
:102D7000430282EA10214AB24B00002A48BF8BEA84
:102D8000410359B25A00002948BF8BEA430251B2AD
:102D90005300002948BF8BEA420359B25A00002968
:102DA00048BF8BEA430251B25300002948BF8BEA67
:102DB000420359B25A00002948BF8BEA430251B27C
:102DC0005300002948BF8BEA420359B25A00002938
:102DD00048BF8BEA4302504041B24200002948BF3D
:102DE0008BEA400250B25100002848BF8BEA4201F2
:102DF00048B24A00002848BF8BEA410250B2510055
:102E0000002848BF8BEA420148B24A00002848BF68
:102E10008BEA410250B25100002848BF8BEA4201C0
:102E200048B24A00002848BF8BEA410250B2510024
:102E300000284FF0550048BF8BEA4201F07140F284
:102E40009420B171C2F2000031460822FEF7F0FD75
:102E5000029900287FF44FAB01F0A4B9552070739C
:102E600040F294203273C2F2000031460E22FEF787
:102E7000DFFD40F2CC0EC2F2000E6FF0130C002802
:102E800004BF012088F8000098F8011001294FF0D4
:102E9000020140F0C58098F80200012810D098F88F
:102EA0000300012819D098F80400012825D0B7E0C4
:102EB00053797374656D2052656164790000000078
:102EC000B8F81200053800B21E28D8BF1E20A8F896
:102ED000120098F803000128E5D1B8F8120040F27A
:102EE0000232053000B29042A8BF1046A8F8120086
:102EF00098F80400012840F0938098F80A00002810
:102F000058D1704610F8081F41B3704610F8121FD0
:102F100031B3704610F81C1F21B3704610F8261FFD
:102F200011B3704610F8301F01B3704610F83A1F05
:102F3000F1B1704610F8441FE1B1704610F84E1F11
:102F4000D1B1704610F8581FC1B1704610F8621F19
:102F500000294FF002012DD1092110E000210EE0DF
:102F600001210CE002210AE0032108E0042106E02F
:102F7000052104E0062102E0072100E00821B8F85D
:102F8000122001EB81012EF8112098F80620012370
:102F900003706FF013000EEB4101002A18BF4FF4CD
:102FA000FA7048800CF10C008D80C880122002213C
:102FB00088F80A00D8F82C00A9EB0000B0F5FA7FD9
:102FC0002ED9012088F8011088F80F00C8F82C507D
:102FD00098F8000020BB40F2DC41C2F2000140F250
:102FE000AA30088046F25010C7F27530C1F80200CE
:102FF00046F26540C5F26950C1F8060040F29420DF
:10300000C2F200000A22FEF713FD40F2CC0EC2F21B
:10301000000E6FF0130C002804BF012088F8000098
:10302000D8F81C0002994FF00009081A1028C0F0C7
:103030002B8598F80100012840F0248598F80A00B3
:1030400000281CBF013888F80A009EF8080058B113
:10305000BEF80600BEF80210084401B26145AEF8A1
:103060000200B8BF8EF808909EF8120040F2A81433
:10307000C2F2000458B1BEF81000BEF80C100844AB
:1030800001B26145AEF80C00B8BF8EF812909EF800
:103090001C0058B1BEF81A00BEF81610084401B260
:1030A0006145AEF81600B8BF8EF81C909EF8260059
:1030B00058B1BEF82400BEF82010084401B26145A2
:1030C000AEF82000B8BF8EF826909EF8300058B1B8
:1030D000BEF82E00BEF82A10084401B26145AEF8D1
:1030E0002A00B8BF8EF830909EF83A0058B1BEF86A
:1030F0003800BEF83410084401B26145AEF834001F
:10310000B8BF8EF83A909EF8440058B1BEF842001D
:10311000BEF83E10084401B26145AEF83E00B8BFAB
:103120008EF844909EF84E0058B1BEF84C00BEF8A0
:103130004810084401B26145AEF84800B8BF8EF8A7
:103140004E909EF8580058B1BEF85600BEF8521086
:10315000084401B26145AEF85200B8BF8EF85890ED
:103160009EF8620058B1BEF86000BEF85C100844DA
:1031700001B26145AEF85C00B8BF8EF86290207A6B
:1031800048B1E0886188084401B2B1F51B7F6080D6
:10319000C8BF84F80890A07C48B1208AA18908445F
:1031A00001B2B1F51B7FA081C8BF84F81290207FC7
:1031B00048B1608BE18A084401B2B1F51B7FE0821F
:1031C000C8BF84F81C9094F8260048B1A08C218CCC
:1031D000084401B2B1F51B7F2084C8BF84F8269053
:1031E00094F8300048B1E08D618D084401B2B1F52A
:1031F0001B7F6085C8BF84F8309094F83A0048B1CE
:10320000208FA18E084401B2B1F51B7FA086C8BFF4
:1032100084F83A9094F8440050B1B4F84200E18F39
:10322000084401B2B1F51B7FE087C8BF84F8449021
:1032300094F84E0060B1B4F84C00B4F8481008445B
:1032400001B2B1F51B7FA4F84800C8BF84F84E90C6
:1032500094F8580060B1B4F85600B4F8521008441D
:1032600001B2B1F51B7FA4F85200C8BF84F8589092
:1032700094F8620060B1B4F86000B4F85C100844DF
:1032800001B2B1F51B7FA4F85C00C8BF84F862905E
:10329000002005E07A1E8A720C30782800F08480C5
:1032A0000AEB00014A7A002AF6D091F9042067233C
:1032B0005A43C2F3C03303EB52223AF8003052B201
:1032C0001A4491F9053040F28B25C3F302373B4491
:1032D0004F885BB207EBE3073BB22AF80020AB4212
:1032E0004F80A8BF81F809900F7A012FD4D18F7A2F
:1032F000002FCFD1274617F8086F4EB3274617F88F
:10330000126F3EB3274617F81C6F2EB3274617F8E7
:10331000266F1EB3274617F8306F0EB3274617F8EF
:103320003A6FFEB1274617F8446FEEB1274617F8FB
:103330004E6FDEB1274617F8586FCEB1274617F803
:10334000626FBEB140F2A8147822C2F20004A2E774
:10335000002610E001260EE002260CE003260AE01B
:10336000042608E0052606E0062604E0072602E01B
:10337000082600E0092640F2A81A06EB8606C2F2EB
:10338000000A0AEB460501242AF8162003F114026C
:103390003C7054466A804FF4802240F2301A6A60D2
:1033A0007822C2F2000A76E798F8430048B198F80C
:1033B00042000130C1B20A2988F8420028BF88F8CB
:1033C000439098F8490048B198F848000130C1B2DC
:1033D0000A2988F8480028BF88F8499098F84F00D3
:1033E00048B198F84E000130C1B20A2988F84E0061
:1033F00028BF88F84F9098F8550048B198F85400C5
:103400000130C1B20A2988F8540028BF88F85590C5
:1034100098F85B0048B198F85A000130C1B20A2907
:1034200088F85A0028BF88F85B9000271FE000BF8B
:1034300008B211B2FEF7DEFD307AB8F8101000289D
:103440004FF0190040F2CC0E85F8009008BF0A201A
:10345000C2F2000E6FF0130C0844A8F8100040F2FE
:10346000A814C2F200040A37642F00F021810EEB89
:103470000700017A0029F6D09AF80910B1B13EF898
:103480000720BAF80010521A133292B2262A0DD829
:103490004388BAF802209B1A1BB2634506DD132B42
:1034A00004DC0AF109050023F2E000BF9AF81510C8
:1034B000B1B13EF80720BAF80C10521A133292B28A
:1034C000262A0DD84388BAF80E209B1A1BB26345F2
:1034D00006DD142B04DA0AF115050123D8E000BF3C
:1034E0009AF82110B1B13EF80720BAF81810521A14
:1034F000133292B2262A0DD84388BAF81A209B1AA2
:103500001BB2634506DD142B04DA0AF12105022300
:10351000BEE000BF9AF82D10B1B13EF80720BAF80E
:103520002410521A133292B2262A0DD84388BAF8C0
:1035300026209B1A1BB2634506DD142B04DA0AF120
:103540002D050323A4E000BF9AF83910B1B13EF86D
:103550000720BAF83010521A133292B2262A0DD828
:103560004388BAF832209B1A1BB2634506DD142B40
:1035700004DA0AF1390504238AE000BF9AF84510FD
:10358000B1B13EF80720BAF83C10521A133292B289
:10359000262A0DD84388BAF83E209B1A1BB26345F1
:1035A00006DD142B04DA0AF14505052370E000BF9F
:1035B0009AF85110B1B13EF80720BAF84810521AE3
:1035C000133292B2262A0DD84388BAF84A209B1AA1
:1035D0001BB2634506DD142B04DA0AF151050623FC
:1035E00056E000BF9AF85D10B1B13EF80720BAF876
:1035F0005410521A133292B2262A0DD84388BAF8C0
:1036000056209B1A1BB2634506DD142B04DA0AF11F
:103610005D0507233CE000BF9AF86910B1B13EF8A0
:103620000720BAF86010521A133292B2262A0DD827
:103630004388BAF862209B1A1BB2634506DD142B3F
:1036400004DA0AF16905082322E000BF9AF8751030
:1036500040F2A8140029C2F200043FF404AF3EF87F
:103660000720BAF86C10521A133292B2262A3FF68B
:10367000FAAE4388BAF86E209B1A1BB263457FF7F7
:10368000F2AE142BBFF6EFAE0AF17505092300BFA9
:1036900003EB43030AEB8306334613F8064F80F827
:1036A00008900B2CFFF4C4AEA4F10A001870D6E603
:1036B00098F80610237A98F80800B8F81220002924
:1036C00018BFACF5FA719BB123889B1A1D339BB2CE
:1036D0003A2B0DD863880B441BB2634508DD132BCE
:1036E00006DC0A3884F8089038BF484688F8080095
:1036F000A37CA3B163899B1A1D339BB23A2B0ED8CE
:10370000A3890B441BB2634509DD132B07DCC0B250
:103710000A3884F8129038BF484688F80800237F9A
:10372000A3B1A38A9B1A1D339BB23A2B0ED8E38A0E
:103730000B441BB2634509DD132B07DCC0B20A380A
:1037400084F81C9038BF484688F8080094F8263062
:10375000A3B1E38B9B1A1D339BB23A2B0ED8238C5B
:103760000B441BB2634509DD132B07DCC0B20A38DA
:1037700084F8269038BF484688F8080094F830301E
:10378000A3B1238D9B1A1D339BB23A2B0ED8638DA8
:103790000B441BB2634509DD132B07DCC0B20A38AA
:1037A00084F8309038BF484688F8080094F83A30DA
:1037B000A3B1638E9B1A1D339BB23A2B0ED8A38EF6
:1037C0000B441BB2634509DD132B07DCC0B20A387A
:1037D00084F83A9038BF484688F8080094F8443096
:1037E000A3B1A38F9B1A1D339BB23A2B0ED8E38F44
:1037F0000B441BB2634509DD132B07DCC0B20A384A
:1038000084F8449038BF484688F8080094F84E3051
:10381000B3B1B4F846309B1A1D339BB23A2B0FD884
:10382000B4F848300B441BB2634509DD132B07DCA9
:10383000C0B20A3884F84E9038BF484688F808006D
:1038400094F85830B3B1B4F850309B1A1D339BB282
:103850003A2B0FD8B4F852300B441BB2634509DD44
:10386000132B07DCC0B20A3884F8589038BF48469A
:1038700088F8080094F86230B3B1B4F85A309A1A54
:103880001D3292B23A2A0FD8B4F85C20114409B222
:10389000614509DD132907DCC0B20A3884F862905B
:1038A00038BF484688F80800002502E00C35782D1E
:1038B00032D00AEB0506717A0029F7D03AF80510E4
:1038C000B8F81270728898F80630CF1B2737002B93
:1038D0001346BFB20CEB020418BFA4F5FA734E2FC7
:1038E000E4D8ACF10A071BB2BB42DFDD1D2BDDDCE7
:1038F00008B211B2FEF77EFB98F8080040F2CC0E39
:10390000C2F2000E6FF0130C143886F8099038BF1D
:10391000484688F80800C9E70299000640F0B280DE
:10392000019C032088F80100204640210022FDF779
:1039300063F8204680210122FDF75EF8022088F816
:103940000F00029998F8000040F2CC0EC2F2000E6F
:10395000002840F0978040F2DC46C2F2000640F2B8
:10396000AA30308044F24710C4F24D50C6F802002D
:1039700044F62070C4F25650C6F806005220B072C9
:1039800000226FF0010000BF3118CB7809795A404E
:1039900053B25700002B48BF8BEA42077AB27B0034
:1039A000002A48BF8BEA47035AB25F00002A48BF8B
:1039B0008BEA43077AB27B00002A48BF8BEA4703B1
:1039C0005AB25F00002A48BF8BEA43077AB27B00F5
:1039D000002A48BF8BEA47035AB25F00002A48BF5B
:1039E0008BEA43077AB27B00002A48BF8BEA470381
:1039F00059404AB24B00002A48BF8BEA410359B2F2
:103A00005A00002948BF8BEA430251B253000029F3
:103A100048BF8BEA420359B25A00002948BF8BEADB
:103A2000430251B25300002948BF8BEA420359B206
:103A30005A00002948BF8BEA430251B253000029C3
:103A400048BF8BEA420359B25A00002900F1020034
:103A500048BF8BEA4302082896D15520307340F2C4
:103A60009420F272C2F2000031460D22FDF7E0FF11
:103A700040F2CC0E0299C2F2000E002804BF0120D1
:103A800088F80000C8F81C10D8F82000081A21286F
:103A9000FEF434AD98F8000000287EF42FAD98F9BC
:103AA000012098F80000012A7EF422AD00287EF45F
:103AB00022ADB8F8120040F2DC4700BAC2F20007AB
:103AC000000C788098F806004FF4D57102463980D2
:103AD00098F80810002818BF02223A7118BF082071
:103AE0007871B8F81000B971010A38720120787243
:103AF0009AF80900F9719AF815109AF821209AF8A5
:103B00002D30002818BF0120002918BF0130002ADD
:103B100018BF01309AF83910002B18BF0130002966
:103B20009AF8451018BF013000299AF8511018BFB3
:103B3000013000299AF85D1018BF013000299AF869
:103B4000691018BF013000299AF8751018BF0130AC
:103B5000002918BF0130B8720AF106010B230022B8
:103B60000B2000BFCF78A7B131F8067C40F2DC44CF
:103B70003E0AC2F2000485B2E65431F8046C2B19F7
:103B80005F7037BA3F0C5F808F780E7806301F71F8
:103B90005E71082A83B204D80132F02B01F10C01C6
:103BA000E0D39EF808209EF812109EF81C709EF834
:103BB0002660002A18BF0122002918BF0132002FF9
:103BC00018BF01329EF83010002E18BF01320029B4
:103BD0009EF83A1018BF013200299EF8441018BF11
:103BE000013200299EF84E1018BF013200299EF8BC
:103BF000581018BF013200299EF8621018BF013218
:103C000040F2DC47002918BF0132411CC2F2000714
:103C1000FA54F12B8AB280F0E7809EF8087087B1E1
:103C2000BEF8001040F2DC460F0AC2F20006B7549C
:103C30009A19BEF802309170411D18BA000CA2F812
:103C400003008AB240F2A817F12AC2F2000700F27C
:103C5000CF809EF8120078B1BEF80A0040F2DC4630
:103C6000030AC2F20006B35432445070BEF80C008E
:103C7000043100BA000C50808AB2F12A00F2B880F8
:103C80009EF81C0078B1BEF8140040F2DC46030A2E
:103C9000C2F20006B35432445070BEF8160004312C
:103CA00000BA000C50808AB2F12A00F2A1809EF87E
:103CB000260078B1BEF81E0040F2DC46030AC2F2CC
:103CC0000006B35432445070BEF82000043100BAEC
:103CD000000C50808AB2F12A00F28A809EF83000EF
:103CE00078B1BEF8280040F2DC46030AC2F20006B2
:103CF000B35432445070BEF82A00043100BA000CAC
:103D000050808AB2F12A73D89EF83A0078B1BEF892
:103D1000320040F2DC46030AC2F20006B3543244D9
:103D20005070BEF83400043100BA000C50808AB2E2
:103D3000F12A5DD89EF8440078B1BEF83C0040F20C
:103D4000DC46030AC2F20006B35432445070BEF897
:103D50003E00043100BA000C50808AB2F12A47D8E4
:103D60009EF84E0078B1BEF8460040F2DC46030AE9
:103D7000C2F20006B35432445070BEF84800043119
:103D800000BA000C50808AB2F12A31D89EF858004F
:103D900078B1BEF8500040F2DC46030AC2F20006D9
:103DA000B35432445070BEF85200043100BA000CD3
:103DB00050808AB2F12A1BD89EF86200002800F0D9
:103DC000F781BEF85A0040F2DC46030AC2F2000650
:103DD000B35432445070BEF85C00043100BA000C99
:103DE000B64650808AB207E040F2A817C2F2000738
:103DF00040F2DC4EC2F2000E3B7AB87C40F2A816CC
:103E00003F7FC2F20006002B96F8266018BF012300
:103E1000002818BF0133002F18BF0133002E40F2D5
:103E2000A816C2F2000696F8300018BF0133002829
:103E300096F83A0018BF0133002896F8440018BFDE
:103E40000133002896F84E0018BF0133002896F879
:103E5000580018BF0133002896F8620018BF0133DC
:103E600000288FB201F1010018BF0133F12F1FFAB2
:103E700080FC0EF8023080F0CC80327A62B130885B
:103E80007388020A0EF80C2007EB0E029070481D92
:103E900019BA090CA2F803101FFA80FCBCF1F10F4B
:103EA00000F2B780B17C59B1718904300A0A0EF86A
:103EB0000C200CEB0E025170B18909BA090C51802B
:103EC0001FFA80FCBCF1F10F00F2A380317F59B1E1
:103ED000B18A04300A0A0EF80C200CEB0E02517065
:103EE000F18A09BA090C51801FFA80FCBCF1F10F6C
:103EF00000F28F8096F8261059B1F18B04300A0A2F
:103F00000EF80C200CEB0E025170318C09BA090C22
:103F100051801FFA80FCBCF1F10F7AD896F830106E
:103F200059B1318D04300A0A0EF80C200CEB0E0248
:103F30005170718D09BA090C51801FFA80FCBCF1D7
:103F4000F10F66D896F83A1059B1718E04300A0A0A
:103F50000EF80C200CEB0E025170B18E09BA090C50
:103F600051801FFA80FCBCF1F10F52D896F8441032
:103F700059B1B18F04300A0A0EF80C200CEB0E0276
:103F80005170F18F09BA090C51801FFA80FCBCF105
:103F9000F10F3ED896F84E1069B1B6F846100430CD
:103FA0000A0A0EF80C200CEB0E025170B6F84810FD
:103FB00009BA090C51801FFA80FCBCF1F10F28D816
:103FC00096F8581069B1B6F8501004300A0A0EF885
:103FD0000C200CEB0E025170B6F8521009BA090C05
:103FE00051801FFA80FCBCF1F10F12D896F86210D4
:103FF00069B1B6F85A1004300A0A0EF80C200CEB1E
:104000000E025170B6F85C1009BA090C51801FFA03
:1040100080FC411E8BB2012B06D10023002611F03B
:10402000010177D1AAE000BF23F001035B42002623
:104030006FF001070EEB0705EC782D79664074B23E
:104040007200002C48BF8BEA460256B25400002E84
:1040500048BF8BEA420462B26600002A48BF8BEA7E
:10406000440672B27400002A48BF8BEA460462B26A
:104070006600002A48BF8BEA440672B27400002A28
:1040800048BF8BEA460462B26600002A48BF8BEA4A
:10409000440672B27400002A48BF8BEA460485EADF
:1040A000040256B25500002E48BF8BEA42056AB2A0
:1040B0006E00002A48BF8BEA450672B27500002ADE
:1040C00048BF8BEA46056AB26E00002A48BF8BEAF9
:1040D000450672B27500002A48BF8BEA46056AB2EF
:1040E0006E00002A48BF8BEA450672B27500002AAE
:1040F00048BF8BEA46056AB202376E00002A03EB1E
:10410000070248BF8BEA4506023293D1BB1C11F06F
:10411000010133D00EEB0301497871404AB24B00E4
:10412000002A48BF8BEA410359B25A00002948BF10
:104130008BEA430251B25300002948BF8BEA420385
:1041400059B25A00002948BF8BEA430251B25300CA
:10415000002948BF8BEA420359B25A00002948BFE0
:104160008BEA430251B25300002948BF8BEA420355
:1041700059B25E00002948BF8BEA4306411C023059
:1041800089B255220EF80C600EF8012082B240F27E
:104190009420C2F200007146FDF74AFC0299002803
:1041A0007EF4A9A9012088F80000FEF7A4B900BF99
:1041B00040F2DC4EC2F2000E8AB21DE62DE9F04359
:1041C00081B040F27008C2F2000898F8001019B1EE
:1041D00001B0BDE8F08300BF0446FBF7F5FF80B2F5
:1041E00040F2DC416428C2F2000140F2AA3228BF4A
:1041F00064200A8060B1421E032A00F0030C80F0A4
:104200008B8002200023BCF1000F40F09D80ABE0CA
:104210004FF0020C01204FF0020E82B2012A00F092
:10422000010900F0AD8022F00100444200276FF048
:10423000010507264819C378027983EA070043B2CB
:104240004700002B48BF86EA400778B27B00002871
:1042500048BF86EA470358B25F00002848BF86EA95
:10426000430778B27B00002848BF86EA470358B26C
:104270005F00002848BF86EA430778B27B00002829
:1042800048BF86EA470358B25F00002848BF86EA65
:10429000430778B27B00002848BF86EA470382EADA
:1042A000030042B24300002A48BF86EA400358B2E6
:1042B0005A00002848BF86EA430250B25300002843
:1042C00048BF86EA420358B25A00002848BF86EA2F
:1042D000430250B25300002848BF86EA420358B256
:1042E0005A00002848BF86EA430250B25300002813
:1042F00048BF86EA420358B202355F00002804EB4B
:10430000050048BF86EA4307023093D1A81CB9F1E3
:10431000000F7CD039E000BF00F07C00671C002358
:10432000FE1816F8015CCA189570FD5C0433D57050
:10433000757898421571B6785671F1D103F1020E75
:104340007046BCF1000F0FD0E75C00F1010EBCF12C
:10435000010F0F5408D01F197E78831CBCF1020F87
:1043600001F80E6046D19E46AEF10100020449D02C
:104370001FFA8EFC82B2012A00F001097FF453AFCC
:1043800000200027B9F1000F41D0084440780722EF
:10439000784043B24400002B48BF82EA400460B238
:1043A0006300002848BF82EA440358B25C0000283A
:1043B00048BF82EA430460B26300002848BF82EA33
:1043C000440358B25C00002848BF82EA430460B24C
:1043D0006300002848BF82EA440358B25C0000280A
:1043E00048BF82EA430460B26700002848BF82EAFF
:1043F00044070CE0BA7800F1030ECA54AEF1010094
:104400000204B5D100274FF0010C4FF0010E0EF160
:10441000010080B2552301F80C700EF102020B541A
:1044200040F2942092B2C2F20000FDF701FB002896
:1044300004BF012088F8000001B0BDE8F08300004F
:10444000B0B540F60004C4F201040546C209204696
:104450004FF40071FCF7D0FA20464FF4807101222E
:10446000FCF7CAFA20464FF480710022FCF7C4FA28
:10447000C5F3801220464FF40071FCF7BDFA2046C8
:104480004FF480710122FCF7B7FA20464FF4807197
:104490000022FCF7B1FAC5F3401220464FF4007138
:1044A000FCF7AAFA20464FF480710122FCF7A4FA27
:1044B00020464FF480710022FCF79EFAC5F30012EB
:1044C00020464FF40071FCF797FA20464FF48071B4
:1044D0000122FCF791FA20464FF480710022FCF78C
:1044E0008BFAC5F3C00220464FF40071FCF784FA42
:1044F00020464FF480710122FCF77EFA20464FF4EB
:1045000080710022FCF778FAC5F3800220464FF450
:104510000071FCF771FA20464FF480710122FCF71C
:104520006BFA20464FF480710022FCF765FAC5F360
:10453000400220464FF40071FCF75EFA20464FF42B
:1045400080710122FCF758FA20464FF48071002256
:10455000FCF752FA05F0010220464FF40071FCF717
:104560004BFA20464FF480710122FCF745FA2046B1
:104570004FF480710022BDE8B040FCF73DBA000066
:104580000000000000000102030406070809000003
:1045900000000102030401020203040506070809E2
:1045A0000A0B0C0D0E0F10103F065B4F666D7D075A
:1045B0007F6F000047616D65205374617274000065
:1045C000E04500080000002010000000280100085D
:1045D000F045000810000020D00B00004401000846
:1045E000010000001000000000127A00000000002E
:04000005080000ED02
:00000001FF
