:020000040800F2
:100000000023002091010008D95700082557000857
:10001000D5570008AD050008D5780008000000009D
:10002000000000000000000000000000057400084F
:10003000C9050008000000005958000809740008AC
:10004000AB010008AB010008AB010008AB010008E0
:10005000AB010008AB010008CD050008D50500087C
:10006000AB010008AB010008DD050008AB0100088A
:10007000AB010008AB010008AB010008AB010008B0
:10008000B1050008BD050008AB010008AB01000880
:10009000AB010008AB010008AB010008AB01000890
:1000A000AB010008AB010008AB010008AB01000880
:1000B000AB010008AB010008AB010008AB01000870
:1000C000AB010008AB010008AB010008AB01000860
:1000D000AB010008AB010008C9780008AB010008BB
:1000E000AB010008AB010008AB01000800F002F80A
:1000F00000F03EF80AA090E8000C82448344AAF184
:100100000107DA4501D100F033F8AFF2090EBAE881
:100110000F0013F0010F18BFFB1A43F0010318473B
:10012000809F0000A09F0000103A24BF78C878C1CB
:10013000FAD8520724BF30C830C144BF04680C60ED
:10014000704700000023002400250026103A28BF35
:1001500078C1FBD8520728BF30C148BF0B60704739
:100160001FB59DE8030000F033F91FBD10B510BDA9
:1001700000F09AF91146FFF7F3FF08F043FD00F095
:10018000B8F903B4FFF7F2FF03BC00F0E9F900008F
:100190000948804709480047FEE7FEE7FEE7FEE71B
:1001A000FEE7FEE7FEE7FEE7FEE7FEE70448054957
:1001B000054A064B704700000D740008ED0000086A
:1001C000001D002000230020001F0020001F002031
:1001D00070B5064600F0E0F8056806F10B0020F067
:1001E0000704B4429CBF002070BD2B466A68BAB1B8
:1001F0001068A04210D304F1080188423CBF506847
:10020000586007D35168101941601168091B0160DB
:1002100058601460101D70BD13465268002AE7D163
:100220002146284600F0C0F80028DED170BD70B528
:100230000446051F00F0B0F80068002C14BF4468A5
:1002400070BD002C18BFAC423CBF20466468F8D398
:1002500001680A18AA4218BF456003D12A680546FA
:100260001144016028684119A1421CBF6C6070BD37
:100270006168696021680844286070BD10B5431E3C
:1002800013F8014F002CFBD105E011F8014B002CB5
:1002900003F8014B03D0521EF7D20021197010BD94
:1002A00010B5431C02E010F8011B71B18107FAD1AF
:1002B0004FF0013202C88C1A8C4314EAC211F9D0F3
:1002C000C01A0A0603D0C01E10BDC01A10BD0A0411
:1002D00001D0801E10BD0902FCD0401E10BD10B51B
:1002E000203AC0F00B80B1E81850A0E81850B1E8EF
:1002F0001850A0E81850203ABFF4F5AF5FEA027C2E
:1003000024BFB1E81850A0E8185044BF18C918C05D
:10031000BDE810405FEA827C24BF51F8043B40F8FE
:10032000043B08BF7047D20728BF31F8023B48BFE3
:1003300011F8012B28BF20F8023B48BF00F8012B21
:1003400070474FF0000200B5134694469646203998
:1003500022BFA0E80C50A0E80C50B1F12001BFF47E
:10036000F7AF090728BFA0E80C5048BF0CC05DF8E4
:1003700004EB890028BF40F8042B08BF704748BF32
:1003800020F8022B11F0804F18BF00F8012B7047A6
:100390007047704770470000004870471800002001
:1003A000704770477047704738B504460A460020CA
:1003B0006946AFF30080002808BF38BD02460099A7
:1003C000204600F04FF8012038BD012000F064B84D
:1003D000F8B5AFF30080054600200C46102000BFA2
:1003E0000646A819A0420DD9324669460020AFF34F
:1003F0000080070008BF00F04FF80098A04218BF27
:100400000546C419FFF7C8FF05600746F01D20F038
:1004100007004619284600F00AF8B44208BFF8BDA4
:10042000A21B31463868BDE8F84000F01BB8002137
:100430000160C0E9011070471020704710B500F04E
:100440000DF8006810BD10B5044600F007F8046010
:1004500010BD0000004870471000002000487047A1
:1004600010000020034640688C46002818BF8842D0
:100470003CBF03464068F8D318681844884207D048
:100480000CF1030020F00700001D411A521A01462A
:10049000081D0A60FFF7CBBE10B500F039F8BDE8C3
:1004A000104000F02FB870477546FFF7D3FFAE46F7
:1004B00005006946534620F00700854618B020B570
:1004C000FFF774FEBDE820404FF000064FF0000734
:1004D0004FF000084FF0000BAC46ACE8C009ACE8A8
:1004E000C009ACE8C009ACE8C00921F007018D469D
:1004F000704710B50446AFF300802046BDE81040B9
:10050000FFF73FBE002801D000F02AB87047000076
:1005100010B5012805D0002103A000F027F8012024
:1005200010BD09A1F8E7000053494752544D454D0D
:100530003A204F7574206F662068656170206D6584
:100540006D6F7279000000003A2048656170206D7F
:10055000656D6F727920636F727275707465640077
:1005600001491820ABBEFEE72600020070B5054623
:100570000C460A2000E06D1C00F011F835B1287817
:100580000028F8D102E0641C00F009F814B12078CA
:100590000028F8D1BDE870400A20AFF3008008B50C
:1005A00069468DF800000320ABBE08BDFEE70000E1
:1005B00041F27400C2F2000003F0AABD41F2B8009B
:1005C000C2F2000003F0A4BD70470000012003F058
:1005D00003BF0000022003F0FFBE0000102003F064
:1005E000FBBE00002DE9F04381B090F8EC460546D3
:1005F0008946CCB100274FF0340804E00137F8B247
:10060000E1B2884210D2FEB206FB08504946406A69
:1006100009F066F80028F1D12846314600F0C2FA08
:1006200095F8EC46013FE9E795F8ED46E4B100277F
:1006300005E000BF0137F8B2E1B2884214D2FEB241
:1006400006EB460005EB4010D0F83003494609F0B0
:1006500047F80028EED12846314600F089FA95F88F
:10066000ED46013FE6E700BFD5F8900F30B14946AF
:1006700001B0BDE8F04307F04DB900BF01B0BDE8DF
:10068000F08300002DE9F04F85B00291054600216E
:10069000D0E90040A5F85C10002144F66D6BC4F26F
:1006A0004831C4F2C61B08F097FF40F2C809C2F2F5
:1006B0000009D9F8001043F2390201FB0B214AF678
:1006C000AB2221F00041CAF6AA22A1FB0223074671
:1006D00023F0010000EB5300081AC9F8001000F0E5
:1006E0000101023040F2000A00F00603A5F11002F9
:1006F000C4F2963A00910395D9F8000043F239010B
:1007000000FB0B1547F2A31125F00040CAF26E3131
:100710000492A0FB0112110A40F2911201FB120097
:10072000019300F5C87043F2390809F005F905FB9B
:100730000B81054621F00040C9F8000009F014F9CA
:100740004FF0405109F08CF90021C4F2164109F034
:1007500087F90021CCF2963108F03EFF0146204691
:1007600008F03AFF0021C4F26141044608F0AAFFF4
:1007700000281CBF0024C4F261442046514608F002
:10078000A1FF00283846294608BF544608F024FF38
:1007900080460298D0E90015204609F06BFB06461A
:1007A0004046294609F066FB0146814609F058F9A2
:1007B00007463046314609F053F9394608F00CFF38
:1007C00008F0F4FE5146074608F091FF0546002860
:1007D00038464FF0000118BF012508F073FF0028CC
:1007E00018BF012005EA000B3046394608F092FF99
:1007F000514609F035F9214608F0EEFE0646484616
:10080000394608F087FF514609F02AF9414608F0B9
:10081000E3FE40F2C801C2F20001096844F66D62CD
:10082000C4F2C61243F2390901FB029747F2A31240
:1008300027F00041CAF26E32A1FB02230546BBF14C
:10084000000F04BF454626460498039C049AC664DC
:1008500094F85D0015651A0A40F2911302FB13111A
:10086000013084F85D0001F5C87009F065F844F6C0
:100870006D61C4F2C61107FB0191044621F00040EE
:1008800040F2C801C2F20001086009F06DF84FF0B3
:10089000405109F0E5F80021C4F2164109F0E0F8F2
:1008A0000021CCF2963108F097FE0146304608F060
:1008B00093FE0021C4F26141804608F003FF002846
:1008C0001CBF40F20008C4F261484046514608F09F
:1008D000F9FE00282846214608BFD04608F07CFED5
:1008E000029C81462168404609F0C4FA61680446CA
:1008F000484609F0BFFA0146054609F0B1F8064638
:100900002046214609F0ACF8314608F065FE08F0B3
:100910004DFE5146064608F0EAFE074600283046DE
:100920004FF0000118BF012708F0CCFE002818BFC7
:10093000012007EA000B2046314608F0EBFE514645
:1009400009F08EF8414608F047FE04462846314635
:1009500008F0E0FE514609F083F8494608F03CFEF5
:100960000746019B049ABBF1000F08BF4F4608BF22
:100970004446039E47F2A31196F85D5040F2C80921
:1009800044F66D6BCAF26E31C2F20009C4F2C61BA6
:1009900054659765681C023B02F1100286F85D0001
:1009A0007FF4AAAE009B029E33B9DDF80CB0C6B24C
:1009B000042E80F0D98095E0D9F8000043F2390880
:1009C00000FB0B85049225F00040A0FB0112110AE8
:1009D00040F2911201FB120000F5C87008F0ACFF64
:1009E00005FB0B81054621F00040C9F8000008F026
:1009F000BBFF4FF0405109F033F80021C4F216411B
:100A000009F02EF80021CCF2963108F0E5FD014600
:100A1000204608F0E1FD0021C4F26141044608F0DF
:100A200051FE00281CBF0024C4F2614420465146F8
:100A300008F048FE00283846294608BF544608F00A
:100A4000CBFDD6E900168046204609F013FA05468C
:100A50004046314609F00EFA0146814609F000F899
:100A600007462846294608F0FBFF394608F0B4FD42
:100A700008F09CFD5146074608F039FE064600285E
:100A800038464FF0000118BF012608F01BFE002871
:100A900018BF012006402846394608F03BFE514663
:100AA00008F0DEFF214608F097FD05464846394626
:100AB00008F030FE514608F0D3FF414608F08CFDA7
:100AC0000746002E04BF474625460498DDF80CB0C3
:100AD000C5649BF85D500765681C8BF85D00C6B265
:100AE000042E41D240F2C80AC2F2000ADAF800002D
:100AF00044F66D6943F23908C4F2C61900FB098453
:100B0000DB2124F00040CBF22E41A0FB0112811A20
:100B100002EB5101490A40F2592201FB120000F593
:100B2000967008F009FF04FB098147F2A31221F037
:100B30000041CAF26E32A1FB02230446180A40F2B9
:100B4000911200FB1210CAF8001000F5C87008F0EE
:100B5000F3FE0146384608F03FFD0BEBC601C1E944
:100B60000F40A81C8BF85D0005B0BDE8F08F0000B9
:100B700010B5044690F8ED06421E8A420EDD01EBE8
:100B8000410004F54B7102EB420201EB401001EB16
:100B900042116022FFF7A3FB94F8ED06013884F8B8
:100BA000ED0610BD2DE9F04190F8EC26531E8B4266
:100BB00029DD00F1200C4FF0340E03FB0EC403FBC3
:100BC0000EF301FB0EC201FB0EF8D4E901E5D4E9F6
:100BD00003675CF8033061694CF808305161C2E981
:100BE0000367C2E901E5D4E906C3D4E90876D4E98C
:100BF0000A15C2E90876C2E90A15C2E906C3216BE3
:100C0000116390F8EC26511E80F8EC16BDE8F081D7
:100C10002DE9F04F81B00E4680468A8BD0E9005016
:100C2000D1E90071728309F025F904462846394656
:100C300009F020F90146204608F0AEF998F8684C12
:100C4000322C274698BF3227312C64D849F69A11A6
:100C5000CBF61961054608F0BFFCC4EBC40108EBF4
:100C60008102D6E9009643F2333340F2000BC4F21E
:100C70003303C2F8F8064FF48770C4F2A00B4FF4A8
:100C80008071C2F8F096C2F8F466C2F8FC36A2F899
:100C90000007C2F804B7A2F80817621CBA4288F825
:100CA000682C38D0C2EBC20204F1020A08EB8202BF
:100CB000BA45C2F8F096C2F8F466C2F8F856C2F81F
:100CC000FC36A2F80007C2F804B7A2F8081788F8A3
:100CD00068AC20D049F69A11C3F6196128461D4622
:100CE00008F07AFCCAEBCA0108EB8101C1F8F806EA
:100CF0004FF48770A1F800074FF48070A1F808073F
:100D0000E01CC1F8F096C1F8F466C1F8FC56C1F8D1
:100D100004B788F8680C01B0BDE8F08F2DE9F04FFA
:100D200089B090F8EC468346002C089000F00683CA
:100D30000BF66C4002900BF679404FF034094FF0FF
:100D4000000A01900EE000BF601E8BF8EC06AAF1CD
:100D5000010A0AF1010A9BF8EC465FFA8AF0A04208
:100D600080F0EC825FFA8AF606FB09B595F8470039
:100D70000028EED005F12001069515F8460FD1F8B0
:100D80000480DBF804700791D8BB00213846CCF210
:100D9000C84108F021FC0146404608F0A1FC0028AB
:100DA000D7D140F2C802C2F20002106844F66D6169
:100DB000C4F2C61143F2390300FB0130012120F0D7
:100DC00000402970106008F0CFFD4FF0405108F04E
:100DD00047FE4CF6CD41C3F64C7108F088FC002864
:100DE00018BF0120069981F85200002088624CF655
:100DF000CD40C4F20C00C86240F6DB70C3F6C97087
:100E0000086348F200013846C4F23B5108F0E4FBA5
:100E10000146404608F064FC00BBE0B20138B04235
:100E200092D900FB09B0079C00F120078ECFD0E9D2
:100E30000C5684E88E00C4E9045600F138078ECFC2
:100E4000D0E9125604F1180CC4E90A568CE88E0059
:100E5000006D20639BF8EC4676E700BF9BF88C3F63
:100E60000798029A594601F09DFB069D2C46A8461C
:100E700054F8281F58F82C0F08F08EF855F8301F3A
:100E8000814608464946049508F0F4FF40F6DB76B3
:100E9000C4F249063146054608F022FC40F6DB77ED
:100EA000CCF2C90730BB00BF2846394608F094FB96
:100EB0003146054608F014FCE0B92846394608F0EA
:100EC0008BFB3146054608F00BFC98B9284639469D
:100ED00008F082FB3146054608F002FC50B928466E
:100EE000394608F079FB3146054608F0EBFB00284F
:100EF000DAD100BF40F6DB76CCF24906284631460F
:100F000008F0E7FB40F6DB77C4F2C90730BB00BF4F
:100F10002846394608F060FB3146054608F0D9FB03
:100F2000E0B92846394608F057FB3146054608F037
:100F3000D0FB98B92846394608F04EFB31460546A5
:100F400008F0C7FB50B92846394608F045FB314642
:100F5000054608F0CCFB0028DAD100BF4CF6CD41A5
:100F60002846C3F64C5108F07BFD0146484608F080
:100F700033FB054608F062F94CF6CD46C4F20C0688
:100F8000314608F06DFD2060284608F04BFA3146E6
:100F900008F066FD276843F233318146C8F8000047
:100FA00020F00040C3F6337127F0004508F058FDEB
:100FB0000146284608F086FB05463846002108F021
:100FC00081FB00284FF0030448464FF0000118BF92
:100FD000012408F077FB002818BF0120002D08BF6E
:100FE0004400079DDDF81880D5E90016384688F8DA
:100FF0004840059108F0F0FA074628604846314617
:10100000039608F0E9FA9BF88C1F6860C1B3D8F822
:101010004080019D8146002405E000BF01348C42E0
:1010200005F110052ED228780028F7D055F80D1CB0
:1010300055F8096C384608F01DFF8346484631468E
:1010400008F018FF014608F00BFD064658465946C1
:1010500008F006FD314608F0BFFA08F0A7FA55F887
:10106000051C0646404608F0B7FA0146304608F02F
:101070003EFBA8B9DDF820B09BF88C1FCEE700BF7F
:101080003E4601E00798066840F6DB7440F200082F
:10109000DDF81090C4F24904C4F2F028A2E000BFC9
:1010A00040F2C803C2F20003186844F66D61C4F24E
:1010B000C61143F2390200FB01204EF28B6120F091
:1010C0000040CBF20951A0FB01120799059F18605F
:1010D0000F60039F4F60D109B52201FB120101F19E
:1010E0005A0008F029FC40F6DB74C4F2490421469A
:1010F00008F0B6FC0021C4F2343108F00BFBDDF837
:1011000010900246D9F800100846114608F064FA1B
:101110002146054608F0E4FADDF820B040F6DB761B
:1011200040F6DB7740F20008CCF2C906CCF2490762
:10113000C4F2F02828BB00BF2846314608F04CFA1C
:101140002146054608F0CCFAD8B92846314608F0C1
:1011500043FA2146054608F0C3FA90B928463146BD
:1011600008F03AFA2146054608F0BAFA48B9284686
:10117000314608F031FA2146054608F0A3FA002866
:10118000DAD12846394608F0A4FA40F6DB76C4F2F4
:10119000C90620BB2846314608F01EFA39460546E6
:1011A00008F097FAD8B92846314608F015FA3946BA
:1011B000054608F08EFA90B92846314608F00CFA38
:1011C0003946054608F085FA48B92846314608F000
:1011D00003FA3946054608F08AFA0028DAD1059E56
:1011E000C9F800503046414608F081FA20B1069D0A
:1011F0001E2046460CE000BF00213046C4F2874165
:1012000008F06EFA069D78BB0026D220C4F287460D
:1012100040F2C807C2F20007396844F66D62C4F2B2
:10122000C61243F2390301FB023145F2BF6221F0DD
:101230000041C0F6CF62A1FB0223079A3960166015
:10124000CA1A03EB52029209792302FB13121044CB
:1012500008F072FB214608F003FC0021C4F234318F
:1012600008F058FAC9F80000284630F8501F2C46FC
:1012700000291CBF0139018034F83A0F18B1013838
:101280000104208056D1DBE9009830464946059696
:1012900008F0F0FD079920F000464F6841463846B7
:1012A00008F0E8FD002105463046C4F2C83108F0D8
:1012B00010FA00283ED1002125F00040C4F29631FA
:1012C00008F007FAB0BB06999BF8680C898F3128A3
:1012D00021802FD80599484608F0CCFD05464046A8
:1012E000394608F0C7FD294607F056FE9BF8681CF2
:1012F000079FC1EBC1023B680BEB8202C2F8F036DC
:101300007B68C2F8F8060020C4F26000C2F8FC0650
:101310004FF48770A2F800070020C4F2A000C2F8C2
:1013200004074FF48070A2F80807481CC2F8F4368E
:101330008BF8680C4FF034090BE500BF9BF8ED0605
:10134000002800F0E3820BF66C4048F2000840F6FB
:10135000DB7440F6DB7902900BF67940C4F23B581F
:10136000C4F24904CCF2C9094FF0000A01900DE023
:1013700001388BF8ED06AAF1010A0AF1010A9BF87F
:10138000ED065FFA8AF1814280F0C0825FFA8AF648
:1013900006EB46000BEB401191F855030028ECD00A
:1013A00091F8540301F54B7700280691079700F058
:1013B000CD81DBF804007D68414608F00DF9014657
:1013C000284608F08DF988B99BF8ED06411EB14218
:1013D000CEDD01EB41000BEB401000F54B7107989F
:1013E0006022FEF77CFF9BF8ED06C1E79BF88C3F7F
:1013F000029A3846594600F08DFA069DD5E9CD107F
:1014000007F0CAFDD5F83C1380460846414608F06F
:1014100031FD2146054608F063F928BB28464946B8
:1014200008F0DAF82146054608F05AF9E0B92846EE
:10143000494608F0D1F82146054608F051F998B917
:101440002846494608F0C8F82146054608F048F9FC
:1014500050B92846494608F0BFF82146054608F02D
:1014600031F90028DAD100BF069840F6DB7400F5A8
:101470004D7600F54E7100F54F70CCF249040491A1
:1014800005902846214608F024F940F6DB77C4F29F
:10149000C90728BB2846394608F09EF8214605466C
:1014A00008F017F9E0B92846394608F095F82146C2
:1014B000054608F00EF998B92846394608F08CF828
:1014C0002146054608F005F950B92846394608F086
:1014D00083F82146054608F00AF90028DAD100BF52
:1014E0004CF28F212846C3F6F54108F0B9FA0146BF
:1014F000404608F071F8054607F0A0FE4CF6CD44D2
:10150000C3F6CC74214608F0ABFA3060284607F0E9
:1015100089FF214608F0A4FA81460498366843F210
:101520003331C0F8009029F00040C3F6337126F043
:10153000004508F095FA0146284608F0C3F805462C
:101540003046002108F0BEF800284FF0030448465A
:101550004FF0000118BF012408F0B4F8002818BFAC
:101560000120002D08BF4400079DDDF81880D5E953
:101570000017304688F85643049108F02DF80646C7
:10158000286048463946039708F026F89BF88C1FD8
:101590006860002900F03081D8F84C83019C8146B6
:1015A000002509E0DDF820B09BF88C1F01358D4245
:1015B00004F1100480F01E8120780028F6D054F841
:1015C0000D1C54F8097C304608F054FC834648460C
:1015D000394608F04FFC014608F042FA07465846E3
:1015E000594608F03DFA394607F0F6FF07F0DEFFEE
:1015F00054F8051C0746404607F0EEFF0146384602
:1016000008F075F80028CDD040F2C803C2F20003FC
:10161000186844F66D61C4F2C61143F2390200FB4A
:1016200001204EF28B6120F00040CBF20951A0FB6B
:1016300001120799049F18600F60039F4F60D10942
:10164000B52201FB120101F15A0008F075F940F6CC
:10165000DB74C4F24904214608F002FA0021C4F206
:10166000343108F057F805990246096808461146D2
:1016700007F0B2FF2146054608F032F8DDF820B049
:1016800048F2000840F6DB79C4F23B58CCF2C909B5
:1016900028BB00BF2846494607F09EFF2146054665
:1016A00008F01EF8D8B92846494607F095FF2146AC
:1016B000054608F015F890B92846494607F08CFF12
:1016C0002146054608F00CF848B92846494607F077
:1016D00083FF2146054607F0F5FF0028DAD140F6E2
:1016E000DB76CCF249062846314607F0F2FF40F699
:1016F000DB77C4F2C90720BB2846394607F06CFFE8
:101700003146054607F0E5FFD8B92846394607F0C7
:1017100063FF3146054607F0DCFF90B9284639469D
:1017200007F05AFF3146054607F0D3FF48B928466F
:10173000394607F051FF3146054607F0D8FF00282B
:10174000DAD10598049E056062E000BFDBF8040072
:1017500000217D68CCF2C84107F03EFF01462846D3
:1017600007F0BEFF00287FF408AE40F2C802C2F2C4
:101770000002106844F66D61C4F2C61143F23903E9
:10178000069F00FB013007F55575012120F0004050
:101790002970106008F0E8F84FF0405108F060F947
:1017A00043F23331C3F6337107F0A1FF014600283D
:1017B00018BF0121490087F85E130021C7F83413D0
:1017C0004CF6CD41002840F6DB70C3F6CC71C3F671
:1017D000C970C7F83813C7F83C03079F7FF4E9AD19
:1017E00038465946FEF74EFF2878079F00287FF4B9
:1017F000E0ADC2E50798066848F2000840F6DB74E1
:1018000040F6DB79C4F23B58C4F24904CCF2C90972
:101810000025C4F216353046294607F068FF18B196
:101820002E46069D1E200DE044F200013046C4F213
:10183000834107F055FF069D80BB44F20006D2208D
:10184000C4F2834640F2C807C2F20007396844F682
:101850006D62C4F2C61243F2390301FB023145F254
:10186000BF6221F00041C0F6CF62A1FB0223079ABC
:1018700039601660CA1A03EB52029209792302FBFF
:101880001312104408F058F8214608F0E9F8002136
:10189000C4F2343107F03EFF05990860B5F85203F1
:1018A00000281EBF05F2523101380880B5F8460302
:1018B00030B1013805F24631020408807FF45DAD95
:1018C000DBE90015304608F0D5FA079920F000460C
:1018D00049680846294608F0CDFA002105463046F9
:1018E000C4F2FA3107F0F5FE00287FF446AD00217E
:1018F00025F00040C4F2C83107F0EBFE00287FF469
:101900003CAD07995846FFF783F936E509B0BDE8C5
:10191000F08F00002DE9F04F8BB0834690F8320035
:10192000DBE90075984602280E4603924CD1DA4650
:10193000D6E900B93846594608F09CFA002120F053
:101940000040C4F2FA3107F0C4FE04462846494676
:1019500008F090FA002C40F09D80002120F000401B
:10196000C4F2C83107F0B5FE002840F09380B0689B
:101970000021C4F2342107F0CDFE0021C4F2482139
:1019800008F06EF8594607F027FE00210446CCF215
:101990004821484607F020FE294608F06BFA054624
:1019A0002046394608F066FA0146284607F0F4FA60
:1019B0007821D346AAF83410CAF83800B8F1000FDD
:1019C000009077D100F0D7BC9BF85C009BF85D10CD
:1019D00088420BD358463146FEF754FE9BF85D0013
:1019E00000284DD09BF85C00DBE900750BEBC001D3
:1019F000D1E90F04394608F03DFA0746204629464A
:101A000008F038FA014608F02BF804463846394603
:101A100008F026F8214607F0DFFD07F0C7FD00219A
:101A2000C4F2963107F055FE68B99BF85C009BF84C
:101A30005D100130C2B28A428BF85C0003D3584675
:101A40003146FEF71FFE9BF85C009BF85D10884254
:101A500016D20BEBC001D1E90F04DBE9001508F049
:101A600009FA06462046294608F004FA314607F0EE
:101A700093FAB8F1000F00901CD100F07CBC00BFBD
:101A800040F6DB70C3F6C970B8F1000F009011D1B9
:101A900000F071BCBAF83400D346002800F0FE8391
:101AA000411EDBF83800ABF83410B8F1000F00909D
:101AB00000F06184A8F10100029008F00300049096
:101AC00008F0FC0007900398002620300027C4F29D
:101AD00034364FF000084FF0000A01900DE000BFCF
:101AE00040464FF0804107F077FD8046059FDDF8C6
:101AF00024A00137052F00F030850FF6A020C05735
:101B0000DBF80040DBF8105007F016FF40F6DB7101
:101B1000C4F2490107F0A4FF314607F0FBFD01467E
:101B2000284607F059FD054607F088FB0026C4F259
:101B30009636314607F094FF214607F04DFDDBF85D
:101B400004408146284607F06DFC314607F088FFC7
:101B5000214607F041FD0299CDE9088A03294FF09B
:101B6000000A0A90CDE9057980F098810498DDF8A3
:101B70002080002800F07A81039800EB0A16707B21
:101B8000002873D0D6E90014484608F073F90546DA
:101B90000A98214608F06EF9014607F061FF0446F5
:101BA0002846294607F05CFF214607F015FD07F09F
:101BB000FDFCB168044608460021C4F2F01107F0AC
:101BC0000BFD0146204607F084FD00284ED1DBE9DD
:101BD0000004D6E9001608F04DF9054620463146C6
:101BE00008F048F90146074607F03AFF0446284640
:101BF000294607F035FF214607F0EEFC07F0D6FC3A
:101C00000021044607F06CFD80BB00212046C4F291
:101C1000C82107F07FFD49F69A19C3F6996949462C
:101C2000064607F04FFD002849F69A1008BF4E46B9
:101C3000DDF81890C3F69970314607F06BFD064643
:101C40002846214607F066FD314607F009FF414668
:101C500007F0C2FC80463846214607F05BFD31465E
:101C600007F0FEFE099907F0B7FC099004980128D7
:101C700000F0FC8003990AF1010001EB0016707B73
:101C8000002873D0D6E90014484608F0F3F805465A
:101C90000A98214608F0EEF8014607F0E1FE0446F6
:101CA0002846294607F0DCFE214607F095FC07F0A0
:101CB0007DFCB168044608460021C4F2F01107F02B
:101CC0008BFC0146204607F004FD00284ED1DBE9DD
:101CD0000004D6E9001608F0CDF805462046314646
:101CE00008F0C8F80146074607F0BAFE0446284641
:101CF000294607F0B5FE214607F06EFC07F056FCBA
:101D00000021044607F0ECFC80BB00212046C4F211
:101D1000C82107F0FFFC49F69A19C3F699694946AC
:101D2000064607F0CFFC002849F69A1008BF4E4639
:101D3000DDF81890C3F69970314607F0EBFC0646C3
:101D40002846214607F0E6FC314607F089FE414669
:101D500007F042FC80463846214607F0DBFC31465E
:101D600007F07EFE099907F037FC099004980228D5
:101D70007CD003990AF1020001EB0016707B002869
:101D800074D0D6E90014484608F074F805460A985D
:101D9000214608F06FF8014607F062FE0446284627
:101DA000294607F05DFE214607F016FC07F0FEFB12
:101DB000B168044608460021C4F2F01107F00CFC9B
:101DC0000146204607F085FC00284FD1DBE90004DE
:101DD000D6E9001608F04EF805462046314608F0D0
:101DE00049F80146074607F03BFE044628462946C7
:101DF00007F036FE214607F0EFFB07F0D7FB002186
:101E0000044607F06DFC88BB00212046C4F2C821BF
:101E100007F080FC49F69A19C3F6996949460646C7
:101E200007F050FC002849F69A1008BF4E46DDF82E
:101E30001890C3F69970314607F06CFC06462846A8
:101E4000214607F067FC314607F00AFE414607F0DD
:101E5000C3FB80463846214607F05CFC314607F05C
:101E6000FFFD099907F0B8FB099000BF0026C4F2F6
:101E700034364846314607F03AFC00287FF430AE4D
:101E800000214846C4F27F4107F02AFC00287FF475
:101E90002DAE40464FF0404125E600BFDDF80480FE
:101EA0000026C4F2F0160AE00026C4F2F0160798E5
:101EB0000AF1040A504508F140083FF457AE18F8FB
:101EC000130C002879D058E90814484607F0D2FFCF
:101ED00005460A98214607F0CDFF014607F0C0FDF0
:101EE00004462846294607F0BBFD214607F074FB4F
:101EF00007F05CFB58F8181C04460846314607F00A
:101F00006BFB0146204607F0E4FB002855D1DBF8C7
:101F1000000058E90815DBF804405E4607F0AAFF08
:101F200007462046294607F0A5FF0146834607F0ED
:101F300097FD04463846394607F092FD214607F0E2
:101F40004BFB07F033FB0021054607F0C9FB80BBC4
:101F500000212846C4F2C82107F0DCFB49F69A1993
:101F6000C3F699694946044607F0ACFB002849F6D8
:101F70009A1008BF4C46DDF81890C3F699702146B8
:101F800007F0C8FB04463846294607F0C3FB214644
:101F900007F066FD089907F01FFB08905846294690
:101FA00007F0B8FB214607F05BFD099907F014FB29
:101FB0000990B3460026C4F2F01618F8030C002866
:101FC00076D058E90414484607F054FF05460A98AD
:101FD000214607F04FFF014607F042FD0446284620
:101FE000294607F03DFD214607F0F6FA07F0DEFA34
:101FF00058F8081C04460846314607F0EDFA014639
:10200000204607F066FB002852D1DBE9000458E9BE
:10201000041707F02FFF05462046394607F02AFF30
:102020000146074607F01CFD04462846294607F0EE
:1020300017FD214607F0D0FA07F0B8FA0021044650
:1020400007F04EFBA0BB00212046C4F2C82107F0D8
:1020500061FB49F69A19C3F699694946064607F0A5
:1020600031FB002849F69A1008BF4E46DDF818905B
:10207000C3F69970314607F04DFB064628462146C7
:1020800007F048FB314607F0EBFC089907F0A4FA8B
:1020900008903846214607F03DFB31460026C4F241
:1020A000F01607F0DDFC099907F096FA099000BFD9
:1020B00098F80D00002875D0D8E90014484607F0BC
:1020C000D9FE05460A98214607F0D4FE014607F0DE
:1020D000C7FC04462846294607F0C2FC214607F003
:1020E0007BFA07F063FAD8F8081004460846314630
:1020F00007F072FA0146204607F0EBFA002851D1AA
:10210000DBE90004D8E9001607F0B4FE05462046D6
:10211000314607F0AFFE0146074607F0A1FC044632
:102120002846294607F09CFC214607F055FA07F09F
:102130003DFA0021044607F0D3FA80BB0021204677
:10214000C4F2C82107F0E6FA49F69A19C3F699696C
:102150004946064607F0B6FA002849F69A1008BF25
:102160004E46DDF81890C3F69970314607F0D2FA62
:1021700006462846214607F0CDFA314607F070FCA6
:10218000089907F029FA08903846214607F0C2FA64
:10219000314607F065FC099907F01EFA0990002600
:1021A000C4F2F01698F81D0000283FF480AED8E97C
:1021B0000414484607F05EFE05460A98214607F0DB
:1021C00059FE014607F04CFC04462846294607F014
:1021D00047FC214607F000FA07F0E8F9D8F8181094
:1021E00004460846314607F0F7F90146204607F055
:1021F00070FA00287FF45BAEDBE90004D8E904162E
:1022000007F038FE05462046314607F033FE01460A
:10221000074607F025FC04462846294607F020FC1F
:10222000214607F0D9F907F0C1F90021044607F06B
:1022300057FA00287FF438AE00212046C4F2C821A6
:1022400007F068FA49F69A19C3F6996949460646AD
:1022500007F038FA002849F69A1008BF4E46DDF814
:102260001890C3F69970314607F054FA064628468E
:10227000214607F04FFA314607F0F2FB089907F0C4
:10228000ABF908903846214607F044FA314607F08A
:10229000E7FB099907F0A0F9099005E6BBF83000C3
:1022A00001380104ABF8300002D0DBF82C4056E0D6
:1022B00040F2C801C2F20001086844F66D6343F2BF
:1022C0003902C4F2C61300FB032045F2BF6620F0BA
:1022D0000047C0F6CF66A7FB06657F1B05EB5707D7
:1022E000BF09792607FB160700FB0320B43720F04F
:1022F0000040ABF83070086007F036FB4FF04051FB
:1023000007F0AEFB4CF6CD41C3F6CC5107F0A8FB6D
:102310004CF6CD41CBF64C5107F05EF9DBF82C10B2
:1023200002460846114607F057F940F69221C3F6D7
:102330000671044607F0C6F940F69225CBF60675FD
:1023400000281CBF40F69224C3F606742046294696
:1023500007F0B8F9002808BF2C46CBF82C4040F60F
:10236000DB71C3F6C971204607F036F9B8F1000FEA
:1023700000907FF49FABDBF8100040F6DB71DBF8D8
:102380000040CBF6497107F027F9054606F056FFE5
:102390000021C4F2963107F063FB214607F01CF9D7
:1023A0000446284607F03EF80021C4F234312046A6
:1023B00007F09DF910B14FF080480BE00021C4F206
:1023C0007F41204607F08CF900280CBF4FF04048B1
:1023D0004FF00008DBF8100049F60A01DBF8004076
:1023E000CBF6C46107F0F8F8054606F027FF002198
:1023F000C4F2963107F034FB214607F0EDF80446AD
:10240000284607F00FF80021C4F23431204607F0C7
:102410006EF918B140464FF0804109E00021C4F246
:102420007F41204607F05CF928B940464FF0404113
:1024300007F0D2F88046DBF81050DBF80040284661
:1024400006F0FCFE0021C4F2963107F009FB21469C
:1024500007F0C2F80446284606F0E4FF0021C4F263
:102460003431204607F043F920B140464FF0804117
:102470000AE000BF0021C4F27F41204607F030F996
:1024800028B940464FF0404107F0A6F88046DBF8F7
:10249000100049F60A01DBF80040C3F6C46107F0FA
:1024A0009BF8054606F0CAFE0021C4F2963107F0FB
:1024B000D7FA214607F090F80446284606F0B2FF06
:1024C0000021C4F23431204607F011F920B1404612
:1024D0004FF080410AE000BF0021C4F27F41204656
:1024E00007F0FEF828B940464FF0404107F074F875
:1024F0008046DBF8100040F6DB71DBF80040C3F6E5
:10250000497107F069F8054606F098FE0021C4F20B
:10251000963107F0A5FA214607F05EF804462846F2
:1025200006F080FF0021C4F23431204607F0DFF8C6
:1025300020B140464FF080410AE000BF0021C4F2C4
:102540007F41204607F0CCF828B940464FF0404183
:1025500007F042F880464FF0000A5046514607F017
:102560007FFA04464046414607F07AFA214607F0D2
:1025700033F807F01BF84CF6CD41C3F6CC5107F009
:10258000A1F80028009803D05046414606F004FD0B
:10259000CBF810000BB0BDE8F08F00BFD3EA0016F7
:1025A0002D0000002DE9F04F8BB0D0E90086D1E975
:1025B00000970446404649469B46924607F05AFC1F
:1025C00005463046394607F055FC94F83210089419
:1025D000012921D10021044625F00040C4F2C83170
:1025E00007F077F8C0B9002124F00040C4F296311A
:1025F00007F06FF880B93846314607F03BFC0446D7
:102600004846414607F036FC0146204606F0C4FC29
:10261000DDF820804AE000BFDDF82080B8F8300007
:1026200001380104A8F8300002D0D8F82C0037E0B7
:1026300040F2C801C2F20001086844F66D6343F23B
:102640003902C4F2C61300FB032048F2691620F0D9
:102650000047C6F61606A7FB06657F1B05EB570766
:10266000BF095B2607FB160700FB03205A3720F043
:102670000040A8F83070086007F076F94FF040513C
:1026800007F0EEF940F69221C3F6867107F0E8F9FB
:1026900040F69221CBF6067106F09EFFC8F82C009A
:1026A00040F6DB71C3F6C97106F096FF0646D8F80E
:1026B000100040F69221D8F80050CBF6067106F0D3
:1026C0008BFF044606F0BAFD0021C4F27A3107F010
:1026D000C7F9294606F080FFBBF1000F074600F05E
:1026E000A580D8F80450204606F09CFE0021C4F2D4
:1026F0007A3107F0B5F9294606F06EFF8046ABF156
:10270000010003280BF00300CDF810A0CDE9060767
:10271000CDE9026B80F09A8000204FF0000B4FF063
:1027200000090A900698DDF810A0002800F0FC834C
:102730000AEB0B16707B002800F0F982D6E9001432
:10274000384607F097FB05464046214607F092FBC6
:10275000014607F085F904462846294607F080F926
:10276000214606F039FF06F021FFB2680021044639
:10277000C4F2A011104606F02FFF0146204606F0D5
:10278000A8FF002840F0D3820899CA46D1E9000486
:10279000D6E9001507F06EFB06462046294607F0ED
:1027A00069FB0146814607F05BF904463046314635
:1027B00007F056F9214606F00FFF06F0F7FE00215C
:1027C000044606F08DFF002840F0AE820021C4F2DE
:1027D000C821204606F09EFF4FF07C5107464FF07F
:1027E0007C5506F06FFF002818BF3D46079F4FF04D
:1027F0007E50294606F08EFF05463046214606F0FB
:1028000089FF294607F02CF9514606F0E5FE0146FE
:1028100048468946214606F07DFF294607F020F903
:102820000A9906F0D9FE0A907FE200BF204606F022
:10283000F9FD0021C4F22A31384606F058FF00287D
:1028400000F000824FF07F5709E200BF0BF0FC0060
:10285000002609900AF1200A4FF0000BC4F2A016DE
:102860004FF0000900200A900BE000BF0026C4F2E0
:10287000A01609980BF1040B58450AF1400A3FF4E1
:1028800051AF1AF8130C002875D05AE908143846CD
:1028900007F0F0FA05464046214607F0EBFA0146FC
:1028A00007F0DEF804462846294607F0D9F8214605
:1028B00006F092FE06F07AFE5AF8181C0446084606
:1028C000314606F089FE0146204606F002FF002848
:1028D00051D108994F46D1E900045AE9081507F08B
:1028E000C9FA81462046294607F0C4FA0146064641
:1028F00007F0B6F804464846494607F0B1F82146C5
:1029000006F06AFE06F052FE0021044606F0E8FEDC
:1029100060BB00212046C4F2C82106F0FBFE4FF048
:102920007C51054606F0CEFE00284FF07C5008BFD3
:1029300005464FF07E50294606F0ECFE0546484617
:10294000214606F0E7FE294607F08AF8394606F0E8
:1029500043FE81463046214606F0DCFE294607F05C
:102960007FF80A9906F038FE0A9000E0B946079F02
:102970000026C4F2A0161AF8030C002872D05AE9F7
:102980000414384607F076FA05464046214607F01B
:1029900071FA014607F064F804462846294607F014
:1029A0005FF8214606F018FE06F000FE5AF8081CF3
:1029B00004460846314606F00FFE0146204606F062
:1029C00088FE00284ED10899D1E900055AE904167D
:1029D00007F050FA04462846314607F04BFA014604
:1029E000064607F03DF805462046214607F038F830
:1029F000294606F0F1FD06F0D9FD0021054606F056
:102A00006FFE60BB00212846C4F2C82106F082FE9A
:102A10004FF07C51074606F055FE00284FF07C50E1
:102A200008BF07464FF07E50394606F073FE074652
:102A30002046294606F06EFE394607F011F8494651
:102A400006F0CAFD81463046294606F063FE394647
:102A5000079F07F005F80A9906F0BEFD0A900026C8
:102A6000C4F2A0169AF80D00002872D0DAE900141A
:102A7000384607F0FFF905464046214607F0FAF9C7
:102A8000014606F0EDFF04462846294606F0E8FF19
:102A9000214606F0A1FD06F089FDDAF8081004468B
:102AA0000846314606F098FD0146204606F011FE24
:102AB00000284ED10899D1E90005DAE9001607F09F
:102AC000D9F904462846314607F0D4F901460646AE
:102AD00006F0C6FF05462046214606F0C1FF2946FE
:102AE00006F07AFD06F062FD0021054606F0F8FDCD
:102AF00060BB00212846C4F2C82106F00BFE4FF04F
:102B00007C51074606F0DEFD00284FF07C5008BFE0
:102B100007464FF07E50394606F0FCFD074620463A
:102B2000294606F0F7FD394606F09AFF494606F0B9
:102B300053FD81463046294606F0ECFD3946079F95
:102B400006F08EFF0A9906F047FD0A900026C4F2AF
:102B5000A0169AF81D0000283FF48BAEDAE90414A1
:102B6000384607F087F905464046214607F082F9C6
:102B7000014606F075FF04462846294606F070FF18
:102B8000214606F029FD06F011FDDAF8181004467A
:102B90000846314606F020FD0146204606F099FD24
:102BA00000287FF466AE0899D1E90005DAE9041639
:102BB00007F060F904462846314607F05BF9014604
:102BC000064606F04DFF05462046214606F048FF22
:102BD000294606F001FD06F0E9FC0021054606F055
:102BE0007FFD00287FF442AE00212846C4F2C821B0
:102BF00006F090FD4FF07C51074606F063FD00287B
:102C00004FF07C5008BF07464FF07E50394606F023
:102C100081FD07462046294606F07CFD394606F030
:102C20001FFF494606F0D8FC81463046294606F08B
:102C300071FD3946079F06F013FF0A9906F0CCFC98
:102C40000A9013E64CF20001C4F28041384606F0C7
:102C500047FD002806BF0027CBF6C0770027D8F82D
:102C60001050D8F80040284606F0E8FA0021C4F2D7
:102C70007A3106F0F5FE214606F0AEFC0446284601
:102C800006F0D0FB0021C4F22A31204606F02FFDC9
:102C900020B138464FF07F510CE000BF4CF20001EC
:102CA000C4F28041204606F01BFD30B90021CBF66E
:102CB000C071384606F090FC0746D8F8100040F680
:102CC0009221D8F80040C3F6067106F085FC05464F
:102CD00006F0B4FA0021C4F27A3106F0C1FE2146B2
:102CE00006F07AFC0446284606F09CFB0021C4F25C
:102CF0002A31204606F0FBFC20B138464FF07F51C8
:102D00000CE000BF4CF20001C4F28041204606F006
:102D1000E7FC30B90021CBF6C071384606F05CFC08
:102D20000746002501F087B8D146DDF810A00698C7
:102D3000012800F0F9800BF101000AEB0016707B0E
:102D4000002876D0D6E90014384607F093F80546F7
:102D50004046214607F08EF8014606F081FE044603
:102D60002846294606F07CFE214606F035FC06F092
:102D70001DFCB26800210446C4F2A011104606F002
:102D80002BFC0146204606F0A4FC002851D10899EE
:102D9000CA46D1E90004D6E9001507F06BF80646EB
:102DA0002046294607F066F80146814606F058FE9F
:102DB00004463046314606F053FE214606F00CFC30
:102DC00006F0F4FB0021044606F08AFC70BB0021EB
:102DD000C4F2C821204606F09DFC4FF07C51074606
:102DE0004FF07C5506F06EFC002818BF3D46079F4B
:102DF0004FF07E50294606F08DFC054630462146B0
:102E000006F088FC294606F02BFE514606F0E4FB4E
:102E1000014648468946214606F07CFC294606F0D4
:102E20001FFE0A9906F0D8FB0A9000E0D146DDF8B3
:102E300010A00698022877D00BF102000AEB0016CA
:102E4000707B002870D0D6E90014384607F012F8DD
:102E500005464046214607F00DF8014606F000FE03
:102E600004462846294606F0FBFD214606F0B4FB41
:102E700006F09CFBB26800210446C4F2A011104683
:102E800006F0AAFB0146204606F023FC00284BD1A1
:102E90000899D1E90004D6E9001506F0EBFF0746D2
:102EA0002046294606F0E6FF0146804606F0D8FD9A
:102EB00004463846394606F0D3FD214606F08CFB21
:102EC00006F074FB0021044606F00AFC58BB002102
:102ED000C4F2C821204606F01DFC4FF07C51054687
:102EE0004FF07C5606F0EEFB002818BF2E464FF040
:102EF0007E50314606F00EFC05463846214606F067
:102F000009FC294606F0ACFD494606F065FB814602
:102F10004046214606F0FEFB294606F0A1FD0A992F
:102F200006F05AFB0A90079F0021C4F22A31384666
:102F300006F0DDFB20B148464FF07F510CE000BFAA
:102F40004CF20001C4F28041384606F0C9FB38B9A2
:102F50000021CBF6C071484606F03EFB099001E027
:102F6000CDF82490DDF82080039FD8F81050D8F8D1
:102F70000040284606F062F90026C4F27A3631464F
:102F800006F06EFD214606F027FBD8F804400690B7
:102F9000284606F047FA314606F062FD214606F063
:102FA0001BFB791E8146032907F003000590019160
:102FB00080F08681069F4FF0000B0598DDF810A089
:102FC000002800F070810AEB0B16707B002871D08E
:102FD000D6E90014384606F04DFF0546484621461E
:102FE00006F048FF014606F03BFD04462846294608
:102FF00006F036FD214606F0EFFA06F0D7FAB26881
:1030000000210446C4F2A011104606F0E5FA01467C
:10301000204606F05EFB00284CD1D8E90004D6E932
:10302000001506F027FF06462046294606F022FF37
:103030000146804606F014FD04463046314606F04F
:103040000FFD214606F0C8FA06F0B0FA002104464A
:1030500006F046FB60BB0021C4F2C821204606F002
:1030600059FB4FF07C5105464FF07C5706F02AFB88
:10307000002818BF2F464FF07E503946069F06F0B5
:1030800049FB05463046214606F044FB294606F03A
:10309000E7FC099906F0A0FA09904046214606F09F
:1030A00039FB294606F0DCFC0A9906F095FA0A90ED
:1030B000DDF820800598012800F0F5800BF1010073
:1030C0000AEB0016707B002871D0D6E90014384650
:1030D00006F0D0FE05464846214606F0CBFE0146E6
:1030E00006F0BEFC04462846294606F0B9FC2146F7
:1030F00006F072FA06F05AFAB26800210446C4F2E9
:10310000A011104606F068FA0146204606F0E1FAE2
:1031100000284CD1D8E90004D6E9001506F0AAFE33
:1031200006462046294606F0A5FE0146804606F0E2
:1031300097FC04463046314606F092FC214606F0E4
:103140004BFA06F033FA0021044606F0C9FA60BBD8
:103150000021C4F2C821204606F0DCFA4FF07C5171
:1031600005464FF07C5706F0ADFA002818BF2F46F1
:103170004FF07E503946069F06F0CCFA05463046A1
:10318000214606F0C7FA294606F06AFC099906F0BE
:1031900023FA09904046214606F0BCFA294606F07B
:1031A0005FFC0A9906F018FA0A90DDF8208005986D
:1031B000022878D00BF102000AEB0016707B002881
:1031C00071D0D6E90014384606F054FE054648464C
:1031D000214606F04FFE014606F042FC0446284612
:1031E000294606F03DFC214606F0F6F906F0DEF928
:1031F000B26800210446C4F2A011104606F0ECF9B2
:103200000146204606F065FA00284CD1D8E90004B2
:10321000D6E9001506F02EFE07462046294606F0A0
:1032200029FE0146804606F01BFC04463846394616
:1032300006F016FC214606F0CFF906F0B7F900219A
:10324000044606F04DFA58BB0021C4F2C8212046BE
:1032500006F060FA4FF07C5105464FF07C5606F0C0
:1032600031FA002818BF2E464FF07E50314606F046
:1032700051FA05463846214606F04CFA294606F032
:10328000EFFB099906F0A8F909904046214606F09F
:1032900041FA294606F0E4FB0A9906F09DF90A90E6
:1032A000DDF82080069F0021C4F22A31384606F05E
:1032B0001EFA002800F0F88109984FF07F51FFE1D5
:1032C00007F0FC000026069F0AF1200A4FF0000BD1
:1032D000C4F2A01607900AE00026C4F2A0160798D0
:1032E0000BF1040B58450AF1400A3FF466AE1AF898
:1032F000130C002873D05AE90814384606F0BAFDBA
:1033000005464846214606F0B5FD014606F0A8FBF5
:1033100004462846294606F0A3FB214606F05CF940
:1033200006F044F95AF8181C04460846314606F0DF
:1033300053F90146204606F0CCF900284FD1D8E9D0
:1033400000055AE9081606F095FD04462846314660
:1033500006F090FD0146064606F082FB0546204633
:10336000214606F07DFB294606F036F906F01EF9E7
:103370000021054606F0B4F970BB00212846C4F2CE
:10338000C82106F0C7F94FF07C51804606F09AF943
:1033900000284FF07C5008BF80464FF07E504146D9
:1033A000DDF8208006F0B6F907462046294606F0EB
:1033B000B1F9394606F054FB099906F00DF9099068
:1033C0003046294606F0A6F93946069F06F048FB26
:1033D0000A9906F001F90A900026C4F2A0161AF81C
:1033E000030C002871D05AE90414384606F042FD57
:1033F00005464846214606F03DFD014606F030FBF5
:1034000004462846294606F02BFB214606F0E4F840
:1034100006F0CCF85AF8081C04460846314606F077
:10342000DBF80146204606F054F900284DD1D8E9D2
:1034300000055AE9041606F01DFD044628463146EB
:1034400006F018FD0146064606F00AFB0546204632
:10345000214606F005FB294606F0BEF806F0A6F860
:103460000021054606F03CF960BB00212846C4F265
:10347000C82106F04FF94FF07C51074606F022F9BB
:1034800000284FF07C5008BF07464FF07E50394669
:1034900006F040F907462046294606F03BF9394632
:1034A00006F0DEFA099906F097F8099030462946A9
:1034B00006F030F93946069F06F0D2FA0A9906F06E
:1034C0008BF80A900026C4F2A0169AF80D00002886
:1034D00071D0DAE90014384606F0CCFC05464846BF
:1034E000214606F0C7FC014606F0BAFA0446284613
:1034F000294606F0B5FA214606F06EF806F056F8B1
:10350000DAF8081004460846314606F065F8014628
:10351000204606F0DEF800284DD1D8E90005DAE9AA
:10352000001606F0A7FC04462846314606F0A2FC29
:103530000146064606F094FA05462046214606F066
:103540008FFA294606F048F806F030F800210546C3
:1035500006F0C6F860BB00212846C4F2C82106F078
:10356000D9F84FF07C51074606F0ACF800284FF030
:103570007C5008BF07464FF07E50394606F0CAF827
:1035800007462046294606F0C5F8394606F068FA8F
:10359000099906F021F809903046294606F0BAF854
:1035A0003946069F06F05CFA0A9906F015F80A906B
:1035B0000026C4F2A0169AF81D0000283FF48FAE32
:1035C000DAE90414384606F055FC0546484621461B
:1035D00006F050FC014606F043FA04462846294608
:1035E00006F03EFA214605F0F7FF05F0DFFFDAF8B6
:1035F000181004460846314605F0EEFF0146204605
:1036000006F067F800287FF46AAED8E90005DAE929
:10361000041606F02FFC04462846314606F02AFC24
:103620000146064606F01CFA05462046214606F0ED
:1036300017FA294605F0D0FF05F0B8FF002105462E
:1036400006F04EF800287FF447AE00212846C4F269
:10365000C82106F05FF84FF07C51074606F032F8BB
:1036600000284FF07C5008BF07464FF07E50394687
:1036700006F050F807462046294606F04BF8394632
:1036800006F0EEF9099905F0A7FF099030462946A2
:1036900006F040F83946069F06F0E2F90A9905F06F
:1036A0009BFF0A9018E600BF4CF20001C4F2804173
:1036B000384606F015F830B900210998CBF6C071EC
:1036C00005F08AFF0990D8F8100040F69221DDF845
:1036D0000CB0019FD8F80040C3F6067105F07CFFDE
:1036E000054605F0ABFD0026C4F27A36314606F0F9
:1036F000B7F9214605F070FFD8F804400690284637
:1037000005F090FE314606F0ABF9214605F064FF66
:10371000032F814680F08681069F4FF0000B0598AD
:10372000002800F07281DDF810A00AEB0B16707B08
:10373000002871D0D6E90014384606F09BFB0546F8
:103740004846214606F096FB014606F089F90446F4
:103750002846294606F084F9214605F03DFF05F08C
:1037600025FFB26800210446C4F2A011104605F0FE
:1037700033FF0146204605F0ACFF00284CD1D8E9C4
:103780000004D6E9001506F075FB064620462946DA
:1037900006F070FB0146804606F062F904463046AA
:1037A000314606F05DF9214605F016FF05F0FEFEF4
:1037B0000021044605F094FF60BB0021C4F2C8213B
:1037C000204605F0A7FF4FF07C5105464FF07C578F
:1037D00005F078FF002818BF2F464FF07E5039467D
:1037E000069F05F097FF05463046214605F092FFFB
:1037F000294606F035F9099905F0EEFE0990404694
:10380000214605F087FF294606F02AF90A9905F0B6
:10381000E3FE0A90DDF820800598012800F0F5808D
:103820000BF101000AEB0016707B002871D0D6E97D
:103830000014384606F01EFB05464846214606F0B1
:1038400019FB014606F00CF904462846294606F005
:1038500007F9214605F0C0FE05F0A8FEB268002178
:103860000446C4F2A011104605F0B6FE01462046FB
:1038700005F02FFF00284CD1D8E90004D6E9001547
:1038800006F0F8FA06462046294606F0F3FA014605
:10389000804606F0E5F804463046314606F0E0F88A
:1038A000214605F099FE05F081FE0021044605F051
:1038B00017FF60BB0021C4F2C821204605F02AFF93
:1038C0004FF07C5105464FF07C5705F0FBFE002879
:1038D00018BF2F464FF07E503946069F05F01AFF5D
:1038E00005463046214605F015FF294606F0B8F892
:1038F000099905F071FE09904046214605F00AFF3E
:10390000294606F0ADF80A9905F066FE0A90DDF842
:1039100020800598022878D00BF102000AEB0016EF
:10392000707B002871D0D6E90014384606F0A2FA60
:1039300005464846214606F09DFA014606F090F8F5
:1039400004462846294606F08BF8214605F044FE39
:1039500005F02CFEB26800210446C4F2A011104606
:1039600005F03AFE0146204605F0B3FE00284CD192
:10397000D8E90004D6E9001506F07CFA074620468F
:10398000294606F077FA0146804606F069F80446B3
:103990003846394606F064F8214605F01DFE05F06C
:1039A00005FE0021044605F09BFE58BB0021C4F231
:1039B000C821204605F0AEFE4FF07C5105464FF081
:1039C0007C5605F07FFE002818BF2E464FF07E5033
:1039D000314605F09FFE05463846214605F09AFE21
:1039E000294606F03DF8099905F0F6FD0990404694
:1039F000214605F08FFE294606F032F80A9905F0B7
:103A0000EBFD0A90DDF82080069F0021C4F22A31E8
:103A1000384605F06CFE002800F0F88109984FF058
:103A20007F51FFE10026069F0BF0FC000AF1200AFF
:103A30004FF0000BC4F2A01607900AE00026C4F273
:103A4000A01607980BF1040B58450AF1400A3FF401
:103A500066AE1AF8130C002873D05AE908143846D9
:103A600006F008FA05464846214606F003FA0146E4
:103A700005F0F6FF04462846294605F0F1FF2146E9
:103A800005F0AAFD05F092FD5AF8181C04460846F8
:103A9000314605F0A1FD0146204605F01AFE00283A
:103AA0004FD1D8E900055AE9081606F0E3F90446B3
:103AB0002846314606F0DEF90146064605F0D0FFFD
:103AC00005462046214605F0CBFF294605F084FD3A
:103AD00005F06CFD0021054605F002FE70BB0021DB
:103AE0002846C4F2C82105F015FE4FF07C518046EF
:103AF00005F0E8FD00284FF07C5008BF80464FF0ED
:103B00007E504146DDF8208005F004FE0746204641
:103B1000294605F0FFFD394605F0A2FF099905F099
:103B20005BFD09903046294605F0F4FD3946069FB5
:103B300005F096FF0A9905F04FFD0A900026C4F2A1
:103B4000A0161AF8030C002871D05AE9041438465C
:103B500006F090F905464846214606F08BF90146E5
:103B600005F07EFF04462846294605F079FF2146E8
:103B700005F032FD05F01AFD5AF8081C0446084607
:103B8000314605F029FD0146204605F0A2FD00283A
:103B90004DD1D8E900055AE9041606F06BF9044640
:103BA0002846314606F066F90146064605F058FFFC
:103BB00005462046214605F053FF294605F00CFD39
:103BC00005F0F4FC0021054605F08AFD60BB0021EC
:103BD0002846C4F2C82105F09DFD4FF07C510746F0
:103BE00005F070FD00284FF07C5008BF07464FF0ED
:103BF0007E50394605F08EFD07462046294605F0E1
:103C000089FD394605F02CFF099905F0E5FC09907E
:103C10003046294605F07EFD3946069F05F020FF17
:103C20000A9905F0D9FC0A900026C4F2A0169AF869
:103C30000D00002871D0DAE90014384606F01AF9B0
:103C400005464846214606F015F9014605F008FFED
:103C500004462846294605F003FF214605F0BCFC32
:103C600005F0A4FCDAF8081004460846314605F0D1
:103C7000B3FC0146204605F02CFD00284DD1D8E9C3
:103C80000005DAE9001606F0F5F804462846314644
:103C900006F0F0F80146064605F0E2FE054620462D
:103CA000214605F0DDFE294605F096FC05F07EFC78
:103CB0000021054605F014FD60BB00212846C4F232
:103CC000C82105F027FD4FF07C51074605F0FAFCAE
:103CD00000284FF07C5008BF07464FF07E50394611
:103CE00005F018FD07462046294605F013FD394624
:103CF00005F0B6FE099905F06FFC0990304629469B
:103D000005F008FD3946069F05F0AAFE0A9905F060
:103D100063FC0A900026C4F2A0169AF81D00002841
:103D20003FF48FAEDAE90414384606F0A3F80546EE
:103D30004846214606F09EF8014605F091FE0446ED
:103D40002846294605F08CFE214605F045FC05F085
:103D50002DFCDAF8181004460846314605F03CFC04
:103D60000146204605F0B5FC00287FF46AAED8E98C
:103D70000005DAE9041606F07DF8044628463146C7
:103D800006F078F80146064605F06AFE054620462C
:103D9000214605F065FE294605F01EFC05F006FCEF
:103DA0000021054605F09CFC00287FF447AE002169
:103DB0002846C4F2C82105F0ADFC4FF07C510746FF
:103DC00005F080FC00284FF07C5008BF07464FF0FC
:103DD0007E50394605F09EFC07462046294605F0F0
:103DE00099FC394605F03CFE099905F0F5FB099070
:103DF0003046294605F08EFC3946069F05F030FE18
:103E00000A9905F0E9FB0A9018E600BF4CF20001A0
:103E1000C4F28041384605F063FC48B90021099896
:103E2000CBF6C07105F0D8FB029E0A9D074602E062
:103E3000029EDDE909752846294605F011FE044673
:103E40003846394605F00CFE214605F0C5FB05F065
:103E5000ADFB4CF6CD41C3F6CC5105F033FC20B19F
:103E60002846394605F098F80646C8F810600BB0A9
:103E7000BDE8F08F40F2CC04C2F20004EFF31080F2
:103E800072B600BF204600F00BF8FBE710B5044601
:103E900001F0E4FC2046BDE8104001F0CDBE00007A
:103EA00010B50446D0F8900F002808BF10BDFCF7ED
:103EB000BEF90020C4F8900F10BD00002DE9F047B6
:103EC00004460020C4F2164048F20005C4F2224520
:103ED0004FF0000A84E8210400200021C4F2C81039
:103EE000C4F240014FF06412C4E906A09420C4E972
:103EF0000312A4F814A0C4F8A4AF04F1200704F539
:103F0000DE6804F66C49FCF763F90646384640F271
:103F1000CE61FCF716FA404640F27951FCF711FAEF
:103F2000484640F22131FCF70CFAC4F8906F1EB1FC
:103F3000304603F01BFF65680021CCF2484128465B
:103F400005F04AFB0021C4F2483105F045FB002191
:103F5000C4F8940FCCF2C841284605F03DFBC4F8E4
:103F6000980F012084F89C0FC4F8A0AFBDE8F0873B
:103F7000B0B590F88C3F00F66C42044601F04AFE62
:103F80002046FCF7CBFE204602F046F8D4F8A00FFE
:103F90004EF6EF61CEF6EE61484342F222214FEA3F
:103FA000F000C0F22221884215D8606848F2000172
:103FB000C4F23B5105F010FB054620462946FCF7AC
:103FC00011FB2046294601F009FCD4F8900F10B1EE
:103FD000294603F09FFCD4F8900F10B1214603F05E
:103FE000CBFE2046FFF752FF60680021CCF248412B
:103FF00005F0F2FA0021C4F2483105F0EDFAB4F907
:104000001010C4F8940F0029DCBF002084F89C0F26
:10401000B0BD0000014690F82100022816D10868C2
:10402000D1E90FC3026822F00E020260026822F09A
:1040300001020260012000FA03F2CCF8042081F8AA
:1040400021000020002281F820207047042088638E
:104050000120002281F820207047000080B590F8F0
:104060002110022924D10268116821F00E0111608B
:104070002F211368C4F202018A4240F20401C4F203
:10408000020123F00103136016DD3023C4F20203A2
:104090009A421DD04423C4F202039A421CD05823F2
:1040A000C4F202039A421DD14FF4803322E000BFD4
:1040B00004218163012080BD0823C4F202039A42D7
:1040C0000ED01C23C4F202039A420BD1102311E03C
:1040D0004FF480730EE000BF4FF480530AE000BF3E
:1040E000012307E001F1680C4FF08073624508BFBF
:1040F0004FF480130B60012180F82110426B0021E6
:1041000080F820100AB190470021084680BD0000C9
:1041100010B5D0E90FCE0168DCF800300A6823FA48
:104120000EF35C072AD512F0040427D00A68920621
:1041300003D40A6822F004020A602F22C4F20202A9
:10414000914240F20402C4F202025BDD3023C4F269
:104150000203994272D04423C4F20203994273D0FD
:104160005823C4F20203994240F07A804FF480232E
:104170001360C16A002940F098806FE09C0727D542
:1041800012F0020424D00A68920606D40A6822F0CB
:104190000A020A60012280F821202F22C4F20202C2
:1041A000914240F20402C4F202023BDD3023C4F229
:1041B0000203994260D04423C4F2020399425FD0C3
:1041C0005823C4F20203994260D14FF4003365E0F2
:1041D0001B0743D512F0080208BF10BD0A6822F081
:1041E0000E020A60012101FA0EF2CCF8042081636C
:1041F00080F82110016B0022002980F8202054D182
:104200002CE000BF0823C4F20203994222D01C23F1
:10421000C4F20203994223D140231360C16A0029EA
:1042200043D11BE00823C4F2020399422CD01C2383
:10423000C4F20203994229D120232FE04FF4806376
:104240001360C16A89BB09E04FF480431360C16AFF
:1042500059BB03E004231360C16A31BB10BD00BF2A
:1042600002F168044FF08063A14208BF4FF480035D
:104270001360C16AC9B9F1E74FF400730EE000BFE3
:104280004FF400530AE000BF022307E002F1680484
:104290004FF00073A14208BF4FF400131360816A0E
:1042A0000022002980F82020D8D0BDE8104008471F
:1042B000014600284FF0010008BF70472DE9F04388
:1042C000D1F800C04FF6F873CBF6FD734CF6CD4233
:1042D0006344CCF6CC42A3FB02236FF0030707EA4A
:1042E00093030027C4F2020701F10C09C1E90F731F
:1042F0000223D1E9012E99E87002D1F81C8081F8DF
:104300002130DCF8003043F6F077BB431A4342EA31
:104310000E0222432A43324342EA090242EA0802D9
:10432000CCF8002000228A6381F8210081F8202047
:104330000020BDE8F0437047F0B590F820C0BCF114
:10434000010F32D04FF0010E80F820E090F821C02C
:10435000BCF1010F26D14FF0020C80F821C04FF0C4
:10436000000CC0F838C0D0E900C4C56AC66BDCF8E0
:104370000070102C27F00107CCF80070006C0EFACA
:1043800000F070600846CCF8043004BF10460A46BE
:10439000CCF80800CCF80C20DCF8000045B140F067
:1043A0000E000DE0002180F820100220F0BD00BFBB
:1043B00020F00400CCF80000DCF8000040F00A0017
:1043C000CCF80000DCF8000040F00100CCF8000060
:1043D0000020F0BD7047000040F21441C4F201011A
:1043E0000A68024214BF08607047FFF7F3BF00007D
:1043F0002DE9F04F82B00E68002E00F0038141F2EB
:104400000042C4F20102042340F2004E904208BF71
:1044100003234FF6FF7CC4F2010E00930024012316
:10442000C1F2100C4FF0000A4FF0000949E000BF44
:10443000012704F00C030F229A402BEA020207FA2C
:1044400003F34FEA9A051A4346F82520D1F804B041
:1044500040F20C455FEACB22DEF8082054BF22EA86
:10446000080242EA0802C4F20105CEF808202A68D0
:104470005FEA8B2354BF22EA080242EA08022A605C
:104480005FEA8B33DEF8042054BF22EA080242EAD6
:1044900008025FEACB33CEF80420DEF800204FF0AC
:1044A000010354BF22EA080242EA0802CEF80020C3
:1044B0000E680AF1010A36FA0AF204F1040400F067
:1044C000A18003FA0AF816EA080FF1D04E68664593
:1044D00012DC122E56D8DFE806F0350B454955554B
:1044E00055555555555555555555554D510000BFC8
:1044F000D1F80C9046E000BF4FF6FF72C1F22102E6
:1045000096420FDC0022C1F2110296421AD000221C
:10451000C1F21202964215D00022C1F22102964247
:1045200010D02FE00022C1F2220296420AD00022CF
:10453000C1F23102964205D00022C1F23202964207
:1045400020D100BF8A684AB1012A14BFC0F8148084
:10455000C0F810804FF0080914E000BF4FF00409C4
:1045600010E000BFCA6802F108090BE04FF0000933
:1045700008E000BFCA6802F1040903E0CA6802F15A
:104580000C0900BF22460646BAF1080F24BF203AA4
:10459000043637680F25954027EA050509FA02F227
:1045A0002A433260CA79D2067FF582AF41F21803FE
:1045B000C4F202031A68AEF57E7642F001021A6078
:1045C0001A6802F001020192019A2AF0030256F8D9
:1045D00002B040F60002C4F20102904210D040F650
:1045E0000042C4F2010290423FF422AF41F20002C5
:1045F000C4F20102009F904208BF022719E700BFE2
:10460000002716E702B0BDE8F08F00008068084080
:1046100018BF01207047000041F6FC40C2F20000C4
:104620000068704740F2000041F6FC41C2F2000011
:10463000C2F2000100780A68104408607047000068
:1046400080B542F20000C4F20200016841F010019E
:104650000160032000F08EF8002000F005F800F063
:1046600027F8002080BD000070B540F20006C2F2BD
:10467000000640F208013278C2F200014FF47A736A
:104680000968B3FBF2F20446B1FBF2F1084600F010
:1046900063FB0F2C4FF0010508D838B94FF0FF30FD
:1046A00021460022002500F039F87460284670BDCC
:1046B00082B041F21800C4F202000168042241F005
:1046C00001010160016801F0010101910199416856
:1046D00041F080514160406800F0805000900098A7
:1046E0000420C4F20100016862F31A61016002B0A3
:1046F00070470000002848BF7047C1B200F01F009B
:10470000012202FA00F04EF20012CEF2000242EA5A
:10471000D10121F0030108607047000010B54EF68A
:104720000C5CCEF2000CDCF80030C3F3022E8EF0ED
:104730000704042C28BF0424BEF103034FF0FF3EFE
:104740000EFA04F438BF0023A14399400EFA03F394
:104750009A43114300F00F0200F160430901043A4B
:1047600003F564436244002848BF02F10C0319704A
:1047700010BD00004EF60C51CEF200010A684FF653
:10478000FF031A4060F30A2242F0806040F0FD709F
:10479000086070472DE9F04381B0002800F0858063
:1047A00042F20008C4F202080446D8F800000D46A0
:1047B00000F0070088420CD2D8F8000020F0070073
:1047C0002843C8F80000D8F8000000F00700A8420D
:1047D0006BD1206841F204098107C4F2020917D5A0
:1047E000410705D5D9F8001041F4E061C9F800107F
:1047F000010705D5D9F8001041F46051C9F800103F
:10480000D9F80010A26821F0F0011143C9F8001096
:10481000C00741D1D8F8000000F00700A8420CD929
:10482000D8F8000020F007002843C8F80000D8F8A6
:10483000000000F00700A84237D12068410707D5E3
:10484000D9F80010E26821F4E0611143C9F80010C2
:10485000000708D5D9F80000216920F4605040EA2B
:10486000C100C9F80000D9F8002002F00C000828A7
:1048700041F20020C0F27A0050D14AF28403C2F320
:104880008341C0F60003595CD2033BD440F60010CC
:10489000C0F23D00484341E0606802280AD0012888
:1048A0002AD159F8041C890308D4012001B0BDE8BD
:1048B000F08300BF59F8041C8901F6D5D9F800101F
:1048C00021F003010843C9F80000FFF7A5FE0646E2
:1048D00041F28837D9F80000616800F00C00B0EBB5
:1048E000810F97D0FFF798FE801BB842F2D90320C2
:1048F00001B0BDE8F08300BF59F8041C8907D4D586
:10490000DCE700BFD9F800204AF28203C2F340423C
:10491000C0F600039A5C4843B0FBF2F0D9F80010EF
:104920004AF26A02C1F30311C0F60002515C40F280
:10493000080220FA01F140F20400C2F2000000680F
:10494000C2F200021160FFF78FFE002001B0BDE847
:10495000F083000040F2080041F20401C2F20000BE
:10496000C4F20201006809684AF27A02C1F3022126
:10497000C0F60002515CC8407047000040F20800D9
:1049800041F20401C2F20000C4F2020100680968A9
:104990004AF27A02C1F3C221C0F60002515CC8405B
:1049A000704700002DE9F04182B0002868D004462D
:1049B000007841F20006C007C4F2020625D07068F4
:1049C00000F00C0004281BD0706800F00C000828D0
:1049D00002D17068C00313D46068002800F06881B9
:1049E000B0F5A02F00F07C81B0F5803F00F07C8115
:1049F000306820F480303060306820F4802076E128
:104A00003068800301D56068D0B32078800718D55E
:104A1000706810F00C0F07D0706800F00C000828C8
:104A20006ED17068C0036BD43068800702D52069EE
:104A3000012825D13068616920F0F80040EAC10002
:104A40003060207800071FD42078400732D4E56911
:104A500095B1706800F00C00082840F08F80012D9F
:104A60000ED07068216A00F480328A4208D1616AEF
:104A700000F47010884203D1002002B0BDE8F0813C
:104A8000012002B0BDE8F081A069002862D00020BA
:104A9000C4F242200121C0F88014FFF7BDFD054695
:104AA000706A800700F18C80FFF7B6FD401B02287A
:104AB000F6D92AE1F06910F0805808D1F06940F089
:104AC0008050F061F06900F080500090009847F24B
:104AD0000007C4F200073868C00529D4386840F4DC
:104AE00080703860FFF798FD054600BF3868C00544
:104AF0001ED4FFF791FD401B6428F7D905E100BFE4
:104B00002069002840F20000C4F2422000F08280B8
:104B100001210160FFF780FD054600BF3068800776
:104B20003FF588AFFFF778FD401B0228F6D9ECE08F
:104B3000E068002800F08080052800F097800128B8
:104B400000F09880306A20F001003062306A20F076
:104B5000040092E00020C4F242200021C0F880143A
:104B6000FFF75AFD054600BF706A80077FF56CAFFE
:104B7000FFF752FD401B0228F6D9C6E00027C4F219
:104B8000422700203866FFF747FD022D05460BD16E
:104B90003068800140F1BE80FFF73EFD401B0228D7
:104BA0004FF00300F4D968E7306880017FF564AF07
:104BB000FFF732FD401B02284FF00300F4D95CE7F9
:104BC00040F20800C2F20000006844F6D351C1F27E
:104BD0006201A0FB0101480A019000BF00BF0198DB
:104BE000411E002801913FF42FAF00BF0198411EE4
:104BF000002801913FF428AF00BF0198411E002812
:104C000001913FF421AF00BF0198411E002801919E
:104C1000E4D119E700210160FFF7FEFC054600BF63
:104C2000306880077FF50DAFFFF7F6FC401B0228C8
:104C30004FF00300F4D920E7306A20F00100306221
:104C4000306A20F004003062FFF7E6FC054641F2CE
:104C5000883700BF306A800720D5FFF7DDFC401B96
:104C6000B8424FF00300F5D907E700BF306A40F0C3
:104C700004003062306A40F001003062FFF7CCFC83
:104C8000054641F2883700BF306A800706D4FFF737
:104C9000C3FC401BB842F7D937E000BFB8F1000FA2
:104CA0007FF4D5AEF06920F08050F061CFE600BF10
:104CB000306820F480303060306820F4802030602C
:104CC000FFF7AAFC054600BF306880037FF59DAE64
:104CD000FFF7A2FC401B64284FF00300F4D9CCE698
:104CE000306840F480203060306840F480303060BC
:104CF000FFF792FC054600BF306880033FF585AEA4
:104D0000FFF78AFC401B6428F6D9032002B0BDE8F7
:104D1000F08100BF206AB0F5803F05D17168A268BC
:104D200021F40031114371607168626A21F47411D9
:104D300011430843706001203866FFF76DFC04469C
:104D4000306880013FF598AEFFF766FC001B022833
:104D50004FF00300F4D990E6411E0020B0EB116F34
:104D60001CBF012070474EF21002CEF200025160CB
:104D70004EF62351CEF20001F0230B700721906014
:104D80001160704770470000006844F20041C4F2AF
:104D90000001884218BF704740F2700040F2C00C1A
:104DA000C2F2000041F2FC01C2F2000C0023083004
:104DB000C2F200014FF400628CF8003000F08EBBAC
:104DC000B0B582B0044600680168C368426901F06A
:104DD0002F05202D03F0200506D12DB1204602B06D
:104DE000BDE8B04002F0F0BC5FEA017C1EBF02F0FB
:104DF000010E03F4907212EB0E0253D1226B012AC2
:104E000005D111F0100218BF13F0100236D10A06B6
:104E100022D513F080021FD094F8411021293FD1F0
:104E2000A168B1F5805F03D12169002900F070828B
:104E3000216A4A1C226209784160E18C01390A0426
:104E4000E1842DD1C16821F08001C160C16841F0C9
:104E50004001C16002B0B0BD490621D513F0400148
:104E60001ED0C16821F04001C1602021204684F895
:104E7000411002B0BDE8B04000F042BC00210191F9
:104E8000016801914168019101994069400613D47C
:104E9000A08DE18DE28D002A18BF884240F0BA81D2
:104EA00002B0B0BDCA0718BF13F4807240F0B680DC
:104EB0004A0700F1B980BEE0E06B016849688AB238
:104EC000002AEDD0A38D9A42EAD2E185806920289C
:104ED00000F09C80206850E8030F216820F4807067
:104EE00041E80302DAB1206850E8030F216820F49A
:104EF000807041E8030292B1206850E8030F2168F6
:104F000020F4807041E803024AB1206850E8030FA2
:104F1000216820F4807041E80302002ADAD1206879
:104F200050E8050F216820F0010041E80502DAB1E0
:104F3000206850E8050F216820F0010041E80502D3
:104F400092B1206850E8050F216820F0010041E887
:104F500005024AB1206850E8050F216820F00100E1
:104F600041E80502002ADAD1206850E8050F2168DF
:104F700020F0400041E80502DAB1206850E8050F52
:104F8000216820F0400041E8050292B1206850E815
:104F9000050F216820F0400041E805024AB1206871
:104FA00050E8050F216820F0400041E80502002A82
:104FB000DAD1202084F8420000202063206850E8E5
:104FC000030F216820F0100041E80302DAB12068E5
:104FD00050E8030F216820F0100041E8030292B16D
:104FE000206850E8030F216820F0100041E8030218
:104FF0004AB1206850E8030F216820F0100041E812
:105000000302002ADAD1E06BFFF704F802206063A4
:10501000A08DE18D401A81B2204674E1626C42F0AD
:10502000010262644A0706D5BEF1000F03D0626C2C
:1050300042F0020262648A0706D5BEF1000F03D077
:10504000626C42F004026264BCF1000F09D545EACB
:105050000E02B2FA82F2520903D1626C42F00802E7
:105060006264626C002A3FF41BAF11F0200118BF8C
:10507000002D03D0204602F0A7FB20684069616C38
:1050800000F0400001F00801401800F0B58000BFBA
:10509000206850E8030F216820F4907041E8030273
:1050A000BAB3206850E8030F216820F4907041E8FB
:1050B000030272B3206850E8030F216820F4907057
:1050C00041E803022AB3206850E8030F216820F466
:1050D000907041E80302002ADAD11AE0206850E813
:1050E000050F216820F0010041E80502DAB12068CF
:1050F00050E8050F216820F0010041E8050292B157
:10510000206850E8050F216820F0010041E8050201
:105110004AB1206850E8050F216820F0010041E8FD
:105120000502002ADAD1206B012824D1206850E83A
:10513000030F216820F0100041E80302DAB1206873
:1051400050E8030F216820F0100041E8030292B1FB
:10515000206850E8030F216820F0100041E80302A6
:105160004AB1206850E8030F216820F0100041E8A0
:105170000302002ADAD1202084F8420000202063B4
:105180002068406940063FD5206850E8050F216837
:1051900020F0400041E80502DAB1206850E8050F30
:1051A000216820F0400041E8050292B1206850E8F3
:1051B000050F216820F0400041E805024AB120684F
:1051C00050E8050F216820F0400041E80502002A60
:1051D000DAD1E06BC0B147F21141C0F60001416382
:1051E000FEF73CFF00283FF45BAEE06B416B02B082
:1051F000BDE8B040084700BF2046FFF7C5FD0020CE
:10520000606402B0B0BD00BF204602B0BDE8B0404F
:10521000FFF7BABD401A216851E8031F226821F444
:10522000907142E80313DBB1216851E8031F226843
:1052300021F4907142E8031393B1216851E8031FF0
:10524000226821F4907142E803134BB1216851E8C0
:10525000031F226821F4907142E80313002BDAD176
:10526000216851E8051F226821F0010142E8051379
:10527000DBB1216851E8051F226821F0010142E8F5
:10528000051393B1216851E8051F226821F001013F
:1052900042E805134BB1216851E8051F226821F04F
:1052A000010142E80513002BDAD1202184F84210D5
:1052B00000212163216851E8031F226821F01001B9
:1052C00042E80313DBB1216851E8031F226821F093
:1052D000100142E8031393B1216851E8031F2268CB
:1052E00021F0100142E803134BB1216851E8031F7C
:1052F000226821F0100142E80313002BDAD10222C8
:1053000081B22046626302B0BDE8B040FFF73ABD0B
:10531000216A31F8022B6FF35F22426021628CE533
:10532000002804BF0120704710B5044690F84100E2
:1053300028B9002084F84000204600F063F82420BB
:1053400084F841002068D4E90212C36823F40053B2
:10535000C360036923F440531A430261D4E9042370
:105360001143C268194341F20C639A431143C1606F
:105370004169A26921F44071114343F60002C4F26D
:1053800001029042416103D0FFF7E4FA02E000BF5E
:10539000FFF7F4FA6268192148439100B0FBF1F07D
:1053A00048F21F51C5F2EB11A0FB01235A094FF639
:1053B0009C73C0F6FF7302FB0300322303EB001063
:1053C000A0FB0101F02303EA5113206803EB021252
:1053D000C1F3431111448160016921F490410161DD
:1053E000416921F02A014161C16841F40051C16065
:1053F00000202021606484F8411084F8421060632A
:1054000010BD00002DE9F04186B0044644F2004092
:105410002168C4F2000000268142049602D006B042
:10542000BDE8F08141F21801C4F202014A6840F27D
:105430006C0842F400324A604A6800F5444002F4C5
:1054400000320192019A0A68C4F2020842F0040292
:105450000A60096801F00401019101990C2102918F
:1054600002210391059102A9FEF7C2FF41F27405E2
:10547000C2F2000580272846C5E90086C5E9026713
:10548000C5E90466C5E90666FEF712FF002818BFE5
:10549000FEF7F0FCE5636C6241F2B80508F1140018
:1054A000C2F200051021002285E887002846C5E9E0
:1054B0000422C5E90622FEF7FBFE002818BFFEF70E
:1054C000D9FC262000210022A5636C62FFF726F993
:1054D0002620FFF70FF906B0BDE8F08170B582B065
:1054E000044690F8420020280AD113460A460029B3
:1054F0004FF0010018BF002B06D102B070BD00BFF5
:10550000022002B070BD00BF002522202563A262E8
:10551000A385656484F842002168E06B47F2995CDA
:1055200047F2F96E47F21D46C0F6000CC0F6000EB9
:10553000C0F600060431C0E90ACEC0E90C65FEF7EA
:10554000FBFE019520680168019140680190019877
:10555000206928B3206850E8030F216840F4807068
:1055600041E80302E2B1206850E8030F216840F4EB
:10557000807041E803029AB1206850E8030F216867
:1055800040F4807041E8030252B1206850E8030FF4
:10559000216840F4807041E80302002ADAD100BF9C
:1055A000206850E8050F216840F0010041E805023D
:1055B000E2B1206850E8050F216840F0010041E8A1
:1055C00005029AB1206850E8050F216840F00100FB
:1055D00041E8050252B1206850E8050F216840F00B
:1055E000010041E80502002ADAD100BF206850E836
:1055F000050F216840F0400041E80502DAB120685B
:1056000050E8050F216840F0400041E8050292B1E2
:10561000206850E8050F216840F0400041E805028D
:105620004AB1206850E8050F216840F0400041E889
:105630000502002ADAD1002002B070BD70470000D8
:105640007047000070B5044690F8410020281CBF48
:10565000022070BD00294FF001004DD0002A1346F2
:1056600008BF70BD4FF0000C21202162A384E384A9
:10567000C4F844C084F841002268A06B47F2117E50
:1056800047F2C17547F21D46C0F6000EC0F6000590
:10569000C0F600060432C0E90AE5C0E90C6CFEF76A
:1056A0004BFE20686FF04001016000BF206850E8A9
:1056B000050F216840F0800041E80502F2B1206842
:1056C00050E8050F216840F0800041E80502AAB1CA
:1056D000206850E8050F216840F0800041E805028D
:1056E00062B1206850E8050F216840F0800041E871
:1056F0000502002ADAD1002070BD00BF002070BD75
:10570000006844F20041C4F20001884218BF7047AB
:1057100040F2C000C2F2000000210170704700009A
:1057200070470000FEE700007047000049B1022901
:1057300006D0012912BF002001300078704700BF59
:10574000023000787047000002290BD0012911D0E7
:10575000C1B90178B1B103300078B0FA80F04009E6
:10576000704700BF817869B105300078B0FA80F0E9
:1057700040097047417829B104300078B0FA80F0D0
:105780004009704700207047B0B504460078B4F86F
:10579000011040F60005C4F20105E070A180284622
:1057A0000221FEF733FFB0FA80F04009207028464E
:1057B0001021FEF72BFFB0FA80F04009607005F56C
:1057C00080600121FEF722FFB0FA80F04009A0704E
:1057D000B0BD0000FEE70000FEE700002DE9F04349
:1057E00081B090F88C5F9DB304468846002600F691
:1057F0006C4908E0013D013E84F88C5F0136F0B24F
:10580000E9B2884224D2F7B204EB071090F8791C71
:105810000029F3D0D0F8700C414603F061FF002856
:10582000ECD1E8B20138B842E4D9030159F80330A9
:105830003A0109EB001049F80230D0E90123C068B1
:1058400009EB0711C1E90123C86094F88C5FD1E727
:1058500001B0BDE8F0830000704700002DE9F04F73
:1058600081B0044690F8EC06002845D000264FF0A1
:10587000340A05E0013694F8EC06F1B281423BD2DD
:105880005FFA86F808FB0A4797F847000028F1D02E
:1058900097F846000028EDD007F12002D4E900096E
:1058A000D2E9001B04F0E6FA05464846594604F0E2
:1058B000E1FA014604F0D4F881462846294604F06E
:1058C000CFF8494603F088FE03F070FEE269396CB8
:1058D0000546104603F080FE0146284603F0F9FE17
:1058E0000028C7D1208A41461E3820822046FBF777
:1058F00059F9013EBEE700BF94F8ED06002847D0F5
:10590000002605E0013694F8ED06F1B281423FD25F
:105910005FFA86F808EB480004EB401797F8550348
:105920000028EFD097F854030028EBD007F54B720E
:10593000D4E90009D2E9001A04F09CFA0546484669
:10594000514604F097FA014604F08AF88146284649
:10595000294604F085F8494603F03EFE03F026FE92
:10596000E269D7F84C130546104603F035FE0146B0
:10597000284603F0AEFE0028C4D1208A4146A0F597
:105980007A7020822046FBF7F3F8013EBAE700BFA9
:1059900001B0BDE8F08F00002DE9F04F83B09346D1
:1059A000D0E90074D0E9026280468A46204611465A
:1059B00004F060FA0021C8F80400C4F23421304633
:1059C00003F0A8FE0021C4F2400104F049F80146AA
:1059D000384603F001FE48F20001C4F28941064650
:1059E00003F070FE0025C4F2C82500281CBF48F251
:1059F0000006C4F289463046294603F063FE0028BB
:105A000008BF2E46BBF1000FC8F800604ED0CDE9AC
:105A100001740AF108044FF0010900260BE000BFF1
:105A200001365E454FF0000938BF4FF00109B3451C
:105A300004F1100427D060790028F1D0D8E9000AD9
:105A400054E9021504F016FA07465046294604F0B8
:105A500011FA014604F004F805463846394603F0C9
:105A6000FFFF294603F0B8FD03F0A0FDD8F81C2085
:105A700021680546104603F0AFFD0146284603F0B5
:105A800036FE0028CCD05FEAC970DDE901200DD0D8
:105A9000B8F81010C8F800200239A8F8101000213A
:105AA000C4F2701103F098FDC8F8040003B0BDE81B
:105AB000F08F0000F0B581B00E4604460846002184
:105AC000FFF734FE0025CCF2342578B1A768002119
:105AD000CCF23421384603F003FE38B90021CBF66E
