:020000040800F2
:10000000002300209101000891350008DD3400082C
:100010008D350008AD050008C95700080000000034
:10002000000000000000000000000000F95200087D
:10003000C90500080000000019360008FD5200083C
:10004000AB010008AB010008AB010008AB010008E0
:10005000AB010008AB010008CD050008D50500087C
:10006000AB010008AB010008DD050008AB0100088A
:10007000AB010008AB010008AB010008AB010008B0
:10008000B1050008BD050008AB010008AB01000880
:10009000AB010008AB010008AB010008AB01000890
:1000A000AB010008AB010008AB010008AB01000880
:1000B000AB010008AB010008AB010008AB01000870
:1000C000AB010008AB010008AB010008AB01000860
:1000D000AB010008AB010008BD570008AB010008E8
:1000E000AB010008AB010008AB01000800F002F80A
:1000F00000F03EF80AA090E8000C82448344AAF184
:100100000107DA4501D100F033F8AFF2090EBAE881
:100110000F0013F0010F18BFFB1A43F0010318473B
:1001200084710000A4710000103A24BF78C878C11F
:10013000FAD8520724BF30C830C144BF04680C60ED
:10014000704700000023002400250026103A28BF35
:1001500078C1FBD8520728BF30C148BF0B60704739
:100160001FB59DE8030000F033F91FBD10B510BDA9
:1001700000F09AF91146FFF7F3FF05F039FE00F0A1
:10018000B8F903B4FFF7F2FF03BC00F0E9F900008F
:100190000948804709480047FEE7FEE7FEE7FEE71B
:1001A000FEE7FEE7FEE7FEE7FEE7FEE70448054957
:1001B000054A064B7047000001530008ED00000897
:1001C000001D002000230020001F0020001F002031
:1001D00070B5064600F0E0F8056806F10B0020F067
:1001E0000704B4429CBF002070BD2B466A68BAB1B8
:1001F0001068A04210D304F1080188423CBF506847
:10020000586007D35168101941601168091B0160DB
:1002100058601460101D70BD13465268002AE7D163
:100220002146284600F0C0F80028DED170BD70B528
:100230000446051F00F0B0F80068002C14BF4468A5
:1002400070BD002C18BFAC423CBF20466468F8D398
:1002500001680A18AA4218BF456003D12A680546FA
:100260001144016028684119A1421CBF6C6070BD37
:100270006168696021680844286070BD10B5431E3C
:1002800013F8014F002CFBD105E011F8014B002CB5
:1002900003F8014B03D0521EF7D20021197010BD94
:1002A00010B5431C02E010F8011B71B18107FAD1AF
:1002B0004FF0013202C88C1A8C4314EAC211F9D0F3
:1002C000C01A0A0603D0C01E10BDC01A10BD0A0411
:1002D00001D0801E10BD0902FCD0401E10BD10B51B
:1002E000203AC0F00B80B1E81850A0E81850B1E8EF
:1002F0001850A0E81850203ABFF4F5AF5FEA027C2E
:1003000024BFB1E81850A0E8185044BF18C918C05D
:10031000BDE810405FEA827C24BF51F8043B40F8FE
:10032000043B08BF7047D20728BF31F8023B48BFE3
:1003300011F8012B28BF20F8023B48BF00F8012B21
:1003400070474FF0000200B5134694469646203998
:1003500022BFA0E80C50A0E80C50B1F12001BFF47E
:10036000F7AF090728BFA0E80C5048BF0CC05DF8E4
:1003700004EB890028BF40F8042B08BF704748BF32
:1003800020F8022B11F0804F18BF00F8012B7047A6
:100390007047704770470000004870471800002001
:1003A000704770477047704738B504460A460020CA
:1003B0006946AFF30080002808BF38BD02460099A7
:1003C000204600F04FF8012038BD012000F064B84D
:1003D000F8B5AFF30080054600200C46102000BFA2
:1003E0000646A819A0420DD9324669460020AFF34F
:1003F0000080070008BF00F04FF80098A04218BF27
:100400000546C419FFF7C8FF05600746F01D20F038
:1004100007004619284600F00AF8B44208BFF8BDA4
:10042000A21B31463868BDE8F84000F01BB8002137
:100430000160C0E9011070471020704710B500F04E
:100440000DF8006810BD10B5044600F007F8046010
:1004500010BD0000004870471000002000487047A1
:1004600010000020034640688C46002818BF8842D0
:100470003CBF03464068F8D318681844884207D048
:100480000CF1030020F00700001D411A521A01462A
:10049000081D0A60FFF7CBBE10B500F039F8BDE8C3
:1004A000104000F02FB870477546FFF7D3FFAE46F7
:1004B00005006946534620F00700854618B020B570
:1004C000FFF774FEBDE820404FF000064FF0000734
:1004D0004FF000084FF0000BAC46ACE8C009ACE8A8
:1004E000C009ACE8C009ACE8C00921F007018D469D
:1004F000704710B50446AFF300802046BDE81040B9
:10050000FFF73FBE002801D000F02AB87047000076
:1005100010B5012805D0002103A000F027F8012024
:1005200010BD09A1F8E7000053494752544D454D0D
:100530003A204F7574206F662068656170206D6584
:100540006D6F7279000000003A2048656170206D7F
:10055000656D6F727920636F727275707465640077
:1005600001491820ABBEFEE72600020070B5054623
:100570000C460A2000E06D1C00F011F835B1287817
:100580000028F8D102E0641C00F009F814B12078CA
:100590000028F8D1BDE870400A20AFF3008008B50C
:1005A00069468DF800000320ABBE08BDFEE70000E1
:1005B00041F27400C2F2000001F086BC41F2B800C2
:1005C000C2F2000001F080BC70470000012001F081
:1005D000DFBD0000022001F0DBBD0000102001F0B3
:1005E000D7BD00002DE9F04381B090F8EC460546F8
:1005F0008946CCB100274FF0340804E00137F8B247
:10060000E1B2884210D2FEB206FB08504946406A69
:1006100006F05EF90028F1D12846314600F0C2FA12
:1006200095F8EC46013FE9E795F8ED46E4B100277F
:1006300005E000BF0137F8B2E1B2884214D2FEB241
:1006400006EB460005EB4010D0F83003494606F0B3
:100650003FF90028EED12846314600F089FA95F896
:10066000ED46013FE6E700BFD5F8900F30B14946AF
:1006700001B0BDE8F04305F0C7B800BF01B0BDE868
:10068000F08300002DE9F04F85B00291054600216E
:10069000D0E90040A5F85C10002144F66D6BC4F26F
:1006A0004831C4F2C61B06F08FF840F2C809C2F206
:1006B0000009D9F8001043F2390201FB0B214AF678
:1006C000AB2221F00041CAF6AA22A1FB0223074671
:1006D00023F0010000EB5300081AC9F8001000F0E5
:1006E0000101023040F2000A00F00603A5F11002F9
:1006F000C4F2963A00910395D9F8000043F239010B
:1007000000FB0B1547F2A31125F00040CAF26E3131
:100710000492A0FB0112110A40F2911201FB120097
:10072000019300F5C87043F2390806F0FDF905FBA6
:100730000B81054621F00040C9F8000006F00CFAD4
:100740004FF0405106F084FA0021C4F2164106F041
:100750007FFA0021CCF2963106F036F801462046A9
:1007600006F032F80021C4F26141044606F0A2F816
:1007700000281CBF0024C4F261442046514606F004
:1007800099F800283846294608BF544606F01CF858
:1007900080460298D0E90015204606F063FC064624
:1007A0004046294606F05EFC0146814606F050FAB6
:1007B00007463046314606F04BFA394606F004F853
:1007C00005F0ECFF5146074606F089F8054600287B
:1007D00038464FF0000118BF012506F06BF80028DD
:1007E00018BF012005EA000B3046394606F08AF8AA
:1007F000514606F02DFA214605F0E6FF064648462A
:10080000394606F07FF8514606F022FA414605F0D7
:10081000DBFF40F2C801C2F20001096844F66D62D4
:10082000C4F2C61243F2390901FB029747F2A31240
:1008300027F00041CAF26E32A1FB02230546BBF14C
:10084000000F04BF454626460498039C049AC664DC
:1008500094F85D0015651A0A40F2911302FB13111A
:10086000013084F85D0001F5C87006F05DF944F6CA
:100870006D61C4F2C61107FB0191044621F00040EE
:1008800040F2C801C2F20001086006F065F94FF0BD
:10089000405106F0DDF90021C4F2164106F0D8F906
:1008A0000021CCF2963105F08FFF0146304605F06D
:1008B0008BFF0021C4F26141804605F0FBFF002858
:1008C0001CBF40F20008C4F261484046514605F0A2
:1008D000F1FF00282846214608BFD04605F074FFE6
:1008E000029C81462168404606F0BCFB61680446D4
:1008F000484606F0B7FB0146054606F0A9F906464C
:100900002046214606F0A4F9314605F05DFF05F0CA
:1009100045FF5146064605F0E2FF074600283046EF
:100920004FF0000118BF012705F0C4FF002818BFD1
:10093000012007EA000B2046314605F0E3FF51464F
:1009400006F086F9414605F03FFF04462846314649
:1009500005F0D8FF514606F07BF9494605F034FF13
:100960000746019B049ABBF1000F08BF4F4608BF22
:100970004446039E47F2A31196F85D5040F2C80921
:1009800044F66D6BCAF26E31C2F20009C4F2C61BA6
:1009900054659765681C023B02F1100286F85D0001
:1009A0007FF4AAAE009B029E33B9DDF80CB0C6B24C
:1009B000042E80F0D98095E0D9F8000043F2390880
:1009C00000FB0B85049225F00040A0FB0112110AE8
:1009D00040F2911201FB120000F5C87006F0A4F875
:1009E00005FB0B81054621F00040C9F8000006F028
:1009F000B3F84FF0405106F02BF90021C4F2164134
:100A000006F026F90021CCF2963105F0DDFE014614
:100A1000204605F0D9FE0021C4F26141044605F0EC
:100A200049FF00281CBF0024C4F2614420465146FF
:100A300005F040FF00283846294608BF544605F017
:100A4000C3FED6E900168046204606F00BFB05469D
:100A50004046314606F006FB0146814606F0F8F8AE
:100A600007462846294606F0F3F8394605F0ACFE5D
:100A700005F094FE5146074605F031FF0646002872
:100A800038464FF0000118BF012605F013FF00287B
:100A900018BF012006402846394605F033FF51466D
:100AA00006F0D6F8214605F08FFE05464846394641
:100AB00005F028FF514606F0CBF8414605F084FECC
:100AC0000746002E04BF474625460498DDF80CB0C3
:100AD000C5649BF85D500765681C8BF85D00C6B265
:100AE000042E41D240F2C80AC2F2000ADAF800002D
:100AF00044F66D6943F23908C4F2C61900FB098453
:100B0000DB2124F00040CBF22E41A0FB0112811A20
:100B100002EB5101490A40F2592201FB120000F593
:100B2000967006F001F804FB098147F2A31221F048
:100B30000041CAF26E32A1FB02230446180A40F2B9
:100B4000911200FB1210CAF8001000F5C87005F0F1
:100B5000EBFF0146384605F037FE0BEBC601C1E955
:100B60000F40A81C8BF85D0005B0BDE8F08F0000B9
:100B700010B5044690F8ED06421E8A420EDD01EBE8
:100B8000410004F54B7102EB420201EB401001EB16
:100B900042116022FFF7A3FB94F8ED06013884F8B8
:100BA000ED0610BD2DE9F04190F8EC26531E8B4266
:100BB00029DD00F1200C4FF0340E03FB0EC403FBC3
:100BC0000EF301FB0EC201FB0EF8D4E901E5D4E9F6
:100BD00003675CF8033061694CF808305161C2E981
:100BE0000367C2E901E5D4E906C3D4E90876D4E98C
:100BF0000A15C2E90876C2E90A15C2E906C3216BE3
:100C0000116390F8EC26511E80F8EC16BDE8F081D7
:100C10002DE9F04F81B00E4680468A8BD0E9005016
:100C2000D1E90071728306F01DFA04462846394660
:100C300006F018FA0146204605F0A6FA98F8684C26
:100C4000322C274698BF3227312C64D849F69A11A6
:100C5000CBF61961054605F0B7FDC4EBC40108EBFE
:100C60008102D6E9009643F2333340F2000BC4F21E
:100C70003303C2F8F8064FF48770C4F2A00B4FF4A8
:100C80008071C2F8F096C2F8F466C2F8FC36A2F899
:100C90000007C2F804B7A2F80817621CBA4288F825
:100CA000682C38D0C2EBC20204F1020A08EB8202BF
:100CB000BA45C2F8F096C2F8F466C2F8F856C2F81F
:100CC000FC36A2F80007C2F804B7A2F8081788F8A3
:100CD00068AC20D049F69A11C3F6196128461D4622
:100CE00005F072FDCAEBCA0108EB8101C1F8F806F4
:100CF0004FF48770A1F800074FF48070A1F808073F
:100D0000E01CC1F8F096C1F8F466C1F8FC56C1F8D1
:100D100004B788F8680C01B0BDE8F08F2DE9F04FFA
:100D200087B090F8EC568346002D069000F0FA82CA
:100D300040F6DB7A0BF67940CCF2C90A4FF0000995
:100D400000900DE0681E8BF8EC06A9F1010909F18D
:100D500001099BF8EC565FFA89F0A84280F0E28224
:100D60005FFA89F4342004FB00B696F847000028A7
:100D7000EDD006F12001049616F8460FD1F8048054
:100D8000DBF804700591D8BB00213846CCF2C8418D
:100D900005F01AFD0146404605F09AFD0028D6D11F
:100DA00040F2C802C2F20002106844F66D61C4F25B
:100DB000C61143F2390300FB0130012120F000404D
:100DC0003170106005F0C8FE4FF0405105F040FF53
:100DD0004CF6CD41C3F64C7105F081FD002818BFDB
:100DE0000120049981F85200002088624CF6CD4021
:100DF000C4F20C00C86240F6DB70C3F6C970086329
:100E000048F200013846C4F23B5105F0DDFC0146D2
:100E1000404605F05DFD08BBE8B20138A04291D91B
:100E2000342100FB01B0059C00F120078ECFD0E9F2
:100E30000C5684E88E00C4E9045600F138078ECFC2
:100E4000D0E9125604F1180CC4E90A568CE88E0059
:100E5000006D20639BF8EC5674E700BF0598594677
:100E600000F066FE049C2646224656F8281F52F8DB
:100E70002C0F019205F088F954F8301F02460846FD
:100E800011460294039206F0EDF840F6DB74C4F2CA
:100E900049042146074605F01BFD28BB384651464C
:100EA00005F092FC2146074605F012FDE0B93846F0
:100EB000514605F089FC2146074605F009FD98B921
:100EC0003846514605F080FC2146074605F000FDF6
:100ED00050B93846514605F077FC2146074605F0E3
:100EE000E9FC0028DAD100BF40F6DB74CCF24904FB
:100EF0003846214605F0E5FC40F6DB75C4F2C9052D
:100F000030BB00BF3846294605F05EFC2146074647
:100F100005F0D7FCE0B93846294605F055FC2146D6
:100F2000074605F0CEFC98B93846294605F04CFC3A
:100F30002146074605F0C5FC50B93846294605F05C
:100F400043FC2146074605F0CAFC0028DAD100BF61
:100F50004CF6CD413846C3F64C5105F079FE0146BA
:100F6000039805F031FC054605F060FA4CF6CD44D7
:100F7000C4F20C04214605F06BFE3060284605F0F3
:100F800049FB214605F064FE80460198376843F22C
:100F90003331C0F8008028F00040C3F6337127F0E9
:100FA000004605F055FE0146304605F083FC064636
:100FB0003846002105F07EFC00284FF0030440462F
:100FC0004FF0000118BF012405F074FC002818BF81
:100FD0000120002E08BF4400059EDDF810A0D6E9D0
:100FE000001538468AF84840039105F0EDFB0746A6
:100FF000306040462946019505F0E6FB9BF88C1FC2
:101000007060A9B3DAF840B0009C8046002604E086
:1010100001368E4204F110042CD220780028F7D03B
:1010200054F80D1C54F8095C384606F01BF882464B
:101030004046294606F016F8014605F009FE054629
:101040005046514605F004FE294605F0BDFB05F06B
:10105000A5FB54F8051C0546584605F0B5FB0146AE
:10106000284605F03CFC78B9069890F88C1FCFE72D
:101070003E4603E00598DDF818B0066840F6DB74DC
:101080000025C4F249049CE040F2C803C2F2000308
:10109000186844F66D61C4F2C61143F2390200FBD0
:1010A00001204EF28B6120F00040CBF20951A0FBF1
:1010B00001120599039F18600F60019F4F60D109CD
:1010C000B52201FB120101F15A0005F02DFD40F699
:1010D000DB74C4F24904214605F0BAFD0021C4F2D4
:1010E000343105F00FFC02990246096808461146A2
:1010F00005F06AFB2146064605F0EAFBDDF818B06C
:1011000040F6DB7540F6DB7740F6DB78CCF2C905BC
:10111000CCF24907C4F2C90828BB00BF30462946B3
:1011200005F052FB2146064605F0D2FBD8B9304601
:10113000294605F049FB2146064605F0C9FB90B952
:101140003046294605F040FB2146064605F0C0FB27
:1011500048B93046294605F037FB2146064605F0DA
:10116000A9FB0028DAD13046394605F0AAFB20BB9E
:101170003046414605F028FB3946064605F0A1FBFE
:10118000D8B93046414605F01FFB3946064605F002
:1011900098FB90B93046414605F016FB39460646A5
:1011A00005F08FFB48B93046414605F00DFB394646
:1011B000064605F094FB0028DAD102980025066067
:1011C000039EC4F2F0253046294605F088FB18B18D
:1011D0001E202E460CE000BF00213046C4F287419D
:1011E00005F076FB049A80BB0026D220C4F2874625
:1011F00040F2C807C2F20007396844F66D62C4F2D3
:10120000C61243F2390301FB023145F2BF6221F0FD
:101210000041C0F6CF62A1FB0223059A3960166037
:10122000CA1A03EB52029209792302FB13121044EB
:1012300005F07AFC214605F00BFD0021C4F23431A3
:1012400005F060FB0299049A0860104630F8501FC0
:10125000144600291CBF0139018034F83A0F18B137
:1012600001380104208057D1DBE900A830465146FF
:10127000039605F0F7FE059920F000464F684146B9
:10128000384605F0EFFE002105463046C4F2C8316D
:1012900005F017FB00283FD1002125F00040C4F2E3
:1012A000963105F00EFBB8BB04999BF8680C898F4A
:1012B0003128218030D80399504605F0D3FE0546E9
:1012C0004046394605F0CEFE294604F05DFF9BF806
:1012D000681C059FC1EBC1023B680BEB8202C2F8A0
:1012E000F0367B68C2F8F8060020C4F26000C2F84D
:1012F000FC064FF48770A2F800070020C4F2A0009B
:10130000C2F804074FF48070A2F80807481CC2F81E
:10131000F4368BF8680C00BF40F6DB7ACCF2C90AD1
:1013200015E500BF9BF8ED06002800F0E38248F2C7
:1013300000080BF67940C4F23B584FF000090090CA
:101340000EE000BF01388BF8ED06A9F1010909F1A3
:1013500001099BF8ED065FFA89F1814280F0CA82AB
:101360005FFA89F606EB46000BEB401191F8550346
:101370000028ECD091F8540301F54B770028059133
:1013800000F0D681DBF804007D68414605F01CFAC8
:101390000146284605F09CFA90B99BF8ED06411EDF
:1013A000B142CFDD01EB41000BEB401000F54B717A
:1013B00038466022FEF793FF9BF8ED06C2E700BFB8
:1013C000384659460023049700F098FA059CD4E962
:1013D000CD1004F0D9FED4F83C1305460846294642
:1013E00005F040FE40F6DB74C4F24904214607468E
:1013F00005F06EFA40F6DB76CCF2C90630BB00BFD2
:101400003846314605F0E0F92146074605F060FA16
:10141000E0B93846314605F0D7F92146074605F0D0
:1014200057FA98B93846314605F0CEF921460746B5
:1014300005F04EFA50B93846314605F0C5F9214657
:10144000074605F037FA0028DAD100BF059840F6C4
:10145000DB7400F54D7A00F54E7100F54F70CCF25B
:101460004904029103903846214605F02AFA40F6D5
:10147000DB76C4F2C90628BB3846314605F0A4F92C
:101480002146074605F01DFAE0B93846314605F019
:101490009BF92146074605F014FA98B938463146BB
:1014A00005F092F92146074605F00BFA50B9384687
:1014B000314605F089F92146074605F010FA002863
:1014C000DAD100BF4CF28F213846C3F6F54105F062
:1014D000BFFB0146284605F077F9054604F0A6FF54
:1014E0004CF6CD44C3F6CC74214605F0B1FBCAF8E6
:1014F0000000284605F08EF8214605F0A9FB80463D
:101500000298DAF8007043F23331C0F8008028F016
:101510000040C3F6337127F0004505F099FB014602
:10152000284605F0C7F905463846002105F0C2F9FE
:1015300000284FF0030440464FF0000118BF01247B
:1015400005F0B8F9002818BF0120002D08BF44009D
:10155000049DDDF814A0D5E9001638468AF85643F4
:10156000029105F031F90746286040463146019660
:1015700005F02AF99BF88C1F6860002900F02A8189
:10158000DAF84CB3009C8046002508E0069890F8F5
:101590008C1F01358D4204F1100480F01D812078EC
:1015A0000028F6D054F80D1C54F8096C384605F0A4
:1015B00059FD82464046314605F054FD014605F08E
:1015C00047FB06465046514605F042FB314605F0C2
:1015D000FBF805F0E3F854F8051C0646584605F0FC
:1015E000F3F80146304605F07AF90028CED040F2F3
:1015F000C803C2F20003186844F66D61C4F2C61154
:1016000043F2390200FB01204EF28B6120F00040D2
:10161000CBF20951A0FB01120499DDF808A0019F4B
:10162000C1F800A04F60D109B52201FB120118607A
:1016300001F15A0005F078FA40F6DB74C4F249046F
:10164000214605F005FB0021C4F2343105F05AF9BA
:101650000399024609680846114605F0B5F8214687
:10166000054605F035F9DDF818B048F2000840F6F7
:10167000DB76C4F23B58CCF2C90620BB2846314683
:1016800005F0A2F82146054605F022F9D8B928460A
:10169000314605F099F82146054605F019F990B94B
:1016A0002846314605F090F82146054605F010F928
:1016B00048B92846314605F087F82146054605F029
:1016C000F9F80028DAD140F6DB76CCF24906284654
:1016D000314605F0F6F840F6DB77C4F2C90720BBC7
:1016E0002846394605F070F83146054605F0E9F818
:1016F000D8B92846394605F067F83146054605F061
:10170000E0F890B92846394605F05EF831460546BE
:1017100005F0D7F848B92846394605F055F831465E
:10172000054605F0DCF80028DAD10398056060E092
:10173000DBF8040000217D68CCF2C84105F044F8D4
:101740000146284605F0C4F800287FF400AE40F2B8
:10175000C802C2F20002106844F66D61C4F2C611FC
:1017600043F23903059D00FB013005F55574012155
:1017700020F000402170106005F0EEF94FF040516C
:1017800005F066FA43F23331C3F6337105F0A7F87A
:101790000146002818BF0121490085F85E13002189
:1017A000C5F834134CF6CD41002840F6DB70C3F683
:1017B000CC71C3F6C970C5F83813C5F83C037FF483
:1017C000E1AD38465946FEF75DFF207800287FF4EA
:1017D000D9ADBCE5BA4604E00498DDF818B0D0F8FD
:1017E00000A048F2000840F6DB74C4F23B58C4F293
:1017F00049040025C4F216355046294605F06FF815
:1018000020B1AA46059D1E200EE000BF44F2000153
:101810005046C4F2834105F05BF8059D88BB44F255
:10182000000AD220C4F2834A40F2C807C2F200077D
:10183000396844F66D62C4F2C61243F2390301FB03
:10184000023145F2BF6221F00041C0F6CF62A1FB38
:101850000223049A3960C2F800A0CA1A03EB5202AC
:101860009209792302FB1312104405F05DF9214619
:1018700005F0EEF90021C4F2343105F043F8039984
:101880000860B5F8520300281EBF05F25231013836
:101890000880B5F84603049C30B1013805F24631A2
:1018A000020408807FF453ADDBE90015504605F0D3
:1018B000D9FB616820F000460846294605F0D2FBB6
:1018C000002105463046C4F2FA3104F0FAFF002840
:1018D0007FF43DAD002125F00040C4F2C83104F092
:1018E000F0FF00287FF433AD58462146FFF790F90A
:1018F0002DE500BF07B0BDE8F08F00002DE9F047EF
:101900000446066890F83200676802288A4647D184
:10191000DAE900983046494605F0A4FB002120F0A2
:101920000040C4F2FA3104F0CCFF05463846414687
:1019300005F098FB002D40F08D80002120F0004044
:10194000C4F2C83104F0BDFF002840F08380DAF80B
:1019500008000021C4F2342104F0D4FF0021C4F2B5
:10196000482105F075F9494604F02EFF002105468F
:10197000CCF24821404604F027FF394605F072FBBF
:1019800007462846314605F06DFB0146384604F00F
:10199000FBFB78212061A186A063BDE8F08700BF32
:1019A00094F85C0094F85D1088420BD320465146B1
:1019B000FEF768FE94F85D00002849D094F85C00BA
:1019C000D4E9006704EBC001D1E90F05314605F009
:1019D00049FB06462846394605F044FB014605F01A
:1019E00037F905463046314605F032F9294604F00C
:1019F000EBFE04F0D3FE0021C4F2963104F061FF47
:101A000068B994F85C0094F85D100130C2B28A4263
:101A100084F85C0003D320465146FEF733FE94F869
:101A20005C0094F85D10884228BFBDE8F08704EBA5
:101A3000C001D1E90F05D4E9001605F013FB0746F4
:101A40002846314605F00EFB394604F09DFB206127
:101A5000BDE8F087A08E28B1A16B0138A086216176
:101A6000BDE8F087208E01380104208602D0E56AA7
:101A700054E000BF40F2C801C2F20001086844F619
:101A80006D6343F23902C4F2C61300FB032045F232
:101A9000BF6620F00047C0F6CF66A7FB06657F1B38
:101AA00005EB5707BF09792607FB160700FB032044
:101AB000B43720F000402786086005F04DF84FF05D
:101AC000405105F0C5F84CF6CD41C3F6CC5105F0B8
:101AD000BFF84CF6CD41CBF64C5104F075FEE16AEF
:101AE00002460846114604F06FFE40F69221C3F606
:101AF0000671054604F0DEFE40F69226CBF6067629
:101B000000281CBF40F69225C3F6067528463146CC
:101B100004F0D0FE002808BF3546E56240F6DB71D0
:101B2000C3F6C971284604F04FFE2061BDE8F08776
:101B30002DE9F047D0E9008AD1E9009504464046F6
:101B4000494605F08FFA07465046294605F08AFABD
:101B500094F83210012921D10021064627F00040D7
:101B6000C4F2C83104F0ADFEC0B9002126F0004037
:101B7000C4F2963104F0A5FE80B92846514605F01E
:101B800071FA05464846414605F06CFA014628467A
:101B900004F0FAFA2061BDE8F08700BF208E01381A
:101BA0000104208602D0E06A36E000BF40F2C8019E
:101BB000C2F20001086844F66D6343F23902C4F2D0
:101BC000C61300FB032048F2691620F00047C6F652
:101BD0001606A7FB06657F1B05EB5707BF095B26AB
:101BE00007FB160700FB03205A3720F0004027862A
:101BF000086004F0B1FF4FF0405105F029F840F6BD
:101C00009221C3F6867105F023F840F69221CBF6B7
:101C1000067104F0D9FDE06240F6DB71C3F6C971CC
:101C200004F0D2FD2061BDE8F087000040F2CC0452
:101C3000C2F20004EFF3108072B600BF204600F03D
:101C40000BF8FBE710B5044601F0E8FC2046BDE8C0
:101C5000104001F0D1BE000010B50446D0F8900F3E
:101C6000002808BF10BDFEF7E2FA0020C4F8900F6C
:101C700010BD00002DE9F04704460020C4F21640D4
:101C800048F20005C4F222454FF0000A84E821041E
:101C900000200021C4F2C810C4F240014FF06412C9
:101CA000C4E906A09420C4E90312A4F814A0C4F85F
:101CB000A4AF04F1200704F5DE6804F66C49FEF7D2
:101CC00087FA0646384640F2CE61FEF73AFB4046B8
:101CD00040F27951FEF735FB484640F22131FEF7DC
:101CE00030FBC4F8906F1EB1304603F069FF6568A1
:101CF0000021CCF24841284604F066FD0021C4F2E0
:101D0000483104F061FD0021C4F8940FCCF2C841C1
:101D1000284604F059FDC4F8980F012084F89C0F60
:101D2000C4F8A0AFBDE8F087B0B590F88C3F00F6DE
:101D30006C42044601F04EFE2046FEF7EFFF2046BF
:101D400002F04AF8D4F8A00F4EF6EF61CEF6EE613D
:101D5000484342F222214FEAF000C0F22221884299
:101D600015D8606848F20001C4F23B5104F02CFD24
:101D7000054620462946FEF735FC2046294601F057
:101D800009FCD4F8900F10B1294603F03DFDD4F8BA
:101D9000900F10B1214603F019FF2046FFF752FFC4
:101DA00060680021CCF2484104F00EFD0021C4F22D
:101DB000483104F009FDB4F91010C4F8940F00295B
:101DC000DCBF002084F89C0FB0BD0000014690F8F5
:101DD0002100022816D10868D1E90FC3026822F059
:101DE0000E020260026822F001020260012000FA85
:101DF00003F2CCF8042081F821000020002281F8B1
:101E000020207047042088630120002281F82020D0
:101E10007047000080B590F82110022924D1026893
:101E2000116821F00E0111602F211368C4F2020124
:101E30008A4240F20401C4F2020123F0010313605C
:101E400016DD3023C4F202039A421DD04423C4F2AB
:101E500002039A421CD05823C4F202039A421DD1B5
:101E60004FF4803322E000BF04218163012080BD54
:101E70000823C4F202039A420ED01C23C4F20203C8
:101E80009A420BD1102311E04FF480730EE000BF93
:101E90004FF480530AE000BF012307E001F1680C12
:101EA0004FF08073624508BF4FF480130B6001212F
:101EB00080F82110426B002180F820100AB1904771
:101EC0000021084680BD000010B5D0E90FCE0168A2
:101ED000DCF800300A6823FA0EF35C072AD512F00A
:101EE000040427D00A68920603D40A6822F0040288
:101EF0000A602F22C4F20202914240F20402C4F2AC
:101F000002025BDD3023C4F20203994272D0442303
:101F1000C4F20203994273D05823C4F202039942D7
:101F200040F07A804FF480231360C16A002940F0AA
:101F300098806FE09C0727D512F0020424D00A682D
:101F4000920606D40A6822F00A020A60012280F88A
:101F500021202F22C4F20202914240F20402C4F274
:101F600002023BDD3023C4F20203994260D04423D5
:101F7000C4F2020399425FD05823C4F2020399428B
:101F800060D14FF4003365E01B0743D512F008021F
:101F900008BF10BD0A6822F00E020A60012101FA92
:101FA0000EF2CCF80420816380F82110016B00222E
:101FB000002980F8202054D12CE000BF0823C4F26F
:101FC0000203994222D01C23C4F20203994223D176
:101FD00040231360C16A002943D11BE00823C4F2E7
:101FE000020399422CD01C23C4F20203994229D146
:101FF00020232FE04FF480631360C16A89BB09E09E
:102000004FF480431360C16A59BB03E0042313609B
:10201000C16A31BB10BD00BF02F168044FF080639C
:10202000A14208BF4FF480031360C16AC9B9F1E748
:102030004FF400730EE000BF4FF400530AE000BFFE
:10204000022307E002F168044FF00073A14208BFC9
:102050004FF400131360816A0022002980F82020C9
:10206000D8D0BDE810400847014600284FF00100D5
:1020700008BF70472DE9F043D1F800C04FF6F87360
:10208000CBF6FD734CF6CD426344CCF6CC42A3FBB9
:1020900002236FF0030707EA93030027C4F2020745
:1020A00001F10C09C1E90F730223D1E9012E99E86E
:1020B0007002D1F81C8081F82130DCF8003043F642
:1020C000F077BB431A4342EA0E0222432A433243CB
:1020D00042EA090242EA0802CCF8002000228A63A0
:1020E00081F8210081F820200020BDE8F0437047EE
:1020F000F0B590F820C0BCF1010F32D04FF0010EC6
:1021000080F820E090F821C0BCF1010F26D14FF0FB
:10211000020C80F821C04FF0000CC0F838C0D0E9A4
:1021200000C4C56AC66BDCF80070102C27F00107EC
:10213000CCF80070006C0EFA00F070600846CCF825
:10214000043004BF10460A46CCF80800CCF80C2036
:10215000DCF8000045B140F00E000DE0002180F8F1
:1021600020100220F0BD00BF20F00400CCF80000D9
:10217000DCF8000040F00A00CCF80000DCF80000B9
:1021800040F00100CCF800000020F0BD70470000D6
:1021900040F21441C4F201010A68024214BF08600F
:1021A0007047FFF7F3BF00002DE9F04F82B00E68D3
:1021B000002E00F0038141F20042C4F20102042328
:1021C00040F2004E904208BF03234FF6FF7CC4F25A
:1021D000010E009300240123C1F2100C4FF0000AFD
:1021E0004FF0000949E000BF012704F00C030F2263
:1021F0009A402BEA020207FA03F34FEA9A051A43C0
:1022000046F82520D1F804B040F20C455FEACB2215
:10221000DEF8082054BF22EA080242EA0802C4F2AB
:102220000105CEF808202A685FEA8B2354BF22EA12
:10223000080242EA08022A605FEA8B33DEF80420D3
:1022400054BF22EA080242EA08025FEACB33CEF822
:102250000420DEF800204FF0010354BF22EA0802F8
:1022600042EA0802CEF800200E680AF1010A36FAA6
:102270000AF204F1040400F0A18003FA0AF816EA55
:10228000080FF1D04E68664512DC122E56D8DFE8F2
:1022900006F0350B45495555555555555555555528
:1022A0005555554D510000BFD1F80C9046E000BF88
:1022B0004FF6FF72C1F2210296420FDC0022C1F2FA
:1022C000110296421AD00022C1F21202964215D093
:1022D0000022C1F22102964210D02FE00022C1F26A
:1022E000220296420AD00022C1F23102964205D063
:1022F0000022C1F23202964220D100BF8A684AB160
:10230000012A14BFC0F81480C0F810804FF00809EB
:1023100014E000BF4FF0040910E000BFCA6802F1EA
:1023200008090BE04FF0000908E000BFCA6802F19D
:10233000040903E0CA6802F10C0900BF2246064600
:10234000BAF1080F24BF203A043637680F259540AC
:1023500027EA050509FA02F22A433260CA79D20651
:102360007FF582AF41F21803C4F202031A68AEF59A
:102370007E7642F001021A601A6802F001020192B0
:10238000019A2AF0030256F802B040F60002C4F2A5
:102390000102904210D040F60042C4F20102904285
:1023A0003FF422AF41F20002C4F20102009F9042CA
:1023B00008BF022719E700BF002716E702B0BDE8F3
:1023C000F08F00008068084018BF012070470000AF
:1023D00041F6FC40C2F200000068704740F2000085
:1023E00041F6FC41C2F20000C2F2000100780A6826
:1023F000104408607047000080B542F20000C4F24B
:102400000200016841F010010160032000F08EF825
:10241000002000F005F800F027F8002080BD000043
:1024200070B540F20006C2F2000640F208013278B0
:10243000C2F200014FF47A730968B3FBF2F204466A
:10244000B1FBF2F1084600F063FB0F2C4FF00105E1
:1024500008D838B94FF0FF3021460022002500F09F
:1024600039F87460284670BD82B041F21800C4F299
:1024700002000168042241F001010160016801F0DD
:10248000010101910199416841F08051416040682A
:1024900000F08050009000980420C4F20100016810
:1024A00062F31A61016002B070470000002848BF63
:1024B0007047C1B200F01F00012202FA00F04EF294
:1024C0000012CEF2000242EAD10121F003010860BD
:1024D0007047000010B54EF60C5CCEF2000CDCF834
:1024E0000030C3F3022E8EF00704042C28BF04240E
:1024F000BEF103034FF0FF3E0EFA04F438BF002391
:10250000A14399400EFA03F39A43114300F00F02DE
:1025100000F160430901043A03F564436244002872
:1025200048BF02F10C03197010BD00004EF60C51AB
:10253000CEF200010A684FF6FF031A4060F30A2248
:1025400042F0806040F0FD70086070472DE9F04374
:1025500081B0002800F0858042F20008C4F2020831
:102560000446D8F800000D4600F0070088420CD25F
:10257000D8F8000020F007002843C8F80000D8F879
:10258000000000F00700A8426BD1206841F2040966
:102590008107C4F2020917D5410705D5D9F8001003
:1025A00041F4E061C9F80010010705D5D9F8001021
:1025B00041F46051C9F80010D9F80010A26821F068
:1025C000F0011143C9F80010C00741D1D8F800004C
:1025D00000F00700A8420CD9D8F8000020F007004E
:1025E0002843C8F80000D8F8000000F00700A8420F
:1025F00037D12068410707D5D9F80010E26821F4E7
:10260000E0611143C9F80010000708D5D9F80000AF
:10261000216920F4605040EAC100C9F80000D9F8EF
:10262000002002F00C00082841F20020C0F27A00DD
:1026300050D147F27423C2F38341C0F60003595CC2
:10264000D2033BD440F60010C0F23D00484341E0C5
:10265000606802280AD001282AD159F8041C89038D
:1026600008D4012001B0BDE8F08300BF59F8041C74
:102670008901F6D5D9F8001021F003010843C9F803
:102680000000FFF7A5FE064641F28837D9F80000A2
:10269000616800F00C00B0EB810F97D0FFF798FE57
:1026A000801BB842F2D9032001B0BDE8F08300BF1F
:1026B00059F8041C8907D4D5DCE700BFD9F80020FD
:1026C00047F27223C2F34042C0F600039A5C4843CB
:1026D000B0FBF2F0D9F8001047F25A22C1F303110F
:1026E000C0F60002515C40F2080220FA01F140F20B
:1026F0000400C2F200000068C2F200021160FFF79D
:102700008FFE002001B0BDE8F083000040F2080019
:1027100041F20401C2F20000C4F20201006809683B
:1027200047F26A22C1F30221C0F60002515CC840A0
:102730007047000040F2080041F20401C2F20000BC
:10274000C4F202010068096847F26A22C1F3C2219B
:10275000C0F60002515CC840704700002DE9F0410E
:1027600082B0002868D00446007841F20006C00715
:10277000C4F2020625D0706800F00C0004281BD0BB
:10278000706800F00C00082802D17068C00313D4F0
:102790006068002800F06881B0F5A02F00F07C810F
:1027A000B0F5803F00F07C81306820F480303060EC
:1027B000306820F4802076E13068800301D56068BD
:1027C000D0B32078800718D5706810F00C0F07D0B0
:1027D000706800F00C0008286ED17068C0036BD4DC
:1027E0003068800702D52069012825D130686169E9
:1027F00020F0F80040EAC1003060207800071FD4C4
:102800002078400732D4E56995B1706800F00C007B
:10281000082840F08F80012D0ED07068216A00F4E6
:1028200080328A4208D1616A00F47010884203D174
:10283000002002B0BDE8F081012002B0BDE8F081C7
:10284000A069002862D00020C4F242200121C0F813
:102850008014FFF7BDFD0546706A800700F18C808B
:10286000FFF7B6FD401B0228F6D92AE1F06910F007
:10287000805808D1F06940F08050F061F06900F0B4
:1028800080500090009847F20007C4F200073868B3
:10289000C00529D4386840F480703860FFF798FD8F
:1028A000054600BF3868C0051ED4FFF791FD401BE8
:1028B0006428F7D905E100BF2069002840F2000034
:1028C000C4F2422000F0828001210160FFF780FD08
:1028D000054600BF306880073FF588AFFFF778FDF9
:1028E000401B0228F6D9ECE0E068002800F0808068
:1028F000052800F09780012800F09880306A20F0C9
:1029000001003062306A20F0040092E00020C4F23E
:1029100042200021C0F88014FFF75AFD054600BF91
:10292000706A80077FF56CAFFFF752FD401B0228ED
:10293000F6D9C6E00027C4F2422700203866FFF728
:1029400047FD022D05460BD13068800140F1BE8065
:10295000FFF73EFD401B02284FF00300F4D968E763
:10296000306880017FF564AFFFF732FD401B02281D
:102970004FF00300F4D95CE740F20800C2F2000017
:10298000006844F6D351C1F26201A0FB0101480A7C
:10299000019000BF00BF0198411E002801913FF443
:1029A0002FAF00BF0198411E002801913FF428AFCE
:1029B00000BF0198411E002801913FF421AF00BFE4
:1029C0000198411E00280191E4D119E7002101601E
:1029D000FFF7FEFC054600BF306880077FF50DAFAE
:1029E000FFF7F6FC401B02284FF00300F4D920E764
:1029F000306A20F001003062306A20F0040030625A
:102A0000FFF7E6FC054641F2883700BF306A8007D1
:102A100020D5FFF7DDFC401BB8424FF00300F5D98D
:102A200007E700BF306A40F004003062306A40F0CF
:102A300001003062FFF7CCFC054641F2883700BF49
:102A4000306A800706D4FFF7C3FC401BB842F7D9B1
:102A500037E000BFB8F1000F7FF4D5AEF06920F089
:102A60008050F061CFE600BF306820F480303060E5
:102A7000306820F480203060FFF7AAFC054600BFD4
:102A8000306880037FF59DAEFFF7A2FC401B6428F1
:102A90004FF00300F4D9CCE6306840F48020306079
:102AA000306840F480303060FFF792FC054600BF8C
:102AB000306880033FF585AEFFF78AFC401B642831
:102AC000F6D9032002B0BDE8F08100BF206AB0F55E
:102AD000803F05D17168A26821F400311143716013
:102AE0007168626A21F47411114308437060012017
:102AF0003866FFF76DFC0446306880013FF598AEFC
:102B0000FFF766FC001B02284FF00300F4D990E6A3
:102B1000411E0020B0EB116F1CBF012070474EF228
:102B20001002CEF2000251604EF62351CEF20001A7
:102B3000F0230B7007219060116070477047000010
:102B4000006844F20041C4F20001884218BF704797
:102B500040F2700040F2C00CC2F2000041F2FC01F1
:102B6000C2F2000C00230830C2F200014FF40062F0
:102B70008CF8003000F08EBBB0B582B0044600681F
:102B80000168C368426901F02F05202D03F020057C
:102B900006D12DB1204602B0BDE8B04002F08EBD96
:102BA0005FEA017C1EBF02F0010E03F4907212EB8B
:102BB0000E0253D1226B012A05D111F0100218BF69
:102BC00013F0100236D10A0622D513F080021FD06E
:102BD00094F8411021293FD1A168B1F5805F03D15C
:102BE0002169002900F07082216A4A1C226209785A
:102BF0004160E18C01390A04E1842DD1C16821F0E2
:102C00008001C160C16841F04001C16002B0B0BD47
:102C1000490621D513F040011ED0C16821F04001C2
:102C2000C1602021204684F8411002B0BDE8B040C8
:102C300000F042BC002101910168019141680191BD
:102C400001994069400613D4A08DE18DE28D002AE0
:102C500018BF884240F0BA8102B0B0BDCA0718BFA1
:102C600013F4807240F0B6804A0700F1B980BEE0EC
:102C7000E06B016849688AB2002AEDD0A38D9A42C0
:102C8000EAD2E1858069202800F09C80206850E825
:102C9000030F216820F4807041E80302DAB1206854
:102CA00050E8030F216820F4807041E8030292B1DC
:102CB000206850E8030F216820F4807041E8030287
:102CC0004AB1206850E8030F216820F4807041E881
:102CD0000302002ADAD1206850E8050F216820F0AD
:102CE000010041E80502DAB1206850E8050F2168CB
:102CF00020F0010041E8050292B1206850E8050F7C
:102D0000216820F0010041E805024AB1206850E83E
:102D1000050F216820F0010041E80502002ADAD100
:102D2000206850E8050F216820F0400041E80502C6
:102D3000DAB1206850E8050F216820F0400041E832
:102D4000050292B1206850E8050F216820F040008C
:102D500041E805024AB1206850E8050F216820F0DB
:102D6000400041E80502002ADAD1202084F8420020
:102D700000202063206850E8030F216820F0100035
:102D800041E80302DAB1206850E8030F216820F01F
:102D9000100041E8030292B1206850E8030F216857
:102DA00020F0100041E803024AB1206850E8030F08
:102DB000216820F0100041E80302002ADAD1E06B1C
:102DC000FFF704F802206063A08DE18D401A81B204
:102DD000204674E1626C42F0010262644A0706D543
:102DE000BEF1000F03D0626C42F0020262648A07F7
:102DF00006D5BEF1000F03D0626C42F0040262649B
:102E0000BCF1000F09D545EA0E02B2FA82F252096E
:102E100003D1626C42F008026264626C002A3FF4E3
:102E20001BAF11F0200118BF002D03D0204602F087
:102E300045FC20684069616C00F0400001F0080129
:102E4000401800F0B58000BF206850E8030F2168EB
:102E500020F4907041E80302BAB3206850E8030FF1
:102E6000216820F4907041E8030272B3206850E8B2
:102E7000030F216820F4907041E803022AB3206810
:102E800050E8030F216820F4907041E80302002A03
:102E9000DAD11AE0206850E8050F216820F001001F
:102EA00041E80502DAB1206850E8050F216820F0FA
:102EB000010041E8050292B1206850E8050F216841
:102EC00020F0010041E805024AB1206850E8050FF2
:102ED000216820F0010041E80502002ADAD1206BC8
:102EE000012824D1206850E8030F216820F0100049
:102EF00041E80302DAB1206850E8030F216820F0AE
:102F0000100041E8030292B1206850E8030F2168E5
:102F100020F0100041E803024AB1206850E8030F96
:102F2000216820F0100041E80302002ADAD12020B5
:102F300084F84200002020632068406940063FD5A5
:102F4000206850E8050F216820F0400041E80502A4
:102F5000DAB1206850E8050F216820F0400041E810
:102F6000050292B1206850E8050F216820F040006A
:102F700041E805024AB1206850E8050F216820F0B9
:102F8000400041E80502002ADAD1E06BC0B145F209
:102F90000531C0F600014163FEF73CFF00283FF415
:102FA0005BAEE06B416B02B0BDE8B040084700BFCC
:102FB0002046FFF7C5FD0020606402B0B0BD00BF31
:102FC000204602B0BDE8B040FFF7BABD401A216804
:102FD00051E8031F226821F4907142E80313DBB12A
:102FE000216851E8031F226821F4907142E803131D
:102FF00093B1216851E8031F226821F4907142E8DF
:1030000003134BB1216851E8031F226821F490712A
:1030100042E80313002BDAD1216851E8051F22682A
:1030200021F0010142E80513DBB1216851E8051FD9
:10303000226821F0010142E8051393B1216851E8AB
:10304000051F226821F0010142E805134BB12168F8
:1030500051E8051F226821F0010142E80513002B09
:10306000DAD1202184F8421000212163216851E83F
:10307000031F226821F0100142E80313DBB121682D
:1030800051E8031F226821F0100142E8031393B1B5
:10309000216851E8031F226821F0100142E8031360
:1030A0004BB1216851E8031F226821F0100142E86A
:1030B0000313002BDAD1022281B22046626302B0F0
:1030C000BDE8B040FFF73ABD216A31F8022B6FF33B
:1030D0005F22426021628CE5002804BF0120704716
:1030E00010B5044690F8410028B9002084F840004B
:1030F000204600F063F8242084F841002068D4E9D9
:103100000212C36823F40053C360036923F44053DD
:103110001A430261D4E904231143C268194341F2FE
:103120000C639A431143C1604169A26921F4407163
:10313000114343F60002C4F201029042416103D000
:10314000FFF7E4FA02E000BFFFF7F4FA6268192122
:1031500048439100B0FBF1F048F21F51C5F2EB116A
:10316000A0FB01235A094FF69C73C0F6FF7302FBC4
:103170000300322303EB0010A0FB0101F02303EA5C
:103180005113206803EB0212C1F343111144816013
:10319000016921F490410161416921F02A014161F5
:1031A000C16841F40051C16000202021606484F8AE
:1031B000411084F84210606310BD00002DE9F04119
:1031C00086B0044644F200402168C4F200000026A4
:1031D0008142049602D006B0BDE8F08141F21801A8
:1031E000C4F202014A6840F26C0842F400324A60BC
:1031F0004A6800F5444002F400320192019A0A68DC
:10320000C4F2020842F004020A60096801F00401F5
:10321000019101990C21029102210391059102A9CA
:10322000FEF7C2FF41F27405C2F20005802728466E
:10323000C5E90086C5E90267C5E90466C5E9066611
:10324000FEF712FF002818BFFEF7F0FCE5636C6282
:1032500041F2B80508F11400C2F200051021002265
:1032600085E887002846C5E90422C5E90622FEF75D
:10327000FBFE002818BFFEF7D9FC26200021002203
:10328000A5636C62FFF726F92620FFF70FF906B059
:10329000BDE8F08170B582B0044690F84200202865
:1032A0000AD113460A4600294FF0010018BF002B2F
:1032B00006D102B070BD00BF022002B070BD00BFD9
:1032C000002522202563A262A385656484F842005C
:1032D0002168E06B45F28D4C45F2ED5E45F211360A
:1032E000C0F6000CC0F6000EC0F600060431C0E9BE
:1032F0000ACEC0E90C65FEF7FBFE01952068016867
:103300000191406801900198206928B3206850E835
:10331000030F216840F4807041E80302E2B12068A5
:1033200050E8030F216840F4807041E803029AB12D
:10333000206850E8030F216840F4807041E80302E0
:1033400052B1206850E8030F216840F4807041E8D2
:103350000302002ADAD100BF206850E8050F216877
:1033600040F0010041E80502E2B1206850E8050F95
:10337000216840F0010041E805029AB1206850E858
:10338000050F216840F0010041E8050252B12068B4
:1033900050E8050F216840F0010041E80502002ACD
:1033A000DAD100BF206850E8050F216840F04000E6
:1033B00041E80502DAB1206850E8050F216840F0C5
:1033C000400041E8050292B1206850E8050F2168ED
:1033D00040F0400041E805024AB1206850E8050F7E
:1033E000216840F0400041E80502002ADAD10020BF
:1033F00002B070BD704700007047000070B5044611
:1034000090F8410020281CBF022070BD00294FF019
:1034100001004DD0002A134608BF70BD4FF0000CCC
:1034200021202162A384E384C4F844C084F84100CD
:103430002268A06B45F2056E45F2B56545F211367E
:10344000C0F6000EC0F60005C0F600060432C0E962
:103450000AE5C0E90C6CFEF74BFE20686FF04001F6
:10346000016000BF206850E8050F216840F080002F
:1034700041E80502F2B1206850E8050F216840F0EC
:10348000800041E80502AAB1206850E8050F2168D4
:1034900040F0800041E8050262B1206850E8050F65
:1034A000216840F0800041E80502002ADAD10020BE
:1034B00070BD00BF002070BD006844F20041C4F23E
:1034C0000001884218BF704740F2C000C2F20000FD
:1034D000002101707047000070470000FEE7000007
:1034E0007047000049B1022906D0012912BF00200F
:1034F00001300078704700BF02300078704700004C
:1035000002290BD0012911D0C1B90178B1B1033022
:103510000078B0FA80F04009704700BF817869B147
:1035200005300078B0FA80F040097047417829B141
:1035300004300078B0FA80F04009704700207047EE
:10354000B0B504460078B4F8011040F60005C4F2A6
:103550000105E070A18028460221FEF733FFB0FA92
:1035600080F04009207028461021FEF72BFFB0FAAA
:1035700080F04009607005F580600121FEF722FFB0
:10358000B0FA80F04009A070B0BD0000FEE7000076
:10359000FEE700002DE9F04790F88C5F002D08BF92
:1035A000BDE8F08782468846002700F66C4908E0AF
:1035B000013D013F8AF88C5F0137F8B2E9B28842D9
:1035C00028D2FCB20AEB0410D0F8706C41463046A9
:1035D00003F07EF90028EFD13046002103F078F99E
:1035E0000028E9D1E8B20138A042E1D9030159F835
:1035F0000330220109EB001049F80230D0E9012321
:10360000C06809EB0411C1E90123C8609AF88C5F16
:10361000CEE700BFBDE8F087704700002DE9F04F0E
:1036200081B0044690F8EC06002845D000264FF003
:10363000340A05E0013694F8EC06F1B281423BD23F
:103640005FFA86F808FB0A4797F847000028F1D090
:1036500097F846000028EDD007F12002D4E90009D0
:10366000D2E9001B03F0FEFC05464846594603F02C
:10367000F9FC014603F0ECFA81462846294603F09E
:10368000E7FA494603F0A0F803F088F8E269396CDC
:103690000546104603F098F80146284603F011F954
:1036A0000028C7D1208A41461E3820822046FDF7D7
:1036B00079FA013EBEE700BF94F8ED06002847D036
:1036C000002605E0013694F8ED06F1B281423FD2C2
:1036D0005FFA86F808EB480004EB401797F85503AB
:1036E0000028EFD097F854030028EBD007F54B7271
:1036F000D4E90009D2E9001A03F0B4FC05464846B3
:10370000514603F0AFFC014603F0A2FA8146284679
:10371000294603F09DFA494603F056F803F03EF8B7
:10372000E269D7F84C130546104603F04DF8014600
:10373000284603F0C6F80028C4D1208A4146A0F5E7
:103740007A7020822046FDF713FA013EBAE700BFE7
:1037500001B0BDE8F08F00002DE9F04F83B0934633
:10376000D0E90074D0E9026280468A4620461146BC
:1037700003F078FC0021C8F80400C4F2342130467C
:1037800003F0C0F80021C4F2400103F061FA0146E1
:10379000384603F019F848F20001C4F289410646A0
:1037A00003F088F80025C4F2C82500281CBF48F2A1
:1037B0000006C4F289463046294603F07BF800280B
:1037C00008BF2E46BBF1000FC8F800604ED0CDE90F
:1037D00001740AF108044FF0010900260BE000BF54
:1037E00001365E454FF0000938BF4FF00109B3457F
:1037F00004F1100427D060790028F1D0D8E9000A3C
:1038000054E9021503F02EFC07465046294603F002
:1038100029FC014603F01CFA05463846394603F0F8
:1038200017FA294602F0D0FF02F0B8FFD8F81C20A2
:1038300021680546104602F0C7FF0146284603F0FE
:103840004EF80028CCD05FEAC970DDE901200DD028
:10385000B8F81010C8F800200239A8F8101000219C
:10386000C4F2701102F0B0FFC8F8040003B0BDE864
:10387000F08F0000F0B581B00E46044608460021E6
:10388000FFF730FE0025CCF2342578B1A76800217F
:10389000CCF23421384603F01BF838B90021CBF6BE
:1038A0008071384602F090FF06462EE03046012136
:1038B000FFF718FEA66868B10021C4F23421304633
:1038C00002F0FFFF30B930464FF07E5102F07CFF2E
:1038D00006461AE026F000404FF07F5102F0FFFF4D
:1038E00010B1002611E000BF3046002102F0F0FFC9
:1038F000002819BF30464FF07F510021CBF6C07130
:1039000008BF304602F060FF06460021C4F23421B1
:10391000304602F0CFFF00281CBF0026C4F2342638
:103920003046294602F0C6FF002808BF2E46A66092
:1039300001B0F0BDF0B581B00446808A10B101B08D
:10394000F0BD00BFA66800271E20C4F2A007A08219
:103950003046394602F0AEFF40B146F2AA10CBF62F
:103960009C7094F8681C3129E9D813E00021CCF24E
:10397000A001304602F0A5FF002807BF4BF60C60FF
:10398000CBF6F57040F6DB70CBF6C97094F8681C86
:103990003129D4D8C1EBC10204EB8202C2F8F80687
:1039A0004FF48770D4E90036A2F8000740F2011006
:1039B0004FF08145A2F80807481CC2F8F036C2F85B
:1039C000F466C2F8FC56C2F8047784F8680C01B0BB
:1039D000F0BD000070B51D4616460446FFF74AFFCD
:1039E000204631462A46FFF7B7FEA08A00281CBFB2
:1039F0000138A08270BD00002DE9F04F85B090F82D
:103A0000686C002E00F0BC81824600F679400024EC
:103A100001900DE05046394600F0B6F99AF8686C0E
:103A2000013C00BF0134E0B2F1B2884280F0A881CD
:103A3000E1B2C1EBC1000AEB800797F80907002843
:103A4000F0D097F8080707F5DE6B0028049743D0FD
:103A50009AF8EC06002800F0898007F204794FF00C
:103A600000080027CDE9021405E000BF01378742B6
:103A700008F134085ED20AEB080494F847100029D4
:103A8000F4D094F846100029F0D0216ADBE9000553
:103A900003F0E8FA616A0646284603F0E3FA0146B5
:103AA00003F0D6F805463046314603F0D1F82946F2
:103AB00002F08AFE02F072FED9F80020216C054661
:103AC000104602F081FE0146284602F008FF98BB2E
:103AD0009AF8EC06CAE700BFDBE90005DAE9001650
:103AE00003F0C0FA07462846314603F0BBFA014608
:103AF00003F0AEF8054638463946049F03F0A8F8AF
:103B0000294602F061FE02F049FED7F80427DAF8F0
:103B10001C100546104602F057FE0146284602F0EA
:103B2000D0FE002840F08980BAF810001438AAF8B6
:103B300010007DE0039C18E094F83800013841B291
:103B4000002984F838000ADCB4F84400DAF81810C8
:103B50000844CAF81800F9B25046FDF723F8029954
:103B6000504600F011F9039C013C049F9AF8686CE0
:103B7000E0B2B042BFF456AF9AF8ED0600285CD030
:103B8000039407F204780024002707E09AF8ED0672
:103B90000137874204F1600480F0A0800AEB04053D
:103BA00095F855130029F3D095F854130029EFD058
:103BB000D5F82C13DBE9000903F054FAD5F83013DB
:103BC0000646484603F04EFA014603F041F88146A6
:103BD0003046314603F03CF8494602F0F5FD02F06C
:103BE000DDFDD8F80020D5F84C130646104602F04B
:103BF000EBFD0146304602F072FE0028C6D095F873
:103C00004403013841B285F8440300294FF0140001
:103C1000A5F852030ADCB5F85003DAF81810084486
:103C2000CAF81800F9B25046FCF7A2FFDDE90347D5
:103C3000E1B2504600F0A8F8013C9AF8680CE1B2F5
:103C4000814253D29AF88C0F00284FD0DDF80490AF
:103C5000CDE9021407F20474002707E09AF88C0FEC
:103C60000137874209F1100980F0828099F800102D
:103C70000029F5D0DBE9000559F80D1C59F8096C4D
:103C800003F0F0F980462846314603F0EBF901468F
:103C900002F0DEFF05464046414602F0D9FF2946C4
:103CA00002F092FD02F07AFD226859F8051C0546E3
:103CB000104602F089FD0146284602F010FE002859
:103CC000CCD00299504600F05FF8039C013C9AF872
:103CD000686CE7B2B742BFF4A5AE0DE0DDE903477B
:103CE0009AF8680CE1B28142ACD300BF9AF8686CD4
:103CF000E7B2B742BFF496AE0498B0F800070028C8
:103D00003FF488AEDBF800500021284602F0E7FDC2
:103D100000287FF47FAE00212846C4F2964102F0CD
:103D2000C9FD00287FF476AEDAF8945F0021DBF855
:103D300004802846CCF2483102F046FD0146404658
:103D400002F0CDFD00287FF465AE00212846C4F2C4
:103D5000484102F039FD0021C4F2483102F034FD3F
:103D60000146404602F0B4FD00283FF453AE59E648
:103D7000039C9AF8686CE7B2B742BFF453AEBBE756
:103D800005B0BDE8F08F00002DE9F04390F8682CF5
:103D9000531E8B421BDD00F5DE62C3EBC30E02EB4C
:103DA0008E03C1EBC10CD3E90189D3E9036752F853
:103DB0002E405D6902EB8C0142F82C404D61C1E957
:103DC0000367C1E901899A698A6190F8682C511EDC
:103DD00080F8681CBDE8F0832DE9F041804690F83A
:103DE000680C002808BFBDE8F08108F5DE670024F4
:103DF00005E000BF0134844207F11C0720D2797E20
:103E00000029F7D0B86802F011FBD7E902613D68DC
:103E100002F01EFF294602F0D7FC3860304602F05F
:103E2000F9FBF9687D6802F013FF294602F0CCFC2B
:103E3000398A786098F8680C01393982DAE700BF6E
:103E4000BDE8F08110B540F2C00CC2F2000CDCF805
:103E50000410C96B09684A68BCF802E0BCF80200AB
:103E6000C2F500618BB20C1A1044734538BFC0F51F
:103E70008054A0B240F23472904228BFACF80210D5
:103E800010BD000040F2C00341F2FC01C2F2000389
:103E9000C2F200014FF400625860FFF7FBB9000066
:103EA0002DE9F04F95B040F2C007C2F200077968E3
:103EB000002900F0DD830546C86B0068D0F8049047
:103EC0007888C9F5006C1FFA8CF8404522D17888B3
:103ED00079888045ACEB0102494438BFC1F5805276
:103EE00090B240F234718842C0F0C283A7F802C099
:103EF00047F28F270020C0F60007CDE90000002020
:103F0000002100220023029700F010FC15B0BDE84C
:103F1000F08F00BF0DAC41F2FC0B631C4FF0000EA4
:103F2000C2F2000B4FF0070A002200BF78881BF88E
:103F300000007E88AA280BD0701C78807888B0F5A5
:103F4000006F28BFA7F802E078884045EED1BEE7B1
:103F50007888ACEB0001804538BF01F5006189B27B
:103F60000429C0F08583013081B20C93CDE90A2584
:103F7000BEEBD12F18BF002080B21BF80000821EBC
:103F8000D1B2052920D2CDE9062047F25022C0F651
:103F9000000232F811500021B04538BF0121C6EBB4
:103FA000C12101EB0C0291B2A942C0F06583691EE8
:103FB0000329CDE9089C27D228460021354610F078
:103FC000030265D181E000BF0021002200230FF22F
:103FD000B8646546CDE900EE0294002400F0A6FB2B
:103FE00078884FF0000E013078807888AC46B0F5C4
:103FF000006F28BF7C800A9A0DACDDE90B537888EE
:10400000404540F02E8362E7DDF8309025F0030153
:104010004FF0000E2846C1F1000C6FF00302354648
:10402000A9B21BF8014009EB02010135CC70ACB21A
:10403000BEEBD42F18BF0025ACB20135ABB21BF8D4
:104040000440BEEBD32F18BF0025ABB21BF80330E2
:104050000C714B716B1C9CB2BEEBD42F18BF0023AC
:104060005D1C9CB2ABB204321BF80440BEEBD32FF4
:104070000CEB020318BF002504338C71D0D1DDF89E
:1040800024C0111D0DAC4FF0000E10F003021CD027
:10409000ABB21BF80330012A635416D06B1C9DB2DF
:1040A000BEEBD52F18BF00239DB21BF8055021444D
:1040B000022A4D7009D05A1C93B2BEEBD32F18BF01
:1040C000002292B21BF802208A7000EB040919F852
:1040D000012C0546552A07D1E91E8AB2012A29D1A9
:1040E00000224FF0000CA5E029460798C9B2002233
:1040F00000230FF2A8566546CDE900EE0296002493
:1041000000F014FB78884FF0000E0130788078883A
:10411000AC46B0F5006F28BF7C800B98DDF820908E
:104120000A9A0C9B0DAC05467888404540F0998270
:10413000CDE600BF22F00102CDE90319C2F1000E65
:10414000A1464FF0000C6FF00102059509EB020447
:10415000E178257981EA0C014CB24B00002C48BF74
:104160008AEA410359B25C00002948BF8AEA430445
:1041700061B26300002948BF8AEA440359B25C0077
:10418000002948BF8AEA430461B26300002948BF9E
:104190008AEA440359B25C00002948BF8AEA430412
:1041A00061B26300002948BF8AEA440359B25C0047
:1041B000002948BF8AEA430485EA04014BB24D0056
:1041C000002B48BF8AEA410569B26B00002948BF4D
:1041D0008AEA450359B25D00002948BF8AEA4305CF
:1041E00069B26B00002948BF8AEA450359B25D00F5
:1041F000002948BF8AEA430569B26B00002948BF1D
:104200008AEA450359B25C00002948BF8AEA4304A0
:1042100061B202324FEA440C00290EEB020148BFA2
:104220008AEA440C023191D1059DDDE9031902327D
:104230004FF0000E11F0010134D00C98815C81EA3E
:104240000C014AB24B00002A48BF8AEA410359B226
:104250005A00002948BF8AEA430251B2530000299C
:1042600048BF8AEA420359B25A00002948BF8AEA85
:10427000430251B25300002948BF8AEA420359B2AF
:104280005A00002948BF8AEA430251B2530000296C
:1042900048BF8AEA420359B24FEA430C002948BF9B
:1042A0008AEA430C19F8023C5FFA8CF29A424DD12B
:1042B0000699DDF82090DDF824C00C9B04290DAC94
:1042C00000F26E81DFE801F004B25CE28C0000BF16
:1042D00014469DF83620DDF83710DDF83B00012A42
:1042E00000F00481002A40F03F810B9A92F8EC26FE
:1042F0000E2A00F23981DDF82CC0342302FB03C3FF
:10430000C3E90810586340F201109863962098871B
:104310000020C4F2A01018646420C0F20010586499
:104320000220012183F84800501CC3F84CE0A3F898
:1043300050E083F852108CF8EC062346CDE900419A
:10434000E9B2C2B202200FF2C0341EE10798CDE9F3
:10435000002EE9B20022D4A60296002400F0E6F96D
:1043600078884FF0000E013078807888B0F5006FC3
:1043700028BF7C80DDF82090DDE909C23CE600BF63
:10438000CDE905520B9DDDF8364095F8EC06214647
:10439000049095F8ED0607902846FCF723F9284687
:1043A0002146A146FFF7F6F8D5F8900F10B149461F
:1043B00001F02AFA0B99079A91F8EC0691F8ED169C
:1043C000049B08441A44101A069BC2B205980121A6
:1043D000009301910546C1B20420B9A41CE000BFBE
:1043E0000B98D0F8900F002878D01446DDF83610DE
:1043F000DDF83A2001F0EAF90028294600F0BA80F9
:104400000B982346D0F8900FC9B290F89020012065
:10441000009401900620ADA4029400F087F9DDF825
:1044200020900DAC4FF0000EB7E000BF0B9991F853
:104430008C0F31283CD8DDF83730A9460D469DF861
:104440003610DDF83FE09446DDF83B2005EB001424
:10445000C4F86C3C84F8781C4B4601210130C4F848
:10446000702CC4F874ECDDF8309084F8791C85F871
:104470008C0FCDE900C11D46D9B2C2B203206346FC
:104480009AA4029400F052F94B461FE00B9C91460F
:104490002046FDF7E1FB2046FDF7ECFB01200190F3
:1044A000E9B2052000224B4683A4CDF8009009E034
:1044B00047F28424CDE9002EE9B2032013460022FE
:1044C000C0F60004029400F031F90C9BDDF824C022
:1044D000DDF820904FF0000E0DAC61E0CDE9002E2C
:1044E000E9B20620134600227CA44EE00B9A92F813
:1044F000ED26092A38D8DDF82CC002EB42030CEB7C
:104500004313C3E9CB10C3F8400340F20330C3F8B0
:104510004403F020A3F848030020C4F2F010C3F8CD
:104520004C034FF49670C3F850034FF48070A3F817
:104530005403022083F85E0383F85603501C0121C4
:10454000C3F858E3A3F85CE3A3F860E3C3F864E3BB
:10455000A3F888E38CF8ED06234600940191E9B2B4
:10456000C2B2022064A410E02346E9B20220CDE9E1
:10457000004E05E00020234600940190C9B20620B9
:1045800047F284240022C0F60004029400F0CEF822
:10459000DDF820904FF0000E0DACDDF824C00C9B30
:1045A00029460120012D98BF0146481E80B20D46C4
:1045B00003287E802CD34FF6FC702840002100BFDA
:1045C0007A88043101327A807A88B2F5006F28BF88
:1045D000A7F802E07A8801327A807A88B2F5006F13
:1045E00028BFA7F802E07A8801327A807A88B2F58B
:1045F000006F28BFA7F802E07A8801327A807A88B3
:10460000B2F5006F8AB228BFA7F802E08242D7D184
:1046100015F00300DDE90A251ED079880131798083
:104620007988B1F5006F28BFA7F802E0012813D000
:104630007988013179807988B1F5006F28BFA7F8B2
:1046400002E0022808D07888013078807888B0F5B8
:10465000006F28BFA7F802E00132788840453FF498
:1046600036AC90B28028FFF461ACFFF730BC00BFDD
:1046700015B0BDE8F08F00BF0021079826A7CDE94F
:104680000011E9B2D2B23DE4556E6B6E6F776E20C9
:104690007061636B65742074797065004E6F20459E
:1046A0004E44206279746500435243206D69736DF6
:1046B0006174636800000000496E6974204F4B000C
:1046C000436C65616E7570204F4B000057686972CE
:1046D0006C706F6F6C204F4B000000004D616E617D
:1046E000676572204E554C4C000000004F62737499
:1046F00061636C65204F4B00456E656D7920686184
:104700007264204F4B000000456E656D792073691F
:104710006D706C65204F4B0057616974696E67203E
:10472000666F722064617461000000002DE9F04141
:1047300040F2C008C2F2000898F80060002E40F075
:104740001B818646D8F80400002808BFBDE8F08128
:10475000089C8C46DDE9066541F6FC01C2F20001C9
:1047600040F2AA77002C0F8081F802E081F803C0A4
:104770000A714B718E71CD7148D022780A726278BD
:104780004A72A2788A72E278CA7222790A736279CE
:104790004A73A2798A73E279CA73227A0A74627AB6
:1047A0004A74A27A8A74E27ACA74227B0A75627B9E
:1047B0004A75A27B8A75E27BCA75227C0A76627C86
:1047C0004A76A27C8A76E27CCA76227D0A77627D6E
:1047D0004A77A27D8A77E27DCA77227E81F82020FF
:1047E000627E81F82120A27E81F82220E27E81F87B
:1047F0002320227F81F82420627F81F82520A27F58
:1048000081F82620E27F81F8272008E00022C1E914
:104810000222C1E90422C1E90622C1E908220022DC
:10482000072300268F187C78BD78664097F803C070
:1048300074B27700002C48BF83EA46077EB27C0042
:10484000002E48BF83EA470467B26600002F48BFC6
:1048500083EA440677B27400002F48BF83EA460417
:1048600067B26600002F48BF83EA440677B274003F
:10487000002F48BF83EA460467B26600002F48BF96
:1048800083EA440677B27400002F48BF83EA4604E7
:1048900085EA04077EB27D00002E48BF83EA470503
:1048A0006FB26E00002F48BF83EA450677B27500ED
:1048B000002F48BF83EA46056FB26E00002F48BF45
:1048C00083EA450677B27500002F48BF83EA4605A4
:1048D0006FB26E00002F48BF83EA450677B27500BD
:1048E000002F48BF83EA46056FB26E00002F48BF15
:1048F00083EA45068CEA06077EB27D00002E48BF9B
:1049000083EA47056FB26E00002F48BF83EA450671
:1049100077B27500002F48BF83EA46056FB26E007C
:10492000002F48BF83EA450677B27500002F48BFC5
:1049300083EA46056FB26E00002F48BF83EA450642
:1049400077B27500002F48BF83EA46056FB26E004C
:10495000002F02F1030248BF83EA4506272A7FF4AD
:1049600061AF552281F829202A2281F82860FEF7BC
:1049700045FD012088F80000BDE8F0812DE9F04FE9
:104980008FB040F2C002C2F20002117881460029C5
:1049900040F0A0805068002800F09C8041F6FC01A7
:1049A000C2F200014FF4D5720A8099F8002099F8FC
:1049B00010308A7099F8012099F8EC46CA7099F87D
:1049C0000220002C0A7199F803204FF0000C4A7164
:1049D00099F804208A7199F80520CA7199F806207F
:1049E0000A7299F807204A7299F808208A7299F891
:1049F0000920CA7299F80A200A7399F80B208B7360
:104A00004A7399F8112099F81830CA7399F8192047
:104A10000B7499F814304A7499F815208B74CA7481
:104A20007CD009F124074FF0150801264FF0000E45
:104A300097F82350002D44D097F82250002D40D0F5
:104A40001FFA88F401F804C008F1010517F8044CB6
:104A5000ADB24C5508F1020317F8034C9BB2CC548D
:104A600008F1030517F8023CADB24B5508F10404F8
:104A700017F8013CA4B20B5508F105053B78ADB21F
:104A80004B5508F106047B78A4B20B5508F10705D5
:104A9000BB78ADB24B5508F10804FB78A4B20B55B6
:104AA00008F109053B7DADB24B5508F10A0497F8B2
:104AB0002430A4B20B5599F8EC4608F10B080EF11E
:104AC000010EA6422ED23437BEF1060F06F10106C2
:104AD000AED327E0D9F8A40F48F21F510130C5F238
:104AE000EB11A0FB01125209642102FB1101C9F86C
:104AF000A40F79B9D9F8A01F45F62943CCF28F232A
:104B0000594345F628434FEAB101C0F28F23994239
:104B100040F26E820FB0BDE8F08F00BF4FF0150875
:104B20004FF0000E99F8ED46002C5FD0BEF1050F56
:104B30005CD809F1480509F54B764FF0010C0127C7
:104B400096F82930002B48D096F82830002B44D016
:104B50001FFA88F401F804C008F1010334789BB20D
:104B6000CC5408F1020A73781FFA8AF40B5508F145
:104B7000030BB3781FFA8BF40B5508F1040AF37892
:104B80001FFA8AF40B5508F1050B33791FFA8BF4E1
:104B90000B5508F1060A73791FFA8AF40B5508F1D0
:104BA000070BB3791FFA8BF40B5508F1080AF37958
:104BB0001FFA8AF40B5508F1090B337E1FFA8BF4A8
:104BC0000B5508F10A0A2B781FFA8AF40B5599F84D
:104BD000ED4608F10B080EF1010EA74206D234355E
:104BE0006036BEF1060F07F10107A9D399F8684CAA
:104BF00008F1010381F814E0C4B309F5DE664FF053
:104C0000000C0125777E47B337789AB28F545C1C2D
:104C10007278A4B20A559F1CB278BFB2CA55DC1C88
:104C2000F278A4B20A551F1D3279BFB2CA555C1D75
:104C30007279A4B20A559F1DB279BFB2CA55DC1D64
:104C4000F279A4B20A5503F10807327EBFB2CA5501
:104C500099F8684C09330CF1010CA54208D20135D2
:104C6000BCF1140F06F11C06CCD301E04FF0000C90
:104C70001FFA88F201F802C0D9F8907F03F1010809
:104C8000002F00F0A18097F89050032D28BF032536
:104C9000002D00F09980D9F8907F1FFA88F23E78B5
:104CA0009C1C8E547A78A4B20A55DE1CBA78B6B22F
:104CB0008A551C1DFA78A4B20A555E1D3A79B6B21F
:104CC0008A559C1D7A79A4B20A55DE1DBA79B6B20E
:104CD0008A5503F10804FA79A4B20A5503F10906CA
:104CE0003F7C03F10A08B6B2012D8F556DD0D9F87B
:104CF000907F1FFA88F23E7E03F10B048E547A7E79
:104D0000A4B20A5503F10C06BA7EB6B28A5503F175
:104D10000D04FA7EA4B20A5503F10E063A7FB6B22C
:104D20008A5503F10F047A7FA4B20A5503F11006E5
:104D3000BA7FB6B28A5503F11104FA7FA4B20A55BC
:104D400003F1120697F8287003F11308B6B2022D8A
:104D50008F553AD0D9F8907F1FFA88F297F83060D3
:104D600003F114048E5497F83120A4B20A5503F1CC
:104D7000150697F83220B6B28A5503F1160497F853
:104D80003320A4B20A5503F1170697F83420B6B2BF
:104D90008A5503F1180497F83520A4B20A5503F197
:104DA000190697F83620B6B28A5503F11A0497F817
:104DB0003720A4B20A5503F11B0697F8407003F19F
:104DC0001C08B6B28F5500E000259BB2CD5499F86F
:104DD000943F1FFA88F68B5508F1010799F8953F23
:104DE000BFB2CB5508F1020699F8963FB6B28B5583
:104DF00008F1030799F8973FBFB2CB5508F10406B5
:104E000099F8A03FB6B28B5508F1050799F8A13F74
:104E1000BFB2CB5508F1060699F8A23FB6B208F129
:104E200007078B5599F8A36F08F10805BBB21FFA65
:104E300085FECE5453B1012B03F0010C08D10023A1
:104E40000024BCF1000F7AD1ADE000BF0024AAE03D
:104E500023F00103C3F1000A00246FF001060725C7
:104E60008B19DA781B79624054B25700002C48BF86
:104E700085EA42077AB27C00002A48BF85EA4704E7
:104E800062B26700002A48BF85EA44077AB27C0014
:104E9000002A48BF85EA470462B26700002A48BF7B
:104EA00085EA44077AB27C00002A48BF85EA4704B5
:104EB00062B26700002A48BF85EA44077AB27C00E4
:104EC000002A48BF85EA470483EA040253B254002B
:104ED000002B48BF85EA420462B26300002A48BF43
:104EE00085EA44035AB25C00002A48BF85EA4304BD
:104EF00062B26300002A48BF85EA44035AB25C00EC
:104F0000002A48BF85EA430462B26300002A48BF12
:104F100085EA44035AB25F00002A48BF85EA430786
:104F20007AB202367C00002A0AEB060248BF85EA04
:104F30004704023294D1B31CBCF1000F33D0CA181D
:104F400052780723624057B25600002F48BF83EAC9
:104F5000420672B27700002A48BF83EA46077AB257
:104F60007E00002A48BF83EA470672B27700002A13
:104F700048BF83EA46077AB27E00002A48BF83EA28
:104F8000470672B27700002A48BF83EA46077AB222
:104F90007E00002A48BF83EA470672B27400002AE6
:104FA00048BF83EA460408F1090208F10A0392B2F5
:104FB00055278F549AB201F80E40FEF71FFA68B1D8
:104FC00040F2C0010020C2F200010870D9F8A40F1D
:104FD0000130C9F8A40F0FB0BDE8F08F40F2C00156
:104FE0000120C2F2000108700FB0BDE8F08F00BFD1
:104FF0000021B74B8DF83B10B5A10793D1E90137DC
:10500000D1E90365D1E9054CCDE908378B7F898B60
:105010000028CDE90A650C94CDF834C08DF83A30FB
:10502000ADF8381000F0C2804CF6CD43CCF6CC433E
:10503000A0FB0317FF0807EB8701A0EB410141F03C
:1050400030018DF812100A284FF00001C0F0B28034
:10505000A7FB0365EE0806EB8606A7EB460747F0BD
:10506000300764288DF81370C0F0A880A2FB037687
:10507000F70807EB8707A2EB470242F03002B0F5D2
:105080007A7F8DF81420C0F09D8044F6D352C1F28F
:105090006202A0FB0227BA09A2FB0376F70807EB1E
:1050A0008707A2EB470242F2107742F03002B84283
:1050B0008DF81520C0F08A8041F25972CDF2B712F6
:1050C000A0FB02277A0BA2FB0337FB0803EB830349
:1050D000A2EB430248F2A063C0F2010342F03002A7
:1050E00098428DF8162075D345F6C5234209C0F6BF
:1050F0007C23A2FB0323DB094CF6CD4203FB02F722
:10510000FF0C07EB8707A3EB470344F24027C0F2ED
:105110000F0743F03003B8428DF817305ED34DF6D9
:105120008363C4F21B33A0FB0337BB0C5A43D20C7E
:1051300002EB8202A3EB420249F28063C0F29803C1
:1051400042F0300298428DF818204BD34CF66B2277
:10515000C6F65F32A0FB02239A0D4CF6CD435343B3
:10516000DB0C03EB8303A2EB43024EF20013C0F20D
:10517000F55342F0300298428DF8192036D343F6A9
:105180008932C5F2E652A0FB02235A0ECD235343C7
:10519000DB0A03EB8303A2EB430242F03002092750
:1051A0004FF0080C8DF81A2023E000BF3020ADF836
:1051B00012006DE001274FF0000C1AE002274FF0BB
:1051C000010C16E003274FF0020C12E004274FF009
:1051D000030C0EE005274FF0040C0AE006274FF001
:1051E000050C06E007274FF0060C02E008274FF0F9
:1051F000070C0DF112030A28D95549D34FF0FF309F
:1052000000EB57000328C7F3410E01D2002122E032
:10521000790801F004070021624600BF5C5C9E5CD7
:105220005D1898185E549C5410F8014C6E786C70A0
:1052300000F8016C10F8024CAE78AC7000F8026C0B
:1052400010F8034CEE7804318F42A2F10402EC70A6
:1052500000F8036CE2D1BEF1000F19D0ACEB0102F3
:105260009F5C5D5CBEF1010F5F549D5410D04A1CE1
:10527000ACEB0207DD5D9C5CBEF1020F9D54DC557A
:1052800006D0881CACEB00015A5C1F5C1A545F54BA
:1052900007AC2046FBF704F8C0F11F020DF1120124
:1052A0002046FAF7EBFFFAF7FBFFC0F11F0210A14F
:1052B0002046FAF7E3FF0020CDE90000002000219E
:1052C000002200230294FFF731FA0FB0BDE8F08FFF
:1052D000536B6970706564200000000000000000DE
:1052E00000000000000000000000000000000000BE
:1052F00020706B747300000070470000FDF76EB8FB
:1053000070470000406A0021C185C184FDF718BCC8
:10531000406A01684A6990F84130212B2DD112F082
:1053200080022AD00021C184016851E8031F02686D
:1053300021F0C00142E80313DBB1016851E8031F0B
:10534000026821F0C00142E8031393B1016851E8FB
:10535000031F026821F0C00142E803134BB101684A
:1053600051E8031F026821F0C00142E80313002B3B
:10537000DAD1202180F841100168496990F8422073
:10538000222A40F07D8011F0400179D00021C185B2
:10539000016851E8031F026821F4907142E8031389
:1053A000BBB3016851E8031F026821F4907142E821
:1053B000031373B3016851E8031F026821F490716D
:1053C00042E803132BB3016851E8031F026821F47C
:1053D000907142E80313002BDAD11AE0016851E81A
:1053E000051F026821F0010142E80513DBB10168E5
:1053F00051E8051F026821F0010142E8051393B14D
:10540000016851E8051F026821F0010142E8051317
:105410004BB1016851E8051F026821F0010142E823
:105420000513002BDAD1016B012924D1016851E861
:10543000031F026821F0100142E80313DBB1016889
:1054400051E8031F026821F0100142E8031393B1F1
:10545000016851E8031F026821F0100142E80313BC
:105460004BB1016851E8031F026821F0100142E8C6
:105470000313002BDAD1202180F8421000210163B0
:10548000416C41F010014164FDF75ABB0168406A6C
:105490000968890600F19F800021C185016851E8F3
:1054A000031F026821F4807142E80313E3B101682D
:1054B00051E8031F026821F4807142E803139BB195
:1054C000016851E8031F026821F4807142E8031368
:1054D00053B1016851E8031F026821F4807142E86A
:1054E0000313002BDAD100BF016851E8051F0268E1
:1054F00021F0010142E80513BBB3016851E8051F23
:10550000026821F0010142E8051373B3016851E814
:10551000051F026821F0010142E805132BB3016861
:1055200051E8051F026821F0010142E80513002B34
:10553000DAD11AE0016851E8051F026821F0400144
:1055400042E80513DBB1016851E8051F026821F04C
:10555000400142E8051393B1016851E8051F026854
:1055600021F0400142E805134BB1016851E8051FE5
:10557000026821F0400142E80513002BDAD1202116
:1055800080F84210016B012925D100BF016851E864
:10559000031F026821F0100142E80313DBB1016828
:1055A00051E8031F026821F0100142E8031393B190
:1055B000016851E8031F026821F0100142E803135B
:1055C0004BB1016851E8031F026821F0100142E865
:1055D0000313002BDAD100214163016B012918BFAD
:1055E000FDF708BF818DFDF7A9BA0000406A0121CF
:1055F0004163016B012918BFFDF7FEBE818D49088B
:10560000FDF79CBA0168406A0968890648BFFDF742
:1056100053BF0021C18400BF016851E8051F026823
:1056200021F0800142E8051383B3016851E8051FAA
:10563000026821F0800142E805133BB3016851E89C
:10564000051F026821F0800142E80513F3B10168EB
:1056500051E8051F026821F0800142E80513002B84
:10566000DAD113E0016851E8031F026841F04001FC
:1056700042E80313002B08BF7047016851E8031F7D
:10568000026841F0400142E8031393B1016851E818
:10569000031F026841F0400142E803134BB1016867
:1056A00051E8031F026841F0400142E80313002B58
:1056B000D8D17047406AFDF70FBF000081B090F865
:1056C0004210222921D183680246B3F5805F09D1B7
:1056D00052F8281F52F8183C002B63D003685B680F
:1056E0000AE000BF52F8281F13B90369002BF5D058
:1056F00003685B6803F07F030B7011680131116070
:10570000C18D01390A04C18502D001B0704700BFC4
:105710000168CA6822F02002CA60CA6822F4807256
:10572000CA604A6922F001024A61202180F84210D1
:1057300000214163026B012A3CD10163016851E8F9
:10574000031F026821F0100142E80313DBB1016876
:1057500051E8031F026821F0100142E8031393B1DE
:10576000016851E8031F026821F0100142E80313A9
:105770004BB1016851E8031F026821F0100142E8B3
:105780000313002BDAD101680A68D20606D500227D
:1057900000920A680092496800910099818D01B0D9
:1057A000FDF7CCB9026852686FF35F2221F8022B33
:1057B0008162A5E701B0FDF71DBE000040F2780050
:1057C000C2F20000FDF7D8B9FEE7000010B590F86E
:1057D00090C00023BCF1050F13D80CEB4C0E40F821
:1057E0003E10002100EBCE04C4F23421C4E90121B3
:1057F000E3602374638263610CF10101012380F88B
:105800009010184610BD00002DE9F04790F890A0C8
:10581000BAF1000F08BFBDE8F08781468846002432
:1058200000270AE0AAF1010A013F89F890A0013798
:10583000FCB25FFA8AF0844226D204EB440009EB02
:10584000C0056E684146304601F042F80028EED1AE
:105850003046002101F03CF80028E8D15FFA8AF0D8
:105860000138A042DED900EB400009EBC00159F835
:1058700030000E1DD1E904414CCE85E84D00C5E94C
:10588000044199F890A0CDE7BDE8F0872DE9F04FED
:1058900087B090F89070052F04D9002007B0BDE8BC
:1058A000F08F00BF1646109A0690002ACDE9031625
:1058B00000F0E4801C3003F1080201900020029205
:1058C00017E000BF04992846A84601F001F8DDF86A
:1058D00018B048F200090028C4F23B4908BF5FEA4B
:1058E000C47000F0818005980399132800F101002D
:1058F000D3D2059048680021CCF2964100F064FFB5
:1059000040F2C808C2F20008D8F8001044F66D66EC
:10591000C4F2C61643F2390701FB0674054624F0AB
:10592000004001F019F94FF0405101F091F90021C8
:10593000CCF2FA3101F08CF90146284600F044FF20
:1059400004FB0671054621F00040C8F8000001F094
:1059500003F94FF0405101F07BF90021C4F21641E8
:1059600001F076F90021C4F2963100F02DFF029F7C
:10597000824601244FF0000B0CE000BF10980BF1A1
:10598000010B83454FF0000438BF0124584507F14F
:10599000100797D078790028F0D057E902195046BF
:1059A00001F060FB80462846494601F05BFB01465A
:1059B00001F04EF906464046414601F049F93146AC
:1059C00000F002FF00F0EAFE3968064608460021B2
:1059D000C4F2482100F0F8FE0146304600F071FFA5
:1059E0000028CBD16EE700BF9BF89000002800F0A4
:1059F000CF80DBE90014504601F034FB06464046F8
:105A0000214601F02FFB014601F022F90446304601
:105A1000314601F01DF9214600F0D6FE00F0BEFE31
:105A2000494600F05CFF00287FF45DAF019C002731
:105A30009BF890000137874280F0AA8054F8041C3C
:105A4000504604F1180501F00DFB2168064640465A
:105A500001F008FB014601F0FBF8044630463146F0
:105A600001F0F6F8214600F0AFFE00F097FE49463F
:105A700000F027FF00282C46DAD134E748F200086E
:105A800004304FF00009C4F23B4805900AE000BF23
:105A9000DDE90316B9F1130F09F101094FF0000018
:105AA00080F08B8048680021CCF2964100F08CFE9B
:105AB00040F2C80AC2F2000ADAF8001044F66D6734
:105AC000C4F2C61743F2390B01FB07B4054624F0B4
:105AD000004001F041F84FF0405101F0B9F80021C9
