:020000040800F2
:10000000C017002091010008B1300008113000082D
:10001000AD3000088D0500085145000800000000C3
:100020000000000000000000000000008140000807
:10003000A9050008000000002931000885400008DB
:10004000AB010008AB010008AB010008AB010008E0
:10005000AB010008AB010008AD050008B5050008BC
:10006000AB010008AB010008BD050008AB010008AA
:10007000AB010008AB010008AB010008AB010008B0
:10008000910500089D050008AB010008AB010008C0
:10009000AB010008AB010008AB010008AB01000890
:1000A000AB010008AB010008AB010008AB01000880
:1000B000AB010008AB010008AB010008AB01000870
:1000C000AB010008AB010008AB010008AB01000860
:1000D000AB010008AB01000845450008AB01000872
:1000E000AB010008AB010008AB01000800F002F80A
:1000F00000F03EF80AA090E8000C82448344AAF184
:100100000107DA4501D100F033F8AFF2090EBAE881
:100110000F0013F0010F18BFFB1A43F0010318473B
:100120005C6000007C600000103A24BF78C878C191
:10013000FAD8520724BF30C830C144BF04680C60ED
:10014000704700000023002400250026103A28BF35
:1001500078C1FBD8520728BF30C148BF0B60704739
:100160001FB59DE8030000F023F91FBD10B510BDB9
:1001700000F08AF91146FFF7F3FF04F065FD00F087
:10018000A8F903B4FFF7F2FF03BC00F0D9F90000AF
:100190000948804709480047FEE7FEE7FEE7FEE71B
:1001A000FEE7FEE7FEE7FEE7FEE7FEE70448054957
:1001B000054A064B7047000089400008ED00000822
:1001C000C0110020C0170020C0130020C013002061
:1001D00070B5064600F0D0F8056806F10B0020F077
:1001E0000704B4429CBF002070BD2B466A68BAB1B8
:1001F0001068A04210D304F1080188423CBF506847
:10020000586007D35168101941601168091B0160DB
:1002100058601460101D70BD13465268002AE7D163
:100220002146284600F0B0F80028DED170BD70B538
:100230000446051F00F0A0F80068002C14BF4468B5
:1002400070BD002C18BFAC423CBF20466468F8D398
:1002500001680A18AA4218BF456003D12A680546FA
:100260001144016028684119A1421CBF6C6070BD37
:100270006168696021680844286070BD10B5203A43
:10028000C0F00B80B1E81850A0E81850B1E8185041
:10029000A0E81850203ABFF4F5AF5FEA027C24BF13
:1002A000B1E81850A0E8185044BF18C918C0BDE8FC
:1002B00010405FEA827C24BF51F8043B40F8043BC5
:1002C00008BF7047D20728BF31F8023B48BF11F87A
:1002D000012B28BF20F8023B48BF00F8012B7047D4
:1002E0004FF000020429C0F0128010F0030C00F05F
:1002F0001B80CCF1040CBCF1020F18BF00F8012BDD
:10030000A8BF20F8022BA1EB0C0100F00DB85FEAAA
:10031000C17C24BF00F8012B00F8012B48BF00F876
:10032000012B70474FF0000200B5134694469646E5
:10033000203922BFA0E80C50A0E80C50B1F12001F8
:10034000BFF4F7AF090728BFA0E80C5048BF0CC0A6
:100350005DF804EB890028BF40F8042B08BF704704
:1003600048BF20F8022B11F0804F18BF00F8012B76
:10037000704770477047704700487047180000206A
:10038000704770477047704738B504460A460020EA
:100390006946AFF30080002808BF38BD02460099C7
:1003A000204600F04FF8012038BD012000F064B86D
:1003B000F8B5AFF30080054600200C46102000BFC2
:1003C0000646A819A0420DD9324669460020AFF36F
:1003D0000080070008BF00F04FF80098A04218BF47
:1003E0000546C419FFF7C8FF05600746F01D20F059
:1003F00007004619284600F00AF8B44208BFF8BDC5
:10040000A21B31463868BDE8F84000F01BB8002157
:100410000160C0E9011070471020704710B500F06E
:100420000DF8006810BD10B5044600F007F8046030
:1004300010BD0000004870471000002000487047C1
:1004400010000020034640688C46002818BF8842F0
:100450003CBF03464068F8D318681844884207D068
:100460000CF1030020F00700001D411A521A01464A
:10047000081D0A60FFF7DBBE10B500F039F8BDE8D3
:10048000104000F02FB870477546FFF7D3FFAE4617
:1004900005006946534620F00700854618B020B590
:1004A000FFF784FEBDE820404FF000064FF0000744
:1004B0004FF000084FF0000BAC46ACE8C009ACE8C8
:1004C000C009ACE8C009ACE8C00921F007018D46BD
:1004D000704710B50446AFF300802046BDE81040D9
:1004E000FFF74FBE002801D000F02AB87047000087
:1004F00010B5012805D0002103A000F027F8012045
:1005000010BD09A1F8E7000053494752544D454D2D
:100510003A204F7574206F662068656170206D65A4
:100520006D6F7279000000003A2048656170206D9F
:10053000656D6F727920636F727275707465640097
:1005400001491820ABBEFEE72600020070B5054643
:100550000C460A2000E06D1C00F011F835B1287837
:100560000028F8D102E0641C00F009F814B12078EA
:100570000028F8D1BDE870400A20AFF3008008B52C
:1005800069468DF800000320ABBE08BDFEE7000001
:1005900041F22C00C2F2000001F02ABA41F27000D0
:1005A000C2F2000001F024BA70470000012001F0FF
:1005B00083BB0000022001F07FBB0000102001F08F
:1005C0007BBB00002DE9F04190F8B0560446884608
:1005D000D5B1002705E000BF0137F8B2E9B2884283
:1005E00012D2FEB206EB460004EB0010406A414610
:1005F00005F0EEF80028EFD12046314600F0B8FAB9
:1006000094F8B056013FE7E794F8B156002D08BFC3
:10061000BDE8F081002704E00137F8B2E9B2884272
:1006200014D2FEB206EB460004EB4010D0F8F40200
:10063000414605F0CDF80028EED12046314600F0C5
:100640007DFA94F8B156013FE6E700BFBDE8F081BE
:100650002DE9F04F85B0029105460021D0E9004018
:10066000A5F85C10002144F66D6BC4F24831C4F269
:10067000C61B05F029F840F2C009C2F20009D9F8FA
:10068000001043F2390201FB0B214AF6AB2221F0A4
:100690000041CAF6AA22A1FB0223074623F001006B
:1006A00000EB5300081AC9F8001000F001010230F5
:1006B00040F2000A00F00603A5F11002C4F2963AD7
:1006C00000910395D9F8000043F2390100FB0B15A6
:1006D00047F2A31125F00040CAF26E310492A0FB4C
:1006E0000112110A40F2911201FB1200019300F570
:1006F000C87043F2390805F097F905FB0B810546F0
:1007000021F00040C9F8000005F0A6F94FF0405173
:1007100005F01EFA0021C4F2164105F019FA002175
:10072000CCF2963104F0D0FF0146204604F0CCFF15
:100730000021C4F26141044605F03CF800281CBFCA
:100740000024C4F261442046514605F033F80028E5
:100750003846294608BF544604F0B6FF8046029842
:10076000D0E90015204605F0FDFB06464046294627
:1007700005F0F8FB0146814605F0EAF907463046E8
:10078000314605F0E5F9394604F09EFF04F086FF96
:100790005146074605F023F80546002838464FF035
:1007A000000118BF012505F005F8002818BF012039
:1007B00005EA000B3046394605F024F8514605F0AD
:1007C000C7F9214604F080FF06464846394605F041
:1007D00019F8514605F0BCF9414604F075FF40F2A6
:1007E000C001C2F20001096844F66D62C4F2C6128B
:1007F00043F2390901FB029747F2A31227F00041A7
:10080000CAF26E32A1FB02230546BBF1000F04BF02
:10081000454626460498039C049AC66494F85D00F5
:1008200015651A0A40F2911302FB1311013084F886
:100830005D0001F5C87005F0F7F844F66D61C4F28B
:10084000C61107FB0191044621F0004040F2C001AF
:10085000C2F20001086005F0FFF84FF0405105F0CA
:1008600077F90021C4F2164105F072F90021CCF2AB
:10087000963104F029FF0146304604F025FF00219F
:10088000C4F26141804604F095FF00281CBF40F28D
:100890000008C4F261484046514604F08BFF00282E
:1008A0002846214608BFD04604F00EFF029C814630
:1008B0002168404605F056FB61680446484605F04D
:1008C00051FB0146054605F043F906462046214600
:1008D00005F03EF9314604F0F7FE04F0DFFE514624
:1008E000064604F07CFF0746002830464FF0000122
:1008F00018BF012704F05EFF002818BF012007EA97
:10090000000B2046314604F07DFF514605F020F9EA
:10091000414604F0D9FE04462846314604F072FFF1
:10092000514605F015F9494604F0CEFE0746019BF5
:10093000049ABBF1000F08BF4F4608BF4446039E10
:1009400047F2A31196F85D5040F2C00944F66D6B72
:10095000CAF26E31C2F20009C4F2C61B5465976533
:10096000681C023B02F1100286F85D007FF4AAAE1B
:10097000009B029E33B9DDF80CB0C6B2042E80F0A5
:10098000D98095E0D9F8000043F2390800FB0B85C7
:10099000049225F00040A0FB0112110A40F29112CE
:1009A00001FB120000F5C87005F03EF805FB0B8155
:1009B000054621F00040C9F8000005F04DF84FF061
:1009C000405105F0C5F80021C4F2164105F0C0F809
:1009D0000021CCF2963104F077FE0146204604F067
:1009E00073FE0021C4F26141044604F0E3FE0028D6
:1009F0001CBF0024C4F261442046514604F0DAFED4
:100A000000283846294608BF544604F05DFED6E962
:100A100000168046204605F0A5FA054640463146B8
:100A200005F0A0FA0146814605F092F807462846EF
:100A3000294605F08DF8394604F046FE04F02EFEF6
:100A40005146074604F0CBFE0646002838464FF0D4
:100A5000000118BF012604F0ADFE002818BF0120D8
:100A600006402846394604F0CDFE514605F070F8A0
:100A7000214604F029FE05464846394604F0C2FEE8
:100A8000514605F065F8414604F01EFE0746002E6B
:100A900004BF474625460498DDF80CB0C5649BF8B2
:100AA0005D500765681C8BF85D00C6B2042E41D20C
:100AB00040F2C00AC2F2000ADAF8000044F66D699A
:100AC00043F23908C4F2C61900FB0984DB2124F083
:100AD0000040CBF22E41A0FB0112811A02EB510122
:100AE000490A40F2592201FB120000F5967004F009
:100AF0009BFF04FB098147F2A31221F00041CAF2D7
:100B00006E32A1FB02230446180A40F2911200FB48
:100B10001210CAF8001000F5C87004F085FF0146F5
:100B2000384604F0D1FD0BEBC601C1E90F40A81C0B
:100B30008BF85D0005B0BDE8F08F000010B50446ED
:100B400090F8B106421E8A420EDD01EB410004F529
:100B50003C7102EB420201EB401001EB42116022BA
:100B6000FFF78CFB94F8B106013884F8B10610BD8C
:100B70002DE9F04390F8B026531E8B4229DD00F199
:100B8000200203EB430E02EB0E134FEA0E1E01EBA5
:100B9000410CD3E90189D3E9036752F80E405D693E
:100BA00002EB0C114FEA0C1C42F80C404D61C1E9FC
:100BB0000367C1E90189D3E90627D3E90865D3E9C9
:100BC0000A43C1E90865C1E90A43C1E9062790F86B
:100BD000B026511E80F8B016BDE8F0832DE9F04F25
:100BE00081B00E4680468A8BD0E90050D1E9007171
:100BF000728305F0B7F904462846394605F0B2F984
:100C00000146204604F040FA98F82C4C322C274636
:100C100098BF3227312C64D849F69A11CBF6196166
:100C2000054604F051FDC4EBC40108EB8102D6E98E
:100C3000009643F2333340F2000BC4F23303C2F8A0
:100C4000BC064FF48770C4F2A00B4FF48071C2F859
:100C5000B496C2F8B866C2F8C036A2F8C406C2F8A4
:100C6000C8B6A2F8CC16621CBA4288F82C2C38D030
:100C7000C2EBC20204F1020A08EB8202BA45C2F8D2
:100C8000B496C2F8B866C2F8BC56C2F8C036A2F82C
:100C9000C406C2F8C8B6A2F8CC1688F82CAC20D08E
:100CA00049F69A11C3F6196128461D4604F00CFD59
:100CB000CAEBCA0108EB8101C1F8BC064FF487708A
:100CC000A1F8C4064FF48070A1F8CC06E01CC1F86E
:100CD000B496C1F8B866C1F8C056C1F8C8B688F86D
:100CE0002C0C01B0BDE8F08F2DE9F04F87B090F8E3
:100CF000B0668246002E069000F03E8248F2000167
:100D000040F6DB7B0AF543604FF00009C4F23B512B
:100D1000C4F2490B009010E048F2000140F6DB7B82
:100D2000C4F23B51C4F2490B09F101099AF8B066CB
:100D30005FFA89F0B04280F01F825FFA89F404EB19
:100D400044000AEB001898F847000028ECD098F807
:100D500046000028E8D008F12007DAF804007D6892
:100D600004F0B2FC0146284604F032FD059718BB9A
:100D7000F0B20138A04219D900EB40000AEB001094
:100D800000F120078ECFD0E90C56059CC4E904562B
:100D900084E88E0000F13807D0E912608ECFC4E9F4
:100DA0000A6004F118008EC09AF8B066701E8AF8C6
:100DB000B006A9F101097CE13846514600F074FC07
:100DC000464656F82C0FCDF81080314651F8045F96
:100DD000B046039158F8041D04F056F90146284620
:100DE00005F0C0F85946074604F0F2FC40F6DB7403
:100DF000CCF2C90428BB00BF3846214604F064FC8D
:100E00005946074604F0E4FCD8B93846214604F0B8
:100E10005BFC5946074604F0DBFC90B93846214696
:100E200004F052FC5946074604F0D2FC48B9384653
:100E3000214604F049FC5946074604F0BBFC002853
:100E4000DAD140F6DB74CCF249043846214604F08E
:100E5000B8FC40F6DB75C4F2C90520BB384629460C
:100E600004F032FC2146074604F0ABFCD8B9384602
:100E7000294604F029FC2146074604F0A2FC90B95B
:100E80003846294604F020FC2146074604F099FC28
:100E900048B93846294604F017FC2146074604F0B5
:100EA0009EFC0028DAD14CF6CD413846C3F64C51B1
:100EB00004F04EFE039F054639680846294604F0B3
:100EC00003FC04F033FA4CF6CD44C4F20C04214682
:100ED00004F03EFE3968C8F80000284604F0F4FB30
:100EE00004F018FB214604F033FE059C0546D4E9C6
:100EF0000007D8F800103560029004F0E5FB80464A
:100F00002060284639462546019704F0DDFB9AF813
:100F1000501F6060002976D083460498009C056CC1
:100F20004FF0000A09E000BF069890F8501F0AF140
:100F3000010A8A4504F1100460D2607B0028F6D0D3
:100F4000D4E90016404605F00DF8074658463146EC
:100F500005F008F8014604F0FBFD06463846394620
:100F600004F0F6FD314604F0AFFB04F097FBA168F6
:100F70000646284604F0A8FB0146304604F02FFC44
:100F80000028D1D040F2C003C2F20003186844F632
:100F90006D61C4F2C61143F2390200FB01204EF22A
:100FA0008B6120F00040CBF20951A0FB0112059D9E
:100FB0000199DDF808806960D109B52201FB1201B1
:100FC000186001F15A00C5F8008004F02DFD40F6CC
:100FD000DB7BC4F2490B594604F0BAFD0021C4F290
:100FE000343104F00FFC039C024621680846114688
:100FF00004F06AFBDDF818A0206008E0059DDDF82C
:1010000018A0D5F8008040F6DB7BC4F2490B002421
:10101000C4F2F0244046214604F0E1FB10B11E204A
:10102000A0460BE000214046C4F2874104F0D0FB0B
:1010300080BB40F20008D220C4F2874840F2C007CB
:10104000C2F20007396844F66D62C4F2C61243F278
:10105000390301FB023145F2BF6221F00041C0F6C5
:10106000CF62A1FB0223CA1A03EB52029209792331
:1010700002FB1312C5F800801044396004F0D4FC60
:10108000594604F065FD0021C4F2343104F0BAFB86
:1010900003990860049830F84C1F00291CBF0139DF
:1010A0000180049C34F83A0F40B1013801042080DB
:1010B00004D048F20001C4F23B5135E6DAF800B042
:1010C0004046DAF804805946029004F04BFF6E68FF
:1010D00020F000473046414604F044FF0021054619
:1010E0003846C4F2C83104F06CFB00287FF414AE1B
:1010F000002125F00040C4F2963104F062FB002884
:101100007FF40AAE04999AF82C0C898F312821803B
:101110003FF602AE0299584604F024FF05464046C9
:10112000314604F01FFF294603F0AEFF9AF82C1C4D
:10113000059FC1EBC1023B680AEB8202C2F8B436DC
:101140007B68C2F8BC060020C4F26000C2F8C0068A
:101150004FF48770A2F8C4060020C4F2A000C2F8C1
:10116000C8064FF48070A2F8CC06481CC2F8B83606
:101170008AF82C0CD0E500BF9AF8B146002C00F09C
:10118000758148F200090AF543604FF0000BC4F284
:101190003B5900900FE000BF601E8AF8B106ABF12A
:1011A000010B00BF0BF1010B9AF8B1465FFA8BF00F
:1011B000A04280F05B815FFA8BF505EB45000AEBFE
:1011C000401898F819030028ECD098F81803002864
:1011D000E8D008F53C76DAF804007768494604F070
:1011E00073FA0146384604F0F3FA88B9E0B20138E0
:1011F000A842D1D900EB40000AEB401000F53C7149
:1012000030466022FFF73AF89AF8B146C4E700BFCB
:1012100030465146002300F02DF9306808F5407142
:101220000290706803910190D8F8000304F07EF8F2
:101230004CF6CD44C3F6CC743768214604F088FCE4
:10124000394604F041FAD8F800133060084604F03B
:1012500061F9D6E90075214604F07AFC294604F0CC
:1012600033FA9AF8501F049600297060CDF8148064
:1012700078D0D8F81083DDF800A08146002407E07C
:10128000069890F8501F01348C420AF1100A61D27E
:101290009AF80D000028F6D0DAE90015384604F077
:1012A00061FE06464846294604F05CFE014604F00D
:1012B0004FFC05463046314604F04AFC294604F00E
:1012C00003FA04F0EBF9DAF808100546404604F09A
:1012D000FBF90146284604F082FA0028D0D040F2FB
:1012E000C003C2F20003186844F66D61C4F2C6116F
:1012F00043F2390200FB01204EF28B6120F00040E6
:10130000CBF20951A0FB0112DDF810900199029E69
:10131000C9F80410D109B52201FB1201186001F1CE
:101320005A00C9F8006004F07FFB40F6DB71C4F29C
:10133000490104F00DFC0021C4F2343104F062FADA
:10134000039C024621680846114604F0BDF920605E
:1013500004E000BFDDF81090D9F80060DDF818A0B7
:10136000002403E00024DDF810903E46C4F2163459
:101370003046214604F033FA10B11E2026460CE018
:1013800044F200013046C4F2834104F021FA98BBD4
:1013900044F20006D220C4F2834640F2C007C2F2F3
:1013A0000007396844F66D62C4F2C61243F239038D
:1013B00001FB023145F2BF6221F00041C0F6CF626D
:1013C000A1FB0223CA1A03EB52029209792302FB02
:1013D0001312C9F800601044396004F025FB40F690
:1013E000DB71C4F2490104F0B3FB0021C4F23431D3
:1013F00004F008FA039908600599B1F8160328B1BA
:101400000A4601F21631013808801146B1F80A0384
:1014100028B1013801F20A310204088020D1DAE94A
:101420000015304604F09EFDD9F8041020F0004667
:101430000846294604F096FD002107463046C4F2CE
:10144000FA3104F0BEF958B9002127F00040C4F287
:10145000C83104F0B6F918B950464946FFF7BEFB4B
:1014600048F20009C4F23B599CE600BF07B0BDE852
:10147000F08F00002DE9F0470446066890F832002E
:10148000676802288A4647D1DAE90098304649461B
:1014900004F068FD002120F00040C4F2FA3104F0AD
:1014A00090F905463846414604F05CFD002D40F0B9
:1014B0008D80002120F00040C4F2C83104F081F991
:1014C000002840F08380DAF808000021C4F23421BB
:1014D00004F098F90021C4F2482104F039FB494690
:1014E00004F0F2F800210546CCF24821404604F011
:1014F000EBF8394604F036FD07462846314604F03D
:1015000031FD0146384603F0BFFD78212061A186F8
:10151000A063BDE8F08700BF94F85C0094F85D100C
:1015200088420BD320465146FFF792F894F85D00AD
:10153000002849D094F85C00D4E9006704EBC001AE
:10154000D1E90F05314604F00DFD0646284639461F
:1015500004F008FD014604F0FBFA0546304631462A
:1015600004F0F6FA294604F0AFF804F097F80021E9
:10157000C4F2963104F025F968B994F85C0094F847
:101580005D100130C2B28A4284F85C0003D3204669
:101590005146FFF75DF894F85C0094F85D108842BE
:1015A00028BFBDE8F08704EBC001D1E90F05D4E9FD
:1015B000001604F0D7FC07462846314604F0D2FC5A
:1015C000394603F061FD2061BDE8F087A08E28B1A7
:1015D000A16B0138A0862161BDE8F087208E01381B
:1015E0000104208602D0E56A54E000BF40F2C00149
:1015F000C2F20001086844F66D6343F23902C4F296
:10160000C61300FB032045F2BF6620F00047C0F67A
:10161000CF66A7FB06657F1B05EB5707BF09792639
:1016200007FB160700FB0320B43720F00040278695
:10163000086004F011FA4FF0405104F089FA4CF6BA
:10164000CD41C3F6CC5104F083FA4CF6CD41CBF634
:101650004C5104F039F8E16A02460846114604F09C
:1016600033F840F69221C3F60671054604F0A2F85D
:1016700040F69226CBF6067600281CBF40F692254F
:10168000C3F606752846314604F094F8002808BFD2
:101690003546E56240F6DB71C3F6C971284604F0B1
:1016A00013F82061BDE8F0872DE9F047D0E9008A02
:1016B000D1E9009504464046494604F053FC0746EC
:1016C0005046294604F04EFC94F82E10012921D1F1
:1016D0000021064627F00040C4F2C83104F071F83A
:1016E000C0B9002126F00040C4F2963104F069F838
:1016F00080B92846514604F035FC05464846414627
:1017000004F030FC0146284603F0BEFC2061BDE831
:10171000F08700BFA08D01380104A08502D0A06A27
:1017200036E000BF40F2C001C2F20001086844F692
:101730006D6343F23902C4F2C61300FB032048F282
:10174000691620F00047C6F61606A7FB06657F1B44
:1017500005EB5707BF095B2607FB160700FB0320B5
:101760005A3720F00040A785086004F075F94FF063
:10177000405104F0EDF940F69221C3F6867104F071
:10178000E7F940F69221CBF6067103F09DFFA062C7
:1017900040F6DB71C3F6C97103F096FF2061BDE826
:1017A000F087000040F2C404C2F20004EFF310809E
:1017B00072B600BF204600F00BF8FBE710B50446F8
:1017C00001F0B4FC2046BDE8104001F09DBE0000D1
:1017D00010B50446D0F8540F002808BF10BDFEF71E
:1017E00026FD0020C4F8540F10BD00002DE9F0477D
:1017F00004460020C4F2164048F20005C4F2224517
:101800004FF0000A84E8210400200021C4F2C8102F
:10181000C4F240014FF06412C4E906A09420C4E968
:101820000312A4F814A004F1200704F2B46804F52C
:101830004369FEF7CDFC0646384640F29261FEF75A
:1018400071FD404640F27951FEF76CFD484640F28A
:101850002131FEF767FDC4F8546F1EB1304603F026
:10186000F9F865680021CCF24841284603F02CFFC6
:101870000021C4F2483103F027FF0021C4F8580FBB
:10188000CCF2C841284603F01FFFC4F85C0F0120CA
:1018900084F8600FC4F864AFBDE8F08710B590F825
:1018A000503F00F54362044601F01CFE2046FFF75E
:1018B0001BFA204602F016F8D4F8540F10B1214656
:1018C00003F0CEF82046FFF779FF60680021CCF2E4
:1018D000484103F0F9FE0021C4F2483103F0F4FE60
:1018E000B4F91010C4F8580F0029DCBF002084F8A8
:1018F000600F10BD014690F82100022816D108683B
:10190000D1E90FC3026822F00E020260026822F0E1
:1019100001020260012000FA03F2CCF8042081F8F1
:1019200021000020002281F82020704704208863D5
:101930000120002281F820207047000080B590F837
:101940002110022924D10268116821F00E011160D2
:101950002F211368C4F202018A4240F20401C4F24A
:10196000020123F00103136016DD3023C4F20203E9
:101970009A421DD04423C4F202039A421CD0582339
:10198000C4F202039A421DD14FF4803322E000BF1B
:1019900004218163012080BD0823C4F202039A421E
:1019A0000ED01C23C4F202039A420BD1102311E083
:1019B0004FF480730EE000BF4FF480530AE000BF85
:1019C000012307E001F1680C4FF08073624508BF06
:1019D0004FF480130B60012180F82110426B00212D
:1019E00080F820100AB190470021084680BD000011
:1019F00010B5D0E90FCE0168DCF800300A6823FA90
:101A00000EF35C072AD512F0040427D00A68920668
:101A100003D40A6822F004020A602F22C4F20202F0
:101A2000914240F20402C4F202025BDD3023C4F2B0
:101A30000203994272D04423C4F20203994273D044
:101A40005823C4F20203994240F07A804FF4802375
:101A50001360C16A002940F098806FE09C0727D589
:101A600012F0020424D00A68920606D40A6822F012
:101A70000A020A60012280F821202F22C4F2020209
:101A8000914240F20402C4F202023BDD3023C4F270
:101A90000203994260D04423C4F2020399425FD00A
:101AA0005823C4F20203994260D14FF4003365E039
:101AB0001B0743D512F0080208BF10BD0A6822F0C8
:101AC0000E020A60012101FA0EF2CCF804208163B3
:101AD00080F82110016B0022002980F8202054D1C9
:101AE0002CE000BF0823C4F20203994222D01C2339
:101AF000C4F20203994223D140231360C16A002932
:101B000043D11BE00823C4F2020399422CD01C23CA
:101B1000C4F20203994229D120232FE04FF48063BD
:101B20001360C16A89BB09E04FF480431360C16A46
:101B300059BB03E004231360C16A31BB10BD00BF71
:101B400002F168044FF08063A14208BF4FF48003A4
:101B50001360C16AC9B9F1E74FF400730EE000BF2A
:101B60004FF400530AE000BF022307E002F16804CB
:101B70004FF00073A14208BF4FF400131360816A55
:101B80000022002980F82020D8D0BDE81040084766
:101B9000014600284FF0010008BF70472DE9F043CF
:101BA000D1F800C04FF6F873CBF6FD734CF6CD427A
:101BB0006344CCF6CC42A3FB02236FF0030707EA91
:101BC00093030027C4F2020701F10C09C1E90F7366
:101BD0000223D1E9012E99E87002D1F81C8081F826
:101BE0002130DCF8003043F6F077BB431A4342EA79
:101BF0000E0222432A43324342EA090242EA080221
:101C0000CCF8002000228A6381F8210081F820208E
:101C10000020BDE8F0437047F0B590F820C0BCF15B
:101C2000010F32D04FF0010E80F820E090F821C073
:101C3000BCF1010F26D14FF0020C80F821C04FF00B
:101C4000000CC0F838C0D0E900C4C56AC66BDCF827
:101C50000070102C27F00107CCF80070006C0EFA11
:101C600000F070600846CCF8043004BF10460A4605
:101C7000CCF80800CCF80C20DCF8000045B140F0AE
:101C80000E000DE0002180F820100220F0BD00BF02
:101C900020F00400CCF80000DCF8000040F00A005E
:101CA000CCF80000DCF8000040F00100CCF80000A7
:101CB0000020F0BD7047000040F21441C4F2010161
:101CC0000A68024214BF08607047FFF7F3BF0000C4
:101CD0002DE9F04F82B00E68002E00F0038141F232
:101CE0000042C4F20102042340F2004E904208BFB9
:101CF00003234FF6FF7CC4F2010E0093002401235E
:101D0000C1F2100C4FF0000A4FF0000949E000BF8B
:101D1000012704F00C030F229A402BEA020207FA73
:101D200003F34FEA9A051A4346F82520D1F804B088
:101D300040F20C455FEACB22DEF8082054BF22EACD
:101D4000080242EA0802C4F20105CEF808202A6817
:101D50005FEA8B2354BF22EA080242EA08022A60A3
:101D60005FEA8B33DEF8042054BF22EA080242EA1D
:101D700008025FEACB33CEF80420DEF800204FF0F3
:101D8000010354BF22EA080242EA0802CEF800200A
:101D90000E680AF1010A36FA0AF204F1040400F0AE
:101DA000A18003FA0AF816EA080FF1D04E686645DA
:101DB00012DC122E56D8DFE806F0350B4549555592
:101DC00055555555555555555555554D510000BF0F
:101DD000D1F80C9046E000BF4FF6FF72C1F221022D
:101DE00096420FDC0022C1F2110296421AD0002264
:101DF000C1F21202964215D00022C1F2210296428F
:101E000010D02FE00022C1F2220296420AD0002216
:101E1000C1F23102964205D00022C1F2320296424E
:101E200020D100BF8A684AB1012A14BFC0F81480CB
:101E3000C0F810804FF0080914E000BF4FF004090B
:101E400010E000BFCA6802F108090BE04FF000097A
:101E500008E000BFCA6802F1040903E0CA6802F1A1
:101E60000C0900BF22460646BAF1080F24BF203AEB
:101E7000043637680F25954027EA050509FA02F26E
:101E80002A433260CA79D2067FF582AF41F2180345
:101E9000C4F202031A68AEF57E7642F001021A60BF
:101EA0001A6802F001020192019A2AF0030256F820
:101EB00002B040F60002C4F20102904210D040F697
:101EC0000042C4F2010290423FF422AF41F200020C
:101ED000C4F20102009F904208BF022719E700BF29
:101EE000002716E702B0BDE8F08F000080680840C8
:101EF00018BF012070470000002A08BF09040161D3
:101F00007047000041F2BC10C2F200000068704748
:101F100040F2000041F2BC11C2F20000C2F2000126
:101F200000780A68104408607047000080B542F2EB
:101F30000000C4F20200016841F0100101600320BA
:101F400000F08EF8002000F005F800F027F80020DF
:101F500080BD000070B540F20006C2F2000640F2FB
:101F600008013278C2F200014FF47A730968B3FBBA
:101F7000F2F20446B1FBF2F1084600F063FB0F2CCD
:101F80004FF0010508D838B94FF0FF302146002244
:101F9000002500F039F87460284670BD82B041F227
:101FA0001800C4F202000168042241F0010101603E
:101FB000016801F0010101910199416841F08051EE
:101FC0004160406800F08050009000980420C4F206
:101FD0000100016862F31A61016002B070470000FD
:101FE000002848BF7047C1B200F01F00012202FA6A
:101FF00000F04EF20012CEF2000242EAD10121F0CE
:10200000030108607047000010B54EF60C5CCEF27C
:10201000000CDCF80030C3F3022E8EF00704042C11
:1020200028BF0424BEF103034FF0FF3E0EFA04F470
:1020300038BF0023A14399400EFA03F39A4311439A
:1020400000F00F0200F160430901043A03F5644314
:102050006244002848BF02F10C03197010BD000053
:102060004EF60C51CEF200010A684FF6FF031A40FB
:1020700060F30A2242F0806040F0FD700860704713
:102080002DE9F04381B0002800F0858042F200087D
:10209000C4F202080446D8F800000D4600F007001C
:1020A00088420CD2D8F8000020F007002843C8F876
:1020B0000000D8F8000000F00700A8426BD12068AB
:1020C00041F204098107C4F2020917D5410705D579
:1020D000D9F8001041F4E061C9F80010010705D5F6
:1020E000D9F8001041F46051C9F80010D9F8001077
:1020F000A26821F0F0011143C9F80010C00741D1D6
:10210000D8F8000000F00700A8420CD9D8F8000069
:1021100020F007002843C8F80000D8F8000000F0BD
:102120000700A84237D12068410707D5D9F8001029
:10213000E26821F4E0611143C9F80010000708D5F6
:10214000D9F80000216920F4605040EAC100C9F8C4
:102150000000D9F8002002F00C00082841F200200D
:10216000C0F27A0050D146F26A13C2F38341C0F63E
:102170000003595CD2033BD440F60010C0F23D008E
:10218000484341E0606802280AD001282AD159F862
:10219000041C890308D4012001B0BDE8F08300BF0E
:1021A00059F8041C8901F6D5D9F8001021F0030173
:1021B0000843C9F80000FFF7A5FE064641F288373C
:1021C000D9F80000616800F00C00B0EB810F97D0E7
:1021D000FFF798FE801BB842F2D9032001B0BDE89A
:1021E000F08300BF59F8041C8907D4D5DCE700BF91
:1021F000D9F8002046F26813C2F34042C0F600034B
:102200009A5C4843B0FBF2F0D9F8001046F2501245
:10221000C1F30311C0F60002515C40F2080220FA3B
:1022200001F140F20400C2F200000068C2F20002B4
:102230001160FFF78FFE002001B0BDE8F0830000C1
:1022400040F2080041F20401C2F20000C4F20201AF
:102250000068096846F26012C1F30221C0F600026C
:10226000515CC8407047000040F2080041F2040190
:10227000C2F20000C4F202010068096846F260126E
:10228000C1F3C221C0F60002515CC8407047000093
:102290002DE9F04182B0002868D00446007841F270
:1022A0000006C007C4F2020625D0706800F00C00DA
:1022B00004281BD0706800F00C00082802D1706858
:1022C000C00313D46068002800F06881B0F5A02F27
:1022D00000F07C81B0F5803F00F07C81306820F414
:1022E00080303060306820F4802076E130688003F0
:1022F00001D56068D0B32078800718D5706810F0D9
:102300000C0F07D0706800F00C0008286ED17068C0
:10231000C0036BD43068800702D52069012825D11D
:102320003068616920F0F80040EAC1003060207830
:1023300000071FD42078400732D4E56995B1706852
:1023400000F00C00082840F08F80012D0ED070683E
:10235000216A00F480328A4208D1616A00F4701068
:10236000884203D1002002B0BDE8F081012002B014
:10237000BDE8F081A069002862D00020C4F24220AC
:102380000121C0F88014FFF7BDFD0546706A800783
:1023900000F18C80FFF7B6FD401B0228F6D92AE138
:1023A000F06910F0805808D1F06940F08050F06179
:1023B000F06900F080500090009847F20007C4F2E6
:1023C00000073868C00529D4386840F48070386048
:1023D000FFF798FD054600BF3868C0051ED4FFF71B
:1023E00091FD401B6428F7D905E100BF2069002852
:1023F00040F20000C4F2422000F08280012101601E
:10240000FFF780FD054600BF306880073FF588AFC5
:10241000FFF778FD401B0228F6D9ECE0E0680028C1
:1024200000F08080052800F09780012800F0988057
:10243000306A20F001003062306A20F0040092E03F
:102440000020C4F242200021C0F88014FFF75AFD9A
:10245000054600BF706A80077FF56CAFFFF752FD3D
:10246000401B0228F6D9C6E00027C4F2422700200C
:102470003866FFF747FD022D05460BD13068800115
:1024800040F1BE80FFF73EFD401B02284FF00300E5
:10249000F4D968E7306880017FF564AFFFF732FD5B
:1024A000401B02284FF00300F4D95CE740F208001B
:1024B000C2F20000006844F6D351C1F26201A0FBF1
:1024C0000101480A019000BF00BF0198411E002889
:1024D00001913FF42FAF00BF0198411E00280191E8
:1024E0003FF428AF00BF0198411E002801913FF43E
:1024F00021AF00BF0198411E00280191E4D119E7E6
:1025000000210160FFF7FEFC054600BF3068800730
:102510007FF50DAFFFF7F6FC401B02284FF00300DC
:10252000F4D920E7306A20F001003062306A20F0F0
:1025300004003062FFF7E6FC054641F2883700BF31
:10254000306A800720D5FFF7DDFC401BB8424FF012
:102550000300F5D907E700BF306A40F0040030629D
:10256000306A40F001003062FFF7CCFC054641F2D2
:10257000883700BF306A800706D4FFF7C3FC401BD2
:10258000B842F7D937E000BFB8F1000F7FF4D5AEFD
:10259000F06920F08050F061CFE600BF306820F491
:1025A00080303060306820F480203060FFF7AAFC73
:1025B000054600BF306880037FF59DAEFFF7A2FCA3
:1025C000401B64284FF00300F4D9CCE6306840F497
:1025D00080203060306840F480303060FFF792FC3B
:1025E000054600BF306880033FF585AEFFF78AFCE3
:1025F000401B6428F6D9032002B0BDE8F08100BF7B
:10260000206AB0F5803F05D17168A26821F40031DD
:10261000114371607168626A21F4741111430843B7
:10262000706001203866FFF76DFC04463068800159
:102630003FF598AEFFF766FC001B02284FF0030041
:10264000F4D990E6411E0020B0EB116F1CBF0120B1
:1026500070474EF21002CEF2000251604EF6235146
:10266000CEF20001F0230B700721906011607047DB
:1026700070470000006844F20041C4F20001884243
:1026800018BF704740F2700041F2B81CC2F200005F
:1026900041F2B801C2F2000C00230830C2F200017E
:1026A0004FF480728CF8003000F08EBBB0B582B071
:1026B000044600680168C368426901F02F05202DB7
:1026C00003F0200506D12DB1204602B0BDE8B04090
:1026D00001F0B8BE5FEA017C1EBF02F0010E03F4F8
:1026E000907212EB0E0253D1226B012A05D111F028
:1026F000100218BF13F0100236D10A0622D513F0CB
:1027000080021FD094F8411021293FD1A168B1F572
:10271000805F03D12169002900F07082216A4A1C80
:10272000226209784160E18C01390A04E1842DD1EB
:10273000C16821F08001C160C16841F04001C16001
:1027400002B0B0BD490621D513F040011ED0C168CA
:1027500021F04001C1602021204684F8411002B0E0
:10276000BDE8B04000F042BC002101910168019138
:102770004168019101994069400613D4A08DE18D13
:10278000E28D002A18BF884240F0BA8102B0B0BD85
:10279000CA0718BF13F4807240F0B6804A0700F1F0
:1027A000B980BEE0E06B016849688AB2002AEDD0CA
:1027B000A38D9A42EAD2E1858069202800F09C80AE
:1027C000206850E8030F216820F4807041E803027C
:1027D000DAB1206850E8030F216820F4807041E8E6
:1027E000030292B1206850E8030F216820F4807042
:1027F00041E803024AB1206850E8030F216820F441
:10280000807041E80302002ADAD1206850E8050F01
:10281000216820F0010041E80502DAB1206850E8A3
:10282000050F216820F0010041E8050292B12068FF
:1028300050E8050F216820F0010041E805024AB187
:10284000206850E8050F216820F0010041E80502EA
:10285000002ADAD1206850E8050F216820F04000F6
:1028600041E80502DAB1206850E8050F216820F040
:10287000400041E8050292B1206850E8050F216848
:1028800020F0400041E805024AB1206850E8050FF9
:10289000216820F0400041E80502002ADAD120201A
:1028A00084F8420000202063206850E8030F21686C
:1028B00020F0100041E80302DAB1206850E8030F6D
:1028C000216820F0100041E8030292B1206850E82E
:1028D000030F216820F0100041E803024AB120688C
:1028E00050E8030F216820F0100041E80302002A9D
:1028F000DAD1E06BFEF7FEFF02206063A08DE18D70
:10290000401A81B2204674E1626C42F001026264B6
:102910004A0706D5BEF1000F03D0626C42F00202F6
:1029200062648A0706D5BEF1000F03D0626C42F0E4
:1029300004026264BCF1000F09D545EA0E02B2FA46
:1029400082F2520903D1626C42F008026264626C46
:10295000002A3FF41BAF11F0200118BF002D03D057
:10296000204601F06FFD20684069616C00F0400076
:1029700001F00801401800F0B58000BF206850E861
:10298000030F216820F4907041E80302BAB3206875
:1029900050E8030F216820F4907041E8030272B3FD
:1029A000206850E8030F216820F4907041E803028A
:1029B0002AB3206850E8030F216820F4907041E8A2
:1029C0000302002ADAD11AE0206850E8050F2168D6
:1029D00020F0010041E80502DAB1206850E8050F57
:1029E000216820F0010041E8050292B1206850E81A
:1029F000050F216820F0010041E805024AB1206876
:102A000050E8050F216820F0010041E80502002A86
:102A1000DAD1206B012824D1206850E8030F216807
:102A200020F0100041E80302DAB1206850E8030FFB
:102A3000216820F0100041E8030292B1206850E8BC
:102A4000030F216820F0100041E803024AB120681A
:102A500050E8030F216820F0100041E80302002A2B
:102A6000DAD1202084F842000020206320684069E9
:102A700040063FD5206850E8050F216820F040004F
:102A800041E80502DAB1206850E8050F216820F01E
:102A9000400041E8050292B1206850E8050F216826
:102AA00020F0400041E805024AB1206850E8050FD7
:102AB000216820F0400041E80502002ADAD1E06BED
:102AC000C0B144F28D01C0F600014163FEF736FF4C
:102AD00000283FF45BAEE06B416B02B0BDE8B04054
:102AE000084700BF2046FFF7C5FD0020606402B024
:102AF000B0BD00BF204602B0BDE8B040FFF7BABD90
:102B0000401A216851E8031F226821F4907142E8BD
:102B10000313DBB1216851E8031F226821F490718F
:102B200042E8031393B1216851E8031F226821F49E
:102B3000907142E803134BB1216851E8031F2268EA
:102B400021F4907142E80313002BDAD1216851E897
:102B5000051F226821F0010142E80513DBB121685D
:102B600051E8051F226821F0010142E8051393B1E5
:102B7000216851E8051F226821F0010142E8051390
:102B80004BB1216851E8051F226821F0010142E89C
:102B90000513002BDAD1202184F842100021216393
:102BA000216851E8031F226821F0100142E8031355
:102BB000DBB1216851E8031F226821F0100142E8CF
:102BC000031393B1216851E8031F226821F010011B
:102BD00042E803134BB1216851E8031F226821F03A
:102BE000100142E80313002BDAD1022281B2204601
:102BF000626302B0BDE8B040FFF73ABD216A31F828
:102C0000022B6FF35F22426021628CE5002804BF33
:102C10000120704710B5044690F8410028B9002003
:102C200084F84000204600F063F8242084F8410036
:102C30002068D4E90212C36823F40053C360036917
:102C400023F440531A430261D4E904231143C268B8
:102C5000194341F20C639A431143C1604169A2696F
:102C600021F44071114343F60002C4F20102904284
:102C7000416103D0FFF7E4FA02E000BFFFF7F4FA86
:102C80006268192148439100B0FBF1F048F21F51EE
:102C9000C5F2EB11A0FB01235A094FF69C73C0F655
:102CA000FF7302FB0300322303EB0010A0FB0101C2
:102CB000F02303EA5113206803EB0212C1F343111E
:102CC00011448160016921F490410161416921F061
:102CD0002A014161C16841F40051C16000202021F6
:102CE000606484F8411084F84210606310BD0000F5
:102CF0002DE9F04186B0044644F200402168C4F258
:102D0000000000268142049602D006B0BDE8F081A2
:102D100041F21801C4F202014A6840F26C0842F420
:102D200000324A604A6800F5444002F400320192E1
:102D3000019A0A68C4F2020842F004020A600968B3
:102D400001F00401019101990C21029102210391EA
:102D5000059102A9FEF7BCFF41F22C05C2F2000565
:102D600080272846C5E90086C5E90267C5E90466EB
:102D7000C5E90666FEF70CFF002818BFFEF712FD36
:102D8000E5636C6241F2700508F11400C2F20005BF
:102D90001021002285E887002846C5E90422C5E9FC
:102DA0000622FEF7F5FE002818BFFEF7FBFC2620E2
:102DB00000210022A5636C62FFF726F92620FFF7A9
:102DC0000FF906B0BDE8F08170B582B0044690F806
:102DD000420020280AD113460A4600294FF001007C
:102DE00018BF002B06D102B070BD00BF022002B098
:102DF00070BD00BF002522202563A262A385656403
:102E000084F842002168E06B44F2152C44F2753ED0
:102E100044F29906C0F6000CC0F6000EC0F600069B
:102E20000431C0E90ACEC0E90C65FEF7F5FE019554
:102E3000206801680191406801900198206928B3D9
:102E4000206850E8030F216840F4807041E80302D5
:102E5000E2B1206850E8030F216840F4807041E837
:102E600003029AB1206850E8030F216840F4807093
:102E700041E8030252B1206850E8030F216840F492
:102E8000807041E80302002ADAD100BF206850E8D0
:102E9000050F216840F0010041E80502E2B1206819
:102EA00050E8050F216840F0010041E805029AB1A1
:102EB000206850E8050F216840F0010041E8050254
:102EC00052B1206850E8050F216840F0010041E848
:102ED0000502002ADAD100BF206850E8050F2168FA
:102EE00040F0400041E80502DAB1206850E8050FE3
:102EF000216840F0400041E8050292B1206850E8A6
:102F0000050F216840F0400041E805024AB1206801
:102F100050E8050F216840F0400041E80502002A12
:102F2000DAD1002002B070BD704700007047000089
:102F300070B5044690F8410020281CBF022070BDE7
:102F400000294FF001004DD0002A134608BF70BD84
:102F50004FF0000C21202162A384E384C4F844C014
:102F600084F841002268A06B44F28D3E44F23D4556
:102F700044F29906C0F6000EC0F60005C0F6000641
:102F80000432C0E90AE5C0E90C6CFEF745FE206892
:102F90006FF04001016000BF206850E8050F216814
:102FA00040F0800041E80502F2B1206850E8050FCA
:102FB000216840F0800041E80502AAB1206850E88D
:102FC000050F216840F0800041E8050262B12068E9
:102FD00050E8050F216840F0800041E80502002A12
:102FE000DAD1002070BD00BF002070BD006844F23F
:102FF0000041C4F20001884218BF704741F2B81086
:10300000C2F200000021017070470000704700000C
:10301000FEE700007047000049B1022906D00129EF
:1030200012BF002001300078704700BF02300078E6
:103030007047000002290BD0012911D0C1B90178D5
:10304000B1B103300078B0FA80F04009704700BF9A
:10305000817869B105300078B0FA80F04009704796
:10306000417829B104300078B0FA80F04009704707
:1030700000207047B0B504460078B4F8011040F65F
:103080000005C4F20105E070A18028460221FEF788
:103090002DFF207028461021FEF728FF607005F5EF
:1030A00080600121FEF722FFA070B0BDFEE70000A6
:1030B000FEE700002DE9F04381B090F8505F7DB34A
:1030C00004468846002600F5436908E0013D013EBC
:1030D00084F8505F0136F0B2E9B2884220D2F7B2EC
:1030E00004EB0710D0F8340C414602F071FB0028C5
:1030F000F0D1E8B20138B842E8D9030159F80330F9
:103100003A0109EB001049F80230D0E90123C06808
:1031100009EB0711C1E90123C86094F8505FD5E7B6
:1031200001B0BDE8F0830000704700002DE9F047D2
:10313000044690F8B006002846D0002606E000BFFE
:10314000013694F8B006F1B281423DD25FFA86F8BA
:1031500008EB480004EB001797F847000028EFD071
:1031600097F846000028EBD007F12002D4E90009C7
:10317000D2E9001A02F0F6FE05464846514602F032
:10318000F1FE014602F0E4FC81462846294602F0A1
:10319000DFFC494602F098FA02F080FAE269396CE5
:1031A0000546104602F090FA0146284602F009FB57
:1031B0000028C5D1208A41461E3820822046FDF7CE
:1031C000D7FC013EBCE700BF94F8B106002808BF59
:1031D000BDE8F087002605E0013694F8B106F1B2AB
:1031E00081423FD25FFA86F808EB480004EB4017B3
:1031F00097F819030028EFD097F818030028EBD0B0
:1032000007F53C72D4E90009D2E9001A02F0AAFEDF
:1032100005464846514602F0A5FE014602F098FCDC
:1032200081462846294602F093FC494602F04CFAB2
:1032300002F034FAE269D7F810130546104602F09E
:1032400043FA0146284602F0BCFA0028C4D1208A7D
:103250004146A0F57A7020822046FDF76FFC013EC2
:10326000BAE700BFBDE8F0872DE9F04F83B0934681
:10327000D0E90074D0E9026280468A4620461146B1
:1032800002F070FE0021C8F80400C4F23421304678
:1032900002F0B8FA0021C4F2400102F059FC0146E4
:1032A000384602F011FA48F20001C4F2894106469C
:1032B00002F080FA0025C4F2C82500281CBF48F29D
:1032C0000006C4F289463046294602F073FA002807
:1032D00008BF2E46BBF1000FC8F800604ED0CDE904
:1032E00001740AF108044FF0010900260BE000BF49
:1032F00001365E454FF0000938BF4FF00109B34574
:1033000004F1100427D060790028F1D0D8E9000A30
:1033100054E9021502F026FE07465046294602F0FF
:1033200021FE014602F014FC05463846394602F0FB
:103330000FFC294602F0C8F902F0B0F9D8F81C20B9
:1033400021680546104602F0BFF90146284602F002
:1033500046FA0028CCD05FEAC970DDE901200DD023
:10336000B8F81010C8F800200239A8F81010002191
:10337000C4F2701102F0A8F9C8F8040003B0BDE867
:10338000F08F0000F0B581B00E46044608460021DB
:10339000FFF742FE0025CCF2342578B1A768002162
:1033A000CCF23421384602F013FA38B90021CBF6BA
:1033B0008071384602F088F906462EE03046012139
:1033C000FFF72AFEA66868B10021C4F23421304616
:1033D00002F0F7F930B930464FF07E5102F074F93F
:1033E00006461AE026F000404FF07F5102F0F7F950
:1033F00010B1002611E000BF3046002102F0E8F9CC
:10340000002819BF30464FF07F510021CBF6C07124
:1034100008BF304602F058F906460021C4F23421B4
:10342000304602F0C7F900281CBF0026C4F234263B
:103430003046294602F0BEF9002808BF2E46A66095
:1034400001B0F0BDF0B581B00446808A10B101B082
:10345000F0BD00BFA66800271E20C4F2A007A0820E
:103460003046394602F0A6F940B146F2AA10CBF632
:103470009C7094F82C1C3129E9D813E00021CCF27F
:10348000A001304602F09DF9002807BF4BF60C6002
:10349000CBF6F57040F6DB70CBF6C97094F82C1CB7
:1034A0003129D4D8C1EBC10204EB8202C2F8BC06B8
:1034B0004FF48770D4E90036A2F8C40640F2011038
:1034C0004FF08145A2F8CC06481CC2F8B436C2F8C9
:1034D000B866C2F8C056C2F8C87684F82C0C01B0A1
:1034E000F0BD000070B51D4616460446FFF74AFFC2
:1034F000204631462A46FFF7B7FEA08A00281CBFA7
:103500000138A08270BD00002DE9F04F85B090F821
:103510002C6C002E00F0BA81824600F54360002436
:1035200001900DE05046394600F0B4F99AF82C6C41
:10353000013C00BF0134E0B2F1B2884280F0A681C4
:10354000E1B2C1EBC1000AEB800797F8CD06002875
:10355000F0D097F8CC0607F2B46B0028049743D05C
:103560009AF8B006002800F0898007F5D9694FF075
:1035700000080027CDE9021405E000BF01378742AB
:1035800008F130085ED20AEB080494F847100029CD
:10359000F4D094F846100029F0D0216ADBE9000548
:1035A00002F0E0FC616A0646284602F0DBFC0146B8
:1035B00002F0CEFA05463046314602F0C9FA2946F5
:1035C00002F082F802F06AF8D9F80020216C054672
:1035D000104602F079F80146284602F000F998BB3F
:1035E0009AF8B006CAE700BFDBE90005DAE9001681
:1035F00002F0B8FC07462846314602F0B3FC01460B
:1036000002F0A6FA054638463946049F02F0A0FAB1
:10361000294602F059F802F041F8D7F8C826DAF83E
:103620001C100546104602F04FF80146284602F0ED
:10363000C8F8002840F08980BAF810001438AAF8B9
:1036400010007DE0039C18E094F83800013841B286
:10365000002984F838000ADCB4F84400DAF81810BD
:103660000844CAF81800F9B25046FDF781FA0299E9
:10367000504600F00FF9039C013C049F9AF82C6C13
:10368000E0B2B042BFF456AF9AF8B10600285CD061
:10369000039407F5D9680024002707E09AF8B106DB
:1036A0000137874204F1600480F09E800AEB040534
:1036B00095F819130029F3D095F818130029EFD0C5
:1036C000D5F8F012DBE9000902F04CFCD5F8F41251
:1036D0000646484602F046FC014602F039FA8146A9
:1036E0003046314602F034FA494601F0EDFF01F070
:1036F000D5FFD8F80020D5F810130646104601F083
:10370000E3FF0146304602F06AF80028C6D095F87B
:103710000803013841B285F8080300294FF014006E
:10372000A5F816030ADCB5F81403DAF818100844F3
:10373000CAF81800F9B25046FDF700FADDE9034770
:10374000E1B2504600F0A6F8013C9AF82C0CE1B228
:10375000814251D29AF8500F00284DD0DDF80490E4
:10376000CDE9021407F5D964002707E09AF8500F55
:103770000137874209F1100980F0808099F80D1017
:103780000029F5D0DBE90005D9E9001602F0EAFBD3
:1037900080462846314602F0E5FB014602F0D8F9A2
:1037A00005464046414602F0D3F9294601F08CFF18
:1037B00001F074FF2268D9F808100546104601F0A0
:1037C00083FF0146284602F00AF80028CED002996D
:1037D000504600F05FF8039C013C9AF82C6CE7B26D
:1037E000B742BFF4A7AE0DE0DDE903479AF82C0C11
:1037F000E1B28142AED300BF9AF82C6CE7B2B74277
:10380000BFF498AE0498B0F8C40600283FF48AAE1E
:10381000DBF800500021284601F0E1FF00287FF48A
:1038200081AE00212846C4F2964101F0C3FF002872
:103830007FF478AEDAF8585F0021DBF80480284680
:10384000CCF2483101F040FF0146404601F0C7FF8D
:1038500000287FF467AE00212846C4F2484101F0F9
:1038600033FF0021C4F2483101F02EFF01464046EB
:1038700001F0AEFF00283FF455AE5BE6039C9AF8DA
:103880002C6CE7B2B742BFF455AEBBE705B0BDE85C
:10389000F08F00002DE9F04390F82C2C531E8B4242
:1038A0001BDD00F2B462C3EBC30E02EB8E03C1EB6F
:1038B000C10CD3E90189D3E9036752F82E405D6951
:1038C00002EB8C0142F82C404D61C1E90367C1E96C
:1038D00001899A698A6190F82C2C511E80F82C1C61
:1038E000BDE8F0832DE9F041804690F82C0C0028CB
:1038F00008BFBDE8F08108F2B467002405E000BF0E
:103900000134844207F11C0720D2797E0029F7D0C8
:10391000B86801F00BFDD7E902613D6802F018F9C3
:10392000294601F0D1FE3860304601F0F3FDF96818
:103930007D6802F00DF9294601F0C6FE398A7860EB
:1039400098F82C0C01393982DAE700BFBDE8F08124
:1039500041F2B40341F2B801C2F20003C2F2000125
:103960004FF480721860FFF72FBA00002DE9F04F76
:1039700081B041F2B80640F2000B642704460025EE
:10398000C2F20006C4F2A01BC0F200174FF00108FB
:103990004FF0000906E000BF09F10109B9F1FF0F7E
:1039A00080F0388116F8090002380428F4D806EBB4
:1039B000090ADFE800F00DAB57037F002046FDF752
:1039C00007FF2046FDF712FF09F10109E4E700BFF8
:1039D000B9F1F40FE0D89AF801009AF802109AF8B9
:1039E00003209AF80430014411449AF80520194440
:1039F00011449AF806209AF8073011449AF80820E2
:103A000019449AF8093011441944BAF80A200231CD
:103A10009142C1D1012800F0C580002840F0F68015
:103A200094F8B0060E2800F2F18000EB4001DAF8BD
:103A30000220DAF8063004EB0111C1E9082340F254
:103A400001128A63962201304B638A87C1E910B75D
:103A50008D64A1F84C5081F84E8084F8B00609F1CD
:103A60000B0999E7B9F1F90F96D89AF801009AF87D
:103A700002109AF803209AF80430084410441844BD
:103A8000BAF805100430884210D1DAF80110204647
:103A9000FCF798FDDAF801102046FFF70BFBD4F88D
:103AA000540F18B1DAF8011000F072FD09F106099F
:103AB00072E700BFB9F1F50F3FF66EAF9AF801005B
:103AC0009AF802109AF803209AF804300844104437
:103AD0009AF8051018449AF8062008449AF8071036
:103AE00010449AF8082008441044BAF80910063027
:103AF000884208D1D4F8540F28B1DAF80110DAF866
:103B0000052000F027FD09F10A0945E7B9F1F00F9A
:103B10003FF642AF9AF801009AF802109AF8032093
:103B20009AF80430014411449AF8052019441144CC
:103B30009AF806209AF8073011449AF80820194498
:103B40009AF8093011449AF80A2019449AF80B306F
:103B500011449AF80C2019449AF80D301144194474
:103B6000BAF80E20033191427FF416AF94F8501F3B
:103B7000312914D8DAF8022004EB0113C3F8302CF1
:103B8000DAF80620C3F8342CDAF80A2083F83C0C63
:103B9000481CC3F8382C83F83D8C84F8500F09F189
:103BA0000F09F9E694F8B10609282FD800EB400177
:103BB000DAF80220DAF8063004EB4111C1E9BC233F
:103BC00040F20332C1F80823F022A1F80C230022AE
:103BD000C4F2F012C1F810234FF49672C1F8142306
:103BE0004FF48072A1F8182302220130C1F8043387
:103BF000C1F81C53A1F82053A1F82453C1F828534D
:103C0000A1F84C5381F8222384F8B10609F10B097D
:103C1000C2E600BF01B0BDE8F08F00002DE9F0471B
:103C2000FEB041F2B818C2F2000898F8001000295E
:103C300040F02282824641F2B400C2F20000D0F885
:103C40000090B9F1000F00F0178201AF07F11100E9
:103C500040F2E311FCF744FB01208DF804009AE8E0
:103C60000700DAF81830CDF80500BAF81000CDF8E2
:103C70000910CDF80D20ADF81100ADF813300AF1A0
:103C8000240100220023002091F823608EB191F8D6
:103C9000226076B100EB800651F8044C07EB460633
:103CA0000D68C6F813400C7D0130B274C6F8175089
:103CB000F4760D2B04D801330F2801F13001E3D342
:103CC0000F2880F003819AF8191391B19AF818130C
:103CD00079B100EB800107EB410101228A74DAE936
:103CE000BC230130C1F813209AF80823C1F817301B
:103CF000CA760E2800F2EA809AF8791391B19AF800
:103D0000781379B100EB800107EB410101228A743D
:103D1000DAE9D4230130C1F813209AF86823C1F8F6
:103D20001730CA760E2800F2D1809AF8D91391B1D3
:103D30009AF8D81379B100EB800107EB4101012219
:103D40008A74DAE9EC230130C1F813209AF8C82309
:103D5000C1F81730CA760E2800F2B8809AF83914E4
:103D6000A1B19AF8381489B100EB800107EB410149
:103D700001228A74DAF81024DAF81434C1F8132016
:103D80009AF828240130C1F81730CA760E2800F2BC
:103D90009D809AF89914A1B19AF8981489B100EB12
:103DA000800107EB410101228A74DAF87024DAF805
:103DB0007434C1F813209AF888240130C1F8173000
:103DC000CA760E2800F282809AF8F914A1B19AF806
:103DD000F81489B100EB800107EB410101228A74DC
:103DE000DAF8D024DAF8D434C1F813209AF8E824A9
:103DF0000130C1F81730CA760E2867D89AF85915DD
:103E0000A1B19AF8581589B100EB800107EB410187
:103E100001228A74DAF83025DAF83435C1F8132033
:103E20009AF848250130C1F81730CA760E284DD8C7
:103E30009AF8B915A1B19AF8B81589B100EB8001CB
:103E400007EB410101228A74DAF89025DAF89435FB
:103E5000C1F813209AF8A8250130C1F81730CA76A6
:103E60000E2833D89AF81916A1B19AF8181689B104
:103E700000EB800107EB410101228A74DAF8F0259A
:103E8000DAF8F435C1F813209AF808260130C1F8A1
:103E90001730CA760E2819D89AF87916B9B19AF857
:103EA0007816A1B100EB800107EB410101228A7471
:103EB000DAF85026DAF85436C1F813209AF8682652
:103EC000C1F81730CA76013001E000BF0F208DF82D
:103ED00015000AF2CD600021002200BF03787BB1FB
:103EE00002EBC20350F8196C3B4450F8155CC3F860
:103EF000A96010F8016C0132C3F8AD5083F8B160CD
:103F0000302904D801311E2A00F11C00E6D3DAF86A
:103F1000540F8DF8AC2078B190F89060002E8DF899
:103F2000BB6100F08580711E032906F0030107D2F2
:103F30000022002943D17BE000208DF8BB0177E00F
:103F400006F0FC0600F1580207F2DB13744200266B
:103F500052F8585C043E43F8235C52F8545CB44277
:103F600043F81F5C12F8485C03F81B5C52F8405C95
:103F700043F81A5C52F83C5C43F8165C12F8305C6B
:103F800003F8125C52F8285C43F8115C52F8245C88
:103F900043F80D5C12F8185C03F8095C52F8105CE9
:103FA00043F8085C52F80C5C43F8045C157802F1A5
:103FB00060021D7003F12403CAD17242C1B302EB47
:103FC000420300EBC30650F8333002EBC2053D4418
:103FD000C5F8B83173680129C5F8BC31337C85F860
:103FE000C03125D0531C03EB430600EBC60550F847
:103FF000366003EBC3033B44C3F8B8616E68022923
:10400000C3F8BC612E7C83F8C06111D0911C01EB18
:10401000410200EBC20350F8320001EBC101394408
:10402000C1F8B8015868C1F8BC01187C81F8C0011A
:10403000DAF8580F0021CDF8F2016FF0050000BF4B
:104040003A189379D679157A1944547A3144294427
:10405000937A2144D27A19440630B0F5F67F1144A0
:10406000EED10120ADF8F61188F8000001A948460C
:104070004FF4FA72FEF75CFF7EB0BDE8F0870000F7
:1040800070470000FDF744BF70470000406A002100
:10409000C185C184FEF7EEBA406A01684A6990F8AA
:1040A0004130212B2DD112F080022AD00021C18471
:1040B000016851E8031F026821F0C00142E80313C0
:1040C000DBB1016851E8031F026821F0C00142E83A
:1040D000031393B1016851E8031F026821F0C00186
:1040E00042E803134BB1016851E8031F026821F055
:1040F000C00142E80313002BDAD1202180F84110DF
:104100000168496990F84220222A40F07D8011F030
:10411000400179D00021C185016851E8031F026880
:1041200021F4907142E80313BBB3016851E8031F07
:10413000026821F4907142E8031373B3016851E8F7
:10414000031F026821F4907142E803132BB3016846
:1041500051E8031F026821F4907142E80313002B19
:10416000DAD11AE0016851E8051F026821F0010167
:1041700042E80513DBB1016851E8051F026821F030
:10418000010142E8051393B1016851E8051F026877
:1041900021F0010142E805134BB1016851E8051F08
:1041A000026821F0010142E80513002BDAD1016B0E
:1041B000012924D1016851E8031F026821F0100190
:1041C00042E80313DBB1016851E8031F026821F0E4
:1041D000100142E8031393B1016851E8031F02681C
:1041E00021F0100142E803134BB1016851E8031FAD
:1041F000026821F0100142E80313002BDAD12021DC
:1042000080F8421000210163416C41F010014164CB
:10421000FEF730BA0168406A0968890600F19F809C
:104220000021C185016851E8031F026821F48071F3
:1042300042E80313E3B1016851E8031F026821F467
:10424000807142E803139BB1016851E8031F0268C3
:1042500021F4807142E8031353B1016851E8031F50
:10426000026821F4807142E80313002BDAD100BF09
:10427000016851E8051F026821F0010142E80513B9
:10428000BBB3016851E8051F026821F0010142E853
:10429000051373B3016851E8051F026821F001019D
:1042A00042E805132BB3016851E8051F026821F0AD
:1042B000010142E80513002BDAD11AE0016851E848
:1042C000051F026821F0400142E80513DBB10168D7
:1042D00051E8051F026821F0400142E8051393B13F
:1042E000016851E8051F026821F0400142E805130A
:1042F0004BB1016851E8051F026821F0400142E816
:104300000513002BDAD1202180F84210016B01291E
:1043100025D100BF016851E8031F026821F0100198
:1043200042E80313DBB1016851E8031F026821F082
:10433000100142E8031393B1016851E8031F0268BA
:1043400021F0100142E803134BB1016851E8031F4B
:10435000026821F0100142E80313002BDAD100219A
:104360004163016B012918BFFEF7DEBD818DFEF7A9
:104370007FB90000406A01214163016B012918BF28
:10438000FEF7D4BD818D4908FEF772B90168406A15
:104390000968890648BFFEF729BE0021C18400BF15
:1043A000016851E8051F026821F0800142E8051309
:1043B00083B3016851E8051F026821F0800142E8DB
:1043C00005133BB3016851E8051F026821F0800125
:1043D00042E80513F3B1016851E8051F026821F0B6
:1043E000800142E80513002BDAD113E0016851E89F
:1043F000031F026841F0400142E80313002B08BF8D
:104400007047016851E8031F026841F0400142E82B
:10441000031393B1016851E8031F026841F04001A2
:1044200042E803134BB1016851E8031F026841F0F1
:10443000400142E80313002BD8D17047406AFEF7D1
:10444000E5BD000081B090F84210222921D1836897
:104450000246B3F5805F09D152F8281F52F8183C84
:10446000002B63D003685B680AE000BF52F8281F86
:1044700013B90369002BF5D003685B6803F07F0371
:104480000B70116801311160C18D01390A04C185B9
:1044900002D001B0704700BF0168CA6822F0200254
:1044A000CA60CA6822F48072CA604A6922F00102B6
:1044B0004A61202180F8421000214163026B012AE9
:1044C0003CD10163016851E8031F026821F010012B
:1044D00042E80313DBB1016851E8031F026821F0D1
:1044E000100142E8031393B1016851E8031F026809
:1044F00021F0100142E803134BB1016851E8031F9A
:10450000026821F0100142E80313002BDAD10168A0
:104510000A68D20606D5002200920A68009249680D
:1045200000910099818D01B0FEF7A2B8026852682F
:104530006FF35F2221F8022B8162A5E701B0FEF73D
:10454000F3BC000040F27800C2F20000FEF7AEB803
:10455000FEE7000010B590F890C00023BCF1050FF5
:1045600013D80CEB4C0E40F83E10002100EBCE04AB
:10457000C4F23421C4E90121E360237463826361DE
:104580000CF10101012380F89010184610BD0000C5
:104590002DE9F04381B090F890706FB38146884662
:1045A0000025002609E000BF013F013E89F8907018
:1045B0000136F5B2F8B285421ED205EB450009EB93
:1045C000C0046068414601F003F90028F0D1F8B258
:1045D0000138A842E8D900EB400009EBC00159F8C6
:1045E00030000F1DD1E904518CCF84E88D00C4E95F
:1045F000045199F89070D7E701B0BDE8F08300004E
:104600002DE9F04F87B0DDF840A00692BAF1000F17
:10461000029000F0298103F1080004900020059029
:10462000039113E006994046464601F0D1F8002870
:1046300008BF5FEACB7000F00F810198039913283F
:10464000059800F10200059080F0FF814868002184
:10465000CCF2964101F038F840F2C008C2F20008EE
:10466000D8F8001044F66D65C4F2C61543F2390758
:1046700001FB0574064624F0004001F0EDF94FF00F
:10468000405101F065FA0021CCF2FA3101F060FAF4
:104690000146304601F018F804FB0571064621F08A
:1046A0000040C8F8000001F0D7F94FF0405101F088
:1046B0004FFA0021C4F2164101F04AFA0021C4F277
:1046C000963101F001F8DDF81080814601270025C0
:1046D0000AE000BF013555454FF0000738BF0127FC
:1046E000AA4508F1100829D098F805000028F1D053
:1046F00058E90214484601F035FC8346304621460D
:1047000001F030FC014601F023FA044658465946B0
:1047100001F01EFA214600F0D7FF00F0BFFFD8F8E5
:104720000010044608460021C4F2482100F0CCFFE6
:104730000146204601F045F80028CBD106993046C5
:1047400001F046F8002808BF5FEAC77005D102985B
:1047500090F89070062FC0F05C810599039841F0A5
:104760000101406801910021CCF2964100F0ACFFBC
:1047700040F2C009C2F20009D9F8001044F66D6693
:10478000C4F2C61643F2390701FB0675044625F04C
:10479000004001F061F94FF0405101F0D9F90021DA
:1047A000CCF2FA3101F0D4F90146204600F08CFF3A
:1047B00005FB0671804621F00040C9F8000001F0B9
:1047C0004BF94FF0405101F0C3F90021C4F21641FA
:1047D00001F0BEF90021C4F2963100F075FF049E8D
:1047E00081464FF0010B00250CE000BF0135554517
:1047F0004FF0000B38BF4FF0010BAA4506F1100631
:104800003FF410AF70790028F0D056E90214484602
:1048100001F0A8FB07464046214601F0A3FB0146F4
:1048200001F096F904463846394601F091F92146DF
:1048300000F04AFF00F032FF3168044608460021CC
:10484000C4F2482100F040FF0146204600F0C7FFB7
:104850000028CBD0E6E600BF029890F89070062FB3
:10486000BFF4EBAED5E000BF40F2C000C2F20000E2
:1048700004684868002144F66D6ACCF29641C4F29F
:10488000C61A00F021FF40F2000881464FF0000BED
:1048900043F23905C4F2FA3806E000BFBBF10F0F4E
:1048A0000BF1050B80F0CC8004FB0A5424F000408F
:1048B00001F0D2F84FF0304101F04AF9414601F0E1
:1048C00047F90146484600F0FFFE04FB0A51064640
:1048D00021F00044069900F07BFF20B9029890F87F
:1048E0009070052F7ED904FB0A5424F0004001F09B
:1048F000B3F84FF0304101F02BF9414601F028F9AF
:104900000146484600F0E0FE04FB0A51064621F04D
:104910000044069900F05CFF20B9029890F890706E
:10492000062F5FD304FB0A5424F0004001F094F8F2
:104930004FF0304101F00CF9414601F009F9014610
:10494000484600F0C1FE04FB0A51064621F000442F
:10495000069900F03DFF20B9029890F89070062F5C
:1049600040D304FB0A5424F0004001F075F84FF0E6
:10497000304101F0EDF8414601F0EAF801464846C1
:1049800000F0A2FE04FB0A51064621F000440699FD
:1049900000F01EFF20B9029890F89070062F21D3E6
:1049A00004FB0A5424F0004001F056F84FF0304167
:1049B00001F0CEF8414601F0CBF80146484600F040
:1049C00083FE04FB0A51064621F00044069900F0DC
:1049D000FFFE00287FF462AF029890F89070062FD7
:1049E000BFF45CAF40F2C000C2F200000460204699
:1049F00001F032F84FF0405101F0AAF80021C4F262
:104A0000164101F0A5F80021C4F2963100F05CFED9
:104A10008146029B07EB470103EBC10043F831904D
:104A20000021C4F234210022C0E90161791CC26076
:104A300002744282426183F8901007B0BDE8F08FA3
:104A400040F2C000C2F200000460002007B0BDE8E0
:104A5000F08F000080B59121FBF764FC80BD000061
:104A60002DE9F04F8BB0044690F89000002800F03C
:104A7000E780894601F543604FF0000B0290CDE9D5
:104A8000031424E099F8507F079A029B2046514670
:104A90000097FFF7B5FD054690B1D5E90010C9F8BC
:104AA00000100021CCF2163100F00EFE0999C9F871
:104AB000040001200A9A0870B421118028746982C8
:104AC00094F890000BF1010B834580F0B9800BEB5B
:104AD0004B0004EBC00ADAF80C004FF0824100F002
:104AE000F3FD0021C4F2B43100F0DEFCDAF814105A
:104AF000CAF80C0008464CF6CD41C3F6CC5100F084
:104B0000E3FD40F6DB71C4F2C90100F0CDFC524672
:104B100032F8121FCAF8140031B1481E0104108087
:104B200004BF00208AF81000514611F8100F0A92B5
:104B300000280991C4D1D9E90006DAE9001701F08B
:104B400011FA05463046394601F00CFA014600F0EC
:104B5000FFFF06462846294600F0FAFF314600F0DE
:104B6000B3FD00F09BFDDAF8081005460846002169
:104B7000C4F2C81100F0A8FD0146284600F021FE4D
:104B800000289DD194F89080D9F85C0FB8F1000FFF
:104B900007903FF477AF00204FF000090890002005
:104BA000069005E009F10109C84504F118043FD059
:104BB000CB45F7D0207C0028F4D16768DAF80400F0
:104BC000394601F0CFF90021C4F29641064600F0C3
:104BD00006FE0028E6D100213046C4F2E14100F093
:104BE000F0FD0028DED10799384600F0F1FD0028DD
:104BF000D8D100213046CCF2964100F065FD089FE7
:104C000020F00045B7FA87F0069E40090590284637
:104C1000314600F0E4FD002818BF01200599084343
:104C200018BF2E46069618BF27460897BAE700BF5A
:104C3000089DDDE90394002D7FF42FAF22E700BF2C
:104C40000BB0BDE8F08F000090B0FDF76FF90024C5
:104C50000120CDE90B44CDE909440A9010200B90C6
:104C60004FF4601002250F9006A8CDE90744069581
:104C7000CDE90D54FDF70CFB50B140F2C404C2F273
:104C80000004EFF3108072B62046FCF7A1FDFBE7AD
:104C90000F20CDE901054FF48060CDE9040401A89F
:104CA00002210394FDF7ECF950B140F2C404C2F2C2
:104CB0000004EFF3108072B62046FCF789FDFBE795
:104CC0004FF0000841F2180ACDF82480C4F2020A1D
:104CD000DAF8000040F6004940F00400CAF800008D
:104CE000DAF80000C4F2010900F004000190019814
:104CF000DAF80000A9F5806640F00800CAF8000064
:104D0000DAF800004FF4707100F00800019001988B
:104D100030460022FDF7F0F8484608210122012420
:104D2000FDF7EAF8484660210022FDF7E5F8122079
:104D300040F2000B06AD0690C1F2310B022730465F
:104D40002946CDF81CB00897FCF7C2FFC02006A981
:104D500081E81101304629460997FCF7B9FF48461A
:104D60002946CDE9064B0897FCF7B2FF4FF4407097
:104D700006A991C1304629460997FCF7A9FF0820EA
:104D800006901120CDE90708484629460997FCF707
:104D90009FFF202006A991C1484629460997FCF7A4
:104DA00097FF402006A981E8110148462946099746
:104DB000FCF78EFF062000210022FDF725F90620D2
:104DC000FDF70EF9072000210022FDF71DF907204D
:104DD000FDF706F90A2000210022FDF715F90A2047
:104DE000FDF7FEF85AF8040C002140F001004AF8E3
:104DF000040C5AF8040C002200F0010006900698FA
:104E00001020FDF701F91020FDF7EAF8112000212C
:104E10000022FDF7F9F81120FDF7E2F840F27004E6
:104E2000C2F20004A9F54841204640F8081F4FF49B
:104E3000E1310C22C0E90118C0E90388C0E9052866
:104E4000C0F81C80FDF7E2FE50B140F2C404C2F28B
:104E50000004EFF3108072B62046FCF7B9FCFBE7C4
:104E6000FDF750F840F2C001C2F200010860FEF701
:104E7000D1F804F10800FEF76BFD40F2C405C2F260
:104E800000052846FCF7B2FCFDF73CF8074609E0B0
:104E90002846FEF7C3FED5F8640F37460130C5F843
:104EA000640F00BFFDF72EF80646C01B1028F9D38B
:104EB0002846FEF75BFD2046FEF7DCF8204602217F
:104EC000FEF7B8F810B12846FEF7BCFA95F8600F67
:104ED0000028DDD028462146FCF7E0FCD8E7410059
:104EE000080218BF04200A0E18BF40F001004FF05E
:104EF0007F4232EA010108BF40F00200012808BFEA
:104F000005207047012101F0D4B800F0DDBB00217D
:104F1000084600F077BC6FF05E01080701F0C9B8E1
:104F20002DE9F04D0D4614464FF07F41B1EB440F93
:104F30009EBF4FF0FF312960BDE8F08D4FF000407B
:104F400040EA0421C4F3C750783810F01F024A4BDE
:104F50004FEA601CC2F120067B44C4F3C750A0F1A5
:104F600078004FEA601003EB800053F82C3008BF44
:104F7000D0E901C612D0D0F804C093402CFA06F74D
:104F80003B4387680CFA02FC27FA06F8C06807FA68
:104F900002F2F0404CEA080C42EA0006A3FB0132A0
:104FA000ACFB01C0A6FB016101EB0C068E4234BFD5
:104FB0004FF0010C4FF0000CC1186144BCF1000F20
:104FC00002D0814202D903E0814201D2012000E0F7
:104FD0000020104400F120024FEA92188006CA0C0B
:104FE00040EA42304F03C5F8008000F01DFD8246C4
:104FF000384600F031FD6FF0120101F05AF8074613
:10500000304600F029FD6FF0250101F052F883468B
:105010003946504600F058FB594600F055FB00F564
:1050200000666FF30B065146304600F09BFF394691
:1050300000F098FF594600F003FF104900F088FD8A
:1050400007460F49304600F083FD394600F03CFB2F
:1050500007460C49304600F07BFD394600F034FB32
:1050600014F0004F08BFBDE8F08DC8F1805180F00A
:1050700000402960BDE8F08DD4110000DB0FC92F7E
:1050800022AAFD290000C92F2DE9F0474FF0684200
:1050900002EB40030C460546B3F1654F3CBF02EB03
:1050A0004102B2F1654F80F0CD8000BFC0F3C7521E
:1050B000C1F3C753D21A1B2A06DD10F0004F14BFEC
:1050C00087488848BDE8F08712F11A0F2FDA11F0EF
:1050D000004F06D010F0004F0CBF83488348BDE856
:1050E000F0872146284600F08DFB0646FFF7F7FEC5
:1050F000042808BFFFF70FFF2846FFF7F0FE05461C
:105100002046FFF7ECFE04463046FFF7E8FE042D8C
:1051100018BF052D08D1042C18BF052C04D1002878
:1051200004BF0220FBF77FF93046BDE8F08742005C
:10513000B2EB410F25D910F0004F19BF6C4F6D4EE7
:105140006D4F6E4E224685F0004415460A4680F0AB
:10515000004110460A1A5200B2F1807F3ED2484008
:105160006749DFF8A0A110F0004F18D04FF03F487A
:10517000384600F0F7FE07465146304600F0F2FE92
:1051800017E011F0004F04BF00263746E2D010F0C0
:10519000004F19BF5C4F5D4E5D4F5E4EDAE74FF03A
:1051A0007C58384600F090FA07465146304600F0E9
:1051B0008BFA06464146284600F0CAFC214600F01C
:1051C00083FA82462146404600F0C2FC294600F0A0
:1051D00037FE514600F016FB044604E021462846FF
:1051E00000F010FB0446014600F0B2FC80464A493C
:1051F00000F0AEFC494900F067FA414600F0A8FC17
:10520000474900F061FA414600F0A2FC454900F030
:105210005BFA414600F09CFC434900F055FA054614
:105220004146204600F094FC294600F091FC3146AE
:1052300000F04AFA214600F047FA3946BDE8F04747
:1052400000F042BA4FF07F42B2EB400F28BFB2EB02
:10525000410F03D2BDE8F047FFF757BE40EA010314
:105260005B0008BF44F0FF410AD0B2EB400F08BF1B
:10527000B2EB410F06D125F0804024F08041054675
:105280000C4613E7B2EB400F12BF5FEA410345F053
:10529000FF4004F000413FF409AFB2EB410F12BFF1
:1052A0005FEA400205F0004044F0FF413FF4FEAEEB
:1052B0004A0092EA40033FF5F9AE002AACBF4FF036
:1052C0009F464FF03E56314600F042FC05463146BF
:1052D000204600F03DFC044628462146E6E6000054
:1052E000DB0FC9BFDB0FC93FDB0F4940DB0F49C0F4
:1052F0000000C9BF22AAFDB90000C93F22AAFD399A
:105300000060ED3EC30ACE37000049C022AA7DBA34
:105310000000494022AA7D3A2DAD65BD8FB8D53D2C
:105320000FB511BE61C84C3EA8AAAABE2DE9F8432C
:10533000044602464F486946B0EB420F09D94FF088
:10534000E640B0EB420F94BF00204FF0FF300090DA
:1053500030E0494B22F00040834271D94749204652
:1053600000F0F6FB00F03CFD804600F041FB00F051
:10537000030000904249404600F0EAFB05464149DF
:10538000404600F0E5FB06463F49404600F0E0FBA2
:1053900007463E49404600F0DBFB214600F050FD49
:1053A000394600F0DFFD314600F0DCFD294600F013
:1053B000D9FD04462546009C002C45DB294614F007
:1053C000010F08461CD000F0C3FB0646304900F030
:1053D000BFFB304900F078F9314600F0B9FB2E49A7
:1053E00000F072F9314600F0B3FB294600F0B0FB43
:1053F000294600F069F914F0020F1CD0BDE8F883CB
:1054000000F0A6FB0546254900F0A2FB244900F068
:105410005BF9294600F09CFB224900F055F929462A
:1054200000F096FB4FF07E5100F04EF914F0020FA1
:1054300008BFBDE8F88380F00040BDE8F883FFE7CF
:105440001046FFF76DFDB4E76800B0F17F4F3CBF39
:105450004FF07E50BDE8F88307D14FF00100FAF716
:10546000E2FFBDE8F843FFF752BD2846BDE8F84328
:10547000FFF748BDB61F927E490E494683F9223F89
:105480001A61342C0020A23300A0FD390000C93F6E
:10549000336D4CB9DA82083CA0AA2ABEB93AB2BA36
:1054A000CA9F2A3DDDFFFFBE70B5054620F00040D3
:1054B000C0F1FF400C46C00F05D124F00040C0F100
:1054C000FF40C00F17D0284600F00AFC6FEAD05109
:1054D00011F0FF0F08BF70BDE917B1EBE07F08BF07
:1054E00070BD014664F31E01BDE870400A460146E6
:1054F000104600F0A5BC4FF07F40B0EB450F18BF41
:105500005FEA4400DFD10120FAF78DFFBDE870406B
:10551000FFF7FDBC2DE9F8430446024652486946B0
:10552000B0EB420F09D94FF0E640B0EB420F94BF09
:1055300000204FF0FF30009030E04C4B22F0004054
:10554000834271D94A49204600F002FB00F048FC32
:10555000804600F04DFA00F00300009045494046B7
:1055600000F0F6FA05464449404600F0F1FA0646D6
:105570004249404600F0ECFA07464149404600F0F7
:10558000E7FA214600F05CFC394600F0EBFC3146BE
:1055900000F0E8FC294600F0E5FC04462546009CA6
:1055A000002C45DB294614F0010F08461ED000F000
:1055B000CFFA0546334900F0CBFA334900F084F8BE
:1055C000294600F0C5FA314900F07EF8294600F07E
:1055D000BFFA4FF07E5100F077F814F0020F08BFC9
:1055E000BDE8F88380F00040BDE8F88300F0B0FA31
:1055F0000646274900F0ACFA264900F065F8314626
:1056000000F0A6FA244900F05FF8314600F0A0FA55
:10561000294600F09DFA294600F056F814F0020FD2
:10562000E0D1BDE8F883FFE71046FFF779FCB4E767
:105630006800B0F17F4F09D22846FFF750FC0428DC
:1056400008BFFFF768FC2846BDE8F88306D10120B3
:10565000FAF7E9FEBDE8F843FFF759BC2846BDE874
:10566000F843FFF74FBC0000B61F927E490E494633
:1056700083F9223F1A61342C0020A23300A0FD39A7
:105680000000C93FB93AB2BACA9F2A3DDDFFFFBE4A
:10569000336D4CB9DA82083CA0AA2ABE70B5054623
:1056A00000F0D8FB044620F00040C0F1FF40C00FDE
:1056B00008D025F00040C0F1FF40C00F04BF01201A
:1056C000FAF7B1FE204670BD90EA010F48BF81F0A5
:1056D000004100F14E84421A3CBF801A89184FEAFB
:1056E000D052A2EBD1534FF07F4C1CEA410F18BFB0
:1056F0009CEA026F00F03B804FF0004C4CEA002027
:105700004CEA012121FA03FC10EB0C0C1ED202F131
:10571000FF325FEA1C2040EBC25038BF70471CF0DC
:105720007F0F4FEA400C18BFBCF17F4F38BF704766
:10573000C3F12003994008BF20F00100BCF17F4F66
:1057400038BF7047A0F1C04000F044BB4FEA3C00B6
:10575000000A40EBC25028BF1CF0FF0F4FEA400C7C
:10576000E6D018BFBCF17F4F38BF7047EAE79CEA2C
:10577000026F05D010EA5C0F08BF00F000407047D0
:1057800010B500F066FA00BF64FBBE3E014800F0B1
:105790005EBC00BF0000C07F10B500F0F5F80CBF84
:1057A0000120002010BD10B500F0EEF814BF01205C
:1057B000002010BD10B500F063F98CBF012000205F
:1057C00010BD10B500F05CF92CBF0120002010BD09
:1057D00010B500F089F994BF0120002010BD10B56C
:1057E00000F082F934BF0120002010BD401058BFE6
:1057F000C0F14040491058BFC1F140418142EFF330
:10580000008070474FF47F0C1CEAD0121EBF1CEAC8
:10581000D11392EA0C0F93EA0C0F00F0858090EA06
:10582000010F48BF42F4807240F4000C41F40000C4
:105830002CF07F4120F07F4000B5A2EB03028142B3
:105840000FF2081CACEB504E9EF800E0C0F10000D7
:105850004FEA4E0E00FB0EFC38BF49004FEA2C1CED
:105860000CFB0EF34FEACE1E0EEB635E4FEA112CDB
:105870000EFB0CFC4FEAC1214FEA1C5300FB031145
:1058800002F5FA024FEA112C0EFB0CFC4FEA013133
:105890004FEADC4C00FB0C1142EB2242C14228BF14
:1058A00009184CEB03335DF804EB10EB410143EBBB
:1058B000C250B2F57C0F38BF704729D512F0F00FF7
:1058C0001CBF00F1C04000F000407047008182839F
:1058D0008485868788898B8C8D8E8F9192939596FF
:1058E00097999A9C9D9FA0A2A3A5A7A8AAACAEB089
:1058F000B2B3B5B7B9BCBEC0C2C5C7C9CCCED1D48E
:10590000D7D9DCDFE2E6E9ECF0F3F7FAFE000000BD
:105910004FEA400C0CF1807CBCF17E4F28BF7047F1
:10592000B0F1C04000F056BA0CEAD11390EA010F72
:1059300048BF42F48072624538BF634507D213F412
:105940007F0F16D080EA010000F00040704710B5CC
:1059500000F07FF9097EFC3E00F005B880EA010006
:1059600000F00040704780EA010000F0004000F0C5
:1059700031BA12F47F0F04BF0248704780EA010079
:1059800000F028BA0000C07F50EA010C00F113803B
:105990001CF5000F58BFBCF5000F01D488427047BA
:1059A00007D710F5000F58BF11F5000F15D4884226
:1059B0007047894270471CF5000F04D5BCF5000FF5
:1059C000F7D5814270474FF0807C1CEB400F38BF09
:1059D0001CEB410F01D28142704710B500F039F93C
:1059E000922449004FF000504FF08051FFF7FEBE67
:1059F00041000B0ED3F19E0208D950F400034FEA88
:105A0000032323FA02F048BF4042704710B500F06C
:105A100020F900BF49922480002070476FF00042B7
:105A200082EA20007047000010F0004148BF404269
:105A3000B0FA80F310FA03F2C3F19D030BD051EAE0
:105A4000C35101EB1220530638BF704700F101002B
:105A500008BF20F001007047B0FA80F310FA03F29B
:105A6000C3F19D030AD0D90501EB1220530638BFBC
:105A7000704700F1010008BF20F0010070470000EE
:105A800050EA010C00F113801CF5000F58BFBCF563
:105A9000000F01D48842704707D710F5000F58BF98
:105AA00011F5000F15D488427047894270471CF5E4
:105AB000000F04D5BCF5000FF7D5814270474FF0B9
:105AC000807C1CEB400F38BF1CEB410F01D28142A0
:105AD000704710B500F0BDF8922449004FF0805097
