:020000040800F2
:10000000C81E00209101000875300008C12F0008AB
:100010007130000849050008F94C00080000000094
:100020000000000000000000000000002948000857
:100030006505000800000000ED3000082D480008AC
:10004000AB010008AB010008AB010008AB010008E0
:10005000AB010008AB010008690500087105000844
:10006000AB010008AB01000879050008AB010008EE
:10007000AB010008AB010008AB010008AB010008B0
:100080004D05000859050008AB010008AB01000848
:10009000AB010008AB010008AB010008AB01000890
:1000A000AB010008AB010008AB010008AB01000880
:1000B000AB010008AB010008AB010008AB01000870
:1000C000AB010008AB010008AB010008AB01000860
:1000D000AB010008AB010008ED4C0008AB010008C3
:1000E000AB010008AB010008AB01000800F002F80A
:1000F00000F03EF80AA090E8000C82448344AAF184
:100100000107DA4501D100F033F8AFF2090EBAE881
:100110000F0013F0010F18BFFB1A43F0010318473B
:100120005C6700007C670000103A24BF78C878C183
:10013000FAD8520724BF30C830C144BF04680C60ED
:10014000704700000023002400250026103A28BF35
:1001500078C1FBD8520728BF30C148BF0B60704739
:100160001FB59DE8030000F001F91FBD10B510BDDB
:1001700000F068F91146FFF7F3FF05F039F900F0D8
:1001800086F903B4FFF7F2FF03BC00F0B7F90000F3
:100190000948804709480047FEE7FEE7FEE7FEE71B
:1001A000FEE7FEE7FEE7FEE7FEE7FEE70448054957
:1001B000054A064B7047000031480008ED00000872
:1001C000C8180020C81E0020C81A0020C81A002025
:1001D00070B5064600F0AEF8056806F10B0020F099
:1001E0000704B4429CBF002070BD2B466A68BAB1B8
:1001F0001068A04210D304F1080188423CBF506847
:10020000586007D35168101941601168091B0160DB
:1002100058601460101D70BD13465268002AE7D163
:100220002146284600F08EF80028DED170BD70B55A
:100230000446051F00F07EF80068002C14BF4468D7
:1002400070BD002C18BFAC423CBF20466468F8D398
:1002500001680A18AA4218BF456003D12A680546FA
:100260001144016028684119A1421CBF6C6070BD37
:100270006168696021680844286070BD10B5203A43
:10028000C0F00B80B1E81850A0E81850B1E8185041
:10029000A0E81850203ABFF4F5AF5FEA027C24BF13
:1002A000B1E81850A0E8185044BF18C918C0BDE8FC
:1002B00010405FEA827C24BF51F8043B40F8043BC5
:1002C00008BF7047D20728BF31F8023B48BF11F87A
:1002D000012B28BF20F8023B48BF00F8012B7047D4
:1002E0004FF0000200B5134694469646203922BFCF
:1002F000A0E80C50A0E80C50B1F12001BFF4F7AF1A
:10030000090728BFA0E80C5048BF0CC05DF804EBFB
:10031000890028BF40F8042B08BF704748BF20F869
:10032000022B11F0804F18BF00F8012B7047704767
:1003300070477047004870471800002070477047AA
:100340007047704738B504460A4600206946AFF347
:100350000080002808BF38BD02460099204600F002
:100360004FF8012038BD012000F064B8F8B5AFF3B4
:100370000080054600200C46102000BF0646A81944
:10038000A0420DD9324669460020AFF30080070035
:1003900008BF00F04FF80098A04218BF0546C419E6
:1003A000FFF7C8FF05600746F01D20F0070046195B
:1003B000284600F00AF8B44208BFF8BDA21B314637
:1003C0003868BDE8F84000F01BB800210160C0E9C2
:1003D000011070471020704710B500F00DF800684C
:1003E00010BD10B5044600F007F8046010BD000011
:1003F000004870471000002000487047100000209F
:10040000034640688C46002818BF88423CBF03461C
:100410004068F8D318681844884207D00CF10300EC
:1004200020F00700001D411A521A0146081D0A60FB
:10043000FFF7FDBE10B500F039F8BDE8104000F040
:100440002FB870477546FFF7D3FFAE4605006946E3
:10045000534620F00700854618B020B5FFF7A6FEEA
:10046000BDE820404FF000064FF000074FF00008B5
:100470004FF0000BAC46ACE8C009ACE8C009ACE8F2
:10048000C009ACE8C00921F007018D46704710B5DE
:100490000446AFF300802046BDE81040FFF771BE70
:1004A000002801D000F02AB87047000010B50128DC
:1004B00005D0002103A000F027F8012010BD09A1FC
:1004C000F8E7000053494752544D454D3A204F75C7
:1004D00074206F662068656170206D656D6F72793C
:1004E000000000003A2048656170206D656D6F72F4
:1004F0007920636F72727570746564000149182009
:10050000ABBEFEE72600020070B505460C460A2089
:1005100000E06D1C00F011F835B128780028F8D102
:1005200002E0641C00F009F814B120780028F8D12A
:10053000BDE870400A20AFF3008008B569468DF829
:1005400000000320ABBE08BDFEE7000041F238000A
:10055000C2F2000001F02ABA41F27C00C2F20000AF
:1005600001F024BA70470000012001F083BB0000B5
:10057000022001F07FBB0000102001F07BBB0000D7
:100580002DE9F04190F8B05604468846D5B10027D1
:1005900005E000BF0137F8B2E9B2884212D2FEB2DC
:1005A00006EB460004EB0010406A414605F090FC63
:1005B0000028EFD12046314600F0B8FA94F8B05642
:1005C000013FE7E794F8B156002D08BFBDE8F08180
:1005D000002704E00137F8B2E9B2884214D2FEB233
:1005E00006EB460004EB4010D0F8F402414605F05B
:1005F0006FFC0028EED12046314600F07DFA94F8D9
:10060000B156013FE6E700BFBDE8F0812DE9F04FAC
:1006100085B0029105460021D0E90040A5F85C10A4
:10062000002144F66D6BC4F24831C4F2C61B05F0DC
:10063000CBFB40F2CC09C2F20009D9F8001043F21A
:10064000390201FB0B214AF6AB2221F00041CAF628
:10065000AA22A1FB0223074623F0010000EB53006E
:10066000081AC9F8001000F00101023040F2000A37
:1006700000F00603A5F11002C4F2963A009103952A
:10068000D9F8000043F2390100FB0B1547F2A31122
:1006900025F00040CAF26E310492A0FB0112110A4B
:1006A00040F2911201FB1200019300F5C87043F271
:1006B000390805F039FD05FB0B81054621F00040A6
:1006C000C9F8000005F048FD4FF0405105F0C0FDAD
:1006D0000021C4F2164105F0BBFD0021CCF2963199
:1006E00005F072FB0146204605F06EFB0021C4F2C6
:1006F0006141044605F0DEFB00281CBF0024C4F263
:1007000061442046514605F0D5FB0028384629466D
:1007100008BF544605F058FB80460298D0E9001502
:10072000204605F09FFF06464046294605F09AFF01
:100730000146814605F08CFD07463046314605F0FE
:1007400087FD394605F040FB05F028FB514607467A
:1007500005F0C5FB0546002838464FF0000118BFDC
:10076000012505F0A7FB002818BF012005EA000BB2
:100770003046394605F0C6FB514605F069FD214675
:1007800005F022FB06464846394605F0BBFB5146BC
:1007900005F05EFD414605F017FB40F2CC01C2F2C8
:1007A0000001096844F66D62C4F2C61243F23909C9
:1007B00001FB029747F2A31227F00041CAF26E3202
:1007C000A1FB02230546BBF1000F04BF45462646A8
:1007D0000498039C049AC66494F85D0015651A0A8F
:1007E00040F2911302FB1311013084F85D0001F512
:1007F000C87005F099FC44F66D61C4F2C61107FBA0
:100800000191044621F0004040F2CC01C2F2000107
:10081000086005F0A1FC4FF0405105F019FD0021E2
:10082000C4F2164105F014FD0021CCF2963105F01A
:10083000CBFA0146304605F0C7FA0021C4F2614107
:10084000804605F037FB00281CBF40F20008C4F2C8
:1008500061484046514605F02DFB002828462146B8
:1008600008BFD04605F0B0FA029C81462168404698
:1008700005F0F8FE61680446484605F0F3FE0146BF
:10088000054605F0E5FC06462046214605F0E0FC5D
:10089000314605F099FA05F081FA5146064605F011
:1008A0001EFB0746002830464FF0000118BF012705
:1008B00005F000FB002818BF012007EA000B2046C6
:1008C000314605F01FFB514605F0C2FC414605F0DC
:1008D0007BFA04462846314605F014FB514605F0E4
:1008E000B7FC494605F070FA0746019B049ABBF134
:1008F000000F08BF4F4608BF4446039E47F2A311AE
:1009000096F85D5040F2CC0944F66D6BCAF26E3138
:10091000C2F20009C4F2C61B54659765681C023B0D
:1009200002F1100286F85D007FF4AAAE009B029EE1
:1009300033B9DDF80CB0C6B2042E80F0D98095E052
:10094000D9F8000043F2390800FB0B85049225F02A
:100950000040A0FB0112110A40F2911201FB1200AB
:1009600000F5C87005F0E0FB05FB0B81054621F0A2
:100970000040C9F8000005F0EFFB4FF0405105F0D2
:1009800067FC0021C4F2164105F062FC0021CCF2A4
:10099000963105F019FA0146204605F015FA0021B6
:1009A000C4F26141044605F085FA00281CBF00240A
:1009B000C4F261442046514605F07CFA00283846CE
:1009C000294608BF544605F0FFF9D6E900168046CF
:1009D000204605F047FE05464046314605F042FEFA
:1009E0000146814605F034FC07462846294605F0B5
:1009F0002FFC394605F0E8F905F0D0F951460746D5
:100A000005F06DFA0646002838464FF0000118BF81
:100A1000012605F04FFA002818BF0120064028469D
:100A2000394605F06FFA514605F012FC214605F0F3
:100A3000CBF905464846394605F064FA514605F0BB
:100A400007FC414605F0C0F90746002E04BF4746A3
:100A500025460498DDF80CB0C5649BF85D50076529
:100A6000681C8BF85D00C6B2042E41D240F2CC0A5D
:100A7000C2F2000ADAF8000044F66D6943F2390860
:100A8000C4F2C61900FB0984DB2124F00040CBF23C
:100A90002E41A0FB0112811A02EB5101490A40F2DA
:100AA000592201FB120000F5967005F03DFB04FB96
:100AB000098147F2A31221F00041CAF26E32A1FB74
:100AC00002230446180A40F2911200FB1210CAF8E1
:100AD000001000F5C87005F027FB0146384605F008
:100AE00073F90BEBC601C1E90F40A81C8BF85D0040
:100AF00005B0BDE8F08F000010B5044690F8B106CF
:100B0000421E8A420EDD01EB410004F53C7102EB0E
:100B1000420201EB401001EB42116022FFF7AEFBF5
:100B200094F8B106013884F8B10610BD2DE9F04300
:100B300090F8B026531E8B4229DD00F1200203EB12
:100B4000430E02EB0E134FEA0E1E01EB410CD3E9EC
:100B50000189D3E9036752F80E405D6902EB0C117D
:100B60004FEA0C1C42F80C404D61C1E90367C1E932
:100B70000189D3E90627D3E90865D3E90A43C1E926
:100B80000865C1E90A43C1E9062790F8B026511E5D
:100B900080F8B016BDE8F0832DE9F04F81B00E4625
:100BA00080468A8BD0E90050D1E90071728305F04C
:100BB00059FD04462846394605F054FD01462046B5
:100BC00004F0E2FD98F82C4C322C274698BF3227CF
:100BD000312C64D849F69A11CBF61961054605F017
:100BE000F3F8C4EBC40108EB8102D6E9009643F2A6
:100BF000333340F2000BC4F23303C2F8BC064FF4A7
:100C00008770C4F2A00B4FF48071C2F8B496C2F89A
:100C1000B866C2F8C036A2F8C406C2F8C8B6A2F8D0
:100C2000CC16621CBA4288F82C2C38D0C2EBC20217
:100C300004F1020A08EB8202BA45C2F8B496C2F87F
:100C4000B866C2F8BC56C2F8C036A2F8C406C2F8EC
:100C5000C8B6A2F8CC1688F82CAC20D049F69A1168
:100C6000C3F6196128461D4605F0AEF8CAEBCA0165
:100C700008EB8101C1F8BC064FF48770A1F8C406E7
:100C80004FF48070A1F8CC06E01CC1F8B496C1F80E
:100C9000B866C1F8C056C1F8C8B688F82C0C01B0C7
:100CA000BDE8F08F2DE9F04F87B090F8B06682462E
:100CB000002E069000F03E8248F2000140F6DB7BF9
:100CC0000AF543604FF00009C4F23B51C4F2490BEE
:100CD000009010E048F2000140F6DB7BC4F23B518B
:100CE000C4F2490B09F101099AF8B0665FFA89F07C
:100CF000B04280F01F825FFA89F404EB44000AEBF3
:100D0000001898F847000028ECD098F84600002812
:100D1000E8D008F12007DAF804007D6805F054F8FF
:100D20000146284605F0D4F8059718BBF0B2013803
:100D3000A04219D900EB40000AEB001000F1200797
:100D40008ECFD0E90C56059CC4E9045684E88E0089
:100D500000F13807D0E912608ECFC4E90A6004F1CF
:100D600018008EC09AF8B066701E8AF8B006A9F115
:100D700001097CE13846514600F074FC464656F8BD
:100D80002C0FCDF81080314651F8045FB046039126
:100D900058F8041D04F0F8FC0146284605F062FCF2
:100DA0005946074605F094F840F6DB74CCF2C904C6
:100DB00028BB00BF3846214605F006F859460746CD
:100DC00005F086F8D8B93846214604F0FDFF5946AB
:100DD000074605F07DF890B93846214604F0F4FF47
:100DE0005946074605F074F848B93846214604F0DC
:100DF000EBFF5946074605F05DF80028DAD140F6CA
:100E0000DB74CCF249043846214605F05AF840F626
:100E1000DB75C4F2C90520BB3846294604F0D4FF6F
:100E20002146074605F04DF8D8B93846294604F062
:100E3000CBFF2146074605F044F890B938462946CD
:100E400004F0C2FF2146074605F03BF848B9384692
:100E5000294604F0B9FF2146074605F040F800286E
:100E6000DAD14CF6CD413846C3F64C5105F0F0F9D5
:100E7000039F054639680846294604F0A5FF04F09B
:100E8000D5FD4CF6CD44C4F20C04214605F0E0F942
:100E90003968C8F80000284604F096FF04F0BAFE4E
:100EA000214605F0D5F9059C0546D4E90007D8F898
:100EB00000103560029004F087FF804620602846CD
:100EC00039462546019704F07FFF9AF8501F60606D
:100ED000002976D083460498009C056C4FF0000AE8
:100EE00009E000BF069890F8501F0AF1010A8A45F0
:100EF00004F1100460D2607B0028F6D0D4E900161B
:100F0000404605F0AFFB07465846314605F0AAFBC0
:100F1000014605F09DF906463846394605F098F930
:100F2000314604F051FF04F039FFA1680646284617
:100F300004F04AFF0146304604F0D1FF0028D1D02A
:100F400040F2CC03C2F20003186844F66D61C4F2AB
:100F5000C61143F2390200FB01204EF28B6120F0F2
:100F60000040CBF20951A0FB0112059D0199DDF86B
:100F700008806960D109B52201FB1201186001F1F6
:100F80005A00C5F8008005F0CFF840F6DB7BC4F2CC
:100F9000490B594605F05CF90021C4F2343104F0E4
:100FA000B1FF039C024621680846114604F00CFF7D
:100FB000DDF818A0206008E0059DDDF818A0D5F840
:100FC000008040F6DB7BC4F2490B0024C4F2F0241D
:100FD0004046214604F083FF10B11E20A0460BE0DE
:100FE00000214046C4F2874104F072FF80BB40F20A
:100FF0000008D220C4F2874840F2CC07C2F20007B2
:10100000396844F66D62C4F2C61243F2390301FB3B
:10101000023145F2BF6221F00041C0F6CF62A1FB70
:101020000223CA1A03EB52029209792302FB13121C
:10103000C5F800801044396005F076F8594605F08F
:1010400007F90021C4F2343104F05CFF0399086011
:10105000049830F84C1F00291CBF01390180049C02
:1010600034F83A0F40B101380104208004D048F22E
:101070000001C4F23B5135E6DAF800B04046DAF838
:1010800004805946029005F0EDFA6E6820F00047A2
:101090003046414605F0E6FA002105463846C4F2DE
:1010A000C83104F00EFF00287FF414AE002125F0B3
:1010B0000040C4F2963104F004FF00287FF40AAE29
:1010C00004999AF82C0C898F312821803FF602AEC2
:1010D0000299584605F0C6FA05464046314605F0E5
:1010E000C1FA294604F050FB9AF82C1C059FC1EB6D
:1010F000C1023B680AEB8202C2F8B4367B68C2F8D0
:10110000BC060020C4F26000C2F8C0064FF487702D
:10111000A2F8C4060020C4F2A000C2F8C8064FF42A
:101120008070A2F8CC06481CC2F8B8368AF82C0C9D
:10113000D0E500BF9AF8B146002C00F0758148F266
:1011400000090AF543604FF0000BC4F23B590090D0
:101150000FE000BF601E8AF8B106ABF1010B00BFC3
:101160000BF1010B9AF8B1465FFA8BF0A04280F0C8
:101170005B815FFA8BF505EB45000AEB401898F8A8
:1011800019030028ECD098F818030028E8D008F5D7
:101190003C76DAF804007768494604F015FE01460B
:1011A000384604F095FE88B9E0B20138A842D1D99A
:1011B00000EB40000AEB401000F53C713046602225
:1011C000FFF75CF89AF8B146C4E700BF30465146D5
:1011D000002300F02DF9306808F540710290706826
:1011E00003910190D8F8000304F020FC4CF6CD44A4
:1011F000C3F6CC743768214605F02AF8394604F066
:10120000E3FDD8F800133060084604F003FDD6E98A
:101210000075214605F01CF8294604F0D5FD9AF822
:10122000501F049600297060CDF8148078D0D8F84B
:101230001083DDF800A08146002407E0069890F8AE
:10124000501F01348C420AF1100A61D29AF80D0045
:101250000028F6D0DAE90015384605F003FA06460C
:101260004846294605F0FEF9014604F0F1FF05461F
:101270003046314604F0ECFF294604F0A5FD04F0A9
:101280008DFDDAF808100546404604F09DFD014644
:10129000284604F024FE0028D0D040F2CC03C2F24D
:1012A0000003186844F66D61C4F2C61143F23902B6
:1012B00000FB01204EF28B6120F00040CBF209517F
:1012C000A0FB0112DDF810900199029EC9F80410EC
:1012D000D109B52201FB1201186001F15A00C9F8C9
:1012E000006004F021FF40F6DB71C4F2490104F014
:1012F000AFFF0021C4F2343104F004FE039C024627
:1013000021680846114604F05FFD206004E000BF3C
:10131000DDF81090D9F80060DDF818A0002403E093
:101320000024DDF810903E46C4F2163430462146C3
:1013300004F0D5FD10B11E2026460CE044F2000159
:101340003046C4F2834104F0C3FD98BB44F200066A
:10135000D220C4F2834640F2CC07C2F200073968BB
:1013600044F66D62C4F2C61243F2390301FB023146
:1013700045F2BF6221F00041C0F6CF62A1FB02231B
:10138000CA1A03EB52029209792302FB1312C9F81D
:1013900000601044396004F0C7FE40F6DB71C4F20F
:1013A000490104F055FF0021C4F2343104F0AAFDD4
:1013B000039908600599B1F8160328B10A4601F2AD
:1013C0001631013808801146B1F80A0328B10138F6
:1013D00001F20A310204088020D1DAE90015304612
:1013E00005F040F9D9F8041020F0004608462946D7
:1013F00005F038F9002107463046C4F2FA3104F00E
:1014000060FD58B9002127F00040C4F2C83104F053
:1014100058FD18B950464946FFF7BEFB48F200098F
:10142000C4F23B599CE600BF07B0BDE8F08F000056
:101430002DE9F0470446066890F8320067680228F4
:101440008A4647D1DAE900983046494605F00AF95C
:10145000002120F00040C4F2FA3104F032FD0546CC
:101460003846414605F0FEF8002D40F08D80002101
:1014700020F00040C4F2C83104F023FD002840F001
:101480008380DAF808000021C4F2342104F03AFD28
:101490000021C4F2482104F0DBFE494604F094FC2C
:1014A00000210546CCF24821404604F08DFC394627
:1014B00005F0D8F807462846314605F0D3F801462E
:1014C000384604F061F978212061A186A063BDE867
:1014D000F08700BF94F85C0094F85D1088420BD34D
:1014E00020465146FFF792F894F85D00002849D055
:1014F00094F85C00D4E9006704EBC001D1E90F0562
:10150000314605F0AFF806462846394605F0AAF8F8
:10151000014604F09DFE05463046314604F098FE33
:10152000294604F051FC04F039FC0021C4F2963144
:1015300004F0C7FC68B994F85C0094F85D100130C1
:10154000C2B28A4284F85C0003D320465146FFF7BA
:101550005DF894F85C0094F85D10884228BFBDE8FF
:10156000F08704EBC001D1E90F05D4E9001605F0BE
:1015700079F807462846314605F074F8394604F0F4
:1015800003F92061BDE8F087A08E28B1A16B013876
:10159000A0862161BDE8F087208E013801042086F5
:1015A00002D0E56A54E000BF40F2CC01C2F2000173
:1015B000086844F66D6343F23902C4F2C61300FBB7
:1015C000032045F2BF6620F00047C0F6CF66A7FBB8
:1015D00006657F1B05EB5707BF09792607FB160732
:1015E00000FB0320B43720F000402786086004F099
:1015F000B3FD4FF0405104F02BFE4CF6CD41C3F645
:10160000CC5104F025FE4CF6CD41CBF64C5104F004
:10161000DBFBE16A02460846114604F0D5FB40F6C2
:101620009221C3F60671054604F044FC40F692266A
:10163000CBF6067600281CBF40F69225C3F6067549
:101640002846314604F036FC002808BF3546E562DE
:1016500040F6DB71C3F6C971284604F0B5FB206182
:10166000BDE8F0872DE9F047D0E9008AD1E900957F
:1016700004464046494604F0F5FF074650462946D1
:1016800004F0F0FF94F82E10012921D10021064624
:1016900027F00040C4F2C83104F013FCC0B90021A7
:1016A00026F00040C4F2963104F00BFC80B92846C5
:1016B000514604F0D7FF05464846414604F0D2FFA4
:1016C0000146284604F060F82061BDE8F08700BFBD
:1016D000A08D01380104A08502D0A06A36E000BFC9
:1016E00040F2CC01C2F20001086844F66D6343F297
:1016F0003902C4F2C61300FB032048F2691620F039
:101700000047C6F61606A7FB06657F1B05EB5707C5
:10171000BF095B2607FB160700FB03205A3720F0A2
:101720000040A785086004F017FD4FF0405104F019
:101730008FFD40F69221C3F6867104F089FD40F6D4
:101740009221CBF6067104F03FFBA06240F6DB71FC
:10175000C3F6C97104F038FB2061BDE8F0870000D2
:1017600040F2D004C2F20004EFF3108072B600BF62
:10177000204600F00BF8FBE710B5044601F0B8FC7A
:101780002046BDE8104001F0A1BE000010B504469F
:10179000D0F8540F002808BF10BDFEF748FD002008
:1017A000C4F8540F10BD00002DE9F0470446002096
:1017B000C4F2164048F20005C4F222454FF0000A78
:1017C00084E8210400200021C4F2C810C4F24001C2
:1017D0004FF06412C4E906A09420C4E90312A4F8EF
:1017E00014A004F1200704F2B46804F54369FEF77D
:1017F000EFFC0646384640F29261FEF771FD404626
:1018000040F27951FEF76CFD484640F22131FEF777
:1018100067FDC4F8546F1EB1304603F0EFFC6568F5
:101820000021CCF24841284604F0CEFA0021C4F24F
:10183000483104F0C9FA0021C4F8580FCCF2C8416D
:10184000284604F0C1FAC4F85C0F012084F8600F48
:10185000C4F864AFBDE8F08710B590F8503F00F5CC
:101860004362044601F020FE2046FFF71BFA2046A3
:1018700002F01AF8D4F8540F10B1214603F0C4FC5A
:101880002046FFF779FF60680021CCF2484104F060
:101890009BFA0021C4F2483104F096FAB4F9101012
:1018A000C4F8580F0029DCBF002084F8600F10BD79
:1018B000014690F82100022816D10868D1E90FC32B
:1018C000026822F00E020260026822F00102026049
:1018D000012000FA03F2CCF8042081F82100002056
:1018E000002281F820207047042088630120002214
:1018F00081F820207047000080B590F8211002295F
:1019000024D10268116821F00E0111602F211368A3
:10191000C4F202018A4240F20401C4F2020123F03F
:101920000103136016DD3023C4F202039A421DD076
:101930004423C4F202039A421CD05823C4F2020387
:101940009A421DD14FF4803322E000BF042181630D
:10195000012080BD0823C4F202039A420ED01C234A
:10196000C4F202039A420BD1102311E04FF48073AA
:101970000EE000BF4FF480530AE000BF012307E0F0
:1019800001F1680C4FF08073624508BF4FF480137B
:101990000B60012180F82110426B002180F820109B
:1019A0000AB190470021084680BD000010B5D0E97B
:1019B0000FCE0168DCF800300A6823FA0EF35C07EA
:1019C0002AD512F0040427D00A68920603D40A68C4
:1019D00022F004020A602F22C4F20202914240F275
:1019E0000402C4F202025BDD3023C4F20203994216
:1019F00072D04423C4F20203994273D05823C4F234
:101A00000203994240F07A804FF480231360C16A48
:101A1000002940F098806FE09C0727D512F002045F
:101A200024D00A68920606D40A6822F00A020A60E4
:101A3000012280F821202F22C4F20202914240F2BA
:101A40000402C4F202023BDD3023C4F202039942D5
:101A500060D04423C4F2020399425FD05823C4F2F9
:101A60000203994260D14FF4003365E01B0743D570
:101A700012F0080208BF10BD0A6822F00E020A60C8
:101A8000012101FA0EF2CCF80420816380F82110C4
:101A9000016B0022002980F8202054D12CE000BFE7
:101AA0000823C4F20203994222D01C23C4F2020389
:101AB000994223D140231360C16A002943D11BE01E
:101AC0000823C4F2020399422CD01C23C4F202035F
:101AD000994229D120232FE04FF480631360C16A1B
:101AE00089BB09E04FF480431360C16A59BB03E02E
:101AF00004231360C16A31BB10BD00BF02F168044A
:101B00004FF08063A14208BF4FF480031360C16AA5
:101B1000C9B9F1E74FF400730EE000BF4FF4005372
:101B20000AE000BF022307E002F168044FF00073EF
:101B3000A14208BF4FF400131360816A00220029FC
:101B400080F82020D8D0BDE8104008470146002882
:101B50004FF0010008BF70472DE9F043D1F800C0F5
:101B60004FF6F873CBF6FD734CF6CD426344CCF6DA
:101B7000CC42A3FB02236FF0030707EA930300277D
:101B8000C4F2020701F10C09C1E90F730223D1E984
:101B9000012E99E87002D1F81C8081F82130DCF820
:101BA000003043F6F077BB431A4342EA0E02224369
:101BB0002A43324342EA090242EA0802CCF80020F2
:101BC00000228A6381F8210081F820200020BDE8EE
:101BD000F0437047F0B590F820C0BCF1010F32D04F
:101BE0004FF0010E80F820E090F821C0BCF1010F09
:101BF00026D14FF0020C80F821C04FF0000CC0F845
:101C000038C0D0E900C4C56AC66BDCF80070102C7F
:101C100027F00107CCF80070006C0EFA00F070603D
:101C20000846CCF8043004BF10460A46CCF8080039
:101C3000CCF80C20DCF8000045B140F00E000DE0BF
:101C4000002180F820100220F0BD00BF20F0040029
:101C5000CCF80000DCF8000040F00A00CCF80000EE
:101C6000DCF8000040F00100CCF800000020F0BDDE
:101C70007047000040F21441C4F201010A680242B8
:101C800014BF08607047FFF7F3BF00002DE9F04F65
:101C900082B00E68002E00F0038141F20042C4F2CF
:101CA0000102042340F2004E904208BF03234FF686
:101CB000FF7CC4F2010E009300240123C1F2100C3A
:101CC0004FF0000A4FF0000949E000BF012704F07F
:101CD0000C030F229A402BEA020207FA03F34FEAA1
:101CE0009A051A4346F82520D1F804B040F20C4575
:101CF0005FEACB22DEF8082054BF22EA080242EA5B
:101D00000802C4F20105CEF808202A685FEA8B2396
:101D100054BF22EA080242EA08022A605FEA8B33D3
:101D2000DEF8042054BF22EA080242EA08025FEA11
:101D3000CB33CEF80420DEF800204FF0010354BF6F
:101D400022EA080242EA0802CEF800200E680AF1F0
:101D5000010A36FA0AF204F1040400F0A18003FA41
:101D60000AF816EA080FF1D04E68664512DC122E0A
:101D700056D8DFE806F0350B4549555555555555AC
:101D8000555555555555554D510000BFD1F80C903E
:101D900046E000BF4FF6FF72C1F2210296420FDC0F
:101DA0000022C1F2110296421AD00022C1F21202A0
:101DB000964215D00022C1F22102964210D02FE0A7
:101DC0000022C1F2220296420AD00022C1F2310260
:101DD000964205D00022C1F23202964220D100BFC5
:101DE0008A684AB1012A14BFC0F81480C0F8108074
:101DF0004FF0080914E000BF4FF0040910E000BFE5
:101E0000CA6802F108090BE04FF0000908E000BFC2
:101E1000CA6802F1040903E0CA6802F10C0900BFB4
:101E200022460646BAF1080F24BF203A0436376826
:101E30000F25954027EA050509FA02F22A43326088
:101E4000CA79D2067FF582AF41F21803C4F20203C9
:101E50001A68AEF57E7642F001021A601A6802F046
:101E600001020192019A2AF0030256F802B040F6EC
:101E70000002C4F20102904210D040F60042C4F2C7
:101E8000010290423FF422AF41F20002C4F201028B
:101E9000009F904208BF022719E700BF002716E7FE
:101EA00002B0BDE8F08F00008068084018BF012034
:101EB0007047000041F6C000C2F2000000687047A1
:101EC00040F2000041F6C001C2F20000C2F200017F
:101ED00000780A68104408607047000080B542F23C
:101EE0000000C4F20200016841F01001016003200B
:101EF00000F08EF8002000F005F800F027F8002030
:101F000080BD000070B540F20006C2F2000640F24B
:101F100008013278C2F200014FF47A730968B3FB0A
:101F2000F2F20446B1FBF2F1084600F063FB0F2C1D
:101F30004FF0010508D838B94FF0FF302146002294
:101F4000002500F039F87460284670BD82B041F277
:101F50001800C4F202000168042241F0010101608E
:101F6000016801F0010101910199416841F080513E
:101F70004160406800F08050009000980420C4F256
:101F80000100016862F31A61016002B0704700004D
:101F9000002848BF7047C1B200F01F00012202FABA
:101FA00000F04EF20012CEF2000242EAD10121F01E
:101FB000030108607047000010B54EF60C5CCEF2CD
:101FC000000CDCF80030C3F3022E8EF00704042C62
:101FD00028BF0424BEF103034FF0FF3E0EFA04F4C1
:101FE00038BF0023A14399400EFA03F39A431143EB
:101FF00000F00F0200F160430901043A03F5644365
:102000006244002848BF02F10C03197010BD0000A3
:102010004EF60C51CEF200010A684FF6FF031A404B
:1020200060F30A2242F0806040F0FD700860704763
:102030002DE9F04381B0002800F0858042F20008CD
:10204000C4F202080446D8F800000D4600F007006C
:1020500088420CD2D8F8000020F007002843C8F8C6
:102060000000D8F8000000F00700A8426BD12068FB
:1020700041F204098107C4F2020917D5410705D5C9
:10208000D9F8001041F4E061C9F80010010705D546
:10209000D9F8001041F46051C9F80010D9F80010C7
:1020A000A26821F0F0011143C9F80010C00741D126
:1020B000D8F8000000F00700A8420CD9D8F80000BA
:1020C00020F007002843C8F80000D8F8000000F00E
:1020D0000700A84237D12068410707D5D9F800107A
:1020E000E26821F4E0611143C9F80010000708D547
:1020F000D9F80000216920F4605040EAC100C9F815
:102100000000D9F8002002F00C00082841F200205D
:10211000C0F27A0050D146F66A03C2F38341C0F69A
:102120000003595CD2033BD440F60010C0F23D00DE
:10213000484341E0606802280AD001282AD159F8B2
:10214000041C890308D4012001B0BDE8F08300BF5E
:1021500059F8041C8901F6D5D9F8001021F00301C3
:102160000843C9F80000FFF7A5FE064641F288378C
:10217000D9F80000616800F00C00B0EB810F97D037
:10218000FFF798FE801BB842F2D9032001B0BDE8EA
:10219000F08300BF59F8041C8907D4D5DCE700BFE1
:1021A000D9F8002046F66803C2F34042C0F60003A7
:1021B0009A5C4843B0FBF2F0D9F8001046F65002A2
:1021C000C1F30311C0F60002515C40F2080220FA8C
:1021D00001F140F20400C2F200000068C2F2000205
:1021E0001160FFF78FFE002001B0BDE8F083000012
:1021F00040F2080041F20401C2F20000C4F2020100
:102200000068096846F66002C1F30221C0F60002C8
:10221000515CC8407047000040F2080041F20401E0
:10222000C2F20000C4F202010068096846F66002CA
:10223000C1F3C221C0F60002515CC84070470000E3
:102240002DE9F04182B0002868D00446007841F2C0
:102250000006C007C4F2020625D0706800F00C002A
:1022600004281BD0706800F00C00082802D17068A8
:10227000C00313D46068002800F06881B0F5A02F77
:1022800000F07C81B0F5803F00F07C81306820F464
:1022900080303060306820F4802076E13068800340
:1022A00001D56068D0B32078800718D5706810F029
:1022B0000C0F07D0706800F00C0008286ED1706811
:1022C000C0036BD43068800702D52069012825D16E
:1022D0003068616920F0F80040EAC1003060207881
:1022E00000071FD42078400732D4E56995B17068A3
:1022F00000F00C00082840F08F80012D0ED070688F
:10230000216A00F480328A4208D1616A00F47010B8
:10231000884203D1002002B0BDE8F081012002B064
:10232000BDE8F081A069002862D00020C4F24220FC
:102330000121C0F88014FFF7BDFD0546706A8007D3
:1023400000F18C80FFF7B6FD401B0228F6D92AE188
:10235000F06910F0805808D1F06940F08050F061C9
:10236000F06900F080500090009847F20007C4F236
:1023700000073868C00529D4386840F48070386098
:10238000FFF798FD054600BF3868C0051ED4FFF76B
:1023900091FD401B6428F7D905E100BF20690028A2
:1023A00040F20000C4F2422000F08280012101606E
:1023B000FFF780FD054600BF306880073FF588AF16
:1023C000FFF778FD401B0228F6D9ECE0E068002812
:1023D00000F08080052800F09780012800F09880A8
:1023E000306A20F001003062306A20F0040092E090
:1023F0000020C4F242200021C0F88014FFF75AFDEB
:10240000054600BF706A80077FF56CAFFFF752FD8D
:10241000401B0228F6D9C6E00027C4F2422700205C
:102420003866FFF747FD022D05460BD13068800165
:1024300040F1BE80FFF73EFD401B02284FF0030035
:10244000F4D968E7306880017FF564AFFFF732FDAB
:10245000401B02284FF00300F4D95CE740F208006B
:10246000C2F20000006844F6D351C1F26201A0FB41
:102470000101480A019000BF00BF0198411E0028D9
:1024800001913FF42FAF00BF0198411E0028019138
:102490003FF428AF00BF0198411E002801913FF48E
:1024A00021AF00BF0198411E00280191E4D119E736
:1024B00000210160FFF7FEFC054600BF3068800781
:1024C0007FF50DAFFFF7F6FC401B02284FF003002D
:1024D000F4D920E7306A20F001003062306A20F041
:1024E00004003062FFF7E6FC054641F2883700BF82
:1024F000306A800720D5FFF7DDFC401BB8424FF063
:102500000300F5D907E700BF306A40F004003062ED
:10251000306A40F001003062FFF7CCFC054641F222
:10252000883700BF306A800706D4FFF7C3FC401B22
:10253000B842F7D937E000BFB8F1000F7FF4D5AE4D
:10254000F06920F08050F061CFE600BF306820F4E1
:1025500080303060306820F480203060FFF7AAFCC3
:10256000054600BF306880037FF59DAEFFF7A2FCF3
:10257000401B64284FF00300F4D9CCE6306840F4E7
:1025800080203060306840F480303060FFF792FC8B
:10259000054600BF306880033FF585AEFFF78AFC33
:1025A000401B6428F6D9032002B0BDE8F08100BFCB
:1025B000206AB0F5803F05D17168A26821F400312E
:1025C000114371607168626A21F474111143084308
:1025D000706001203866FFF76DFC044630688001AA
:1025E0003FF598AEFFF766FC001B02284FF0030092
:1025F000F4D990E6411E0020B0EB116F1CBF012002
:1026000070474EF21002CEF2000251604EF6235196
:10261000CEF20001F0230B7007219060116070472B
:1026200070470000006844F20041C4F20001884293
:1026300018BF704740F2700040F2C00CC2F20000B8
:1026400041F2C021C2F2000C00230830C2F20001A6
:102650004FF480628CF8003000F08EBBB0B582B0D1
:10266000044600680168C368426901F02F05202D07
:1026700003F0200506D12DB1204602B0BDE8B040E0
:1026800002F0B4BA5FEA017C1EBF02F0010E03F44F
:10269000907212EB0E0253D1226B012A05D111F078
:1026A000100218BF13F0100236D10A0622D513F01B
:1026B00080021FD094F8411021293FD1A168B1F5C3
:1026C000805F03D12169002900F07082216A4A1CD1
:1026D000226209784160E18C01390A04E1842DD13C
:1026E000C16821F08001C160C16841F04001C16052
:1026F00002B0B0BD490621D513F040011ED0C1681B
:1027000021F04001C1602021204684F8411002B030
:10271000BDE8B04000F042BC002101910168019188
:102720004168019101994069400613D4A08DE18D63
:10273000E28D002A18BF884240F0BA8102B0B0BDD5
:10274000CA0718BF13F4807240F0B6804A0700F140
:10275000B980BEE0E06B016849688AB2002AEDD01A
:10276000A38D9A42EAD2E1858069202800F09C80FE
:10277000206850E8030F216820F4807041E80302CC
:10278000DAB1206850E8030F216820F4807041E836
:10279000030292B1206850E8030F216820F4807092
:1027A00041E803024AB1206850E8030F216820F491
:1027B000807041E80302002ADAD1206850E8050F52
:1027C000216820F0010041E80502DAB1206850E8F4
:1027D000050F216820F0010041E8050292B1206850
:1027E00050E8050F216820F0010041E805024AB1D8
:1027F000206850E8050F216820F0010041E805023B
:10280000002ADAD1206850E8050F216820F0400046
:1028100041E80502DAB1206850E8050F216820F090
:10282000400041E8050292B1206850E8050F216898
:1028300020F0400041E805024AB1206850E8050F49
:10284000216820F0400041E80502002ADAD120206A
:1028500084F8420000202063206850E8030F2168BC
:1028600020F0100041E80302DAB1206850E8030FBD
:10287000216820F0100041E8030292B1206850E87E
:10288000030F216820F0100041E803024AB12068DC
:1028900050E8030F216820F0100041E80302002AED
:1028A000DAD1E06BFFF704F802206063A08DE18DC0
:1028B000401A81B2204674E1626C42F00102626407
:1028C0004A0706D5BEF1000F03D0626C42F0020247
:1028D00062648A0706D5BEF1000F03D0626C42F035
:1028E00004026264BCF1000F09D545EA0E02B2FA97
:1028F00082F2520903D1626C42F008026264626C97
:10290000002A3FF41BAF11F0200118BF002D03D0A7
:10291000204602F06BF920684069616C00F04000CD
:1029200001F00801401800F0B58000BF206850E8B1
:10293000030F216820F4907041E80302BAB32068C5
:1029400050E8030F216820F4907041E8030272B34D
:10295000206850E8030F216820F4907041E80302DA
:102960002AB3206850E8030F216820F4907041E8F2
:102970000302002ADAD11AE0206850E8050F216826
:1029800020F0010041E80502DAB1206850E8050FA7
:10299000216820F0010041E8050292B1206850E86A
:1029A000050F216820F0010041E805024AB12068C6
:1029B00050E8050F216820F0010041E80502002AD7
:1029C000DAD1206B012824D1206850E8030F216858
:1029D00020F0100041E80302DAB1206850E8030F4C
:1029E000216820F0100041E8030292B1206850E80D
:1029F000030F216820F0100041E803024AB120686B
:102A000050E8030F216820F0100041E80302002A7B
:102A1000DAD1202084F84200002020632068406939
:102A200040063FD5206850E8050F216820F040009F
:102A300041E80502DAB1206850E8050F216820F06E
:102A4000400041E8050292B1206850E8050F216876
:102A500020F0400041E805024AB1206850E8050F27
:102A6000216820F0400041E80502002ADAD1E06B3D
:102A7000C0B144F63501C0F600014163FEF73CFFEA
:102A800000283FF45BAEE06B416B02B0BDE8B040A4
:102A9000084700BF2046FFF7C5FD0020606402B074
:102AA000B0BD00BF204602B0BDE8B040FFF7BABDE0
:102AB000401A216851E8031F226821F4907142E80E
:102AC0000313DBB1216851E8031F226821F49071E0
:102AD00042E8031393B1216851E8031F226821F4EF
:102AE000907142E803134BB1216851E8031F22683B
:102AF00021F4907142E80313002BDAD1216851E8E8
:102B0000051F226821F0010142E80513DBB12168AD
:102B100051E8051F226821F0010142E8051393B135
:102B2000216851E8051F226821F0010142E80513E0
:102B30004BB1216851E8051F226821F0010142E8EC
:102B40000513002BDAD1202184F8421000212163E3
:102B5000216851E8031F226821F0100142E80313A5
:102B6000DBB1216851E8031F226821F0100142E81F
:102B7000031393B1216851E8031F226821F010016B
:102B800042E803134BB1216851E8031F226821F08A
:102B9000100142E80313002BDAD1022281B2204651
:102BA000626302B0BDE8B040FFF73ABD216A31F878
:102BB000022B6FF35F22426021628CE5002804BF84
:102BC0000120704710B5044690F8410028B9002054
:102BD00084F84000204600F063F8242084F8410087
:102BE0002068D4E90212C36823F40053C360036968
:102BF00023F440531A430261D4E904231143C26809
:102C0000194341F20C639A431143C1604169A269BF
:102C100021F44071114343F60002C4F201029042D4
:102C2000416103D0FFF7E4FA02E000BFFFF7F4FAD6
:102C30006268192148439100B0FBF1F048F21F513E
:102C4000C5F2EB11A0FB01235A094FF69C73C0F6A5
:102C5000FF7302FB0300322303EB0010A0FB010112
:102C6000F02303EA5113206803EB0212C1F343116E
:102C700011448160016921F490410161416921F0B1
:102C80002A014161C16841F40051C1600020202146
:102C9000606484F8411084F84210606310BD000045
:102CA0002DE9F04186B0044644F200402168C4F2A8
:102CB000000000268142049602D006B0BDE8F081F3
:102CC00041F21801C4F202014A6840F26C0842F471
:102CD00000324A604A6800F5444002F40032019232
:102CE000019A0A68C4F2020842F004020A60096804
:102CF00001F00401019101990C210291022103913B
:102D0000059102A9FEF7C2FF41F23805C2F20005A3
:102D100080272846C5E90086C5E90267C5E904663B
:102D2000C5E90666FEF712FF002818BFFEF718FD7A
:102D3000E5636C6241F27C0508F11400C2F2000503
:102D40001021002285E887002846C5E90422C5E94C
:102D50000622FEF7FBFE002818BFFEF701FD262025
:102D600000210022A5636C62FFF726F92620FFF7F9
:102D70000FF906B0BDE8F08170B582B0044690F856
:102D8000420020280AD113460A4600294FF00100CC
:102D900018BF002B06D102B070BD00BF022002B0E8
:102DA00070BD00BF002522202563A262A385656453
:102DB00084F842002168E06B44F6BD1C44F61D3ED9
:102DC00044F64106C0F6000CC0F6000EC0F6000640
:102DD0000431C0E90ACEC0E90C65FEF7FBFE01959F
:102DE000206801680191406801900198206928B32A
:102DF000206850E8030F216840F4807041E8030226
:102E0000E2B1206850E8030F216840F4807041E887
:102E100003029AB1206850E8030F216840F48070E3
:102E200041E8030252B1206850E8030F216840F4E2
:102E3000807041E80302002ADAD100BF206850E820
:102E4000050F216840F0010041E80502E2B1206869
:102E500050E8050F216840F0010041E805029AB1F1
:102E6000206850E8050F216840F0010041E80502A4
:102E700052B1206850E8050F216840F0010041E898
:102E80000502002ADAD100BF206850E8050F21684A
:102E900040F0400041E80502DAB1206850E8050F33
:102EA000216840F0400041E8050292B1206850E8F6
:102EB000050F216840F0400041E805024AB1206852
:102EC00050E8050F216840F0400041E80502002A63
:102ED000DAD1002002B070BD7047000070470000DA
:102EE00070B5044690F8410020281CBF022070BD38
:102EF00000294FF001004DD0002A134608BF70BDD5
:102F00004FF0000C21202162A384E384C4F844C064
:102F100084F841002268A06B44F6353E44F6E5355E
:102F200044F64106C0F6000EC0F60005C0F60006E5
:102F30000432C0E90AE5C0E90C6CFEF74BFE2068DC
:102F40006FF04001016000BF206850E8050F216864
:102F500040F0800041E80502F2B1206850E8050F1A
:102F6000216840F0800041E80502AAB1206850E8DD
:102F7000050F216840F0800041E8050262B1206839
:102F800050E8050F216840F0800041E80502002A62
:102F9000DAD1002070BD00BF002070BD006844F28F
:102FA0000041C4F20001884218BF704740F2C000DF
:102FB000C2F200000021017070470000704700005D
:102FC000FEE700007047000049B1022906D0012940
:102FD00012BF002001300078704700BF0230007837
:102FE0007047000002290BD0012911D0C1B9017826
:102FF000B1B103300078B0FA80F04009704700BFEB
:10300000817869B105300078B0FA80F040097047E6
:10301000417829B104300078B0FA80F04009704757
:1030200000207047B0B504460078B4F8011040F6AF
:103030000005C4F20105E070A18028460221FEF7D8
:1030400033FFB0FA80F04009207028461021FEF7C7
:103050002BFFB0FA80F04009607005F58060012117
:10306000FEF722FFB0FA80F04009A070B0BD00006A
:10307000FEE70000FEE700002DE9F04381B090F884
:10308000505F7DB304468846002600F5436908E09A
:10309000013D013E84F8505F0136F0B2E9B288424A
:1030A00020D2F7B204EB0710D0F8340C414602F0FE
:1030B0000FFF0028F0D1E8B20138B842E8D9030187
:1030C00059F803303A0109EB001049F80230D0E911
:1030D0000123C06809EB0711C1E90123C86094F816
:1030E000505FD5E701B0BDE8F083000070470000F5
:1030F0002DE9F047044690F8B006002846D0002697
:1031000006E000BF013694F8B006F1B281423DD22C
:103110005FFA86F808EB480004EB001797F84700C1
:103120000028EFD097F846000028EBD007F12002E6
:10313000D4E90009D2E9001A03F094FA054648469A
:10314000514603F08FFA014603F082F88146284683
:10315000294603F07DF8494602F036FE02F01EFED5
:10316000E269396C0546104602F02EFE01462846FB
:1031700002F0A7FE0028C5D1208A41461E382082D1
:103180002046FDF7D3FC013EBCE700BF94F8B10632
:10319000002808BFBDE8F087002605E0013694F856
:1031A000B106F1B281423FD25FFA86F808EB4800DF
:1031B00004EB401797F819030028EFD097F818038D
:1031C0000028EBD007F53C72D4E90009D2E9001AD7
:1031D00003F048FA05464846514603F043FA0146D3
:1031E00003F036F881462846294603F031F849466F
:1031F00002F0EAFD02F0D2FDE269D7F810130546AD
:10320000104602F0E1FD0146284602F05AFE002871
:10321000C4D1208A4146A0F57A7020822046FDF76D
:103220006BFC013EBAE700BFBDE8F0872DE9F04F27
:1032300083B09346D0E90074D0E9026280468A46A2
:103240002046114603F00EFA0021C8F80400C4F22B
:103250003421304602F056FE0021C4F2400102F053
:10326000F7FF0146384602F0AFFD48F20001C4F214
:103270008941064602F01EFE0025C4F2C82500283A
:103280001CBF48F20006C4F289463046294602F0C7
:1032900011FE002808BF2E46BBF1000FC8F80060E1
:1032A0004ED0CDE901740AF108044FF0010900265F
:1032B0000BE000BF01365E454FF0000938BF4FF00C
:1032C0000109B34504F1100427D060790028F1D03A
:1032D000D8E9000A54E9021503F0C4F9074650463C
:1032E000294603F0BFF9014602F0B2FF0546384611
:1032F000394602F0ADFF294602F066FD02F04EFDB0
:10330000D8F81C2021680546104602F05DFD0146F4
:10331000284602F0E4FD0028CCD05FEAC970DDE960
:1033200001200DD0B8F81010C8F800200239A8F814
:1033300010100021C4F2701102F046FDC8F804001C
:1033400003B0BDE8F08F0000F0B581B00E46044632
:1033500008460021FFF738FE0025CCF2342578B16D
:10336000A7680021CCF23421384602F0B1FD38B90B
:103370000021CBF68071384602F026FD06462EE08D
:1033800030460121FFF720FEA66868B10021C4F293
:103390003421304602F095FD30B930464FF07E5171
:1033A00002F012FD06461AE026F000404FF07F5171
:1033B00002F095FD10B1002611E000BF304600215B
:1033C00002F086FD002819BF30464FF07F510021E2
:1033D000CBF6C07108BF304602F0F6FC064600216D
:1033E000C4F23421304602F065FD00281CBF0026DF
:1033F000C4F234263046294602F05CFD002808BF9E
:103400002E46A66001B0F0BDF0B581B00446808ABA
:1034100010B101B0F0BD00BFA66800271E20C4F2A5
:10342000A007A0823046394602F044FD40B146F282
:10343000AA10CBF69C7094F82C1C3129E9D813E023
:103440000021CCF2A001304602F03BFD002807BF6E
:103450004BF60C60CBF6F57040F6DB70CBF6C9701E
:1034600094F82C1C3129D4D8C1EBC10204EB8202A0
:10347000C2F8BC064FF48770D4E90036A2F8C4063F
:1034800040F201104FF08145A2F8CC06481CC2F86A
:10349000B436C2F8B866C2F8C056C2F8C87684F826
:1034A0002C0C01B0F0BD000070B51D461646044658
:1034B000FFF74AFF204631462A46FFF7B7FEA08AAB
:1034C00000281CBF0138A08270BD00002DE9F04F1C
:1034D00085B090F82C6C002E00F0BA81824600F581
:1034E0004360002401900DE05046394600F0B4F9E5
:1034F0009AF82C6C013C00BF0134E0B2F1B2884272
:1035000080F0A681E1B2C1EBC1000AEB800797F819
:10351000CD060028F0D097F8CC0607F2B46B00284F
:10352000049743D09AF8B006002800F0898007F588
:10353000D9694FF000080027CDE9021405E000BF6B
:103540000137874208F130085ED20AEB080494F88C
:1035500047100029F4D094F846100029F0D0216AD1
:10356000DBE9000503F07EF8616A0646284603F0B1
:1035700079F8014602F06CFE05463046314602F00D
:1035800067FE294602F020FC02F008FCD9F8002072
:10359000216C0546104602F017FC0146284602F051
:1035A0009EFC98BB9AF8B006CAE700BFDBE90005AD
:1035B000DAE9001603F056F807462846314603F0CC
:1035C00051F8014602F044FE054638463946049F4C
:1035D00002F03EFE294602F0F7FB02F0DFFBD7F8CF
:1035E000C826DAF81C100546104602F0EDFB01462D
:1035F000284602F066FC002840F08980BAF81000E6
:103600001438AAF810007DE0039C18E094F8380004
:10361000013841B2002984F838000ADCB4F84400CB
:10362000DAF818100844CAF81800F9B25046FDF745
:103630007DFA0299504600F00FF9039C013C049F6B
:103640009AF82C6CE0B2B042BFF456AF9AF8B106CB
:1036500000285CD0039407F5D9680024002707E010
:103660009AF8B1060137874204F1600480F09E8029
:103670000AEB040595F819130029F3D095F81813EF
:103680000029EFD0D5F8F012DBE9000902F0EAFFDB
:10369000D5F8F4120646484602F0E4FF014602F06F
:1036A000D7FD81463046314602F0D2FD494602F050
:1036B0008BFB02F073FBD8F80020D5F810130646F8
:1036C000104602F081FB0146304602F008FC00285B
:1036D000C6D095F80803013841B285F808030029DF
:1036E0004FF01400A5F816030ADCB5F81403DAF855
:1036F00018100844CAF81800F9B25046FDF7FCF952
:10370000DDE90347E1B2504600F0A6F8013C9AF823
:103710002C0CE1B2814251D29AF8500F00284DD0C2
:10372000DDF80490CDE9021407F5D964002707E01D
:103730009AF8500F0137874209F1100980F0808014
:1037400099F80D100029F5D0DBE90005D9E900163C
:1037500002F088FF80462846314602F083FF01468A
:1037600002F076FD05464046414602F071FD2946CD
:1037700002F02AFB02F012FB2268D9F80810054675
:10378000104602F021FB0146284602F0A8FB002863
:10379000CED00299504600F05FF8039C013C9AF8A5
:1037A0002C6CE7B2B742BFF4A7AE0DE0DDE90347EA
:1037B0009AF82C0CE1B28142AED300BF9AF82C6C7F
:1037C000E7B2B742BFF498AE0498B0F8C406002838
:1037D0003FF48AAEDBF800500021284602F07FFB60
:1037E00000287FF481AE00212846C4F2964102F001
:1037F00061FB00287FF478AEDAF8585F0021DBF82F
:1038000004802846CCF2483102F0DEFA01464046F8
:1038100002F065FB00287FF467AE00212846C4F261
:10382000484102F0D1FA0021C4F2483102F0CCFA4A
:103830000146404602F04CFB00283FF455AE5BE6E3
:10384000039C9AF82C6CE7B2B742BFF455AEBBE7C5
:1038500005B0BDE8F08F00002DE9F04390F82C2C66
:10386000531E8B421BDD00F2B462C3EBC30E02EBAE
:103870008E03C1EBC10CD3E90189D3E9036752F888
:103880002E405D6902EB8C0142F82C404D61C1E98C
:103890000367C1E901899A698A6190F82C2C511E4D
:1038A00080F82C1CBDE8F0832DE9F041804690F8AB
:1038B0002C0C002808BFBDE8F08108F2B467002492
:1038C00005E000BF0134844207F11C0720D2797E55
:1038D0000029F7D0B86802F0A9F8D7E902613D687D
:1038E00002F0B6FC294602F06FFA3860304602F06A
:1038F00091F9F9687D6802F0ABFC294602F064FAA0
:10390000398A786098F82C0C01393982DAE700BFDF
:10391000BDE8F08110B540F2C00CC2F2000CDCF83A
:103920000810C96B09684A68BCF804E0BCF80400D8
:10393000C2F580618BB20C1A1044734538BFC0F5D4
:103940000064A0B240F29A32904228BFACF8041052
:1039500010BD000040F2C00341F2C021C2F20003DA
:103960004FF0000CC2F200014FF480629860A3F89F
:1039700001C0A3F806C0FFF7FFB900002DE9F04F22
:1039800081B040F2C006C2F20006B16851B184466F
:10399000C86B00684068B188C0F580601FFA80F885
:1039A000414503D101B0BDE8F08F00BF707841F20E
:1039B000C02941F2C00BC2F20009C2F2000B072578
:1039C0004FF0000E4FF0AA0A14E000BFF088B1706B
:1039D000421CF2800BF8001002207070B188013197
:1039E000B180B188B1F5806F28BFA6F804E0B18836
:1039F0004145D7D0B188C2B219F80110022A0DD0C2
:103A0000012AE3D0002AE9D1AA2940F08F800120C1
:103A10007070F0808BF800A0E0E700BFB278F38808
:103A2000023A581C042AF0800BF8031000F25E8260
:103A3000DFE812F006005E027E002A03D40100BF18
:103A4000552940F0FF8380B20D2840F0FB83002011
:103A5000002200BF0BEB00014B785A4053B25700D5
:103A6000002B48BF85EA42077AB27B00002A48BF94
:103A700085EA47035AB25F00002A48BF85EA430738
:103A80007AB27B00002A48BF85EA47035AB25F003A
:103A9000002A48BF85EA43077AB27B00002A48BF64
:103AA00085EA47035AB25F00002A48BF85EA430708
:103AB0007BB27A00002B48BF85EA47020A2800F053
:103AC0005F838978023051404AB24B00002A48BFD8
:103AD00085EA410359B25A00002948BF85EA4302EA
:103AE00051B25300002948BF85EA420359B25A0037
:103AF000002948BF85EA430251B25300002948BF5C
:103B000085EA420359B25A00002948BF85EA4302B8
:103B100051B25300002948BF85EA420359B25A0006
:103B2000002948BF85EA430294E700BF002055E71B
:103B3000552940F04E8180B2082840F04A819BF917
:103B400001004100002848BF85EA400148B24A0010
:103B5000002848BF85EA410250B25100002848BF02
:103B600085EA420148B24A00002848BF85EA41027E
:103B700050B25100002848BF85EA420148B24A00CD
:103B8000002848BF85EA410250B25100002848BFD2
:103B900085EA420148B24B00002848BF85EA41034C
:103BA0009BF802709BF803207B405FB25C009BF89F
:103BB00004109BF80500002F48BF85EA430463B258
:103BC0006700002B48BF85EA44077BB27C00002BCE
:103BD00048BF85EA470463B26700002B48BF85EA07
:103BE00044077BB27C00002B48BF85EA470463B2E0
:103BF0006700002B48BF85EA44077BB27C00002B9E
:103C000048BF85EA470463B26700002B48BF85EAD6
:103C100044077A4053B25700002B48BF85EA420759
:103C20007AB27B00002A48BF85EA47035AB25F0098
:103C3000002A48BF85EA43077AB27B00002A48BFC2
:103C400085EA47035AB25F00002A48BF85EA430766
:103C50007AB27B00002A48BF85EA47035AB25F0068
:103C6000002A48BF85EA43077AB27B00002A48BF92
:103C700085EA470359404AB24B00002A48BF85EA0B
:103C8000410359B25A00002948BF85EA430251B2A4
:103C90005300002948BF85EA420359B25A0000295F
:103CA00048BF85EA430251B25300002948BF85EA64
:103CB000420359B25A00002948BF85EA430251B273
:103CC0005300002948BF85EA420359B25A0000292F
:103CD00048BF85EA4302504041B24200002948BF34
:103CE00085EA400250B25100002848BF85EA4201EF
:103CF00048B24A00002848BF85EA410250B251004C
:103D0000002848BF85EA420148B24A00002848BF5F
:103D100085EA410250B25100002848BF85EA4201BD
:103D200048B24A00002848BF85EA410250B251001B
:103D300000289BF8060048BF85EA420141404AB28C
:103D40004B00002A48BF85EA410359B25A000029B6
:103D500048BF85EA430251B25300002948BF85EAB3
:103D6000420359B25A00002948BF85EA430251B2C2
:103D70005300002948BF85EA420359B25A0000297E
:103D800048BF85EA430251B25300002948BF85EA83
:103D9000420359B25A00002948BF85EA4302D1B212
:103DA000814216D1DBF802A0604651466446FCF71A
:103DB000E7FB20465146FFF75FF9D4F8540F4FF068
:103DC000000EA44628B1514600F0B6FF4FF0000E99
:103DD000A446002070704FF0AA0AFFE5552940F074
:103DE000318280B20C2840F02D8200226FF0010059
:103DF0000BEB0001CB7809795A4053B25700002BE6
:103E000048BF85EA42077AB27B00002A48BF85EAAC
:103E100047035AB25F00002A48BF85EA43077AB2D7
:103E20007B00002A48BF85EA47035AB25F00002A98
:103E300048BF85EA43077AB27B00002A48BF85EA7B
:103E400047035AB25F00002A48BF85EA43077AB2A7
:103E50007B00002A48BF85EA470359404AB24B001D
:103E6000002A48BF85EA410359B25A00002948BFD9
:103E700085EA430251B25300002948BF85EA420354
:103E800059B25A00002948BF85EA430251B2530093
:103E9000002948BF85EA420359B25A00002948BFA9
:103EA00085EA430251B25300002948BF85EA420324
:103EB00059B25A00002900F1020048BF85EA4302C6
:103EC000082895D19BF80A00D1B2814240F0BA810E
:103ED000DCF8540F002800F0B581DBF80210DBF8A5
:103EE0000620644600F00AFF45E100BF022075E5A8
:103EF000552940F0A78180B2112840F0A38100200D
:103F0000002300BF0BEB00014F788A787B405FB243
:103F10005C00C978002F48BF85EA430463B267009C
:103F2000002B48BF85EA44077BB27C00002B48BFCA
:103F300085EA470463B26700002B48BF85EA44075F
:103F40007BB27C00002B48BF85EA470463B2670060
:103F5000002B48BF85EA44077BB27C00002B48BF9A
:103F600085EA470463B26700002B48BF85EA44072F
:103F70007A4053B25700002B48BF85EA42077AB215
:103F80007B00002A48BF85EA47035AB25F00002A37
:103F900048BF85EA43077AB27B00002A48BF85EA1A
:103FA00047035AB25F00002A48BF85EA43077AB246
:103FB0007B00002A48BF85EA47035AB25F00002A07
:103FC00048BF85EA43077AB27B00002A48BF85EAEA
:103FD000470359404AB24B00002A48BF85EA4103D3
:103FE00059B25A00002948BF85EA430251B2530032
:103FF000002948BF85EA420359B25A00002948BF48
:1040000085EA430251B25300002948BF85EA4203C2
:1040100059B25A00002948BF85EA430251B25700FD
:10402000002948BF85EA420779B27B00002900F1E8
:10403000030048BF85EA47030F287FF463AF9BF86E
:104040000F00D9B2814240F0FD809CF8500F31281A
:1040500000F2F880DBF80B109BF80220DBF8073049
:10406000DBF803700CEB0014C4F8381C012101309C
:10407000C4F8307CC4F8343C84F83C2C84F83D1CF3
:104080008CF8500FDEE000BF552940F0DB8080B295
:10409000042840F0D7809BF901004100002848BF68
:1040A00085EA400148B24A00002848BF85EA41023B
:1040B00050B25100002848BF85EA420148B24A0088
:1040C000002848BF85EA410250B25100002848BF8D
:1040D00085EA420148B24A00002848BF85EA410209
:1040E00050B25100002848BF85EA420148B200287A
:1040F0009BF802004FEA410248BF85EA410280EA8C
:1041000002014AB24B00002A48BF85EA410359B276
:104110005A00002948BF85EA430251B253000029E2
:1041200048BF85EA420359B25A00002948BF85EAD0
:10413000430251B25300002948BF85EA420359B2F5
:104140005A00002948BF85EA430251B253000029B2
:1041500048BF85EA420359B25A00002948BF85EAA0
:104160004302D1B281426DD160466446FDF70EFB39
:104170002046FDF719FB4FF0000EA44662E000BF99
:104180009BF80B00D1B281425CD19BF80220DBF896
:104190000310DBF80700012A24D0002A52D19CF832
:1041A000B0260E2A4ED802EB42030CEB0313C3E9F0
:1041B0000810586340F201109863962098870020F9
:1041C000C4F2A01018646420C0F20010C3E9110EFC
:1041D000012083F84E00501CA3F84CE08CF8B00688
:1041E00030E000BF9CF8B126092A2BD802EB42032D
:1041F0000CEB4313C3E9BC10C3F8040340F20330D3
:10420000C3F80803F020A3F80C030020C4F2F01058
:10421000C3F810034FF49670C3F814034FF4807082
:10422000A3F81803022083F82203501CC3F81CE3F0
:10423000A3F820E3A3F824E3C3F828E3A3F84CE3AE
:104240008CF8B1060020FFF7C8BB00002DE9F0474D
:1042500040F2C008C2F2000898F80010002940F0AF
:10426000E1828646D8F80800002808BFBDE8F0873C
:1042700041F2C061C2F200014FF4D5720A809EF88B
:1042800000209EF810308A709EF801209EF8B056EB
:10429000CA709EF80220002D0A719EF803204FF08C
:1042A000000C4A719EF804208A719EF80520CA719C
:1042B0009EF806200A729EF807204A729EF808208F
:1042C0008A729EF80920CA729EF80A200A739EF824
:1042D0000B208B734A739EF811209EF81830CA7316
:1042E0009EF819200B749EF814304A749EF815201D
:1042F0008B74CA7452D00EF123064FF0150A0127B1
:104300004FF0000996F82420E2B396F82320CAB3B0
:104310001FFA8AF501F805C00AF1010216F8035CDC
:1043200092B28D540AF1020416F8022CA4B20A5576
:104330000AF1030516F8012CADB24A550AF104043E
:104340003278A4B20A550AF105057278ADB24A5521
:104350000AF10604B278A4B20A550AF10705F27808
:10436000ADB24A550AF108043279A4B20A550AF1ED
:104370000905727DACB20A559EF8B0560AF10A0AD8
:1043800009F10109AF4205D23036B9F1060F07F144
:104390000107B7D39EF8B15645B954E04FF0150A5E
:1043A0004FF000099EF8B156002D4CD0B9F1050F21
:1043B00049D80EF53C764FF0010C012796F82920DC
:1043C000CAB396F82820B2B31FFA8AF401F804C0E1
:1043D0000AF10102347892B28C540AF10205727823
:1043E000ADB24A550AF10304B278A4B20A550AF1F3
:1043F0000405F278ADB24A550AF105043279A4B247
:104400000A550AF106057279ADB24A550AF1070458
:10441000B279A4B20A550AF10805F279ADB24A554B
:104420000AF10904327EA4B20A559EF8B1560AF187
:104430000A0A09F10109AF4205D20137B9F1060FA5
:1044400006F16006BAD39EF82C2C0AF1010481F81B
:104450001490CAB30EF2B4674FF0000C012500BFF0
:104460007E7E46B33A78A3B2CA54661C7A78B6B256
:104470008A55A31CBA789BB2CA54E61CFA78B6B225
:104480008A55231D3A799BB2CA54661D7A79B6B211
:104490008A55A31DBA799BB2CA54E61DFA79B6B201
:1044A0008A5504F108033A7E9BB2CA549EF82C2C1C
:1044B00009340CF1010C954208D20135BCF10A0F08
:1044C00007F11C07CCD301E04FF0000C1FFA8AF271
:1044D00001F802C0DEF8542F04F10109002A00F0AF
:1044E000A18092F89050032D28BF0325002D00F0E5
:1044F0009980DEF8542F1FFA89F31778A61CCF5441
:104500005378B6B28B55E71C9378BFB2CB55261DB6
:10451000D378B6B28B55671D1379BFB2CB55A61DA4
:104520005379B6B28B55E71D9379BFB2CB5504F1E1
:104530000806D379B6B28B5504F10907127C04F151
:104540000A09BFB2012DCA556DD0DEF8542F1FFAEB
:1045500089F3177E04F10B06CF54537EB6B28B5508
:1045600004F10C07937EBFB2CB5504F10D06D37E48
:10457000B6B28B5504F10E07137FBFB2CB5504F1D1
:104580000F06537FB6B28B5504F11007937FBFB26D
:10459000CB5504F11106D37FB6B28B5504F1120747
:1045A00092F8282004F11309BFB2022DCA553AD05F
:1045B000DEF8542F1FFA89F392F8307004F11406D4
:1045C000CF5492F83130B6B28B5504F1150792F8FA
:1045D0003230BFB2CB5504F1160692F83330B6B282
:1045E0008B5504F1170792F83430BFB2CB5504F164
:1045F000180692F83530B6B28B5504F1190792F8C7
:104600003630BFB2CB5504F11A0692F83730B6B245
:104610008B5504F11B0792F8402004F11C09BFB22E
:10462000CA5500E00025A2B28D549EF8582F1FFAFB
:1046300089F68A5509F101079EF8592FBFB2CA556C
:1046400009F102069EF85A2FB6B28A5509F10307FE
:104650009EF85B2FBFB2CA5509F104069EF8642F7D
:10466000B6B28A5509F105079EF8652FBFB2CA5543
:1046700009F106069EF8662FB6B209F107078A55BA
:104680009EF8676F09F10805BAB21FFA85FE8E54CD
:1046900052B1012A02F0010C08D100220025BCF120
:1046A000000F79D1ADE000BF0025AAE022F00102A1
:1046B000C2F1000A00256FF0010607278A19D37896
:1046C00012796B405DB25C00002D48BF87EA43045D
:1046D00063B26500002B48BF87EA44056BB26C00EB
:1046E000002B48BF87EA450463B26500002B48BF32
:1046F00087EA44056BB26C00002B48BF87EA45048B
:1047000063B26500002B48BF87EA44056BB26C00BA
:10471000002B48BF87EA450463B26500002B48BF01
:1047200087EA44056A4053B25400002B48BF87EA29
:10473000420462B26300002A48BF87EA44035AB2C7
:104740005C00002A48BF87EA430462B26300002A83
:1047500048BF87EA44035AB25C00002A48BF87EA90
:10476000430462B26300002A48BF87EA44035AB296
:104770005C00002A48BF87EA430462B20236650043
:10478000002A0AEB060248BF87EA4405023295D1A7
:10479000B21CBCF1000F34D00A44527882EA0503FF
:1047A0005FB25E000722002F48BF82EA430673B261
:1047B0007700002B48BF82EA46077BB27E00002BC1
:1047C00048BF82EA470673B27700002B48BF82EAEF
:1047D00046077BB27E00002B48BF82EA470673B2D1
:1047E0007700002B48BF82EA46077BB27E00002B91
:1047F00048BF82EA470673B27500002B48BF82EAC1
:10480000460509F1090209F10A0392B255278F54AE
:104810009AB201F80E50FEF763FB002804BF012096
:1048200088F80000BDE8F08770470000FDF748BB3E
:1048300070470000406A0021C185C184FDF7F2BEC7
:10484000406A01684A6990F84130212B2DD112F05D
:1048500080022AD00021C184016851E8031F026848
:1048600021F0C00142E80313DBB1016851E8031FE6
:10487000026821F0C00142E8031393B1016851E8D6
:10488000031F026821F0C00142E803134BB1016825
:1048900051E8031F026821F0C00142E80313002B16
:1048A000DAD1202180F841100168496990F842204E
:1048B000222A40F07D8011F0400179D00021C1858D
:1048C000016851E8031F026821F4907142E8031364
:1048D000BBB3016851E8031F026821F4907142E8FC
:1048E000031373B3016851E8031F026821F4907148
:1048F00042E803132BB3016851E8031F026821F457
:10490000907142E80313002BDAD11AE0016851E8F4
:10491000051F026821F0010142E80513DBB10168BF
:1049200051E8051F026821F0010142E8051393B127
:10493000016851E8051F026821F0010142E80513F2
:104940004BB1016851E8051F026821F0010142E8FE
:104950000513002BDAD1016B012924D1016851E83C
:10496000031F026821F0100142E80313DBB1016864
:1049700051E8031F026821F0100142E8031393B1CC
:10498000016851E8031F026821F0100142E8031397
:104990004BB1016851E8031F026821F0100142E8A1
:1049A0000313002BDAD1202180F84210002101638B
:1049B000416C41F010014164FDF734BE0168406A6A
:1049C0000968890600F19F800021C185016851E8CE
:1049D000031F026821F4807142E80313E3B1016808
:1049E00051E8031F026821F4807142E803139BB170
:1049F000016851E8031F026821F4807142E8031343
:104A000053B1016851E8031F026821F4807142E844
:104A10000313002BDAD100BF016851E8051F0268BB
:104A200021F0010142E80513BBB3016851E8051FFD
:104A3000026821F0010142E8051373B3016851E8EF
:104A4000051F026821F0010142E805132BB301683C
:104A500051E8051F026821F0010142E80513002B0F
:104A6000DAD11AE0016851E8051F026821F040011F
:104A700042E80513DBB1016851E8051F026821F027
:104A8000400142E8051393B1016851E8051F02682F
:104A900021F0400142E805134BB1016851E8051FC0
:104AA000026821F0400142E80513002BDAD12021F1
:104AB00080F84210016B012925D100BF016851E83F
:104AC000031F026821F0100142E80313DBB1016803
:104AD00051E8031F026821F0100142E8031393B16B
:104AE000016851E8031F026821F0100142E8031336
:104AF0004BB1016851E8031F026821F0100142E840
:104B00000313002BDAD100214163016B012918BF87
:104B1000FEF7E2B9818DFDF783BD0000406A0121F7
:104B20004163016B012918BFFEF7D8B9818D49088F
:104B3000FDF776BD0168406A0968890648BFFEF73F
:104B40002DBA0021C18400BF016851E8051F026829
:104B500021F0800142E8051383B3016851E8051F85
:104B6000026821F0800142E805133BB3016851E877
:104B7000051F026821F0800142E80513F3B10168C6
:104B800051E8051F026821F0800142E80513002B5F
:104B9000DAD113E0016851E8031F026841F04001D7
:104BA00042E80313002B08BF7047016851E8031F58
:104BB000026841F0400142E8031393B1016851E8F3
:104BC000031F026841F0400142E803134BB1016842
:104BD00051E8031F026841F0400142E80313002B33
:104BE000D8D17047406AFEF7E9B9000081B090F86B
:104BF0004210222921D183680246B3F5805F09D192
:104C000052F8281F52F8183C002B63D003685B68E9
:104C10000AE000BF52F8281F13B90369002BF5D032
:104C200003685B6803F07F030B701168013111604A
:104C3000C18D01390A04C18502D001B0704700BF9F
:104C40000168CA6822F02002CA60CA6822F4807231
:104C5000CA604A6922F001024A61202180F84210AC
:104C600000214163026B012A3CD10163016851E8D4
:104C7000031F026821F0100142E80313DBB1016851
:104C800051E8031F026821F0100142E8031393B1B9
:104C9000016851E8031F026821F0100142E8031384
:104CA0004BB1016851E8031F026821F0100142E88E
:104CB0000313002BDAD101680A68D20606D5002258
:104CC00000920A680092496800910099818D01B0B4
:104CD000FDF7A6BC026852686FF35F2221F8022B31
:104CE0008162A5E701B0FEF7F7B8000040F2780056
:104CF000C2F20000FDF7B2BCFEE7000010B590F86C
:104D000090C00023BCF1050F13D80CEB4C0E40F8FB
:104D10003E10002100EBCE04C4F23421C4E901218D
:104D2000E3602374638263610CF10101012380F865
:104D30009010184610BD00002DE9F04381B090F8A6
:104D400090706FB3814688460025002609E000BFB9
:104D5000013F013E89F890700136F5B2F8B2854204
:104D60001ED205EB450009EBC0046068414601F026
:104D7000AFF80028F0D1F8B20138A842E8D900EB2A
:104D8000400009EBC00159F830000F1DD1E9045172
:104D90008CCF84E88D00C4E9045199F89070D7E76E
:104DA00001B0BDE8F08300002DE9F04F87B0DDF8D9
:104DB00040A00692BAF1000F029000F0298103F1A1
:104DC0000800049000200590039113E006994046E6
:104DD000464601F07DF8002808BF5FEACB7000F07E
:104DE0000F81019803991328059800F1020005909E
:104DF00080F0FF8148680021CCF2964100F0E4FF8A
:104E000040F2CC08C2F20008D8F8001044F66D65F4
:104E1000C4F2C61543F2390701FB0574064624F0B7
:104E2000004001F099F94FF0405101F011FA0021D2
:104E3000CCF2FA3101F00CFA0146304600F0C4FF22
:104E400004FB0571064621F00040C8F8000001F09F
:104E500083F94FF0405101F0FBF90021C4F21641F3
:104E600001F0F6F90021C4F2963100F0ADFFDDF853
:104E700010808146012700250AE000BF0135554515
:104E80004FF0000738BF0127AA4508F1100829D0C4
:104E900098F805000028F1D058E90214484601F0BE
:104EA000E1FB83463046214601F0DCFB014601F080
:104EB000CFF904465846594601F0CAF9214600F098
:104EC00083FF00F06BFFD8F800100446084600216D
:104ED000C4F2482100F078FF0146204600F0F1FFBF
:104EE0000028CBD10699304600F0F2FF002808BF19
:104EF0005FEAC77005D1029890F89070062FC0F055
:104F00005C810599039841F00101406801910021FD
:104F1000CCF2964100F058FF40F2CC09C2F20009F1
:104F2000D9F8001044F66D66C4F2C61643F239078C
:104F300001FB0675044625F0004001F00DF94FF025
:104F4000405101F085F90021CCF2FA3101F080F9ED
:104F50000146204600F038FF05FB0671804621F02F
:104F60000040C9F8000001F0F7F84FF0405101F09F
:104F70006FF90021C4F2164101F06AF90021C4F270
:104F8000963100F021FF049E81464FF0010B002571
:104F90000CE000BF013555454FF0000B38BF4FF016
:104FA000010BAA4506F110063FF410AF70790028F6
:104FB000F0D056E90214484601F054FB074640463B
:104FC000214601F04FFB014601F042F90446384604
:104FD000394601F03DF9214600F0F6FE00F0DEFE14
:104FE0003168044608460021C4F2482100F0ECFE76
:104FF0000146204600F073FF0028CBD0E6E600BF54
:10500000029890F89070062FBFF4EBAED5E000BF89
:1050100040F2CC00C2F2000004684868002144F667
:105020006D6ACCF29641C4F2C61A00F0CDFE40F291
:10503000000881464FF0000B43F23905C4F2FA38FC
:1050400006E000BFBBF10F0F0BF1050B80F0CC8029
:1050500004FB0A5424F0004001F07EF84FF0304188
:1050600001F0F6F8414601F0F3F80146484600F039
:10507000ABFE04FB0A51064621F00044069900F0FD
:1050800027FF20B9029890F89070052F7ED904FB75
:105090000A5424F0004001F05FF84FF0304101F075
:1050A000D7F8414601F0D4F80146484600F08CFE9E
:1050B00004FB0A51064621F00044069900F008FF5F
:1050C00020B9029890F89070062F5FD304FB0A5421
:1050D00024F0004001F040F84FF0304101F0B8F802
:1050E000414601F0B5F80146484600F06DFE04FB6C
:1050F0000A51064621F00044069900F0E9FE20B965
:10510000029890F89070062F40D304FB0A5424F0C4
:10511000004001F021F84FF0304101F099F841468C
:1051200001F096F80146484600F04EFE04FB0A5195
:10513000064621F00044069900F0CAFE20B9029804
:1051400090F89070062F21D304FB0A5424F00040FD
:1051500001F002F84FF0304101F07AF8414601F0D9
:1051600077F80146484600F02FFE04FB0A51064638
:1051700021F00044069900F0ABFE00287FF462AFF6
:10518000029890F89070062FBFF45CAF40F2CC000C
:10519000C2F200000460204600F0DEFF4FF04051F4
:1051A00001F056F80021C4F2164101F051F8002137
:1051B000C4F2963100F008FE8146029B07EB4701DE
:1051C00003EBC10043F831900021C4F234210022E6
:1051D000C0E90161791CC26002744282426183F8B5
:1051E000901007B0BDE8F08F40F2CC00C2F2000092
:1051F0000460002007B0BDE8F08F000080B5912169
:10520000FBF76EF880BD00002DE9F04F8BB004462F
:1052100090F89000002800F0E780894601F543608F
:105220004FF0000B0290CDE9031424E099F8507F71
:10523000079A029B204651460097FFF7B5FD0546A9
:1052400090B1D5E90010C9F800100021CCF2163158
:1052500000F0BAFD0999C9F8040001200A9A087003
:10526000B42111802874698294F890000BF1010B2D
:10527000834580F0B9800BEB4B0004EBC00ADAF8F1
:105280000C004FF0824100F09FFD0021C4F2B431C8
:1052900000F08AFCDAF81410CAF80C0008464CF644
:1052A000CD41C3F6CC5100F08FFD40F6DB71C4F266
:1052B000C90100F079FC524632F8121FCAF81400F6
:1052C00031B1481E0104108004BF00208AF810008C
:1052D000514611F8100F0A9200280991C4D1D9E95A
:1052E0000006DAE9001701F0BDF9054630463946F7
:1052F00001F0B8F9014600F0ABFF06462846294602
:1053000000F0A6FF314600F05FFD00F047FDDAF83F
:105310000810054608460021C4F2C81100F054FDEB
:105320000146284600F0CDFD00289DD194F89080DC
:10533000D9F85C0FB8F1000F07903FF477AF002069
:105340004FF0000908900020069005E009F10109DE
:10535000C84504F118043FD0CB45F7D0207C002885
:10536000F4D16768DAF80400394601F07BF90021CE
:10537000C4F29641064600F0B2FD0028E6D10021B5
:105380003046C4F2E14100F09CFD0028DED10799CF
:10539000384600F09DFD0028D8D100213046CCF2DF
:1053A000964100F011FD089F20F00045B7FA87F004
:1053B000069E400905902846314600F090FD0028E1
:1053C00018BF01200599084318BF2E46069618BF3E
:1053D00027460897BAE700BF089DDDE90394002D32
:1053E0007FF42FAF22E700BF0BB0BDE8F08F0000C5
:1053F00090B0FCF773FD00261020CDE90B660B90F2
:105400004FF46010022401270F9006A8CDE9096629
:10541000CDE9076606940A97CDE90D46FCF710FF23
:105420000F2001A951C14FF48060CDE9040601A805
:105430000221FCF7FDFD41F218050996C4F20205B0
:10544000286844F2004840F004002860286806A953
:1054500000F00400019001982868C4F2000840F0B0
:1054600008002860286806AC00F008000190019848
:105470001220C1C108F544402146FCF707FC08F59D
:1054800048402146CDE906760897FCF7FFFB062049
:1054900000210022FCF790FD0620FCF779FD072093
:1054A00000210022FCF788FD0720FCF771FD0A208F
:1054B00000210022FCF780FD0A20FCF769FD55F869
:1054C000040C002140F0010045F8040C55F8040CD0
:1054D000002200F00100069006981020FCF76CFDF9
:1054E0001020FCF755FD112000210022FCF764FD7F
:1054F0001120FCF74DFD40F27009C2F200094D4643
:1055000045F8088F4FF4E1300C21C5E90106284623
:10551000C5E90366C5E90516EE61FDF74FFBFCF72B
:10552000C9FC40F2CC01C2F200010860FDF74AFD5F
:105530002846FEF70FFA40F2D005C2F200052846D1
:10554000FCF732F9FCF7B6FC4AF6AB284EF6EF6AE8
:1055500044F244440746CAF6AA28CEF6EE6AC0F2E0
:10556000444400BFFCF7A6FC0646C01B0F282BD9FD
:105570002846FEF703FA4846FDF754FD4846022147
:10558000FDF730FD10B12846FDF73EFF95F8600F9E
:1055900018B128464946FCF75FF9D5F8640F00FBBF
:1055A00008F1B1F1553F04D82846FEF74FFED5F873
:1055B000640F01303746C5F8640F00FB0AF04FEA6C
:1055C000B000A042CED807E0D5F8640F00FB0AF087
:1055D0004FEAB000A042C5D8FEF79CF9C2E74100EF
:1055E000080218BF04200A0E18BF40F001004FF057
:1055F0007F4232EA010108BF40F00200012808BFE3
:1056000005207047012101F0D4B800F0DDBB002176
:10561000084600F077BC6FF05E01080701F0C9B8DA
:105620002DE9F04D0D4614464FF07F41B1EB440F8C
:105630009EBF4FF0FF312960BDE8F08D4FF0004074
:1056400040EA0421C4F3C750783810F01F024A4BD7
:105650004FEA601CC2F120067B44C4F3C750A0F19E
:1056600078004FEA601003EB800053F82C3008BF3D
:10567000D0E901C612D0D0F804C093402CFA06F746
:105680003B4387680CFA02FC27FA06F8C06807FA61
:1056900002F2F0404CEA080C42EA0006A3FB013299
:1056A000ACFB01C0A6FB016101EB0C068E4234BFCE
:1056B0004FF0010C4FF0000CC1186144BCF1000F19
:1056C00002D0814202D903E0814201D2012000E0F0
:1056D0000020104400F120024FEA92188006CA0C04
:1056E00040EA42304F03C5F8008000F01DFD8246BD
:1056F000384600F031FD6FF0120101F05AF807460C
:10570000304600F029FD6FF0250101F052F8834684
:105710003946504600F058FB594600F055FB00F55D
:1057200000666FF30B065146304600F09BFF39468A
:1057300000F098FF594600F003FF104900F088FD83
:1057400007460F49304600F083FD394600F03CFB28
:1057500007460C49304600F07BFD394600F034FB2B
:1057600014F0004F08BFBDE8F08DC8F1805180F003
:1057700000402960BDE8F08DD4110000DB0FC92F77
:1057800022AAFD290000C92F2DE9F0474FF06842F9
:1057900002EB40030C460546B3F1654F3CBF02EBFC
:1057A0004102B2F1654F80F0CD8000BFC0F3C75217
:1057B000C1F3C753D21A1B2A06DD10F0004F14BFE5
:1057C00087488848BDE8F08712F11A0F2FDA11F0E8
:1057D000004F06D010F0004F0CBF83488348BDE84F
:1057E000F0872146284600F08DFB0646FFF7F7FEBE
:1057F000042808BFFFF70FFF2846FFF7F0FE054615
:105800002046FFF7ECFE04463046FFF7E8FE042D85
:1058100018BF052D08D1042C18BF052C04D1002871
:1058200004BF0220FAF7DDFD3046BDE8F0874200F4
:10583000B2EB410F25D910F0004F19BF6C4F6D4EE0
:105840006D4F6E4E224685F0004415460A4680F0A4
:10585000004110460A1A5200B2F1807F3ED2484001
:105860006749DFF8A0A110F0004F18D04FF03F4873
:10587000384600F0F7FE07465146304600F0F2FE8B
:1058800017E011F0004F04BF00263746E2D010F0B9
:10589000004F19BF5C4F5D4E5D4F5E4EDAE74FF033
:1058A0007C58384600F090FA07465146304600F0E2
:1058B0008BFA06464146284600F0CAFC214600F015
:1058C00083FA82462146404600F0C2FC294600F099
:1058D00037FE514600F016FB044604E021462846F8
:1058E00000F010FB0446014600F0B2FC80464A4935
:1058F00000F0AEFC494900F067FA414600F0A8FC10
:10590000474900F061FA414600F0A2FC454900F029
:105910005BFA414600F09CFC434900F055FA05460D
:105920004146204600F094FC294600F091FC3146A7
:1059300000F04AFA214600F047FA3946BDE8F04740
:1059400000F042BA4FF07F42B2EB400F28BFB2EBFB
:10595000410F03D2BDE8F047FFF757BE40EA01030D
:105960005B0008BF44F0FF410AD0B2EB400F08BF14
:10597000B2EB410F06D125F0804024F0804105466E
:105980000C4613E7B2EB400F12BF5FEA410345F04C
:10599000FF4004F000413FF409AFB2EB410F12BFEA
:1059A0005FEA400205F0004044F0FF413FF4FEAEE4
:1059B0004A0092EA40033FF5F9AE002AACBF4FF02F
:1059C0009F464FF03E56314600F042FC05463146B8
:1059D000204600F03DFC044628462146E6E600004D
:1059E000DB0FC9BFDB0FC93FDB0F4940DB0F49C0ED
:1059F0000000C9BF22AAFDB90000C93F22AAFD3993
:105A00000060ED3EC30ACE37000049C022AA7DBA2D
:105A10000000494022AA7D3A2DAD65BD8FB8D53D25
:105A20000FB511BE61C84C3EA8AAAABE2DE9F84325
:105A3000044602464F486946B0EB420F09D94FF081
:105A4000E640B0EB420F94BF00204FF0FF300090D3
:105A500030E0494B22F00040834271D9474920464B
:105A600000F0F6FB00F03CFD804600F041FB00F04A
:105A7000030000904249404600F0EAFB05464149D8
:105A8000404600F0E5FB06463F49404600F0E0FB9B
:105A900007463E49404600F0DBFB214600F050FD42
:105AA000394600F0DFFD314600F0DCFD294600F00C
:105AB000D9FD04462546009C002C45DB294614F000
:105AC000010F08461CD000F0C3FB0646304900F029
:105AD000BFFB304900F078F9314600F0B9FB2E49A0
