:020000040800F2
:100000000023002091010008D95700082557000857
:10001000D5570008AD0500087579000800000000FC
:10002000000000000000000000000000A5740008AF
:10003000C90500080000000059580008A97400080C
:10004000AB010008AB010008AB010008AB010008E0
:10005000AB010008AB010008CD050008D50500087C
:10006000AB010008AB010008DD050008AB0100088A
:10007000AB010008AB010008AB010008AB010008B0
:10008000B1050008BD050008AB010008AB01000880
:10009000AB010008AB010008AB010008AB01000890
:1000A000AB010008AB010008AB010008AB01000880
:1000B000AB010008AB010008AB010008AB01000870
:1000C000AB010008AB010008AB010008AB01000860
:1000D000AB010008AB01000869790008AB0100081A
:1000E000AB010008AB010008AB01000800F002F80A
:1000F00000F03EF80AA090E8000C82448344AAF184
:100100000107DA4501D100F033F8AFF2090EBAE881
:100110000F0013F0010F18BFFB1A43F0010318473B
:10012000C0930000E0930000103A24BF78C878C163
:10013000FAD8520724BF30C830C144BF04680C60ED
:10014000704700000023002400250026103A28BF35
:1001500078C1FBD8520728BF30C148BF0B60704739
:100160001FB59DE8030000F033F91FBD10B510BDA9
:1001700000F09AF91146FFF7F3FF07F061FF00F076
:10018000B8F903B4FFF7F2FF03BC00F0E9F900008F
:100190000948804709480047FEE7FEE7FEE7FEE71B
:1001A000FEE7FEE7FEE7FEE7FEE7FEE70448054957
:1001B000054A064B70470000AD740008ED000008CA
:1001C000001D002000230020001F0020001F002031
:1001D00070B5064600F0E0F8056806F10B0020F067
:1001E0000704B4429CBF002070BD2B466A68BAB1B8
:1001F0001068A04210D304F1080188423CBF506847
:10020000586007D35168101941601168091B0160DB
:1002100058601460101D70BD13465268002AE7D163
:100220002146284600F0C0F80028DED170BD70B528
:100230000446051F00F0B0F80068002C14BF4468A5
:1002400070BD002C18BFAC423CBF20466468F8D398
:1002500001680A18AA4218BF456003D12A680546FA
:100260001144016028684119A1421CBF6C6070BD37
:100270006168696021680844286070BD10B5431E3C
:1002800013F8014F002CFBD105E011F8014B002CB5
:1002900003F8014B03D0521EF7D20021197010BD94
:1002A00010B5431C02E010F8011B71B18107FAD1AF
:1002B0004FF0013202C88C1A8C4314EAC211F9D0F3
:1002C000C01A0A0603D0C01E10BDC01A10BD0A0411
:1002D00001D0801E10BD0902FCD0401E10BD10B51B
:1002E000203AC0F00B80B1E81850A0E81850B1E8EF
:1002F0001850A0E81850203ABFF4F5AF5FEA027C2E
:1003000024BFB1E81850A0E8185044BF18C918C05D
:10031000BDE810405FEA827C24BF51F8043B40F8FE
:10032000043B08BF7047D20728BF31F8023B48BFE3
:1003300011F8012B28BF20F8023B48BF00F8012B21
:1003400070474FF0000200B5134694469646203998
:1003500022BFA0E80C50A0E80C50B1F12001BFF47E
:10036000F7AF090728BFA0E80C5048BF0CC05DF8E4
:1003700004EB890028BF40F8042B08BF704748BF32
:1003800020F8022B11F0804F18BF00F8012B7047A6
:100390007047704770470000004870471800002001
:1003A000704770477047704738B504460A460020CA
:1003B0006946AFF30080002808BF38BD02460099A7
:1003C000204600F04FF8012038BD012000F064B84D
:1003D000F8B5AFF30080054600200C46102000BFA2
:1003E0000646A819A0420DD9324669460020AFF34F
:1003F0000080070008BF00F04FF80098A04218BF27
:100400000546C419FFF7C8FF05600746F01D20F038
:1004100007004619284600F00AF8B44208BFF8BDA4
:10042000A21B31463868BDE8F84000F01BB8002137
:100430000160C0E9011070471020704710B500F04E
:100440000DF8006810BD10B5044600F007F8046010
:1004500010BD0000004870471000002000487047A1
:1004600010000020034640688C46002818BF8842D0
:100470003CBF03464068F8D318681844884207D048
:100480000CF1030020F00700001D411A521A01462A
:10049000081D0A60FFF7CBBE10B500F039F8BDE8C3
:1004A000104000F02FB870477546FFF7D3FFAE46F7
:1004B00005006946534620F00700854618B020B570
:1004C000FFF774FEBDE820404FF000064FF0000734
:1004D0004FF000084FF0000BAC46ACE8C009ACE8A8
:1004E000C009ACE8C009ACE8C00921F007018D469D
:1004F000704710B50446AFF300802046BDE81040B9
:10050000FFF73FBE002801D000F02AB87047000076
:1005100010B5012805D0002103A000F027F8012024
:1005200010BD09A1F8E7000053494752544D454D0D
:100530003A204F7574206F662068656170206D6584
:100540006D6F7279000000003A2048656170206D7F
:10055000656D6F727920636F727275707465640077
:1005600001491820ABBEFEE72600020070B5054623
:100570000C460A2000E06D1C00F011F835B1287817
:100580000028F8D102E0641C00F009F814B12078CA
:100590000028F8D1BDE870400A20AFF3008008B50C
:1005A00069468DF800000320ABBE08BDFEE70000E1
:1005B00041F27400C2F2000003F0AABD41F2B8009B
:1005C000C2F2000003F0A4BD70470000012003F058
:1005D00003BF0000022003F0FFBE0000102003F064
:1005E000FBBE00002DE9F04381B090F8EC460546D3
:1005F0008946CCB100274FF0340804E00137F8B247
:10060000E1B2884210D2FEB206FB08504946406A69
:1006100008F086FA0028F1D12846314600F0C2FAE7
:1006200095F8EC46013FE9E795F8ED46E4B100277F
:1006300005E000BF0137F8B2E1B2884214D2FEB241
:1006400006EB460005EB4010D0F83003494608F0B1
:1006500067FA0028EED12846314600F089FA95F86D
:10066000ED46013FE6E700BFD5F8900F30B14946AF
:1006700001B0BDE8F04307F09DB900BF01B0BDE88F
:10068000F08300002DE9F04F85B00291054600216E
:10069000D0E90040A5F85C10002144F66D6BC4F26F
:1006A0004831C4F2C61B08F0B7F940F2C809C2F2DB
:1006B0000009D9F8001043F2390201FB0B214AF678
:1006C000AB2221F00041CAF6AA22A1FB0223074671
:1006D00023F0010000EB5300081AC9F8001000F0E5
:1006E0000101023040F2000A00F00603A5F11002F9
:1006F000C4F2963A00910395D9F8000043F239010B
:1007000000FB0B1547F2A31125F00040CAF26E3131
:100710000492A0FB0112110A40F2911201FB120097
:10072000019300F5C87043F2390808F025FB05FB7A
:100730000B81054621F00040C9F8000008F034FBA9
:100740004FF0405108F0ACFB0021C4F2164108F014
:10075000A7FB0021CCF2963108F05EF90146204655
:1007600008F05AF90021C4F26141044608F0CAF9C0
:1007700000281CBF0024C4F261442046514608F002
:10078000C1F900283846294608BF544608F044F904
:1007900080460298D0E90015204608F08BFD0646F9
:1007A0004046294608F086FD0146814608F078FB60
:1007B00007463046314608F073FB394608F02CF9FD
:1007C00008F014F95146074608F0B1F9054600282B
:1007D00038464FF0000118BF012508F093F90028B2
:1007E00018BF012005EA000B3046394608F0B2F97F
:1007F000514608F055FB214608F00EF906464846DA
:10080000394608F0A7F9514608F04AFB414608F07E
:1008100003F940F2C801C2F20001096844F66D62B2
:10082000C4F2C61243F2390901FB029747F2A31240
:1008300027F00041CAF26E32A1FB02230546BBF14C
:10084000000F04BF454626460498039C049AC664DC
:1008500094F85D0015651A0A40F2911302FB13111A
:10086000013084F85D0001F5C87008F085FA44F69F
:100870006D61C4F2C61107FB0191044621F00040EE
:1008800040F2C801C2F20001086008F08DFA4FF092
:10089000405108F005FB0021C4F2164108F000FBAE
:1008A0000021CCF2963108F0B7F80146304608F046
:1008B000B3F80021C4F26141804608F023F9002812
:1008C0001CBF40F20008C4F261484046514608F09F
:1008D00019F900282846214608BFD04608F09CF8A0
:1008E000029C81462168404608F0E4FC61680446A9
:1008F000484608F0DFFC0146054608F0D1FA0646F6
:100900002046214608F0CCFA314608F085F808F078
:100910006DF85146064608F00AF9074600283046A9
:100920004FF0000118BF012708F0ECF8002818BFAD
:10093000012007EA000B2046314608F00BF951462A
:1009400008F0AEFA414608F067F8044628463146FA
:1009500008F000F9514608F0A3FA494608F05CF89F
:100960000746019B049ABBF1000F08BF4F4608BF22
:100970004446039E47F2A31196F85D5040F2C80921
:1009800044F66D6BCAF26E31C2F20009C4F2C61BA6
:1009900054659765681C023B02F1100286F85D0001
:1009A0007FF4AAAE009B029E33B9DDF80CB0C6B24C
:1009B000042E80F0D98095E0D9F8000043F2390880
:1009C00000FB0B85049225F00040A0FB0112110AE8
:1009D00040F2911201FB120000F5C87008F0CCF94A
:1009E00005FB0B81054621F00040C9F8000008F026
:1009F000DBF94FF0405108F053FA0021C4F21641E0
:100A000008F04EFA0021CCF2963108F005F80146C4
:100A1000204608F001F80021C4F26141044608F0C4
:100A200071F800281CBF0024C4F2614420465146DE
:100A300008F068F800283846294608BF544607F0F1
:100A4000EBFFD6E900168046204608F033FC054649
:100A50004046314608F02EFC0146814608F020FA57
:100A600007462846294608F01BFA394607F0D4FF06
:100A700007F0BCFF5146074608F059F80646002823
:100A800038464FF0000118BF012608F03BF8002857
:100A900018BF012006402846394608F05BF8514649
:100AA00008F0FEF9214607F0B7FF054648463946EB
:100AB00008F050F8514608F0F3F9414607F0ACFF52
:100AC0000746002E04BF474625460498DDF80CB0C3
:100AD000C5649BF85D500765681C8BF85D00C6B265
:100AE000042E41D240F2C80AC2F2000ADAF800002D
:100AF00044F66D6943F23908C4F2C61900FB098453
:100B0000DB2124F00040CBF22E41A0FB0112811A20
:100B100002EB5101490A40F2592201FB120000F593
:100B2000967008F029F904FB098147F2A31221F01D
:100B30000041CAF26E32A1FB02230446180A40F2B9
:100B4000911200FB1210CAF8001000F5C87008F0EE
:100B500013F90146384607F05FFF0BEBC601C1E908
:100B60000F40A81C8BF85D0005B0BDE8F08F0000B9
:100B700010B5044690F8ED06421E8A420EDD01EBE8
:100B8000410004F54B7102EB420201EB401001EB16
:100B900042116022FFF7A3FB94F8ED06013884F8B8
:100BA000ED0610BD2DE9F04190F8EC26531E8B4266
:100BB00029DD00F1200C4FF0340E03FB0EC403FBC3
:100BC0000EF301FB0EC201FB0EF8D4E901E5D4E9F6
:100BD00003675CF8033061694CF808305161C2E981
:100BE0000367C2E901E5D4E906C3D4E90876D4E98C
:100BF0000A15C2E90876C2E90A15C2E906C3216BE3
:100C0000116390F8EC26511E80F8EC16BDE8F081D7
:100C10002DE9F04F81B00E4680468A8BD0E9005016
:100C2000D1E90071728308F045FB04462846394635
:100C300008F040FB0146204607F0CEFB98F8684CD0
:100C4000322C274698BF3227312C64D849F69A11A6
:100C5000CBF61961054607F0DFFEC4EBC40108EBD3
:100C60008102D6E9009643F2333340F2000BC4F21E
:100C70003303C2F8F8064FF48770C4F2A00B4FF4A8
:100C80008071C2F8F096C2F8F466C2F8FC36A2F899
:100C90000007C2F804B7A2F80817621CBA4288F825
:100CA000682C38D0C2EBC20204F1020A08EB8202BF
:100CB000BA45C2F8F096C2F8F466C2F8F856C2F81F
:100CC000FC36A2F80007C2F804B7A2F8081788F8A3
:100CD00068AC20D049F69A11C3F6196128461D4622
:100CE00007F09AFECAEBCA0108EB8101C1F8F806C9
:100CF0004FF48770A1F800074FF48070A1F808073F
:100D0000E01CC1F8F096C1F8F466C1F8FC56C1F8D1
:100D100004B788F8680C01B0BDE8F08F2DE9F04FFA
:100D200089B090F8EC468346002C089000F00683CA
:100D30000BF66C4002900BF679404FF034094FF0FF
:100D4000000A01900EE000BF601E8BF8EC06AAF1CD
:100D5000010A0AF1010A9BF8EC465FFA8AF0A04208
:100D600080F0EC825FFA8AF606FB09B595F8470039
:100D70000028EED005F12001069515F8460FD1F8B0
:100D80000480DBF804700791D8BB00213846CCF210
:100D9000C84107F041FE0146404607F0C1FE002869
:100DA000D7D140F2C802C2F20002106844F66D6169
:100DB000C4F2C61143F2390300FB0130012120F0D7
:100DC00000402970106007F0EFFF4FF0405108F02D
:100DD00067F84CF6CD41C3F64C7107F0A8FE002829
:100DE00018BF0120069981F85200002088624CF655
:100DF000CD40C4F20C00C86240F6DB70C3F6C97087
:100E0000086348F200013846C4F23B5107F004FE83
:100E10000146404607F084FE00BBE0B20138B04214
:100E200092D900FB09B0079C00F120078ECFD0E9D2
:100E30000C5684E88E00C4E9045600F138078ECFC2
:100E4000D0E9125604F1180CC4E90A568CE88E0059
:100E5000006D20639BF8EC4676E700BF9BF88C3F63
:100E60000798029A594601F09DFB069D2C46A8461C
:100E700054F8281F58F82C0F07F0AEFA55F8301F19
:100E8000814608464946049508F014FA40F6DB7698
:100E9000C4F249063146054607F042FE40F6DB77CC
:100EA000CCF2C90730BB00BF2846394607F0B4FD75
:100EB0003146054607F034FEE0B92846394607F0CA
:100EC000ABFD3146054607F02BFE98B9284639465A
:100ED00007F0A2FD3146054607F022FE50B928462C
:100EE000394607F099FD3146054607F00BFE00280C
:100EF000DAD100BF40F6DB76CCF24906284631460F
:100F000007F007FE40F6DB77C4F2C90730BB00BF2D
:100F10002846394607F080FD3146054607F0F9FDC1
:100F2000E0B92846394607F077FD3146054607F017
:100F3000F0FD98B92846394607F06EFD3146054662
:100F400007F0E7FD50B92846394607F065FD314600
:100F5000054607F0ECFD0028DAD100BF4CF6CD4184
:100F60002846C3F64C5107F09BFF0146484607F060
:100F700053FD054607F082FB4CF6CD46C4F20C0645
:100F8000314607F08DFF2060284607F06BFC3146A4
:100F900007F086FF276843F233318146C8F8000026
:100FA00020F00040C3F6337127F0004507F078FFCA
:100FB0000146284607F0A6FD05463846002107F001
:100FC000A1FD00284FF0030448464FF0000118BF70
:100FD000012407F097FD002818BF0120002D08BF4D
:100FE0004400079DDDF81880D5E90016384688F8DA
:100FF0004840059107F010FD0746286048463146F5
:10100000039607F009FD9BF88C1F6860C1B3D8F800
:101010004080019D8146002405E000BF01348C42E0
:1010200005F110052ED228780028F7D055F80D1CB0
:1010300055F8096C384608F03DF983464846314674
:1010400008F038F9014607F02BFF06465846594686
:1010500007F026FF314607F0DFFC07F0C7FC55F824
:10106000051C0646404607F0D7FC0146304607F00F
:101070005EFDA8B9DDF820B09BF88C1FCEE700BF5D
:101080003E4601E00798066840F6DB7440F200082F
:10109000DDF81090C4F24904C4F2F028A2E000BFC9
:1010A00040F2C803C2F20003186844F66D61C4F24E
:1010B000C61143F2390200FB01204EF28B6120F091
:1010C0000040CBF20951A0FB01120799059F18605F
:1010D0000F60039F4F60D109B52201FB120101F19E
:1010E0005A0007F049FE40F6DB74C4F24904214679
:1010F00007F0D6FE0021C4F2343107F02BFDDDF8F5
:1011000010900246D9F800100846114607F084FCFA
:101110002146054607F004FDDDF820B040F6DB76F9
:1011200040F6DB7740F20008CCF2C906CCF2490762
:10113000C4F2F02828BB00BF2846314607F06CFCFB
:101140002146054607F0ECFCD8B92846314607F0A1
:1011500063FC2146054607F0E3FC90B9284631467A
:1011600007F05AFC2146054607F0DAFC48B9284644
:10117000314607F051FC2146054607F0C3FC002824
:10118000DAD12846394607F0C4FC40F6DB76C4F2D3
:10119000C90620BB2846314607F03EFC39460546C5
:1011A00007F0B7FCD8B92846314607F035FC394678
:1011B000054607F0AEFC90B92846314607F02CFCF6
:1011C0003946054607F0A5FC48B92846314607F0E0
:1011D00023FC3946054607F0AAFC0028DAD1059E13
:1011E000C9F800503046414607F0A1FC20B1069DE9
:1011F0001E2046460CE000BF00213046C4F2874165
:1012000007F08EFC069D78BB0026D220C4F28746EC
:1012100040F2C807C2F20007396844F66D62C4F2B2
:10122000C61243F2390301FB023145F2BF6221F0DD
:101230000041C0F6CF62A1FB0223079A3960166015
:10124000CA1A03EB52029209792302FB13121044CB
:1012500007F092FD214607F023FE0021C4F234314D
:1012600007F078FCC9F80000284630F8501F2C46DB
:1012700000291CBF0139018034F83A0F18B1013838
:101280000104208056D1DBE9009830464946059696
:1012900008F010F8079920F000464F68414638469C
:1012A00008F008F8002105463046C4F2C83107F0BE
:1012B00030FC00283ED1002125F00040C4F29631D8
:1012C00007F027FCB0BB06999BF8680C898F312882
:1012D00021802FD80599484607F0ECFF0546404687
:1012E000394607F0E7FF294607F076F89BF8681CB7
:1012F000079FC1EBC1023B680BEB8202C2F8F036DC
:101300007B68C2F8F8060020C4F26000C2F8FC0650
:101310004FF48770A2F800070020C4F2A000C2F8C2
:1013200004074FF48070A2F80807481CC2F8F4368E
:101330008BF8680C4FF034090BE500BF9BF8ED0605
:10134000002800F0E3820BF66C4048F2000840F6FB
:10135000DB7440F6DB7902900BF67940C4F23B581F
:10136000C4F24904CCF2C9094FF0000A01900DE023
:1013700001388BF8ED06AAF1010A0AF1010A9BF87F
:10138000ED065FFA8AF1814280F0C0825FFA8AF648
:1013900006EB46000BEB401191F855030028ECD00A
:1013A00091F8540301F54B7700280691079700F058
:1013B000CD81DBF804007D68414607F02DFB014636
:1013C000284607F0ADFB88B99BF8ED06411EB142F7
:1013D000CEDD01EB41000BEB401000F54B7107989F
:1013E0006022FEF77CFF9BF8ED06C1E79BF88C3F7F
:1013F000029A3846594600F08DFA069DD5E9CD107F
:1014000006F0EAFFD5F83C1380460846414607F04F
:1014100051FF2146054607F083FB28BB2846494675
:1014200007F0FAFA2146054607F07AFBE0B92846AC
:10143000494607F0F1FA2146054607F071FB98B9D5
:101440002846494607F0E8FA2146054607F068FBBA
:1014500050B92846494607F0DFFA2146054607F00D
:1014600051FB0028DAD100BF069840F6DB7400F586
:101470004D7600F54E7100F54F70CCF249040491A1
:1014800005902846214607F044FB40F6DB77C4F27E
:10149000C90728BB2846394607F0BEFA214605464B
:1014A00007F037FBE0B92846394607F0B5FA214680
:1014B000054607F02EFB98B92846394607F0ACFAE6
:1014C0002146054607F025FB50B92846394607F066
:1014D000A3FA2146054607F02AFB0028DAD100BF0F
:1014E0004CF28F212846C3F6F54107F0D9FC01469E
:1014F000404607F091FA054607F0C0F84CF6CD4497
:10150000C3F6CC74214607F0CBFC3060284607F0C8
:10151000A9F9214607F0C4FC81460498366843F2D5
:101520003331C0F8009029F00040C3F6337126F043
:10153000004507F0B5FC0146284607F0E3FA0546EA
:101540003046002107F0DEFA00284FF00304484639
:101550004FF0000118BF012407F0D4FA002818BF8B
:101560000120002D08BF4400079DDDF81880D5E953
:101570000017304688F85643049107F04DFA0646A6
:10158000286048463946039707F046FA9BF88C1FB7
:101590006860002900F03081D8F84C83019C8146B6
:1015A000002509E0DDF820B09BF88C1F01358D4245
:1015B00004F1100480F01E8120780028F6D054F841
:1015C0000D1C54F8097C304607F074FE83464846EB
:1015D000394607F06FFE014607F062FC07465846A1
:1015E000594607F05DFC394607F016FA07F0FEF998
:1015F00054F8051C0746404607F00EFA01463846E7
:1016000007F095FA0028CDD040F2C803C2F20003DB
:10161000186844F66D61C4F2C61143F2390200FB4A
:1016200001204EF28B6120F00040CBF20951A0FB6B
:1016300001120799049F18600F60039F4F60D10942
:10164000B52201FB120101F15A0007F095FB40F6AB
:10165000DB74C4F24904214607F022FC0021C4F2E5
:10166000343107F077FA05990246096808461146B1
:1016700007F0D2F92146054607F052FADDF820B00E
:1016800048F2000840F6DB79C4F23B58CCF2C909B5
:1016900028BB00BF2846494607F0BEF9214605464B
:1016A00007F03EFAD8B92846494607F0B5F9214671
:1016B000054607F035FA90B92846494607F0ACF9D7
:1016C0002146054607F02CFA48B92846494607F056
:1016D000A3F92146054607F015FA0028DAD140F6AD
:1016E000DB76CCF249062846314607F012FA40F67E
:1016F000DB77C4F2C90720BB2846394607F08CF9CE
:101700003146054607F005FAD8B92846394607F0AC
:1017100083F93146054607F0FCF990B92846394669
:1017200007F07AF93146054607F0F3F948B928463B
:10173000394607F071F93146054607F0F8F90028F7
:10174000DAD10598049E056062E000BFDBF8040072
:1017500000217D68CCF2C84107F05EF901462846B9
:1017600007F0DEF900287FF408AE40F2C802C2F2AA
:101770000002106844F66D61C4F2C61143F23903E9
:10178000069F00FB013007F55575012120F0004050
:101790002970106007F008FB4FF0405107F080FB04
:1017A00043F23331C3F6337107F0C1F90146002823
:1017B00018BF0121490087F85E130021C7F83413D0
:1017C0004CF6CD41002840F6DB70C3F6CC71C3F671
:1017D000C970C7F83813C7F83C03079F7FF4E9AD19
:1017E00038465946FEF74EFF2878079F00287FF4B9
:1017F000E0ADC2E50798066848F2000840F6DB74E1
:1018000040F6DB79C4F23B58C4F24904CCF2C90972
:101810000025C4F216353046294607F088F918B17C
:101820002E46069D1E200DE044F200013046C4F213
:10183000834107F075F9069D80BB44F20006D22073
:10184000C4F2834640F2C807C2F20007396844F682
:101850006D62C4F2C61243F2390301FB023145F254
:10186000BF6221F00041C0F6CF62A1FB0223079ABC
:1018700039601660CA1A03EB52029209792302FBFF
:101880001312104407F078FA214607F009FB0021F3
:10189000C4F2343107F05EF905990860B5F85203D7
:1018A00000281EBF05F2523101380880B5F8460302
:1018B00030B1013805F24631020408807FF45DAD95
:1018C000DBE90015304607F0F5FC079920F00046EB
:1018D00049680846294607F0EDFC002105463046D8
:1018E000C4F2FA3107F015F900287FF446AD002163
:1018F00025F00040C4F2C83107F00BF900287FF44E
:101900003CAD07995846FFF783F936E509B0BDE8C5
:10191000F08F00002DE9F04F8BB0834690F8320035
:10192000DBE90075984602280E4603924CD1DA4650
:10193000D6E900B93846594607F0BCFC002120F032
:101940000040C4F2FA3107F0E4F80446284649465C
:1019500007F0B0FC002C40F09D80002120F00040FA
:10196000C4F2C83107F0D5F8002840F09380B06881
:101970000021C4F2342107F0EDF80021C4F248211F
:1019800007F08EFA594607F047F800210446CCF2DA
:101990004821484607F040F8294607F08BFC0546E9
:1019A0002046394607F086FC0146284606F014FD1D
:1019B0007821D346AAF83410CAF83800B8F1000FDD
:1019C000009077D100F0D7BC9BF85C009BF85D10CD
:1019D00088420BD358463146FEF754FE9BF85D0013
:1019E00000284DD09BF85C00DBE900750BEBC001D3
:1019F000D1E90F04394607F05DFC07462046294629
:101A000007F058FC014607F04BFA044638463946C1
:101A100007F046FA214606F0FFFF06F0E7FF002137
:101A2000C4F2963107F075F868B99BF85C009BF832
:101A30005D100130C2B28A428BF85C0003D3584675
:101A40003146FEF71FFE9BF85C009BF85D10884254
:101A500016D20BEBC001D1E90F04DBE9001507F04A
:101A600029FC06462046294607F024FC314606F0AC
:101A7000B3FCB8F1000F00901CD100F07CBC00BF9B
:101A800040F6DB70C3F6C970B8F1000F009011D1B9
:101A900000F071BCBAF83400D346002800F0FE8391
:101AA000411EDBF83800ABF83410B8F1000F00909D
:101AB00000F06184A8F10100029008F00300049096
:101AC00008F0FC0007900398002620300027C4F29D
:101AD00034364FF000084FF0000A01900DE000BFCF
:101AE00040464FF0804106F097FF8046059FDDF8A5
:101AF00024A00137052F00F030850FF6A020C05735
:101B0000DBF80040DBF8105007F036F940F6DB71E7
:101B1000C4F2490107F0C4F9314607F01BF8014649
:101B2000284606F079FF054606F0A8FD0026C4F217
:101B30009636314607F0B4F9214606F06DFFDBF822
:101B400004408146284606F08DFE314607F0A8F98C
:101B5000214606F061FF0299CDE9088A03294FF07A
:101B6000000A0A90CDE9057980F098810498DDF8A3
:101B70002080002800F07A81039800EB0A16707B21
:101B8000002873D0D6E90014484607F093FB0546B9
:101B90000A98214607F08EFB014607F081F90446BA
:101BA0002846294607F07CF9214606F035FF06F065
:101BB0001DFFB168044608460021C4F2F01106F08A
:101BC0002BFF0146204606F0A4FF00284ED1DBE99A
:101BD0000004D6E9001607F06DFB054620463146A5
:101BE00007F068FB0146074607F05AF90446284605
:101BF000294607F055F9214606F00EFF06F0F6FEDD
:101C00000021044606F08CFF80BB00212046C4F270
:101C1000C82106F09FFF49F69A19C3F6996949460B
:101C2000064606F06FFF002849F69A1008BF4E4698
:101C3000DDF81890C3F69970314606F08BFF064622
:101C40002846214606F086FF314607F029F941462D
:101C500006F0E2FE80463846214606F07BFF31461C
:101C600007F01EF9099906F0D7FE0990049801289B
:101C700000F0FC8003990AF1010001EB0016707B73
:101C8000002873D0D6E90014484607F013FB054638
:101C90000A98214607F00EFB014607F001F90446B9
:101CA0002846294607F0FCF8214606F0B5FE06F066
:101CB0009DFEB168044608460021C4F2F01106F00A
:101CC000ABFE0146204606F024FF00284ED1DBE99A
:101CD0000004D6E9001607F0EDFA05462046314625
:101CE00007F0E8FA0146074607F0DAF80446284606
:101CF000294607F0D5F8214606F08EFE06F076FE5E
:101D00000021044606F00CFF80BB00212046C4F2EF
:101D1000C82106F01FFF49F69A19C3F6996949468A
:101D2000064606F0EFFE002849F69A1008BF4E4618
:101D3000DDF81890C3F69970314606F00BFF0646A1
:101D40002846214606F006FF314607F0A9F841462D
:101D500006F062FE80463846214606F0FBFE31461C
:101D600007F09EF8099906F057FE0990049802289A
:101D70007CD003990AF1020001EB0016707B002869
:101D800074D0D6E90014484607F094FA05460A983C
:101D9000214607F08FFA014607F082F804462846EC
:101DA000294607F07DF8214606F036FE06F01EFEB5
:101DB000B168044608460021C4F2F01106F02CFE7A
:101DC0000146204606F0A5FE00284FD1DBE90004BD
:101DD000D6E9001607F06EFA05462046314607F0B0
:101DE00069FA0146074607F05BF80446284629468B
:101DF00007F056F8214606F00FFE06F0F7FD002129
:101E0000044606F08DFE88BB00212046C4F2C8219E
:101E100006F0A0FE49F69A19C3F6996949460646A6
:101E200006F070FE002849F69A1008BF4E46DDF80D
:101E30001890C3F69970314606F08CFE0646284687
:101E4000214606F087FE314607F02AF8414606F0A3
:101E5000E3FD80463846214606F07CFE314607F019
:101E60001FF8099906F0D8FD099000BF0026C4F2BA
:101E700034364846314606F05AFE00287FF430AE2C
:101E800000214846C4F27F4106F04AFE00287FF454
:101E90002DAE40464FF0404125E600BFDDF80480FE
:101EA0000026C4F2F0160AE00026C4F2F0160798E5
:101EB0000AF1040A504508F140083FF457AE18F8FB
:101EC000130C002879D058E90814484607F0F2F9B5
:101ED00005460A98214607F0EDF9014606F0E0FFB5
:101EE00004462846294606F0DBFF214606F094FD0D
:101EF00006F07CFD58F8181C04460846314606F0EA
:101F00008BFD0146204606F004FE002855D1DBF883
:101F1000000058E90815DBF804405E4607F0CAF9EE
:101F200007462046294607F0C5F90146834606F0D4
:101F3000B7FF04463846394606F0B2FF214606F0A0
:101F40006BFD06F053FD0021054606F0E9FD80BB60
:101F500000212846C4F2C82106F0FCFD49F69A1972
:101F6000C3F699694946044606F0CCFD002849F6B7
:101F70009A1008BF4C46DDF81890C3F699702146B8
:101F800006F0E8FD04463846294606F0E3FD214602
:101F900006F086FF089906F03FFD0890584629464E
:101FA00006F0D8FD214606F07BFF099906F034FDC6
:101FB0000990B3460026C4F2F01618F8030C002866
:101FC00076D058E90414484607F074F905460A9893
:101FD000214607F06FF9014606F062FF04462846E5
:101FE000294606F05DFF214606F016FD06F0FEFCD0
:101FF00058F8081C04460846314606F00DFD014617
:10200000204606F086FD002852D1DBE9000458E99D
:10201000041707F04FF905462046394607F04AF9FC
:102020000146074606F03CFF04462846294606F0CE
:1020300037FF214606F0F0FC06F0D8FC00210446EC
:1020400006F06EFDA0BB00212046C4F2C82106F0B8
:1020500081FD49F69A19C3F699694946064606F084
:1020600051FD002849F69A1008BF4E46DDF8189039
:10207000C3F69970314606F06DFD064628462146A6
:1020800006F068FD314606F00BFF089906F0C4FC27
:1020900008903846214606F05DFD31460026C4F220
:1020A000F01606F0FDFE099906F0B6FC099000BF97
:1020B00098F80D00002875D0D8E90014484607F0BC
:1020C000F9F805460A98214607F0F4F8014606F0AB
:1020D000E7FE04462846294606F0E2FE214606F0C1
:1020E0009BFC06F083FCD8F80810044608463146ED
:1020F00006F092FC0146204606F00BFD002851D167
:10210000DBE90004D8E9001607F0D4F805462046BC
:10211000314607F0CFF80146074606F0C1FE0446F7
:102120002846294606F0BCFE214606F075FC06F05E
:102130005DFC0021044606F0F3FC80BB0021204634
:10214000C4F2C82106F006FD49F69A19C3F699694A
:102150004946064606F0D6FC002849F69A1008BF04
:102160004E46DDF81890C3F69970314606F0F2FC41
:1021700006462846214606F0EDFC314606F090FE64
:10218000089906F049FC08903846214606F0E2FC22
:10219000314606F085FE099906F03EFC09900026BE
:1021A000C4F2F01698F81D0000283FF480AED8E97C
:1021B0000414484607F07EF805460A98214607F0C1
:1021C00079F8014606F06CFE04462846294606F0DA
:1021D00067FE214606F020FC06F008FCD8F818102F
:1021E00004460846314606F017FC0146204606F034
:1021F00090FC00287FF45BAEDBE90004D8E904160C
:1022000007F058F805462046314607F053F80146D6
:10221000074606F045FE04462846294606F040FEDD
:10222000214606F0F9FB06F0E1FB0021044606F02A
:1022300077FC00287FF438AE00212046C4F2C82184
:1022400006F088FC49F69A19C3F69969494606468C
:1022500006F058FC002849F69A1008BF4E46DDF8F3
:102260001890C3F69970314606F074FC064628466D
:10227000214606F06FFC314606F012FE089906F082
:10228000CBFB08903846214606F064FC314606F048
:1022900007FE099906F0C0FB099005E6BBF830007F
:1022A00001380104ABF8300002D0DBF82C4056E0D6
:1022B00040F2C801C2F20001086844F66D6343F2BF
:1022C0003902C4F2C61300FB032045F2BF6620F0BA
:1022D0000047C0F6CF66A7FB06657F1B05EB5707D7
:1022E000BF09792607FB160700FB0320B43720F04F
:1022F0000040ABF83070086006F056FD4FF04051DA
:1023000006F0CEFD4CF6CD41C3F6CC5106F0C8FD2B
:102310004CF6CD41CBF64C5106F07EFBDBF82C1091
:1023200002460846114606F077FB40F69221C3F6B6
:102330000671044606F0E6FB40F69225CBF60675DC
:1023400000281CBF40F69224C3F606742046294696
:1023500006F0D8FB002808BF2C46CBF82C4040F6EE
:10236000DB71C3F6C971204606F056FBB8F1000FC9
:1023700000907FF49FABDBF8100040F6DB71DBF8D8
:102380000040CBF6497106F047FB054606F076F9AA
:102390000021C4F2963106F083FD214606F03CFB95
:1023A0000446284606F05EFA0021C4F23431204685
:1023B00006F0BDFB10B14FF080480BE00021C4F2E5
:1023C0007F41204606F0ACFB00280CBF4FF0404890
:1023D0004FF00008DBF8100049F60A01DBF8004076
:1023E000CBF6C46106F018FB054606F047F900215C
:1023F000C4F2963106F054FD214606F00DFB04466A
:10240000284606F02FFA0021C4F23431204606F0A7
:102410008EFB18B140464FF0804109E00021C4F224
:102420007F41204606F07CFB28B940464FF04041F2
:1024300006F0F2FA8046DBF81050DBF80040284640
:1024400006F01CF90021C4F2963106F029FD214660
:1024500006F0E2FA0446284606F004FA0021C4F227
:102460003431204606F063FB20B140464FF08041F6
:102470000AE000BF0021C4F27F41204606F050FB75
:1024800028B940464FF0404106F0C6FA8046DBF8D6
:10249000100049F60A01DBF80040C3F6C46106F0FB
:1024A000BBFA054606F0EAF80021C4F2963106F0C0
:1024B000F7FC214606F0B0FA0446284606F0D2F9A9
:1024C0000021C4F23431204606F031FB20B14046F1
:1024D0004FF080410AE000BF0021C4F27F41204656
:1024E00006F01EFB28B940464FF0404106F094FA32
:1024F0008046DBF8100040F6DB71DBF80040C3F6E5
:10250000497106F089FA054606F0B8F80021C4F2D0
:10251000963106F0C5FC214606F07EFA04462846B0
:1025200006F0A0F90021C4F23431204606F0FFFA8B
:1025300020B140464FF080410AE000BF0021C4F2C4
:102540007F41204606F0ECFA28B940464FF0404162
:1025500006F062FA80464FF0000A5046514606F0F7
:102560009FFC04464046414606F09AFC214606F090
:1025700053FA06F03BFA4CF6CD41C3F6CC5106F0C7
:10258000C1FA0028009803D05046414605F024FFC8
:10259000CBF810000BB0BDE8F08F00BFD3EA0016F7
:1025A0002D0000002DE9F04F8BB0D0E90086D1E975
:1025B00000970446404649469B46924606F07AFEFE
:1025C00005463046394606F075FE94F832100894F8
:1025D000012921D10021044625F00040C4F2C83170
:1025E00006F097FAC0B9002124F00040C4F29631F9
:1025F00006F08FFA80B93846314606F05BFE044695
:102600004846414606F056FE0146204605F0E4FEE7
:10261000DDF820804AE000BFDDF82080B8F8300007
:1026200001380104A8F8300002D0D8F82C0037E0B7
:1026300040F2C801C2F20001086844F66D6343F23B
:102640003902C4F2C61300FB032048F2691620F0D9
:102650000047C6F61606A7FB06657F1B05EB570766
:10266000BF095B2607FB160700FB03205A3720F043
:102670000040A8F83070086006F096FB4FF040511B
:1026800006F00EFC40F69221C3F6867106F008FCB7
:1026900040F69221CBF6067106F0BEF9C8F82C0080
:1026A00040F6DB71C3F6C97106F0B6F90646D8F8F4
:1026B000100040F69221D8F80050CBF6067106F0D3
:1026C000ABF9044605F0DAFF0021C4F27A3106F0D6
:1026D000E7FB294606F0A0F9BBF1000F074600F022
:1026E000A580D8F80450204606F0BCF80021C4F2BA
:1026F0007A3106F0D5FB294606F08EF98046ABF11B
:10270000010003280BF00300CDF810A0CDE9060767
:10271000CDE9026B80F09A8000204FF0000B4FF063
:1027200000090A900698DDF810A0002800F0FC834C
:102730000AEB0B16707B002800F0F982D6E9001432
:10274000384606F0B7FD05464046214606F0B2FD84
:10275000014606F0A5FB04462846294606F0A0FBE4
:10276000214606F059F906F041F9B2680021044605
:10277000C4F2A011104606F04FF90146204606F0BB
:10278000C8F9002840F0D3820899CA46D1E900046C
:10279000D6E9001506F08EFD06462046294606F0CD
:1027A00089FD0146814606F07BFB044630463146F2
:1027B00006F076FB214606F02FF906F017F9002106
:1027C000044606F0ADF9002840F0AE820021C4F2C4
:1027D000C821204606F0BEF94FF07C5107464FF065
:1027E0007C5506F08FF9002818BF3D46079F4FF033
:1027F0007E50294606F0AEF905463046214606F0E1
:10280000A9F9294606F04CFB514606F005F90146A8
:1028100048468946214606F09DF9294606F040FBC8
:102820000A9906F0F9F80A907FE200BF204606F008
:1028300019F80021C4F22A31384606F078F9002848
:1028400000F000824FF07F5709E200BF0BF0FC0060
:10285000002609900AF1200A4FF0000BC4F2A016DE
:102860004FF0000900200A900BE000BF0026C4F2E0
:10287000A01609980BF1040B58450AF1400A3FF4E1
:1028800051AF1AF8130C002875D05AE908143846CD
:1028900006F010FD05464046214606F00BFD0146B8
:1028A00006F0FEFA04462846294606F0F9FA2146C3
:1028B00006F0B2F806F09AF85AF8181C04460846D2
:1028C000314606F0A9F80146204606F022F9002814
:1028D00051D108994F46D1E900045AE9081506F08C
:1028E000E9FC81462046294606F0E4FC01460646FE
:1028F00006F0D6FA04464846494606F0D1FA214683
:1029000006F08AF806F072F80021044606F008F98D
:1029100060BB00212046C4F2C82106F01BF94FF02D
:102920007C51054606F0EEF800284FF07C5008BFB9
:1029300005464FF07E50294606F00CF905464846FC
:10294000214606F007F9294606F0AAFA394606F0AC
:1029500063F881463046214606F0FCF8294606F029
:102960009FFA0A9906F058F80A9000E0B946079FC6
:102970000026C4F2A0161AF8030C002872D05AE9F7
:102980000414384606F096FC05464046214606F0FB
:1029900091FC014606F084FA04462846294606F0D2
:1029A0007FFA214606F038F806F020F85AF8081C9D
:1029B00004460846314606F02FF80146204606F048
:1029C000A8F800284ED10899D1E900055AE9041663
:1029D00006F070FC04462846314606F06BFC0146C2
:1029E000064606F05DFA05462046214606F058FAEE
:1029F000294606F011F805F0F9FF0021054606F01A
:102A00008FF860BB00212846C4F2C82106F0A2F866
:102A10004FF07C51074606F075F800284FF07C50C7
:102A200008BF07464FF07E50394606F093F8074638
:102A30002046294606F08EF8394606F031FA494616
:102A400005F0EAFF81463046294606F083F839460C
:102A5000079F06F025FA0A9905F0DEFF0A90002686
:102A6000C4F2A0169AF80D00002872D0DAE900141A
:102A7000384606F01FFC05464046214606F01AFC83
:102A8000014606F00DFA04462846294606F008FAE3
:102A9000214605F0C1FF05F0A9FFDAF80810044649
:102AA0000846314605F0B8FF0146204606F031F8E9
:102AB00000284ED10899D1E90005DAE9001606F0A0
:102AC000F9FB04462846314606F0F4FB014606466B
:102AD00006F0E6F905462046214606F0E1F92946CA
:102AE00005F09AFF05F082FF0021054606F018F870
:102AF00060BB00212846C4F2C82106F02BF84FF035
:102B00007C51074605F0FEFF00284FF07C5008BFBF
:102B100007464FF07E50394606F01CF8074620461F
:102B2000294606F017F8394606F0BAF9494605F085
:102B300073FF81463046294606F00CF83946079F58
:102B400006F0AEF90A9905F067FF0A900026C4F274
:102B5000A0169AF81D0000283FF48BAEDAE90414A1
:102B6000384606F0A7FB05464046214606F0A2FB84
:102B7000014606F095F904462846294606F090F9E4
:102B8000214605F049FF05F031FFDAF81810044638
:102B90000846314605F040FF0146204605F0B9FFE2
:102BA00000287FF466AE0899D1E90005DAE9041639
:102BB00006F080FB04462846314606F07BFB0146C2
:102BC000064606F06DF905462046214606F068F9EE
:102BD000294605F021FF05F009FF0021054605F013
:102BE0009FFF00287FF442AE00212846C4F2C8218E
:102BF00005F0B0FF4FF07C51074605F083FF002839
:102C00004FF07C5008BF07464FF07E50394605F024
:102C1000A1FF07462046294605F09CFF394606F0ED
:102C20003FF9494605F0F8FE81463046294605F051
:102C300091FF3946079F06F033F90A9905F0ECFE3B
:102C40000A9013E64CF20001C4F28041384605F0C8
:102C500067FF002806BF0027CBF6C0770027D8F80B
:102C60001050D8F80040284605F008FD0021C4F2B5
:102C70007A3106F015F9214605F0CEFE04462846C5
:102C800005F0F0FD0021C4F22A31204605F04FFF87
:102C900020B138464FF07F510CE000BF4CF20001EC
:102CA000C4F28041204605F03BFF30B90021CBF64D
:102CB000C071384605F0B0FE0746D8F8100040F65F
:102CC0009221D8F80040C3F6067105F0A5FE05462E
:102CD00005F0D4FC0021C4F27A3106F0E1F8214677
:102CE00005F09AFE0446284605F0BCFD0021C4F21A
:102CF0002A31204605F01BFF20B138464FF07F51A6
:102D00000CE000BF4CF20001C4F28041204605F007
:102D100007FF30B90021CBF6C071384605F07CFEC4
:102D20000746002501F087B8D146DDF810A00698C7
:102D3000012800F0F9800BF101000AEB0016707B0E
:102D4000002876D0D6E90014384606F0B3FA0546D6
:102D50004046214606F0AEFA014606F0A1F80446C8
:102D60002846294606F09CF8214605F055FE05F058
:102D70003DFEB26800210446C4F2A011104605F0E1
:102D80004BFE0146204605F0C4FE002851D10899AB
:102D9000CA46D1E90004D6E9001506F08BFA0646CA
:102DA0002046294606F086FA0146814606F078F864
:102DB00004463046314606F073F8214605F02CFEF5
:102DC00005F014FE0021044605F0AAFE70BB0021A8
:102DD000C4F2C821204605F0BDFE4FF07C510746E5
:102DE0004FF07C5505F08EFE002818BF3D46079F2A
:102DF0004FF07E50294605F0ADFE0546304621468F
:102E000005F0A8FE294606F04BF8514605F004FEF1
:102E1000014648468946214605F09CFE294606F0B3
:102E20003FF80A9905F0F8FD0A9000E0D146DDF878
:102E300010A00698022877D00BF102000AEB0016CA
:102E4000707B002870D0D6E90014384606F032FABC
:102E500005464046214606F02DFA014606F020F8C8
:102E600004462846294606F01BF8214605F0D4FD05
:102E700005F0BCFDB26800210446C4F2A011104662
:102E800005F0CAFD0146204605F043FE00284BD15F
:102E90000899D1E90004D6E9001506F00BFA0746B7
:102EA0002046294606F006FA0146804605F0F8FF5E
:102EB00004463846394605F0F3FF214605F0ACFDDF
:102EC00005F094FD0021044605F02AFE58BB0021C0
:102ED000C4F2C821204605F03DFE4FF07C51054666
:102EE0004FF07C5605F00EFE002818BF2E464FF01E
:102EF0007E50314605F02EFE05463846214605F047
:102F000029FE294605F0CCFF494605F085FD81469E
:102F10004046214605F01EFE294605F0C1FF0A99EC
:102F200005F07AFD0A90079F0021C4F22A31384645
:102F300005F0FDFD20B148464FF07F510CE000BF89
:102F40004CF20001C4F28041384605F0E9FD38B981
:102F50000021CBF6C071484605F05EFD099001E006
:102F6000CDF82490DDF82080039FD8F81050D8F8D1
:102F70000040284605F082FB0026C4F27A3631462E
:102F800005F08EFF214605F047FDD8F80440069075
:102F9000284605F067FC314605F082FF214605F022
:102FA0003BFD791E8146032907F00300059001913E
:102FB00080F08681069F4FF0000B0598DDF810A089
:102FC000002800F070810AEB0B16707B002871D08E
:102FD000D6E90014384606F06DF905464846214604
:102FE00006F068F9014605F05BFF044628462946CD
:102FF00005F056FF214605F00FFD05F0F7FCB2681D
:1030000000210446C4F2A011104605F005FD01465A
:10301000204605F07EFD00284CD1D8E90004D6E911
:10302000001506F047F906462046294606F042F903
:103030000146804605F034FF04463046314605F02F
:103040002FFF214605F0E8FC05F0D0FC00210446E6
:1030500005F066FD60BB0021C4F2C821204605F0E2
:1030600079FD4FF07C5105464FF07C5705F04AFD45
:10307000002818BF2F464FF07E503946069F05F0B6
:1030800069FD05463046214605F064FD294605F0F8
:1030900007FF099905F0C0FC09904046214605F05C
:1030A00059FD294605F0FCFE0A9905F0B5FC0A9089
:1030B000DDF820800598012800F0F5800BF1010073
:1030C0000AEB0016707B002871D0D6E90014384650
:1030D00006F0F0F805464846214606F0EBF80146B2
:1030E00005F0DEFE04462846294605F0D9FE2146B5
:1030F00005F092FC05F07AFCB26800210446C4F2A7
:10310000A011104605F088FC0146204605F001FD9F
:1031100000284CD1D8E90004D6E9001506F0CAF819
:1031200006462046294606F0C5F80146804605F0C9
:10313000B7FE04463046314605F0B2FE214605F0A2
:103140006BFC05F053FC0021044605F0E9FC60BB74
:103150000021C4F2C821204605F0FCFC4FF07C5150
:1031600005464FF07C5705F0CDFC002818BF2F46D0
:103170004FF07E503946069F05F0ECFC0546304680
:10318000214605F0E7FC294605F08AFE099905F07D
:1031900043FC09904046214605F0DCFC294605F039
:1031A0007FFE0A9905F038FC0A90DDF8208005982A
:1031B000022878D00BF102000AEB0016707B002881
:1031C00071D0D6E90014384606F074F80546484632
:1031D000214606F06FF8014605F062FE04462846D7
:1031E000294605F05DFE214605F016FC05F0FEFBC4
:1031F000B26800210446C4F2A011104605F00CFC90
:103200000146204605F085FC00284CD1D8E9000491
:10321000D6E9001506F04EF807462046294606F086
:1032200049F80146804605F03BFE044638463946DB
:1032300005F036FE214605F0EFFB05F0D7FB002137
:10324000044605F06DFC58BB0021C4F2C82120469D
:1032500005F080FC4FF07C5105464FF07C5605F0A0
:1032600051FC002818BF2E464FF07E50314605F025
:1032700071FC05463846214605F06CFC294605F0F0
:103280000FFE099905F0C8FB09904046214605F05C
:1032900061FC294605F004FE0A9905F0BDFB0A9081
:1032A000DDF82080069F0021C4F22A31384605F05F
:1032B0003EFC002800F0F88109984FF07F51FFE1B3
:1032C00007F0FC000026069F0AF1200A4FF0000BD1
:1032D000C4F2A01607900AE00026C4F2A0160798D0
:1032E0000BF1040B58450AF1400A3FF466AE1AF898
:1032F000130C002873D05AE90814384605F0DAFF99
:1033000005464846214605F0D5FF014605F0C8FDB3
:1033100004462846294605F0C3FD214605F07CFBFE
:1033200005F064FB5AF8181C04460846314605F0BF
:1033300073FB0146204605F0ECFB00284FD1D8E98D
:1033400000055AE9081605F0B5FF0446284631463F
:1033500005F0B0FF0146064605F0A2FD05462046F1
:10336000214605F09DFD294605F056FB05F03EFB84
:103370000021054605F0D4FB70BB00212846C4F2AD
:10338000C82105F0E7FB4FF07C51804605F0BAFB01
:1033900000284FF07C5008BF80464FF07E504146D9
:1033A000DDF8208005F0D6FB07462046294605F0CB
:1033B000D1FB394605F074FD099905F02DFB099004
:1033C0003046294605F0C6FB3946069F05F068FDE4
:1033D0000A9905F021FB0A900026C4F2A0161AF8FB
:1033E000030C002871D05AE90414384605F062FF36
:1033F00005464846214605F05DFF014605F050FDB3
:1034000004462846294605F04BFD214605F004FBFD
:1034100005F0ECFA5AF8081C04460846314605F057
:10342000FBFA0146204605F074FB00284DD1D8E98F
:1034300000055AE9041605F03DFF044628463146CA
:1034400005F038FF0146064605F02AFD05462046F0
:10345000214605F025FD294605F0DEFA05F0C6FAFD
:103460000021054605F05CFB60BB00212846C4F244
:10347000C82105F06FFB4FF07C51074605F042FB79
:1034800000284FF07C5008BF07464FF07E50394669
:1034900005F060FB07462046294605F05BFB3946F0
:1034A00005F0FEFC099905F0B7FA09903046294667
:1034B00005F050FB3946069F05F0F2FC0A9905F02D
:1034C000ABFA0A900026C4F2A0169AF80D00002864
:1034D00071D0DAE90014384605F0ECFE054648469E
:1034E000214605F0E7FE014605F0DAFC04462846D1
:1034F000294605F0D5FC214605F08EFA05F076FA4E
:10350000DAF8081004460846314605F085FA014607
:10351000204605F0FEFA00284DD1D8E90005DAE989
:10352000001605F0C7FE04462846314605F0C2FEE7
:103530000146064605F0B4FC05462046214605F046
:10354000AFFC294605F068FA05F050FA002105465F
:1035500005F0E6FA60BB00212846C4F2C82105F058
:10356000F9FA4FF07C51074605F0CCFA00284FF0ED
:103570007C5008BF07464FF07E50394605F0EAFA06
:1035800007462046294605F0E5FA394605F088FC4D
:10359000099905F041FA09903046294605F0DAFA12
:1035A0003946069F05F07CFC0A9905F035FA0A9029
:1035B0000026C4F2A0169AF81D0000283FF48FAE32
:1035C000DAE90414384605F075FE054648462146FA
:1035D00005F070FE014605F063FC044628462946C6
:1035E00005F05EFC214605F017FA05F0FFF9DAF860
:1035F000181004460846314605F00EFA01462046EA
:1036000005F087FA00287FF46AAED8E90005DAE908
:10361000041605F04FFE04462846314605F04AFEE2
:103620000146064605F03CFC05462046214605F0CD
:1036300037FC294605F0F0F905F0D8F900210546D8
:1036400005F06EFA00287FF447AE00212846C4F248
:10365000C82105F07FFA4FF07C51074605F052FA79
:1036600000284FF07C5008BF07464FF07E50394687
:1036700005F070FA07462046294605F06BFA3946F0
:1036800005F00EFC099905F0C7F909903046294666
:1036900005F060FA3946069F05F002FC0A9905F02C
:1036A000BBF90A9018E600BF4CF20001C4F2804159
:1036B000384605F035FA30B900210998CBF6C071CB
:1036C00005F0AAF90990D8F8100040F69221DDF82B
:1036D0000CB0019FD8F80040C3F6067105F09CF9C4
:1036E000054604F0CBFF0026C4F27A36314605F0D9
:1036F000D7FB214605F090F9D8F8044006902846FB
:1037000005F0B0F8314605F0CBFB214605F084F911
:10371000032F814680F08681069F4FF0000B0598AD
:10372000002800F07281DDF810A00AEB0B16707B08
:10373000002871D0D6E90014384605F0BBFD0546D7
:103740004846214605F0B6FD014605F0A9FB0446B2
:103750002846294605F0A4FB214605F05DF905F051
:1037600045F9B26800210446C4F2A011104605F0E4
:1037700053F90146204605F0CCF900284CD1D8E990
:103780000004D6E9001505F095FD064620462946B9
:1037900005F090FD0146804605F082FB0446304668
:1037A000314605F07DFB214605F036F905F01EF99E
:1037B0000021044605F0B4F960BB0021C4F2C82121
:1037C000204605F0C7F94FF07C5105464FF07C5775
:1037D00005F098F9002818BF2F464FF07E50394663
:1037E000069F05F0B7F905463046214605F0B2F9C7
:1037F000294605F055FB099905F00EF90990404658
:10380000214605F0A7F9294605F04AFB0A9905F07B
:1038100003F90A90DDF820800598012800F0F58072
:103820000BF101000AEB0016707B002871D0D6E97D
:103830000014384605F03EFD05464846214605F091
:1038400039FD014605F02CFB04462846294605F0C3
:1038500027FB214605F0E0F805F0C8F8B268002122
:103860000446C4F2A011104605F0D6F801462046E1
:1038700005F04FF900284CD1D8E90004D6E900152D
:1038800005F018FD06462046294605F013FD0146C1
:10389000804605F005FB04463046314605F000FB46
:1038A000214605F0B9F805F0A1F80021044605F01D
:1038B00037F960BB0021C4F2C821204605F04AF95F
:1038C0004FF07C5105464FF07C5705F01BF900285E
:1038D00018BF2F464FF07E503946069F05F03AF943
:1038E00005463046214605F035F9294605F0D8FA57
:1038F000099905F091F809904046214605F02AF90A
:10390000294605F0CDFA0A9905F086F80A90DDF807
:1039100020800598022878D00BF102000AEB0016EF
:10392000707B002871D0D6E90014384605F0C2FC3F
:1039300005464846214605F0BDFC014605F0B0FAB3
:1039400004462846294605F0ABFA214605F064F8FE
:1039500005F04CF8B26800210446C4F2A0111046EC
:1039600005F05AF80146204605F0D3F800284CD15E
:10397000D8E90004D6E9001505F09CFC074620466E
:10398000294605F097FC0146804605F089FA044671
:103990003846394605F084FA214605F03DF805F031
:1039A00025F80021044605F0BBF858BB0021C4F2FD
:1039B000C821204605F0CEF84FF07C5105464FF067
:1039C0007C5605F09FF8002818BF2E464FF07E5019
:1039D000314605F0BFF805463846214605F0BAF8ED
:1039E000294605F05DFA099905F016F80990404658
:1039F000214605F0AFF8294605F052FA0A9905F07C
:103A00000BF80A90DDF82080069F0021C4F22A31CD
:103A1000384605F08CF8002800F0F88109984FF03E
:103A20007F51FFE10026069F0BF0FC000AF1200AFF
:103A30004FF0000BC4F2A01607900AE00026C4F273
:103A4000A01607980BF1040B58450AF1400A3FF401
:103A500066AE1AF8130C002873D05AE908143846D9
:103A600005F028FC05464846214605F023FC0146A2
:103A700005F016FA04462846294605F011FA2146B3
:103A800004F0CAFF04F0B2FF5AF8181C04460846B6
:103A9000314604F0C1FF0146204605F03AF80028FF
:103AA0004FD1D8E900055AE9081605F003FC044691
:103AB0002846314605F0FEFB0146064605F0F0F9C2
:103AC00005462046214605F0EBF9294604F0A4FFFF
:103AD00004F08CFF0021054605F022F870BB0021A0
:103AE0002846C4F2C82105F035F84FF07C518046D5
:103AF00005F008F800284FF07C5008BF80464FF0D2
:103B00007E504146DDF8208005F024F80746204627
:103B1000294605F01FF8394605F0C2F9099904F065
:103B20007BFF09903046294605F014F83946069F78
:103B300005F0B6F90A9904F06FFF0A900026C4F266
:103B4000A0161AF8030C002871D05AE9041438465C
:103B500005F0B0FB05464846214605F0ABFB0146A3
:103B600005F09EF904462846294605F099F92146B4
:103B700004F052FF04F03AFF5AF8081C04460846C5
:103B8000314604F049FF0146204604F0C2FF0028F8
:103B90004DD1D8E900055AE9041605F08BFB04461F
:103BA0002846314605F086FB0146064605F078F9C1
:103BB00005462046214605F073F9294604F02CFFFE
:103BC00004F014FF0021054604F0AAFF60BB0021A9
:103BD0002846C4F2C82104F0BDFF4FF07C510746CF
:103BE00004F090FF00284FF07C5008BF07464FF0CC
:103BF0007E50394604F0AEFF07462046294604F0C1
:103C0000A9FF394605F04CF9099904F005FF099020
:103C10003046294604F09EFF3946069F05F040F9DC
:103C20000A9904F0F9FE0A900026C4F2A0169AF848
:103C30000D00002871D0DAE90014384605F03AFB8F
:103C400005464846214605F035FB014605F028F9B2
:103C500004462846294605F023F9214604F0DCFEF7
:103C600004F0C4FEDAF8081004460846314604F0B1
:103C7000D3FE0146204604F04CFF00284DD1D8E980
:103C80000005DAE9001605F015FB04462846314622
:103C900005F010FB0146064605F002F905462046F0
:103CA000214605F0FDF8294604F0B6FE04F09EFE1C
:103CB0000021054604F034FF60BB00212846C4F211
:103CC000C82104F047FF4FF07C51074604F01AFF6B
:103CD00000284FF07C5008BF07464FF07E50394611
:103CE00004F038FF07462046294604F033FF3946E2
:103CF00005F0D6F8099904F08FFE09903046294660
:103D000004F028FF3946069F05F0CAF80A9904F026
:103D100083FE0A900026C4F2A0169AF81D0000281F
:103D20003FF48FAEDAE90414384605F0C3FA0546CD
:103D30004846214605F0BEFA014605F0B1F80446B2
:103D40002846294605F0ACF8214604F065FE04F04B
:103D50004DFEDAF8181004460846314604F05CFEC1
:103D60000146204604F0D5FE00287FF46AAED8E96B
:103D70000005DAE9041605F09DFA044628463146A6
:103D800005F098FA0146064605F08AF805462046F1
:103D9000214605F085F8294604F03EFE04F026FE93
:103DA0000021054604F0BCFE00287FF447AE002148
:103DB0002846C4F2C82104F0CDFE4FF07C510746DE
:103DC00004F0A0FE00284FF07C5008BF07464FF0DB
:103DD0007E50394604F0BEFE07462046294604F0D0
:103DE000B9FE394605F05CF8099904F015FE099012
:103DF0003046294604F0AEFE3946069F05F050F8DD
:103E00000A9904F009FE0A9018E600BF4CF200017E
:103E1000C4F28041384604F083FE48B90021099875
:103E2000CBF6C07104F0F8FD029E0A9D074602E041
:103E3000029EDDE909752846294605F031F8044659
:103E40003846394605F02CF8214604F0E5FD04F02B
:103E5000CDFD4CF6CD41C3F6CC5104F053FE20B15C
:103E60002846394604F0B8FA0646C8F810600BB088
:103E7000BDE8F08F40F2CC04C2F20004EFF31080F2
:103E800072B600BF204600F00BF8FBE710B5044601
:103E900001F0E4FC2046BDE8104001F0CDBE00007A
:103EA00010B50446D0F8900F002808BF10BDFCF7ED
:103EB000BEF90020C4F8900F10BD00002DE9F047B6
:103EC00004460020C4F2164048F20005C4F2224520
:103ED0004FF0000A84E8210400200021C4F2C81039
:103EE000C4F240014FF06412C4E906A09420C4E972
:103EF0000312A4F814A0C4F8A4AF04F1200704F539
:103F0000DE6804F66C49FCF763F90646384640F271
:103F1000CE61FCF716FA404640F27951FCF711FAEF
:103F2000484640F22131FCF70CFAC4F8906F1EB1FC
:103F3000304603F06BFF65680021CCF2484128460B
:103F400004F06AFD0021C4F2483104F065FD00214F
:103F5000C4F8940FCCF2C841284604F05DFDC4F8C3
:103F6000980F012084F89C0FC4F8A0AFBDE8F0873B
:103F7000B0B590F88C3F00F66C42044601F04AFE62
:103F80002046FCF7CBFE204602F046F8D4F8A00FFE
:103F90004EF6EF61CEF6EE61484342F222214FEA3F
:103FA000F000C0F22221884215D8606848F2000172
:103FB000C4F23B5104F030FD054620462946FCF78B
:103FC00011FB2046294601F009FCD4F8900F10B1EE
:103FD000294603F0EFFCD4F8900F10B1214603F00E
:103FE0001BFF2046FFF752FF60680021CCF24841DA
:103FF00004F012FD0021C4F2483104F00DFDB4F9C3
:104000001010C4F8940F0029DCBF002084F89C0F26
:10401000B0BD0000014690F82100022816D10868C2
:10402000D1E90FC3026822F00E020260026822F09A
:1040300001020260012000FA03F2CCF8042081F8AA
:1040400021000020002281F820207047042088638E
:104050000120002281F820207047000080B590F8F0
:104060002110022924D10268116821F00E0111608B
:104070002F211368C4F202018A4240F20401C4F203
:10408000020123F00103136016DD3023C4F20203A2
:104090009A421DD04423C4F202039A421CD05823F2
:1040A000C4F202039A421DD14FF4803322E000BFD4
:1040B00004218163012080BD0823C4F202039A42D7
:1040C0000ED01C23C4F202039A420BD1102311E03C
:1040D0004FF480730EE000BF4FF480530AE000BF3E
:1040E000012307E001F1680C4FF08073624508BFBF
:1040F0004FF480130B60012180F82110426B0021E6
:1041000080F820100AB190470021084680BD0000C9
:1041100010B5D0E90FCE0168DCF800300A6823FA48
:104120000EF35C072AD512F0040427D00A68920621
:1041300003D40A6822F004020A602F22C4F20202A9
:10414000914240F20402C4F202025BDD3023C4F269
:104150000203994272D04423C4F20203994273D0FD
:104160005823C4F20203994240F07A804FF480232E
:104170001360C16A002940F098806FE09C0727D542
:1041800012F0020424D00A68920606D40A6822F0CB
:104190000A020A60012280F821202F22C4F20202C2
:1041A000914240F20402C4F202023BDD3023C4F229
:1041B0000203994260D04423C4F2020399425FD0C3
:1041C0005823C4F20203994260D14FF4003365E0F2
:1041D0001B0743D512F0080208BF10BD0A6822F081
:1041E0000E020A60012101FA0EF2CCF8042081636C
:1041F00080F82110016B0022002980F8202054D182
:104200002CE000BF0823C4F20203994222D01C23F1
:10421000C4F20203994223D140231360C16A0029EA
:1042200043D11BE00823C4F2020399422CD01C2383
:10423000C4F20203994229D120232FE04FF4806376
:104240001360C16A89BB09E04FF480431360C16AFF
:1042500059BB03E004231360C16A31BB10BD00BF2A
:1042600002F168044FF08063A14208BF4FF480035D
:104270001360C16AC9B9F1E74FF400730EE000BFE3
:104280004FF400530AE000BF022307E002F1680484
:104290004FF00073A14208BF4FF400131360816A0E
:1042A0000022002980F82020D8D0BDE8104008471F
:1042B000014600284FF0010008BF70472DE9F04388
:1042C000D1F800C04FF6F873CBF6FD734CF6CD4233
:1042D0006344CCF6CC42A3FB02236FF0030707EA4A
:1042E00093030027C4F2020701F10C09C1E90F731F
:1042F0000223D1E9012E99E87002D1F81C8081F8DF
:104300002130DCF8003043F6F077BB431A4342EA31
:104310000E0222432A43324342EA090242EA0802D9
:10432000CCF8002000228A6381F8210081F8202047
:104330000020BDE8F0437047F0B590F820C0BCF114
:10434000010F32D04FF0010E80F820E090F821C02C
:10435000BCF1010F26D14FF0020C80F821C04FF0C4
:10436000000CC0F838C0D0E900C4C56AC66BDCF8E0
:104370000070102C27F00107CCF80070006C0EFACA
:1043800000F070600846CCF8043004BF10460A46BE
:10439000CCF80800CCF80C20DCF8000045B140F067
:1043A0000E000DE0002180F820100220F0BD00BFBB
:1043B00020F00400CCF80000DCF8000040F00A0017
:1043C000CCF80000DCF8000040F00100CCF8000060
:1043D0000020F0BD7047000040F21441C4F201011A
:1043E0000A68024214BF08607047FFF7F3BF00007D
:1043F0002DE9F04F82B00E68002E00F0038141F2EB
:104400000042C4F20102042340F2004E904208BF71
:1044100003234FF6FF7CC4F2010E00930024012316
:10442000C1F2100C4FF0000A4FF0000949E000BF44
:10443000012704F00C030F229A402BEA020207FA2C
:1044400003F34FEA9A051A4346F82520D1F804B041
:1044500040F20C455FEACB22DEF8082054BF22EA86
:10446000080242EA0802C4F20105CEF808202A68D0
:104470005FEA8B2354BF22EA080242EA08022A605C
:104480005FEA8B33DEF8042054BF22EA080242EAD6
:1044900008025FEACB33CEF80420DEF800204FF0AC
:1044A000010354BF22EA080242EA0802CEF80020C3
:1044B0000E680AF1010A36FA0AF204F1040400F067
:1044C000A18003FA0AF816EA080FF1D04E68664593
:1044D00012DC122E56D8DFE806F0350B454955554B
:1044E00055555555555555555555554D510000BFC8
:1044F000D1F80C9046E000BF4FF6FF72C1F22102E6
:1045000096420FDC0022C1F2110296421AD000221C
:10451000C1F21202964215D00022C1F22102964247
:1045200010D02FE00022C1F2220296420AD00022CF
:10453000C1F23102964205D00022C1F23202964207
:1045400020D100BF8A684AB1012A14BFC0F8148084
:10455000C0F810804FF0080914E000BF4FF00409C4
:1045600010E000BFCA6802F108090BE04FF0000933
:1045700008E000BFCA6802F1040903E0CA6802F15A
:104580000C0900BF22460646BAF1080F24BF203AA4
:10459000043637680F25954027EA050509FA02F227
:1045A0002A433260CA79D2067FF582AF41F21803FE
:1045B000C4F202031A68AEF57E7642F001021A6078
:1045C0001A6802F001020192019A2AF0030256F8D9
:1045D00002B040F60002C4F20102904210D040F650
:1045E0000042C4F2010290423FF422AF41F20002C5
:1045F000C4F20102009F904208BF022719E700BFE2
:10460000002716E702B0BDE8F08F00008068084080
:1046100018BF01207047000041F6FC40C2F20000C4
:104620000068704740F2000041F6FC41C2F2000011
:10463000C2F2000100780A68104408607047000068
:1046400080B542F20000C4F20200016841F010019E
:104650000160032000F08EF8002000F005F800F063
:1046600027F8002080BD000070B540F20006C2F2BD
:10467000000640F208013278C2F200014FF47A736A
:104680000968B3FBF2F20446B1FBF2F1084600F010
:1046900063FB0F2C4FF0010508D838B94FF0FF30FD
:1046A00021460022002500F039F87460284670BDCC
:1046B00082B041F21800C4F202000168042241F005
:1046C00001010160016801F0010101910199416856
:1046D00041F080514160406800F0805000900098A7
:1046E0000420C4F20100016862F31A61016002B0A3
:1046F00070470000002848BF7047C1B200F01F009B
:10470000012202FA00F04EF20012CEF2000242EA5A
:10471000D10121F0030108607047000010B54EF68A
:104720000C5CCEF2000CDCF80030C3F3022E8EF0ED
:104730000704042C28BF0424BEF103034FF0FF3EFE
:104740000EFA04F438BF0023A14399400EFA03F394
:104750009A43114300F00F0200F160430901043A4B
:1047600003F564436244002848BF02F10C0319704A
:1047700010BD00004EF60C51CEF200010A684FF653
:10478000FF031A4060F30A2242F0806040F0FD709F
:10479000086070472DE9F04381B0002800F0858063
:1047A00042F20008C4F202080446D8F800000D46A0
:1047B00000F0070088420CD2D8F8000020F0070073
:1047C0002843C8F80000D8F8000000F00700A8420D
:1047D0006BD1206841F204098107C4F2020917D5A0
:1047E000410705D5D9F8001041F4E061C9F800107F
:1047F000010705D5D9F8001041F46051C9F800103F
:10480000D9F80010A26821F0F0011143C9F8001096
:10481000C00741D1D8F8000000F00700A8420CD929
:10482000D8F8000020F007002843C8F80000D8F8A6
:10483000000000F00700A84237D12068410707D5E3
:10484000D9F80010E26821F4E0611143C9F80010C2
:10485000000708D5D9F80000216920F4605040EA2B
:10486000C100C9F80000D9F8002002F00C000828A7
:1048700041F20020C0F27A0050D149F2C443C2F3A1
:104880008341C0F60003595CD2033BD440F60010CC
:10489000C0F23D00484341E0606802280AD0012888
:1048A0002AD159F8041C890308D4012001B0BDE8BD
:1048B000F08300BF59F8041C8901F6D5D9F800101F
:1048C00021F003010843C9F80000FFF7A5FE0646E2
:1048D00041F28837D9F80000616800F00C00B0EBB5
:1048E000810F97D0FFF798FE801BB842F2D90320C2
:1048F00001B0BDE8F08300BF59F8041C8907D4D586
:10490000DCE700BFD9F8002049F2C243C2F34042BD
:10491000C0F600039A5C4843B0FBF2F0D9F80010EF
:1049200049F2AA42C1F30311C0F60002515C40F201
:10493000080220FA01F140F20400C2F2000000680F
:10494000C2F200021160FFF78FFE002001B0BDE847
:10495000F083000040F2080041F20401C2F20000BE
:10496000C4F202010068096849F2BA42C1F30221A7
:10497000C0F60002515CC8407047000040F20800D9
:1049800041F20401C2F20000C4F2020100680968A9
:1049900049F2BA42C1F3C221C0F60002515CC840DC
:1049A000704700002DE9F04182B0002868D004462D
:1049B000007841F20006C007C4F2020625D07068F4
:1049C00000F00C0004281BD0706800F00C000828D0
:1049D00002D17068C00313D46068002800F06881B9
:1049E000B0F5A02F00F07C81B0F5803F00F07C8115
:1049F000306820F480303060306820F4802076E128
:104A00003068800301D56068D0B32078800718D55E
:104A1000706810F00C0F07D0706800F00C000828C8
:104A20006ED17068C0036BD43068800702D52069EE
:104A3000012825D13068616920F0F80040EAC10002
:104A40003060207800071FD42078400732D4E56911
:104A500095B1706800F00C00082840F08F80012D9F
:104A60000ED07068216A00F480328A4208D1616AEF
:104A700000F47010884203D1002002B0BDE8F0813C
:104A8000012002B0BDE8F081A069002862D00020BA
:104A9000C4F242200121C0F88014FFF7BDFD054695
:104AA000706A800700F18C80FFF7B6FD401B02287A
:104AB000F6D92AE1F06910F0805808D1F06940F089
:104AC0008050F061F06900F080500090009847F24B
:104AD0000007C4F200073868C00529D4386840F4DC
:104AE00080703860FFF798FD054600BF3868C00544
:104AF0001ED4FFF791FD401B6428F7D905E100BFE4
:104B00002069002840F20000C4F2422000F08280B8
:104B100001210160FFF780FD054600BF3068800776
:104B20003FF588AFFFF778FD401B0228F6D9ECE08F
:104B3000E068002800F08080052800F097800128B8
:104B400000F09880306A20F001003062306A20F076
:104B5000040092E00020C4F242200021C0F880143A
:104B6000FFF75AFD054600BF706A80077FF56CAFFE
:104B7000FFF752FD401B0228F6D9C6E00027C4F219
:104B8000422700203866FFF747FD022D05460BD16E
:104B90003068800140F1BE80FFF73EFD401B0228D7
:104BA0004FF00300F4D968E7306880017FF564AF07
:104BB000FFF732FD401B02284FF00300F4D95CE7F9
:104BC00040F20800C2F20000006844F6D351C1F27E
:104BD0006201A0FB0101480A019000BF00BF0198DB
:104BE000411E002801913FF42FAF00BF0198411EE4
:104BF000002801913FF428AF00BF0198411E002812
:104C000001913FF421AF00BF0198411E002801919E
:104C1000E4D119E700210160FFF7FEFC054600BF63
:104C2000306880077FF50DAFFFF7F6FC401B0228C8
:104C30004FF00300F4D920E7306A20F00100306221
:104C4000306A20F004003062FFF7E6FC054641F2CE
:104C5000883700BF306A800720D5FFF7DDFC401B96
:104C6000B8424FF00300F5D907E700BF306A40F0C3
:104C700004003062306A40F001003062FFF7CCFC83
:104C8000054641F2883700BF306A800706D4FFF737
:104C9000C3FC401BB842F7D937E000BFB8F1000FA2
:104CA0007FF4D5AEF06920F08050F061CFE600BF10
:104CB000306820F480303060306820F4802030602C
:104CC000FFF7AAFC054600BF306880037FF59DAE64
:104CD000FFF7A2FC401B64284FF00300F4D9CCE698
:104CE000306840F480203060306840F480303060BC
:104CF000FFF792FC054600BF306880033FF585AEA4
:104D0000FFF78AFC401B6428F6D9032002B0BDE8F7
:104D1000F08100BF206AB0F5803F05D17168A268BC
:104D200021F40031114371607168626A21F47411D9
:104D300011430843706001203866FFF76DFC04469C
:104D4000306880013FF598AEFFF766FC001B022833
:104D50004FF00300F4D990E6411E0020B0EB116F34
:104D60001CBF012070474EF21002CEF200025160CB
:104D70004EF62351CEF20001F0230B700721906014
:104D80001160704770470000006844F20041C4F2AF
:104D90000001884218BF704740F2700040F2C00C1A
:104DA000C2F2000041F2FC01C2F2000C0023083004
:104DB000C2F200014FF400628CF8003000F08EBBAC
:104DC000B0B582B0044600680168C368426901F06A
:104DD0002F05202D03F0200506D12DB1204602B06D
:104DE000BDE8B04002F040BD5FEA017C1EBF02F0AA
:104DF000010E03F4907212EB0E0253D1226B012AC2
:104E000005D111F0100218BF13F0100236D10A06B6
:104E100022D513F080021FD094F8411021293FD1F0
:104E2000A168B1F5805F03D12169002900F070828B
:104E3000216A4A1C226209784160E18C01390A0426
:104E4000E1842DD1C16821F08001C160C16841F0C9
:104E50004001C16002B0B0BD490621D513F0400148
:104E60001ED0C16821F04001C1602021204684F895
:104E7000411002B0BDE8B04000F042BC00210191F9
:104E8000016801914168019101994069400613D47C
:104E9000A08DE18DE28D002A18BF884240F0BA81D2
:104EA00002B0B0BDCA0718BF13F4807240F0B680DC
:104EB0004A0700F1B980BEE0E06B016849688AB238
:104EC000002AEDD0A38D9A42EAD2E185806920289C
:104ED00000F09C80206850E8030F216820F4807067
:104EE00041E80302DAB1206850E8030F216820F49A
:104EF000807041E8030292B1206850E8030F2168F6
:104F000020F4807041E803024AB1206850E8030FA2
:104F1000216820F4807041E80302002ADAD1206879
:104F200050E8050F216820F0010041E80502DAB1E0
:104F3000206850E8050F216820F0010041E80502D3
:104F400092B1206850E8050F216820F0010041E887
:104F500005024AB1206850E8050F216820F00100E1
:104F600041E80502002ADAD1206850E8050F2168DF
:104F700020F0400041E80502DAB1206850E8050F52
:104F8000216820F0400041E8050292B1206850E815
:104F9000050F216820F0400041E805024AB1206871
:104FA00050E8050F216820F0400041E80502002A82
:104FB000DAD1202084F8420000202063206850E8E5
:104FC000030F216820F0100041E80302DAB12068E5
:104FD00050E8030F216820F0100041E8030292B16D
:104FE000206850E8030F216820F0100041E8030218
:104FF0004AB1206850E8030F216820F0100041E812
:105000000302002ADAD1E06BFFF704F802206063A4
:10501000A08DE18D401A81B2204674E1626C42F0AD
:10502000010262644A0706D5BEF1000F03D0626C2C
:1050300042F0020262648A0706D5BEF1000F03D077
:10504000626C42F004026264BCF1000F09D545EACB
:105050000E02B2FA82F2520903D1626C42F00802E7
:105060006264626C002A3FF41BAF11F0200118BF8C
:10507000002D03D0204602F0F7FB20684069616CE8
:1050800000F0400001F00801401800F0B58000BFBA
:10509000206850E8030F216820F4907041E8030273
:1050A000BAB3206850E8030F216820F4907041E8FB
:1050B000030272B3206850E8030F216820F4907057
:1050C00041E803022AB3206850E8030F216820F466
:1050D000907041E80302002ADAD11AE0206850E813
:1050E000050F216820F0010041E80502DAB12068CF
:1050F00050E8050F216820F0010041E8050292B157
:10510000206850E8050F216820F0010041E8050201
:105110004AB1206850E8050F216820F0010041E8FD
:105120000502002ADAD1206B012824D1206850E83A
:10513000030F216820F0100041E80302DAB1206873
:1051400050E8030F216820F0100041E8030292B1FB
:10515000206850E8030F216820F0100041E80302A6
:105160004AB1206850E8030F216820F0100041E8A0
:105170000302002ADAD1202084F8420000202063B4
:105180002068406940063FD5206850E8050F216837
:1051900020F0400041E80502DAB1206850E8050F30
:1051A000216820F0400041E8050292B1206850E8F3
:1051B000050F216820F0400041E805024AB120684F
:1051C00050E8050F216820F0400041E80502002A60
:1051D000DAD1E06BC0B147F2B141C0F600014163E2
:1051E000FEF73CFF00283FF45BAEE06B416B02B082
:1051F000BDE8B040084700BF2046FFF7C5FD0020CE
:10520000606402B0B0BD00BF204602B0BDE8B0404F
:10521000FFF7BABD401A216851E8031F226821F444
:10522000907142E80313DBB1216851E8031F226843
:1052300021F4907142E8031393B1216851E8031FF0
:10524000226821F4907142E803134BB1216851E8C0
:10525000031F226821F4907142E80313002BDAD176
:10526000216851E8051F226821F0010142E8051379
:10527000DBB1216851E8051F226821F0010142E8F5
:10528000051393B1216851E8051F226821F001013F
:1052900042E805134BB1216851E8051F226821F04F
:1052A000010142E80513002BDAD1202184F84210D5
:1052B00000212163216851E8031F226821F01001B9
:1052C00042E80313DBB1216851E8031F226821F093
:1052D000100142E8031393B1216851E8031F2268CB
:1052E00021F0100142E803134BB1216851E8031F7C
:1052F000226821F0100142E80313002BDAD10222C8
:1053000081B22046626302B0BDE8B040FFF73ABD0B
:10531000216A31F8022B6FF35F22426021628CE533
:10532000002804BF0120704710B5044690F84100E2
:1053300028B9002084F84000204600F063F82420BB
:1053400084F841002068D4E90212C36823F40053B2
:10535000C360036923F440531A430261D4E9042370
:105360001143C268194341F20C639A431143C1606F
:105370004169A26921F44071114343F60002C4F26D
:1053800001029042416103D0FFF7E4FA02E000BF5E
:10539000FFF7F4FA6268192148439100B0FBF1F07D
:1053A00048F21F51C5F2EB11A0FB01235A094FF639
:1053B0009C73C0F6FF7302FB0300322303EB001063
:1053C000A0FB0101F02303EA5113206803EB021252
:1053D000C1F3431111448160016921F490410161DD
:1053E000416921F02A014161C16841F40051C16065
:1053F00000202021606484F8411084F8421060632A
:1054000010BD00002DE9F04186B0044644F2004092
:105410002168C4F2000000268142049602D006B042
:10542000BDE8F08141F21801C4F202014A6840F27D
:105430006C0842F400324A604A6800F5444002F4C5
:1054400000320192019A0A68C4F2020842F0040292
:105450000A60096801F00401019101990C2102918F
:1054600002210391059102A9FEF7C2FF41F27405E2
:10547000C2F2000580272846C5E90086C5E9026713
:10548000C5E90466C5E90666FEF712FF002818BFE5
:10549000FEF7F0FCE5636C6241F2B80508F1140018
:1054A000C2F200051021002285E887002846C5E9E0
:1054B0000422C5E90622FEF7FBFE002818BFFEF70E
:1054C000D9FC262000210022A5636C62FFF726F993
:1054D0002620FFF70FF906B0BDE8F08170B582B065
:1054E000044690F8420020280AD113460A460029B3
:1054F0004FF0010018BF002B06D102B070BD00BFF5
:10550000022002B070BD00BF002522202563A262E8
:10551000A385656484F842002168E06B47F2396C2A
:1055200047F2997E47F2BD46C0F6000CC0F6000E69
:10553000C0F600060431C0E90ACEC0E90C65FEF7EA
:10554000FBFE019520680168019140680190019877
:10555000206928B3206850E8030F216840F4807068
:1055600041E80302E2B1206850E8030F216840F4EB
:10557000807041E803029AB1206850E8030F216867
:1055800040F4807041E8030252B1206850E8030FF4
:10559000216840F4807041E80302002ADAD100BF9C
:1055A000206850E8050F216840F0010041E805023D
:1055B000E2B1206850E8050F216840F0010041E8A1
:1055C00005029AB1206850E8050F216840F00100FB
:1055D00041E8050252B1206850E8050F216840F00B
:1055E000010041E80502002ADAD100BF206850E836
:1055F000050F216840F0400041E80502DAB120685B
:1056000050E8050F216840F0400041E8050292B1E2
:10561000206850E8050F216840F0400041E805028D
:105620004AB1206850E8050F216840F0400041E889
:105630000502002ADAD1002002B070BD70470000D8
:105640007047000070B5044690F8410020281CBF48
:10565000022070BD00294FF001004DD0002A1346F2
:1056600008BF70BD4FF0000C21202162A384E384A9
:10567000C4F844C084F841002268A06B47F2B17EB0
:1056800047F6610547F2BD46C0F6000EC0F60005BC
:10569000C0F600060432C0E90AE5C0E90C6CFEF76A
:1056A0004BFE20686FF04001016000BF206850E8A9
:1056B000050F216840F0800041E80502F2B1206842
:1056C00050E8050F216840F0800041E80502AAB1CA
:1056D000206850E8050F216840F0800041E805028D
:1056E00062B1206850E8050F216840F0800041E871
:1056F0000502002ADAD1002070BD00BF002070BD75
:10570000006844F20041C4F20001884218BF7047AB
:1057100040F2C000C2F2000000210170704700009A
:1057200070470000FEE700007047000049B1022901
:1057300006D0012912BF002001300078704700BF59
:10574000023000787047000002290BD0012911D0E7
:10575000C1B90178B1B103300078B0FA80F04009E6
:10576000704700BF817869B105300078B0FA80F0E9
:1057700040097047417829B104300078B0FA80F0D0
:105780004009704700207047B0B504460078B4F86F
:10579000011040F60005C4F20105E070A180284622
:1057A0000221FEF733FFB0FA80F04009207028464E
:1057B0001021FEF72BFFB0FA80F04009607005F56C
:1057C00080600121FEF722FFB0FA80F04009A0704E
:1057D000B0BD0000FEE70000FEE700002DE9F04349
:1057E00081B090F88C5F9DB304468846002600F691
:1057F0006C4908E0013D013E84F88C5F0136F0B24F
:10580000E9B2884224D2F7B204EB071090F8791C71
:105810000029F3D0D0F8700C414603F081F900283C
:10582000ECD1E8B20138B842E4D9030159F80330A9
:105830003A0109EB001049F80230D0E90123C068B1
:1058400009EB0711C1E90123C86094F88C5FD1E727
:1058500001B0BDE8F0830000704700002DE9F04F73
:1058600081B0044690F8EC06002845D000264FF0A1
:10587000340A05E0013694F8EC06F1B281423BD2DD
:105880005FFA86F808FB0A4797F847000028F1D02E
:1058900097F846000028EDD007F12002D4E900096E
:1058A000D2E9001B03F006FD05464846594603F0C1
:1058B00001FD014603F0F4FA81462846294603F02B
:1058C000EFFA494603F0A8F803F090F8E269396C62
:1058D0000546104603F0A0F80146284603F019F9E2
:1058E0000028C7D1208A41461E3820822046FBF777
:1058F00059F9013EBEE700BF94F8ED06002847D0F5
:10590000002605E0013694F8ED06F1B281423FD25F
:105910005FFA86F808EB480004EB401797F8550348
:105920000028EFD097F854030028EBD007F54B720E
:10593000D4E90009D2E9001A03F0BCFC0546484648
:10594000514603F0B7FC014603F0AAFA8146284607
:10595000294603F0A5FA494603F05EF803F046F83D
:10596000E269D7F84C130546104603F055F8014696
:10597000284603F0CEF80028C4D1208A4146A0F57D
:105980007A7020822046FBF7F3F8013EBAE700BFA9
:1059900001B0BDE8F08F00002DE9F04F83B09346D1
:1059A000D0E90074D0E9026280468A46204611465A
:1059B00003F080FC0021C8F80400C4F23421304612
:1059C00003F0C8F80021C4F2400103F069FA01466F
:1059D000384603F021F848F20001C4F28941064636
:1059E00003F090F80025C4F2C82500281CBF48F237
:1059F0000006C4F289463046294603F083F80028A1
:105A000008BF2E46BBF1000FC8F800604ED0CDE9AC
:105A100001740AF108044FF0010900260BE000BFF1
:105A200001365E454FF0000938BF4FF00109B3451C
:105A300004F1100427D060790028F1D0D8E9000AD9
:105A400054E9021503F036FC07465046294603F098
:105A500031FC014603F024FA05463846394603F086
:105A60001FFA294602F0D8FF02F0C0FFD8F81C2028
:105A700021680546104602F0CFFF0146284603F094
:105A800056F80028CCD05FEAC970DDE901200DD0BE
:105A9000B8F81010C8F800200239A8F8101000213A
:105AA000C4F2701102F0B8FFC8F8040003B0BDE8FA
:105AB000F08F0000F0B581B00E4604460846002184
:105AC000FFF734FE0025CCF2342578B1A768002119
:105AD000CCF23421384603F023F838B90021CBF654
