:020000040800F2
:10000000002F002091010008693E0008B53D00085E
:10001000653E0008490500088158000800000000FE
:10002000000000000000000000000000B1530008C4
:100030006505000800000000E93E0008B55300080F
:10004000AB010008AB010008AB010008AB010008E0
:10005000AB010008AB010008690500087105000844
:10006000AB010008AB01000879050008AB010008EE
:10007000AB010008AB010008AB010008AB010008B0
:100080004D05000859050008AB010008AB01000848
:10009000AB010008AB010008AB010008AB01000890
:1000A000AB010008AB010008AB010008AB01000880
:1000B000AB010008AB010008AB010008AB01000870
:1000C000AB010008AB010008AB010008AB01000860
:1000D000AB010008AB01000875580008AB0100082F
:1000E000AB010008AB010008AB01000800F002F80A
:1000F00000F03EF80AA090E8000C82448344AAF184
:100100000107DA4501D100F033F8AFF2090EBAE881
:100110000F0013F0010F18BFFB1A43F0010318473B
:100120009C7F0000BC7F0000103A24BF78C878C1D3
:10013000FAD8520724BF30C830C144BF04680C60ED
:10014000704700000023002400250026103A28BF35
:1001500078C1FBD8520728BF30C148BF0B60704739
:100160001FB59DE8030000F001F91FBD10B510BDDB
:1001700000F068F91146FFF7F3FF06F059FD00F0B3
:1001800086F903B4FFF7F2FF03BC00F0B7F90000F3
:100190000948804709480047FEE7FEE7FEE7FEE71B
:1001A000FEE7FEE7FEE7FEE7FEE7FEE70448054957
:1001B000054A064B70470000B9530008ED000008DF
:1001C00000290020002F0020002B0020002B002001
:1001D00070B5064600F0AEF8056806F10B0020F099
:1001E0000704B4429CBF002070BD2B466A68BAB1B8
:1001F0001068A04210D304F1080188423CBF506847
:10020000586007D35168101941601168091B0160DB
:1002100058601460101D70BD13465268002AE7D163
:100220002146284600F08EF80028DED170BD70B55A
:100230000446051F00F07EF80068002C14BF4468D7
:1002400070BD002C18BFAC423CBF20466468F8D398
:1002500001680A18AA4218BF456003D12A680546FA
:100260001144016028684119A1421CBF6C6070BD37
:100270006168696021680844286070BD10B5203A43
:10028000C0F00B80B1E81850A0E81850B1E8185041
:10029000A0E81850203ABFF4F5AF5FEA027C24BF13
:1002A000B1E81850A0E8185044BF18C918C0BDE8FC
:1002B00010405FEA827C24BF51F8043B40F8043BC5
:1002C00008BF7047D20728BF31F8023B48BF11F87A
:1002D000012B28BF20F8023B48BF00F8012B7047D4
:1002E0004FF0000200B5134694469646203922BFCF
:1002F000A0E80C50A0E80C50B1F12001BFF4F7AF1A
:10030000090728BFA0E80C5048BF0CC05DF804EBFB
:10031000890028BF40F8042B08BF704748BF20F869
:10032000022B11F0804F18BF00F8012B7047704767
:1003300070477047004870471800002070477047AA
:100340007047704738B504460A4600206946AFF347
:100350000080002808BF38BD02460099204600F002
:100360004FF8012038BD012000F064B8F8B5AFF3B4
:100370000080054600200C46102000BF0646A81944
:10038000A0420DD9324669460020AFF30080070035
:1003900008BF00F04FF80098A04218BF0546C419E6
:1003A000FFF7C8FF05600746F01D20F0070046195B
:1003B000284600F00AF8B44208BFF8BDA21B314637
:1003C0003868BDE8F84000F01BB800210160C0E9C2
:1003D000011070471020704710B500F00DF800684C
:1003E00010BD10B5044600F007F8046010BD000011
:1003F000004870471000002000487047100000209F
:10040000034640688C46002818BF88423CBF03461C
:100410004068F8D318681844884207D00CF10300EC
:1004200020F00700001D411A521A0146081D0A60FB
:10043000FFF7FDBE10B500F039F8BDE8104000F040
:100440002FB870477546FFF7D3FFAE4605006946E3
:10045000534620F00700854618B020B5FFF7A6FEEA
:10046000BDE820404FF000064FF000074FF00008B5
:100470004FF0000BAC46ACE8C009ACE8C009ACE8F2
:10048000C009ACE8C00921F007018D46704710B5DE
:100490000446AFF300802046BDE81040FFF771BE70
:1004A000002801D000F02AB87047000010B50128DC
:1004B00005D0002103A000F027F8012010BD09A1FC
:1004C000F8E7000053494752544D454D3A204F75C7
:1004D00074206F662068656170206D656D6F72793C
:1004E000000000003A2048656170206D656D6F72F4
:1004F0007920636F72727570746564000149182009
:10050000ABBEFEE72600020070B505460C460A2089
:1005100000E06D1C00F011F835B128780028F8D102
:1005200002E0641C00F009F814B120780028F8D12A
:10053000BDE870400A20AFF3008008B569468DF829
:1005400000000320ABBE08BDFEE7000041F27400CE
:10055000C2F2000002F024B941F2B800C2F2000079
:1005600002F01EB970470000012002F07DBA0000C1
:10057000022002F079BA0000102002F075BA0000E3
:100580002DE9F04381B090F8EC4605468946CCB1A0
:1005900000274FF0340804E00137F8B2E1B2884296
:1005A00010D2FEB206FB08504946406A07F0AEF88A
:1005B0000028F1D12846314600F0C2FA95F8EC4601
:1005C000013FE9E795F8ED46E4B1002705E000BFFB
:1005D0000137F8B2E1B2884214D2FEB206EB46000F
:1005E00005EB4010D0F83003494607F08FF800289B
:1005F000EED12846314600F089FA95F8ED46013FE4
:10060000E6E700BFD5F8900F30B1494601B0BDE82C
:10061000F04305F055B900BF01B0BDE8F08300001C
:100620002DE9F04F85B0029105460021D0E9004048
:10063000A5F85C10002144F66D6BC4F24831C4F299
:10064000C61B06F0DFFF40F2C809C2F20009D9F864
:10065000001043F2390201FB0B214AF6AB2221F0D4
:100660000041CAF6AA22A1FB0223074623F001009B
:1006700000EB5300081AC9F8001000F00101023025
:1006800040F2000A00F00603A5F11002C4F2963A07
:1006900000910395D9F8000043F2390100FB0B15D6
:1006A00047F2A31125F00040CAF26E310492A0FB7C
:1006B0000112110A40F2911201FB1200019300F5A0
:1006C000C87043F2390807F04DF905FB0B81054668
:1006D00021F00040C9F8000007F05CF94FF04051EC
:1006E00007F0D4F90021C4F2164107F0CFF9002138
:1006F000CCF2963106F086FF0146204606F082FFD6
:100700000021C4F26141044606F0F2FF00281CBF3C
:100710000024C4F261442046514606F0E9FF002857
:100720003846294608BF544606F06CFF80460298BA
:10073000D0E90015204607F0B3FB0646404629469F
:1007400007F0AEFB0146814607F0A0F907463046A8
:10075000314607F09BF9394606F054FF06F03CFF9E
:100760005146074606F0D9FF0546002838464FF0A7
:10077000000118BF012506F0BBFF002818BF0120AB
:1007800005EA000B3046394606F0DAFF514607F01D
:100790007DF9214606F036FF06464846394606F002
:1007A000CFFF514607F072F9414606F02BFF40F2A9
:1007B000C801C2F20001096844F66D62C4F2C612B3
:1007C00043F2390901FB029747F2A31227F00041D7
:1007D000CAF26E32A1FB02230546BBF1000F04BF33
:1007E000454626460498039C049AC66494F85D0026
:1007F00015651A0A40F2911302FB1311013084F8B7
:100800005D0001F5C87007F0ADF844F66D61C4F203
:10081000C61107FB0191044621F0004040F2C801D7
:10082000C2F20001086007F0B5F84FF0405107F040
:100830002DF90021C4F2164107F028F90021CCF26D
:10084000963106F0DFFE0146304606F0DBFE002161
:10085000C4F26141804606F04BFF00281CBF40F205
:100860000008C4F261484046514606F041FF0028A6
:100870002846214608BFD04606F0C4FE029C8146A9
:100880002168404607F00CFB61680446484607F0C3
:1008900007FB0146054607F0F9F8064620462146C3
:1008A00007F0F4F8314606F0ADFE06F095FE51462D
:1008B000064606F032FF0746002830464FF000019A
:1008C00018BF012706F014FF002818BF012007EA0F
:1008D000000B2046314606F033FF514607F0D6F8AC
:1008E000414606F08FFE04462846314606F028FFB2
:1008F000514607F0CBF8494606F084FE0746019BB7
:10090000049ABBF1000F08BF4F4608BF4446039E40
:1009100047F2A31196F85D5040F2C80944F66D6B9A
:10092000CAF26E31C2F20009C4F2C61B5465976563
:10093000681C023B02F1100286F85D007FF4AAAE4B
:10094000009B029E33B9DDF80CB0C6B2042E80F0D5
:10095000D98095E0D9F8000043F2390800FB0B85F7
:10096000049225F00040A0FB0112110A40F29112FE
:1009700001FB120000F5C87006F0F4FF05FB0B81C7
:10098000054621F00040C9F8000007F003F84FF0D9
:10099000405107F07BF80021C4F2164107F076F8C9
:1009A0000021CCF2963106F02DFE0146204606F0DD
:1009B00029FE0021C4F26141044606F099FE002898
:1009C0001CBF0024C4F261442046514606F090FE4C
:1009D00000283846294608BF544606F013FED6E9DB
:1009E00000168046204607F05BFA05464046314631
:1009F00007F056FA0146814607F048F807462846B0
:100A0000294607F043F8394606F0FCFD06F0E4FD00
:100A10005146074606F081FE0646002838464FF04C
:100A2000000118BF012606F063FE002818BF012050
:100A300006402846394606F083FE514607F026F860
:100A4000214606F0DFFD05464846394606F078FEA9
:100A5000514607F01BF8414606F0D4FD0746002E2C
:100A600004BF474625460498DDF80CB0C5649BF8E2
:100A70005D500765681C8BF85D00C6B2042E41D23C
:100A800040F2C80AC2F2000ADAF8000044F66D69C2
:100A900043F23908C4F2C61900FB0984DB2124F0B3
:100AA0000040CBF22E41A0FB0112811A02EB510152
:100AB000490A40F2592201FB120000F5967006F037
:100AC00051FF04FB098147F2A31221F00041CAF251
:100AD0006E32A1FB02230446180A40F2911200FB79
:100AE0001210CAF8001000F5C87006F03BFF01466E
:100AF000384606F087FD0BEBC601C1E90F40A81C84
:100B00008BF85D0005B0BDE8F08F000010B504461D
:100B100090F8ED06421E8A420EDD01EB410004F51D
:100B20004B7102EB420201EB401001EB42116022DB
:100B3000FFF7A4FB94F8ED06013884F8ED0610BD2C
:100B40002DE9F04190F8EC26531E8B4229DD00F18F
:100B5000200C4FF0340E03FB0EC403FB0EF301FB1D
:100B60000EC201FB0EF8D4E901E5D4E903675CF895
:100B7000033061694CF808305161C2E90367C2E98A
:100B800001E5D4E906C3D4E90876D4E90A15C2E937
:100B90000876C2E90A15C2E906C3216B116390F811
:100BA000EC26511E80F8EC16BDE8F0812DE9F04FDF
:100BB00081B00E4680468A8BD0E90050D1E90071A1
:100BC000728307F06DF904462846394607F068F944
:100BD0000146204606F0F6F998F8684C322C274674
:100BE00098BF3227312C64D849F69A11CBF6196197
:100BF000054606F007FDC4EBC40108EB8102D6E907
:100C0000009643F2333340F2000BC4F23303C2F8D0
:100C1000F8064FF48770C4F2A00B4FF48071C2F84D
:100C2000F096C2F8F466C2F8FC36A2F80007C2F8E3
:100C300004B7A2F80817621CBA4288F8682C38D0AA
:100C4000C2EBC20204F1020A08EB8202BA45C2F802
:100C5000F096C2F8F466C2F8F856C2F8FC36A2F86C
:100C60000007C2F804B7A2F8081788F868AC20D0CB
:100C700049F69A11C3F6196128461D4606F0C2FCD2
:100C8000CAEBCA0108EB8101C1F8F8064FF487707E
:100C9000A1F800074FF48070A1F80807E01CC1F824
:100CA000F096C1F8F466C1F8FC56C1F804B788F8AC
:100CB000680C01B0BDE8F08F2DE9F04F8DB090F8D1
:100CC000EC460346002C0C9000F0048603F66C40C2
:100CD00048F2000A029003F679404FF03408C4F25B
:100CE0003B5A0021009008E00C9B0499013193F8D5
:100CF000EC46C8B2A04280F0ED85CDB205FB0836C7
:100D000096F847000028F1D006F12002089616F860
:100D1000460FD2F804905F6804910B92D8BB002173
:100D20003846CCF2C84106F06DFC0146484606F054
:100D3000EDFC0028D8D140F2C802C2F200021068CF
:100D400044F66D61C4F2C61143F2390300FB013071
:100D5000012120F000403170106006F01BFE4FF0C2
:100D6000405106F093FE4CF6CD41C3F64C7106F0AF
:100D7000D4FC002818BF0120089981F852000020F7
:100D800088624CF6CD40C4F20C00C86240F6DB70BD
:100D9000C3F6C97008633846514606F033FC014675
:100DA000484606F0B3FC38BBE0B201380C9BA842C1
:100DB0001CD900FB08300B9C00F120078ECFD0E936
:100DC0000C5684E88E00C4E90456D0E90EC2D0E97E
:100DD0001017D0E91256C4E90817E662A562C4E903
:100DE00006C2006D0C9B206393F8EC460499601ECC
:100DF00083F8EC06013979E70B98D0F800800C985D
:100E0000D0F800A04046514607F04AF820F00045CF
:100E10004846394607F044F8002120F000442846AF
:100E2000C4F2C83106F079FC0021054600282046AE
:100E3000C4F2963118BF012506F06FFC089900280E
:100E400091F8521018BF0120012900EA0500039013
:100E500012D188B15046414607F022F80446384680
:100E6000494607F01DF8214606F0ACF80B9F089D97
:100E7000D7F8008049E000BF089D284630F8501F91
:100E800001390A04018001D0E86C37E040F2C80C57
:100E9000C2F2000CDCF8001044F66D66C4F2C6160F
:100EA00043F2390401FB064148F2691321F0004284
:100EB000C6F61603A2FB0337D21B07EB52029209B8
:100EC0005B2302FB131201FB06415A32028021F020
:100ED0000040CCF8000006F05DFD4FF0405106F0F8
:100EE000D5FD40F69221C3F6867106F0CFFD40F69F
:100EF0009221CBF6067106F085FBE86440F6DB71C3
:100F0000C3F6C97106F07EFB0B9F019055F8300FB8
:100F100040F69221CBF60671069506F073FB044667
:100F200006F0A2F90025C4F27A35294606F0AEFD96
:100F3000414606F067FB7E680590204606F088FA79
:100F4000294606F0A3FD314606F05CFB0C99B84635
:100F500091F88C1F002900F091800546DDF808A06B
:100F60000020059E4FF000090A9000200990079587
:100F70000AE000BF079D0C9809F1010990F88C0F59
:100F80000AF1100A81457ED29AF80D000028F2D0AD
:100F9000DAE90014304606F083FF0746284621466A
:100FA00006F07EFF014606F071FD044638463946DC
:100FB00006F06CFD214606F025FB06F00DFBDAF885
:100FC0000810044608460021C4F2A01106F01AFBDE
:100FD0000146204606F093FB0028CCD1D8E9000456
:100FE000DAE9001706F05CFF83462046394606F032
:100FF00057FF0146074606F049FD04465846594644
:1010000006F044FD214606F0FDFA06F0E5FA00215F
:10101000044606F07BFB0028ACD100212046C4F238
:10102000C82106F08DFB4FF07C51804606F060FB36
:1010300000284FF07C5008BF80464FF07E5041465C
:10104000DDF82C8006F07CFB05465846214606F06C
:1010500077FB294606F01AFD0A9906F0D3FA0A90A2
:101060003846214606F06CFB294606F00FFD09992B
:10107000059E06F0C7FA09907CE700BF0020059E98
:10108000099000200A9000213046C4F22A3106F06F
:1010900044FB18B10A984FF07F510BE04CF200016D
:1010A0003046C4F2804106F031FB30B90A98002185
:1010B000CBF6C07106F0A6FA0A9006980C9E056859
:1010C00040F6DB79D8F800402846C4F2C90906F09A
:1010D000CBF80027C4F27A37394606F0D7FC214610
:1010E00006F090FAD8F804408346284606F0B0F996
:1010F000394606F0CBFC214606F084FA96F88C1FA0
:10110000002900F08580029E804600270BE000BF8A
:1011100040F6DB79C4F2C9090C98013790F88C0FBE
:101120001036874274D2707B0028F5D0D6E90014BF
:10113000584606F0B5FE05464046214606F0B0FE8C
:10114000014606F0A3FC04462846294606F09EFC0C
:10115000214606F057FA06F03FFAB1680446084601
:101160000021C4F2A01106F04DFA0146204606F017
:10117000C6FA0028D0D10B99D1E90004D6E90015B0
:1011800006F08EFE82462046294606F089FE01467C
:10119000814606F07BFC04465046514606F076FC3C
:1011A000214606F02FFA06F017FA0021044606F051
:1011B000ADFA0028ACD100212046C4F2C82106F0C7
:1011C000BFFA4FF07C51054606F092FA00284FF026
:1011D0007C5008BF05464FF07E50294606F0B0FA15
:1011E00005465046214606F0ABFA294606F04EFC6D
:1011F0000A9906F007FA0A904846214606F0A0FA36
:10120000294606F043FC099906F0FCF909907FE7AE
:1012100000215846C4F22A3106F07FFA20B10A981C
:101220004FF07F510CE000BF4CF200015846C4F271
:10123000804106F06BFA30B90A980021CBF6C071F4
:1012400006F0E0F90A90069840F692210068DDE980
:101250000B68C3F6067106F0D5F93468054606F04A
:1012600003F80027C4F27A37394606F00FFC21460E
:1012700006F0C8F974688346284606F0E9F839464E
:1012800006F004FC214606F0BDF998F88C1F0029F1
:1012900000F08480029E804600270AE040F6DB7959
:1012A000C4F2C9090C98013790F88C0F10368742A8
:1012B00074D2707B0028F5D0D6E90014584606F0A9
:1012C000EFFD05464046214606F0EAFD014606F0E0
:1012D000DDFB04462846294606F0D8FB214606F0E9
:1012E00091F906F079F9B168044608460021C4F284
:1012F000A01106F087F90146204606F000FA002802
:10130000D0D10B99D1E90004D6E9001506F0C8FD4B
:1013100082462046294606F0C3FD0146814606F076
:10132000B5FB04465046514606F0B0FB214606F098
:1013300069F906F051F90021044606F0E7F90028A2
:10134000ACD100212046C4F2C82106F0F9F94FF0D3
:101350007C51054606F0CCF900284FF07C5008BFC0
:1013600005464FF07E50294606F0EAF905465046FC
:10137000214606F0E5F9294606F088FB0A9906F0B1
:1013800041F90A904846214606F0DAF9294606F066
:101390007DFB099906F036F909907FE70021584650
:1013A000C4F22A3106F0B9F920B10A984FF07F5102
:1013B0000CE000BF4CF200015846C4F2804106F038
:1013C000A5F958B90A980021CBF6C07106F01AF9B0
:1013D00040F6DB7B019D099E074604E040F6DB7B7F
:1013E000019DDDE90967C4F2490B3046314606F03C
:1013F0004DFB04463846394606F048FB214606F0C8
:1014000001F906F0E9F84CF6CD41C3F6CC5106F0EF
:101410007DF920B93046394605F0D4FD0546DDF8A2
:101420002080069C58F82C0F2560474657F8041D6D
:1014300005F0C8FD216805460846294606F030FD3E
:101440005946064606F062F940F6DB74CCF2C90450
:1014500030BB00BF3046214606F0D4F85946064658
:1014600006F054F9E0B93046214606F0CBF859466B
:10147000064606F04BF998B93046214606F0C2F808
:101480005946064606F042F950B93046214606F064
:10149000B9F85946064606F02BF90028DAD100BF04
:1014A00040F6DB74CCF249043046214606F027F9B9
:1014B00030BB00BF3046494606F0A4F82146064638
:1014C00006F01DF9E0B93046494606F09BF8214682
:1014D000064606F014F998B93046494606F092F8E7
:1014E0002146064606F00BF950B93046494606F04B
:1014F00089F82146064606F010F90028DAD100BF27
:101500004CF6CD413046C3F64C5106F0BFFA0146C9
:10151000284606F077F8044605F0A6FE4CF6CD45C1
:10152000C4F20C05294606F0B1FA3860204605F0F1
:101530008FFF294606F0AAFA3D6843F2333104468C
:10154000C8F8000020F00040C3F6337125F00046D3
:1015500006F09CFA0146304606F0CAF806462846D0
:10156000002106F0C5F800284FF0030720464FF091
:10157000000118BF012706F0BBF8002818BF0120A2
:10158000002E08BF47000B9EDDF82080D6E9001A28
:10159000284688F848700A9106F034F88146306091
:1015A0002046514606F02EF80C9A706092F88C1F77
:1015B00000294DD0D8F84080DDF800B0054600275E
:1015C00005E000BF01378F420BF1100B2CD29BF8C6
:1015D00000000028F6D05BF80D1C5BF8094C48466B
:1015E00006F05EFC06462846214606F059FC0146F8
:1015F00006F04CFA04463046314606F047FA2146DA
:1016000006F000F805F0E8FF5BF8051C04464046CC
:1016100005F0F8FF0146204606F07FF830BB0C9A33
:1016200092F88C1FCEE700BF0B9848F2000A0668BC
:1016300040F6DB7B0027DDF8209015464FF034089C
:10164000C4F23B5AC4F2490BC4F2F027B3E000BF26
:1016500048F2000A002715464E46C4F23B5AC4F22F
:10166000F027C1464FF03408A5E000BF40F2C803A0
:10167000C2F20003186844F66D61C4F2C61143F269
:10168000390200FB01204EF28B6120F00040CBF2CA
:101690000951A0FB0112DDE90A711860C1E9007A65
:1016A000D109B52201FB120101F15A0006F05AF9E5
:1016B00040F6DB7BC4F2490B594606F0E7F90021FE
:1016C000C4F2343106F03CF806990246096808462F
:1016D000114605F097FF5946064606F017F848F2FE
:1016E000000A40F6DB7440F6DB750027DDF8209039
:1016F0004FF03408C4F23B5ACCF2C904C4F2C90515
:10170000C4F2F02728BB00BF3046214605F07AFF1F
:101710005946064605F0FAFFD8B93046214605F08D
:1017200071FF5946064605F0F1FF90B93046214653
:1017300005F068FF5946064605F0E8FF48B930460F
:10174000214605F05FFF5946064605F0D1FF002807
:10175000DAD140F6DB74CCF249043046214605F07C
:10176000CEFF20BB3046294605F04CFF21460646F9
:1017700005F0C5FFD8B93046294605F043FF21469C
:10178000064605F0BCFF90B93046294605F03AFF01
:101790002146064605F0B3FF48B93046294605F014
:1017A00031FF2146064605F0B8FF0028DAD1069839
:1017B0000C9D06600A9E3046394605F0AEFF18B112
:1017C0001E203E460BE000BF00213046C4F2874198
:1017D00005F09CFF78BB0026D220C4F2874640F279
:1017E000C807C2F20007396844F66D62C4F2C61237
:1017F00043F2390301FB023145F2BF6221F000419F
:10180000C0F6CF62A1FB02230B9A39601660CA1A98
:1018100003EB52029209792302FB1312104406F0E3
:10182000A1F8594606F032F90021C4F2343105F02E
:1018300087FF06990860484630F83A1F2B46002972
:101840001ABF01390180002189B2039AB1FA81F1EE
:101850004909114001297FF448AA93F8681CB9F896
:101860003C20312902803FF640AAD3E900043146EA
:1018700006F016FB0B9E07467168204606F010FB2B
:10188000394605F09FFB95F8681C3768C1EBC1022B
:1018900005EB8202C2F8F0767768C2F8F8060020FD
:1018A000C4F26000C2F8FC064FF48770A2F800078B
:1018B0000020C4F2A000C2F804074FF480702B4649
:1018C000A2F80807481CC2F8F47685F8680CFFF700
:1018D0000CBA00BF93F8ED06002800F00F8603F65F
:1018E0006C4048F20008059003F67940C4F23B587A
:1018F000002600900CE000BF039E013883F8ED063F
:10190000013E013693F8ED06F1B2814280F0F68592
:10191000F7B207EB470003EB401191F8550300289D
:10192000EFD091F8540301F54B7500280491099507
:1019300000F0808003965E68D5F8049030464146FA
:101940001C4605F05FFE0146484605F0DFFEA8B9DB
:1019500094F8ED062346411EB942CDDD01EB41006E
:1019600003EB401000F54B71099860221C46FEF70E
:1019700085FC94F8ED062346BEE700BFD5F800A02D
:10198000D4F800805046414606F08AFA20F000471D
:101990004846314606F084FA002120F000443846DB
:1019A000C4F2FA3105F0B9FE0021074600282046AE
:1019B000C4F2C83118BF012705F0AFFE049D00280E
:1019C00095F85E1318BF0120022907EA000202926F
:1019D00040F08680002A00F0E7800C9F0021B86864
:1019E000C4F2342105F0ACFE0021C4F2482106F017
:1019F0004DF8414605F006FE002104463046CCF283
:101A000048213E4605F0FEFD494606F049FA0546E6
:101A10002046514606F044FA01462846049D05F04A
:101A2000D1FA02467820DDF82480A5F86003C5F8D5
:101A300064233DE1586800216C68CCF2C8419946A6
:101A400005F0E0FD0146204605F060FE002840F06C
:101A5000A98040F2C802C2F20002106844F66D612B
:101A6000C4F2C61143F23903049D00FB013005F5B1
:101A70005574012120F000402170106005F08AFFAC
:101A80004FF0405106F002F843F23331C3F63371A0
:101A900005F043FE0146002818BF0121490085F8E2
:101AA0005E130021C5F834134CF6CD41002840F6F2
:101AB000DB70C3F6CC71C3F6C970C5F83813C5F82E
:101AC0003C03099D4B467FF435AF28461946FEF787
:101AD000A7FD20784B4600287FF42CAF11E700BF0C
:101AE00095F8880395F8891305F56277884205F221
:101AF00089380CD3099C0C9E20463146FEF790FD98
:101B000098F8000000285DD03878D4E900A905EBEA
:101B1000C001D1E9DA04514606F0C2F90646204672
:101B2000494606F0BDF9014605F0B0FF04463046CF
:101B3000314605F0ABFF214605F064FD05F04CFD94
:101B40000021C4F2963105F0DAFD0C9E58B93878C0
:101B500098F800100130C2B28A42387003D3099855
:101B60003146FEF75DFD387898F8001040F6DB72DC
:101B7000DDF824808842C3F6C97280F0998005EBB5
:101B8000C001D1E9DA04D8E9001506F089F9064662
:101B900020462946049D06F083F931460C9E05F047
:101BA00011FA84E04B46ACE6B5F8600380B105F568
:101BB00058710138D5F864230C9EDDF82480088024
:101BC00076E000BF40F6DB72C3F6C972A0466FE054
:101BD000B5F85C0301380104A5F85C0302D0D5F820
:101BE00058435AE040F2C806C2F20006306844F694
:101BF0006D67C4F2C61743F2390500FB075045F282
:101C0000BF6220F00041C0F6CF62A1FB0223C91AD7
:101C100003EB51018909792201FB1201049A00FBAF
:101C2000075002F55772B43120F000401180306047
:101C300005F0B0FE4FF0405105F028FF4CF6CD41C5
:101C4000C3F6CC5105F022FF4CF6CD41CBF64C51FA
:101C500005F0D8FC04990246D1F8581308461146FD
:101C600005F0D0FC40F69221C3F60671044605F05B
:101C70003FFD40F69225CBF6067500281CBF40F6C6
:101C80009224C3F606742046294605F031FD00284B
:101C900008BF2C46049DC5F8584340F6DB710C9EE6
:101CA000DDF824802046C3F6C97105F0ABFC02467E
:101CB00005F54F70069000214FF0000900200192B9
:101CC0000A9007E00B984FF0804105F09BFC81469D
:101CD0000799023106980791046848F28C00C0F613
:101CE0000000405605F03EFE40F6DB71C4F24901AB
:101CF00005F0CCFE0021C4F2343105F021FD01468F
:101D0000204605F07FFCD8F80040054605F0ACFA07
:101D10000027C4F29637394605F0B8FE214605F093
:101D200071FCD8F804400890284605F091FB39462C
:101D300005F0ACFE214605F065FC96F88C1F0B9073
:101D4000002900F08D80DDF814B0089D4FF0000AE6
:101D50000AE000BFDDF8248096F88C0F0AF1010A32
:101D600082450BF1100B7CD29BF80D000028F3D0BC
:101D7000DBE90014284606F093F807460B98214645
:101D800006F08EF8014605F081FE044638463946D5
:101D900005F07CFE214605F035FC05F01DFCDBF866
:101DA0000810044608460021C4F2F01105F02AFC90
:101DB0000146204605F0A3FC0028CDD1D8E9000457
:101DC000DBE9001706F06CF880462046394606F03D
:101DD00067F80146074605F059FE0446404641466D
:101DE00005F054FE214605F00DFC05F0F5FB002141
:101DF000044605F08BFC0028ACD100212046C4F23B
:101E0000C82105F09DFC49F69A16C3F6996631463D
:101E10004D46814605F06CFC002849F69A1008BF33
:101E2000B146C3F69970494605F08AFC064640461D
:101E3000214605F085FC314605F028FE2946089D1F
:101E400005F0E0FB81463846214605F079FC314635
:101E50000C9E05F01BFE0A9905F0D4FB0A9079E769
:101E6000089D00212846C4F2343105F056FC18B113
:101E700048464FF0804109E000212846C4F27F41E6
:101E800005F044FC28B948464FF0404105F0BAFB44
:101E90008146079840F00100052800F0DD80069992
:101EA000CDF82C900C6848F28C01C0F60001085661
:101EB00005F058FD40F6DB71C4F2490105F0E6FD7E
:101EC0000021C4F2343105F03BFC0146204605F008
:101ED00099FBD8F80040054605F0C6F90027C4F282
:101EE0009637394605F0D2FD214605F08BFBD8F830
:101EF00004408246284605F0ABFA394605F0C6FD97
:101F0000214605F07FFB96F88C1F002900F08C809D
:101F1000059D81460027089008E000BF0C9E96F8BA
:101F20008C0F0137874205F110057DD2687B0028B0
:101F3000F5D0D5E90014504605F0B2FF06464846F4
:101F4000214605F0ADFF014605F0A0FD04463046F0
:101F5000314605F09BFD214605F054FB05F03CFBA6
:101F6000A968044608460021C4F2F01105F04AFBB6
:101F70000146204605F0C3FB0028CFD1D8E9000672
:101F8000D5E90014D14605F08BFF83463046214643
:101F900005F086FF0146824605F078FD0646584664
:101FA000594605F073FD314605F02CFB05F014FB96
:101FB0000021064605F0AAFB80BB00213046C4F292
:101FC000C82105F0BDFB49F69A18C3F69968414649
:101FD000044605F08DFB002849F69A1008BF4446D8
:101FE000DDF82480C3F69970214605F0A9FB04466C
:101FF0005846314605F0A4FB214605F047FD0B99F4
:1020000005F000FB0B905046314605F099FB214648
:1020100005F03CFD0A9905F0F5FA0A900C9ECA46B7
:10202000DDF820907BE700BF00215046C4F2343138
:1020300005F073FB00287FF445AE00215046C4F242
:102040007F4105F063FB18B90B984FF040413CE627
:10205000DDF82C903CE600BF0A9D2846294605F095
:1020600015FD04464846494605F010FD214605F099
:10207000C9FA05F0B1FA4CF6CD41C3F6CC5105F0E2
:1020800037FB019B20B12846494604F09BFF0346DD
:10209000049D069CD5E9CD10236004F093FF2168D0
:1020A00081460846494605F0FBFE40F6DB74C4F263
:1020B00049042146064605F029FB40F6DB77CCF2C1
:1020C000C90728BB3046394605F09CFA214606462A
:1020D00005F01CFBE0B93046394605F093FA21467D
:1020E000064605F013FB98B93046394605F08AFAE2
:1020F0002146064605F00AFB50B93046394605F040
:1021000081FA2146064605F0F3FA0028DAD100BF2D
:1021100040F6DB74CCF249043046214605F54D7794
:1021200005F54E7805F0EBFA40F6DB75C4F2C9050B
:1021300030BB00BF3046294605F064FA214606460A
:1021400005F0DDFAE0B93046294605F05BFA214694
:10215000064605F0D4FA98B93046294605F052FAF9
:102160002146064605F0CBFA50B93046294605F01F
:1021700049FA2146064605F0D0FA0028DAD100BF18
:102180004CF28F213046C3F6F54105F07FFC014645
:10219000484605F037FA044605F066F84CF6CD459A
:1021A000C3F6CC75294605F071FC3860204605F071
:1021B0004FF9294605F06AFC3D6843F23331044685
:1021C000C8F8000020F00040C3F6337125F0004647
:1021D00005F05CFC0146304605F08AFA06462846C2
:1021E000002105F085FA00284FF0030720464FF044
:1021F000000118BF012705F07BFA002818BF012055
:10220000002E08BF4700099EDDF810A0D6E9001B8C
:1022100028468AF856730B9105F0F4F98046306031
:102220002046594605F0EEF90C9A706092F88C1F22
:10223000002900F0EF80DAF84CA3009D40F6DB7433
:1022400081460026C4F249040DE000BF0C9840F618
:10225000DB7490F88C1FC4F2490401368E4205F1FC
:10226000100580F0CD8028780028F6D055F80D1C98
:1022700055F8094C404605F013FE074648462146EE
:1022800005F00EFE014605F001FC044638463946CD
:1022900005F0FCFB214605F0B5F905F09DF955F870
:1022A000051C0446504605F0ADF90146204605F0F0
:1022B00034FA0028CAD040F2C803C2F200031868FA
:1022C00044F66D61C4F2C61143F2390200FB0120ED
:1022D0004EF28B6120F00040CBF20951A0FB0112BD
:1022E00009990B9F1860C1E9007BD109B52201FB58
:1022F000120101F15A0005F035FB40F6DB74C4F21F
:102300004904214605F0C2FB0021C4F2343105F036
:1023100017FA0699024609680846114605F072F94F
:102320002146054605F0F2F9DDF830A048F2000834
:1023300040F6DB7640F20009C4F23B58CCF2C90605
:10234000C4F2163928BB00BF2846314605F05AF9B9
:102350002146054605F0DAF9D8B92846314605F098
:1023600051F92146054605F0D1F990B92846314684
:1023700005F048F92146054605F0C8F948B9284650
:10238000314605F03FF92146054605F0B1F9002830
:10239000DAD140F6DB76CCF249062846314605F024
:1023A000AEF940F6DB77DDF82CB0C4F2C90720BBEC
:1023B0002846394605F026F93146054605F09FF9CD
:1023C000D8B92846394605F01DF93146054605F0CD
:1023D00096F990B92846394605F014F93146054674
:1023E00005F08DF948B92846394605F00BF9314614
:1023F000054605F092F90028DAD10698056017E045
:102400000998DDF830A0D0F800B048F20008C4F216
:102410003B5809E0C34648F2000840F6DB74924698
:10242000C4F23B58C4F2490440F20009C4F2163920
:102430005846494605F071F9039E08B11E200DE08B
:1024400044F200015846C4F2834105F05FF9049A52
:1024500090BB44F20009D220C4F2834940F2C8057F
:10246000C2F200052A6844F66D63C4F2C61343F253
:10247000390702FB037245F2BF6322F00042C0F647
:10248000CF63A2FB0337099BD11B07EB5101C3F8B4
:1024900000908909792301FB13212A60084405F083
:1024A00061FA214605F0F2FA0021C4F2343105F058
:1024B00047F90699049A0860B2F852035346002877
:1024C0001EBF02F2523101380880B2F846030028DC
:1024D0000FBF002002F246310138088080B2B0FA06
:1024E00080F002994009084001287FF40AAA09995E
:1024F0001846FEF75BFB5346FFF703BA0DB0BDE885
:10250000F08F000040F2CC04C2F20004EFF3108020
:1025100072B600BF204600F00BF8FBE710B504468A
:1025200001F0E4FC2046BDE8104001F0CDBE000003
:1025300010B50446D0F8900F002808BF10BDFDF775
:1025400076FE0020C4F8900F10BD00002DE9F04782
:1025500004460020C4F2164048F20005C4F22245A9
:102560004FF0000A84E8210400200021C4F2C810C2
:10257000C4F240014FF06412C4E906A09420C4E9FB
:102580000312A4F814A0C4F8A4AF04F1200704F5C2
:10259000DE6804F66C49FDF71BFE0646384640F23D
:1025A000CE61FDF79DFE404640F27951FDF798FE61
:1025B000484640F22131FDF793FEC4F8906F1EB1FA
:1025C000304603F0A9FB65680021CCF2484128465B
:1025D00005F018F80021C4F2483105F013F8002185
:1025E000C4F8940FCCF2C841284605F00BF8C4F8A3
:1025F000980F012084F89C0FC4F8A0AFBDE8F087C5
:10260000B0B590F88C3F00F66C42044601F04AFEEB
:102610002046FEF751FB204602F046F8D4F8A00F02
:102620004EF6EF61CEF6EE61484342F222214FEAC8
:10263000F000C0F22221884215D8606848F20001FB
:10264000C4F23B5104F0DEFF054620462946FDF763
:1026500097FF2046294601F009FCD4F8900F10B1ED
:10266000294603F02DF9D4F8900F10B1214603F05C
:1026700059FB2046FFF752FF60680021CCF2484129
:1026800004F0C0FF0021C4F2483104F0BBFFB4F9EC
:102690001010C4F8940F0029DCBF002084F89C0FB0
:1026A000B0BD0000014690F82100022816D108684C
:1026B000D1E90FC3026822F00E020260026822F024
:1026C00001020260012000FA03F2CCF8042081F834
:1026D00021000020002281F8202070470420886318
:1026E0000120002281F820207047000080B590F87A
:1026F0002110022924D10268116821F00E01116015
:102700002F211368C4F202018A4240F20401C4F28C
:10271000020123F00103136016DD3023C4F202032B
:102720009A421DD04423C4F202039A421CD058237B
:10273000C4F202039A421DD14FF4803322E000BF5D
:1027400004218163012080BD0823C4F202039A4260
:102750000ED01C23C4F202039A420BD1102311E0C5
:102760004FF480730EE000BF4FF480530AE000BFC7
:10277000012307E001F1680C4FF08073624508BF48
:102780004FF480130B60012180F82110426B00216F
:1027900080F820100AB190470021084680BD000053
:1027A00010B5D0E90FCE0168DCF800300A6823FAD2
:1027B0000EF35C072AD512F0040427D00A689206AB
:1027C00003D40A6822F004020A602F22C4F2020233
:1027D000914240F20402C4F202025BDD3023C4F2F3
:1027E0000203994272D04423C4F20203994273D087
:1027F0005823C4F20203994240F07A804FF48023B8
:102800001360C16A002940F098806FE09C0727D5CB
:1028100012F0020424D00A68920606D40A6822F054
:102820000A020A60012280F821202F22C4F202024B
:10283000914240F20402C4F202023BDD3023C4F2B2
:102840000203994260D04423C4F2020399425FD04C
:102850005823C4F20203994260D14FF4003365E07B
:102860001B0743D512F0080208BF10BD0A6822F00A
:102870000E020A60012101FA0EF2CCF804208163F5
:1028800080F82110016B0022002980F8202054D10B
:102890002CE000BF0823C4F20203994222D01C237B
:1028A000C4F20203994223D140231360C16A002974
:1028B00043D11BE00823C4F2020399422CD01C230D
:1028C000C4F20203994229D120232FE04FF4806300
:1028D0001360C16A89BB09E04FF480431360C16A89
:1028E00059BB03E004231360C16A31BB10BD00BFB4
:1028F00002F168044FF08063A14208BF4FF48003E7
:102900001360C16AC9B9F1E74FF400730EE000BF6C
:102910004FF400530AE000BF022307E002F168040D
:102920004FF00073A14208BF4FF400131360816A97
:102930000022002980F82020D8D0BDE810400847A8
:10294000014600284FF0010008BF70472DE9F04311
:10295000D1F800C04FF6F873CBF6FD734CF6CD42BC
:102960006344CCF6CC42A3FB02236FF0030707EAD3
:1029700093030027C4F2020701F10C09C1E90F73A8
:102980000223D1E9012E99E87002D1F81C8081F868
:102990002130DCF8003043F6F077BB431A4342EABB
:1029A0000E0222432A43324342EA090242EA080263
:1029B000CCF8002000228A6381F8210081F82020D1
:1029C0000020BDE8F0437047F0B590F820C0BCF19E
:1029D000010F32D04FF0010E80F820E090F821C0B6
:1029E000BCF1010F26D14FF0020C80F821C04FF04E
:1029F000000CC0F838C0D0E900C4C56AC66BDCF86A
:102A00000070102C27F00107CCF80070006C0EFA53
:102A100000F070600846CCF8043004BF10460A4647
:102A2000CCF80800CCF80C20DCF8000045B140F0F0
:102A30000E000DE0002180F820100220F0BD00BF44
:102A400020F00400CCF80000DCF8000040F00A00A0
:102A5000CCF80000DCF8000040F00100CCF80000E9
:102A60000020F0BD7047000040F21441C4F20101A3
:102A70000A68024214BF08607047FFF7F3BF000006
:102A80002DE9F04F82B00E68002E00F0038141F274
:102A90000042C4F20102042340F2004E904208BFFB
:102AA00003234FF6FF7CC4F2010E009300240123A0
:102AB000C1F2100C4FF0000A4FF0000949E000BFCE
:102AC000012704F00C030F229A402BEA020207FAB6
:102AD00003F34FEA9A051A4346F82520D1F804B0CB
:102AE00040F20C455FEACB22DEF8082054BF22EA10
:102AF000080242EA0802C4F20105CEF808202A685A
:102B00005FEA8B2354BF22EA080242EA08022A60E5
:102B10005FEA8B33DEF8042054BF22EA080242EA5F
:102B200008025FEACB33CEF80420DEF800204FF035
:102B3000010354BF22EA080242EA0802CEF800204C
:102B40000E680AF1010A36FA0AF204F1040400F0F0
:102B5000A18003FA0AF816EA080FF1D04E6866451C
:102B600012DC122E56D8DFE806F0350B45495555D4
:102B700055555555555555555555554D510000BF51
:102B8000D1F80C9046E000BF4FF6FF72C1F221026F
:102B900096420FDC0022C1F2110296421AD00022A6
:102BA000C1F21202964215D00022C1F221029642D1
:102BB00010D02FE00022C1F2220296420AD0002259
:102BC000C1F23102964205D00022C1F23202964291
:102BD00020D100BF8A684AB1012A14BFC0F814800E
:102BE000C0F810804FF0080914E000BF4FF004094E
:102BF00010E000BFCA6802F108090BE04FF00009BD
:102C000008E000BFCA6802F1040903E0CA6802F1E3
:102C10000C0900BF22460646BAF1080F24BF203A2D
:102C2000043637680F25954027EA050509FA02F2B0
:102C30002A433260CA79D2067FF582AF41F2180387
:102C4000C4F202031A68AEF57E7642F001021A6001
:102C50001A6802F001020192019A2AF0030256F862
:102C600002B040F60002C4F20102904210D040F6D9
:102C70000042C4F2010290423FF422AF41F200024E
:102C8000C4F20102009F904208BF022719E700BF6B
:102C9000002716E702B0BDE8F08F0000806808400A
:102CA00018BF01207047000042F6FC00C2F200008D
:102CB0000068704740F2000042F6FC01C2F20000DA
:102CC000C2F2000100780A681044086070470000F2
:102CD00080B542F20000C4F20200016841F0100128
:102CE0000160032000F08EF8002000F005F800F0ED
:102CF00027F8002080BD000070B540F20006C2F247
:102D0000000640F208013278C2F200014FF47A73F3
:102D10000968B3FBF2F20446B1FBF2F1084600F099
:102D200063FB0F2C4FF0010508D838B94FF0FF3086
:102D300021460022002500F039F87460284670BD55
:102D400082B041F21800C4F202000168042241F08E
:102D500001010160016801F00101019101994168DF
:102D600041F080514160406800F080500090009830
:102D70000420C4F20100016862F31A61016002B02C
:102D800070470000002848BF7047C1B200F01F0024
:102D9000012202FA00F04EF20012CEF2000242EAE4
:102DA000D10121F0030108607047000010B54EF614
:102DB0000C5CCEF2000CDCF80030C3F3022E8EF077
:102DC0000704042C28BF0424BEF103034FF0FF3E88
:102DD0000EFA04F438BF0023A14399400EFA03F31E
:102DE0009A43114300F00F0200F160430901043AD5
:102DF00003F564436244002848BF02F10C031970D4
:102E000010BD00004EF60C51CEF200010A684FF6DC
:102E1000FF031A4060F30A2242F0806040F0FD7028
:102E2000086070472DE9F04381B0002800F08580EC
:102E300042F20008C4F202080446D8F800000D4629
:102E400000F0070088420CD2D8F8000020F00700FC
:102E50002843C8F80000D8F8000000F00700A84296
:102E60006BD1206841F204098107C4F2020917D529
:102E7000410705D5D9F8001041F4E061C9F8001008
:102E8000010705D5D9F8001041F46051C9F80010C8
:102E9000D9F80010A26821F0F0011143C9F8001020
:102EA000C00741D1D8F8000000F00700A8420CD9B3
:102EB000D8F8000020F007002843C8F80000D8F830
:102EC000000000F00700A84237D12068410707D56D
:102ED000D9F80010E26821F4E0611143C9F800104C
:102EE000000708D5D9F80000216920F4605040EAB5
:102EF000C100C9F80000D9F8002002F00C00082831
:102F000041F20020C0F27A0050D148F2AB03C2F384
:102F10008341C0F60003595CD2033BD440F6001055
:102F2000C0F23D00484341E0606802280AD0012811
:102F30002AD159F8041C890308D4012001B0BDE846
:102F4000F08300BF59F8041C8901F6D5D9F80010A8
:102F500021F003010843C9F80000FFF7A5FE06466B
:102F600041F28837D9F80000616800F00C00B0EB3E
:102F7000810F97D0FFF798FE801BB842F2D903204B
:102F800001B0BDE8F08300BF59F8041C8907D4D50F
:102F9000DCE700BFD9F8002048F2A903C2F34042A1
:102FA000C0F600039A5C4843B0FBF2F0D9F8001079
:102FB00048F29102C1F30311C0F60002515C40F2E5
:102FC000080220FA01F140F20400C2F20000006899
:102FD000C2F200021160FFF78FFE002001B0BDE8D1
:102FE000F083000040F2080041F20401C2F2000048
:102FF000C4F202010068096848F2A102C1F302218B
:10300000C0F60002515CC8407047000040F2080062
:1030100041F20401C2F20000C4F202010068096832
:1030200048F2A102C1F3C221C0F60002515CC840BF
:10303000704700002DE9F04182B0002868D00446B6
:10304000007841F20006C007C4F2020625D070687D
:1030500000F00C0004281BD0706800F00C00082859
:1030600002D17068C00313D46068002800F0688142
:10307000B0F5A02F00F07C81B0F5803F00F07C819E
:10308000306820F480303060306820F4802076E1B1
:103090003068800301D56068D0B32078800718D5E8
:1030A000706810F00C0F07D0706800F00C00082852
:1030B0006ED17068C0036BD43068800702D5206978
:1030C000012825D13068616920F0F80040EAC1008C
:1030D0003060207800071FD42078400732D4E5699B
:1030E00095B1706800F00C00082840F08F80012D29
:1030F0000ED07068216A00F480328A4208D1616A79
:1031000000F47010884203D1002002B0BDE8F081C5
:10311000012002B0BDE8F081A069002862D0002043
:10312000C4F242200121C0F88014FFF7BDFD05461E
:10313000706A800700F18C80FFF7B6FD401B022803
:10314000F6D92AE1F06910F0805808D1F06940F012
:103150008050F061F06900F080500090009847F2D4
:103160000007C4F200073868C00529D4386840F465
:1031700080703860FFF798FD054600BF3868C005CD
:103180001ED4FFF791FD401B6428F7D905E100BF6D
:103190002069002840F20000C4F2422000F0828042
:1031A00001210160FFF780FD054600BF3068800700
:1031B0003FF588AFFFF778FD401B0228F6D9ECE019
:1031C000E068002800F08080052800F09780012842
:1031D00000F09880306A20F001003062306A20F000
:1031E000040092E00020C4F242200021C0F88014C4
:1031F000FFF75AFD054600BF706A80077FF56CAF88
:10320000FFF752FD401B0228F6D9C6E00027C4F2A2
:10321000422700203866FFF747FD022D05460BD1F7
:103220003068800140F1BE80FFF73EFD401B022860
:103230004FF00300F4D968E7306880017FF564AF90
:10324000FFF732FD401B02284FF00300F4D95CE782
:1032500040F20800C2F20000006844F6D351C1F207
:103260006201A0FB0101480A019000BF00BF019864
:10327000411E002801913FF42FAF00BF0198411E6D
:10328000002801913FF428AF00BF0198411E00289B
:1032900001913FF421AF00BF0198411E0028019128
:1032A000E4D119E700210160FFF7FEFC054600BFED
:1032B000306880077FF50DAFFFF7F6FC401B022852
:1032C0004FF00300F4D920E7306A20F001003062AB
:1032D000306A20F004003062FFF7E6FC054641F258
:1032E000883700BF306A800720D5FFF7DDFC401B20
:1032F000B8424FF00300F5D907E700BF306A40F04D
:1033000004003062306A40F001003062FFF7CCFC0C
:10331000054641F2883700BF306A800706D4FFF7C0
:10332000C3FC401BB842F7D937E000BFB8F1000F2B
:103330007FF4D5AEF06920F08050F061CFE600BF99
:10334000306820F480303060306820F480203060B5
:10335000FFF7AAFC054600BF306880037FF59DAEED
:10336000FFF7A2FC401B64284FF00300F4D9CCE621
:10337000306840F480203060306840F48030306045
:10338000FFF792FC054600BF306880033FF585AE2D
:10339000FFF78AFC401B6428F6D9032002B0BDE881
:1033A000F08100BF206AB0F5803F05D17168A26846
:1033B00021F40031114371607168626A21F4741163
:1033C00011430843706001203866FFF76DFC044626
:1033D000306880013FF598AEFFF766FC001B0228BD
:1033E0004FF00300F4D990E6411E0020B0EB116FBE
:1033F0001CBF012070474EF21002CEF20002516055
:103400004EF62351CEF20001F0230B70072190609D
:103410001160704770470000006844F20041C4F238
:103420000001884218BF704740F2700040F2C00CA3
:10343000C2F2000041F2FC01C2F2000C002308308D
:10344000C2F200014FF480528CF8003000F08EBBC5
:10345000B0B582B0044600680168C368426901F0F3
:103460002F05202D03F0200506D12DB1204602B0F6
:10347000BDE8B04002F07EB95FEA017C1EBF02F0F9
:10348000010E03F4907212EB0E0253D1226B012A4B
:1034900005D111F0100218BF13F0100236D10A0640
:1034A00022D513F080021FD094F8411021293FD17A
:1034B000A168B1F5805F03D12169002900F0708215
:1034C000216A4A1C226209784160E18C01390A04B0
:1034D000E1842DD1C16821F08001C160C16841F053
:1034E0004001C16002B0B0BD490621D513F04001D2
:1034F0001ED0C16821F04001C1602021204684F81F
:10350000411002B0BDE8B04000F042BC0021019182
:10351000016801914168019101994069400613D405
:10352000A08DE18DE28D002A18BF884240F0BA815B
:1035300002B0B0BDCA0718BF13F4807240F0B68065
:103540004A0700F1B980BEE0E06B016849688AB2C1
:10355000002AEDD0A38D9A42EAD2E1858069202825
:1035600000F09C80206850E8030F216820F48070F0
:1035700041E80302DAB1206850E8030F216820F423
:10358000807041E8030292B1206850E8030F21687F
:1035900020F4807041E803024AB1206850E8030F2C
:1035A000216820F4807041E80302002ADAD1206803
:1035B00050E8050F216820F0010041E80502DAB16A
:1035C000206850E8050F216820F0010041E805025D
:1035D00092B1206850E8050F216820F0010041E811
:1035E00005024AB1206850E8050F216820F001006B
:1035F00041E80502002ADAD1206850E8050F216869
:1036000020F0400041E80502DAB1206850E8050FDB
:10361000216820F0400041E8050292B1206850E89E
:10362000050F216820F0400041E805024AB12068FA
:1036300050E8050F216820F0400041E80502002A0B
:10364000DAD1202084F8420000202063206850E86E
:10365000030F216820F0100041E80302DAB120686E
:1036600050E8030F216820F0100041E8030292B1F6
:10367000206850E8030F216820F0100041E80302A1
:103680004AB1206850E8030F216820F0100041E89B
:103690000302002ADAD1E06BFFF704F8022060632E
:1036A000A08DE18D401A81B2204674E1626C42F037
:1036B000010262644A0706D5BEF1000F03D0626CB6
:1036C00042F0020262648A0706D5BEF1000F03D001
:1036D000626C42F004026264BCF1000F09D545EA55
:1036E0000E02B2FA82F2520903D1626C42F0080271
:1036F0006264626C002A3FF41BAF11F0200118BF16
:10370000002D03D0204602F035F820684069616C36
:1037100000F0400001F00801401800F0B58000BF43
:10372000206850E8030F216820F4907041E80302FC
:10373000BAB3206850E8030F216820F4907041E884
:10374000030272B3206850E8030F216820F49070E0
:1037500041E803022AB3206850E8030F216820F4EF
:10376000907041E80302002ADAD11AE0206850E89C
:10377000050F216820F0010041E80502DAB1206858
:1037800050E8050F216820F0010041E8050292B1E0
:10379000206850E8050F216820F0010041E805028B
:1037A0004AB1206850E8050F216820F0010041E887
:1037B0000502002ADAD1206B012824D1206850E8C4
:1037C000030F216820F0100041E80302DAB12068FD
:1037D00050E8030F216820F0100041E8030292B185
:1037E000206850E8030F216820F0100041E8030230
:1037F0004AB1206850E8030F216820F0100041E82A
:103800000302002ADAD1202084F84200002020633D
:103810002068406940063FD5206850E8050F2168C0
:1038200020F0400041E80502DAB1206850E8050FB9
:10383000216820F0400041E8050292B1206850E87C
:10384000050F216820F0400041E805024AB12068D8
:1038500050E8050F216820F0400041E80502002AE9
:10386000DAD1E06BC0B145F2BD31C0F60001416371
:10387000FEF73CFF00283FF45BAEE06B416B02B00B
:10388000BDE8B040084700BF2046FFF7C5FD002057
:10389000606402B0B0BD00BF204602B0BDE8B040D9
:1038A000FFF7BABD401A216851E8031F226821F4CE
:1038B000907142E80313DBB1216851E8031F2268CD
:1038C00021F4907142E8031393B1216851E8031F7A
:1038D000226821F4907142E803134BB1216851E84A
:1038E000031F226821F4907142E80313002BDAD100
:1038F000216851E8051F226821F0010142E8051303
:10390000DBB1216851E8051F226821F0010142E87E
:10391000051393B1216851E8051F226821F00101C8
:1039200042E805134BB1216851E8051F226821F0D8
:10393000010142E80513002BDAD1202184F842105E
:1039400000212163216851E8031F226821F0100142
:1039500042E80313DBB1216851E8031F226821F01C
:10396000100142E8031393B1216851E8031F226854
:1039700021F0100142E803134BB1216851E8031F05
:10398000226821F0100142E80313002BDAD1022251
:1039900081B22046626302B0BDE8B040FFF73ABD95
:1039A000216A31F8022B6FF35F22426021628CE5BD
:1039B000002804BF0120704710B5044690F841006C
:1039C00028B9002084F84000204600F063F8242045
:1039D00084F841002068D4E90212C36823F400533C
:1039E000C360036923F440531A430261D4E90423FA
:1039F0001143C268194341F20C639A431143C160F9
:103A00004169A26921F44071114343F60002C4F2F6
:103A100001029042416103D0FFF7E4FA02E000BFE7
:103A2000FFF7F4FA6268192148439100B0FBF1F006
:103A300048F21F51C5F2EB11A0FB01235A094FF6C2
:103A40009C73C0F6FF7302FB0300322303EB0010EC
:103A5000A0FB0101F02303EA5113206803EB0212DB
:103A6000C1F3431111448160016921F49041016166
:103A7000416921F02A014161C16841F40051C160EE
:103A800000202021606484F8411084F842106063B3
:103A900010BD00002DE9F04186B0044644F200401C
:103AA0002168C4F2000000268142049602D006B0CC
:103AB000BDE8F08141F21801C4F202014A6840F207
:103AC0006C0842F400324A604A6800F5444002F44F
:103AD00000320192019A0A68C4F2020842F004021C
:103AE0000A60096801F00401019101990C21029119
:103AF00002210391059102A9FEF7C2FF41F274056C
:103B0000C2F2000580272846C5E90086C5E902679C
:103B1000C5E90466C5E90666FEF712FF002818BF6E
:103B2000FEF7F0FCE5636C6241F2B80508F11400A1
:103B3000C2F200051021002285E887002846C5E969
:103B40000422C5E90622FEF7FBFE002818BFFEF797
:103B5000D9FC262000210022A5636C62FFF726F91C
:103B60002620FFF70FF906B0BDE8F08170B582B0EE
:103B7000044690F8420020280AD113460A4600293C
:103B80004FF0010018BF002B06D102B070BD00BF7E
:103B9000022002B070BD00BF002522202563A26272
:103BA000A385656484F842002168E06B45F2455CBA
:103BB00045F2A56E45F2C936C0F6000CC0F6000EFF
:103BC000C0F600060431C0E90ACEC0E90C65FEF774
:103BD000FBFE019520680168019140680190019801
:103BE000206928B3206850E8030F216840F48070F2
:103BF00041E80302E2B1206850E8030F216840F475
:103C0000807041E803029AB1206850E8030F2168F0
:103C100040F4807041E8030252B1206850E8030F7D
:103C2000216840F4807041E80302002ADAD100BF25
:103C3000206850E8050F216840F0010041E80502C6
:103C4000E2B1206850E8050F216840F0010041E82A
:103C500005029AB1206850E8050F216840F0010084
:103C600041E8050252B1206850E8050F216840F094
:103C7000010041E80502002ADAD100BF206850E8BF
:103C8000050F216840F0400041E80502DAB12068E4
:103C900050E8050F216840F0400041E8050292B16C
:103CA000206850E8050F216840F0400041E8050217
:103CB0004AB1206850E8050F216840F0400041E813
:103CC0000502002ADAD1002002B070BD7047000062
:103CD0007047000070B5044690F8410020281CBFD2
:103CE000022070BD00294FF001004DD0002A13467C
:103CF00008BF70BD4FF0000C21202162A384E38433
:103D0000C4F844C084F841002268A06B45F2BD6E3F
:103D100045F26D7545F2C936C0F6000EC0F60005D5
:103D2000C0F600060432C0E90AE5C0E90C6CFEF7F3
:103D30004BFE20686FF04001016000BF206850E832
:103D4000050F216840F0800041E80502F2B12068CB
:103D500050E8050F216840F0800041E80502AAB153
:103D6000206850E8050F216840F0800041E8050216
:103D700062B1206850E8050F216840F0800041E8FA
:103D80000502002ADAD1002070BD00BF002070BDFE
:103D9000006844F20041C4F20001884218BF704735
:103DA00040F2C000C2F20000002101707047000024
:103DB00070470000FEE700007047000049B102298B
:103DC00006D0012912BF002001300078704700BFE3
:103DD000023000787047000002290BD0012911D071
:103DE000C1B90178B1B103300078B0FA80F0400970
:103DF000704700BF817869B105300078B0FA80F073
:103E000040097047417829B104300078B0FA80F059
:103E10004009704700207047B0B504460078B4F8F8
:103E2000011040F60005C4F20105E070A1802846AB
:103E30000221FEF733FFB0FA80F0400920702846D7
:103E40001021FEF72BFFB0FA80F04009607005F5F5
:103E500080600121FEF722FFB0FA80F04009A070D7
:103E6000B0BD0000FEE70000FEE700002DE9F043D2
:103E700081B090F88C5F9DB304468846002600F61A
:103E80006C4908E0013D013E84F88C5F0136F0B2D8
:103E9000E9B2884224D2F7B204EB071090F8791CFB
:103EA0000029F3D0D0F8700C414603F02FFC002815
:103EB000ECD1E8B20138B842E4D9030159F8033033
:103EC0003A0109EB001049F80230D0E90123C0683B
:103ED00009EB0711C1E90123C86094F88C5FD1E7B1
:103EE00001B0BDE8F0830000704700002DE9F04FFD
:103EF00081B0044690F8EC06002845D000264FF02B
:103F0000340A05E0013694F8EC06F1B281423BD266
:103F10005FFA86F808FB0A4797F847000028F1D0B7
:103F200097F846000028EDD007F12002D4E90009F7
:103F3000D2E9001B03F0B4FF05464846594603F09A
:103F4000AFFF014603F0A2FD81462846294603F053
:103F50009DFD494603F056FB03F03EFBE269396CD8
:103F60000546104603F04EFB0146284603F0C7FB0A
:103F70000028C7D1208A41461E3820822046FCF7FF
:103F8000DFFD013EBEE700BF94F8ED06002847D0F4
:103F9000002605E0013694F8ED06F1B281423FD2E9
:103FA0005FFA86F808EB480004EB401797F85503D2
:103FB0000028EFD097F854030028EBD007F54B7298
:103FC000D4E90009D2E9001A03F06AFF0546484621
:103FD000514603F065FF014603F058FD814628462F
:103FE000294603F053FD494603F00CFB03F0F4FAB5
:103FF000E269D7F84C130546104603F003FB01466F
:10400000284603F07CFB0028C4D1208A4146A0F555
:104010007A7020822046FCF779FD013EBAE700BFA6
:1040200001B0BDE8F08F00002DE9F04F83B093465A
:10403000D0E90074D0E9026280468A4620461146E3
:1040400003F02EFF0021C8F80400C4F234213046EA
:1040500003F076FB0021C4F2400103F017FD014696
:10406000384603F0CFFA48F20001C4F2894106460F
:1040700003F03EFB0025C4F2C82500281CBF48F20F
:104080000006C4F289463046294603F031FB002879
:1040900008BF2E46BBF1000FC8F800604ED0CDE936
:1040A00001740AF108044FF0010900260BE000BF7B
:1040B00001365E454FF0000938BF4FF00109B345A6
:1040C00004F1100427D060790028F1D0D8E9000A63
:1040D00054E9021503F0E4FE07465046294603F072
:1040E000DFFE014603F0D2FC05463846394603F0B0
:1040F000CDFC294603F086FA03F06EFAD8F81C20AE
:1041000021680546104603F07DFA0146284603F073
:1041100004FB0028CCD05FEAC970DDE901200DD096
:10412000B8F81010C8F800200239A8F810100021C3
:10413000C4F2701103F066FAC8F8040003B0BDE8D9
:10414000F08F0000F0B581B00E460446084600210D
:10415000FFF734FE0025CCF2342578B1A7680021A2
:10416000CCF23421384603F0D1FA38B90021CBF62D
:104170008071384603F046FA06462EE030460121AB
:10418000FFF71CFEA66868B10021C4F23421304656
:1041900003F0B5FA30B930464FF07E5103F032FAF1
:1041A00006461AE026F000404FF07F5103F0B5FAC2
:1041B00010B1002611E000BF3046002103F0A6FA3E
:1041C000002819BF30464FF07F510021CBF6C07157
:1041D00008BF304603F016FA06460021C4F2342127
:1041E000304603F085FA00281CBF0026C4F23426AE
:1041F0003046294603F07CFA002808BF2E46A66008
:1042000001B0F0BDF0B581B00446808A10B101B0B4
:10421000F0BD00BFA66800271E20C4F2A007A08240
:104220003046394603F064FA40B146F2AA10CBF6A4
:104230009C7094F8681C3129E9D813E00021CCF275
:10424000A001304603F05BFA002807BF4BF60C6074
:10425000CBF6F57040F6DB70CBF6C97094F8681CAD
:104260003129D4D8C1EBC10204EB8202C2F8F806AE
:104270004FF48770D4E90036A2F8000740F201102D
:104280004FF08145A2F80807481CC2F8F036C2F882
:10429000F466C2F8FC56C2F8047784F8680C01B0E2
:1042A000F0BD000070B51D4616460446FFF74AFFF4
:1042B000204631462A46FFF7B7FEA08A00281CBFD9
:1042C0000138A08270BD00002DE9F04F85B090F854
:1042D000686C002E00F0BC81824600F67940002414
:1042E00001900DE05046394600F0B6F99AF8686C36
:1042F000013C00BF0134E0B2F1B2884280F0A881F5
:10430000E1B2C1EBC1000AEB800797F8090700286A
:10431000F0D097F8080707F5DE6B0028049743D024
:104320009AF8EC06002800F0898007F204794FF033
:1043300000080027CDE9021405E000BF01378742DD
:1043400008F134085ED20AEB080494F847100029FB
:10435000F4D094F846100029F0D0216ADBE900057A
:1043600003F09EFD616A0646284603F099FD01466A
:1043700003F08CFB05463046314603F087FB2946A7
:1043800003F040F903F028F9D9F80020216C054624
:10439000104603F037F90146284603F0BEF998BBF2
:1043A0009AF8EC06CAE700BFDBE90005DAE9001677
:1043B00003F076FD07462846314603F071FD0146BD
:1043C00003F064FB054638463946049F03F05EFB64
:1043D000294603F017F903F0FFF8D7F80427DAF8B5
:1043E0001C100546104603F00DF90146284603F05F
:1043F00086F9002840F08980BAF810001438AAF82D
:1044000010007DE0039C18E094F83800013841B2B8
:10441000002984F838000ADCB4F84400DAF81810EF
:104420000844CAF81800F9B25046FCF789FB029913
:10443000504600F011F9039C013C049F9AF8686C07
:10444000E0B2B042BFF456AF9AF8ED0600285CD057
:10445000039407F204780024002707E09AF8ED0699
:104460000137874204F1600480F0A0800AEB040564
:1044700095F855130029F3D095F854130029EFD07F
:10448000D5F82C13DBE9000903F00AFDD5F8301349
:104490000646484603F004FD014603F0F7FA81465C
:1044A0003046314603F0F2FA494603F0ABF803F028
:1044B00093F8D8F80020D5F84C130646104603F0C0
:1044C000A1F80146304603F028F90028C6D095F837
:1044D0004403013841B285F8440300294FF0140029
:1044E000A5F852030ADCB5F85003DAF818100844AE
:1044F000CAF81800F9B25046FCF708FBDDE903479B
:10450000E1B2504600F0A8F8013C9AF8680CE1B21C
:10451000814253D29AF88C0F00284FD0DDF80490D6
:10452000CDE9021407F20474002707E09AF88C0F13
:104530000137874209F1100980F0828099F8001054
:104540000029F5D0DBE9000559F80D1C59F8096C74
:1045500003F0A6FC80462846314603F0A1FC014644
:1045600003F094FA05464046414603F08FFA294687
:1045700003F048F803F030F8226859F8051C0546A6
:10458000104603F03FF80146284603F0C6F800281D
:10459000CCD00299504600F05FF8039C013C9AF899
:1045A000686CE7B2B742BFF4A5AE0DE0DDE90347A2
:1045B0009AF8680CE1B28142ACD300BF9AF8686CFB
:1045C000E7B2B742BFF496AE0498B0F800070028EF
:1045D0003FF488AEDBF800500021284603F09DF838
:1045E00000287FF47FAE00212846C4F2964103F0F4
:1045F0007FF800287FF476AEDAF8945F0021DBF8CC
:1046000004802846CCF2483102F0FCFF01464046C7
:1046100003F083F800287FF465AE00212846C4F239
:10462000484102F0EFFF0021C4F2483102F0EAFFF6
:104630000146404603F06AF800283FF453AE59E6BD
:10464000039C9AF8686CE7B2B742BFF453AEBBE77D
:1046500005B0BDE8F08F00002DE9F04390F8682C1C
:10466000531E8B421BDD00F5DE62C3EBC30E02EB73
:104670008E03C1EBC10CD3E90189D3E9036752F87A
:104680002E405D6902EB8C0142F82C404D61C1E97E
:104690000367C1E901899A698A6190F8682C511E03
:1046A00080F8681CBDE8F0832DE9F041804690F861
:1046B000680C002808BFBDE8F08108F5DE6700241B
:1046C00005E000BF0134844207F11C0720D2797E47
:1046D0000029F7D0B86802F0C7FDD7E902613D684C
:1046E00003F0D4F9294602F08DFF3860304602F01D
:1046F000AFFEF9687D6803F0C9F9294602F082FF30
:10470000398A786098F8680C01393982DAE700BF95
:10471000BDE8F08140F2C00341F2FC01C2F20003A7
:10472000C2F200014FF480525860FFF71FBA000038
:104730002DE9F04F93B040F2C005C2F20005696860
:104740000790B9B1C86B006840680490C0F5805408
:104750006888A7B2B84211D168886988049B621A38
:104760001944874238BFC1F5005290B2B0F5006FCE
:1047700088BF6C8013B0BDE8F08F00BF0BAB41F277
:10478000FC0A03F1010BC2F2000A4FF000080726F1
:10479000059409970DE000BF68880130688068883B
:1047A000B8EB103F18BFA5F8028000BF6888B84278
:1047B000D2D068881AF800006988AA2832D168889F
:1047C000221A874238BF02F5805292B2042AD1D30E
:1047D000013082B2B8EB123F18BF002080B21AF845
:1047E0000000A0F1020C5FFA8CFEBEF1050F80F014
:1047F00051820FF27C5050F82E90601A8F4238BFD1
:1048000000F5805080B28145B4D8A9F10100032899
:104810000A900FD20020BEF1010F09F0030E47D914
:1048200066E000BF481C68806888B0F5805FBDD333
:1048300038E200BF29F0030040426FF0030300BFDD
:104840008FB21AF807400BEB03070131FC708CB2F2
:10485000B8EB143F18BF00218CB201318AB21AF8AC
:104860000440B8EB123F18BF00218AB21AF80220A8
:1048700001317A718AB23C71B8EB123F18BF002146
:104880008AB201318CB204331AF80220B8EB143F1B
:1048900000EB030418BF00210434BA71D0D1059C89
:1048A000099F181D0BABBEF1010F09F0030E1FD8B5
:1048B0008AB21AF80220BEF1010F1A5418D0013141
:1048C0008AB2B8EB123F18BF00218AB21AF8022050
:1048D0001844BEF1020F42700AD001318AB2B8EB1F
:1048E000123F18BF002189B21AF80110817000BF71
:1048F00009EB030111F8010C55287FF44DAF4FF679
:10490000FD70069109EB000188B2012801F0010257
:10491000CDF820E004D100200021002A79D1ABE0BD
:104920009E460392131A00216FF001020EEB020063
:10493000C778007979404FB24C00002F48BF86EA13
:10494000410461B26700002948BF86EA440779B292
:104950007C00002948BF86EA470461B2670000294D
:1049600048BF86EA440779B27C00002948BF86EA3E
:10497000470461B26700002948BF86EA440779B25C
:104980007C00002948BF86EA470461B2670000291D
:1049900048BF86EA4407784041B24400002948BF36
:1049A00086EA400460B26100002848BF86EA4401FC
:1049B00048B24C00002848BF86EA410460B261005A
:1049C000002848BF86EA440148B24C00002848BF8E
:1049D00086EA410460B26100002848BF86EA4401CB
:1049E00048B24C00002848BF86EA410460B2023257
:1049F0006100002803EB020048BF86EA4401023050
:104A000094D1901C059C099F7346DDF820E0039A21
:104A100092B31BF80000484041B24200002948BF51
:104A200086EA400250B25100002848BF86EA42019F
:104A300048B24A00002848BF86EA410250B25100FD
:104A4000002848BF86EA420148B24A00002848BF11
:104A500086EA410250B25100002848BF86EA42016E
:104A600048B24A00002848BF86EA410250B25100CD
:104A7000002848BF86EA42010698C9B210F8020C25
:104A800081427FF489AEBCF1040F00F2BA80DFE806
:104A90000CF0033989A1AB009DF82E20DDF82F1012
:104AA000DDF83300012A00F00181002A40F0A980DE
:104AB000079A92F8EC260E2A00F2A380079F34236F
:104AC00002FB0373C3E908104FF41600C3F83A0061
:104AD0000020C4F2A01018644FF48070A3F84600C0
:104AE0000220012183F84800501C83F8381087F811
:104AF000EC06099FC3F84C80A3F8508083F852104D
:104B00007EE000BF9DF82E00DDF82F100290DDF84A
:104B1000330003910190DDF837000690084600212C
:104B200002F0FBFDDDF820E00BAB002869D1039813
:104B30000021C4F2964102F0DBFDDDF820E00BAB72
:104B400000285ED10698002102F0E0FDDDF820E0AB
:104B50000BAB002855D106980021C4F2FA3102F0BF
:104B6000C7FDDDF820E00BAB00284AD1079F97F87E
:104B70008C0F312800F2D080039A07EB0011C1F8A6
:104B80006C2C019A0130C1F8702C069A87F88C0FB2
:104B9000C1F8742C029A099F81F8782C012281F8BF
:104BA000792C2EE0DDF82E7007983946FBF7E8FCEB
:104BB000079839460697FFF759F90798DDF820E07E
:104BC000D0F8900F099F0BABD8B1069900F078FE92
:104BD00014E000BF079F3846FDF7AAFC3846099F3E
:104BE000FDF7B4FC0AE000BF0798D0F8900F40B181
:104BF000DDF82E10DDF8322000F044FEDDF820E074
:104C00000BAB0A98032827D329F0030069880131E8
:104C100069806988B1F5805F28BFA5F8028069883E
:104C2000013169806988B1F5805F28BFA5F80280ED
:104C30006988013169806988B1F5805F28BFA5F86E
:104C400002806988013169806988B1F5805F28BF79
:104C5000A5F802800438D9D1BEF1000F3FF4A6AD0B
:104C60006888013068806888B0F5805F28BFA5F843
:104C70000280BEF1010F3FF499AD68880130688071
:104C80006888B0F5805F28BFA5F80280BEF1020FEA
:104C90003FF48CAD6888013068806888B0F5805F2B
:104CA000FFF484ADA5F8028080E500BF079A92F872
:104CB000ED26092AA5D8079F02EB420307EB431311
:104CC000C3E9CB10C3F8400340F20330C3F84403F8
:104CD000F020A3F848030020C4F2F010C3F84C03FE
:104CE0004FF49670C3F850034FF48070A3F8540348
:104CF000022083F85E0383F85603501C87F8ED0604
:104D0000099FC3F85883A3F85C83A3F86083C3F8B2
:104D10006483A3F8888373E7786848F20001C4F2DB
:104D20003B5102F06FFC01463846FFF79FF897F8B9
:104D30008C0FDDF820E0099F0BAB31283FF661AF07
:104D4000DDF81CC0039A0CEB0011C1F86C2C019A21
:104D50000130C1F8702C069A8CF88C0FC1F8742CB5
:104D6000029A81F8782C012281F8792C49E700BF5A
:104D70000D00000011000000080000000400000009
:104D80000C0000002DE9F04F81B040F2C002C2F2E9
:104D900000021178002940F0FE8281465068002808
:104DA00000F0F98242F2FC01C2F200014FF4D57228
:104DB0000A8099F8002099F810308A7099F801203B
:104DC00099F8EC46CA7099F80220002C0A7199F8FB
:104DD00003204FF0000C4A7199F804208A7199F869
:104DE0000520CA7199F806200A7299F807204A72BC
:104DF00099F808208A7299F80920CA7299F80A204D
:104E00000A7399F80B208B734A7399F8112099F85B
:104E10001830CA7399F819200B7499F814304A7431
:104E200099F815208B74CA7458D009F124074FF0F3
:104E3000150801264FF0000E97F82350002D44D09E
:104E400097F82250002D40D01FFA88F401F804C0D2
:104E500008F1010517F8044CADB24C5508F10203F6
:104E600017F8034C9BB2CC5408F1030517F8023C29
:104E7000ADB24B5508F1040417F8013CA4B20B5530
:104E800008F105053B78ADB24B5508F106047B7877
:104E9000A4B20B5508F10705BB78ADB24B5508F12C
:104EA0000804FB78A4B20B5508F109053B7DADB2AF
:104EB0004B5508F10A0497F82430A4B20B5599F821
:104EC000EC4608F10B080EF1010EA6420AD2343767
:104ED000BEF1060F06F10106AED303E04FF0150850
:104EE0004FF0000E99F8ED46002C5FD0BEF1050F93
:104EF0005CD809F1480509F54B764FF0010C012704
:104F000096F82930002B48D096F82830002B44D052
:104F10001FFA88F401F804C008F1010334789BB249
:104F2000CC5408F1020A73781FFA8AF40B5508F181
:104F3000030BB3781FFA8BF40B5508F1040AF378CE
:104F40001FFA8AF40B5508F1050B33791FFA8BF41D
:104F50000B5508F1060A73791FFA8AF40B5508F10C
:104F6000070BB3791FFA8BF40B5508F1080AF37994
:104F70001FFA8AF40B5508F1090B337E1FFA8BF4E4
:104F80000B5508F10A0A2B781FFA8AF40B5599F889
:104F9000ED4608F10B080EF1010EA74206D234359A
:104FA0006036BEF1060F07F10107A9D399F8684CE6
:104FB00008F1010381F814E0C4B309F5DE664FF08F
:104FC000000C0125777E47B337789AB28F545C1C6A
:104FD0007278A4B20A559F1CB278BFB2CA55DC1CC5
:104FE000F278A4B20A551F1D3279BFB2CA555C1DB2
:104FF0007279A4B20A559F1DB279BFB2CA55DC1DA1
:10500000F279A4B20A5503F10807327EBFB2CA553D
:1050100099F8684C09330CF1010CA54208D201350E
:10502000BCF1140F06F11C06CCD301E04FF0000CCC
:105030001FFA88F201F802C0D9F8907F03F1010845
:10504000002F00F0A18097F89050032D28BF032572
:10505000002D00F09980D9F8907F1FFA88F23E78F1
:105060009C1C8E547A78A4B20A55DE1CBA78B6B26B
:105070008A551C1DFA78A4B20A555E1D3A79B6B25B
:105080008A559C1D7A79A4B20A55DE1DBA79B6B24A
:105090008A5503F10804FA79A4B20A5503F1090606
:1050A0003F7C03F10A08B6B2012D8F556DD0D9F8B7
:1050B000907F1FFA88F23E7E03F10B048E547A7EB5
:1050C000A4B20A5503F10C06BA7EB6B28A5503F1B2
:1050D0000D04FA7EA4B20A5503F10E063A7FB6B269
:1050E0008A5503F10F047A7FA4B20A5503F1100622
:1050F000BA7FB6B28A5503F11104FA7FA4B20A55F9
:1051000003F1120697F8287003F11308B6B2022DC6
:105110008F553AD0D9F8907F1FFA88F297F830600F
:1051200003F114048E5497F83120A4B20A5503F108
:10513000150697F83220B6B28A5503F1160497F88F
:105140003320A4B20A5503F1170697F83420B6B2FB
:105150008A5503F1180497F83520A4B20A5503F1D3
:10516000190697F83620B6B28A5503F11A0497F853
:105170003720A4B20A5503F11B0697F8407003F1DB
:105180001C08B6B28F5500E000259BB2CD5499F8AB
:10519000943F1FFA88F68B5508F1010799F8953F5F
:1051A000BFB2CB5508F1020699F8963FB6B28B55BF
:1051B00008F1030799F8973FBFB2CB5508F10406F1
:1051C00099F8A03FB6B28B5508F1050799F8A13FB1
:1051D000BFB2CB5508F1060699F8A23FB6B208F166
:1051E00007078B5599F8A36F08F10805BBB21FFAA2
:1051F00085FECE5453B1012B03F0010C08D10023DE
:105200000024BCF1000F7AD1ADE000BF0024AAE079
:1052100023F00103C3F1000A00246FF00106072503
:105220008B19DA781B79624054B25700002C48BFC2
:1052300085EA42077AB27C00002A48BF85EA470423
:1052400062B26700002A48BF85EA44077AB27C0050
:10525000002A48BF85EA470462B26700002A48BFB7
:1052600085EA44077AB27C00002A48BF85EA4704F1
:1052700062B26700002A48BF85EA44077AB27C0020
:10528000002A48BF85EA470483EA040253B2540067
:10529000002B48BF85EA420462B26300002A48BF7F
:1052A00085EA44035AB25C00002A48BF85EA4304F9
:1052B00062B26300002A48BF85EA44035AB25C0028
:1052C000002A48BF85EA430462B26300002A48BF4F
:1052D00085EA44035AB25F00002A48BF85EA4307C3
:1052E0007AB202367C00002A0AEB060248BF85EA41
:1052F0004704023294D1B31CBCF1000F33D0CA185A
:1053000052780723624057B25600002F48BF83EA05
:10531000420672B27700002A48BF83EA46077AB293
:105320007E00002A48BF83EA470672B27700002A4F
:1053300048BF83EA46077AB27E00002A48BF83EA64
:10534000470672B27700002A48BF83EA46077AB25E
:105350007E00002A48BF83EA470672B27400002A22
:1053600048BF83EA460408F1090208F10A0392B231
:1053700055278F549AB201F80E40FEF7ABFC68B186
:1053800040F2C0010020C2F200010870D9F8A40F59
:105390000130C9F8A40F01B0BDE8F08F40F2C001A0
:1053A0000120C2F20001087001B0BDE8F08F0000DA
:1053B00070470000FDF77EBC70470000406A002186
:1053C000C185C184FEF728B8406A01684A6990F82F
:1053D0004130212B2DD112F080022AD00021C1842E
:1053E000016851E8031F026821F0C00142E803137D
:1053F000DBB1016851E8031F026821F0C00142E8F7
:10540000031393B1016851E8031F026821F0C00142
:1054100042E803134BB1016851E8031F026821F011
:10542000C00142E80313002BDAD1202180F841109B
:105430000168496990F84220222A40F07D8011F0ED
:10544000400179D00021C185016851E8031F02683D
:1054500021F4907142E80313BBB3016851E8031FC4
:10546000026821F4907142E8031373B3016851E8B4
:10547000031F026821F4907142E803132BB3016803
:1054800051E8031F026821F4907142E80313002BD6
:10549000DAD11AE0016851E8051F026821F0010124
:1054A00042E80513DBB1016851E8051F026821F0ED
:1054B000010142E8051393B1016851E8051F026834
:1054C00021F0010142E805134BB1016851E8051FC5
:1054D000026821F0010142E80513002BDAD1016BCB
:1054E000012924D1016851E8031F026821F010014D
:1054F00042E80313DBB1016851E8031F026821F0A1
:10550000100142E8031393B1016851E8031F0268D8
:1055100021F0100142E803134BB1016851E8031F69
:10552000026821F0100142E80313002BDAD1202198
:1055300080F8421000210163416C41F01001416488
:10554000FDF76ABF0168406A0968890600F19F801B
:105550000021C185016851E8031F026821F48071B0
:1055600042E80313E3B1016851E8031F026821F424
:10557000807142E803139BB1016851E8031F026880
:1055800021F4807142E8031353B1016851E8031F0D
:10559000026821F4807142E80313002BDAD100BFC6
:1055A000016851E8051F026821F0010142E8051376
:1055B000BBB3016851E8051F026821F0010142E810
:1055C000051373B3016851E8051F026821F001015A
:1055D00042E805132BB3016851E8051F026821F06A
:1055E000010142E80513002BDAD11AE0016851E805
:1055F000051F026821F0400142E80513DBB1016894
:1056000051E8051F026821F0400142E8051393B1FB
:10561000016851E8051F026821F0400142E80513C6
:105620004BB1016851E8051F026821F0400142E8D2
:105630000513002BDAD1202180F84210016B0129DB
:1056400025D100BF016851E8031F026821F0100155
:1056500042E80313DBB1016851E8031F026821F03F
:10566000100142E8031393B1016851E8031F026877
:1056700021F0100142E803134BB1016851E8031F08
:10568000026821F0100142E80313002BDAD1002157
:105690004163016B012918BFFEF718BB818DFDF72F
:1056A000B9BE0000406A01214163016B012918BFA6
:1056B000FEF70EBB818D4908FDF7ACBE0168406A5C
:1056C0000968890648BFFEF763BB0021C18400BF9B
:1056D000016851E8051F026821F0800142E80513C6
:1056E00083B3016851E8051F026821F0800142E898
:1056F00005133BB3016851E8051F026821F08001E2
:1057000042E80513F3B1016851E8051F026821F072
:10571000800142E80513002BDAD113E0016851E85B
:10572000031F026841F0400142E80313002B08BF49
:105730007047016851E8031F026841F0400142E8E8
:10574000031393B1016851E8031F026841F040015F
:1057500042E803134BB1016851E8031F026841F0AE
:10576000400142E80313002BD8D17047406AFEF78E
:105770001FBB000081B090F84210222921D183681C
:105780000246B3F5805F09D152F8281F52F8183C41
:10579000002B63D003685B680AE000BF52F8281F43
:1057A00013B90369002BF5D003685B6803F07F032E
:1057B0000B70116801311160C18D01390A04C18576
:1057C00002D001B0704700BF0168CA6822F0200211
:1057D000CA60CA6822F48072CA604A6922F0010273
:1057E0004A61202180F8421000214163026B012AA6
:1057F0003CD10163016851E8031F026821F01001E8
:1058000042E80313DBB1016851E8031F026821F08D
:10581000100142E8031393B1016851E8031F0268C5
:1058200021F0100142E803134BB1016851E8031F56
:10583000026821F0100142E80313002BDAD101685D
:105840000A68D20606D5002200920A6800924968CA
:1058500000910099818D01B0FDF7DCBD02685268AE
:105860006FF35F2221F8022B8162A5E701B0FEF7FA
:105870002DBA000040F27800C2F20000FDF7E8BD4A
:10588000FEE7000010B590F890C00023BCF1050FB2
:1058900013D80CEB4C0E40F83E10002100EBCE0468
:1058A000C4F23421C4E90121E3602374638263619B
:1058B0000CF10101012380F89010184610BD000082
:1058C0002DE9F04381B090F890706FB3814688461F
:1058D0000025002609E000BF013F013E89F89070D5
:1058E0000136F5B2F8B285421ED205EB450009EB50
:1058F000C0046068414601F009FF0028F0D1F8B209
:105900000138A842E8D900EB400009EBC00159F882
:1059100030000F1DD1E904518CCF84E88D00C4E91B
:10592000045199F89070D7E701B0BDE8F08300000A
:105930002DE9F04F87B090F89070052F04D9002022
:1059400007B0BDE8F08F00BF109F0690002FCDE993
:10595000031200F0E5801C3003F1080201900020E2
:10596000029217E004992846A84601F0D6FEDDF819
:10597000189048F2000B0028C4F23B4B08BF5FEAC6
:10598000C47000F0818005980399132800F101008C
:1059900080F06881059048680021CCF2964101F0C2
:1059A00031FE40F2C808C2F20008D8F8001044F6F0
:1059B0006D66C4F2C61643F2390701FB067405464C
:1059C00024F0004001F0E6FF4FF0405102F05EF895
:1059D0000021CCF2FA3102F059F80146284601F0D4
:1059E00011FE04FB0671054621F00040C8F80000D6
:1059F00001F0D0FF4FF0405102F048F80021C4F20E
:105A0000164102F043F80021C4F2963101F0FAFD8C
:105A1000029F824601244FF0000B0BE010980BF11F
:105A2000010B83454FF0000438BF0124584507F1AE
:105A3000100797D078790028F0D057E9021950461E
:105A400002F02EFA80462846494602F029FA01461D
:105A500002F01CF806464046414602F017F831466F
:105A600001F0D0FD01F0B8FD396806460846002176
:105A7000C4F2482101F0C6FD0146304601F03FFE68
:105A80000028CBD16EE700BF99F89000002845D0E0
:105A9000D9E90014504602F003FA06464046214672
:105AA00002F0FEF9014601F0F1FF044630463146AE
:105AB00001F0ECFF214601F0A5FD01F08DFD5946F6
:105AC00001F02BFE00287FF45EAF019C002700BF91
:105AD00099F890000137874220D254F8041C5046B0
