:020000040800F2
:10000000001D002091010008C934000815340008C3
:10001000C534000849050008D1520008000000005E
:10002000000000000000000000000000014E000879
:10003000650500080000000041350008054E000875
:10004000AB010008AB010008AB010008AB010008E0
:10005000AB010008AB010008690500087105000844
:10006000AB010008AB01000879050008AB010008EE
:10007000AB010008AB010008AB010008AB010008B0
:100080004D05000859050008AB010008AB01000848
:10009000AB010008AB010008AB010008AB01000890
:1000A000AB010008AB010008AB010008AB01000880
:1000B000AB010008AB010008AB010008AB01000870
:1000C000AB010008AB010008AB010008AB01000860
:1000D000AB010008AB010008C5520008AB010008E5
:1000E000AB010008AB010008AB01000800F002F80A
:1000F00000F03EF80AA090E8000C82448344AAF184
:100100000107DA4501D100F033F8AFF2090EBAE881
:100110000F0013F0010F18BFFB1A43F0010318473B
:10012000486D0000686D0000103A24BF78C878C19F
:10013000FAD8520724BF30C830C144BF04680C60ED
:10014000704700000023002400250026103A28BF35
:1001500078C1FBD8520728BF30C148BF0B60704739
:100160001FB59DE8030000F001F91FBD10B510BDDB
:1001700000F068F91146FFF7F3FF05F025FC00F0E9
:1001800086F903B4FFF7F2FF03BC00F0B7F90000F3
:100190000948804709480047FEE7FEE7FEE7FEE71B
:1001A000FEE7FEE7FEE7FEE7FEE7FEE70448054957
:1001B000054A064B70470000094E0008ED00000894
:1001C00000170020001D0020001900200019002049
:1001D00070B5064600F0AEF8056806F10B0020F099
:1001E0000704B4429CBF002070BD2B466A68BAB1B8
:1001F0001068A04210D304F1080188423CBF506847
:10020000586007D35168101941601168091B0160DB
:1002100058601460101D70BD13465268002AE7D163
:100220002146284600F08EF80028DED170BD70B55A
:100230000446051F00F07EF80068002C14BF4468D7
:1002400070BD002C18BFAC423CBF20466468F8D398
:1002500001680A18AA4218BF456003D12A680546FA
:100260001144016028684119A1421CBF6C6070BD37
:100270006168696021680844286070BD10B5203A43
:10028000C0F00B80B1E81850A0E81850B1E8185041
:10029000A0E81850203ABFF4F5AF5FEA027C24BF13
:1002A000B1E81850A0E8185044BF18C918C0BDE8FC
:1002B00010405FEA827C24BF51F8043B40F8043BC5
:1002C00008BF7047D20728BF31F8023B48BF11F87A
:1002D000012B28BF20F8023B48BF00F8012B7047D4
:1002E0004FF0000200B5134694469646203922BFCF
:1002F000A0E80C50A0E80C50B1F12001BFF4F7AF1A
:10030000090728BFA0E80C5048BF0CC05DF804EBFB
:10031000890028BF40F8042B08BF704748BF20F869
:10032000022B11F0804F18BF00F8012B7047704767
:1003300070477047004870471800002070477047AA
:100340007047704738B504460A4600206946AFF347
:100350000080002808BF38BD02460099204600F002
:100360004FF8012038BD012000F064B8F8B5AFF3B4
:100370000080054600200C46102000BF0646A81944
:10038000A0420DD9324669460020AFF30080070035
:1003900008BF00F04FF80098A04218BF0546C419E6
:1003A000FFF7C8FF05600746F01D20F0070046195B
:1003B000284600F00AF8B44208BFF8BDA21B314637
:1003C0003868BDE8F84000F01BB800210160C0E9C2
:1003D000011070471020704710B500F00DF800684C
:1003E00010BD10B5044600F007F8046010BD000011
:1003F000004870471000002000487047100000209F
:10040000034640688C46002818BF88423CBF03461C
:100410004068F8D318681844884207D00CF10300EC
:1004200020F00700001D411A521A0146081D0A60FB
:10043000FFF7FDBE10B500F039F8BDE8104000F040
:100440002FB870477546FFF7D3FFAE4605006946E3
:10045000534620F00700854618B020B5FFF7A6FEEA
:10046000BDE820404FF000064FF000074FF00008B5
:100470004FF0000BAC46ACE8C009ACE8C009ACE8F2
:10048000C009ACE8C00921F007018D46704710B5DE
:100490000446AFF300802046BDE81040FFF771BE70
:1004A000002801D000F02AB87047000010B50128DC
:1004B00005D0002103A000F027F8012010BD09A1FC
:1004C000F8E7000053494752544D454D3A204F75C7
:1004D00074206F662068656170206D656D6F72793C
:1004E000000000003A2048656170206D656D6F72F4
:1004F0007920636F72727570746564000149182009
:10050000ABBEFEE72600020070B505460C460A2089
:1005100000E06D1C00F011F835B128780028F8D102
:1005200002E0641C00F009F814B120780028F8D12A
:10053000BDE870400A20AFF3008008B569468DF829
:1005400000000320ABBE08BDFEE7000041F27000D2
:10055000C2F2000001F054BC41F2B400C2F200004B
:1005600001F04EBC70470000012001F0ADBD00005D
:10057000022001F0A9BD0000102001F0A5BD00007F
:100580002DE9F04381B090F8EC5604468946CDB190
:1005900000274FF0340804E00137F8B2E9B288428E
:1005A00010D2FEB206FB08404946406A05F07CFFC7
:1005B0000028F1D12046314600F0B8FA94F8EC5604
:1005C000013FE9E794F8ED56E5B1002705E000BFEB
:1005D0000137F8B2E9B2884214D2FEB206EB460007
:1005E00004EB4010D0F83003494605F05DFF0028C9
:1005F000EED12046314600F07FFA94F8ED56013FE7
:10060000E6E700BF01B0BDE8F08300002DE9F04F40
:1006100085B0029105460021D0E90040A5F85C10A4
:10062000002144F66D6BC4F24831C4F2C61B05F0DC
:10063000B7FE40F2C809C2F20009D9F8001043F22F
:10064000390201FB0B214AF6AB2221F00041CAF628
:10065000AA22A1FB0223074623F0010000EB53006E
:10066000081AC9F8001000F00101023040F2000A37
:1006700000F00603A5F11002C4F2963A009103952A
:10068000D9F8000043F2390100FB0B1547F2A31122
:1006900025F00040CAF26E310492A0FB0112110A4B
:1006A00040F2911201FB1200019300F5C87043F271
:1006B000390806F025F805FB0B81054621F00040BE
:1006C000C9F8000006F034F84FF0405106F0ACF8DD
:1006D0000021C4F2164106F0A7F80021CCF29631B1
:1006E00005F05EFE0146204605F05AFE0021C4F2E8
:1006F0006141044605F0CAFE00281CBF0024C4F274
:1007000061442046514605F0C1FE0028384629467E
:1007100008BF544605F044FE80460298D0E9001513
:10072000204606F08BFA06464046294606F086FA31
:100730000146814606F078F807463046314606F015
:1007400073F8394605F02CFE05F014FE51460746B5
:1007500005F0B1FE0546002838464FF0000118BFED
:10076000012505F093FE002818BF012005EA000BC3
:100770003046394605F0B2FE514606F055F821469E
:1007800005F00EFE06464846394605F0A7FE5146DE
:1007900006F04AF8414605F003FE40F2C801C2F2F5
:1007A0000001096844F66D62C4F2C61243F23909C9
:1007B00001FB029747F2A31227F00041CAF26E3202
:1007C000A1FB02230546BBF1000F04BF45462646A8
:1007D0000498039C049AC66494F85D0015651A0A8F
:1007E00040F2911302FB1311013084F85D0001F512
:1007F000C87005F085FF44F66D61C4F2C61107FBB1
:100800000191044621F0004040F2C801C2F200010B
:10081000086005F08DFF4FF0405106F005F800210B
:10082000C4F2164106F000F80021CCF2963105F032
:10083000B7FD0146304605F0B3FD0021C4F2614129
:10084000804605F023FE00281CBF40F20008C4F2D9
:1008500061484046514605F019FE002828462146C9
:1008600008BFD04605F09CFD029C814621684046A9
:1008700006F0E4F961680446484606F0DFF90146EF
:10088000054605F0D1FF06462046214605F0CCFF7F
:10089000314605F085FD05F06DFD5146064605F033
:1008A0000AFE0746002830464FF0000118BF012716
:1008B00005F0ECFD002818BF012007EA000B2046D8
:1008C000314605F00BFE514605F0AEFF414605F0FE
:1008D00067FD04462846314605F000FE514605F006
:1008E000A3FF494605F05CFD0746019B049ABBF156
:1008F000000F08BF4F4608BF4446039E47F2A311AE
:1009000096F85D5040F2C80944F66D6BCAF26E313C
:10091000C2F20009C4F2C61B54659765681C023B0D
:1009200002F1100286F85D007FF4AAAE009B029EE1
:1009300033B9DDF80CB0C6B2042E80F0D98095E052
:10094000D9F8000043F2390800FB0B85049225F02A
:100950000040A0FB0112110A40F2911201FB1200AB
:1009600000F5C87005F0CCFE05FB0B81054621F0B3
:100970000040C9F8000005F0DBFE4FF0405105F0E3
:1009800053FF0021C4F2164105F04EFF0021CCF2C6
:10099000963105F005FD0146204605F001FD0021D8
:1009A000C4F26141044605F071FD00281CBF00241B
:1009B000C4F261442046514605F068FD00283846DF
:1009C000294608BF544605F0EBFCD6E900168046E0
:1009D000204606F033F905464046314606F02EF92A
:1009E0000146814605F020FF07462846294605F0C6
:1009F0001BFF394605F0D4FC05F0BCFC5146074608
:100A000005F059FD0646002838464FF0000118BF92
:100A1000012605F03BFD002818BF012006402846AE
:100A2000394605F05BFD514605F0FEFE214605F016
:100A3000B7FC05464846394605F050FD514605F0DD
:100A4000F3FE414605F0ACFC0746002E04BF4746C6
:100A500025460498DDF80CB0C5649BF85D50076529
:100A6000681C8BF85D00C6B2042E41D240F2C80A61
:100A7000C2F2000ADAF8000044F66D6943F2390860
:100A8000C4F2C61900FB0984DB2124F00040CBF23C
:100A90002E41A0FB0112811A02EB5101490A40F2DA
:100AA000592201FB120000F5967005F029FE04FBA7
:100AB000098147F2A31221F00041CAF26E32A1FB74
:100AC00002230446180A40F2911200FB1210CAF8E1
:100AD000001000F5C87005F013FE0146384605F019
:100AE0005FFC0BEBC601C1E90F40A81C8BF85D0051
:100AF00005B0BDE8F08F000010B5044690F8ED0693
:100B0000421E8A420EDD01EB410004F54B7102EBFF
:100B1000420201EB401001EB42116022FFF7AEFBF5
:100B200094F8ED06013884F8ED0610BD2DE9F0418A
:100B300090F8EC26531E8B4229DD00F1200C4FF07B
:100B4000340E03FB0EC403FB0EF301FB0EC201FBCC
:100B50000EF8D4E901E5D4E903675CF80330616974
:100B60004CF808305161C2E90367C2E901E5D4E9F4
:100B700006C3D4E90876D4E90A15C2E90876C2E9C1
:100B80000A15C2E906C3216B116390F8EC26511EC9
:100B900080F8EC16BDE8F0812DE9F04F81B00E46EB
:100BA00080468A8BD0E90050D1E90071728306F04B
:100BB00045F804462846394606F040F801462046E6
:100BC00005F0CEF898F8684C322C274698BF3227AB
:100BD000312C64D849F69A11CBF61961054605F017
:100BE000DFFBC4EBC40108EB8102D6E9009643F2B7
:100BF000333340F2000BC4F23303C2F8F8064FF46B
:100C00008770C4F2A00B4FF48071C2F8F096C2F85E
:100C1000F466C2F8FC36A2F80007C2F804B7A2F8DE
:100C20000817621CBA4288F8682C38D0C2EBC2029E
:100C300004F1020A08EB8202BA45C2F8F096C2F843
:100C4000F466C2F8F856C2F8FC36A2F80007C2F8FB
:100C500004B7A2F8081788F868AC20D049F69A11B2
:100C6000C3F6196128461D4605F09AFBCAEBCA0176
:100C700008EB8101C1F8F8064FF48770A1F800076E
:100C80004FF48070A1F80807E01CC1F8F096C1F895
:100C9000F466C1F8FC56C1F804B788F8680C01B0D6
:100CA000BDE8F08F2DE9F04F87B090F8EC56834601
:100CB000002D069000F0FA8240F6DB7A0BF67940C0
:100CC000CCF2C90A4FF0000900900DE0681E8BF8C5
:100CD000EC06A9F1010909F101099BF8EC565FFA4C
:100CE00089F0A84280F0E2825FFA89F4342004FBA4
:100CF00000B696F847000028EDD006F120010496D2
:100D000016F8460FD1F80480DBF804700591D8BBC3
:100D100000213846CCF2C84105F042FB014640466E
:100D200005F0C2FB0028D6D140F2C802C2F2000290
:100D3000106844F66D61C4F2C61143F2390300FB3A
:100D40000130012120F000403170106005F0F0FC0E
:100D50004FF0405105F068FD4CF6CD41C3F64C71A3
:100D600005F0A9FB002818BF0120049981F8520062
:100D7000002088624CF6CD40C4F20C00C86240F6F8
:100D8000DB70C3F6C970086348F200013846C4F24C
:100D90003B5105F005FB0146404605F085FB08BBCD
:100DA000E8B20138A04291D9342100FB01B0059C82
:100DB00000F120078ECFD0E90C5684E88E00C4E9FC
:100DC000045600F138078ECFD0E9125604F1180C02
:100DD000C4E90A568CE88E00006D20639BF8EC563F
:100DE00074E700BF0598594600F066FE049C26464D
:100DF000224656F8281F52F82C0F019204F0B0FF3B
:100E000054F8301F0246084611460294039205F03A
:100E100015FF40F6DB74C4F249042146074605F08D
:100E200043FB28BB3846514605F0BAFA214607462F
:100E300005F03AFBE0B93846514605F0B1FA2146D3
:100E4000074605F031FB98B93846514605F0A8FA37
:100E50002146074605F028FB50B93846514605F0B3
:100E60009FFA2146074605F011FB0028DAD100BFA2
:100E700040F6DB74CCF249043846214605F00DFB00
:100E800040F6DB75C4F2C90530BB00BF38462946C1
:100E900005F086FA2146074605F0FFFAE0B9384624
:100EA000294605F07DFA2146074605F0F6FA98B97D
:100EB0003846294605F074FA2146074605F0EDFA52
:100EC00050B93846294605F06BFA2146074605F029
:100ED000F2FA0028DAD100BF4CF6CD413846C3F60D
:100EE0004C5105F0A1FC0146039805F059FA05465E
:100EF00005F088F84CF6CD44C4F20C04214605F008
:100F000093FC3060284605F071F9214605F08CFC11
:100F100080460198376843F23331C0F8008028F0EA
:100F20000040C3F6337127F0004605F07DFC014612
:100F3000304605F0ABFA06463846002105F0A6FA21
:100F400000284FF0030440464FF0000118BF012471
:100F500005F09CFA002818BF0120002E08BF4400AD
:100F6000059EDDF810A0D6E9001538468AF84840FD
:100F7000039105F015FA0746306040462946019571
:100F800005F00EFA9BF88C1F7060A9B3DAF840B038
:100F9000009C8046002604E001368E4204F11004D5
:100FA0002CD220780028F7D054F80D1C54F8095C96
:100FB000384605F043FE82464046294605F03EFE8F
:100FC000014605F031FC05465046514605F02CFC23
:100FD000294605F0E5F905F0CDF954F8051C05465C
:100FE000584605F0DDF90146284605F064FA78B95F
:100FF000069890F88C1FCFE73E4603E00598DDF891
:1010000018B0066840F6DB740025C4F249049CE081
:1010100040F2C803C2F20003186844F66D61C4F2DE
:10102000C61143F2390200FB01204EF28B6120F021
:101030000040CBF20951A0FB01120599039F1860F3
:101040000F60019F4F60D109B52201FB120101F130
:101050005A0005F055FB40F6DB74C4F24904214602
:1010600005F0E2FB0021C4F2343105F037FA0299B1
:10107000024609680846114605F092F921460646DF
:1010800005F012FADDF818B040F6DB7540F6DB77B4
:1010900040F6DB78CCF2C905CCF24907C4F2C908A6
:1010A00028BB00BF3046294605F07AF9214606469E
:1010B00005F0FAF9D8B93046294605F071F921460C
:1010C000064605F0F1F990B93046294605F068F971
:1010D0002146064605F0E8F948B93046294605F0AC
:1010E0005FF92146064605F0D1F90028DAD13046ED
:1010F000394605F0D2F920BB3046414605F050F99B
:101100003946064605F0C9F9D8B93046414605F0DA
:1011100047F93946064605F0C0F990B930464146D0
:1011200005F03EF93946064605F0B7F948B93046AC
:10113000414605F035F93946064605F0BCF9002868
:10114000DAD1029800250660039EC4F2F0253046ED
:10115000294605F0B0F918B11E202E460CE000BF5C
:1011600000213046C4F2874105F09EF9049A80BB05
:101170000026D220C4F2874640F2C807C2F2000718
:10118000396844F66D62C4F2C61243F2390301FBBA
:10119000023145F2BF6221F00041C0F6CF62A1FBEF
:1011A0000223059A39601660CA1A03EB52029209AB
:1011B000792302FB1312104405F0A2FA214605F030
:1011C00033FB0021C4F2343105F088F90299049A06
:1011D0000860104630F8501F144600291CBF013922
:1011E000018034F83A0F18B101380104208057D13A
:1011F000DBE900A830465146039605F01FFD05992E
:1012000020F000464F684146384605F017FD0021A2
:1012100005463046C4F2C83105F03FF900283FD1F9
:10122000002125F00040C4F2963105F036F9B8BB34
:1012300004999BF8680C898F3128218030D8039954
:10124000504605F0FBFC05464046394605F0F6FCE5
:10125000294604F085FD9BF8681C059FC1EBC1027F
:101260003B680BEB8202C2F8F0367B68C2F8F806E6
:101270000020C4F26000C2F8FC064FF48770A2F8A8
:1012800000070020C4F2A000C2F804074FF48070E9
:10129000A2F80807481CC2F8F4368BF8680C00BFA7
:1012A00040F6DB7ACCF2C90A15E500BF9BF8ED06E3
:1012B000002800F0E38248F200080BF67940C4F2FF
:1012C0003B584FF0000900900EE000BF01388BF84A
:1012D000ED06A9F1010909F101099BF8ED065FFA94
:1012E00089F1814280F0CA825FFA89F606EB4600F6
:1012F0000BEB401191F855030028ECD091F8540302
:1013000001F54B770028059100F0D681DBF8040049
:101310007D68414605F044F80146284605F0C4F8CA
:1013200090B99BF8ED06411EB142CFDD01EB4100C3
:101330000BEB401000F54B7138466022FEF79EFF24
:101340009BF8ED06C2E700BF3846594600230497D4
:1013500000F098FA059CD4E9CD1004F001FDD4F812
:101360003C1305460846294605F068FC40F6DB7448
:10137000C4F249042146074605F096F840F6DB76AC
:10138000CCF2C90630BB00BF3846314605F008F83C
:101390002146074605F088F8E0B93846314604F0A2
:1013A000FFFF2146074605F07FF898B938463146D9
:1013B00004F0F6FF2146074605F076F850B93846A6
:1013C000314604F0EDFF2146074605F05FF800289E
:1013D000DAD100BF059840F6DB7400F54D7A00F5D0
:1013E0004E7100F54F70CCF24904029103903846DB
:1013F000214605F052F840F6DB76C4F2C90628BB58
:101400003846314604F0CCFF2146074605F045F842
:10141000E0B93846314604F0C3FF2146074605F0DF
:101420003CF898B93846314604F0BAFF21460746E1
:1014300005F033F850B93846314604F0B1FF214683
:10144000074605F038F80028DAD100BF4CF28F21AA
:101450003846C3F6F54105F0E7F90146284604F0A1
:101460009FFF054604F0CEFD4CF6CD44C3F6CC7488
:10147000214605F0D9F9CAF80000284604F0B6FE66
:10148000214605F0D1F980460298DAF8007043F25F
:101490003331C0F8008028F00040C3F6337127F0E4
:1014A000004505F0C1F90146284604F0EFFF054666
:1014B0003846002104F0EAFF00284FF003044046BC
:1014C0004FF0000118BF012404F0E0FF002818BF0E
:1014D0000120002D08BF4400049DDDF814A0D5E9CB
:1014E000001638468AF85643029104F059FF074621
:1014F000286040463146019604F052FF9BF88C1F4D
:101500006860002900F02A81DAF84CB3009C80461C
:10151000002508E0069890F88C1F01358D4204F1F3
:10152000100480F01D8120780028F6D054F80D1C9E
:1015300054F8096C384605F081FB82464046314636
:1015400005F07CFB014605F06FF906465046514612
:1015500005F06AF9314604F023FF04F00BFF54F85C
:10156000051C0646584604F01BFF0146304604F0B1
:10157000A2FF0028CED040F2C803C2F200031868D0
:1015800044F66D61C4F2C61143F2390200FB01203A
:101590004EF28B6120F00040CBF20951A0FB01120A
:1015A0000499DDF808A0019FC1F800A04F60D1099F
:1015B000B52201FB1201186001F15A0005F0A0F8F4
:1015C00040F6DB74C4F24904214605F02DF90021F0
:1015D000C4F2343104F082FF0399024609680846D8
:1015E000114604F0DDFE2146054604F05DFFDDF8FE
:1015F00018B048F2000840F6DB76C4F23B58CCF253
:10160000C90620BB2846314604F0CAFE21460546DD
:1016100004F04AFFD8B92846314604F0C1FE2146FD
:10162000054604F041FF90B92846314604F0B8FE63
:101630002146054604F038FF48B92846314604F0F3
:10164000AFFE2146054604F021FF0028DAD140F61E
:10165000DB76CCF249062846314604F01EFF40F600
:10166000DB77C4F2C90720BB2846394604F098FE50
:101670003146054604F011FFD8B92846394604F032
:101680008FFE3146054604F008FF90B928463946DA
:1016900004F086FE3146054604F0FFFE48B92846B0
:1016A000394604F07DFE3146054604F004FF00286B
:1016B000DAD10398056060E0DBF8040000217D6862
:1016C000CCF2C84104F06CFE0146284604F0ECFE62
:1016D00000287FF400AE40F2C802C2F20002106897
:1016E00044F66D61C4F2C61143F23903059D00FB57
:1016F000013005F55574012120F000402170106083
:1017000005F016F84FF0405105F08EF843F23331F2
:10171000C3F6337104F0CFFE0146002818BF012143
:10172000490085F85E130021C5F834134CF6CD410D
:10173000002840F6DB70C3F6CC71C3F6C970C5F85B
:101740003813C5F83C037FF4E1AD38465946FEF73F
:101750005DFF207800287FF4D9ADBCE5BA4604E0EF
:101760000498DDF818B0D0F800A048F2000840F660
:10177000DB74C4F23B58C4F249040025C4F21635A8
:101780005046294604F097FE20B1AA46059D1E202A
:101790000EE000BF44F200015046C4F2834104F061
:1017A00083FE059D88BB44F2000AD220C4F2834A1E
:1017B00040F2C807C2F20007396844F66D62C4F20D
:1017C000C61243F2390301FB023145F2BF6221F038
:1017D0000041C0F6CF62A1FB0223049A3960C2F82F
:1017E00000A0CA1A03EB52029209792302FB1312DA
:1017F000104404F085FF214605F016F80021C4F2DC
:10180000343104F06BFE03990860B5F852030028E8
:101810001EBF05F2523101380880B5F84603049C1A
:1018200030B1013805F24631020408807FF453AD2F
:10183000DBE90015504605F001FA616820F000462A
:101840000846294605F0FAF9002105463046C4F25B
:10185000FA3104F022FE00287FF43DAD002125F08E
:101860000040C4F2C83104F018FE00287FF433AD04
:1018700058462146FFF790F92DE500BF07B0BDE8B7
:10188000F08F00002DE9F0470446066890F832001A
:10189000676802288A4647D1DAE900983046494607
:1018A00005F0CCF9002120F00040C4F2FA3104F038
:1018B000F4FD05463846414605F0C0F9002D40F0DC
:1018C0008D80002120F00040C4F2C83104F0E5FD15
:1018D000002840F08380DAF808000021C4F23421A7
:1018E00004F0FCFD0021C4F2482104F09DFF4946AC
:1018F00004F056FD00210546CCF24821404604F094
:101900004FFD394605F09AF907462846314605F05D
:1019100095F90146384604F023FA78212061A18622
:10192000A063BDE8F08700BF94F85C0094F85D10F8
:1019300088420BD320465146FEF768FE94F85D00BE
:10194000002849D094F85C00D4E9006704EBC0019A
:10195000D1E90F05314605F071F9064628463946AA
:1019600005F06CF9014604F05FFF0546304631464C
:1019700004F05AFF294604F013FD04F0FBFC00219B
:10198000C4F2963104F089FD68B994F85C0094F8CB
:101990005D100130C2B28A4284F85C0003D3204655
:1019A0005146FEF733FE94F85C0094F85D108842CF
:1019B00028BFBDE8F08704EBC001D1E90F05D4E9E9
:1019C000001605F03BF907462846314605F036F982
:1019D000394604F0C5F92061BDE8F087A08E28B132
:1019E000A16B0138A0862161BDE8F087208E013807
:1019F0000104208602D0E56A54E000BF40F2C8012D
:101A0000C2F20001086844F66D6343F23902C4F281
:101A1000C61300FB032045F2BF6620F00047C0F666
:101A2000CF66A7FB06657F1B05EB5707BF09792625
:101A300007FB160700FB0320B43720F00040278681
:101A4000086004F075FE4FF0405104F0EDFE4CF6D6
:101A5000CD41C3F6CC5104F0E7FE4CF6CD41CBF6B8
:101A60004C5104F09DFCE16A02460846114604F020
:101A700097FC40F69221C3F60671054604F006FD78
:101A800040F69226CBF6067600281CBF40F692253B
:101A9000C3F606752846314604F0F8FC002808BF56
:101AA0003546E56240F6DB71C3F6C971284604F09D
:101AB00077FC2061BDE8F0872DE9F047D0E9008A86
:101AC000D1E9009504464046494605F0B7F8074677
:101AD0005046294605F0B2F894F83210012921D178
:101AE0000021064627F00040C4F2C83104F0D5FCBE
:101AF000C0B9002126F00040C4F2963104F0CDFCBC
:101B000080B92846514605F099F8054648464146B1
:101B100005F094F80146284604F022F92061BDE85A
:101B2000F08700BF208E01380104208602D0E06AD1
:101B300036E000BF40F2C801C2F20001086844F676
:101B40006D6343F23902C4F2C61300FB032048F26E
:101B5000691620F00047C6F61606A7FB06657F1B30
:101B600005EB5707BF095B2607FB160700FB0320A1
:101B70005A3720F000402786086004F0D9FD4FF066
:101B8000405104F051FE40F69221C3F6867104F0F4
:101B90004BFE40F69221CBF6067104F001FCE062A8
:101BA00040F6DB71C3F6C97104F0FAFB2061BDE8B1
:101BB000F087000040F2CC04C2F20004EFF3108082
:101BC00072B600BF204600F00BF8FBE710B50446E4
:101BD00001F0B8FC2046BDE8104001F0A1BE0000B5
:101BE00010B50446D0F8900F002808BF10BDFEF7CE
:101BF0001EFB0020C4F8900F10BD00002DE9F04737
:101C000004460020C4F2164048F20005C4F2224502
:101C10004FF0000A84E8210400200021C4F2C8101B
:101C2000C4F240014FF06412C4E906A09420C4E954
:101C30000312A4F814A004F1200704F5DE6804F6EA
:101C40006C49FEF7C5FA0646384640F2CE61FEF70B
:101C500047FB404640F27951FEF742FB484640F2CE
:101C60002131FEF73DFBC4F8906F1EB1304603F002
:101C7000B1FD65680021CCF24841284604F090FB94
:101C80000021C4F2483104F08BFB0021C4F8940F0A
:101C9000CCF2C841284604F083FBC4F8980F012019
:101CA00084F89C0FC4F8A0AFBDE8F08710B590F899
:101CB0008C3F00F66C42044601F020FE2046FEF701
:101CC000F1FF204602F01CF8D4F8900F10B1214625
:101CD00003F086FD2046FFF779FF60680021CCF213
:101CE000484104F05DFB0021C4F2483104F058FB88
:101CF000B4F91010C4F8940F0029DCBF002084F858
:101D00009C0F10BD014690F82100022816D10868EA
:101D1000D1E90FC3026822F00E020260026822F0CD
:101D200001020260012000FA03F2CCF8042081F8DD
:101D300021000020002281F82020704704208863C1
:101D40000120002281F820207047000080B590F823
:101D50002110022924D10268116821F00E011160BE
:101D60002F211368C4F202018A4240F20401C4F236
:101D7000020123F00103136016DD3023C4F20203D5
:101D80009A421DD04423C4F202039A421CD0582325
:101D9000C4F202039A421DD14FF4803322E000BF07
:101DA00004218163012080BD0823C4F202039A420A
:101DB0000ED01C23C4F202039A420BD1102311E06F
:101DC0004FF480730EE000BF4FF480530AE000BF71
:101DD000012307E001F1680C4FF08073624508BFF2
:101DE0004FF480130B60012180F82110426B002119
:101DF00080F820100AB190470021084680BD0000FD
:101E000010B5D0E90FCE0168DCF800300A6823FA7B
:101E10000EF35C072AD512F0040427D00A68920654
:101E200003D40A6822F004020A602F22C4F20202DC
:101E3000914240F20402C4F202025BDD3023C4F29C
:101E40000203994272D04423C4F20203994273D030
:101E50005823C4F20203994240F07A804FF4802361
:101E60001360C16A002940F098806FE09C0727D575
:101E700012F0020424D00A68920606D40A6822F0FE
:101E80000A020A60012280F821202F22C4F20202F5
:101E9000914240F20402C4F202023BDD3023C4F25C
:101EA0000203994260D04423C4F2020399425FD0F6
:101EB0005823C4F20203994260D14FF4003365E025
:101EC0001B0743D512F0080208BF10BD0A6822F0B4
:101ED0000E020A60012101FA0EF2CCF8042081639F
:101EE00080F82110016B0022002980F8202054D1B5
:101EF0002CE000BF0823C4F20203994222D01C2325
:101F0000C4F20203994223D140231360C16A00291D
:101F100043D11BE00823C4F2020399422CD01C23B6
:101F2000C4F20203994229D120232FE04FF48063A9
:101F30001360C16A89BB09E04FF480431360C16A32
:101F400059BB03E004231360C16A31BB10BD00BF5D
:101F500002F168044FF08063A14208BF4FF4800390
:101F60001360C16AC9B9F1E74FF400730EE000BF16
:101F70004FF400530AE000BF022307E002F16804B7
:101F80004FF00073A14208BF4FF400131360816A41
:101F90000022002980F82020D8D0BDE81040084752
:101FA000014600284FF0010008BF70472DE9F043BB
:101FB000D1F800C04FF6F873CBF6FD734CF6CD4266
:101FC0006344CCF6CC42A3FB02236FF0030707EA7D
:101FD00093030027C4F2020701F10C09C1E90F7352
:101FE0000223D1E9012E99E87002D1F81C8081F812
:101FF0002130DCF8003043F6F077BB431A4342EA65
:102000000E0222432A43324342EA090242EA08020C
:10201000CCF8002000228A6381F8210081F820207A
:102020000020BDE8F0437047F0B590F820C0BCF147
:10203000010F32D04FF0010E80F820E090F821C05F
:10204000BCF1010F26D14FF0020C80F821C04FF0F7
:10205000000CC0F838C0D0E900C4C56AC66BDCF813
:102060000070102C27F00107CCF80070006C0EFAFD
:1020700000F070600846CCF8043004BF10460A46F1
:10208000CCF80800CCF80C20DCF8000045B140F09A
:102090000E000DE0002180F820100220F0BD00BFEE
:1020A00020F00400CCF80000DCF8000040F00A004A
:1020B000CCF80000DCF8000040F00100CCF8000093
:1020C0000020F0BD7047000040F21441C4F201014D
:1020D0000A68024214BF08607047FFF7F3BF0000B0
:1020E0002DE9F04F82B00E68002E00F0038141F21E
:1020F0000042C4F20102042340F2004E904208BFA5
:1021000003234FF6FF7CC4F2010E00930024012349
:10211000C1F2100C4FF0000A4FF0000949E000BF77
:10212000012704F00C030F229A402BEA020207FA5F
:1021300003F34FEA9A051A4346F82520D1F804B074
:1021400040F20C455FEACB22DEF8082054BF22EAB9
:10215000080242EA0802C4F20105CEF808202A6803
:102160005FEA8B2354BF22EA080242EA08022A608F
:102170005FEA8B33DEF8042054BF22EA080242EA09
:1021800008025FEACB33CEF80420DEF800204FF0DF
:10219000010354BF22EA080242EA0802CEF80020F6
:1021A0000E680AF1010A36FA0AF204F1040400F09A
:1021B000A18003FA0AF816EA080FF1D04E686645C6
:1021C00012DC122E56D8DFE806F0350B454955557E
:1021D00055555555555555555555554D510000BFFB
:1021E000D1F80C9046E000BF4FF6FF72C1F2210219
:1021F00096420FDC0022C1F2110296421AD0002250
:10220000C1F21202964215D00022C1F2210296427A
:1022100010D02FE00022C1F2220296420AD0002202
:10222000C1F23102964205D00022C1F2320296423A
:1022300020D100BF8A684AB1012A14BFC0F81480B7
:10224000C0F810804FF0080914E000BF4FF00409F7
:1022500010E000BFCA6802F108090BE04FF0000966
:1022600008E000BFCA6802F1040903E0CA6802F18D
:102270000C0900BF22460646BAF1080F24BF203AD7
:10228000043637680F25954027EA050509FA02F25A
:102290002A433260CA79D2067FF582AF41F2180331
:1022A000C4F202031A68AEF57E7642F001021A60AB
:1022B0001A6802F001020192019A2AF0030256F80C
:1022C00002B040F60002C4F20102904210D040F683
:1022D0000042C4F2010290423FF422AF41F20002F8
:1022E000C4F20102009F904208BF022719E700BF15
:1022F000002716E702B0BDE8F08F000080680840B4
:1023000018BF01207047000041F2F860C2F20000DF
:102310000068704740F2000041F2F861C2F200002C
:10232000C2F2000100780A6810440860704700009B
:1023300080B542F20000C4F20200016841F01001D1
:102340000160032000F08EF8002000F005F800F096
:1023500027F8002080BD000070B540F20006C2F2F0
:10236000000640F208013278C2F200014FF47A739D
:102370000968B3FBF2F20446B1FBF2F1084600F043
:1023800063FB0F2C4FF0010508D838B94FF0FF3030
:1023900021460022002500F039F87460284670BDFF
:1023A00082B041F21800C4F202000168042241F038
:1023B00001010160016801F0010101910199416889
:1023C00041F080514160406800F0805000900098DA
:1023D0000420C4F20100016862F31A61016002B0D6
:1023E00070470000002848BF7047C1B200F01F00CE
:1023F000012202FA00F04EF20012CEF2000242EA8E
:10240000D10121F0030108607047000010B54EF6BD
:102410000C5CCEF2000CDCF80030C3F3022E8EF020
:102420000704042C28BF0424BEF103034FF0FF3E31
:102430000EFA04F438BF0023A14399400EFA03F3C7
:102440009A43114300F00F0200F160430901043A7E
:1024500003F564436244002848BF02F10C0319707D
:1024600010BD00004EF60C51CEF200010A684FF686
:10247000FF031A4060F30A2242F0806040F0FD70D2
:10248000086070472DE9F04381B0002800F0858096
:1024900042F20008C4F202080446D8F800000D46D3
:1024A00000F0070088420CD2D8F8000020F00700A6
:1024B0002843C8F80000D8F8000000F00700A84240
:1024C0006BD1206841F204098107C4F2020917D5D3
:1024D000410705D5D9F8001041F4E061C9F80010B2
:1024E000010705D5D9F8001041F46051C9F8001072
:1024F000D9F80010A26821F0F0011143C9F80010CA
:10250000C00741D1D8F8000000F00700A8420CD95C
:10251000D8F8000020F007002843C8F80000D8F8D9
:10252000000000F00700A84237D12068410707D516
:10253000D9F80010E26821F4E0611143C9F80010F5
:10254000000708D5D9F80000216920F4605040EA5E
:10255000C100C9F80000D9F8002002F00C000828DA
:1025600041F20020C0F27A0050D146F64C63C2F32B
:102570008341C0F60003595CD2033BD440F60010FF
:10258000C0F23D00484341E0606802280AD00128BB
:102590002AD159F8041C890308D4012001B0BDE8F0
:1025A000F08300BF59F8041C8901F6D5D9F8001052
:1025B00021F003010843C9F80000FFF7A5FE064615
:1025C00041F28837D9F80000616800F00C00B0EBE8
:1025D000810F97D0FFF798FE801BB842F2D90320F5
:1025E00001B0BDE8F08300BF59F8041C8907D4D5B9
:1025F000DCE700BFD9F8002046F64A63C2F3404248
:10260000C0F600039A5C4843B0FBF2F0D9F8001022
:1026100046F63262C1F30311C0F60002515C40F28B
:10262000080220FA01F140F20400C2F20000006842
:10263000C2F200021160FFF78FFE002001B0BDE87A
:10264000F083000040F2080041F20401C2F20000F1
:10265000C4F202010068096846F64262C1F3022131
:10266000C0F60002515CC8407047000040F208000C
:1026700041F20401C2F20000C4F2020100680968DC
:1026800046F64262C1F3C221C0F60002515CC84066
:10269000704700002DE9F04182B0002868D0044660
:1026A000007841F20006C007C4F2020625D0706827
:1026B00000F00C0004281BD0706800F00C00082803
:1026C00002D17068C00313D46068002800F06881EC
:1026D000B0F5A02F00F07C81B0F5803F00F07C8148
:1026E000306820F480303060306820F4802076E15B
:1026F0003068800301D56068D0B32078800718D592
:10270000706810F00C0F07D0706800F00C000828FB
:102710006ED17068C0036BD43068800702D5206921
:10272000012825D13068616920F0F80040EAC10035
:102730003060207800071FD42078400732D4E56944
:1027400095B1706800F00C00082840F08F80012DD2
:102750000ED07068216A00F480328A4208D1616A22
:1027600000F47010884203D1002002B0BDE8F0816F
:10277000012002B0BDE8F081A069002862D00020ED
:10278000C4F242200121C0F88014FFF7BDFD0546C8
:10279000706A800700F18C80FFF7B6FD401B0228AD
:1027A000F6D92AE1F06910F0805808D1F06940F0BC
:1027B0008050F061F06900F080500090009847F27E
:1027C0000007C4F200073868C00529D4386840F40F
:1027D00080703860FFF798FD054600BF3868C00577
:1027E0001ED4FFF791FD401B6428F7D905E100BF17
:1027F0002069002840F20000C4F2422000F08280EC
:1028000001210160FFF780FD054600BF30688007A9
:102810003FF588AFFFF778FD401B0228F6D9ECE0C2
:10282000E068002800F08080052800F097800128EB
:1028300000F09880306A20F001003062306A20F0A9
:10284000040092E00020C4F242200021C0F880146D
:10285000FFF75AFD054600BF706A80077FF56CAF31
:10286000FFF752FD401B0228F6D9C6E00027C4F24C
:10287000422700203866FFF747FD022D05460BD1A1
:102880003068800140F1BE80FFF73EFD401B02280A
:102890004FF00300F4D968E7306880017FF564AF3A
:1028A000FFF732FD401B02284FF00300F4D95CE72C
:1028B00040F20800C2F20000006844F6D351C1F2B1
:1028C0006201A0FB0101480A019000BF00BF01980E
:1028D000411E002801913FF42FAF00BF0198411E17
:1028E000002801913FF428AF00BF0198411E002845
:1028F00001913FF421AF00BF0198411E00280191D2
:10290000E4D119E700210160FFF7FEFC054600BF96
:10291000306880077FF50DAFFFF7F6FC401B0228FB
:102920004FF00300F4D920E7306A20F00100306254
:10293000306A20F004003062FFF7E6FC054641F201
:10294000883700BF306A800720D5FFF7DDFC401BC9
:10295000B8424FF00300F5D907E700BF306A40F0F6
:1029600004003062306A40F001003062FFF7CCFCB6
:10297000054641F2883700BF306A800706D4FFF76A
:10298000C3FC401BB842F7D937E000BFB8F1000FD5
:102990007FF4D5AEF06920F08050F061CFE600BF43
:1029A000306820F480303060306820F4802030605F
:1029B000FFF7AAFC054600BF306880037FF59DAE97
:1029C000FFF7A2FC401B64284FF00300F4D9CCE6CB
:1029D000306840F480203060306840F480303060EF
:1029E000FFF792FC054600BF306880033FF585AED7
:1029F000FFF78AFC401B6428F6D9032002B0BDE82B
:102A0000F08100BF206AB0F5803F05D17168A268EF
:102A100021F40031114371607168626A21F474110C
:102A200011430843706001203866FFF76DFC0446CF
:102A3000306880013FF598AEFFF766FC001B022866
:102A40004FF00300F4D990E6411E0020B0EB116F67
:102A50001CBF012070474EF21002CEF200025160FE
:102A60004EF62351CEF20001F0230B700721906047
:102A70001160704770470000006844F20041C4F2E2
:102A80000001884218BF704740F2700040F2C00C4D
:102A9000C2F2000041F2F801C2F2000C002308303B
:102AA000C2F200014FF480628CF8003000F08EBB5F
:102AB000B0B582B0044600680168C368426901F09D
:102AC0002F05202D03F0200506D12DB1204602B0A0
:102AD000BDE8B04002F076BB5FEA017C1EBF02F0A9
:102AE000010E03F4907212EB0E0253D1226B012AF5
:102AF00005D111F0100218BF13F0100236D10A06EA
:102B000022D513F080021FD094F8411021293FD123
:102B1000A168B1F5805F03D12169002900F07082BE
:102B2000216A4A1C226209784160E18C01390A0459
:102B3000E1842DD1C16821F08001C160C16841F0FC
:102B40004001C16002B0B0BD490621D513F040017B
:102B50001ED0C16821F04001C1602021204684F8C8
:102B6000411002B0BDE8B04000F042BC002101912C
:102B7000016801914168019101994069400613D4AF
:102B8000A08DE18DE28D002A18BF884240F0BA8105
:102B900002B0B0BDCA0718BF13F4807240F0B6800F
:102BA0004A0700F1B980BEE0E06B016849688AB26B
:102BB000002AEDD0A38D9A42EAD2E18580692028CF
:102BC00000F09C80206850E8030F216820F480709A
:102BD00041E80302DAB1206850E8030F216820F4CD
:102BE000807041E8030292B1206850E8030F216829
:102BF00020F4807041E803024AB1206850E8030FD6
:102C0000216820F4807041E80302002ADAD12068AC
:102C100050E8050F216820F0010041E80502DAB113
:102C2000206850E8050F216820F0010041E8050206
:102C300092B1206850E8050F216820F0010041E8BA
:102C400005024AB1206850E8050F216820F0010014
:102C500041E80502002ADAD1206850E8050F216812
:102C600020F0400041E80502DAB1206850E8050F85
:102C7000216820F0400041E8050292B1206850E848
:102C8000050F216820F0400041E805024AB12068A4
:102C900050E8050F216820F0400041E80502002AB5
:102CA000DAD1202084F8420000202063206850E818
:102CB000030F216820F0100041E80302DAB1206818
:102CC00050E8030F216820F0100041E8030292B1A0
:102CD000206850E8030F216820F0100041E803024B
:102CE0004AB1206850E8030F216820F0100041E845
:102CF0000302002ADAD1E06BFFF704F802206063D8
:102D0000A08DE18D401A81B2204674E1626C42F0E0
:102D1000010262644A0706D5BEF1000F03D0626C5F
:102D200042F0020262648A0706D5BEF1000F03D0AA
:102D3000626C42F004026264BCF1000F09D545EAFE
:102D40000E02B2FA82F2520903D1626C42F008021A
:102D50006264626C002A3FF41BAF11F0200118BFBF
:102D6000002D03D0204602F02DFA20684069616CE6
:102D700000F0400001F00801401800F0B58000BFED
:102D8000206850E8030F216820F4907041E80302A6
:102D9000BAB3206850E8030F216820F4907041E82E
:102DA000030272B3206850E8030F216820F490708A
:102DB00041E803022AB3206850E8030F216820F499
:102DC000907041E80302002ADAD11AE0206850E846
:102DD000050F216820F0010041E80502DAB1206802
:102DE00050E8050F216820F0010041E8050292B18A
:102DF000206850E8050F216820F0010041E8050235
:102E00004AB1206850E8050F216820F0010041E830
:102E10000502002ADAD1206B012824D1206850E86D
:102E2000030F216820F0100041E80302DAB12068A6
:102E300050E8030F216820F0100041E8030292B12E
:102E4000206850E8030F216820F0100041E80302D9
:102E50004AB1206850E8030F216820F0100041E8D3
:102E60000302002ADAD1202084F8420000202063E7
:102E70002068406940063FD5206850E8050F21686A
:102E800020F0400041E80502DAB1206850E8050F63
:102E9000216820F0400041E8050292B1206850E826
:102EA000050F216820F0400041E805024AB1206882
:102EB00050E8050F216820F0400041E80502002A93
:102EC000DAD1E06BC0B144F60D61C0F60001416398
:102ED000FEF73CFF00283FF45BAEE06B416B02B0B5
:102EE000BDE8B040084700BF2046FFF7C5FD002001
:102EF000606402B0B0BD00BF204602B0BDE8B04083
:102F0000FFF7BABD401A216851E8031F226821F477
:102F1000907142E80313DBB1216851E8031F226876
:102F200021F4907142E8031393B1216851E8031F23
:102F3000226821F4907142E803134BB1216851E8F3
:102F4000031F226821F4907142E80313002BDAD1A9
:102F5000216851E8051F226821F0010142E80513AC
:102F6000DBB1216851E8051F226821F0010142E828
:102F7000051393B1216851E8051F226821F0010172
:102F800042E805134BB1216851E8051F226821F082
:102F9000010142E80513002BDAD1202184F8421008
:102FA00000212163216851E8031F226821F01001EC
:102FB00042E80313DBB1216851E8031F226821F0C6
:102FC000100142E8031393B1216851E8031F2268FE
:102FD00021F0100142E803134BB1216851E8031FAF
:102FE000226821F0100142E80313002BDAD10222FB
:102FF00081B22046626302B0BDE8B040FFF73ABD3F
:10300000216A31F8022B6FF35F22426021628CE566
:10301000002804BF0120704710B5044690F8410015
:1030200028B9002084F84000204600F063F82420EE
:1030300084F841002068D4E90212C36823F40053E5
:10304000C360036923F440531A430261D4E90423A3
:103050001143C268194341F20C639A431143C160A2
:103060004169A26921F44071114343F60002C4F2A0
:1030700001029042416103D0FFF7E4FA02E000BF91
:10308000FFF7F4FA6268192148439100B0FBF1F0B0
:1030900048F21F51C5F2EB11A0FB01235A094FF66C
:1030A0009C73C0F6FF7302FB0300322303EB001096
:1030B000A0FB0101F02303EA5113206803EB021285
:1030C000C1F3431111448160016921F49041016110
:1030D000416921F02A014161C16841F40051C16098
:1030E00000202021606484F8411084F8421060635D
:1030F00010BD00002DE9F04186B0044644F20040C6
:103100002168C4F2000000268142049602D006B075
:10311000BDE8F08141F21801C4F202014A6840F2B0
:103120006C0842F400324A604A6800F5444002F4F8
:1031300000320192019A0A68C4F2020842F00402C5
:103140000A60096801F00401019101990C210291C2
:1031500002210391059102A9FEF7C2FF41F2700519
:10316000C2F2000580272846C5E90086C5E9026746
:10317000C5E90466C5E90666FEF712FF002818BF18
:10318000FEF718FDE5636C6241F2B40508F1140026
:10319000C2F200051021002285E887002846C5E913
:1031A0000422C5E90622FEF7FBFE002818BFFEF741
:1031B00001FD262000210022A5636C62FFF726F99D
:1031C0002620FFF70FF906B0BDE8F08170B582B098
:1031D000044690F8420020280AD113460A460029E6
:1031E0004FF0010018BF002B06D102B070BD00BF28
:1031F000022002B070BD00BF002522202563A2621C
:10320000A385656484F842002168E06B44F6957CF0
:1032100045F2F50E44F61966C0F6000CC0F6000E35
:10322000C0F600060431C0E90ACEC0E90C65FEF71D
:10323000FBFE0195206801680191406801900198AA
:10324000206928B3206850E8030F216840F480709B
:1032500041E80302E2B1206850E8030F216840F41E
:10326000807041E803029AB1206850E8030F21689A
:1032700040F4807041E8030252B1206850E8030F27
:10328000216840F4807041E80302002ADAD100BFCF
:10329000206850E8050F216840F0010041E8050270
:1032A000E2B1206850E8050F216840F0010041E8D4
:1032B00005029AB1206850E8050F216840F001002E
:1032C00041E8050252B1206850E8050F216840F03E
:1032D000010041E80502002ADAD100BF206850E869
:1032E000050F216840F0400041E80502DAB120688E
:1032F00050E8050F216840F0400041E8050292B116
:10330000206850E8050F216840F0400041E80502C0
:103310004AB1206850E8050F216840F0400041E8BC
:103320000502002ADAD1002002B070BD704700000B
:103330007047000070B5044690F8410020281CBF7B
:10334000022070BD00294FF001004DD0002A134625
:1033500008BF70BD4FF0000C21202162A384E384DC
:10336000C4F844C084F841002268A06B45F20D1EE9
:1033700045F2BD1544F61966C0F6000EC0F600050C
:10338000C0F600060432C0E90AE5C0E90C6CFEF79D
:103390004BFE20686FF04001016000BF206850E8DC
:1033A000050F216840F0800041E80502F2B1206875
:1033B00050E8050F216840F0800041E80502AAB1FD
:1033C000206850E8050F216840F0800041E80502C0
:1033D00062B1206850E8050F216840F0800041E8A4
:1033E0000502002ADAD1002070BD00BF002070BDA8
:1033F000006844F20041C4F20001884218BF7047DF
:1034000040F2C000C2F200000021017070470000CD
:1034100070470000FEE700007047000049B1022934
:1034200006D0012912BF002001300078704700BF8C
:10343000023000787047000002290BD0012911D01A
:10344000C1B90178B1B103300078B0FA80F0400919
:10345000704700BF817869B105300078B0FA80F01C
:1034600040097047417829B104300078B0FA80F003
:103470004009704700207047B0B504460078B4F8A2
:10348000011040F60005C4F20105E070A180284655
:103490000221FEF733FFB0FA80F040092070284681
:1034A0001021FEF72BFFB0FA80F04009607005F59F
:1034B00080600121FEF722FFB0FA80F04009A07081
:1034C000B0BD0000FEE70000FEE700002DE9F0437C
:1034D00081B090F88C5F7DB304468846002600F6E4
:1034E0006C4908E0013D013E84F88C5F0136F0B282
:1034F000E9B2884220D2F7B204EB0710D0F8700C82
:10350000414602F0D1FF0028F0D1E8B20138B842BC
:10351000E8D9030159F803303A0109EB001049F8E2
:103520000230D0E90123C06809EB0711C1E901238A
:10353000C86094F88C5FD5E701B0BDE8F083000067
:10354000704700002DE9F04F81B0044690F8EC067A
:10355000002845D000264FF0340A05E0013694F8E3
:10356000EC06F1B281423BD25FFA86F808FB0A47CB
:1035700097F847000028F1D097F846000028EDD0D2
:1035800007F12002D4E90009D2E9001B03F056FB41
:1035900005464846594603F051FB014603F044F9FD
:1035A00081462846294603F03FF9494602F0F8FED5
:1035B00002F0E0FEE269396C0546104602F0F0FECA
:1035C0000146284602F069FF0028C7D1208A4146FB
:1035D0001E3820822046FDF7A9FA013EBEE700BF53
:1035E00094F8ED06002847D0002605E0013694F84F
:1035F000ED06F1B281423FD25FFA86F808EB48004F
:1036000004EB401797F855030028EFD097F85403C0
:103610000028EBD007F54B72D4E90009D2E9001A73
:1036200003F00CFB05464846514603F007FB0146F4
:1036300003F0FAF881462846294603F0F5F8494692
:1036400002F0AEFE02F096FEE269D7F84C13054692
:10365000104602F0A5FE0146284602F01EFF002893
:10366000C4D1208A4146A0F57A7020822046FDF719
:1036700043FA013EBAE700BF01B0BDE8F08F000099
:103680002DE9F04F83B09346D0E90074D0E902628F
:1036900080468A462046114603F0D0FA0021C8F839
:1036A0000400C4F23421304602F018FF0021C4F2B5
:1036B000400103F0B9F80146384602F071FE48F2C5
:1036C0000001C4F28941064602F0E0FE0025C4F282
:1036D000C82500281CBF48F20006C4F289463046BF
:1036E000294602F0D3FE002808BF2E46BBF1000F8A
:1036F000C8F800604ED0CDE901740AF108044FF01B
:10370000010900260BE000BF01365E454FF00009BD
:1037100038BF4FF00109B34504F1100427D0607998
:103720000028F1D0D8E9000A54E9021503F086FA1E
:1037300007465046294603F081FA014603F074F823
:1037400005463846394603F06FF8294602F028FE50
:1037500002F010FED8F81C2021680546104602F041
:103760001FFE0146284602F0A6FE0028CCD05FEAE4
:10377000C970DDE901200DD0B8F81010C8F800209C
:103780000239A8F810100021C4F2701102F008FEEE
:10379000C8F8040003B0BDE8F08F0000F0B581B0B8
:1037A0000E46044608460021FFF738FE0025CCF2FD
:1037B000342578B1A7680021CCF23421384602F0D4
:1037C00073FE38B90021CBF68071384602F0E8FD6F
:1037D00006462EE030460121FFF720FEA66868B1BC
:1037E0000021C4F23421304602F057FE30B9304691
:1037F0004FF07E5102F0D4FD06461AE026F000405C
:103800004FF07F5102F057FE10B1002611E000BFCB
:103810003046002102F048FE002819BF30464FF024
:103820007F510021CBF6C07108BF304602F0B8FDD1
:1038300006460021C4F23421304602F027FE00285B
:103840001CBF0026C4F234263046294602F01EFE74
:10385000002808BF2E46A66001B0F0BDF0B581B0CB
:103860000446808A10B101B0F0BD00BFA6680027F1
:103870001E20C4F2A007A0823046394602F006FEA0
:1038800040B146F2AA10CBF69C7094F8681C31291E
:10389000E9D813E00021CCF2A001304602F0FDFD92
:1038A000002807BF4BF60C60CBF6F57040F6DB70D6
:1038B000CBF6C97094F8681C3129D4D8C1EBC10289
:1038C00004EB8202C2F8F8064FF48770D4E90036A0
:1038D000A2F8000740F201104FF08145A2F8080756
:1038E000481CC2F8F036C2F8F466C2F8FC56C2F8BA
:1038F000047784F8680C01B0F0BD000070B51D4677
:1039000016460446FFF74AFF204631462A46FFF78F
:10391000B7FEA08A00281CBF0138A08270BD00003D
:103920002DE9F04F85B090F8686C002E00F0BC8156
:10393000824600F67940002401900DE05046394659
:1039400000F0B6F99AF8686C013C00BF0134E0B2AF
:10395000F1B2884280F0A881E1B2C1EBC1000AEB6C
:10396000800797F809070028F0D097F8080707F5AF
:10397000DE6B0028049743D09AF8EC06002800F08C
:10398000898007F204794FF000080027CDE902147E
:1039900005E000BF0137874208F134085ED20AEB28
:1039A000080494F847100029F4D094F84610002930
:1039B000F0D0216ADBE9000503F040F9616A0646B0
:1039C000284603F03BF9014602F02EFF054630463B
:1039D000314602F029FF294602F0E2FC02F0CAFC5F
:1039E000D9F80020216C0546104602F0D9FC0146AA
:1039F000284602F060FD98BB9AF8EC06CAE700BFC3
:103A0000DBE90005DAE9001603F018F90746284655
:103A1000314603F013F9014602F006FF0546384629
:103A20003946049F02F000FF294602F0B9FC02F07B
:103A3000A1FCD7F80427DAF81C100546104602F05E
:103A4000AFFC0146284602F028FD002840F089809E
:103A5000BAF810001438AAF810007DE0039C18E0B2
:103A600094F83800013841B2002984F838000ADCA3
:103A7000B4F84400DAF818100844CAF81800F9B28B
:103A80005046FDF753F80299504600F011F9039C97
:103A9000013C049F9AF8686CE0B2B042BFF456AFA4
:103AA0009AF8ED0600285CD0039407F2047800240D
:103AB000002707E09AF8ED060137874204F1600419
:103AC00080F0A0800AEB040595F855130029F3D087
:103AD00095F854130029EFD0D5F82C13DBE9000931
:103AE00003F0ACF8D5F830130646484603F0A6F8C4
:103AF000014602F099FE81463046314602F094FEBE
:103B0000494602F04DFC02F035FCD8F80020D5F80B
:103B10004C130646104602F043FC0146304602F0C4
:103B2000CAFC0028C6D095F84403013841B285F894
:103B3000440300294FF01400A5F852030ADCB5F83D
:103B40005003DAF818100844CAF81800F9B25046C1
:103B5000FCF7D2FFDDE90347E1B2504600F0A8F8D8
:103B6000013C9AF8680CE1B2814253D29AF88C0F6A
:103B700000284FD0DDF80490CDE9021407F2047458
:103B8000002707E09AF88C0F0137874209F11009E6
:103B900080F0828099F800100029F5D0DBE900055B
:103BA00059F80D1C59F8096C03F048F8804628466E
:103BB000314603F043F8014602F036FE0546404622
:103BC000414602F031FE294602F0EAFB02F0D2FB48
:103BD000226859F8051C0546104602F0E1FB014633
:103BE000284602F068FC0028CCD00299504600F02C
:103BF0005FF8039C013C9AF8686CE7B2B742BFF4E7
:103C0000A5AE0DE0DDE903479AF8680CE1B2814208
:103C1000ACD300BF9AF8686CE7B2B742BFF496AE77
:103C20000498B0F8000700283FF488AEDBF8005095
:103C30000021284602F03FFC00287FF47FAE0021DF
:103C40002846C4F2964102F021FC00287FF476AEAB
:103C5000DAF8945F0021DBF804802846CCF2483182
:103C600002F09EFB0146404602F025FC00287FF44E
:103C700065AE00212846C4F2484102F091FB0021C4
:103C8000C4F2483102F08CFB0146404602F00CFCC5
:103C900000283FF453AE59E6039C9AF8686CE7B2EB
:103CA000B742BFF453AEBBE705B0BDE8F08F0000EC
:103CB0002DE9F04390F8682C531E8B421BDD00F574
:103CC000DE62C3EBC30E02EB8E03C1EBC10CD3E982
:103CD0000189D3E9036752F82E405D6902EB8C013C
:103CE00042F82C404D61C1E90367C1E901899A6935
:103CF0008A6190F8682C511E80F8681CBDE8F0833A
:103D00002DE9F041804690F8680C002808BFBDE816
:103D1000F08108F5DE67002405E000BF013484422D
:103D200007F11C0720D2797E0029F7D0B86802F08D
:103D300069F9D7E902613D6802F076FD294602F093
:103D40002FFB3860304602F051FAF9687D6802F0C6
:103D50006BFD294602F024FB398A786098F8680CDC
:103D600001393982DAE700BFBDE8F08110B540F2D1
:103D7000C00CC2F2000CDCF80410C96B09684A6878
:103D8000BCF802E0BCF80200C2F580618BB20C1AEC
:103D90001044734538BFC0F50064A0B240F29A32B7
:103DA000904228BFACF8021010BD000040F2C003E2
:103DB00041F2F801C2F20003C2F200014FF4806246
:103DC0005860FFF703BA00002DE9F04F93B040F2BE
:103DD000C007C2F200077968059049B1C86B006856
:103DE0004068C0F5806178888DB2A8420A9103D1FD
:103DF00013B0BDE8F08F00BF0BA841F2F80800F146
:103E0000010BC2F200084FF6FC764FF000094FF0AC
:103E1000070A089505E000BFA7F802907888A84235
:103E2000E6D0788818F800007C88AA2836D17888EF
:103E30000A998542A1EB000138BF01F5806131424A
:103E4000D6D0013081B2B9EB912F18BF002080B2DB
:103E500018F80000A0F1020C5FFA8CF2052A25D2B6
:103E600046F62861C0F6000131F812E00022A542B2
:103E700038BF0122C4EB82222A4493B27345C0F0BA
:103E80002F83AEF10102032A099421D20022254694
:103E90001EF003030BA956D172E000BF601C7880AE
:103EA0007888B0F5806FB9D3B6E700BF0021002253
:103EB00000230FF24864CDE90099029400F070FBF2
:103EC0007888013078807888B0F5806FA4D2A5E733
:103ED0002EF0030253426FF003022546AEB218F8EB
:103EE00006100BEB0206F170691C8DB2B9EB952F31
:103EF00018BF00218DB201318CB218F80550B9EB12
:103F0000942F18BF00218CB218F80440013135718C
:103F10008DB27471B9EB952F18BF00218DB218F8CE
:103F200005404D1CA9B20432B9EB912F03EB0201FD
:103F300018BF00250431B471D0D1099C04321EF0A1
:103F400003030BA91CD0AEB218F80660012B8E54E7
:103F500016D06E1CB5B2B9EB952F18BF0026B5B2BE
:103F600018F805500A44022B557009D0731C9EB2F4
:103F7000B9EB962F18BF00239BB218F8033093704B
:103F80000EEB010313F8012C552A11D1AEF10302F7
:103F9000069292B2012A079322D1089D00230022A3
:103FA0004FF6FC76069911F0010140F09A80CBE0C3
:103FB0005FFA8EF1002200230FF25456CDE90099EA
:103FC000029600F0EDFA78884FF6FC7601307880A2
:103FD0007888089DB9EB902F7FF41EAF1EE700BFD5
:103FE00022F00102CDF810E0534200226FF00106EA
:103FF0008E4600BF0EEB0604E178257951404AB2A7
:104000004C00002A48BF8AEA410461B262000029DC
:1040100048BF8AEA440251B25400002948BF8AEAE4
:10402000420461B26200002948BF8AEA440251B2E8
:104030005400002948BF8AEA420461B262000029A4
:1040400048BF8AEA440251B25400002948BF8AEAB4
:10405000420461B26200002948BF8AEA440285EA4C
:1040600002014AB24C00002A48BF8AEA410461B208
:104070006200002948BF8AEA440251B25400002974
:1040800048BF8AEA420461B26200002948BF8AEA56
:10409000440251B25400002948BF8AEA420461B286
:1040A0006200002948BF8AEA440251B25400002944
:1040B00048BF8AEA420461B202366200002903EB7B
:1040C000060148BF8AEA4402023193D1089DDDF817
:1040D00010E0099CB31C4FF6FC76069911F0010123
:1040E00032D01BF8031051404AB24B00002A48BF9F
:1040F0008AEA410359B25A00002948BF8AEA4302BA
:1041000051B25300002948BF8AEA420359B25A000B
:10411000002948BF8AEA430251B25300002948BF30
:104120008AEA420359B25A00002948BF8AEA430288
:1041300051B25300002948BF8AEA420359B25A00DB
:10414000002948BF8AEA43020799D2B211F8023C1B
:104150009A4249D1BCF1040F00F26D81DFE80CF006
:1041600004B058DA900000BF94469DF82E20DDF888
:104170002F10DDF83300012A00F0F880002A40F00B
:104180003781059A92F8EC260E2A00F23181059EBD
:10419000342302FB03630FF2E434C3E908105863CD
:1041A00040F201109863962098870020C4F2A01076
:1041B00018646420C0F2001058640220012183F8C2
:1041C0004800501CC3F84C90A3F8509083F852104C
:1041D00086F8EC064FF6FC766346CDE900C15FFA3F
:1041E0008EF1C2B202200EE1CDE900295FFA8EF114
:1041F0000022CAA4029400F0D3F9788801307880B4
:104200007888B9EB902F18BFA7F8029006E600BF98
:10421000059CDDF82E5094F8EC062946069094F89B
:10422000ED06079203902046CDF810E0FCF7A8F9C0
:10423000204629462E46FFF749F9D4F8900F18B1C9
:10424000314601F065F8059C94F8EC0694F8ED16FB
:10425000069A039B08441A44049C101A079B0121E8
:104260000191C2B2E1B20420B2A60093029600F01E
:1042700097F9A646089D099C4FF6FC76DBE000BF47
:104280000598D0F8900F002866D01446DDF82E105F
:10429000DDF83220CDF810E001F01CF8002800F025
:1042A000B98005982346D0F8900F90F8902001200F
:1042B000019004980094C1B20620A1A4B5E000BF0B
:1042C000059991F88C0F31283ED81346DDF833203C
:1042D000DDF837C0DDF82F409DF82E6001EB0015AA
:1042E000C5F8702C0122C5F86C4CC5F874CC85F863
:1042F000786C85F8792C089D01304FF6FC7681F8B2
:104300008C0FCDE900325FFA8EF1C2B2032094A483
:1043100079E000BF059CCDF810E020460792FDF73C
:104320005FFC2046FDF76AFC012001900498079B82
:104330007EA4C1B2052000220294099C009300F0E3
:104340002FF9DDF810E076E0CDE900295FFA8EF173
:104350000320134652E000BFCDE900295FFA8EF139
:104360000620134600227AA44DE000BF059A92F879
:10437000ED26092A3CD8059E02EB420306EB4313C7
:10438000C3E9CB10C3F8400340F20330C3F8440341
:10439000F020A3F848030020C4F2F010C3F84C0347
:1043A0004FF49670C3F850034FF48070A3F8540391
:1043B000022083F85E0383F85603501C0121C3F8E2
:1043C0005893A3F85C93A3F86093C3F86493A3F89D
:1043D000889386F8ED064FF6FC766346CDF800C06C
:1043E00001915FFA8EF1C2B2022060A40BE000BF1F
:1043F00063465FFA8EF10220CDE900C946F65C649F
:104400000022C0F600040294744600F0C9F8A646E3
:1044100010E000BF0498CDE90049234646F65C64ED
:10442000C1B206200022C0F60004029400F0B8F8E1
:10443000DDF810E0099C0120BEF1010F98BF86460F
:10444000AEF1010080B203287C802BD30EEA060077
:10445000002100BF7A88043101327A807A88B2F56F
:10446000806F28BFA7F802907A8801327A807A8814
:10447000B2F5806F28BFA7F802907A8801327A805F
:104480007A88B2F5806F28BFA7F802907A88013247
:104490007A807A88B2F5806F8AB228BFA7F8029036
:1044A0008242D7D11EF003003FF4B8AC79880131C5
:1044B00079807988B1F5806F28BFA7F8029001282C
:1044C0003FF4ACAC7988013179807988B1F5806F9F
:1044D00028BFA7F8029002283FF4A0ACF0E400BF88
:1044E00000212AA7CDE900115FFA8EF1D2B2002394
:1044F000029700F055F813B0BDE8F08F556E6B6E63
:104500006F776E207061636B6574207479706500DD
:104510004E6F20454E44206279746500435243201B
:104520006D69736D6174636800000000496E6974A1
:10453000204F4B00436C65616E7570204F4B00003F
:10454000576869726C706F6F6C204F4B00000000F1
:104550004D616E61676572204E554C4C0000000045
:104560004F62737461636C65204F4B00456E656DDF
:10457000792068617264204F4B000000456E656DC4
:10458000792073696D706C65204F4B0057616974B9
:10459000696E6720666F72206461746100000000BC
:1045A0002DE9F04140F2C008C2F2000898F800601E
:1045B000002E40F01B818646D8F80400002808BF72
:1045C000BDE8F081089C8C46DDE9066541F2F841C2
:1045D000C2F2000140F2AA77002C0F8081F802E0BD
:1045E00081F803C00A714B718E71CD7148D0227869
:1045F0000A7262784A72A2788A72E278CA72227962
:104600000A7362794A73A2798A73E279CA73227A49
:104610000A74627A4A74A27A8A74E27ACA74227B31
:104620000A75627B4A75A27B8A75E27BCA75227C19
:104630000A76627C4A76A27C8A76E27CCA76227D01
:104640000A77627D4A77A27D8A77E27DCA77227EE9
:1046500081F82020627E81F82120A27E81F822202C
:10466000E27E81F82320227F81F82420627F81F876
:104670002520A27F81F82620E27F81F8272008E00C
:104680000022C1E90222C1E90422C1E90622C1E9EE
:1046900008220022072300268F187C78BD78664008
:1046A00097F803C074B27700002C48BF83EA46072E
:1046B0007EB27C00002E48BF83EA470467B26600E2
:1046C000002F48BF83EA440677B27400002F48BF2A
:1046D00083EA460467B26600002F48BF83EA4406B7
:1046E00077B27400002F48BF83EA460467B26600C1
:1046F000002F48BF83EA440677B27400002F48BFFA
:1047000083EA460485EA04077EB27D00002E48BF96
:1047100083EA47056FB26E00002F48BF83EA450663
:1047200077B27500002F48BF83EA46056FB26E006E
:10473000002F48BF83EA450677B27500002F48BFB7
:1047400083EA46056FB26E00002F48BF83EA450634
:1047500077B27500002F48BF83EA46056FB26E003E
:10476000002F48BF83EA45068CEA06077EB27D002B
:10477000002E48BF83EA47056FB26E00002F48BF86
:1047800083EA450677B27500002F48BF83EA4605E5
:104790006FB26E00002F48BF83EA450677B27500FE
:1047A000002F48BF83EA46056FB26E00002F48BF56
:1047B00083EA450677B27500002F48BF83EA4605B5
:1047C0006FB26E00002F02F1030248BF83EA450674
:1047D000272A7FF461AF552281F829202A2281F807
:1047E0002860FEF7A7FD012088F80000BDE8F081F1
:1047F0002DE9F04F81B040F2C002C2F20002117800
:10480000002940F0FA8286465068002800F0F582C0
:1048100041F2F841C2F200014FF4D5720A809EF8CD
:1048200000209EF810308A709EF801204FF0000C96
:10483000CA709EF802200A719EF803204A719EF801
:1048400004208A719EF80520CA719EF806200A721B
:104850009EF807204A729EF808208A729EF8092066
:10486000CA729EF80A200A739EF80B208B734A7353
:104870009EF811209EF81830CA739EF819200B7408
:104880009EF814304A749EF8EC268B749EF815300E
:10489000002ACB7458D00EF124074FF015080126DA
:1048A0004FF0000997F82350002D44D097F822507C
:1048B000002D40D01FFA88F501F805C008F101026B
:1048C00017F8045C92B28D5408F1020417F8032C17
:1048D000A4B20A5508F1030517F8022CADB24A55E7
:1048E00008F1040417F8012CA4B20A5508F10505D3
:1048F0003A78ADB24A5508F106047A78A4B20A555E
:1049000008F10705BA78ADB24A5508F10804FA78FB
:10491000A4B20A5508F109053A7DADB24A5508F12D
:104920000A0497F82420A4B20A559EF8EC2608F150
:104930000B0809F1010996420AD23437B9F1060F82
:1049400006F10106AED303E04FF015084FF0000961
:104950009EF8ED26002A5FD0B9F1050F5CD80EF164
:1049600048050EF54B764FF0010C012796F82940CB
:10497000002C48D096F82840002C44D01FFA88F428
:1049800001F804C008F10102347892B28C5408F1A5
:10499000020A72781FFA8AF40A5508F1030BB278FA
:1049A0001FFA8BF40A5508F1040AF2781FFA8AF408
:1049B0000A5508F1050B32791FFA8BF40A5508F1F4
:1049C000060A72791FFA8AF40A5508F1070BB279C0
:1049D0001FFA8BF40A5508F1080AF2791FFA8AF4D3
:1049E0000A5508F1090B327E1FFA8BF40A5508F1BB
:1049F0000A0A2A781FFA8AF40A559EF8ED2608F169
:104A00000B0809F10109974206D234356036B9F135
:104A1000060F07F10107A9D39EF8682C08F10104DD
:104A200081F81490C2B30EF5DE664FF0000C01253C
:104A3000777E47B33278A3B2CA54671C7278BFB28C
:104A4000CA55A31CB2789BB2CA54E71CF278BFB215
:104A5000CA55231D32799BB2CA54671D7279BFB201
:104A6000CA55A31DB2799BB2CA54E71DF279BFB2F1
:104A7000CA5504F10803327E9BB2CA549EF8682CD2
:104A800009340CF1010C954208D20135BCF1140F28
:104A900006F11C06CCD301E04FF0000C1FFA88F29F
:104AA00001F802C0DEF8902F04F10108002A00F09E
:104AB000A18092F89050032D28BF0325002D00F00F
:104AC0009980DEF8902F1FFA88F31778A61CCF5430
:104AD0005378B6B28B55E71C9378BFB2CB55261DE1
:104AE000D378B6B28B55671D1379BFB2CB55A61DCF
:104AF0005379B6B28B55E71D9379BFB2CB5504F10C
:104B00000806D379B6B28B5504F10907127C04F17B
:104B10000A08BFB2012DCA556DD0DEF8902F1FFADA
:104B200088F3177E04F10B06CF54537EB6B28B5533
:104B300004F10C07937EBFB2CB5504F10D06D37E72
:104B4000B6B28B5504F10E07137FBFB2CB5504F1FB
:104B50000F06537FB6B28B5504F11007937FBFB297
:104B6000CB5504F11106D37FB6B28B5504F1120771
:104B700092F8282004F11308BFB2022DCA553AD08A
:104B8000DEF8902F1FFA88F392F8307004F11406C3
:104B9000CF5492F83130B6B28B5504F1150792F824
:104BA0003230BFB2CB5504F1160692F83330B6B2AC
:104BB0008B5504F1170792F83430BFB2CB5504F18E
:104BC000180692F83530B6B28B5504F1190792F8F1
:104BD0003630BFB2CB5504F11A0692F83730B6B270
:104BE0008B5504F11B0792F8402004F11C08BFB25A
:104BF000CA5500E00025A2B28D549EF8942F1FFAEA
:104C000088F68A5508F101079EF8952FBFB2CA555C
:104C100008F102069EF8962FB6B28A5508F10307EE
:104C20009EF8972FBFB2CA5508F104069EF8A02F30
:104C3000B6B28A5508F105079EF8A12FBFB2CA5532
:104C400008F106069EF8A22FB6B208F107078A55AA
:104C50009EF8A36F08F10805BAB21FFA85FE8E54BC
:104C600052B1012A02F0010C08D100220025BCF14A
:104C7000000F79D1ADE000BF0025AAE022F00102CB
:104C8000C2F1000900256FF0010607248A19D378C4
:104C900012796B405DB25F00002D48BF84EA430784
:104CA0007BB27D00002B48BF84EA47056BB26F00E2
:104CB000002B48BF84EA45077BB27D00002B48BF2C
:104CC00084EA47056BB26F00002B48BF84EA4507B2
:104CD0007BB27D00002B48BF84EA47056BB26F00B2
:104CE000002B48BF84EA45077BB27D00002B48BFFC
:104CF00084EA47056A4053B25500002B48BF84EA56
:104D000042056AB26B00002A48BF84EA45035AB2E2
:104D10005D00002A48BF84EA43056AB26B00002A9E
:104D200048BF84EA45035AB25D00002A48BF84EABE
:104D300043056AB26B00002A48BF84EA45035AB2B1
:104D40005F00002A48BF84EA43077AB202367D003A
:104D5000002A09EB060248BF84EA4705023295D1D2
:104D6000B21CBCF1000F34D00A44527882EA050329
:104D70005FB25E000722002F48BF82EA430673B28B
:104D80007700002B48BF82EA46077BB27E00002BEB
:104D900048BF82EA470673B27700002B48BF82EA19
:104DA00046077BB27E00002B48BF82EA470673B2FB
:104DB0007700002B48BF82EA46077BB27E00002BBB
:104DC00048BF82EA470673B27500002B48BF82EAEB
:104DD000460508F1090208F10A0392B255278F54DB
:104DE0009AB201F80E50FEF7A5FA40F2C001002871
:104DF000C2F2000104BF0120087001B0BDE8F08FCD
:104E000070470000FDF786BA70470000406A002135
:104E1000C185C184FDF730BE406A01684A6990F8D7
:104E20004130212B2DD112F080022AD00021C184E3
:104E3000016851E8031F026821F0C00142E8031332
:104E4000DBB1016851E8031F026821F0C00142E8AC
:104E5000031393B1016851E8031F026821F0C001F8
:104E600042E803134BB1016851E8031F026821F0C7
:104E7000C00142E80313002BDAD1202180F8411051
:104E80000168496990F84220222A40F07D8011F0A3
:104E9000400179D00021C185016851E8031F0268F3
:104EA00021F4907142E80313BBB3016851E8031F7A
:104EB000026821F4907142E8031373B3016851E86A
:104EC000031F026821F4907142E803132BB30168B9
:104ED00051E8031F026821F4907142E80313002B8C
:104EE000DAD11AE0016851E8051F026821F00101DA
:104EF00042E80513DBB1016851E8051F026821F0A3
:104F0000010142E8051393B1016851E8051F0268E9
:104F100021F0010142E805134BB1016851E8051F7A
:104F2000026821F0010142E80513002BDAD1016B80
:104F3000012924D1016851E8031F026821F0100102
:104F400042E80313DBB1016851E8031F026821F056
:104F5000100142E8031393B1016851E8031F02688E
:104F600021F0100142E803134BB1016851E8031F1F
:104F7000026821F0100142E80313002BDAD120214E
:104F800080F8421000210163416C41F0100141643E
:104F9000FDF772BD0168406A0968890600F19F80CB
:104FA0000021C185016851E8031F026821F4807166
:104FB00042E80313E3B1016851E8031F026821F4DA
:104FC000807142E803139BB1016851E8031F026836
:104FD00021F4807142E8031353B1016851E8031FC3
:104FE000026821F4807142E80313002BDAD100BF7C
:104FF000016851E8051F026821F0010142E805132C
:10500000BBB3016851E8051F026821F0010142E8C5
:10501000051373B3016851E8051F026821F001010F
:1050200042E805132BB3016851E8051F026821F01F
:10503000010142E80513002BDAD11AE0016851E8BA
:10504000051F026821F0400142E80513DBB1016849
:1050500051E8051F026821F0400142E8051393B1B1
:10506000016851E8051F026821F0400142E805137C
:105070004BB1016851E8051F026821F0400142E888
:105080000513002BDAD1202180F84210016B012991
:1050900025D100BF016851E8031F026821F010010B
:1050A00042E80313DBB1016851E8031F026821F0F5
:1050B000100142E8031393B1016851E8031F02682D
:1050C00021F0100142E803134BB1016851E8031FBE
:1050D000026821F0100142E80313002BDAD100210D
:1050E0004163016B012918BFFEF720B9818DFDF7DF
:1050F000C1BC0000406A01214163016B012918BF56
:10510000FEF716B9818D4908FDF7B4BC0168406A05
:105110000968890648BFFEF76BB90021C18400BF4A
:10512000016851E8051F026821F0800142E805137B
:1051300083B3016851E8051F026821F0800142E84D
:1051400005133BB3016851E8051F026821F0800197
:1051500042E80513F3B1016851E8051F026821F028
:10516000800142E80513002BDAD113E0016851E811
:10517000031F026841F0400142E80313002B08BFFF
:105180007047016851E8031F026841F0400142E89E
:10519000031393B1016851E8031F026841F0400115
:1051A00042E803134BB1016851E8031F026841F064
:1051B000400142E80313002BD8D17047406AFEF744
:1051C00027B9000081B090F84210222921D18368CC
:1051D0000246B3F5805F09D152F8281F52F8183CF7
:1051E000002B63D003685B680AE000BF52F8281FF9
:1051F00013B90369002BF5D003685B6803F07F03E4
:105200000B70116801311160C18D01390A04C1852B
:1052100002D001B0704700BF0168CA6822F02002C6
:10522000CA60CA6822F48072CA604A6922F0010228
:105230004A61202180F8421000214163026B012A5B
:105240003CD10163016851E8031F026821F010019D
:1052500042E80313DBB1016851E8031F026821F043
:10526000100142E8031393B1016851E8031F02687B
:1052700021F0100142E803134BB1016851E8031F0C
:10528000026821F0100142E80313002BDAD1016813
:105290000A68D20606D5002200920A680092496880
:1052A00000910099818D01B0FDF7E4BB026852685E
:1052B0006FF35F2221F8022B8162A5E701B0FEF7B0
:1052C00035B8000040F27800C2F20000FDF7F0BBF4
:1052D000FEE7000010B590F890C00023BCF1050F68
:1052E00013D80CEB4C0E40F83E10002100EBCE041E
:1052F000C4F23421C4E90121E36023746382636151
:105300000CF10101012380F89010184610BD000037
:105310002DE9F04381B090F890706FB381468846D4
:105320000025002609E000BF013F013E89F890708A
:105330000136F5B2F8B285421ED205EB450009EB05
:10534000C0046068414601F0AFF80028F0D1F8B21F
:105350000138A842E8D900EB400009EBC00159F838
:1053600030000F1DD1E904518CCF84E88D00C4E9D1
:10537000045199F89070D7E701B0BDE8F0830000C0
:105380002DE9F04F87B0DDF840A00692BAF1000F8A
:10539000029000F0298103F108000490002005909C
:1053A000039113E006994046464601F07DF8002837
:1053B00008BF5FEACB7000F00F81019803991328B2
:1053C000059800F10200059080F0FF8148680021F7
:1053D000CCF2964100F0E4FF40F2C808C2F20008A7
:1053E000D8F8001044F66D65C4F2C61543F23907CB
:1053F00001FB0574064624F0004001F099F94FF0D6
:10540000405101F011FA0021CCF2FA3101F00CFA0E
:105410000146304600F0C4FF04FB0571064621F04A
:105420000040C8F8000001F083F94FF0405101F04E
:10543000FBF90021C4F2164101F0F6F90021C4F293
:10544000963100F0ADFFDDF8108081460127002580
:105450000AE000BF013555454FF0000738BF01276E
:10546000AA4508F1100829D098F805000028F1D0C5
:1054700058E90214484601F0E1FB834630462146D4
:1054800001F0DCFB014601F0CFF9044658465946CD
:1054900001F0CAF9214600F083FF00F06BFFD8F855
:1054A0000010044608460021C4F2482100F078FFAD
:1054B0000146204600F0F1FF0028CBD10699304686
:1054C00000F0F2FF002808BF5FEAC77005D102981C
:1054D00090F89070062FC0F05C810599039841F018
:1054E0000101406801910021CCF2964100F058FF83
:1054F00040F2C809C2F20009D9F8001044F66D66FE
:10550000C4F2C61643F2390701FB0675044625F0BE
:10551000004001F00DF94FF0405101F085F90021F4
:10552000CCF2FA3101F080F90146204600F038FF54
:1055300005FB0671804621F00040C9F8000001F02B
:10554000F7F84FF0405101F06FF90021C4F2164115
:1055500001F06AF90021C4F2963100F021FF049EA7
:1055600081464FF0010B00250CE000BF0135554589
:105570004FF0000B38BF4FF0010BAA4506F11006A3
:105580003FF410AF70790028F0D056E90214484675
:1055900001F054FB07464046214601F04FFB01460F
:1055A00001F042F904463846394601F03DF92146FA
:1055B00000F0F6FE00F0DEFE3168044608460021E9
:1055C000C4F2482100F0ECFE0146204600F073FFD3
:1055D0000028CBD0E6E600BF029890F89070062F26
:1055E000BFF4EBAED5E000BF40F2C800C2F200004D
:1055F00004684868002144F66D6ACCF29641C4F212
:10560000C61A00F0CDFE40F2000881464FF0000BB4
:1056100043F23905C4F2FA3806E000BFBBF10F0FC0
:105620000BF1050B80F0CC8004FB0A5424F0004001
:1056300001F07EF84FF0304101F0F6F8414601F0FC
:10564000F3F80146484600F0ABFE04FB0A5106465B
:1056500021F00044069900F027FF20B9029890F845
:105660009070052F7ED904FB0A5424F0004001F00D
:105670005FF84FF0304101F0D7F8414601F0D4F81F
:105680000146484600F08CFE04FB0A51064621F014
:105690000044069900F008FF20B9029890F8907035
:1056A000062F5FD304FB0A5424F0004001F040F8B9
:1056B0004FF0304101F0B8F8414601F0B5F801462D
:1056C000484600F06DFE04FB0A51064621F00044F6
:1056D000069900F0E9FE20B9029890F89070062F24
:1056E00040D304FB0A5424F0004001F021F84FF0AD
:1056F000304101F099F8414601F096F801464846DC
:1057000000F04EFE04FB0A51064621F000440699C3
:1057100000F0CAFE20B9029890F89070062F21D3AD
:1057200004FB0A5424F0004001F002F84FF030412D
:1057300001F07AF8414601F077F80146484600F05A
:105740002FFE04FB0A51064621F00044069900F0A2
:10575000ABFE00287FF462AF029890F89070062F9D
:10576000BFF45CAF40F2C800C2F200000460204603
:1057700000F0DEFF4FF0405101F056F80021C4F276
:10578000164101F051F80021C4F2963100F008FEF4
:105790008146029B07EB470103EBC10043F83190C0
:1057A0000021C4F234210022C0E90161791CC260E9
:1057B00002744282426183F8901007B0BDE8F08F16
:1057C00040F2C800C2F200000460002007B0BDE84B
:1057D000F08F000080B59121FAF782FD80BD0000B6
:1057E0002DE9F04F8BB0044690F89000002800F0AF
:1057F000E780894601F66C404FF0000B0290CDE93E
:10580000031424E099F88C7F079A029B20465146A6
:105810000097FFF7B5FD054690B1D5E90010C9F82E
:1058200000100021CCF2163100F0BAFD0999C9F838
:10583000040001200A9A0870B4211180287469823A
:1058400094F890000BF1010B834580F0B9800BEBCD
:105850004B0004EBC00ADAF80C004FF0824100F074
:105860009FFD0021C4F2B43100F08AFCDAF8141074
:10587000CAF80C0008464CF6CD41C3F6CC5100F0F6
:105880008FFD40F6DB71C4F2C90100F079FC52468D
:1058900032F8121FCAF8140031B1481E01041080FA
:1058A00004BF00208AF81000514611F8100F0A9228
:1058B00000280991C4D1D9E90006DAE9001701F0FE
:1058C000BDF905463046394601F0B8F9014600F009
:1058D000ABFF06462846294600F0A6FF314600F0F9
:1058E0005FFD00F047FDDAF8081005460846002184
:1058F000C4F2C81100F054FD0146284600F0CDFD69
:1059000000289DD194F89080D9F8980FB8F1000F35
:1059100007903FF477AF00204FF000090890002077
:10592000069005E009F10109C84504F118043FD0CB
:10593000CB45F7D0207C0028F4D16768DAF8040062
:10594000394601F07BF90021C4F29641064600F089
:10595000B2FD0028E6D100213046C4F2E14100F05A
:105960009CFD0028DED10799384600F09DFD0028F7
:10597000D8D100213046CCF2964100F011FD089FAD
:1059800020F00045B7FA87F0069E400905902846AA
:10599000314600F090FD002818BF0120059908430A
:1059A00018BF2E46069618BF27460897BAE700BFCD
:1059B000089DDDE90394002D7FF42FAF22E700BF9F
:1059C0000BB0BDE8F08F000090B0FCF7B1FC0026F2
:1059D0001020CDE90B660B904FF4601002240127D4
:1059E0000F9006A8CDE90966CDE9076606940A97E7
:1059F000CDE90D46FCF74EFE0F2001A951C14FF431
:105A00008060CDE9040601A80221FCF73BFD41F2CC
:105A100018050996C4F20205286844F2004840F0CF
:105A200004002860286806A900F00400019001988D
:105A30002868C4F2000840F008002860286806AC16
:105A400000F00800019001981220C1C108F54440FF
:105A50002146FCF745FB08F548402146CDE906768E
:105A60000897FCF73DFB062000210022FCF7CEFC46
:105A70000620FCF7B7FC072000210022FCF7C6FC3B
:105A80000720FCF7AFFC0A2000210022FCF7BEFC37
:105A90000A20FCF7A7FC55F8040C002140F0010097
:105AA00045F8040C55F8040C002200F001000690A3
:105AB00006981020FCF7AAFC1020FCF793FC11209C
:105AC00000210022FCF7A2FC1120FCF78BFC40F225
:105AD0007009C2F200094D4645F8088F4FF4E130D5
